{
	"HelloWord.sol": {
		"interactBAYC": {
			"abi": [
				{
					"inputs": [
						{
							"internalType": "address",
							"name": "owner",
							"type": "address"
						}
					],
					"name": "balanceOfBAYC",
					"outputs": [
						{
							"internalType": "uint256",
							"name": "balance",
							"type": "uint256"
						}
					],
					"stateMutability": "view",
					"type": "function"
				},
				{
					"inputs": [
						{
							"internalType": "address",
							"name": "from",
							"type": "address"
						},
						{
							"internalType": "address",
							"name": "to",
							"type": "address"
						},
						{
							"internalType": "uint256",
							"name": "tokenId",
							"type": "uint256"
						}
					],
					"name": "safeTransferFromBAYC",
					"outputs": [],
					"stateMutability": "nonpayable",
					"type": "function"
				}
			],
			"devdoc": {
				"kind": "dev",
				"methods": {},
				"version": 1
			},
			"evm": {
				"assembly": "    /* \"HelloWord.sol\":17638:18192  contract interactBAYC {... */\n  mstore(0x40, 0x80)\n    /* \"HelloWord.sol\":17752:17794  0xBC4CA0EdA7647A8aB7C2061c2E118A18a936f13D */\n  0xbc4ca0eda7647a8ab7c2061c2e118a18a936f13d\n    /* \"HelloWord.sol\":17729:17795  IERC721 BAYC = IERC721(0xBC4CA0EdA7647A8aB7C2061c2E118A18a936f13D) */\n  0x00\n  dup1\n  0x0100\n  exp\n  dup2\n  sload\n  dup2\n  0xffffffffffffffffffffffffffffffffffffffff\n  mul\n  not\n  and\n  swap1\n  dup4\n  0xffffffffffffffffffffffffffffffffffffffff\n  and\n  mul\n  or\n  swap1\n  sstore\n  pop\n    /* \"HelloWord.sol\":17638:18192  contract interactBAYC {... */\n  callvalue\n  dup1\n  iszero\n  tag_1\n  jumpi\n  0x00\n  dup1\n  revert\ntag_1:\n  pop\n  dataSize(sub_0)\n  dup1\n  dataOffset(sub_0)\n  0x00\n  codecopy\n  0x00\n  return\nstop\n\nsub_0: assembly {\n        /* \"HelloWord.sol\":17638:18192  contract interactBAYC {... */\n      mstore(0x40, 0x80)\n      callvalue\n      dup1\n      iszero\n      tag_1\n      jumpi\n      0x00\n      dup1\n      revert\n    tag_1:\n      pop\n      jumpi(tag_2, lt(calldatasize, 0x04))\n      shr(0xe0, calldataload(0x00))\n      dup1\n      0x5b4f65bf\n      eq\n      tag_3\n      jumpi\n      dup1\n      0xfec8a8a5\n      eq\n      tag_4\n      jumpi\n    tag_2:\n      0x00\n      dup1\n      revert\n        /* \"HelloWord.sol\":17861:17983  function balanceOfBAYC(address owner) external view returns (uint256 balance){... */\n    tag_3:\n      tag_5\n      0x04\n      dup1\n      calldatasize\n      sub\n      dup2\n      add\n      swap1\n      tag_6\n      swap2\n      swap1\n      tag_7\n      jump\t// in\n    tag_6:\n      tag_8\n      jump\t// in\n    tag_5:\n      mload(0x40)\n      tag_9\n      swap2\n      swap1\n      tag_10\n      jump\t// in\n    tag_9:\n      mload(0x40)\n      dup1\n      swap2\n      sub\n      swap1\n      return\n        /* \"HelloWord.sol\":18052:18190  function safeTransferFromBAYC(address from, address to, uint256 tokenId) external{... */\n    tag_4:\n      tag_11\n      0x04\n      dup1\n      calldatasize\n      sub\n      dup2\n      add\n      swap1\n      tag_12\n      swap2\n      swap1\n      tag_13\n      jump\t// in\n    tag_12:\n      tag_14\n      jump\t// in\n    tag_11:\n      stop\n        /* \"HelloWord.sol\":17861:17983  function balanceOfBAYC(address owner) external view returns (uint256 balance){... */\n    tag_8:\n        /* \"HelloWord.sol\":17922:17937  uint256 balance */\n      0x00\n        /* \"HelloWord.sol\":17955:17959  BAYC */\n      dup1\n      0x00\n      swap1\n      sload\n      swap1\n      0x0100\n      exp\n      swap1\n      div\n      0xffffffffffffffffffffffffffffffffffffffff\n      and\n        /* \"HelloWord.sol\":17955:17969  BAYC.balanceOf */\n      0xffffffffffffffffffffffffffffffffffffffff\n      and\n      0x70a08231\n        /* \"HelloWord.sol\":17970:17975  owner */\n      dup4\n        /* \"HelloWord.sol\":17955:17976  BAYC.balanceOf(owner) */\n      mload(0x40)\n      dup3\n      0xffffffff\n      and\n      0xe0\n      shl\n      dup2\n      mstore\n      0x04\n      add\n      tag_16\n      swap2\n      swap1\n      tag_17\n      jump\t// in\n    tag_16:\n      0x20\n      mload(0x40)\n      dup1\n      dup4\n      sub\n      dup2\n      dup7\n      dup1\n      extcodesize\n      iszero\n      dup1\n      iszero\n      tag_18\n      jumpi\n      0x00\n      dup1\n      revert\n    tag_18:\n      pop\n      gas\n      staticcall\n      iszero\n      dup1\n      iszero\n      tag_20\n      jumpi\n      returndatasize\n      0x00\n      dup1\n      returndatacopy\n      revert(0x00, returndatasize)\n    tag_20:\n      pop\n      pop\n      pop\n      pop\n      mload(0x40)\n      returndatasize\n      not(0x1f)\n      0x1f\n      dup3\n      add\n      and\n      dup3\n      add\n      dup1\n      0x40\n      mstore\n      pop\n      dup2\n      add\n      swap1\n      tag_21\n      swap2\n      swap1\n      tag_22\n      jump\t// in\n    tag_21:\n        /* \"HelloWord.sol\":17948:17976  return BAYC.balanceOf(owner) */\n      swap1\n      pop\n        /* \"HelloWord.sol\":17861:17983  function balanceOfBAYC(address owner) external view returns (uint256 balance){... */\n      swap2\n      swap1\n      pop\n      jump\t// out\n        /* \"HelloWord.sol\":18052:18190  function safeTransferFromBAYC(address from, address to, uint256 tokenId) external{... */\n    tag_14:\n        /* \"HelloWord.sol\":18143:18147  BAYC */\n      0x00\n      dup1\n      sload\n      swap1\n      0x0100\n      exp\n      swap1\n      div\n      0xffffffffffffffffffffffffffffffffffffffff\n      and\n        /* \"HelloWord.sol\":18143:18164  BAYC.safeTransferFrom */\n      0xffffffffffffffffffffffffffffffffffffffff\n      and\n      0x42842e0e\n        /* \"HelloWord.sol\":18165:18169  from */\n      dup5\n        /* \"HelloWord.sol\":18171:18173  to */\n      dup5\n        /* \"HelloWord.sol\":18175:18182  tokenId */\n      dup5\n        /* \"HelloWord.sol\":18143:18183  BAYC.safeTransferFrom(from, to, tokenId) */\n      mload(0x40)\n      dup5\n      0xffffffff\n      and\n      0xe0\n      shl\n      dup2\n      mstore\n      0x04\n      add\n      tag_24\n      swap4\n      swap3\n      swap2\n      swap1\n      tag_25\n      jump\t// in\n    tag_24:\n      0x00\n      mload(0x40)\n      dup1\n      dup4\n      sub\n      dup2\n      0x00\n      dup8\n      dup1\n      extcodesize\n      iszero\n      dup1\n      iszero\n      tag_26\n      jumpi\n      0x00\n      dup1\n      revert\n    tag_26:\n      pop\n      gas\n      call\n      iszero\n      dup1\n      iszero\n      tag_28\n      jumpi\n      returndatasize\n      0x00\n      dup1\n      returndatacopy\n      revert(0x00, returndatasize)\n    tag_28:\n      pop\n      pop\n      pop\n      pop\n        /* \"HelloWord.sol\":18052:18190  function safeTransferFromBAYC(address from, address to, uint256 tokenId) external{... */\n      pop\n      pop\n      pop\n      jump\t// out\n        /* \"#utility.yul\":7:146   */\n    tag_30:\n        /* \"#utility.yul\":53:58   */\n      0x00\n        /* \"#utility.yul\":91:97   */\n      dup2\n        /* \"#utility.yul\":78:98   */\n      calldataload\n        /* \"#utility.yul\":69:98   */\n      swap1\n      pop\n        /* \"#utility.yul\":107:140   */\n      tag_32\n        /* \"#utility.yul\":134:139   */\n      dup2\n        /* \"#utility.yul\":107:140   */\n      tag_33\n      jump\t// in\n    tag_32:\n        /* \"#utility.yul\":7:146   */\n      swap3\n      swap2\n      pop\n      pop\n      jump\t// out\n        /* \"#utility.yul\":152:291   */\n    tag_34:\n        /* \"#utility.yul\":198:203   */\n      0x00\n        /* \"#utility.yul\":236:242   */\n      dup2\n        /* \"#utility.yul\":223:243   */\n      calldataload\n        /* \"#utility.yul\":214:243   */\n      swap1\n      pop\n        /* \"#utility.yul\":252:285   */\n      tag_36\n        /* \"#utility.yul\":279:284   */\n      dup2\n        /* \"#utility.yul\":252:285   */\n      tag_37\n      jump\t// in\n    tag_36:\n        /* \"#utility.yul\":152:291   */\n      swap3\n      swap2\n      pop\n      pop\n      jump\t// out\n        /* \"#utility.yul\":297:440   */\n    tag_38:\n        /* \"#utility.yul\":354:359   */\n      0x00\n        /* \"#utility.yul\":385:391   */\n      dup2\n        /* \"#utility.yul\":379:392   */\n      mload\n        /* \"#utility.yul\":370:392   */\n      swap1\n      pop\n        /* \"#utility.yul\":401:434   */\n      tag_40\n        /* \"#utility.yul\":428:433   */\n      dup2\n        /* \"#utility.yul\":401:434   */\n      tag_37\n      jump\t// in\n    tag_40:\n        /* \"#utility.yul\":297:440   */\n      swap3\n      swap2\n      pop\n      pop\n      jump\t// out\n        /* \"#utility.yul\":446:775   */\n    tag_7:\n        /* \"#utility.yul\":505:511   */\n      0x00\n        /* \"#utility.yul\":554:556   */\n      0x20\n        /* \"#utility.yul\":542:551   */\n      dup3\n        /* \"#utility.yul\":533:540   */\n      dup5\n        /* \"#utility.yul\":529:552   */\n      sub\n        /* \"#utility.yul\":525:557   */\n      slt\n        /* \"#utility.yul\":522:641   */\n      iszero\n      tag_42\n      jumpi\n        /* \"#utility.yul\":560:639   */\n      tag_43\n      tag_44\n      jump\t// in\n    tag_43:\n        /* \"#utility.yul\":522:641   */\n    tag_42:\n        /* \"#utility.yul\":680:681   */\n      0x00\n        /* \"#utility.yul\":705:758   */\n      tag_45\n        /* \"#utility.yul\":750:757   */\n      dup5\n        /* \"#utility.yul\":741:747   */\n      dup3\n        /* \"#utility.yul\":730:739   */\n      dup6\n        /* \"#utility.yul\":726:748   */\n      add\n        /* \"#utility.yul\":705:758   */\n      tag_30\n      jump\t// in\n    tag_45:\n        /* \"#utility.yul\":695:758   */\n      swap2\n      pop\n        /* \"#utility.yul\":651:768   */\n      pop\n        /* \"#utility.yul\":446:775   */\n      swap3\n      swap2\n      pop\n      pop\n      jump\t// out\n        /* \"#utility.yul\":781:1400   */\n    tag_13:\n        /* \"#utility.yul\":858:864   */\n      0x00\n        /* \"#utility.yul\":866:872   */\n      dup1\n        /* \"#utility.yul\":874:880   */\n      0x00\n        /* \"#utility.yul\":923:925   */\n      0x60\n        /* \"#utility.yul\":911:920   */\n      dup5\n        /* \"#utility.yul\":902:909   */\n      dup7\n        /* \"#utility.yul\":898:921   */\n      sub\n        /* \"#utility.yul\":894:926   */\n      slt\n        /* \"#utility.yul\":891:1010   */\n      iszero\n      tag_47\n      jumpi\n        /* \"#utility.yul\":929:1008   */\n      tag_48\n      tag_44\n      jump\t// in\n    tag_48:\n        /* \"#utility.yul\":891:1010   */\n    tag_47:\n        /* \"#utility.yul\":1049:1050   */\n      0x00\n        /* \"#utility.yul\":1074:1127   */\n      tag_49\n        /* \"#utility.yul\":1119:1126   */\n      dup7\n        /* \"#utility.yul\":1110:1116   */\n      dup3\n        /* \"#utility.yul\":1099:1108   */\n      dup8\n        /* \"#utility.yul\":1095:1117   */\n      add\n        /* \"#utility.yul\":1074:1127   */\n      tag_30\n      jump\t// in\n    tag_49:\n        /* \"#utility.yul\":1064:1127   */\n      swap4\n      pop\n        /* \"#utility.yul\":1020:1137   */\n      pop\n        /* \"#utility.yul\":1176:1178   */\n      0x20\n        /* \"#utility.yul\":1202:1255   */\n      tag_50\n        /* \"#utility.yul\":1247:1254   */\n      dup7\n        /* \"#utility.yul\":1238:1244   */\n      dup3\n        /* \"#utility.yul\":1227:1236   */\n      dup8\n        /* \"#utility.yul\":1223:1245   */\n      add\n        /* \"#utility.yul\":1202:1255   */\n      tag_30\n      jump\t// in\n    tag_50:\n        /* \"#utility.yul\":1192:1255   */\n      swap3\n      pop\n        /* \"#utility.yul\":1147:1265   */\n      pop\n        /* \"#utility.yul\":1304:1306   */\n      0x40\n        /* \"#utility.yul\":1330:1383   */\n      tag_51\n        /* \"#utility.yul\":1375:1382   */\n      dup7\n        /* \"#utility.yul\":1366:1372   */\n      dup3\n        /* \"#utility.yul\":1355:1364   */\n      dup8\n        /* \"#utility.yul\":1351:1373   */\n      add\n        /* \"#utility.yul\":1330:1383   */\n      tag_34\n      jump\t// in\n    tag_51:\n        /* \"#utility.yul\":1320:1383   */\n      swap2\n      pop\n        /* \"#utility.yul\":1275:1393   */\n      pop\n        /* \"#utility.yul\":781:1400   */\n      swap3\n      pop\n      swap3\n      pop\n      swap3\n      jump\t// out\n        /* \"#utility.yul\":1406:1757   */\n    tag_22:\n        /* \"#utility.yul\":1476:1482   */\n      0x00\n        /* \"#utility.yul\":1525:1527   */\n      0x20\n        /* \"#utility.yul\":1513:1522   */\n      dup3\n        /* \"#utility.yul\":1504:1511   */\n      dup5\n        /* \"#utility.yul\":1500:1523   */\n      sub\n        /* \"#utility.yul\":1496:1528   */\n      slt\n        /* \"#utility.yul\":1493:1612   */\n      iszero\n      tag_53\n      jumpi\n        /* \"#utility.yul\":1531:1610   */\n      tag_54\n      tag_44\n      jump\t// in\n    tag_54:\n        /* \"#utility.yul\":1493:1612   */\n    tag_53:\n        /* \"#utility.yul\":1651:1652   */\n      0x00\n        /* \"#utility.yul\":1676:1740   */\n      tag_55\n        /* \"#utility.yul\":1732:1739   */\n      dup5\n        /* \"#utility.yul\":1723:1729   */\n      dup3\n        /* \"#utility.yul\":1712:1721   */\n      dup6\n        /* \"#utility.yul\":1708:1730   */\n      add\n        /* \"#utility.yul\":1676:1740   */\n      tag_38\n      jump\t// in\n    tag_55:\n        /* \"#utility.yul\":1666:1740   */\n      swap2\n      pop\n        /* \"#utility.yul\":1622:1750   */\n      pop\n        /* \"#utility.yul\":1406:1757   */\n      swap3\n      swap2\n      pop\n      pop\n      jump\t// out\n        /* \"#utility.yul\":1763:1881   */\n    tag_56:\n        /* \"#utility.yul\":1850:1874   */\n      tag_58\n        /* \"#utility.yul\":1868:1873   */\n      dup2\n        /* \"#utility.yul\":1850:1874   */\n      tag_59\n      jump\t// in\n    tag_58:\n        /* \"#utility.yul\":1845:1848   */\n      dup3\n        /* \"#utility.yul\":1838:1875   */\n      mstore\n        /* \"#utility.yul\":1763:1881   */\n      pop\n      pop\n      jump\t// out\n        /* \"#utility.yul\":1887:2005   */\n    tag_60:\n        /* \"#utility.yul\":1974:1998   */\n      tag_62\n        /* \"#utility.yul\":1992:1997   */\n      dup2\n        /* \"#utility.yul\":1974:1998   */\n      tag_63\n      jump\t// in\n    tag_62:\n        /* \"#utility.yul\":1969:1972   */\n      dup3\n        /* \"#utility.yul\":1962:1999   */\n      mstore\n        /* \"#utility.yul\":1887:2005   */\n      pop\n      pop\n      jump\t// out\n        /* \"#utility.yul\":2011:2233   */\n    tag_17:\n        /* \"#utility.yul\":2104:2108   */\n      0x00\n        /* \"#utility.yul\":2142:2144   */\n      0x20\n        /* \"#utility.yul\":2131:2140   */\n      dup3\n        /* \"#utility.yul\":2127:2145   */\n      add\n        /* \"#utility.yul\":2119:2145   */\n      swap1\n      pop\n        /* \"#utility.yul\":2155:2226   */\n      tag_65\n        /* \"#utility.yul\":2223:2224   */\n      0x00\n        /* \"#utility.yul\":2212:2221   */\n      dup4\n        /* \"#utility.yul\":2208:2225   */\n      add\n        /* \"#utility.yul\":2199:2205   */\n      dup5\n        /* \"#utility.yul\":2155:2226   */\n      tag_56\n      jump\t// in\n    tag_65:\n        /* \"#utility.yul\":2011:2233   */\n      swap3\n      swap2\n      pop\n      pop\n      jump\t// out\n        /* \"#utility.yul\":2239:2681   */\n    tag_25:\n        /* \"#utility.yul\":2388:2392   */\n      0x00\n        /* \"#utility.yul\":2426:2428   */\n      0x60\n        /* \"#utility.yul\":2415:2424   */\n      dup3\n        /* \"#utility.yul\":2411:2429   */\n      add\n        /* \"#utility.yul\":2403:2429   */\n      swap1\n      pop\n        /* \"#utility.yul\":2439:2510   */\n      tag_67\n        /* \"#utility.yul\":2507:2508   */\n      0x00\n        /* \"#utility.yul\":2496:2505   */\n      dup4\n        /* \"#utility.yul\":2492:2509   */\n      add\n        /* \"#utility.yul\":2483:2489   */\n      dup7\n        /* \"#utility.yul\":2439:2510   */\n      tag_56\n      jump\t// in\n    tag_67:\n        /* \"#utility.yul\":2520:2592   */\n      tag_68\n        /* \"#utility.yul\":2588:2590   */\n      0x20\n        /* \"#utility.yul\":2577:2586   */\n      dup4\n        /* \"#utility.yul\":2573:2591   */\n      add\n        /* \"#utility.yul\":2564:2570   */\n      dup6\n        /* \"#utility.yul\":2520:2592   */\n      tag_56\n      jump\t// in\n    tag_68:\n        /* \"#utility.yul\":2602:2674   */\n      tag_69\n        /* \"#utility.yul\":2670:2672   */\n      0x40\n        /* \"#utility.yul\":2659:2668   */\n      dup4\n        /* \"#utility.yul\":2655:2673   */\n      add\n        /* \"#utility.yul\":2646:2652   */\n      dup5\n        /* \"#utility.yul\":2602:2674   */\n      tag_60\n      jump\t// in\n    tag_69:\n        /* \"#utility.yul\":2239:2681   */\n      swap5\n      swap4\n      pop\n      pop\n      pop\n      pop\n      jump\t// out\n        /* \"#utility.yul\":2687:2909   */\n    tag_10:\n        /* \"#utility.yul\":2780:2784   */\n      0x00\n        /* \"#utility.yul\":2818:2820   */\n      0x20\n        /* \"#utility.yul\":2807:2816   */\n      dup3\n        /* \"#utility.yul\":2803:2821   */\n      add\n        /* \"#utility.yul\":2795:2821   */\n      swap1\n      pop\n        /* \"#utility.yul\":2831:2902   */\n      tag_71\n        /* \"#utility.yul\":2899:2900   */\n      0x00\n        /* \"#utility.yul\":2888:2897   */\n      dup4\n        /* \"#utility.yul\":2884:2901   */\n      add\n        /* \"#utility.yul\":2875:2881   */\n      dup5\n        /* \"#utility.yul\":2831:2902   */\n      tag_60\n      jump\t// in\n    tag_71:\n        /* \"#utility.yul\":2687:2909   */\n      swap3\n      swap2\n      pop\n      pop\n      jump\t// out\n        /* \"#utility.yul\":2996:3092   */\n    tag_59:\n        /* \"#utility.yul\":3033:3040   */\n      0x00\n        /* \"#utility.yul\":3062:3086   */\n      tag_75\n        /* \"#utility.yul\":3080:3085   */\n      dup3\n        /* \"#utility.yul\":3062:3086   */\n      tag_76\n      jump\t// in\n    tag_75:\n        /* \"#utility.yul\":3051:3086   */\n      swap1\n      pop\n        /* \"#utility.yul\":2996:3092   */\n      swap2\n      swap1\n      pop\n      jump\t// out\n        /* \"#utility.yul\":3098:3224   */\n    tag_76:\n        /* \"#utility.yul\":3135:3142   */\n      0x00\n        /* \"#utility.yul\":3175:3217   */\n      0xffffffffffffffffffffffffffffffffffffffff\n        /* \"#utility.yul\":3168:3173   */\n      dup3\n        /* \"#utility.yul\":3164:3218   */\n      and\n        /* \"#utility.yul\":3153:3218   */\n      swap1\n      pop\n        /* \"#utility.yul\":3098:3224   */\n      swap2\n      swap1\n      pop\n      jump\t// out\n        /* \"#utility.yul\":3230:3307   */\n    tag_63:\n        /* \"#utility.yul\":3267:3274   */\n      0x00\n        /* \"#utility.yul\":3296:3301   */\n      dup2\n        /* \"#utility.yul\":3285:3301   */\n      swap1\n      pop\n        /* \"#utility.yul\":3230:3307   */\n      swap2\n      swap1\n      pop\n      jump\t// out\n        /* \"#utility.yul\":3436:3553   */\n    tag_44:\n        /* \"#utility.yul\":3545:3546   */\n      0x00\n        /* \"#utility.yul\":3542:3543   */\n      dup1\n        /* \"#utility.yul\":3535:3547   */\n      revert\n        /* \"#utility.yul\":3559:3681   */\n    tag_33:\n        /* \"#utility.yul\":3632:3656   */\n      tag_83\n        /* \"#utility.yul\":3650:3655   */\n      dup2\n        /* \"#utility.yul\":3632:3656   */\n      tag_59\n      jump\t// in\n    tag_83:\n        /* \"#utility.yul\":3625:3630   */\n      dup2\n        /* \"#utility.yul\":3622:3657   */\n      eq\n        /* \"#utility.yul\":3612:3675   */\n      tag_84\n      jumpi\n        /* \"#utility.yul\":3671:3672   */\n      0x00\n        /* \"#utility.yul\":3668:3669   */\n      dup1\n        /* \"#utility.yul\":3661:3673   */\n      revert\n        /* \"#utility.yul\":3612:3675   */\n    tag_84:\n        /* \"#utility.yul\":3559:3681   */\n      pop\n      jump\t// out\n        /* \"#utility.yul\":3687:3809   */\n    tag_37:\n        /* \"#utility.yul\":3760:3784   */\n      tag_86\n        /* \"#utility.yul\":3778:3783   */\n      dup2\n        /* \"#utility.yul\":3760:3784   */\n      tag_63\n      jump\t// in\n    tag_86:\n        /* \"#utility.yul\":3753:3758   */\n      dup2\n        /* \"#utility.yul\":3750:3785   */\n      eq\n        /* \"#utility.yul\":3740:3803   */\n      tag_87\n      jumpi\n        /* \"#utility.yul\":3799:3800   */\n      0x00\n        /* \"#utility.yul\":3796:3797   */\n      dup1\n        /* \"#utility.yul\":3789:3801   */\n      revert\n        /* \"#utility.yul\":3740:3803   */\n    tag_87:\n        /* \"#utility.yul\":3687:3809   */\n      pop\n      jump\t// out\n\n    auxdata: 0xa2646970667358221220708c51192a04e8d02f374613a559d0c34956c06367719011d852a19c266924c064736f6c63430008070033\n}\n",
				"bytecode": {
					"linkReferences": {},
					"object": "608060405273bc4ca0eda7647a8ab7c2061c2e118a18a936f13d6000806101000a81548173ffffffffffffffffffffffffffffffffffffffff021916908373ffffffffffffffffffffffffffffffffffffffff16021790555034801561006457600080fd5b506103ea806100746000396000f3fe608060405234801561001057600080fd5b50600436106100365760003560e01c80635b4f65bf1461003b578063fec8a8a51461006b575b600080fd5b6100556004803603810190610050919061020d565b610087565b604051610062919061032a565b60405180910390f35b6100856004803603810190610080919061023a565b61013a565b005b60008060009054906101000a900473ffffffffffffffffffffffffffffffffffffffff1673ffffffffffffffffffffffffffffffffffffffff166370a08231836040518263ffffffff1660e01b81526004016100e391906102d8565b60206040518083038186803b1580156100fb57600080fd5b505afa15801561010f573d6000803e3d6000fd5b505050506040513d601f19601f82011682018060405250810190610133919061028d565b9050919050565b60008054906101000a900473ffffffffffffffffffffffffffffffffffffffff1673ffffffffffffffffffffffffffffffffffffffff166342842e0e8484846040518463ffffffff1660e01b8152600401610197939291906102f3565b600060405180830381600087803b1580156101b157600080fd5b505af11580156101c5573d6000803e3d6000fd5b50505050505050565b6000813590506101dd81610386565b92915050565b6000813590506101f28161039d565b92915050565b6000815190506102078161039d565b92915050565b60006020828403121561022357610222610381565b5b6000610231848285016101ce565b91505092915050565b60008060006060848603121561025357610252610381565b5b6000610261868287016101ce565b9350506020610272868287016101ce565b9250506040610283868287016101e3565b9150509250925092565b6000602082840312156102a3576102a2610381565b5b60006102b1848285016101f8565b91505092915050565b6102c381610345565b82525050565b6102d281610377565b82525050565b60006020820190506102ed60008301846102ba565b92915050565b600060608201905061030860008301866102ba565b61031560208301856102ba565b61032260408301846102c9565b949350505050565b600060208201905061033f60008301846102c9565b92915050565b600061035082610357565b9050919050565b600073ffffffffffffffffffffffffffffffffffffffff82169050919050565b6000819050919050565b600080fd5b61038f81610345565b811461039a57600080fd5b50565b6103a681610377565b81146103b157600080fd5b5056fea2646970667358221220708c51192a04e8d02f374613a559d0c34956c06367719011d852a19c266924c064736f6c63430008070033",
					"opcodes": "PUSH1 0x80 PUSH1 0x40 MSTORE PUSH20 0xBC4CA0EDA7647A8AB7C2061C2E118A18A936F13D PUSH1 0x0 DUP1 PUSH2 0x100 EXP DUP2 SLOAD DUP2 PUSH20 0xFFFFFFFFFFFFFFFFFFFFFFFFFFFFFFFFFFFFFFFF MUL NOT AND SWAP1 DUP4 PUSH20 0xFFFFFFFFFFFFFFFFFFFFFFFFFFFFFFFFFFFFFFFF AND MUL OR SWAP1 SSTORE POP CALLVALUE DUP1 ISZERO PUSH2 0x64 JUMPI PUSH1 0x0 DUP1 REVERT JUMPDEST POP PUSH2 0x3EA DUP1 PUSH2 0x74 PUSH1 0x0 CODECOPY PUSH1 0x0 RETURN INVALID PUSH1 0x80 PUSH1 0x40 MSTORE CALLVALUE DUP1 ISZERO PUSH2 0x10 JUMPI PUSH1 0x0 DUP1 REVERT JUMPDEST POP PUSH1 0x4 CALLDATASIZE LT PUSH2 0x36 JUMPI PUSH1 0x0 CALLDATALOAD PUSH1 0xE0 SHR DUP1 PUSH4 0x5B4F65BF EQ PUSH2 0x3B JUMPI DUP1 PUSH4 0xFEC8A8A5 EQ PUSH2 0x6B JUMPI JUMPDEST PUSH1 0x0 DUP1 REVERT JUMPDEST PUSH2 0x55 PUSH1 0x4 DUP1 CALLDATASIZE SUB DUP2 ADD SWAP1 PUSH2 0x50 SWAP2 SWAP1 PUSH2 0x20D JUMP JUMPDEST PUSH2 0x87 JUMP JUMPDEST PUSH1 0x40 MLOAD PUSH2 0x62 SWAP2 SWAP1 PUSH2 0x32A JUMP JUMPDEST PUSH1 0x40 MLOAD DUP1 SWAP2 SUB SWAP1 RETURN JUMPDEST PUSH2 0x85 PUSH1 0x4 DUP1 CALLDATASIZE SUB DUP2 ADD SWAP1 PUSH2 0x80 SWAP2 SWAP1 PUSH2 0x23A JUMP JUMPDEST PUSH2 0x13A JUMP JUMPDEST STOP JUMPDEST PUSH1 0x0 DUP1 PUSH1 0x0 SWAP1 SLOAD SWAP1 PUSH2 0x100 EXP SWAP1 DIV PUSH20 0xFFFFFFFFFFFFFFFFFFFFFFFFFFFFFFFFFFFFFFFF AND PUSH20 0xFFFFFFFFFFFFFFFFFFFFFFFFFFFFFFFFFFFFFFFF AND PUSH4 0x70A08231 DUP4 PUSH1 0x40 MLOAD DUP3 PUSH4 0xFFFFFFFF AND PUSH1 0xE0 SHL DUP2 MSTORE PUSH1 0x4 ADD PUSH2 0xE3 SWAP2 SWAP1 PUSH2 0x2D8 JUMP JUMPDEST PUSH1 0x20 PUSH1 0x40 MLOAD DUP1 DUP4 SUB DUP2 DUP7 DUP1 EXTCODESIZE ISZERO DUP1 ISZERO PUSH2 0xFB JUMPI PUSH1 0x0 DUP1 REVERT JUMPDEST POP GAS STATICCALL ISZERO DUP1 ISZERO PUSH2 0x10F JUMPI RETURNDATASIZE PUSH1 0x0 DUP1 RETURNDATACOPY RETURNDATASIZE PUSH1 0x0 REVERT JUMPDEST POP POP POP POP PUSH1 0x40 MLOAD RETURNDATASIZE PUSH1 0x1F NOT PUSH1 0x1F DUP3 ADD AND DUP3 ADD DUP1 PUSH1 0x40 MSTORE POP DUP2 ADD SWAP1 PUSH2 0x133 SWAP2 SWAP1 PUSH2 0x28D JUMP JUMPDEST SWAP1 POP SWAP2 SWAP1 POP JUMP JUMPDEST PUSH1 0x0 DUP1 SLOAD SWAP1 PUSH2 0x100 EXP SWAP1 DIV PUSH20 0xFFFFFFFFFFFFFFFFFFFFFFFFFFFFFFFFFFFFFFFF AND PUSH20 0xFFFFFFFFFFFFFFFFFFFFFFFFFFFFFFFFFFFFFFFF AND PUSH4 0x42842E0E DUP5 DUP5 DUP5 PUSH1 0x40 MLOAD DUP5 PUSH4 0xFFFFFFFF AND PUSH1 0xE0 SHL DUP2 MSTORE PUSH1 0x4 ADD PUSH2 0x197 SWAP4 SWAP3 SWAP2 SWAP1 PUSH2 0x2F3 JUMP JUMPDEST PUSH1 0x0 PUSH1 0x40 MLOAD DUP1 DUP4 SUB DUP2 PUSH1 0x0 DUP8 DUP1 EXTCODESIZE ISZERO DUP1 ISZERO PUSH2 0x1B1 JUMPI PUSH1 0x0 DUP1 REVERT JUMPDEST POP GAS CALL ISZERO DUP1 ISZERO PUSH2 0x1C5 JUMPI RETURNDATASIZE PUSH1 0x0 DUP1 RETURNDATACOPY RETURNDATASIZE PUSH1 0x0 REVERT JUMPDEST POP POP POP POP POP POP POP JUMP JUMPDEST PUSH1 0x0 DUP2 CALLDATALOAD SWAP1 POP PUSH2 0x1DD DUP2 PUSH2 0x386 JUMP JUMPDEST SWAP3 SWAP2 POP POP JUMP JUMPDEST PUSH1 0x0 DUP2 CALLDATALOAD SWAP1 POP PUSH2 0x1F2 DUP2 PUSH2 0x39D JUMP JUMPDEST SWAP3 SWAP2 POP POP JUMP JUMPDEST PUSH1 0x0 DUP2 MLOAD SWAP1 POP PUSH2 0x207 DUP2 PUSH2 0x39D JUMP JUMPDEST SWAP3 SWAP2 POP POP JUMP JUMPDEST PUSH1 0x0 PUSH1 0x20 DUP3 DUP5 SUB SLT ISZERO PUSH2 0x223 JUMPI PUSH2 0x222 PUSH2 0x381 JUMP JUMPDEST JUMPDEST PUSH1 0x0 PUSH2 0x231 DUP5 DUP3 DUP6 ADD PUSH2 0x1CE JUMP JUMPDEST SWAP2 POP POP SWAP3 SWAP2 POP POP JUMP JUMPDEST PUSH1 0x0 DUP1 PUSH1 0x0 PUSH1 0x60 DUP5 DUP7 SUB SLT ISZERO PUSH2 0x253 JUMPI PUSH2 0x252 PUSH2 0x381 JUMP JUMPDEST JUMPDEST PUSH1 0x0 PUSH2 0x261 DUP7 DUP3 DUP8 ADD PUSH2 0x1CE JUMP JUMPDEST SWAP4 POP POP PUSH1 0x20 PUSH2 0x272 DUP7 DUP3 DUP8 ADD PUSH2 0x1CE JUMP JUMPDEST SWAP3 POP POP PUSH1 0x40 PUSH2 0x283 DUP7 DUP3 DUP8 ADD PUSH2 0x1E3 JUMP JUMPDEST SWAP2 POP POP SWAP3 POP SWAP3 POP SWAP3 JUMP JUMPDEST PUSH1 0x0 PUSH1 0x20 DUP3 DUP5 SUB SLT ISZERO PUSH2 0x2A3 JUMPI PUSH2 0x2A2 PUSH2 0x381 JUMP JUMPDEST JUMPDEST PUSH1 0x0 PUSH2 0x2B1 DUP5 DUP3 DUP6 ADD PUSH2 0x1F8 JUMP JUMPDEST SWAP2 POP POP SWAP3 SWAP2 POP POP JUMP JUMPDEST PUSH2 0x2C3 DUP2 PUSH2 0x345 JUMP JUMPDEST DUP3 MSTORE POP POP JUMP JUMPDEST PUSH2 0x2D2 DUP2 PUSH2 0x377 JUMP JUMPDEST DUP3 MSTORE POP POP JUMP JUMPDEST PUSH1 0x0 PUSH1 0x20 DUP3 ADD SWAP1 POP PUSH2 0x2ED PUSH1 0x0 DUP4 ADD DUP5 PUSH2 0x2BA JUMP JUMPDEST SWAP3 SWAP2 POP POP JUMP JUMPDEST PUSH1 0x0 PUSH1 0x60 DUP3 ADD SWAP1 POP PUSH2 0x308 PUSH1 0x0 DUP4 ADD DUP7 PUSH2 0x2BA JUMP JUMPDEST PUSH2 0x315 PUSH1 0x20 DUP4 ADD DUP6 PUSH2 0x2BA JUMP JUMPDEST PUSH2 0x322 PUSH1 0x40 DUP4 ADD DUP5 PUSH2 0x2C9 JUMP JUMPDEST SWAP5 SWAP4 POP POP POP POP JUMP JUMPDEST PUSH1 0x0 PUSH1 0x20 DUP3 ADD SWAP1 POP PUSH2 0x33F PUSH1 0x0 DUP4 ADD DUP5 PUSH2 0x2C9 JUMP JUMPDEST SWAP3 SWAP2 POP POP JUMP JUMPDEST PUSH1 0x0 PUSH2 0x350 DUP3 PUSH2 0x357 JUMP JUMPDEST SWAP1 POP SWAP2 SWAP1 POP JUMP JUMPDEST PUSH1 0x0 PUSH20 0xFFFFFFFFFFFFFFFFFFFFFFFFFFFFFFFFFFFFFFFF DUP3 AND SWAP1 POP SWAP2 SWAP1 POP JUMP JUMPDEST PUSH1 0x0 DUP2 SWAP1 POP SWAP2 SWAP1 POP JUMP JUMPDEST PUSH1 0x0 DUP1 REVERT JUMPDEST PUSH2 0x38F DUP2 PUSH2 0x345 JUMP JUMPDEST DUP2 EQ PUSH2 0x39A JUMPI PUSH1 0x0 DUP1 REVERT JUMPDEST POP JUMP JUMPDEST PUSH2 0x3A6 DUP2 PUSH2 0x377 JUMP JUMPDEST DUP2 EQ PUSH2 0x3B1 JUMPI PUSH1 0x0 DUP1 REVERT JUMPDEST POP JUMP INVALID LOG2 PUSH5 0x6970667358 0x22 SLT KECCAK256 PUSH17 0x8C51192A04E8D02F374613A559D0C34956 0xC0 PUSH4 0x67719011 0xD8 MSTORE LOG1 SWAP13 0x26 PUSH10 0x24C064736F6C63430008 SMOD STOP CALLER "
				},
				"gasEstimates": {
					"creation": {
						"codeDepositCost": "200400",
						"executionCost": "24512",
						"totalCost": "224912"
					},
					"external": {
						"balanceOfBAYC(address)": "infinite",
						"safeTransferFromBAYC(address,address,uint256)": "infinite"
					}
				},
				"methodIdentifiers": {
					"balanceOfBAYC(address)": "5b4f65bf",
					"safeTransferFromBAYC(address,address,uint256)": "fec8a8a5"
				}
			},
			"storageLayout": {
				"storage": [
					{
						"astId": 136,
						"contract": "HelloWord.sol:interactBAYC",
						"label": "BAYC",
						"offset": 0,
						"slot": "0",
						"type": "t_contract(IERC721)115"
					}
				],
				"types": {
					"t_contract(IERC721)115": {
						"encoding": "inplace",
						"label": "contract IERC721",
						"numberOfBytes": "20"
					}
				}
			},
			"userdoc": {
				"kind": "user",
				"methods": {},
				"version": 1
			}
		}
	}
}