{
	"Attact.sol": {
		"EtherStore": {
			"abi": [
				{
					"inputs": [
						{
							"internalType": "address",
							"name": "",
							"type": "address"
						}
					],
					"name": "balances",
					"outputs": [
						{
							"internalType": "uint256",
							"name": "",
							"type": "uint256"
						}
					],
					"stateMutability": "view",
					"type": "function"
				},
				{
					"inputs": [],
					"name": "deposit",
					"outputs": [],
					"stateMutability": "payable",
					"type": "function"
				},
				{
					"inputs": [],
					"name": "getBalance",
					"outputs": [
						{
							"internalType": "uint256",
							"name": "",
							"type": "uint256"
						}
					],
					"stateMutability": "view",
					"type": "function"
				},
				{
					"inputs": [],
					"name": "withdraw",
					"outputs": [],
					"stateMutability": "nonpayable",
					"type": "function"
				}
			],
			"devdoc": {
				"kind": "dev",
				"methods": {},
				"version": 1
			},
			"evm": {
				"assembly": "    /* \"Attact.sol\":1403:2164  contract EtherStore {... */\n  mstore(0x40, 0x80)\n  callvalue\n  dup1\n  iszero\n  tag_1\n  jumpi\n  0x00\n  dup1\n  revert\ntag_1:\n  pop\n  dataSize(sub_0)\n  dup1\n  dataOffset(sub_0)\n  0x00\n  codecopy\n  0x00\n  return\nstop\n\nsub_0: assembly {\n        /* \"Attact.sol\":1403:2164  contract EtherStore {... */\n      mstore(0x40, 0x80)\n      jumpi(tag_1, lt(calldatasize, 0x04))\n      shr(0xe0, calldataload(0x00))\n      dup1\n      0x12065fe0\n      eq\n      tag_2\n      jumpi\n      dup1\n      0x27e235e3\n      eq\n      tag_3\n      jumpi\n      dup1\n      0x3ccfd60b\n      eq\n      tag_4\n      jumpi\n      dup1\n      0xd0e30db0\n      eq\n      tag_5\n      jumpi\n    tag_1:\n      0x00\n      dup1\n      revert\n        /* \"Attact.sol\":2068:2162  function getBalance() public view returns (uint) {... */\n    tag_2:\n      callvalue\n      dup1\n      iszero\n      tag_6\n      jumpi\n      0x00\n      dup1\n      revert\n    tag_6:\n      pop\n      tag_7\n      tag_8\n      jump\t// in\n    tag_7:\n      mload(0x40)\n      tag_9\n      swap2\n      swap1\n      tag_10\n      jump\t// in\n    tag_9:\n      mload(0x40)\n      dup1\n      swap2\n      sub\n      swap1\n      return\n        /* \"Attact.sol\":1429:1469  mapping(address => uint) public balances */\n    tag_3:\n      callvalue\n      dup1\n      iszero\n      tag_11\n      jumpi\n      0x00\n      dup1\n      revert\n    tag_11:\n      pop\n      tag_12\n      0x04\n      dup1\n      calldatasize\n      sub\n      dup2\n      add\n      swap1\n      tag_13\n      swap2\n      swap1\n      tag_14\n      jump\t// in\n    tag_13:\n      tag_15\n      jump\t// in\n    tag_12:\n      mload(0x40)\n      tag_16\n      swap2\n      swap1\n      tag_10\n      jump\t// in\n    tag_16:\n      mload(0x40)\n      dup1\n      swap2\n      sub\n      swap1\n      return\n        /* \"Attact.sol\":1748:2001  function withdraw() public noReentrant {... */\n    tag_4:\n      callvalue\n      dup1\n      iszero\n      tag_17\n      jumpi\n      0x00\n      dup1\n      revert\n    tag_17:\n      pop\n      tag_18\n      tag_19\n      jump\t// in\n    tag_18:\n      stop\n        /* \"Attact.sol\":1658:1742  function deposit() public payable {... */\n    tag_5:\n      tag_20\n      tag_21\n      jump\t// in\n    tag_20:\n      stop\n        /* \"Attact.sol\":2068:2162  function getBalance() public view returns (uint) {... */\n    tag_8:\n        /* \"Attact.sol\":2111:2115  uint */\n      0x00\n        /* \"Attact.sol\":2134:2155  address(this).balance */\n      selfbalance\n        /* \"Attact.sol\":2127:2155  return address(this).balance */\n      swap1\n      pop\n        /* \"Attact.sol\":2068:2162  function getBalance() public view returns (uint) {... */\n      swap1\n      jump\t// out\n        /* \"Attact.sol\":1429:1469  mapping(address => uint) public balances */\n    tag_15:\n      mstore(0x20, 0x00)\n      dup1\n      0x00\n      mstore\n      keccak256(0x00, 0x40)\n      0x00\n      swap2\n      pop\n      swap1\n      pop\n      sload\n      dup2\n      jump\t// out\n        /* \"Attact.sol\":1748:2001  function withdraw() public noReentrant {... */\n    tag_19:\n        /* \"Attact.sol\":1562:1568  locked */\n      0x01\n      0x00\n      swap1\n      sload\n      swap1\n      0x0100\n      exp\n      swap1\n      div\n      0xff\n      and\n        /* \"Attact.sol\":1561:1568  !locked */\n      iszero\n        /* \"Attact.sol\":1553:1587  require(!locked, \"No re-entrancy\") */\n      tag_24\n      jumpi\n      mload(0x40)\n      0x08c379a000000000000000000000000000000000000000000000000000000000\n      dup2\n      mstore\n      0x04\n      add\n      tag_25\n      swap1\n      tag_26\n      jump\t// in\n    tag_25:\n      mload(0x40)\n      dup1\n      swap2\n      sub\n      swap1\n      revert\n    tag_24:\n        /* \"Attact.sol\":1606:1610  true */\n      0x01\n        /* \"Attact.sol\":1597:1603  locked */\n      dup1\n      0x00\n        /* \"Attact.sol\":1597:1610  locked = true */\n      0x0100\n      exp\n      dup2\n      sload\n      dup2\n      0xff\n      mul\n      not\n      and\n      swap1\n      dup4\n      iszero\n      iszero\n      mul\n      or\n      swap1\n      sstore\n      pop\n        /* \"Attact.sol\":1797:1805  uint bal */\n      0x00\n        /* \"Attact.sol\":1808:1816  balances */\n      dup1\n        /* \"Attact.sol\":1808:1828  balances[msg.sender] */\n      0x00\n        /* \"Attact.sol\":1817:1827  msg.sender */\n      caller\n        /* \"Attact.sol\":1808:1828  balances[msg.sender] */\n      0xffffffffffffffffffffffffffffffffffffffff\n      and\n      0xffffffffffffffffffffffffffffffffffffffff\n      and\n      dup2\n      mstore\n      0x20\n      add\n      swap1\n      dup2\n      mstore\n      0x20\n      add\n      0x00\n      keccak256\n      sload\n        /* \"Attact.sol\":1797:1828  uint bal = balances[msg.sender] */\n      swap1\n      pop\n        /* \"Attact.sol\":1852:1853  0 */\n      0x00\n        /* \"Attact.sol\":1846:1849  bal */\n      dup2\n        /* \"Attact.sol\":1846:1853  bal > 0 */\n      gt\n        /* \"Attact.sol\":1838:1854  require(bal > 0) */\n      tag_28\n      jumpi\n      0x00\n      dup1\n      revert\n    tag_28:\n        /* \"Attact.sol\":1866:1875  bool sent */\n      0x00\n        /* \"Attact.sol\":1881:1891  msg.sender */\n      caller\n        /* \"Attact.sol\":1881:1896  msg.sender.call */\n      0xffffffffffffffffffffffffffffffffffffffff\n      and\n        /* \"Attact.sol\":1904:1907  bal */\n      dup3\n        /* \"Attact.sol\":1881:1912  msg.sender.call{value: bal}(\"\") */\n      mload(0x40)\n      tag_29\n      swap1\n      tag_30\n      jump\t// in\n    tag_29:\n      0x00\n      mload(0x40)\n      dup1\n      dup4\n      sub\n      dup2\n      dup6\n      dup8\n      gas\n      call\n      swap3\n      pop\n      pop\n      pop\n      returndatasize\n      dup1\n      0x00\n      dup2\n      eq\n      tag_33\n      jumpi\n      mload(0x40)\n      swap2\n      pop\n      and(add(returndatasize, 0x3f), not(0x1f))\n      dup3\n      add\n      0x40\n      mstore\n      returndatasize\n      dup3\n      mstore\n      returndatasize\n      0x00\n      0x20\n      dup5\n      add\n      returndatacopy\n      jump(tag_32)\n    tag_33:\n      0x60\n      swap2\n      pop\n    tag_32:\n      pop\n        /* \"Attact.sol\":1865:1912  (bool sent, ) = msg.sender.call{value: bal}(\"\") */\n      pop\n      swap1\n      pop\n        /* \"Attact.sol\":1930:1934  sent */\n      dup1\n        /* \"Attact.sol\":1922:1959  require(sent, \"Failed to send Ether\") */\n      tag_34\n      jumpi\n      mload(0x40)\n      0x08c379a000000000000000000000000000000000000000000000000000000000\n      dup2\n      mstore\n      0x04\n      add\n      tag_35\n      swap1\n      tag_36\n      jump\t// in\n    tag_35:\n      mload(0x40)\n      dup1\n      swap2\n      sub\n      swap1\n      revert\n    tag_34:\n        /* \"Attact.sol\":1993:1994  0 */\n      0x00\n        /* \"Attact.sol\":1970:1978  balances */\n      dup1\n        /* \"Attact.sol\":1970:1990  balances[msg.sender] */\n      0x00\n        /* \"Attact.sol\":1979:1989  msg.sender */\n      caller\n        /* \"Attact.sol\":1970:1990  balances[msg.sender] */\n      0xffffffffffffffffffffffffffffffffffffffff\n      and\n      0xffffffffffffffffffffffffffffffffffffffff\n      and\n      dup2\n      mstore\n      0x20\n      add\n      swap1\n      dup2\n      mstore\n      0x20\n      add\n      0x00\n      keccak256\n        /* \"Attact.sol\":1970:1994  balances[msg.sender] = 0 */\n      dup2\n      swap1\n      sstore\n      pop\n        /* \"Attact.sol\":1787:2001  {... */\n      pop\n      pop\n        /* \"Attact.sol\":1640:1645  false */\n      0x00\n        /* \"Attact.sol\":1631:1637  locked */\n      0x01\n      0x00\n        /* \"Attact.sol\":1631:1645  locked = false */\n      0x0100\n      exp\n      dup2\n      sload\n      dup2\n      0xff\n      mul\n      not\n      and\n      swap1\n      dup4\n      iszero\n      iszero\n      mul\n      or\n      swap1\n      sstore\n      pop\n        /* \"Attact.sol\":1748:2001  function withdraw() public noReentrant {... */\n      jump\t// out\n        /* \"Attact.sol\":1658:1742  function deposit() public payable {... */\n    tag_21:\n        /* \"Attact.sol\":1726:1735  msg.value */\n      callvalue\n        /* \"Attact.sol\":1702:1710  balances */\n      0x00\n        /* \"Attact.sol\":1702:1722  balances[msg.sender] */\n      dup1\n        /* \"Attact.sol\":1711:1721  msg.sender */\n      caller\n        /* \"Attact.sol\":1702:1722  balances[msg.sender] */\n      0xffffffffffffffffffffffffffffffffffffffff\n      and\n      0xffffffffffffffffffffffffffffffffffffffff\n      and\n      dup2\n      mstore\n      0x20\n      add\n      swap1\n      dup2\n      mstore\n      0x20\n      add\n      0x00\n      keccak256\n      0x00\n        /* \"Attact.sol\":1702:1735  balances[msg.sender] += msg.value */\n      dup3\n      dup3\n      sload\n      tag_38\n      swap2\n      swap1\n      tag_39\n      jump\t// in\n    tag_38:\n      swap3\n      pop\n      pop\n      dup2\n      swap1\n      sstore\n      pop\n        /* \"Attact.sol\":1658:1742  function deposit() public payable {... */\n      jump\t// out\n        /* \"#utility.yul\":7:146   */\n    tag_41:\n        /* \"#utility.yul\":53:58   */\n      0x00\n        /* \"#utility.yul\":91:97   */\n      dup2\n        /* \"#utility.yul\":78:98   */\n      calldataload\n        /* \"#utility.yul\":69:98   */\n      swap1\n      pop\n        /* \"#utility.yul\":107:140   */\n      tag_43\n        /* \"#utility.yul\":134:139   */\n      dup2\n        /* \"#utility.yul\":107:140   */\n      tag_44\n      jump\t// in\n    tag_43:\n        /* \"#utility.yul\":7:146   */\n      swap3\n      swap2\n      pop\n      pop\n      jump\t// out\n        /* \"#utility.yul\":152:481   */\n    tag_14:\n        /* \"#utility.yul\":211:217   */\n      0x00\n        /* \"#utility.yul\":260:262   */\n      0x20\n        /* \"#utility.yul\":248:257   */\n      dup3\n        /* \"#utility.yul\":239:246   */\n      dup5\n        /* \"#utility.yul\":235:258   */\n      sub\n        /* \"#utility.yul\":231:263   */\n      slt\n        /* \"#utility.yul\":228:347   */\n      iszero\n      tag_46\n      jumpi\n        /* \"#utility.yul\":266:345   */\n      tag_47\n      tag_48\n      jump\t// in\n    tag_47:\n        /* \"#utility.yul\":228:347   */\n    tag_46:\n        /* \"#utility.yul\":386:387   */\n      0x00\n        /* \"#utility.yul\":411:464   */\n      tag_49\n        /* \"#utility.yul\":456:463   */\n      dup5\n        /* \"#utility.yul\":447:453   */\n      dup3\n        /* \"#utility.yul\":436:445   */\n      dup6\n        /* \"#utility.yul\":432:454   */\n      add\n        /* \"#utility.yul\":411:464   */\n      tag_41\n      jump\t// in\n    tag_49:\n        /* \"#utility.yul\":401:464   */\n      swap2\n      pop\n        /* \"#utility.yul\":357:474   */\n      pop\n        /* \"#utility.yul\":152:481   */\n      swap3\n      swap2\n      pop\n      pop\n      jump\t// out\n        /* \"#utility.yul\":487:853   */\n    tag_50:\n        /* \"#utility.yul\":629:632   */\n      0x00\n        /* \"#utility.yul\":650:717   */\n      tag_52\n        /* \"#utility.yul\":714:716   */\n      0x14\n        /* \"#utility.yul\":709:712   */\n      dup4\n        /* \"#utility.yul\":650:717   */\n      tag_53\n      jump\t// in\n    tag_52:\n        /* \"#utility.yul\":643:717   */\n      swap2\n      pop\n        /* \"#utility.yul\":726:819   */\n      tag_54\n        /* \"#utility.yul\":815:818   */\n      dup3\n        /* \"#utility.yul\":726:819   */\n      tag_55\n      jump\t// in\n    tag_54:\n        /* \"#utility.yul\":844:846   */\n      0x20\n        /* \"#utility.yul\":839:842   */\n      dup3\n        /* \"#utility.yul\":835:847   */\n      add\n        /* \"#utility.yul\":828:847   */\n      swap1\n      pop\n        /* \"#utility.yul\":487:853   */\n      swap2\n      swap1\n      pop\n      jump\t// out\n        /* \"#utility.yul\":859:1225   */\n    tag_56:\n        /* \"#utility.yul\":1001:1004   */\n      0x00\n        /* \"#utility.yul\":1022:1089   */\n      tag_58\n        /* \"#utility.yul\":1086:1088   */\n      0x0e\n        /* \"#utility.yul\":1081:1084   */\n      dup4\n        /* \"#utility.yul\":1022:1089   */\n      tag_53\n      jump\t// in\n    tag_58:\n        /* \"#utility.yul\":1015:1089   */\n      swap2\n      pop\n        /* \"#utility.yul\":1098:1191   */\n      tag_59\n        /* \"#utility.yul\":1187:1190   */\n      dup3\n        /* \"#utility.yul\":1098:1191   */\n      tag_60\n      jump\t// in\n    tag_59:\n        /* \"#utility.yul\":1216:1218   */\n      0x20\n        /* \"#utility.yul\":1211:1214   */\n      dup3\n        /* \"#utility.yul\":1207:1219   */\n      add\n        /* \"#utility.yul\":1200:1219   */\n      swap1\n      pop\n        /* \"#utility.yul\":859:1225   */\n      swap2\n      swap1\n      pop\n      jump\t// out\n        /* \"#utility.yul\":1231:1629   */\n    tag_61:\n        /* \"#utility.yul\":1390:1393   */\n      0x00\n        /* \"#utility.yul\":1411:1494   */\n      tag_63\n        /* \"#utility.yul\":1492:1493   */\n      0x00\n        /* \"#utility.yul\":1487:1490   */\n      dup4\n        /* \"#utility.yul\":1411:1494   */\n      tag_64\n      jump\t// in\n    tag_63:\n        /* \"#utility.yul\":1404:1494   */\n      swap2\n      pop\n        /* \"#utility.yul\":1503:1596   */\n      tag_65\n        /* \"#utility.yul\":1592:1595   */\n      dup3\n        /* \"#utility.yul\":1503:1596   */\n      tag_66\n      jump\t// in\n    tag_65:\n        /* \"#utility.yul\":1621:1622   */\n      0x00\n        /* \"#utility.yul\":1616:1619   */\n      dup3\n        /* \"#utility.yul\":1612:1623   */\n      add\n        /* \"#utility.yul\":1605:1623   */\n      swap1\n      pop\n        /* \"#utility.yul\":1231:1629   */\n      swap2\n      swap1\n      pop\n      jump\t// out\n        /* \"#utility.yul\":1635:1753   */\n    tag_67:\n        /* \"#utility.yul\":1722:1746   */\n      tag_69\n        /* \"#utility.yul\":1740:1745   */\n      dup2\n        /* \"#utility.yul\":1722:1746   */\n      tag_70\n      jump\t// in\n    tag_69:\n        /* \"#utility.yul\":1717:1720   */\n      dup3\n        /* \"#utility.yul\":1710:1747   */\n      mstore\n        /* \"#utility.yul\":1635:1753   */\n      pop\n      pop\n      jump\t// out\n        /* \"#utility.yul\":1759:2138   */\n    tag_30:\n        /* \"#utility.yul\":1943:1946   */\n      0x00\n        /* \"#utility.yul\":1965:2112   */\n      tag_72\n        /* \"#utility.yul\":2108:2111   */\n      dup3\n        /* \"#utility.yul\":1965:2112   */\n      tag_61\n      jump\t// in\n    tag_72:\n        /* \"#utility.yul\":1958:2112   */\n      swap2\n      pop\n        /* \"#utility.yul\":2129:2132   */\n      dup2\n        /* \"#utility.yul\":2122:2132   */\n      swap1\n      pop\n        /* \"#utility.yul\":1759:2138   */\n      swap2\n      swap1\n      pop\n      jump\t// out\n        /* \"#utility.yul\":2144:2563   */\n    tag_36:\n        /* \"#utility.yul\":2310:2314   */\n      0x00\n        /* \"#utility.yul\":2348:2350   */\n      0x20\n        /* \"#utility.yul\":2337:2346   */\n      dup3\n        /* \"#utility.yul\":2333:2351   */\n      add\n        /* \"#utility.yul\":2325:2351   */\n      swap1\n      pop\n        /* \"#utility.yul\":2397:2406   */\n      dup2\n        /* \"#utility.yul\":2391:2395   */\n      dup2\n        /* \"#utility.yul\":2387:2407   */\n      sub\n        /* \"#utility.yul\":2383:2384   */\n      0x00\n        /* \"#utility.yul\":2372:2381   */\n      dup4\n        /* \"#utility.yul\":2368:2385   */\n      add\n        /* \"#utility.yul\":2361:2408   */\n      mstore\n        /* \"#utility.yul\":2425:2556   */\n      tag_74\n        /* \"#utility.yul\":2551:2555   */\n      dup2\n        /* \"#utility.yul\":2425:2556   */\n      tag_50\n      jump\t// in\n    tag_74:\n        /* \"#utility.yul\":2417:2556   */\n      swap1\n      pop\n        /* \"#utility.yul\":2144:2563   */\n      swap2\n      swap1\n      pop\n      jump\t// out\n        /* \"#utility.yul\":2569:2988   */\n    tag_26:\n        /* \"#utility.yul\":2735:2739   */\n      0x00\n        /* \"#utility.yul\":2773:2775   */\n      0x20\n        /* \"#utility.yul\":2762:2771   */\n      dup3\n        /* \"#utility.yul\":2758:2776   */\n      add\n        /* \"#utility.yul\":2750:2776   */\n      swap1\n      pop\n        /* \"#utility.yul\":2822:2831   */\n      dup2\n        /* \"#utility.yul\":2816:2820   */\n      dup2\n        /* \"#utility.yul\":2812:2832   */\n      sub\n        /* \"#utility.yul\":2808:2809   */\n      0x00\n        /* \"#utility.yul\":2797:2806   */\n      dup4\n        /* \"#utility.yul\":2793:2810   */\n      add\n        /* \"#utility.yul\":2786:2833   */\n      mstore\n        /* \"#utility.yul\":2850:2981   */\n      tag_76\n        /* \"#utility.yul\":2976:2980   */\n      dup2\n        /* \"#utility.yul\":2850:2981   */\n      tag_56\n      jump\t// in\n    tag_76:\n        /* \"#utility.yul\":2842:2981   */\n      swap1\n      pop\n        /* \"#utility.yul\":2569:2988   */\n      swap2\n      swap1\n      pop\n      jump\t// out\n        /* \"#utility.yul\":2994:3216   */\n    tag_10:\n        /* \"#utility.yul\":3087:3091   */\n      0x00\n        /* \"#utility.yul\":3125:3127   */\n      0x20\n        /* \"#utility.yul\":3114:3123   */\n      dup3\n        /* \"#utility.yul\":3110:3128   */\n      add\n        /* \"#utility.yul\":3102:3128   */\n      swap1\n      pop\n        /* \"#utility.yul\":3138:3209   */\n      tag_78\n        /* \"#utility.yul\":3206:3207   */\n      0x00\n        /* \"#utility.yul\":3195:3204   */\n      dup4\n        /* \"#utility.yul\":3191:3208   */\n      add\n        /* \"#utility.yul\":3182:3188   */\n      dup5\n        /* \"#utility.yul\":3138:3209   */\n      tag_67\n      jump\t// in\n    tag_78:\n        /* \"#utility.yul\":2994:3216   */\n      swap3\n      swap2\n      pop\n      pop\n      jump\t// out\n        /* \"#utility.yul\":3303:3450   */\n    tag_64:\n        /* \"#utility.yul\":3404:3415   */\n      0x00\n        /* \"#utility.yul\":3441:3444   */\n      dup2\n        /* \"#utility.yul\":3426:3444   */\n      swap1\n      pop\n        /* \"#utility.yul\":3303:3450   */\n      swap3\n      swap2\n      pop\n      pop\n      jump\t// out\n        /* \"#utility.yul\":3456:3625   */\n    tag_53:\n        /* \"#utility.yul\":3540:3551   */\n      0x00\n        /* \"#utility.yul\":3574:3580   */\n      dup3\n        /* \"#utility.yul\":3569:3572   */\n      dup3\n        /* \"#utility.yul\":3562:3581   */\n      mstore\n        /* \"#utility.yul\":3614:3618   */\n      0x20\n        /* \"#utility.yul\":3609:3612   */\n      dup3\n        /* \"#utility.yul\":3605:3619   */\n      add\n        /* \"#utility.yul\":3590:3619   */\n      swap1\n      pop\n        /* \"#utility.yul\":3456:3625   */\n      swap3\n      swap2\n      pop\n      pop\n      jump\t// out\n        /* \"#utility.yul\":3631:3936   */\n    tag_39:\n        /* \"#utility.yul\":3671:3674   */\n      0x00\n        /* \"#utility.yul\":3690:3710   */\n      tag_84\n        /* \"#utility.yul\":3708:3709   */\n      dup3\n        /* \"#utility.yul\":3690:3710   */\n      tag_70\n      jump\t// in\n    tag_84:\n        /* \"#utility.yul\":3685:3710   */\n      swap2\n      pop\n        /* \"#utility.yul\":3724:3744   */\n      tag_85\n        /* \"#utility.yul\":3742:3743   */\n      dup4\n        /* \"#utility.yul\":3724:3744   */\n      tag_70\n      jump\t// in\n    tag_85:\n        /* \"#utility.yul\":3719:3744   */\n      swap3\n      pop\n        /* \"#utility.yul\":3878:3879   */\n      dup3\n        /* \"#utility.yul\":3810:3876   */\n      0xffffffffffffffffffffffffffffffffffffffffffffffffffffffffffffffff\n        /* \"#utility.yul\":3806:3880   */\n      sub\n        /* \"#utility.yul\":3803:3804   */\n      dup3\n        /* \"#utility.yul\":3800:3881   */\n      gt\n        /* \"#utility.yul\":3797:3904   */\n      iszero\n      tag_86\n      jumpi\n        /* \"#utility.yul\":3884:3902   */\n      tag_87\n      tag_88\n      jump\t// in\n    tag_87:\n        /* \"#utility.yul\":3797:3904   */\n    tag_86:\n        /* \"#utility.yul\":3928:3929   */\n      dup3\n        /* \"#utility.yul\":3925:3926   */\n      dup3\n        /* \"#utility.yul\":3921:3930   */\n      add\n        /* \"#utility.yul\":3914:3930   */\n      swap1\n      pop\n        /* \"#utility.yul\":3631:3936   */\n      swap3\n      swap2\n      pop\n      pop\n      jump\t// out\n        /* \"#utility.yul\":3942:4038   */\n    tag_89:\n        /* \"#utility.yul\":3979:3986   */\n      0x00\n        /* \"#utility.yul\":4008:4032   */\n      tag_91\n        /* \"#utility.yul\":4026:4031   */\n      dup3\n        /* \"#utility.yul\":4008:4032   */\n      tag_92\n      jump\t// in\n    tag_91:\n        /* \"#utility.yul\":3997:4032   */\n      swap1\n      pop\n        /* \"#utility.yul\":3942:4038   */\n      swap2\n      swap1\n      pop\n      jump\t// out\n        /* \"#utility.yul\":4044:4170   */\n    tag_92:\n        /* \"#utility.yul\":4081:4088   */\n      0x00\n        /* \"#utility.yul\":4121:4163   */\n      0xffffffffffffffffffffffffffffffffffffffff\n        /* \"#utility.yul\":4114:4119   */\n      dup3\n        /* \"#utility.yul\":4110:4164   */\n      and\n        /* \"#utility.yul\":4099:4164   */\n      swap1\n      pop\n        /* \"#utility.yul\":4044:4170   */\n      swap2\n      swap1\n      pop\n      jump\t// out\n        /* \"#utility.yul\":4176:4253   */\n    tag_70:\n        /* \"#utility.yul\":4213:4220   */\n      0x00\n        /* \"#utility.yul\":4242:4247   */\n      dup2\n        /* \"#utility.yul\":4231:4247   */\n      swap1\n      pop\n        /* \"#utility.yul\":4176:4253   */\n      swap2\n      swap1\n      pop\n      jump\t// out\n        /* \"#utility.yul\":4259:4439   */\n    tag_88:\n        /* \"#utility.yul\":4307:4384   */\n      0x4e487b7100000000000000000000000000000000000000000000000000000000\n        /* \"#utility.yul\":4304:4305   */\n      0x00\n        /* \"#utility.yul\":4297:4385   */\n      mstore\n        /* \"#utility.yul\":4404:4408   */\n      0x11\n        /* \"#utility.yul\":4401:4402   */\n      0x04\n        /* \"#utility.yul\":4394:4409   */\n      mstore\n        /* \"#utility.yul\":4428:4432   */\n      0x24\n        /* \"#utility.yul\":4425:4426   */\n      0x00\n        /* \"#utility.yul\":4418:4433   */\n      revert\n        /* \"#utility.yul\":4568:4685   */\n    tag_48:\n        /* \"#utility.yul\":4677:4678   */\n      0x00\n        /* \"#utility.yul\":4674:4675   */\n      dup1\n        /* \"#utility.yul\":4667:4679   */\n      revert\n        /* \"#utility.yul\":4691:4861   */\n    tag_55:\n        /* \"#utility.yul\":4831:4853   */\n      0x4661696c656420746f2073656e64204574686572000000000000000000000000\n        /* \"#utility.yul\":4827:4828   */\n      0x00\n        /* \"#utility.yul\":4819:4825   */\n      dup3\n        /* \"#utility.yul\":4815:4829   */\n      add\n        /* \"#utility.yul\":4808:4854   */\n      mstore\n        /* \"#utility.yul\":4691:4861   */\n      pop\n      jump\t// out\n        /* \"#utility.yul\":4867:5031   */\n    tag_60:\n        /* \"#utility.yul\":5007:5023   */\n      0x4e6f2072652d656e7472616e6379000000000000000000000000000000000000\n        /* \"#utility.yul\":5003:5004   */\n      0x00\n        /* \"#utility.yul\":4995:5001   */\n      dup3\n        /* \"#utility.yul\":4991:5005   */\n      add\n        /* \"#utility.yul\":4984:5024   */\n      mstore\n        /* \"#utility.yul\":4867:5031   */\n      pop\n      jump\t// out\n        /* \"#utility.yul\":5037:5151   */\n    tag_66:\n      pop\n      jump\t// out\n        /* \"#utility.yul\":5157:5279   */\n    tag_44:\n        /* \"#utility.yul\":5230:5254   */\n      tag_103\n        /* \"#utility.yul\":5248:5253   */\n      dup2\n        /* \"#utility.yul\":5230:5254   */\n      tag_89\n      jump\t// in\n    tag_103:\n        /* \"#utility.yul\":5223:5228   */\n      dup2\n        /* \"#utility.yul\":5220:5255   */\n      eq\n        /* \"#utility.yul\":5210:5273   */\n      tag_104\n      jumpi\n        /* \"#utility.yul\":5269:5270   */\n      0x00\n        /* \"#utility.yul\":5266:5267   */\n      dup1\n        /* \"#utility.yul\":5259:5271   */\n      revert\n        /* \"#utility.yul\":5210:5273   */\n    tag_104:\n        /* \"#utility.yul\":5157:5279   */\n      pop\n      jump\t// out\n\n    auxdata: 0xa2646970667358221220ef4cb878d237b352ac0e52e1a738ef93cb2beaba8dbc350a59a6d763100db6f164736f6c63430008070033\n}\n",
				"bytecode": {
					"linkReferences": {},
					"object": "608060405234801561001057600080fd5b506105bb806100206000396000f3fe60806040526004361061003f5760003560e01c806312065fe01461004457806327e235e31461006f5780633ccfd60b146100ac578063d0e30db0146100c3575b600080fd5b34801561005057600080fd5b506100596100cd565b604051610066919061041c565b60405180910390f35b34801561007b57600080fd5b5061009660048036038101906100919190610322565b6100d5565b6040516100a3919061041c565b60405180910390f35b3480156100b857600080fd5b506100c16100ed565b005b6100cb6102b6565b005b600047905090565b60006020528060005260406000206000915090505481565b600160009054906101000a900460ff161561013d576040517f08c379a0000000000000000000000000000000000000000000000000000000008152600401610134906103fc565b60405180910390fd5b60018060006101000a81548160ff02191690831515021790555060008060003373ffffffffffffffffffffffffffffffffffffffff1673ffffffffffffffffffffffffffffffffffffffff168152602001908152602001600020549050600081116101a757600080fd5b60003373ffffffffffffffffffffffffffffffffffffffff16826040516101cd906103c7565b60006040518083038185875af1925050503d806000811461020a576040519150601f19603f3d011682016040523d82523d6000602084013e61020f565b606091505b5050905080610253576040517f08c379a000000000000000000000000000000000000000000000000000000000815260040161024a906103dc565b60405180910390fd5b60008060003373ffffffffffffffffffffffffffffffffffffffff1673ffffffffffffffffffffffffffffffffffffffff1681526020019081526020016000208190555050506000600160006101000a81548160ff021916908315150217905550565b346000803373ffffffffffffffffffffffffffffffffffffffff1673ffffffffffffffffffffffffffffffffffffffff16815260200190815260200160002060008282546103049190610453565b92505081905550565b60008135905061031c8161056e565b92915050565b60006020828403121561033857610337610514565b5b60006103468482850161030d565b91505092915050565b600061035c601483610442565b915061036782610519565b602082019050919050565b600061037f600e83610442565b915061038a82610542565b602082019050919050565b60006103a2600083610437565b91506103ad8261056b565b600082019050919050565b6103c1816104db565b82525050565b60006103d282610395565b9150819050919050565b600060208201905081810360008301526103f58161034f565b9050919050565b6000602082019050818103600083015261041581610372565b9050919050565b600060208201905061043160008301846103b8565b92915050565b600081905092915050565b600082825260208201905092915050565b600061045e826104db565b9150610469836104db565b9250827fffffffffffffffffffffffffffffffffffffffffffffffffffffffffffffffff0382111561049e5761049d6104e5565b5b828201905092915050565b60006104b4826104bb565b9050919050565b600073ffffffffffffffffffffffffffffffffffffffff82169050919050565b6000819050919050565b7f4e487b7100000000000000000000000000000000000000000000000000000000600052601160045260246000fd5b600080fd5b7f4661696c656420746f2073656e64204574686572000000000000000000000000600082015250565b7f4e6f2072652d656e7472616e6379000000000000000000000000000000000000600082015250565b50565b610577816104a9565b811461058257600080fd5b5056fea2646970667358221220ef4cb878d237b352ac0e52e1a738ef93cb2beaba8dbc350a59a6d763100db6f164736f6c63430008070033",
					"opcodes": "PUSH1 0x80 PUSH1 0x40 MSTORE CALLVALUE DUP1 ISZERO PUSH2 0x10 JUMPI PUSH1 0x0 DUP1 REVERT JUMPDEST POP PUSH2 0x5BB DUP1 PUSH2 0x20 PUSH1 0x0 CODECOPY PUSH1 0x0 RETURN INVALID PUSH1 0x80 PUSH1 0x40 MSTORE PUSH1 0x4 CALLDATASIZE LT PUSH2 0x3F JUMPI PUSH1 0x0 CALLDATALOAD PUSH1 0xE0 SHR DUP1 PUSH4 0x12065FE0 EQ PUSH2 0x44 JUMPI DUP1 PUSH4 0x27E235E3 EQ PUSH2 0x6F JUMPI DUP1 PUSH4 0x3CCFD60B EQ PUSH2 0xAC JUMPI DUP1 PUSH4 0xD0E30DB0 EQ PUSH2 0xC3 JUMPI JUMPDEST PUSH1 0x0 DUP1 REVERT JUMPDEST CALLVALUE DUP1 ISZERO PUSH2 0x50 JUMPI PUSH1 0x0 DUP1 REVERT JUMPDEST POP PUSH2 0x59 PUSH2 0xCD JUMP JUMPDEST PUSH1 0x40 MLOAD PUSH2 0x66 SWAP2 SWAP1 PUSH2 0x41C JUMP JUMPDEST PUSH1 0x40 MLOAD DUP1 SWAP2 SUB SWAP1 RETURN JUMPDEST CALLVALUE DUP1 ISZERO PUSH2 0x7B JUMPI PUSH1 0x0 DUP1 REVERT JUMPDEST POP PUSH2 0x96 PUSH1 0x4 DUP1 CALLDATASIZE SUB DUP2 ADD SWAP1 PUSH2 0x91 SWAP2 SWAP1 PUSH2 0x322 JUMP JUMPDEST PUSH2 0xD5 JUMP JUMPDEST PUSH1 0x40 MLOAD PUSH2 0xA3 SWAP2 SWAP1 PUSH2 0x41C JUMP JUMPDEST PUSH1 0x40 MLOAD DUP1 SWAP2 SUB SWAP1 RETURN JUMPDEST CALLVALUE DUP1 ISZERO PUSH2 0xB8 JUMPI PUSH1 0x0 DUP1 REVERT JUMPDEST POP PUSH2 0xC1 PUSH2 0xED JUMP JUMPDEST STOP JUMPDEST PUSH2 0xCB PUSH2 0x2B6 JUMP JUMPDEST STOP JUMPDEST PUSH1 0x0 SELFBALANCE SWAP1 POP SWAP1 JUMP JUMPDEST PUSH1 0x0 PUSH1 0x20 MSTORE DUP1 PUSH1 0x0 MSTORE PUSH1 0x40 PUSH1 0x0 KECCAK256 PUSH1 0x0 SWAP2 POP SWAP1 POP SLOAD DUP2 JUMP JUMPDEST PUSH1 0x1 PUSH1 0x0 SWAP1 SLOAD SWAP1 PUSH2 0x100 EXP SWAP1 DIV PUSH1 0xFF AND ISZERO PUSH2 0x13D JUMPI PUSH1 0x40 MLOAD PUSH32 0x8C379A000000000000000000000000000000000000000000000000000000000 DUP2 MSTORE PUSH1 0x4 ADD PUSH2 0x134 SWAP1 PUSH2 0x3FC JUMP JUMPDEST PUSH1 0x40 MLOAD DUP1 SWAP2 SUB SWAP1 REVERT JUMPDEST PUSH1 0x1 DUP1 PUSH1 0x0 PUSH2 0x100 EXP DUP2 SLOAD DUP2 PUSH1 0xFF MUL NOT AND SWAP1 DUP4 ISZERO ISZERO MUL OR SWAP1 SSTORE POP PUSH1 0x0 DUP1 PUSH1 0x0 CALLER PUSH20 0xFFFFFFFFFFFFFFFFFFFFFFFFFFFFFFFFFFFFFFFF AND PUSH20 0xFFFFFFFFFFFFFFFFFFFFFFFFFFFFFFFFFFFFFFFF AND DUP2 MSTORE PUSH1 0x20 ADD SWAP1 DUP2 MSTORE PUSH1 0x20 ADD PUSH1 0x0 KECCAK256 SLOAD SWAP1 POP PUSH1 0x0 DUP2 GT PUSH2 0x1A7 JUMPI PUSH1 0x0 DUP1 REVERT JUMPDEST PUSH1 0x0 CALLER PUSH20 0xFFFFFFFFFFFFFFFFFFFFFFFFFFFFFFFFFFFFFFFF AND DUP3 PUSH1 0x40 MLOAD PUSH2 0x1CD SWAP1 PUSH2 0x3C7 JUMP JUMPDEST PUSH1 0x0 PUSH1 0x40 MLOAD DUP1 DUP4 SUB DUP2 DUP6 DUP8 GAS CALL SWAP3 POP POP POP RETURNDATASIZE DUP1 PUSH1 0x0 DUP2 EQ PUSH2 0x20A JUMPI PUSH1 0x40 MLOAD SWAP2 POP PUSH1 0x1F NOT PUSH1 0x3F RETURNDATASIZE ADD AND DUP3 ADD PUSH1 0x40 MSTORE RETURNDATASIZE DUP3 MSTORE RETURNDATASIZE PUSH1 0x0 PUSH1 0x20 DUP5 ADD RETURNDATACOPY PUSH2 0x20F JUMP JUMPDEST PUSH1 0x60 SWAP2 POP JUMPDEST POP POP SWAP1 POP DUP1 PUSH2 0x253 JUMPI PUSH1 0x40 MLOAD PUSH32 0x8C379A000000000000000000000000000000000000000000000000000000000 DUP2 MSTORE PUSH1 0x4 ADD PUSH2 0x24A SWAP1 PUSH2 0x3DC JUMP JUMPDEST PUSH1 0x40 MLOAD DUP1 SWAP2 SUB SWAP1 REVERT JUMPDEST PUSH1 0x0 DUP1 PUSH1 0x0 CALLER PUSH20 0xFFFFFFFFFFFFFFFFFFFFFFFFFFFFFFFFFFFFFFFF AND PUSH20 0xFFFFFFFFFFFFFFFFFFFFFFFFFFFFFFFFFFFFFFFF AND DUP2 MSTORE PUSH1 0x20 ADD SWAP1 DUP2 MSTORE PUSH1 0x20 ADD PUSH1 0x0 KECCAK256 DUP2 SWAP1 SSTORE POP POP POP PUSH1 0x0 PUSH1 0x1 PUSH1 0x0 PUSH2 0x100 EXP DUP2 SLOAD DUP2 PUSH1 0xFF MUL NOT AND SWAP1 DUP4 ISZERO ISZERO MUL OR SWAP1 SSTORE POP JUMP JUMPDEST CALLVALUE PUSH1 0x0 DUP1 CALLER PUSH20 0xFFFFFFFFFFFFFFFFFFFFFFFFFFFFFFFFFFFFFFFF AND PUSH20 0xFFFFFFFFFFFFFFFFFFFFFFFFFFFFFFFFFFFFFFFF AND DUP2 MSTORE PUSH1 0x20 ADD SWAP1 DUP2 MSTORE PUSH1 0x20 ADD PUSH1 0x0 KECCAK256 PUSH1 0x0 DUP3 DUP3 SLOAD PUSH2 0x304 SWAP2 SWAP1 PUSH2 0x453 JUMP JUMPDEST SWAP3 POP POP DUP2 SWAP1 SSTORE POP JUMP JUMPDEST PUSH1 0x0 DUP2 CALLDATALOAD SWAP1 POP PUSH2 0x31C DUP2 PUSH2 0x56E JUMP JUMPDEST SWAP3 SWAP2 POP POP JUMP JUMPDEST PUSH1 0x0 PUSH1 0x20 DUP3 DUP5 SUB SLT ISZERO PUSH2 0x338 JUMPI PUSH2 0x337 PUSH2 0x514 JUMP JUMPDEST JUMPDEST PUSH1 0x0 PUSH2 0x346 DUP5 DUP3 DUP6 ADD PUSH2 0x30D JUMP JUMPDEST SWAP2 POP POP SWAP3 SWAP2 POP POP JUMP JUMPDEST PUSH1 0x0 PUSH2 0x35C PUSH1 0x14 DUP4 PUSH2 0x442 JUMP JUMPDEST SWAP2 POP PUSH2 0x367 DUP3 PUSH2 0x519 JUMP JUMPDEST PUSH1 0x20 DUP3 ADD SWAP1 POP SWAP2 SWAP1 POP JUMP JUMPDEST PUSH1 0x0 PUSH2 0x37F PUSH1 0xE DUP4 PUSH2 0x442 JUMP JUMPDEST SWAP2 POP PUSH2 0x38A DUP3 PUSH2 0x542 JUMP JUMPDEST PUSH1 0x20 DUP3 ADD SWAP1 POP SWAP2 SWAP1 POP JUMP JUMPDEST PUSH1 0x0 PUSH2 0x3A2 PUSH1 0x0 DUP4 PUSH2 0x437 JUMP JUMPDEST SWAP2 POP PUSH2 0x3AD DUP3 PUSH2 0x56B JUMP JUMPDEST PUSH1 0x0 DUP3 ADD SWAP1 POP SWAP2 SWAP1 POP JUMP JUMPDEST PUSH2 0x3C1 DUP2 PUSH2 0x4DB JUMP JUMPDEST DUP3 MSTORE POP POP JUMP JUMPDEST PUSH1 0x0 PUSH2 0x3D2 DUP3 PUSH2 0x395 JUMP JUMPDEST SWAP2 POP DUP2 SWAP1 POP SWAP2 SWAP1 POP JUMP JUMPDEST PUSH1 0x0 PUSH1 0x20 DUP3 ADD SWAP1 POP DUP2 DUP2 SUB PUSH1 0x0 DUP4 ADD MSTORE PUSH2 0x3F5 DUP2 PUSH2 0x34F JUMP JUMPDEST SWAP1 POP SWAP2 SWAP1 POP JUMP JUMPDEST PUSH1 0x0 PUSH1 0x20 DUP3 ADD SWAP1 POP DUP2 DUP2 SUB PUSH1 0x0 DUP4 ADD MSTORE PUSH2 0x415 DUP2 PUSH2 0x372 JUMP JUMPDEST SWAP1 POP SWAP2 SWAP1 POP JUMP JUMPDEST PUSH1 0x0 PUSH1 0x20 DUP3 ADD SWAP1 POP PUSH2 0x431 PUSH1 0x0 DUP4 ADD DUP5 PUSH2 0x3B8 JUMP JUMPDEST SWAP3 SWAP2 POP POP JUMP JUMPDEST PUSH1 0x0 DUP2 SWAP1 POP SWAP3 SWAP2 POP POP JUMP JUMPDEST PUSH1 0x0 DUP3 DUP3 MSTORE PUSH1 0x20 DUP3 ADD SWAP1 POP SWAP3 SWAP2 POP POP JUMP JUMPDEST PUSH1 0x0 PUSH2 0x45E DUP3 PUSH2 0x4DB JUMP JUMPDEST SWAP2 POP PUSH2 0x469 DUP4 PUSH2 0x4DB JUMP JUMPDEST SWAP3 POP DUP3 PUSH32 0xFFFFFFFFFFFFFFFFFFFFFFFFFFFFFFFFFFFFFFFFFFFFFFFFFFFFFFFFFFFFFFFF SUB DUP3 GT ISZERO PUSH2 0x49E JUMPI PUSH2 0x49D PUSH2 0x4E5 JUMP JUMPDEST JUMPDEST DUP3 DUP3 ADD SWAP1 POP SWAP3 SWAP2 POP POP JUMP JUMPDEST PUSH1 0x0 PUSH2 0x4B4 DUP3 PUSH2 0x4BB JUMP JUMPDEST SWAP1 POP SWAP2 SWAP1 POP JUMP JUMPDEST PUSH1 0x0 PUSH20 0xFFFFFFFFFFFFFFFFFFFFFFFFFFFFFFFFFFFFFFFF DUP3 AND SWAP1 POP SWAP2 SWAP1 POP JUMP JUMPDEST PUSH1 0x0 DUP2 SWAP1 POP SWAP2 SWAP1 POP JUMP JUMPDEST PUSH32 0x4E487B7100000000000000000000000000000000000000000000000000000000 PUSH1 0x0 MSTORE PUSH1 0x11 PUSH1 0x4 MSTORE PUSH1 0x24 PUSH1 0x0 REVERT JUMPDEST PUSH1 0x0 DUP1 REVERT JUMPDEST PUSH32 0x4661696C656420746F2073656E64204574686572000000000000000000000000 PUSH1 0x0 DUP3 ADD MSTORE POP JUMP JUMPDEST PUSH32 0x4E6F2072652D656E7472616E6379000000000000000000000000000000000000 PUSH1 0x0 DUP3 ADD MSTORE POP JUMP JUMPDEST POP JUMP JUMPDEST PUSH2 0x577 DUP2 PUSH2 0x4A9 JUMP JUMPDEST DUP2 EQ PUSH2 0x582 JUMPI PUSH1 0x0 DUP1 REVERT JUMPDEST POP JUMP INVALID LOG2 PUSH5 0x6970667358 0x22 SLT KECCAK256 0xEF 0x4C 0xB8 PUSH25 0xD237B352AC0E52E1A738EF93CB2BEABA8DBC350A59A6D76310 0xD 0xB6 CALL PUSH5 0x736F6C6343 STOP ADDMOD SMOD STOP CALLER "
				},
				"gasEstimates": {
					"creation": {
						"codeDepositCost": "293400",
						"executionCost": "331",
						"totalCost": "293731"
					},
					"external": {
						"balances(address)": "2814",
						"deposit()": "infinite",
						"getBalance()": "317",
						"withdraw()": "infinite"
					}
				},
				"methodIdentifiers": {
					"balances(address)": "27e235e3",
					"deposit()": "d0e30db0",
					"getBalance()": "12065fe0",
					"withdraw()": "3ccfd60b"
				}
			},
			"storageLayout": {
				"storage": [
					{
						"astId": 5,
						"contract": "Attact.sol:EtherStore",
						"label": "balances",
						"offset": 0,
						"slot": "0",
						"type": "t_mapping(t_address,t_uint256)"
					},
					{
						"astId": 7,
						"contract": "Attact.sol:EtherStore",
						"label": "locked",
						"offset": 0,
						"slot": "1",
						"type": "t_bool"
					}
				],
				"types": {
					"t_address": {
						"encoding": "inplace",
						"label": "address",
						"numberOfBytes": "20"
					},
					"t_bool": {
						"encoding": "inplace",
						"label": "bool",
						"numberOfBytes": "1"
					},
					"t_mapping(t_address,t_uint256)": {
						"encoding": "mapping",
						"key": "t_address",
						"label": "mapping(address => uint256)",
						"numberOfBytes": "32",
						"value": "t_uint256"
					},
					"t_uint256": {
						"encoding": "inplace",
						"label": "uint256",
						"numberOfBytes": "32"
					}
				}
			},
			"userdoc": {
				"kind": "user",
				"methods": {},
				"version": 1
			}
		}
	}
}