{
	"work_lp.sol": {
		"LPPool": {
			"abi": [
				{
					"inputs": [
						{
							"internalType": "address",
							"name": "lpt",
							"type": "address"
						},
						{
							"internalType": "address",
							"name": "rewardToken",
							"type": "address"
						}
					],
					"stateMutability": "nonpayable",
					"type": "constructor"
				},
				{
					"anonymous": false,
					"inputs": [
						{
							"indexed": true,
							"internalType": "address",
							"name": "previousOwner",
							"type": "address"
						},
						{
							"indexed": true,
							"internalType": "address",
							"name": "newOwner",
							"type": "address"
						}
					],
					"name": "OwnershipTransferred",
					"type": "event"
				},
				{
					"anonymous": false,
					"inputs": [
						{
							"indexed": true,
							"internalType": "address",
							"name": "user",
							"type": "address"
						},
						{
							"indexed": false,
							"internalType": "uint256",
							"name": "reward",
							"type": "uint256"
						}
					],
					"name": "RewardAdded",
					"type": "event"
				},
				{
					"anonymous": false,
					"inputs": [
						{
							"indexed": false,
							"internalType": "uint256",
							"name": "reward",
							"type": "uint256"
						}
					],
					"name": "RewardAdded",
					"type": "event"
				},
				{
					"anonymous": false,
					"inputs": [
						{
							"indexed": true,
							"internalType": "address",
							"name": "user",
							"type": "address"
						},
						{
							"indexed": false,
							"internalType": "uint256",
							"name": "reward",
							"type": "uint256"
						}
					],
					"name": "RewardPaid",
					"type": "event"
				},
				{
					"anonymous": false,
					"inputs": [
						{
							"indexed": true,
							"internalType": "address",
							"name": "user",
							"type": "address"
						},
						{
							"indexed": false,
							"internalType": "uint256",
							"name": "amount",
							"type": "uint256"
						}
					],
					"name": "Staked",
					"type": "event"
				},
				{
					"anonymous": false,
					"inputs": [
						{
							"indexed": true,
							"internalType": "address",
							"name": "user",
							"type": "address"
						},
						{
							"indexed": false,
							"internalType": "uint256",
							"name": "amount",
							"type": "uint256"
						}
					],
					"name": "Withdrawn",
					"type": "event"
				},
				{
					"inputs": [],
					"name": "DURATION",
					"outputs": [
						{
							"internalType": "uint256",
							"name": "",
							"type": "uint256"
						}
					],
					"stateMutability": "view",
					"type": "function"
				},
				{
					"inputs": [],
					"name": "_lpt",
					"outputs": [
						{
							"internalType": "contract IERC20",
							"name": "",
							"type": "address"
						}
					],
					"stateMutability": "view",
					"type": "function"
				},
				{
					"inputs": [],
					"name": "_rewardToken",
					"outputs": [
						{
							"internalType": "contract IERC20",
							"name": "",
							"type": "address"
						}
					],
					"stateMutability": "view",
					"type": "function"
				},
				{
					"inputs": [
						{
							"internalType": "uint256",
							"name": "amount",
							"type": "uint256"
						}
					],
					"name": "allocate",
					"outputs": [],
					"stateMutability": "nonpayable",
					"type": "function"
				},
				{
					"inputs": [
						{
							"internalType": "uint256",
							"name": "amount",
							"type": "uint256"
						}
					],
					"name": "allocateWithToken",
					"outputs": [],
					"stateMutability": "nonpayable",
					"type": "function"
				},
				{
					"inputs": [
						{
							"internalType": "address",
							"name": "account",
							"type": "address"
						}
					],
					"name": "balanceOf",
					"outputs": [
						{
							"internalType": "uint256",
							"name": "",
							"type": "uint256"
						}
					],
					"stateMutability": "view",
					"type": "function"
				},
				{
					"inputs": [
						{
							"internalType": "address",
							"name": "director",
							"type": "address"
						}
					],
					"name": "earned",
					"outputs": [
						{
							"internalType": "uint256",
							"name": "",
							"type": "uint256"
						}
					],
					"stateMutability": "view",
					"type": "function"
				},
				{
					"inputs": [],
					"name": "exit",
					"outputs": [],
					"stateMutability": "nonpayable",
					"type": "function"
				},
				{
					"inputs": [
						{
							"internalType": "address",
							"name": "director",
							"type": "address"
						}
					],
					"name": "getLastSnapshotIndexOf",
					"outputs": [
						{
							"internalType": "uint256",
							"name": "",
							"type": "uint256"
						}
					],
					"stateMutability": "view",
					"type": "function"
				},
				{
					"inputs": [],
					"name": "getReward",
					"outputs": [],
					"stateMutability": "nonpayable",
					"type": "function"
				},
				{
					"inputs": [],
					"name": "lastUpdateTime",
					"outputs": [
						{
							"internalType": "uint256",
							"name": "",
							"type": "uint256"
						}
					],
					"stateMutability": "view",
					"type": "function"
				},
				{
					"inputs": [],
					"name": "latestSnapshotIndex",
					"outputs": [
						{
							"internalType": "uint256",
							"name": "",
							"type": "uint256"
						}
					],
					"stateMutability": "view",
					"type": "function"
				},
				{
					"inputs": [
						{
							"internalType": "address",
							"name": "",
							"type": "address"
						}
					],
					"name": "operators",
					"outputs": [
						{
							"internalType": "bool",
							"name": "",
							"type": "bool"
						}
					],
					"stateMutability": "view",
					"type": "function"
				},
				{
					"inputs": [],
					"name": "owner",
					"outputs": [
						{
							"internalType": "address",
							"name": "",
							"type": "address"
						}
					],
					"stateMutability": "view",
					"type": "function"
				},
				{
					"inputs": [],
					"name": "renounceOwnership",
					"outputs": [],
					"stateMutability": "nonpayable",
					"type": "function"
				},
				{
					"inputs": [],
					"name": "rewardPerShare",
					"outputs": [
						{
							"internalType": "uint256",
							"name": "",
							"type": "uint256"
						}
					],
					"stateMutability": "view",
					"type": "function"
				},
				{
					"inputs": [],
					"name": "rewardPerTokenStored",
					"outputs": [
						{
							"internalType": "uint256",
							"name": "",
							"type": "uint256"
						}
					],
					"stateMutability": "view",
					"type": "function"
				},
				{
					"inputs": [
						{
							"internalType": "address",
							"name": "",
							"type": "address"
						}
					],
					"name": "rewards",
					"outputs": [
						{
							"internalType": "uint256",
							"name": "",
							"type": "uint256"
						}
					],
					"stateMutability": "view",
					"type": "function"
				},
				{
					"inputs": [
						{
							"internalType": "address[]",
							"name": "operatorList",
							"type": "address[]"
						},
						{
							"internalType": "bool",
							"name": "flag",
							"type": "bool"
						}
					],
					"name": "setOperator",
					"outputs": [],
					"stateMutability": "nonpayable",
					"type": "function"
				},
				{
					"inputs": [
						{
							"internalType": "uint256",
							"name": "amount",
							"type": "uint256"
						}
					],
					"name": "stake",
					"outputs": [],
					"stateMutability": "nonpayable",
					"type": "function"
				},
				{
					"inputs": [],
					"name": "totalSupply",
					"outputs": [
						{
							"internalType": "uint256",
							"name": "",
							"type": "uint256"
						}
					],
					"stateMutability": "view",
					"type": "function"
				},
				{
					"inputs": [
						{
							"internalType": "address",
							"name": "newOwner",
							"type": "address"
						}
					],
					"name": "transferOwnership",
					"outputs": [],
					"stateMutability": "nonpayable",
					"type": "function"
				},
				{
					"inputs": [
						{
							"internalType": "address",
							"name": "",
							"type": "address"
						}
					],
					"name": "userRewardPerTokenPaid",
					"outputs": [
						{
							"internalType": "uint256",
							"name": "",
							"type": "uint256"
						}
					],
					"stateMutability": "view",
					"type": "function"
				},
				{
					"inputs": [
						{
							"internalType": "uint256",
							"name": "amount",
							"type": "uint256"
						}
					],
					"name": "withdraw",
					"outputs": [],
					"stateMutability": "nonpayable",
					"type": "function"
				},
				{
					"inputs": [
						{
							"internalType": "address",
							"name": "token",
							"type": "address"
						},
						{
							"internalType": "address",
							"name": "to",
							"type": "address"
						},
						{
							"internalType": "uint256",
							"name": "amount",
							"type": "uint256"
						}
					],
					"name": "withdrawForeignTokens",
					"outputs": [
						{
							"internalType": "bool",
							"name": "",
							"type": "bool"
						}
					],
					"stateMutability": "nonpayable",
					"type": "function"
				}
			],
			"devdoc": {
				"kind": "dev",
				"methods": {
					"owner()": {
						"details": "Returns the address of the current owner."
					},
					"renounceOwnership()": {
						"details": "Leaves the contract without owner. It will not be possible to call `onlyOwner` functions anymore. Can only be called by the current owner. NOTE: Renouncing ownership will leave the contract without an owner, thereby removing any functionality that is only available to the owner."
					},
					"transferOwnership(address)": {
						"details": "Transfers ownership of the contract to a new account (`newOwner`). Can only be called by the current owner."
					}
				},
				"version": 1
			},
			"evm": {
				"assembly": "    /* \"work_lp.sol\":3623:8734  contract LPPool is LPTokenWrapper, Ownable {... */\n  mstore(0x40, 0x80)\n    /* \"work_lp.sol\":4334:4659  constructor(address lpt, address rewardToken) {... */\n  callvalue\n  dup1\n  iszero\n  tag_1\n  jumpi\n  0x00\n  dup1\n  revert\ntag_1:\n  pop\n  mload(0x40)\n  sub(codesize, bytecodeSize)\n  dup1\n  bytecodeSize\n  dup4\n  codecopy\n  dup2\n  dup2\n  add\n  0x40\n  mstore\n  dup2\n  add\n  swap1\n  tag_2\n  swap2\n  swap1\n  tag_3\n  jump\t// in\ntag_2:\n    /* \"@openzeppelin/contracts/access/Ownable.sol\":936:968  _transferOwnership(_msgSender()) */\n  tag_7\n    /* \"@openzeppelin/contracts/access/Ownable.sol\":955:967  _msgSender() */\n  tag_8\n    /* \"@openzeppelin/contracts/access/Ownable.sol\":955:965  _msgSender */\n  shl(0x20, tag_9)\n    /* \"@openzeppelin/contracts/access/Ownable.sol\":955:967  _msgSender() */\n  0x20\n  shr\n  jump\t// in\ntag_8:\n    /* \"@openzeppelin/contracts/access/Ownable.sol\":936:954  _transferOwnership */\n  shl(0x20, tag_10)\n    /* \"@openzeppelin/contracts/access/Ownable.sol\":936:968  _transferOwnership(_msgSender()) */\n  0x20\n  shr\n  jump\t// in\ntag_7:\n    /* \"work_lp.sol\":4404:4407  lpt */\n  dup2\n    /* \"work_lp.sol\":4390:4394  _lpt */\n  0x00\n  dup1\n    /* \"work_lp.sol\":4390:4408  _lpt = IERC20(lpt) */\n  0x0100\n  exp\n  dup2\n  sload\n  dup2\n  0xffffffffffffffffffffffffffffffffffffffff\n  mul\n  not\n  and\n  swap1\n  dup4\n  0xffffffffffffffffffffffffffffffffffffffff\n  and\n  mul\n  or\n  swap1\n  sstore\n  pop\n    /* \"work_lp.sol\":4440:4451  rewardToken */\n  dup1\n    /* \"work_lp.sol\":4418:4430  _rewardToken */\n  0x04\n  0x00\n    /* \"work_lp.sol\":4418:4452  _rewardToken = IERC20(rewardToken) */\n  0x0100\n  exp\n  dup2\n  sload\n  dup2\n  0xffffffffffffffffffffffffffffffffffffffff\n  mul\n  not\n  and\n  swap1\n  dup4\n  0xffffffffffffffffffffffffffffffffffffffff\n  and\n  mul\n  or\n  swap1\n  sstore\n  pop\n    /* \"work_lp.sol\":4462:4498  BoardSnapshot memory genesisSnapshot */\n  0x00\n    /* \"work_lp.sol\":4501:4608  BoardSnapshot({... */\n  mload(0x40)\n  dup1\n  0x60\n  add\n  0x40\n  mstore\n  dup1\n    /* \"work_lp.sol\":4531:4543  block.number */\n  number\n    /* \"work_lp.sol\":4501:4608  BoardSnapshot({... */\n  dup2\n  mstore\n  0x20\n  add\n    /* \"work_lp.sol\":4569:4570  0 */\n  0x00\n    /* \"work_lp.sol\":4501:4608  BoardSnapshot({... */\n  dup2\n  mstore\n  0x20\n  add\n    /* \"work_lp.sol\":4596:4597  0 */\n  0x00\n    /* \"work_lp.sol\":4501:4608  BoardSnapshot({... */\n  dup2\n  mstore\n  pop\n    /* \"work_lp.sol\":4462:4608  BoardSnapshot memory genesisSnapshot = BoardSnapshot({... */\n  swap1\n  pop\n    /* \"work_lp.sol\":4618:4630  boardHistory */\n  0x0b\n    /* \"work_lp.sol\":4636:4651  genesisSnapshot */\n  dup2\n    /* \"work_lp.sol\":4618:4652  boardHistory.push(genesisSnapshot) */\n  swap1\n  dup1\n  0x01\n  dup2\n  sload\n  add\n  dup1\n  dup3\n  sstore\n  dup1\n  swap2\n  pop\n  pop\n  0x01\n  swap1\n  sub\n  swap1\n  0x00\n  mstore\n  keccak256(0x00, 0x20)\n  swap1\n  0x03\n  mul\n  add\n  0x00\n  swap1\n  swap2\n  swap1\n  swap2\n  swap1\n  swap2\n  pop\n  0x00\n  dup3\n  add\n  mload\n  dup2\n  0x00\n  add\n  sstore\n  0x20\n  dup3\n  add\n  mload\n  dup2\n  0x01\n  add\n  sstore\n  0x40\n  dup3\n  add\n  mload\n  dup2\n  0x02\n  add\n  sstore\n  pop\n  pop\n    /* \"work_lp.sol\":4380:4659  {... */\n  pop\n    /* \"work_lp.sol\":4334:4659  constructor(address lpt, address rewardToken) {... */\n  pop\n  pop\n    /* \"work_lp.sol\":3623:8734  contract LPPool is LPTokenWrapper, Ownable {... */\n  jump(tag_13)\n    /* \"@openzeppelin/contracts/utils/Context.sol\":640:736  function _msgSender() internal view virtual returns (address) {... */\ntag_9:\n    /* \"@openzeppelin/contracts/utils/Context.sol\":693:700  address */\n  0x00\n    /* \"@openzeppelin/contracts/utils/Context.sol\":719:729  msg.sender */\n  caller\n    /* \"@openzeppelin/contracts/utils/Context.sol\":712:729  return msg.sender */\n  swap1\n  pop\n    /* \"@openzeppelin/contracts/utils/Context.sol\":640:736  function _msgSender() internal view virtual returns (address) {... */\n  swap1\n  jump\t// out\n    /* \"@openzeppelin/contracts/access/Ownable.sol\":2433:2620  function _transferOwnership(address newOwner) internal virtual {... */\ntag_10:\n    /* \"@openzeppelin/contracts/access/Ownable.sol\":2506:2522  address oldOwner */\n  0x00\n    /* \"@openzeppelin/contracts/access/Ownable.sol\":2525:2531  _owner */\n  0x03\n  0x00\n  swap1\n  sload\n  swap1\n  0x0100\n  exp\n  swap1\n  div\n  0xffffffffffffffffffffffffffffffffffffffff\n  and\n    /* \"@openzeppelin/contracts/access/Ownable.sol\":2506:2531  address oldOwner = _owner */\n  swap1\n  pop\n    /* \"@openzeppelin/contracts/access/Ownable.sol\":2550:2558  newOwner */\n  dup2\n    /* \"@openzeppelin/contracts/access/Ownable.sol\":2541:2547  _owner */\n  0x03\n  0x00\n    /* \"@openzeppelin/contracts/access/Ownable.sol\":2541:2558  _owner = newOwner */\n  0x0100\n  exp\n  dup2\n  sload\n  dup2\n  0xffffffffffffffffffffffffffffffffffffffff\n  mul\n  not\n  and\n  swap1\n  dup4\n  0xffffffffffffffffffffffffffffffffffffffff\n  and\n  mul\n  or\n  swap1\n  sstore\n  pop\n    /* \"@openzeppelin/contracts/access/Ownable.sol\":2604:2612  newOwner */\n  dup2\n    /* \"@openzeppelin/contracts/access/Ownable.sol\":2573:2613  OwnershipTransferred(oldOwner, newOwner) */\n  0xffffffffffffffffffffffffffffffffffffffff\n  and\n    /* \"@openzeppelin/contracts/access/Ownable.sol\":2594:2602  oldOwner */\n  dup2\n    /* \"@openzeppelin/contracts/access/Ownable.sol\":2573:2613  OwnershipTransferred(oldOwner, newOwner) */\n  0xffffffffffffffffffffffffffffffffffffffff\n  and\n  0x8be0079c531659141344cd1fd0a4f28419497f9722a3daafe3b4186f6b6457e0\n  mload(0x40)\n  mload(0x40)\n  dup1\n  swap2\n  sub\n  swap1\n  log3\n    /* \"@openzeppelin/contracts/access/Ownable.sol\":2496:2620  {... */\n  pop\n    /* \"@openzeppelin/contracts/access/Ownable.sol\":2433:2620  function _transferOwnership(address newOwner) internal virtual {... */\n  pop\n  jump\t// out\n    /* \"#utility.yul\":7:150   */\ntag_17:\n    /* \"#utility.yul\":64:69   */\n  0x00\n    /* \"#utility.yul\":95:101   */\n  dup2\n    /* \"#utility.yul\":89:102   */\n  mload\n    /* \"#utility.yul\":80:102   */\n  swap1\n  pop\n    /* \"#utility.yul\":111:144   */\n  tag_19\n    /* \"#utility.yul\":138:143   */\n  dup2\n    /* \"#utility.yul\":111:144   */\n  tag_20\n  jump\t// in\ntag_19:\n    /* \"#utility.yul\":7:150   */\n  swap3\n  swap2\n  pop\n  pop\n  jump\t// out\n    /* \"#utility.yul\":156:663   */\ntag_3:\n    /* \"#utility.yul\":235:241   */\n  0x00\n    /* \"#utility.yul\":243:249   */\n  dup1\n    /* \"#utility.yul\":292:294   */\n  0x40\n    /* \"#utility.yul\":280:289   */\n  dup4\n    /* \"#utility.yul\":271:278   */\n  dup6\n    /* \"#utility.yul\":267:290   */\n  sub\n    /* \"#utility.yul\":263:295   */\n  slt\n    /* \"#utility.yul\":260:379   */\n  iszero\n  tag_22\n  jumpi\n    /* \"#utility.yul\":298:377   */\n  tag_23\n  tag_24\n  jump\t// in\ntag_23:\n    /* \"#utility.yul\":260:379   */\ntag_22:\n    /* \"#utility.yul\":418:419   */\n  0x00\n    /* \"#utility.yul\":443:507   */\n  tag_25\n    /* \"#utility.yul\":499:506   */\n  dup6\n    /* \"#utility.yul\":490:496   */\n  dup3\n    /* \"#utility.yul\":479:488   */\n  dup7\n    /* \"#utility.yul\":475:497   */\n  add\n    /* \"#utility.yul\":443:507   */\n  tag_17\n  jump\t// in\ntag_25:\n    /* \"#utility.yul\":433:507   */\n  swap3\n  pop\n    /* \"#utility.yul\":389:517   */\n  pop\n    /* \"#utility.yul\":556:558   */\n  0x20\n    /* \"#utility.yul\":582:646   */\n  tag_26\n    /* \"#utility.yul\":638:645   */\n  dup6\n    /* \"#utility.yul\":629:635   */\n  dup3\n    /* \"#utility.yul\":618:627   */\n  dup7\n    /* \"#utility.yul\":614:636   */\n  add\n    /* \"#utility.yul\":582:646   */\n  tag_17\n  jump\t// in\ntag_26:\n    /* \"#utility.yul\":572:646   */\n  swap2\n  pop\n    /* \"#utility.yul\":527:656   */\n  pop\n    /* \"#utility.yul\":156:663   */\n  swap3\n  pop\n  swap3\n  swap1\n  pop\n  jump\t// out\n    /* \"#utility.yul\":750:846   */\ntag_29:\n    /* \"#utility.yul\":787:794   */\n  0x00\n    /* \"#utility.yul\":816:840   */\n  tag_31\n    /* \"#utility.yul\":834:839   */\n  dup3\n    /* \"#utility.yul\":816:840   */\n  tag_32\n  jump\t// in\ntag_31:\n    /* \"#utility.yul\":805:840   */\n  swap1\n  pop\n    /* \"#utility.yul\":750:846   */\n  swap2\n  swap1\n  pop\n  jump\t// out\n    /* \"#utility.yul\":852:978   */\ntag_32:\n    /* \"#utility.yul\":889:896   */\n  0x00\n    /* \"#utility.yul\":929:971   */\n  0xffffffffffffffffffffffffffffffffffffffff\n    /* \"#utility.yul\":922:927   */\n  dup3\n    /* \"#utility.yul\":918:972   */\n  and\n    /* \"#utility.yul\":907:972   */\n  swap1\n  pop\n    /* \"#utility.yul\":852:978   */\n  swap2\n  swap1\n  pop\n  jump\t// out\n    /* \"#utility.yul\":1107:1224   */\ntag_24:\n    /* \"#utility.yul\":1216:1217   */\n  0x00\n    /* \"#utility.yul\":1213:1214   */\n  dup1\n    /* \"#utility.yul\":1206:1218   */\n  revert\n    /* \"#utility.yul\":1230:1352   */\ntag_20:\n    /* \"#utility.yul\":1303:1327   */\n  tag_38\n    /* \"#utility.yul\":1321:1326   */\n  dup2\n    /* \"#utility.yul\":1303:1327   */\n  tag_29\n  jump\t// in\ntag_38:\n    /* \"#utility.yul\":1296:1301   */\n  dup2\n    /* \"#utility.yul\":1293:1328   */\n  eq\n    /* \"#utility.yul\":1283:1346   */\n  tag_39\n  jumpi\n    /* \"#utility.yul\":1342:1343   */\n  0x00\n    /* \"#utility.yul\":1339:1340   */\n  dup1\n    /* \"#utility.yul\":1332:1344   */\n  revert\n    /* \"#utility.yul\":1283:1346   */\ntag_39:\n    /* \"#utility.yul\":1230:1352   */\n  pop\n  jump\t// out\n    /* \"work_lp.sol\":3623:8734  contract LPPool is LPTokenWrapper, Ownable {... */\ntag_13:\n  dataSize(sub_0)\n  dup1\n  dataOffset(sub_0)\n  0x00\n  codecopy\n  0x00\n  return\nstop\n\nsub_0: assembly {\n        /* \"work_lp.sol\":3623:8734  contract LPPool is LPTokenWrapper, Ownable {... */\n      mstore(0x40, 0x80)\n      callvalue\n      dup1\n      iszero\n      tag_1\n      jumpi\n      0x00\n      dup1\n      revert\n    tag_1:\n      pop\n      jumpi(tag_2, lt(calldatasize, 0x04))\n      shr(0xe0, calldataload(0x00))\n      dup1\n      0x714b4658\n      gt\n      tag_28\n      jumpi\n      dup1\n      0xa25e6898\n      gt\n      tag_29\n      jumpi\n      dup1\n      0xc8f33c91\n      gt\n      tag_30\n      jumpi\n      dup1\n      0xc8f33c91\n      eq\n      tag_24\n      jumpi\n      dup1\n      0xdf136d65\n      eq\n      tag_25\n      jumpi\n      dup1\n      0xe9fad8ee\n      eq\n      tag_26\n      jumpi\n      dup1\n      0xf2fde38b\n      eq\n      tag_27\n      jumpi\n      jump(tag_2)\n    tag_30:\n      dup1\n      0xa25e6898\n      eq\n      tag_21\n      jumpi\n      dup1\n      0xa694fc3a\n      eq\n      tag_22\n      jumpi\n      dup1\n      0xb59c6e0e\n      eq\n      tag_23\n      jumpi\n      jump(tag_2)\n    tag_29:\n      dup1\n      0x714b4658\n      eq\n      tag_15\n      jumpi\n      dup1\n      0x715018a6\n      eq\n      tag_16\n      jumpi\n      dup1\n      0x8525feed\n      eq\n      tag_17\n      jumpi\n      dup1\n      0x8b876347\n      eq\n      tag_18\n      jumpi\n      dup1\n      0x8da5cb5b\n      eq\n      tag_19\n      jumpi\n      dup1\n      0x90ca796b\n      eq\n      tag_20\n      jumpi\n      jump(tag_2)\n    tag_28:\n      dup1\n      0x2e1a7d4d\n      gt\n      tag_31\n      jumpi\n      dup1\n      0x2e1a7d4d\n      eq\n      tag_9\n      jumpi\n      dup1\n      0x3d18b912\n      eq\n      tag_10\n      jumpi\n      dup1\n      0x3f9e3f04\n      eq\n      tag_11\n      jumpi\n      dup1\n      0x446a2ec8\n      eq\n      tag_12\n      jumpi\n      dup1\n      0x66cf5880\n      eq\n      tag_13\n      jumpi\n      dup1\n      0x70a08231\n      eq\n      tag_14\n      jumpi\n      jump(tag_2)\n    tag_31:\n      dup1\n      0x8cc262\n      eq\n      tag_3\n      jumpi\n      dup1\n      0x0700037d\n      eq\n      tag_4\n      jumpi\n      dup1\n      0x13e7c9d8\n      eq\n      tag_5\n      jumpi\n      dup1\n      0x18160ddd\n      eq\n      tag_6\n      jumpi\n      dup1\n      0x1be05289\n      eq\n      tag_7\n      jumpi\n      dup1\n      0x1ed6144e\n      eq\n      tag_8\n      jumpi\n    tag_2:\n      0x00\n      dup1\n      revert\n        /* \"work_lp.sol\":6279:6663  function earned(address director) public view returns (uint256) {... */\n    tag_3:\n      tag_32\n      0x04\n      dup1\n      calldatasize\n      sub\n      dup2\n      add\n      swap1\n      tag_33\n      swap2\n      swap1\n      tag_34\n      jump\t// in\n    tag_33:\n      tag_35\n      jump\t// in\n    tag_32:\n      mload(0x40)\n      tag_36\n      swap2\n      swap1\n      tag_37\n      jump\t// in\n    tag_36:\n      mload(0x40)\n      dup1\n      swap2\n      sub\n      swap1\n      return\n        /* \"work_lp.sol\":3924:3966  mapping(address => uint256) public rewards */\n    tag_4:\n      tag_38\n      0x04\n      dup1\n      calldatasize\n      sub\n      dup2\n      add\n      swap1\n      tag_39\n      swap2\n      swap1\n      tag_34\n      jump\t// in\n    tag_39:\n      tag_40\n      jump\t// in\n    tag_38:\n      mload(0x40)\n      tag_41\n      swap2\n      swap1\n      tag_37\n      jump\t// in\n    tag_41:\n      mload(0x40)\n      dup1\n      swap2\n      sub\n      swap1\n      return\n        /* \"work_lp.sol\":4188:4229  mapping(address => bool) public operators */\n    tag_5:\n      tag_42\n      0x04\n      dup1\n      calldatasize\n      sub\n      dup2\n      add\n      swap1\n      tag_43\n      swap2\n      swap1\n      tag_34\n      jump\t// in\n    tag_43:\n      tag_44\n      jump\t// in\n    tag_42:\n      mload(0x40)\n      tag_45\n      swap2\n      swap1\n      tag_46\n      jump\t// in\n    tag_45:\n      mload(0x40)\n      dup1\n      swap2\n      sub\n      swap1\n      return\n        /* \"work_lp.sol\":2961:3050  function totalSupply() public view returns (uint256) {... */\n    tag_6:\n      tag_47\n      tag_48\n      jump\t// in\n    tag_47:\n      mload(0x40)\n      tag_49\n      swap2\n      swap1\n      tag_37\n      jump\t// in\n    tag_49:\n      mload(0x40)\n      dup1\n      swap2\n      sub\n      swap1\n      return\n        /* \"work_lp.sol\":3737:3778  uint256 public constant DURATION = 1 days */\n    tag_7:\n      tag_50\n      tag_51\n      jump\t// in\n    tag_50:\n      mload(0x40)\n      tag_52\n      swap2\n      swap1\n      tag_37\n      jump\t// in\n    tag_52:\n      mload(0x40)\n      dup1\n      swap2\n      sub\n      swap1\n      return\n        /* \"work_lp.sol\":4793:4989  function setOperator(address[] memory operatorList, bool flag) public onlyOwner{... */\n    tag_8:\n      tag_53\n      0x04\n      dup1\n      calldatasize\n      sub\n      dup2\n      add\n      swap1\n      tag_54\n      swap2\n      swap1\n      tag_55\n      jump\t// in\n    tag_54:\n      tag_56\n      jump\t// in\n    tag_53:\n      stop\n        /* \"work_lp.sol\":5278:5486  function withdraw(uint256 amount) public override updateReward(msg.sender) {... */\n    tag_9:\n      tag_57\n      0x04\n      dup1\n      calldatasize\n      sub\n      dup2\n      add\n      swap1\n      tag_58\n      swap2\n      swap1\n      tag_59\n      jump\t// in\n    tag_58:\n      tag_60\n      jump\t// in\n    tag_57:\n      stop\n        /* \"work_lp.sol\":7426:7739  function getReward() public updateReward(msg.sender) {... */\n    tag_10:\n      tag_61\n      tag_62\n      jump\t// in\n    tag_61:\n      stop\n        /* \"work_lp.sol\":5592:5703  function latestSnapshotIndex() public view returns (uint256) {... */\n    tag_11:\n      tag_63\n      tag_64\n      jump\t// in\n    tag_63:\n      mload(0x40)\n      tag_65\n      swap2\n      swap1\n      tag_37\n      jump\t// in\n    tag_65:\n      mload(0x40)\n      dup1\n      swap2\n      sub\n      swap1\n      return\n        /* \"work_lp.sol\":6159:6273  function rewardPerShare() public view returns (uint256) {... */\n    tag_12:\n      tag_66\n      tag_67\n      jump\t// in\n    tag_66:\n      mload(0x40)\n      tag_68\n      swap2\n      swap1\n      tag_37\n      jump\t// in\n    tag_68:\n      mload(0x40)\n      dup1\n      swap2\n      sub\n      swap1\n      return\n        /* \"work_lp.sol\":7745:8078  function allocateWithToken(uint256 amount) external{... */\n    tag_13:\n      tag_69\n      0x04\n      dup1\n      calldatasize\n      sub\n      dup2\n      add\n      swap1\n      tag_70\n      swap2\n      swap1\n      tag_59\n      jump\t// in\n    tag_70:\n      tag_71\n      jump\t// in\n    tag_69:\n      stop\n        /* \"work_lp.sol\":3055:3163  function balanceOf(address account) public view returns (uint256) {... */\n    tag_14:\n      tag_72\n      0x04\n      dup1\n      calldatasize\n      sub\n      dup2\n      add\n      swap1\n      tag_73\n      swap2\n      swap1\n      tag_34\n      jump\t// in\n    tag_73:\n      tag_74\n      jump\t// in\n    tag_72:\n      mload(0x40)\n      tag_75\n      swap2\n      swap1\n      tag_37\n      jump\t// in\n    tag_75:\n      mload(0x40)\n      dup1\n      swap2\n      sub\n      swap1\n      return\n        /* \"work_lp.sol\":5848:5988  function getLastSnapshotIndexOf(address director) public view returns (uint256){... */\n    tag_15:\n      tag_76\n      0x04\n      dup1\n      calldatasize\n      sub\n      dup2\n      add\n      swap1\n      tag_77\n      swap2\n      swap1\n      tag_34\n      jump\t// in\n    tag_77:\n      tag_78\n      jump\t// in\n    tag_76:\n      mload(0x40)\n      tag_79\n      swap2\n      swap1\n      tag_37\n      jump\t// in\n    tag_79:\n      mload(0x40)\n      dup1\n      swap2\n      sub\n      swap1\n      return\n        /* \"@openzeppelin/contracts/access/Ownable.sol\":1831:1932  function renounceOwnership() public virtual onlyOwner {... */\n    tag_16:\n      tag_80\n      tag_81\n      jump\t// in\n    tag_80:\n      stop\n        /* \"work_lp.sol\":2852:2870  IERC20 public _lpt */\n    tag_17:\n      tag_82\n      tag_83\n      jump\t// in\n    tag_82:\n      mload(0x40)\n      tag_84\n      swap2\n      swap1\n      tag_85\n      jump\t// in\n    tag_84:\n      mload(0x40)\n      dup1\n      swap2\n      sub\n      swap1\n      return\n        /* \"work_lp.sol\":3861:3918  mapping(address => uint256) public userRewardPerTokenPaid */\n    tag_18:\n      tag_86\n      0x04\n      dup1\n      calldatasize\n      sub\n      dup2\n      add\n      swap1\n      tag_87\n      swap2\n      swap1\n      tag_34\n      jump\t// in\n    tag_87:\n      tag_88\n      jump\t// in\n    tag_86:\n      mload(0x40)\n      tag_89\n      swap2\n      swap1\n      tag_37\n      jump\t// in\n    tag_89:\n      mload(0x40)\n      dup1\n      swap2\n      sub\n      swap1\n      return\n        /* \"@openzeppelin/contracts/access/Ownable.sol\":1201:1286  function owner() public view virtual returns (address) {... */\n    tag_19:\n      tag_90\n      tag_91\n      jump\t// in\n    tag_90:\n      mload(0x40)\n      tag_92\n      swap2\n      swap1\n      tag_93\n      jump\t// in\n    tag_92:\n      mload(0x40)\n      dup1\n      swap2\n      sub\n      swap1\n      return\n        /* \"work_lp.sol\":8084:8285  function allocate(uint256 amount) external onlyOperator{... */\n    tag_20:\n      tag_94\n      0x04\n      dup1\n      calldatasize\n      sub\n      dup2\n      add\n      swap1\n      tag_95\n      swap2\n      swap1\n      tag_59\n      jump\t// in\n    tag_95:\n      tag_96\n      jump\t// in\n    tag_94:\n      stop\n        /* \"work_lp.sol\":8568:8732  function withdrawForeignTokens(address token, address to, uint256 amount) onlyOwner public returns (bool) {... */\n    tag_21:\n      tag_97\n      0x04\n      dup1\n      calldatasize\n      sub\n      dup2\n      add\n      swap1\n      tag_98\n      swap2\n      swap1\n      tag_99\n      jump\t// in\n    tag_98:\n      tag_100\n      jump\t// in\n    tag_97:\n      mload(0x40)\n      tag_101\n      swap2\n      swap1\n      tag_46\n      jump\t// in\n    tag_101:\n      mload(0x40)\n      dup1\n      swap2\n      sub\n      swap1\n      return\n        /* \"work_lp.sol\":5076:5272  function stake(uint256 amount) public override updateReward(msg.sender) {... */\n    tag_22:\n      tag_102\n      0x04\n      dup1\n      calldatasize\n      sub\n      dup2\n      add\n      swap1\n      tag_103\n      swap2\n      swap1\n      tag_59\n      jump\t// in\n    tag_103:\n      tag_104\n      jump\t// in\n    tag_102:\n      stop\n        /* \"work_lp.sol\":3705:3731  IERC20 public _rewardToken */\n    tag_23:\n      tag_105\n      tag_106\n      jump\t// in\n    tag_105:\n      mload(0x40)\n      tag_107\n      swap2\n      swap1\n      tag_85\n      jump\t// in\n    tag_107:\n      mload(0x40)\n      dup1\n      swap2\n      sub\n      swap1\n      return\n        /* \"work_lp.sol\":3785:3814  uint256 public lastUpdateTime */\n    tag_24:\n      tag_108\n      tag_109\n      jump\t// in\n    tag_108:\n      mload(0x40)\n      tag_110\n      swap2\n      swap1\n      tag_37\n      jump\t// in\n    tag_110:\n      mload(0x40)\n      dup1\n      swap2\n      sub\n      swap1\n      return\n        /* \"work_lp.sol\":3820:3855  uint256 public rewardPerTokenStored */\n    tag_25:\n      tag_111\n      tag_112\n      jump\t// in\n    tag_111:\n      mload(0x40)\n      tag_113\n      swap2\n      swap1\n      tag_37\n      jump\t// in\n    tag_113:\n      mload(0x40)\n      dup1\n      swap2\n      sub\n      swap1\n      return\n        /* \"work_lp.sol\":5492:5586  function exit() external {... */\n    tag_26:\n      tag_114\n      tag_115\n      jump\t// in\n    tag_114:\n      stop\n        /* \"@openzeppelin/contracts/access/Ownable.sol\":2081:2279  function transferOwnership(address newOwner) public virtual onlyOwner {... */\n    tag_27:\n      tag_116\n      0x04\n      dup1\n      calldatasize\n      sub\n      dup2\n      add\n      swap1\n      tag_117\n      swap2\n      swap1\n      tag_34\n      jump\t// in\n    tag_117:\n      tag_118\n      jump\t// in\n    tag_116:\n      stop\n        /* \"work_lp.sol\":6279:6663  function earned(address director) public view returns (uint256) {... */\n    tag_35:\n        /* \"work_lp.sol\":6334:6341  uint256 */\n      0x00\n        /* \"work_lp.sol\":6353:6370  uint256 latestRPS */\n      dup1\n        /* \"work_lp.sol\":6373:6392  getLatestSnapshot() */\n      tag_120\n        /* \"work_lp.sol\":6373:6390  getLatestSnapshot */\n      tag_121\n        /* \"work_lp.sol\":6373:6392  getLatestSnapshot() */\n      jump\t// in\n    tag_120:\n        /* \"work_lp.sol\":6373:6407  getLatestSnapshot().rewardPerShare */\n      0x40\n      add\n      mload\n        /* \"work_lp.sol\":6353:6407  uint256 latestRPS = getLatestSnapshot().rewardPerShare */\n      swap1\n      pop\n        /* \"work_lp.sol\":6417:6434  uint256 storedRPS */\n      0x00\n        /* \"work_lp.sol\":6437:6464  getLastSnapshotOf(director) */\n      tag_122\n        /* \"work_lp.sol\":6455:6463  director */\n      dup5\n        /* \"work_lp.sol\":6437:6454  getLastSnapshotOf */\n      tag_123\n        /* \"work_lp.sol\":6437:6464  getLastSnapshotOf(director) */\n      jump\t// in\n    tag_122:\n        /* \"work_lp.sol\":6437:6479  getLastSnapshotOf(director).rewardPerShare */\n      0x40\n      add\n      mload\n        /* \"work_lp.sol\":6417:6479  uint256 storedRPS = getLastSnapshotOf(director).rewardPerShare */\n      swap1\n      pop\n        /* \"work_lp.sol\":6489:6509  uint256 rewardEarned */\n      0x00\n        /* \"work_lp.sol\":6512:6627  balanceOf(director)... */\n      tag_124\n        /* \"work_lp.sol\":6594:6603  directors */\n      0x0a\n        /* \"work_lp.sol\":6594:6613  directors[director] */\n      0x00\n        /* \"work_lp.sol\":6604:6612  director */\n      dup8\n        /* \"work_lp.sol\":6594:6613  directors[director] */\n      0xffffffffffffffffffffffffffffffffffffffff\n      and\n      0xffffffffffffffffffffffffffffffffffffffff\n      and\n      dup2\n      mstore\n      0x20\n      add\n      swap1\n      dup2\n      mstore\n      0x20\n      add\n      0x00\n      keccak256\n        /* \"work_lp.sol\":6594:6626  directors[director].rewardEarned */\n      0x01\n      add\n      sload\n        /* \"work_lp.sol\":6512:6580  balanceOf(director)... */\n      tag_125\n        /* \"work_lp.sol\":6575:6579  1e18 */\n      0x0de0b6b3a7640000\n        /* \"work_lp.sol\":6512:6570  balanceOf(director)... */\n      tag_126\n        /* \"work_lp.sol\":6545:6569  latestRPS.sub(storedRPS) */\n      tag_127\n        /* \"work_lp.sol\":6559:6568  storedRPS */\n      dup8\n        /* \"work_lp.sol\":6545:6554  latestRPS */\n      dup10\n        /* \"work_lp.sol\":6545:6558  latestRPS.sub */\n      tag_128\n      swap1\n        /* \"work_lp.sol\":6545:6569  latestRPS.sub(storedRPS) */\n      swap2\n      swap1\n      0xffffffff\n      and\n      jump\t// in\n    tag_127:\n        /* \"work_lp.sol\":6512:6531  balanceOf(director) */\n      tag_129\n        /* \"work_lp.sol\":6522:6530  director */\n      dup12\n        /* \"work_lp.sol\":6512:6521  balanceOf */\n      tag_74\n        /* \"work_lp.sol\":6512:6531  balanceOf(director) */\n      jump\t// in\n    tag_129:\n        /* \"work_lp.sol\":6512:6544  balanceOf(director)... */\n      tag_130\n      swap1\n        /* \"work_lp.sol\":6512:6570  balanceOf(director)... */\n      swap2\n      swap1\n      0xffffffff\n      and\n      jump\t// in\n    tag_126:\n        /* \"work_lp.sol\":6512:6574  balanceOf(director)... */\n      tag_131\n      swap1\n        /* \"work_lp.sol\":6512:6580  balanceOf(director)... */\n      swap2\n      swap1\n      0xffffffff\n      and\n      jump\t// in\n    tag_125:\n        /* \"work_lp.sol\":6512:6593  balanceOf(director)... */\n      tag_132\n      swap1\n        /* \"work_lp.sol\":6512:6627  balanceOf(director)... */\n      swap2\n      swap1\n      0xffffffff\n      and\n      jump\t// in\n    tag_124:\n        /* \"work_lp.sol\":6489:6627  uint256 rewardEarned = balanceOf(director)... */\n      swap1\n      pop\n        /* \"work_lp.sol\":6644:6656  rewardEarned */\n      dup1\n        /* \"work_lp.sol\":6637:6656  return rewardEarned */\n      swap4\n      pop\n      pop\n      pop\n      pop\n        /* \"work_lp.sol\":6279:6663  function earned(address director) public view returns (uint256) {... */\n      swap2\n      swap1\n      pop\n      jump\t// out\n        /* \"work_lp.sol\":3924:3966  mapping(address => uint256) public rewards */\n    tag_40:\n      mstore(0x20, 0x08)\n      dup1\n      0x00\n      mstore\n      keccak256(0x00, 0x40)\n      0x00\n      swap2\n      pop\n      swap1\n      pop\n      sload\n      dup2\n      jump\t// out\n        /* \"work_lp.sol\":4188:4229  mapping(address => bool) public operators */\n    tag_44:\n      mstore(0x20, 0x09)\n      dup1\n      0x00\n      mstore\n      keccak256(0x00, 0x40)\n      0x00\n      swap2\n      pop\n      sload\n      swap1\n      0x0100\n      exp\n      swap1\n      div\n      0xff\n      and\n      dup2\n      jump\t// out\n        /* \"work_lp.sol\":2961:3050  function totalSupply() public view returns (uint256) {... */\n    tag_48:\n        /* \"work_lp.sol\":3005:3012  uint256 */\n      0x00\n        /* \"work_lp.sol\":3031:3043  _totalSupply */\n      sload(0x01)\n        /* \"work_lp.sol\":3024:3043  return _totalSupply */\n      swap1\n      pop\n        /* \"work_lp.sol\":2961:3050  function totalSupply() public view returns (uint256) {... */\n      swap1\n      jump\t// out\n        /* \"work_lp.sol\":3737:3778  uint256 public constant DURATION = 1 days */\n    tag_51:\n        /* \"work_lp.sol\":3772:3778  1 days */\n      0x015180\n        /* \"work_lp.sol\":3737:3778  uint256 public constant DURATION = 1 days */\n      dup2\n      jump\t// out\n        /* \"work_lp.sol\":4793:4989  function setOperator(address[] memory operatorList, bool flag) public onlyOwner{... */\n    tag_56:\n        /* \"@openzeppelin/contracts/access/Ownable.sol\":1094:1107  _checkOwner() */\n      tag_135\n        /* \"@openzeppelin/contracts/access/Ownable.sol\":1094:1105  _checkOwner */\n      tag_136\n        /* \"@openzeppelin/contracts/access/Ownable.sol\":1094:1107  _checkOwner() */\n      jump\t// in\n    tag_135:\n        /* \"work_lp.sol\":4887:4896  uint256 i */\n      0x00\n        /* \"work_lp.sol\":4883:4983  for(uint256 i=0;i<operatorList.length;i++){... */\n    tag_138:\n        /* \"work_lp.sol\":4901:4913  operatorList */\n      dup3\n        /* \"work_lp.sol\":4901:4920  operatorList.length */\n      mload\n        /* \"work_lp.sol\":4899:4900  i */\n      dup2\n        /* \"work_lp.sol\":4899:4920  i<operatorList.length */\n      lt\n        /* \"work_lp.sol\":4883:4983  for(uint256 i=0;i<operatorList.length;i++){... */\n      iszero\n      tag_139\n      jumpi\n        /* \"work_lp.sol\":4968:4972  flag */\n      dup2\n        /* \"work_lp.sol\":4939:4948  operators */\n      0x09\n        /* \"work_lp.sol\":4939:4965  operators[operatorList[i]] */\n      0x00\n        /* \"work_lp.sol\":4949:4961  operatorList */\n      dup6\n        /* \"work_lp.sol\":4962:4963  i */\n      dup5\n        /* \"work_lp.sol\":4949:4964  operatorList[i] */\n      dup2\n      mload\n      dup2\n      lt\n      tag_141\n      jumpi\n      tag_142\n      tag_143\n      jump\t// in\n    tag_142:\n    tag_141:\n      0x20\n      mul\n      0x20\n      add\n      add\n      mload\n        /* \"work_lp.sol\":4939:4965  operators[operatorList[i]] */\n      0xffffffffffffffffffffffffffffffffffffffff\n      and\n      0xffffffffffffffffffffffffffffffffffffffff\n      and\n      dup2\n      mstore\n      0x20\n      add\n      swap1\n      dup2\n      mstore\n      0x20\n      add\n      0x00\n      keccak256\n      0x00\n        /* \"work_lp.sol\":4939:4972  operators[operatorList[i]] = flag */\n      0x0100\n      exp\n      dup2\n      sload\n      dup2\n      0xff\n      mul\n      not\n      and\n      swap1\n      dup4\n      iszero\n      iszero\n      mul\n      or\n      swap1\n      sstore\n      pop\n        /* \"work_lp.sol\":4921:4924  i++ */\n      dup1\n      dup1\n      tag_144\n      swap1\n      tag_145\n      jump\t// in\n    tag_144:\n      swap2\n      pop\n      pop\n        /* \"work_lp.sol\":4883:4983  for(uint256 i=0;i<operatorList.length;i++){... */\n      jump(tag_138)\n    tag_139:\n      pop\n        /* \"work_lp.sol\":4793:4989  function setOperator(address[] memory operatorList, bool flag) public onlyOwner{... */\n      pop\n      pop\n      jump\t// out\n        /* \"work_lp.sol\":5278:5486  function withdraw(uint256 amount) public override updateReward(msg.sender) {... */\n    tag_60:\n        /* \"work_lp.sol\":5341:5351  msg.sender */\n      caller\n        /* \"work_lp.sol\":6743:6744  0 */\n      0x00\n        /* \"work_lp.sol\":6723:6745  director != address(0) */\n      0xffffffffffffffffffffffffffffffffffffffff\n      and\n        /* \"work_lp.sol\":6723:6731  director */\n      dup2\n        /* \"work_lp.sol\":6723:6745  director != address(0) */\n      0xffffffffffffffffffffffffffffffffffffffff\n      and\n      eq\n        /* \"work_lp.sol\":6719:6965  if (director != address(0)) {... */\n      tag_147\n      jumpi\n        /* \"work_lp.sol\":6761:6782  Boardseat memory seat */\n      0x00\n        /* \"work_lp.sol\":6785:6794  directors */\n      0x0a\n        /* \"work_lp.sol\":6785:6804  directors[director] */\n      0x00\n        /* \"work_lp.sol\":6795:6803  director */\n      dup4\n        /* \"work_lp.sol\":6785:6804  directors[director] */\n      0xffffffffffffffffffffffffffffffffffffffff\n      and\n      0xffffffffffffffffffffffffffffffffffffffff\n      and\n      dup2\n      mstore\n      0x20\n      add\n      swap1\n      dup2\n      mstore\n      0x20\n      add\n      0x00\n      keccak256\n        /* \"work_lp.sol\":6761:6804  Boardseat memory seat = directors[director] */\n      mload(0x40)\n      dup1\n      0x40\n      add\n      0x40\n      mstore\n      swap1\n      dup2\n      0x00\n      dup3\n      add\n      sload\n      dup2\n      mstore\n      0x20\n      add\n      0x01\n      dup3\n      add\n      sload\n      dup2\n      mstore\n      pop\n      pop\n      swap1\n      pop\n        /* \"work_lp.sol\":6838:6854  earned(director) */\n      tag_148\n        /* \"work_lp.sol\":6845:6853  director */\n      dup3\n        /* \"work_lp.sol\":6838:6844  earned */\n      tag_35\n        /* \"work_lp.sol\":6838:6854  earned(director) */\n      jump\t// in\n    tag_148:\n        /* \"work_lp.sol\":6818:6822  seat */\n      dup2\n        /* \"work_lp.sol\":6818:6835  seat.rewardEarned */\n      0x20\n      add\n        /* \"work_lp.sol\":6818:6854  seat.rewardEarned = earned(director) */\n      dup2\n      dup2\n      mstore\n      pop\n      pop\n        /* \"work_lp.sol\":6893:6914  latestSnapshotIndex() */\n      tag_149\n        /* \"work_lp.sol\":6893:6912  latestSnapshotIndex */\n      tag_64\n        /* \"work_lp.sol\":6893:6914  latestSnapshotIndex() */\n      jump\t// in\n    tag_149:\n        /* \"work_lp.sol\":6868:6872  seat */\n      dup2\n        /* \"work_lp.sol\":6868:6890  seat.lastSnapshotIndex */\n      0x00\n      add\n        /* \"work_lp.sol\":6868:6914  seat.lastSnapshotIndex = latestSnapshotIndex() */\n      dup2\n      dup2\n      mstore\n      pop\n      pop\n        /* \"work_lp.sol\":6950:6954  seat */\n      dup1\n        /* \"work_lp.sol\":6928:6937  directors */\n      0x0a\n        /* \"work_lp.sol\":6928:6947  directors[director] */\n      0x00\n        /* \"work_lp.sol\":6938:6946  director */\n      dup5\n        /* \"work_lp.sol\":6928:6947  directors[director] */\n      0xffffffffffffffffffffffffffffffffffffffff\n      and\n      0xffffffffffffffffffffffffffffffffffffffff\n      and\n      dup2\n      mstore\n      0x20\n      add\n      swap1\n      dup2\n      mstore\n      0x20\n      add\n      0x00\n      keccak256\n        /* \"work_lp.sol\":6928:6954  directors[director] = seat */\n      0x00\n      dup3\n      add\n      mload\n      dup2\n      0x00\n      add\n      sstore\n      0x20\n      dup3\n      add\n      mload\n      dup2\n      0x01\n      add\n      sstore\n      swap1\n      pop\n      pop\n        /* \"work_lp.sol\":6747:6965  {... */\n      pop\n        /* \"work_lp.sol\":6719:6965  if (director != address(0)) {... */\n    tag_147:\n        /* \"work_lp.sol\":5380:5381  0 */\n      0x00\n        /* \"work_lp.sol\":5371:5377  amount */\n      dup3\n        /* \"work_lp.sol\":5371:5381  amount > 0 */\n      gt\n        /* \"work_lp.sol\":5363:5403  require(amount > 0, 'Cannot withdraw 0') */\n      tag_151\n      jumpi\n      mload(0x40)\n      0x08c379a000000000000000000000000000000000000000000000000000000000\n      dup2\n      mstore\n      0x04\n      add\n      tag_152\n      swap1\n      tag_153\n      jump\t// in\n    tag_152:\n      mload(0x40)\n      dup1\n      swap2\n      sub\n      swap1\n      revert\n    tag_151:\n        /* \"work_lp.sol\":5413:5435  super.withdraw(amount) */\n      tag_154\n        /* \"work_lp.sol\":5428:5434  amount */\n      dup3\n        /* \"work_lp.sol\":5413:5427  super.withdraw */\n      tag_155\n        /* \"work_lp.sol\":5413:5435  super.withdraw(amount) */\n      jump\t// in\n    tag_154:\n        /* \"work_lp.sol\":5460:5470  msg.sender */\n      caller\n        /* \"work_lp.sol\":5450:5479  Withdrawn(msg.sender, amount) */\n      0xffffffffffffffffffffffffffffffffffffffff\n      and\n      0x7084f5476618d8e60b11ef0d7d3f06914655adb8793e28ff7f018d4c76d505d5\n        /* \"work_lp.sol\":5472:5478  amount */\n      dup4\n        /* \"work_lp.sol\":5450:5479  Withdrawn(msg.sender, amount) */\n      mload(0x40)\n      tag_156\n      swap2\n      swap1\n      tag_37\n      jump\t// in\n    tag_156:\n      mload(0x40)\n      dup1\n      swap2\n      sub\n      swap1\n      log2\n        /* \"work_lp.sol\":5278:5486  function withdraw(uint256 amount) public override updateReward(msg.sender) {... */\n      pop\n      pop\n      jump\t// out\n        /* \"work_lp.sol\":7426:7739  function getReward() public updateReward(msg.sender) {... */\n    tag_62:\n        /* \"work_lp.sol\":7467:7477  msg.sender */\n      caller\n        /* \"work_lp.sol\":6743:6744  0 */\n      0x00\n        /* \"work_lp.sol\":6723:6745  director != address(0) */\n      0xffffffffffffffffffffffffffffffffffffffff\n      and\n        /* \"work_lp.sol\":6723:6731  director */\n      dup2\n        /* \"work_lp.sol\":6723:6745  director != address(0) */\n      0xffffffffffffffffffffffffffffffffffffffff\n      and\n      eq\n        /* \"work_lp.sol\":6719:6965  if (director != address(0)) {... */\n      tag_158\n      jumpi\n        /* \"work_lp.sol\":6761:6782  Boardseat memory seat */\n      0x00\n        /* \"work_lp.sol\":6785:6794  directors */\n      0x0a\n        /* \"work_lp.sol\":6785:6804  directors[director] */\n      0x00\n        /* \"work_lp.sol\":6795:6803  director */\n      dup4\n        /* \"work_lp.sol\":6785:6804  directors[director] */\n      0xffffffffffffffffffffffffffffffffffffffff\n      and\n      0xffffffffffffffffffffffffffffffffffffffff\n      and\n      dup2\n      mstore\n      0x20\n      add\n      swap1\n      dup2\n      mstore\n      0x20\n      add\n      0x00\n      keccak256\n        /* \"work_lp.sol\":6761:6804  Boardseat memory seat = directors[director] */\n      mload(0x40)\n      dup1\n      0x40\n      add\n      0x40\n      mstore\n      swap1\n      dup2\n      0x00\n      dup3\n      add\n      sload\n      dup2\n      mstore\n      0x20\n      add\n      0x01\n      dup3\n      add\n      sload\n      dup2\n      mstore\n      pop\n      pop\n      swap1\n      pop\n        /* \"work_lp.sol\":6838:6854  earned(director) */\n      tag_159\n        /* \"work_lp.sol\":6845:6853  director */\n      dup3\n        /* \"work_lp.sol\":6838:6844  earned */\n      tag_35\n        /* \"work_lp.sol\":6838:6854  earned(director) */\n      jump\t// in\n    tag_159:\n        /* \"work_lp.sol\":6818:6822  seat */\n      dup2\n        /* \"work_lp.sol\":6818:6835  seat.rewardEarned */\n      0x20\n      add\n        /* \"work_lp.sol\":6818:6854  seat.rewardEarned = earned(director) */\n      dup2\n      dup2\n      mstore\n      pop\n      pop\n        /* \"work_lp.sol\":6893:6914  latestSnapshotIndex() */\n      tag_160\n        /* \"work_lp.sol\":6893:6912  latestSnapshotIndex */\n      tag_64\n        /* \"work_lp.sol\":6893:6914  latestSnapshotIndex() */\n      jump\t// in\n    tag_160:\n        /* \"work_lp.sol\":6868:6872  seat */\n      dup2\n        /* \"work_lp.sol\":6868:6890  seat.lastSnapshotIndex */\n      0x00\n      add\n        /* \"work_lp.sol\":6868:6914  seat.lastSnapshotIndex = latestSnapshotIndex() */\n      dup2\n      dup2\n      mstore\n      pop\n      pop\n        /* \"work_lp.sol\":6950:6954  seat */\n      dup1\n        /* \"work_lp.sol\":6928:6937  directors */\n      0x0a\n        /* \"work_lp.sol\":6928:6947  directors[director] */\n      0x00\n        /* \"work_lp.sol\":6938:6946  director */\n      dup5\n        /* \"work_lp.sol\":6928:6947  directors[director] */\n      0xffffffffffffffffffffffffffffffffffffffff\n      and\n      0xffffffffffffffffffffffffffffffffffffffff\n      and\n      dup2\n      mstore\n      0x20\n      add\n      swap1\n      dup2\n      mstore\n      0x20\n      add\n      0x00\n      keccak256\n        /* \"work_lp.sol\":6928:6954  directors[director] = seat */\n      0x00\n      dup3\n      add\n      mload\n      dup2\n      0x00\n      add\n      sstore\n      0x20\n      dup3\n      add\n      mload\n      dup2\n      0x01\n      add\n      sstore\n      swap1\n      pop\n      pop\n        /* \"work_lp.sol\":6747:6965  {... */\n      pop\n        /* \"work_lp.sol\":6719:6965  if (director != address(0)) {... */\n    tag_158:\n        /* \"work_lp.sol\":7489:7503  uint256 reward */\n      0x00\n        /* \"work_lp.sol\":7506:7515  directors */\n      0x0a\n        /* \"work_lp.sol\":7506:7527  directors[msg.sender] */\n      0x00\n        /* \"work_lp.sol\":7516:7526  msg.sender */\n      caller\n        /* \"work_lp.sol\":7506:7527  directors[msg.sender] */\n      0xffffffffffffffffffffffffffffffffffffffff\n      and\n      0xffffffffffffffffffffffffffffffffffffffff\n      and\n      dup2\n      mstore\n      0x20\n      add\n      swap1\n      dup2\n      mstore\n      0x20\n      add\n      0x00\n      keccak256\n        /* \"work_lp.sol\":7506:7540  directors[msg.sender].rewardEarned */\n      0x01\n      add\n      sload\n        /* \"work_lp.sol\":7489:7540  uint256 reward = directors[msg.sender].rewardEarned */\n      swap1\n      pop\n        /* \"work_lp.sol\":7563:7564  0 */\n      0x00\n        /* \"work_lp.sol\":7554:7560  reward */\n      dup2\n        /* \"work_lp.sol\":7554:7564  reward > 0 */\n      gt\n        /* \"work_lp.sol\":7550:7733  if (reward > 0) {... */\n      iszero\n      tag_162\n      jumpi\n        /* \"work_lp.sol\":7617:7618  0 */\n      0x00\n        /* \"work_lp.sol\":7580:7589  directors */\n      0x0a\n        /* \"work_lp.sol\":7580:7601  directors[msg.sender] */\n      0x00\n        /* \"work_lp.sol\":7590:7600  msg.sender */\n      caller\n        /* \"work_lp.sol\":7580:7601  directors[msg.sender] */\n      0xffffffffffffffffffffffffffffffffffffffff\n      and\n      0xffffffffffffffffffffffffffffffffffffffff\n      and\n      dup2\n      mstore\n      0x20\n      add\n      swap1\n      dup2\n      mstore\n      0x20\n      add\n      0x00\n      keccak256\n        /* \"work_lp.sol\":7580:7614  directors[msg.sender].rewardEarned */\n      0x01\n      add\n        /* \"work_lp.sol\":7580:7618  directors[msg.sender].rewardEarned = 0 */\n      dup2\n      swap1\n      sstore\n      pop\n        /* \"work_lp.sol\":7632:7644  _rewardToken */\n      0x04\n      0x00\n      swap1\n      sload\n      swap1\n      0x0100\n      exp\n      swap1\n      div\n      0xffffffffffffffffffffffffffffffffffffffff\n      and\n        /* \"work_lp.sol\":7632:7653  _rewardToken.transfer */\n      0xffffffffffffffffffffffffffffffffffffffff\n      and\n      0xa9059cbb\n        /* \"work_lp.sol\":7654:7664  msg.sender */\n      caller\n        /* \"work_lp.sol\":7666:7672  reward */\n      dup4\n        /* \"work_lp.sol\":7632:7673  _rewardToken.transfer(msg.sender, reward) */\n      mload(0x40)\n      dup4\n      0xffffffff\n      and\n      0xe0\n      shl\n      dup2\n      mstore\n      0x04\n      add\n      tag_163\n      swap3\n      swap2\n      swap1\n      tag_164\n      jump\t// in\n    tag_163:\n      0x20\n      mload(0x40)\n      dup1\n      dup4\n      sub\n      dup2\n      0x00\n      dup8\n      dup1\n      extcodesize\n      iszero\n      dup1\n      iszero\n      tag_165\n      jumpi\n      0x00\n      dup1\n      revert\n    tag_165:\n      pop\n      gas\n      call\n      iszero\n      dup1\n      iszero\n      tag_167\n      jumpi\n      returndatasize\n      0x00\n      dup1\n      returndatacopy\n      revert(0x00, returndatasize)\n    tag_167:\n      pop\n      pop\n      pop\n      pop\n      mload(0x40)\n      returndatasize\n      not(0x1f)\n      0x1f\n      dup3\n      add\n      and\n      dup3\n      add\n      dup1\n      0x40\n      mstore\n      pop\n      dup2\n      add\n      swap1\n      tag_168\n      swap2\n      swap1\n      tag_169\n      jump\t// in\n    tag_168:\n      pop\n        /* \"work_lp.sol\":7703:7713  msg.sender */\n      caller\n        /* \"work_lp.sol\":7692:7722  RewardPaid(msg.sender, reward) */\n      0xffffffffffffffffffffffffffffffffffffffff\n      and\n      0xe2403640ba68fed3a2f88b7557551d1993f84b99bb10ff833f0cf8db0c5e0486\n        /* \"work_lp.sol\":7715:7721  reward */\n      dup3\n        /* \"work_lp.sol\":7692:7722  RewardPaid(msg.sender, reward) */\n      mload(0x40)\n      tag_170\n      swap2\n      swap1\n      tag_37\n      jump\t// in\n    tag_170:\n      mload(0x40)\n      dup1\n      swap2\n      sub\n      swap1\n      log2\n        /* \"work_lp.sol\":7550:7733  if (reward > 0) {... */\n    tag_162:\n        /* \"work_lp.sol\":7479:7739  {... */\n      pop\n        /* \"work_lp.sol\":7426:7739  function getReward() public updateReward(msg.sender) {... */\n      pop\n      jump\t// out\n        /* \"work_lp.sol\":5592:5703  function latestSnapshotIndex() public view returns (uint256) {... */\n    tag_64:\n        /* \"work_lp.sol\":5644:5651  uint256 */\n      0x00\n        /* \"work_lp.sol\":5670:5696  boardHistory.length.sub(1) */\n      tag_172\n        /* \"work_lp.sol\":5694:5695  1 */\n      0x01\n        /* \"work_lp.sol\":5670:5682  boardHistory */\n      0x0b\n        /* \"work_lp.sol\":5670:5689  boardHistory.length */\n      dup1\n      sload\n      swap1\n      pop\n        /* \"work_lp.sol\":5670:5693  boardHistory.length.sub */\n      tag_128\n      swap1\n        /* \"work_lp.sol\":5670:5696  boardHistory.length.sub(1) */\n      swap2\n      swap1\n      0xffffffff\n      and\n      jump\t// in\n    tag_172:\n        /* \"work_lp.sol\":5663:5696  return boardHistory.length.sub(1) */\n      swap1\n      pop\n        /* \"work_lp.sol\":5592:5703  function latestSnapshotIndex() public view returns (uint256) {... */\n      swap1\n      jump\t// out\n        /* \"work_lp.sol\":6159:6273  function rewardPerShare() public view returns (uint256) {... */\n    tag_67:\n        /* \"work_lp.sol\":6206:6213  uint256 */\n      0x00\n        /* \"work_lp.sol\":6232:6251  getLatestSnapshot() */\n      tag_174\n        /* \"work_lp.sol\":6232:6249  getLatestSnapshot */\n      tag_121\n        /* \"work_lp.sol\":6232:6251  getLatestSnapshot() */\n      jump\t// in\n    tag_174:\n        /* \"work_lp.sol\":6232:6266  getLatestSnapshot().rewardPerShare */\n      0x40\n      add\n      mload\n        /* \"work_lp.sol\":6225:6266  return getLatestSnapshot().rewardPerShare */\n      swap1\n      pop\n        /* \"work_lp.sol\":6159:6273  function rewardPerShare() public view returns (uint256) {... */\n      swap1\n      jump\t// out\n        /* \"work_lp.sol\":7745:8078  function allocateWithToken(uint256 amount) external{... */\n    tag_71:\n        /* \"work_lp.sol\":7823:7824  0 */\n      0x00\n        /* \"work_lp.sol\":7814:7820  amount */\n      dup2\n        /* \"work_lp.sol\":7814:7824  amount > 0 */\n      gt\n        /* \"work_lp.sol\":7806:7857  require(amount > 0, 'Boardroom: Cannot allocate 0') */\n      tag_176\n      jumpi\n      mload(0x40)\n      0x08c379a000000000000000000000000000000000000000000000000000000000\n      dup2\n      mstore\n      0x04\n      add\n      tag_177\n      swap1\n      tag_178\n      jump\t// in\n    tag_177:\n      mload(0x40)\n      dup1\n      swap2\n      sub\n      swap1\n      revert\n    tag_176:\n        /* \"work_lp.sol\":7886:7887  0 */\n      0x00\n        /* \"work_lp.sol\":7870:7883  totalSupply() */\n      tag_179\n        /* \"work_lp.sol\":7870:7881  totalSupply */\n      tag_48\n        /* \"work_lp.sol\":7870:7883  totalSupply() */\n      jump\t// in\n    tag_179:\n        /* \"work_lp.sol\":7870:7887  totalSupply() > 0 */\n      gt\n        /* \"work_lp.sol\":7867:8072  if(totalSupply() > 0){... */\n      iszero\n      tag_180\n      jumpi\n        /* \"work_lp.sol\":7902:7924  addNewSnapshot(amount) */\n      tag_181\n        /* \"work_lp.sol\":7917:7923  amount */\n      dup2\n        /* \"work_lp.sol\":7902:7916  addNewSnapshot */\n      tag_182\n        /* \"work_lp.sol\":7902:7924  addNewSnapshot(amount) */\n      jump\t// in\n    tag_181:\n        /* \"work_lp.sol\":7948:7949  0 */\n      0x00\n        /* \"work_lp.sol\":7941:7947  amount */\n      dup2\n        /* \"work_lp.sol\":7941:7949  amount>0 */\n      gt\n        /* \"work_lp.sol\":7938:8011  if(amount>0) _rewardToken.transferFrom(msg.sender, address(this), amount) */\n      iszero\n      tag_183\n      jumpi\n        /* \"work_lp.sol\":7951:7963  _rewardToken */\n      0x04\n      0x00\n      swap1\n      sload\n      swap1\n      0x0100\n      exp\n      swap1\n      div\n      0xffffffffffffffffffffffffffffffffffffffff\n      and\n        /* \"work_lp.sol\":7951:7976  _rewardToken.transferFrom */\n      0xffffffffffffffffffffffffffffffffffffffff\n      and\n      0x23b872dd\n        /* \"work_lp.sol\":7977:7987  msg.sender */\n      caller\n        /* \"work_lp.sol\":7997:8001  this */\n      address\n        /* \"work_lp.sol\":8004:8010  amount */\n      dup5\n        /* \"work_lp.sol\":7951:8011  _rewardToken.transferFrom(msg.sender, address(this), amount) */\n      mload(0x40)\n      dup5\n      0xffffffff\n      and\n      0xe0\n      shl\n      dup2\n      mstore\n      0x04\n      add\n      tag_184\n      swap4\n      swap3\n      swap2\n      swap1\n      tag_185\n      jump\t// in\n    tag_184:\n      0x20\n      mload(0x40)\n      dup1\n      dup4\n      sub\n      dup2\n      0x00\n      dup8\n      dup1\n      extcodesize\n      iszero\n      dup1\n      iszero\n      tag_186\n      jumpi\n      0x00\n      dup1\n      revert\n    tag_186:\n      pop\n      gas\n      call\n      iszero\n      dup1\n      iszero\n      tag_188\n      jumpi\n      returndatasize\n      0x00\n      dup1\n      returndatacopy\n      revert(0x00, returndatasize)\n    tag_188:\n      pop\n      pop\n      pop\n      pop\n      mload(0x40)\n      returndatasize\n      not(0x1f)\n      0x1f\n      dup3\n      add\n      and\n      dup3\n      add\n      dup1\n      0x40\n      mstore\n      pop\n      dup2\n      add\n      swap1\n      tag_189\n      swap2\n      swap1\n      tag_169\n      jump\t// in\n    tag_189:\n      pop\n        /* \"work_lp.sol\":7938:8011  if(amount>0) _rewardToken.transferFrom(msg.sender, address(this), amount) */\n    tag_183:\n        /* \"work_lp.sol\":8042:8052  msg.sender */\n      caller\n        /* \"work_lp.sol\":8030:8061  RewardAdded(msg.sender, amount) */\n      0xffffffffffffffffffffffffffffffffffffffff\n      and\n      0xac24935fd910bc682b5ccb1a07b718cadf8cf2f6d1404c4f3ddc3662dae40e29\n        /* \"work_lp.sol\":8054:8060  amount */\n      dup3\n        /* \"work_lp.sol\":8030:8061  RewardAdded(msg.sender, amount) */\n      mload(0x40)\n      tag_190\n      swap2\n      swap1\n      tag_37\n      jump\t// in\n    tag_190:\n      mload(0x40)\n      dup1\n      swap2\n      sub\n      swap1\n      log2\n        /* \"work_lp.sol\":7867:8072  if(totalSupply() > 0){... */\n    tag_180:\n        /* \"work_lp.sol\":7745:8078  function allocateWithToken(uint256 amount) external{... */\n      pop\n      jump\t// out\n        /* \"work_lp.sol\":3055:3163  function balanceOf(address account) public view returns (uint256) {... */\n    tag_74:\n        /* \"work_lp.sol\":3112:3119  uint256 */\n      0x00\n        /* \"work_lp.sol\":3138:3147  _balances */\n      0x02\n        /* \"work_lp.sol\":3138:3156  _balances[account] */\n      0x00\n        /* \"work_lp.sol\":3148:3155  account */\n      dup4\n        /* \"work_lp.sol\":3138:3156  _balances[account] */\n      0xffffffffffffffffffffffffffffffffffffffff\n      and\n      0xffffffffffffffffffffffffffffffffffffffff\n      and\n      dup2\n      mstore\n      0x20\n      add\n      swap1\n      dup2\n      mstore\n      0x20\n      add\n      0x00\n      keccak256\n      sload\n        /* \"work_lp.sol\":3131:3156  return _balances[account] */\n      swap1\n      pop\n        /* \"work_lp.sol\":3055:3163  function balanceOf(address account) public view returns (uint256) {... */\n      swap2\n      swap1\n      pop\n      jump\t// out\n        /* \"work_lp.sol\":5848:5988  function getLastSnapshotIndexOf(address director) public view returns (uint256){... */\n    tag_78:\n        /* \"work_lp.sol\":5919:5926  uint256 */\n      0x00\n        /* \"work_lp.sol\":5944:5953  directors */\n      0x0a\n        /* \"work_lp.sol\":5944:5963  directors[director] */\n      0x00\n        /* \"work_lp.sol\":5954:5962  director */\n      dup4\n        /* \"work_lp.sol\":5944:5963  directors[director] */\n      0xffffffffffffffffffffffffffffffffffffffff\n      and\n      0xffffffffffffffffffffffffffffffffffffffff\n      and\n      dup2\n      mstore\n      0x20\n      add\n      swap1\n      dup2\n      mstore\n      0x20\n      add\n      0x00\n      keccak256\n        /* \"work_lp.sol\":5944:5981  directors[director].lastSnapshotIndex */\n      0x00\n      add\n      sload\n        /* \"work_lp.sol\":5937:5981  return directors[director].lastSnapshotIndex */\n      swap1\n      pop\n        /* \"work_lp.sol\":5848:5988  function getLastSnapshotIndexOf(address director) public view returns (uint256){... */\n      swap2\n      swap1\n      pop\n      jump\t// out\n        /* \"@openzeppelin/contracts/access/Ownable.sol\":1831:1932  function renounceOwnership() public virtual onlyOwner {... */\n    tag_81:\n        /* \"@openzeppelin/contracts/access/Ownable.sol\":1094:1107  _checkOwner() */\n      tag_194\n        /* \"@openzeppelin/contracts/access/Ownable.sol\":1094:1105  _checkOwner */\n      tag_136\n        /* \"@openzeppelin/contracts/access/Ownable.sol\":1094:1107  _checkOwner() */\n      jump\t// in\n    tag_194:\n        /* \"@openzeppelin/contracts/access/Ownable.sol\":1895:1925  _transferOwnership(address(0)) */\n      tag_196\n        /* \"@openzeppelin/contracts/access/Ownable.sol\":1922:1923  0 */\n      0x00\n        /* \"@openzeppelin/contracts/access/Ownable.sol\":1895:1913  _transferOwnership */\n      tag_197\n        /* \"@openzeppelin/contracts/access/Ownable.sol\":1895:1925  _transferOwnership(address(0)) */\n      jump\t// in\n    tag_196:\n        /* \"@openzeppelin/contracts/access/Ownable.sol\":1831:1932  function renounceOwnership() public virtual onlyOwner {... */\n      jump\t// out\n        /* \"work_lp.sol\":2852:2870  IERC20 public _lpt */\n    tag_83:\n      0x00\n      dup1\n      sload\n      swap1\n      0x0100\n      exp\n      swap1\n      div\n      0xffffffffffffffffffffffffffffffffffffffff\n      and\n      dup2\n      jump\t// out\n        /* \"work_lp.sol\":3861:3918  mapping(address => uint256) public userRewardPerTokenPaid */\n    tag_88:\n      mstore(0x20, 0x07)\n      dup1\n      0x00\n      mstore\n      keccak256(0x00, 0x40)\n      0x00\n      swap2\n      pop\n      swap1\n      pop\n      sload\n      dup2\n      jump\t// out\n        /* \"@openzeppelin/contracts/access/Ownable.sol\":1201:1286  function owner() public view virtual returns (address) {... */\n    tag_91:\n        /* \"@openzeppelin/contracts/access/Ownable.sol\":1247:1254  address */\n      0x00\n        /* \"@openzeppelin/contracts/access/Ownable.sol\":1273:1279  _owner */\n      0x03\n      0x00\n      swap1\n      sload\n      swap1\n      0x0100\n      exp\n      swap1\n      div\n      0xffffffffffffffffffffffffffffffffffffffff\n      and\n        /* \"@openzeppelin/contracts/access/Ownable.sol\":1266:1279  return _owner */\n      swap1\n      pop\n        /* \"@openzeppelin/contracts/access/Ownable.sol\":1201:1286  function owner() public view virtual returns (address) {... */\n      swap1\n      jump\t// out\n        /* \"work_lp.sol\":8084:8285  function allocate(uint256 amount) external onlyOperator{... */\n    tag_96:\n        /* \"work_lp.sol\":4706:4715  operators */\n      0x09\n        /* \"work_lp.sol\":4706:4727  operators[msg.sender] */\n      0x00\n        /* \"work_lp.sol\":4716:4726  msg.sender */\n      caller\n        /* \"work_lp.sol\":4706:4727  operators[msg.sender] */\n      0xffffffffffffffffffffffffffffffffffffffff\n      and\n      0xffffffffffffffffffffffffffffffffffffffff\n      and\n      dup2\n      mstore\n      0x20\n      add\n      swap1\n      dup2\n      mstore\n      0x20\n      add\n      0x00\n      keccak256\n      0x00\n      swap1\n      sload\n      swap1\n      0x0100\n      exp\n      swap1\n      div\n      0xff\n      and\n        /* \"work_lp.sol\":4698:4769  require(operators[msg.sender], 'Boardroom: Caller is not the operator') */\n      tag_200\n      jumpi\n      mload(0x40)\n      0x08c379a000000000000000000000000000000000000000000000000000000000\n      dup2\n      mstore\n      0x04\n      add\n      tag_201\n      swap1\n      tag_202\n      jump\t// in\n    tag_201:\n      mload(0x40)\n      dup1\n      swap2\n      sub\n      swap1\n      revert\n    tag_200:\n        /* \"work_lp.sol\":8166:8167  0 */\n      0x00\n        /* \"work_lp.sol\":8157:8163  amount */\n      dup2\n        /* \"work_lp.sol\":8157:8167  amount > 0 */\n      gt\n        /* \"work_lp.sol\":8149:8200  require(amount > 0, 'Boardroom: Cannot allocate 0') */\n      tag_204\n      jumpi\n      mload(0x40)\n      0x08c379a000000000000000000000000000000000000000000000000000000000\n      dup2\n      mstore\n      0x04\n      add\n      tag_205\n      swap1\n      tag_178\n      jump\t// in\n    tag_205:\n      mload(0x40)\n      dup1\n      swap2\n      sub\n      swap1\n      revert\n    tag_204:\n        /* \"work_lp.sol\":8210:8232  addNewSnapshot(amount) */\n      tag_206\n        /* \"work_lp.sol\":8225:8231  amount */\n      dup2\n        /* \"work_lp.sol\":8210:8224  addNewSnapshot */\n      tag_182\n        /* \"work_lp.sol\":8210:8232  addNewSnapshot(amount) */\n      jump\t// in\n    tag_206:\n        /* \"work_lp.sol\":8259:8269  msg.sender */\n      caller\n        /* \"work_lp.sol\":8247:8278  RewardAdded(msg.sender, amount) */\n      0xffffffffffffffffffffffffffffffffffffffff\n      and\n      0xac24935fd910bc682b5ccb1a07b718cadf8cf2f6d1404c4f3ddc3662dae40e29\n        /* \"work_lp.sol\":8271:8277  amount */\n      dup3\n        /* \"work_lp.sol\":8247:8278  RewardAdded(msg.sender, amount) */\n      mload(0x40)\n      tag_207\n      swap2\n      swap1\n      tag_37\n      jump\t// in\n    tag_207:\n      mload(0x40)\n      dup1\n      swap2\n      sub\n      swap1\n      log2\n        /* \"work_lp.sol\":8084:8285  function allocate(uint256 amount) external onlyOperator{... */\n      pop\n      jump\t// out\n        /* \"work_lp.sol\":8568:8732  function withdrawForeignTokens(address token, address to, uint256 amount) onlyOwner public returns (bool) {... */\n    tag_100:\n        /* \"work_lp.sol\":8668:8672  bool */\n      0x00\n        /* \"@openzeppelin/contracts/access/Ownable.sol\":1094:1107  _checkOwner() */\n      tag_209\n        /* \"@openzeppelin/contracts/access/Ownable.sol\":1094:1105  _checkOwner */\n      tag_136\n        /* \"@openzeppelin/contracts/access/Ownable.sol\":1094:1107  _checkOwner() */\n      jump\t// in\n    tag_209:\n        /* \"work_lp.sol\":8698:8703  token */\n      dup4\n        /* \"work_lp.sol\":8691:8713  IERC20(token).transfer */\n      0xffffffffffffffffffffffffffffffffffffffff\n      and\n      0xa9059cbb\n        /* \"work_lp.sol\":8714:8716  to */\n      dup5\n        /* \"work_lp.sol\":8718:8724  amount */\n      dup5\n        /* \"work_lp.sol\":8691:8725  IERC20(token).transfer(to, amount) */\n      mload(0x40)\n      dup4\n      0xffffffff\n      and\n      0xe0\n      shl\n      dup2\n      mstore\n      0x04\n      add\n      tag_211\n      swap3\n      swap2\n      swap1\n      tag_164\n      jump\t// in\n    tag_211:\n      0x20\n      mload(0x40)\n      dup1\n      dup4\n      sub\n      dup2\n      0x00\n      dup8\n      dup1\n      extcodesize\n      iszero\n      dup1\n      iszero\n      tag_212\n      jumpi\n      0x00\n      dup1\n      revert\n    tag_212:\n      pop\n      gas\n      call\n      iszero\n      dup1\n      iszero\n      tag_214\n      jumpi\n      returndatasize\n      0x00\n      dup1\n      returndatacopy\n      revert(0x00, returndatasize)\n    tag_214:\n      pop\n      pop\n      pop\n      pop\n      mload(0x40)\n      returndatasize\n      not(0x1f)\n      0x1f\n      dup3\n      add\n      and\n      dup3\n      add\n      dup1\n      0x40\n      mstore\n      pop\n      dup2\n      add\n      swap1\n      tag_215\n      swap2\n      swap1\n      tag_169\n      jump\t// in\n    tag_215:\n        /* \"work_lp.sol\":8684:8725  return IERC20(token).transfer(to, amount) */\n      swap1\n      pop\n        /* \"work_lp.sol\":8568:8732  function withdrawForeignTokens(address token, address to, uint256 amount) onlyOwner public returns (bool) {... */\n      swap4\n      swap3\n      pop\n      pop\n      pop\n      jump\t// out\n        /* \"work_lp.sol\":5076:5272  function stake(uint256 amount) public override updateReward(msg.sender) {... */\n    tag_104:\n        /* \"work_lp.sol\":5136:5146  msg.sender */\n      caller\n        /* \"work_lp.sol\":6743:6744  0 */\n      0x00\n        /* \"work_lp.sol\":6723:6745  director != address(0) */\n      0xffffffffffffffffffffffffffffffffffffffff\n      and\n        /* \"work_lp.sol\":6723:6731  director */\n      dup2\n        /* \"work_lp.sol\":6723:6745  director != address(0) */\n      0xffffffffffffffffffffffffffffffffffffffff\n      and\n      eq\n        /* \"work_lp.sol\":6719:6965  if (director != address(0)) {... */\n      tag_217\n      jumpi\n        /* \"work_lp.sol\":6761:6782  Boardseat memory seat */\n      0x00\n        /* \"work_lp.sol\":6785:6794  directors */\n      0x0a\n        /* \"work_lp.sol\":6785:6804  directors[director] */\n      0x00\n        /* \"work_lp.sol\":6795:6803  director */\n      dup4\n        /* \"work_lp.sol\":6785:6804  directors[director] */\n      0xffffffffffffffffffffffffffffffffffffffff\n      and\n      0xffffffffffffffffffffffffffffffffffffffff\n      and\n      dup2\n      mstore\n      0x20\n      add\n      swap1\n      dup2\n      mstore\n      0x20\n      add\n      0x00\n      keccak256\n        /* \"work_lp.sol\":6761:6804  Boardseat memory seat = directors[director] */\n      mload(0x40)\n      dup1\n      0x40\n      add\n      0x40\n      mstore\n      swap1\n      dup2\n      0x00\n      dup3\n      add\n      sload\n      dup2\n      mstore\n      0x20\n      add\n      0x01\n      dup3\n      add\n      sload\n      dup2\n      mstore\n      pop\n      pop\n      swap1\n      pop\n        /* \"work_lp.sol\":6838:6854  earned(director) */\n      tag_218\n        /* \"work_lp.sol\":6845:6853  director */\n      dup3\n        /* \"work_lp.sol\":6838:6844  earned */\n      tag_35\n        /* \"work_lp.sol\":6838:6854  earned(director) */\n      jump\t// in\n    tag_218:\n        /* \"work_lp.sol\":6818:6822  seat */\n      dup2\n        /* \"work_lp.sol\":6818:6835  seat.rewardEarned */\n      0x20\n      add\n        /* \"work_lp.sol\":6818:6854  seat.rewardEarned = earned(director) */\n      dup2\n      dup2\n      mstore\n      pop\n      pop\n        /* \"work_lp.sol\":6893:6914  latestSnapshotIndex() */\n      tag_219\n        /* \"work_lp.sol\":6893:6912  latestSnapshotIndex */\n      tag_64\n        /* \"work_lp.sol\":6893:6914  latestSnapshotIndex() */\n      jump\t// in\n    tag_219:\n        /* \"work_lp.sol\":6868:6872  seat */\n      dup2\n        /* \"work_lp.sol\":6868:6890  seat.lastSnapshotIndex */\n      0x00\n      add\n        /* \"work_lp.sol\":6868:6914  seat.lastSnapshotIndex = latestSnapshotIndex() */\n      dup2\n      dup2\n      mstore\n      pop\n      pop\n        /* \"work_lp.sol\":6950:6954  seat */\n      dup1\n        /* \"work_lp.sol\":6928:6937  directors */\n      0x0a\n        /* \"work_lp.sol\":6928:6947  directors[director] */\n      0x00\n        /* \"work_lp.sol\":6938:6946  director */\n      dup5\n        /* \"work_lp.sol\":6928:6947  directors[director] */\n      0xffffffffffffffffffffffffffffffffffffffff\n      and\n      0xffffffffffffffffffffffffffffffffffffffff\n      and\n      dup2\n      mstore\n      0x20\n      add\n      swap1\n      dup2\n      mstore\n      0x20\n      add\n      0x00\n      keccak256\n        /* \"work_lp.sol\":6928:6954  directors[director] = seat */\n      0x00\n      dup3\n      add\n      mload\n      dup2\n      0x00\n      add\n      sstore\n      0x20\n      dup3\n      add\n      mload\n      dup2\n      0x01\n      add\n      sstore\n      swap1\n      pop\n      pop\n        /* \"work_lp.sol\":6747:6965  {... */\n      pop\n        /* \"work_lp.sol\":6719:6965  if (director != address(0)) {... */\n    tag_217:\n        /* \"work_lp.sol\":5175:5176  0 */\n      0x00\n        /* \"work_lp.sol\":5166:5172  amount */\n      dup3\n        /* \"work_lp.sol\":5166:5176  amount > 0 */\n      gt\n        /* \"work_lp.sol\":5158:5195  require(amount > 0, 'Cannot stake 0') */\n      tag_221\n      jumpi\n      mload(0x40)\n      0x08c379a000000000000000000000000000000000000000000000000000000000\n      dup2\n      mstore\n      0x04\n      add\n      tag_222\n      swap1\n      tag_223\n      jump\t// in\n    tag_222:\n      mload(0x40)\n      dup1\n      swap2\n      sub\n      swap1\n      revert\n    tag_221:\n        /* \"work_lp.sol\":5205:5224  super.stake(amount) */\n      tag_224\n        /* \"work_lp.sol\":5217:5223  amount */\n      dup3\n        /* \"work_lp.sol\":5205:5216  super.stake */\n      tag_225\n        /* \"work_lp.sol\":5205:5224  super.stake(amount) */\n      jump\t// in\n    tag_224:\n        /* \"work_lp.sol\":5246:5256  msg.sender */\n      caller\n        /* \"work_lp.sol\":5239:5265  Staked(msg.sender, amount) */\n      0xffffffffffffffffffffffffffffffffffffffff\n      and\n      0x9e71bc8eea02a63969f509818f2dafb9254532904319f9dbda79b67bd34a5f3d\n        /* \"work_lp.sol\":5258:5264  amount */\n      dup4\n        /* \"work_lp.sol\":5239:5265  Staked(msg.sender, amount) */\n      mload(0x40)\n      tag_226\n      swap2\n      swap1\n      tag_37\n      jump\t// in\n    tag_226:\n      mload(0x40)\n      dup1\n      swap2\n      sub\n      swap1\n      log2\n        /* \"work_lp.sol\":5076:5272  function stake(uint256 amount) public override updateReward(msg.sender) {... */\n      pop\n      pop\n      jump\t// out\n        /* \"work_lp.sol\":3705:3731  IERC20 public _rewardToken */\n    tag_106:\n      0x04\n      0x00\n      swap1\n      sload\n      swap1\n      0x0100\n      exp\n      swap1\n      div\n      0xffffffffffffffffffffffffffffffffffffffff\n      and\n      dup2\n      jump\t// out\n        /* \"work_lp.sol\":3785:3814  uint256 public lastUpdateTime */\n    tag_109:\n      sload(0x05)\n      dup2\n      jump\t// out\n        /* \"work_lp.sol\":3820:3855  uint256 public rewardPerTokenStored */\n    tag_112:\n      sload(0x06)\n      dup2\n      jump\t// out\n        /* \"work_lp.sol\":5492:5586  function exit() external {... */\n    tag_115:\n        /* \"work_lp.sol\":5527:5558  withdraw(balanceOf(msg.sender)) */\n      tag_228\n        /* \"work_lp.sol\":5536:5557  balanceOf(msg.sender) */\n      tag_229\n        /* \"work_lp.sol\":5546:5556  msg.sender */\n      caller\n        /* \"work_lp.sol\":5536:5545  balanceOf */\n      tag_74\n        /* \"work_lp.sol\":5536:5557  balanceOf(msg.sender) */\n      jump\t// in\n    tag_229:\n        /* \"work_lp.sol\":5527:5535  withdraw */\n      tag_60\n        /* \"work_lp.sol\":5527:5558  withdraw(balanceOf(msg.sender)) */\n      jump\t// in\n    tag_228:\n        /* \"work_lp.sol\":5568:5579  getReward() */\n      tag_230\n        /* \"work_lp.sol\":5568:5577  getReward */\n      tag_62\n        /* \"work_lp.sol\":5568:5579  getReward() */\n      jump\t// in\n    tag_230:\n        /* \"work_lp.sol\":5492:5586  function exit() external {... */\n      jump\t// out\n        /* \"@openzeppelin/contracts/access/Ownable.sol\":2081:2279  function transferOwnership(address newOwner) public virtual onlyOwner {... */\n    tag_118:\n        /* \"@openzeppelin/contracts/access/Ownable.sol\":1094:1107  _checkOwner() */\n      tag_232\n        /* \"@openzeppelin/contracts/access/Ownable.sol\":1094:1105  _checkOwner */\n      tag_136\n        /* \"@openzeppelin/contracts/access/Ownable.sol\":1094:1107  _checkOwner() */\n      jump\t// in\n    tag_232:\n        /* \"@openzeppelin/contracts/access/Ownable.sol\":2189:2190  0 */\n      0x00\n        /* \"@openzeppelin/contracts/access/Ownable.sol\":2169:2191  newOwner != address(0) */\n      0xffffffffffffffffffffffffffffffffffffffff\n      and\n        /* \"@openzeppelin/contracts/access/Ownable.sol\":2169:2177  newOwner */\n      dup2\n        /* \"@openzeppelin/contracts/access/Ownable.sol\":2169:2191  newOwner != address(0) */\n      0xffffffffffffffffffffffffffffffffffffffff\n      and\n      eq\n      iszero\n        /* \"@openzeppelin/contracts/access/Ownable.sol\":2161:2234  require(newOwner != address(0), \"Ownable: new owner is the zero address\") */\n      tag_234\n      jumpi\n      mload(0x40)\n      0x08c379a000000000000000000000000000000000000000000000000000000000\n      dup2\n      mstore\n      0x04\n      add\n      tag_235\n      swap1\n      tag_236\n      jump\t// in\n    tag_235:\n      mload(0x40)\n      dup1\n      swap2\n      sub\n      swap1\n      revert\n    tag_234:\n        /* \"@openzeppelin/contracts/access/Ownable.sol\":2244:2272  _transferOwnership(newOwner) */\n      tag_237\n        /* \"@openzeppelin/contracts/access/Ownable.sol\":2263:2271  newOwner */\n      dup2\n        /* \"@openzeppelin/contracts/access/Ownable.sol\":2244:2262  _transferOwnership */\n      tag_197\n        /* \"@openzeppelin/contracts/access/Ownable.sol\":2244:2272  _transferOwnership(newOwner) */\n      jump\t// in\n    tag_237:\n        /* \"@openzeppelin/contracts/access/Ownable.sol\":2081:2279  function transferOwnership(address newOwner) public virtual onlyOwner {... */\n      pop\n      jump\t// out\n        /* \"work_lp.sol\":5709:5842  function getLatestSnapshot() internal view returns (BoardSnapshot memory) {... */\n    tag_121:\n        /* \"work_lp.sol\":5761:5781  BoardSnapshot memory */\n      tag_238\n      tag_239\n      jump\t// in\n    tag_238:\n        /* \"work_lp.sol\":5800:5812  boardHistory */\n      0x0b\n        /* \"work_lp.sol\":5813:5834  latestSnapshotIndex() */\n      tag_241\n        /* \"work_lp.sol\":5813:5832  latestSnapshotIndex */\n      tag_64\n        /* \"work_lp.sol\":5813:5834  latestSnapshotIndex() */\n      jump\t// in\n    tag_241:\n        /* \"work_lp.sol\":5800:5835  boardHistory[latestSnapshotIndex()] */\n      dup2\n      sload\n      dup2\n      lt\n      tag_242\n      jumpi\n      tag_243\n      tag_143\n      jump\t// in\n    tag_243:\n    tag_242:\n      swap1\n      0x00\n      mstore\n      keccak256(0x00, 0x20)\n      swap1\n      0x03\n      mul\n      add\n        /* \"work_lp.sol\":5793:5835  return boardHistory[latestSnapshotIndex()] */\n      mload(0x40)\n      dup1\n      0x60\n      add\n      0x40\n      mstore\n      swap1\n      dup2\n      0x00\n      dup3\n      add\n      sload\n      dup2\n      mstore\n      0x20\n      add\n      0x01\n      dup3\n      add\n      sload\n      dup2\n      mstore\n      0x20\n      add\n      0x02\n      dup3\n      add\n      sload\n      dup2\n      mstore\n      pop\n      pop\n      swap1\n      pop\n        /* \"work_lp.sol\":5709:5842  function getLatestSnapshot() internal view returns (BoardSnapshot memory) {... */\n      swap1\n      jump\t// out\n        /* \"work_lp.sol\":5994:6153  function getLastSnapshotOf(address director)internal view returns (BoardSnapshot memory) {... */\n    tag_123:\n        /* \"work_lp.sol\":6061:6081  BoardSnapshot memory */\n      tag_245\n      tag_239\n      jump\t// in\n    tag_245:\n        /* \"work_lp.sol\":6100:6112  boardHistory */\n      0x0b\n        /* \"work_lp.sol\":6113:6145  getLastSnapshotIndexOf(director) */\n      tag_247\n        /* \"work_lp.sol\":6136:6144  director */\n      dup4\n        /* \"work_lp.sol\":6113:6135  getLastSnapshotIndexOf */\n      tag_78\n        /* \"work_lp.sol\":6113:6145  getLastSnapshotIndexOf(director) */\n      jump\t// in\n    tag_247:\n        /* \"work_lp.sol\":6100:6146  boardHistory[getLastSnapshotIndexOf(director)] */\n      dup2\n      sload\n      dup2\n      lt\n      tag_248\n      jumpi\n      tag_249\n      tag_143\n      jump\t// in\n    tag_249:\n    tag_248:\n      swap1\n      0x00\n      mstore\n      keccak256(0x00, 0x20)\n      swap1\n      0x03\n      mul\n      add\n        /* \"work_lp.sol\":6093:6146  return boardHistory[getLastSnapshotIndexOf(director)] */\n      mload(0x40)\n      dup1\n      0x60\n      add\n      0x40\n      mstore\n      swap1\n      dup2\n      0x00\n      dup3\n      add\n      sload\n      dup2\n      mstore\n      0x20\n      add\n      0x01\n      dup3\n      add\n      sload\n      dup2\n      mstore\n      0x20\n      add\n      0x02\n      dup3\n      add\n      sload\n      dup2\n      mstore\n      pop\n      pop\n      swap1\n      pop\n        /* \"work_lp.sol\":5994:6153  function getLastSnapshotOf(address director)internal view returns (BoardSnapshot memory) {... */\n      swap2\n      swap1\n      pop\n      jump\t// out\n        /* \"work_lp.sol\":1241:1396  function sub(uint256 a, uint256 b) internal pure returns (uint256) {... */\n    tag_128:\n        /* \"work_lp.sol\":1299:1306  uint256 */\n      0x00\n        /* \"work_lp.sol\":1331:1332  a */\n      dup3\n        /* \"work_lp.sol\":1326:1327  b */\n      dup3\n        /* \"work_lp.sol\":1326:1332  b <= a */\n      gt\n      iszero\n        /* \"work_lp.sol\":1318:1367  require(b <= a, \"SafeMath: subtraction overflow\") */\n      tag_252\n      jumpi\n      mload(0x40)\n      0x08c379a000000000000000000000000000000000000000000000000000000000\n      dup2\n      mstore\n      0x04\n      add\n      tag_253\n      swap1\n      tag_254\n      jump\t// in\n    tag_253:\n      mload(0x40)\n      dup1\n      swap2\n      sub\n      swap1\n      revert\n    tag_252:\n        /* \"work_lp.sol\":1388:1389  b */\n      dup2\n        /* \"work_lp.sol\":1384:1385  a */\n      dup4\n        /* \"work_lp.sol\":1384:1389  a - b */\n      tag_255\n      swap2\n      swap1\n      tag_256\n      jump\t// in\n    tag_255:\n        /* \"work_lp.sol\":1377:1389  return a - b */\n      swap1\n      pop\n        /* \"work_lp.sol\":1241:1396  function sub(uint256 a, uint256 b) internal pure returns (uint256) {... */\n      swap3\n      swap2\n      pop\n      pop\n      jump\t// out\n        /* \"work_lp.sol\":1401:1616  function mul(uint256 a, uint256 b) internal pure returns (uint256) {... */\n    tag_130:\n        /* \"work_lp.sol\":1459:1466  uint256 */\n      0x00\n        /* \"work_lp.sol\":1487:1488  0 */\n      dup1\n        /* \"work_lp.sol\":1482:1483  a */\n      dup4\n        /* \"work_lp.sol\":1482:1488  a == 0 */\n      eq\n        /* \"work_lp.sol\":1478:1498  if (a == 0) return 0 */\n      iszero\n      tag_258\n      jumpi\n        /* \"work_lp.sol\":1497:1498  0 */\n      0x00\n        /* \"work_lp.sol\":1490:1498  return 0 */\n      swap1\n      pop\n      jump(tag_257)\n        /* \"work_lp.sol\":1478:1498  if (a == 0) return 0 */\n    tag_258:\n        /* \"work_lp.sol\":1508:1517  uint256 c */\n      0x00\n        /* \"work_lp.sol\":1524:1525  b */\n      dup3\n        /* \"work_lp.sol\":1520:1521  a */\n      dup5\n        /* \"work_lp.sol\":1520:1525  a * b */\n      tag_259\n      swap2\n      swap1\n      tag_260\n      jump\t// in\n    tag_259:\n        /* \"work_lp.sol\":1508:1525  uint256 c = a * b */\n      swap1\n      pop\n        /* \"work_lp.sol\":1552:1553  b */\n      dup3\n        /* \"work_lp.sol\":1547:1548  a */\n      dup5\n        /* \"work_lp.sol\":1543:1544  c */\n      dup3\n        /* \"work_lp.sol\":1543:1548  c / a */\n      tag_261\n      swap2\n      swap1\n      tag_262\n      jump\t// in\n    tag_261:\n        /* \"work_lp.sol\":1543:1553  c / a == b */\n      eq\n        /* \"work_lp.sol\":1535:1591  require(c / a == b, \"SafeMath: multiplication overflow\") */\n      tag_263\n      jumpi\n      mload(0x40)\n      0x08c379a000000000000000000000000000000000000000000000000000000000\n      dup2\n      mstore\n      0x04\n      add\n      tag_264\n      swap1\n      tag_265\n      jump\t// in\n    tag_264:\n      mload(0x40)\n      dup1\n      swap2\n      sub\n      swap1\n      revert\n    tag_263:\n        /* \"work_lp.sol\":1608:1609  c */\n      dup1\n        /* \"work_lp.sol\":1601:1609  return c */\n      swap2\n      pop\n      pop\n        /* \"work_lp.sol\":1401:1616  function mul(uint256 a, uint256 b) internal pure returns (uint256) {... */\n    tag_257:\n      swap3\n      swap2\n      pop\n      pop\n      jump\t// out\n        /* \"work_lp.sol\":1621:1771  function div(uint256 a, uint256 b) internal pure returns (uint256) {... */\n    tag_131:\n        /* \"work_lp.sol\":1679:1686  uint256 */\n      0x00\n        /* \"work_lp.sol\":1710:1711  0 */\n      dup1\n        /* \"work_lp.sol\":1706:1707  b */\n      dup3\n        /* \"work_lp.sol\":1706:1711  b > 0 */\n      gt\n        /* \"work_lp.sol\":1698:1742  require(b > 0, \"SafeMath: division by zero\") */\n      tag_267\n      jumpi\n      mload(0x40)\n      0x08c379a000000000000000000000000000000000000000000000000000000000\n      dup2\n      mstore\n      0x04\n      add\n      tag_268\n      swap1\n      tag_269\n      jump\t// in\n    tag_268:\n      mload(0x40)\n      dup1\n      swap2\n      sub\n      swap1\n      revert\n    tag_267:\n        /* \"work_lp.sol\":1763:1764  b */\n      dup2\n        /* \"work_lp.sol\":1759:1760  a */\n      dup4\n        /* \"work_lp.sol\":1759:1764  a / b */\n      tag_270\n      swap2\n      swap1\n      tag_262\n      jump\t// in\n    tag_270:\n        /* \"work_lp.sol\":1752:1764  return a / b */\n      swap1\n      pop\n        /* \"work_lp.sol\":1621:1771  function div(uint256 a, uint256 b) internal pure returns (uint256) {... */\n      swap3\n      swap2\n      pop\n      pop\n      jump\t// out\n        /* \"work_lp.sol\":1061:1236  function add(uint256 a, uint256 b) internal pure returns (uint256) {... */\n    tag_132:\n        /* \"work_lp.sol\":1119:1126  uint256 */\n      0x00\n        /* \"work_lp.sol\":1138:1147  uint256 c */\n      dup1\n        /* \"work_lp.sol\":1154:1155  b */\n      dup3\n        /* \"work_lp.sol\":1150:1151  a */\n      dup5\n        /* \"work_lp.sol\":1150:1155  a + b */\n      tag_272\n      swap2\n      swap1\n      tag_273\n      jump\t// in\n    tag_272:\n        /* \"work_lp.sol\":1138:1155  uint256 c = a + b */\n      swap1\n      pop\n        /* \"work_lp.sol\":1178:1179  a */\n      dup4\n        /* \"work_lp.sol\":1173:1174  c */\n      dup2\n        /* \"work_lp.sol\":1173:1179  c >= a */\n      lt\n      iszero\n        /* \"work_lp.sol\":1165:1211  require(c >= a, \"SafeMath: addition overflow\") */\n      tag_274\n      jumpi\n      mload(0x40)\n      0x08c379a000000000000000000000000000000000000000000000000000000000\n      dup2\n      mstore\n      0x04\n      add\n      tag_275\n      swap1\n      tag_276\n      jump\t// in\n    tag_275:\n      mload(0x40)\n      dup1\n      swap2\n      sub\n      swap1\n      revert\n    tag_274:\n        /* \"work_lp.sol\":1228:1229  c */\n      dup1\n        /* \"work_lp.sol\":1221:1229  return c */\n      swap2\n      pop\n      pop\n        /* \"work_lp.sol\":1061:1236  function add(uint256 a, uint256 b) internal pure returns (uint256) {... */\n      swap3\n      swap2\n      pop\n      pop\n      jump\t// out\n        /* \"@openzeppelin/contracts/access/Ownable.sol\":1359:1489  function _checkOwner() internal view virtual {... */\n    tag_136:\n        /* \"@openzeppelin/contracts/access/Ownable.sol\":1433:1445  _msgSender() */\n      tag_278\n        /* \"@openzeppelin/contracts/access/Ownable.sol\":1433:1443  _msgSender */\n      tag_279\n        /* \"@openzeppelin/contracts/access/Ownable.sol\":1433:1445  _msgSender() */\n      jump\t// in\n    tag_278:\n        /* \"@openzeppelin/contracts/access/Ownable.sol\":1422:1445  owner() == _msgSender() */\n      0xffffffffffffffffffffffffffffffffffffffff\n      and\n        /* \"@openzeppelin/contracts/access/Ownable.sol\":1422:1429  owner() */\n      tag_280\n        /* \"@openzeppelin/contracts/access/Ownable.sol\":1422:1427  owner */\n      tag_91\n        /* \"@openzeppelin/contracts/access/Ownable.sol\":1422:1429  owner() */\n      jump\t// in\n    tag_280:\n        /* \"@openzeppelin/contracts/access/Ownable.sol\":1422:1445  owner() == _msgSender() */\n      0xffffffffffffffffffffffffffffffffffffffff\n      and\n      eq\n        /* \"@openzeppelin/contracts/access/Ownable.sol\":1414:1482  require(owner() == _msgSender(), \"Ownable: caller is not the owner\") */\n      tag_281\n      jumpi\n      mload(0x40)\n      0x08c379a000000000000000000000000000000000000000000000000000000000\n      dup2\n      mstore\n      0x04\n      add\n      tag_282\n      swap1\n      tag_283\n      jump\t// in\n    tag_282:\n      mload(0x40)\n      dup1\n      swap2\n      sub\n      swap1\n      revert\n    tag_281:\n        /* \"@openzeppelin/contracts/access/Ownable.sol\":1359:1489  function _checkOwner() internal view virtual {... */\n      jump\t// out\n        /* \"work_lp.sol\":3404:3619  function withdraw(uint256 amount) public virtual {... */\n    tag_155:\n        /* \"work_lp.sol\":3478:3502  _totalSupply.sub(amount) */\n      tag_285\n        /* \"work_lp.sol\":3495:3501  amount */\n      dup2\n        /* \"work_lp.sol\":3478:3490  _totalSupply */\n      sload(0x01)\n        /* \"work_lp.sol\":3478:3494  _totalSupply.sub */\n      tag_128\n      swap1\n        /* \"work_lp.sol\":3478:3502  _totalSupply.sub(amount) */\n      swap2\n      swap1\n      0xffffffff\n      and\n      jump\t// in\n    tag_285:\n        /* \"work_lp.sol\":3463:3475  _totalSupply */\n      0x01\n        /* \"work_lp.sol\":3463:3502  _totalSupply = _totalSupply.sub(amount) */\n      dup2\n      swap1\n      sstore\n      pop\n        /* \"work_lp.sol\":3536:3569  _balances[msg.sender].sub(amount) */\n      tag_286\n        /* \"work_lp.sol\":3562:3568  amount */\n      dup2\n        /* \"work_lp.sol\":3536:3545  _balances */\n      0x02\n        /* \"work_lp.sol\":3536:3557  _balances[msg.sender] */\n      0x00\n        /* \"work_lp.sol\":3546:3556  msg.sender */\n      caller\n        /* \"work_lp.sol\":3536:3557  _balances[msg.sender] */\n      0xffffffffffffffffffffffffffffffffffffffff\n      and\n      0xffffffffffffffffffffffffffffffffffffffff\n      and\n      dup2\n      mstore\n      0x20\n      add\n      swap1\n      dup2\n      mstore\n      0x20\n      add\n      0x00\n      keccak256\n      sload\n        /* \"work_lp.sol\":3536:3561  _balances[msg.sender].sub */\n      tag_128\n      swap1\n        /* \"work_lp.sol\":3536:3569  _balances[msg.sender].sub(amount) */\n      swap2\n      swap1\n      0xffffffff\n      and\n      jump\t// in\n    tag_286:\n        /* \"work_lp.sol\":3512:3521  _balances */\n      0x02\n        /* \"work_lp.sol\":3512:3533  _balances[msg.sender] */\n      0x00\n        /* \"work_lp.sol\":3522:3532  msg.sender */\n      caller\n        /* \"work_lp.sol\":3512:3533  _balances[msg.sender] */\n      0xffffffffffffffffffffffffffffffffffffffff\n      and\n      0xffffffffffffffffffffffffffffffffffffffff\n      and\n      dup2\n      mstore\n      0x20\n      add\n      swap1\n      dup2\n      mstore\n      0x20\n      add\n      0x00\n      keccak256\n        /* \"work_lp.sol\":3512:3569  _balances[msg.sender] = _balances[msg.sender].sub(amount) */\n      dup2\n      swap1\n      sstore\n      pop\n        /* \"work_lp.sol\":3579:3583  _lpt */\n      0x00\n      dup1\n      sload\n      swap1\n      0x0100\n      exp\n      swap1\n      div\n      0xffffffffffffffffffffffffffffffffffffffff\n      and\n        /* \"work_lp.sol\":3579:3592  _lpt.transfer */\n      0xffffffffffffffffffffffffffffffffffffffff\n      and\n      0xa9059cbb\n        /* \"work_lp.sol\":3593:3603  msg.sender */\n      caller\n        /* \"work_lp.sol\":3605:3611  amount */\n      dup4\n        /* \"work_lp.sol\":3579:3612  _lpt.transfer(msg.sender, amount) */\n      mload(0x40)\n      dup4\n      0xffffffff\n      and\n      0xe0\n      shl\n      dup2\n      mstore\n      0x04\n      add\n      tag_287\n      swap3\n      swap2\n      swap1\n      tag_164\n      jump\t// in\n    tag_287:\n      0x20\n      mload(0x40)\n      dup1\n      dup4\n      sub\n      dup2\n      0x00\n      dup8\n      dup1\n      extcodesize\n      iszero\n      dup1\n      iszero\n      tag_288\n      jumpi\n      0x00\n      dup1\n      revert\n    tag_288:\n      pop\n      gas\n      call\n      iszero\n      dup1\n      iszero\n      tag_290\n      jumpi\n      returndatasize\n      0x00\n      dup1\n      returndatacopy\n      revert(0x00, returndatasize)\n    tag_290:\n      pop\n      pop\n      pop\n      pop\n      mload(0x40)\n      returndatasize\n      not(0x1f)\n      0x1f\n      dup3\n      add\n      and\n      dup3\n      add\n      dup1\n      0x40\n      mstore\n      pop\n      dup2\n      add\n      swap1\n      tag_291\n      swap2\n      swap1\n      tag_169\n      jump\t// in\n    tag_291:\n      pop\n        /* \"work_lp.sol\":3404:3619  function withdraw(uint256 amount) public virtual {... */\n      pop\n      jump\t// out\n        /* \"work_lp.sol\":6988:7420  function addNewSnapshot(uint256 amount) private{... */\n    tag_182:\n        /* \"work_lp.sol\":7082:7097  uint256 prevRPS */\n      0x00\n        /* \"work_lp.sol\":7100:7119  getLatestSnapshot() */\n      tag_293\n        /* \"work_lp.sol\":7100:7117  getLatestSnapshot */\n      tag_121\n        /* \"work_lp.sol\":7100:7119  getLatestSnapshot() */\n      jump\t// in\n    tag_293:\n        /* \"work_lp.sol\":7100:7134  getLatestSnapshot().rewardPerShare */\n      0x40\n      add\n      mload\n        /* \"work_lp.sol\":7082:7134  uint256 prevRPS = getLatestSnapshot().rewardPerShare */\n      swap1\n      pop\n        /* \"work_lp.sol\":7144:7159  uint256 nextRPS */\n      0x00\n        /* \"work_lp.sol\":7162:7210  prevRPS.add(amount.mul(1e18).div(totalSupply())) */\n      tag_294\n        /* \"work_lp.sol\":7174:7209  amount.mul(1e18).div(totalSupply()) */\n      tag_295\n        /* \"work_lp.sol\":7195:7208  totalSupply() */\n      tag_296\n        /* \"work_lp.sol\":7195:7206  totalSupply */\n      tag_48\n        /* \"work_lp.sol\":7195:7208  totalSupply() */\n      jump\t// in\n    tag_296:\n        /* \"work_lp.sol\":7174:7190  amount.mul(1e18) */\n      tag_297\n        /* \"work_lp.sol\":7185:7189  1e18 */\n      0x0de0b6b3a7640000\n        /* \"work_lp.sol\":7174:7180  amount */\n      dup8\n        /* \"work_lp.sol\":7174:7184  amount.mul */\n      tag_130\n      swap1\n        /* \"work_lp.sol\":7174:7190  amount.mul(1e18) */\n      swap2\n      swap1\n      0xffffffff\n      and\n      jump\t// in\n    tag_297:\n        /* \"work_lp.sol\":7174:7194  amount.mul(1e18).div */\n      tag_131\n      swap1\n        /* \"work_lp.sol\":7174:7209  amount.mul(1e18).div(totalSupply()) */\n      swap2\n      swap1\n      0xffffffff\n      and\n      jump\t// in\n    tag_295:\n        /* \"work_lp.sol\":7162:7169  prevRPS */\n      dup4\n        /* \"work_lp.sol\":7162:7173  prevRPS.add */\n      tag_132\n      swap1\n        /* \"work_lp.sol\":7162:7210  prevRPS.add(amount.mul(1e18).div(totalSupply())) */\n      swap2\n      swap1\n      0xffffffff\n      and\n      jump\t// in\n    tag_294:\n        /* \"work_lp.sol\":7144:7210  uint256 nextRPS = prevRPS.add(amount.mul(1e18).div(totalSupply())) */\n      swap1\n      pop\n        /* \"work_lp.sol\":7220:7252  BoardSnapshot memory newSnapshot */\n      0x00\n        /* \"work_lp.sol\":7255:7373  BoardSnapshot({... */\n      mload(0x40)\n      dup1\n      0x60\n      add\n      0x40\n      mstore\n      dup1\n        /* \"work_lp.sol\":7285:7297  block.number */\n      number\n        /* \"work_lp.sol\":7255:7373  BoardSnapshot({... */\n      dup2\n      mstore\n      0x20\n      add\n        /* \"work_lp.sol\":7323:7329  amount */\n      dup6\n        /* \"work_lp.sol\":7255:7373  BoardSnapshot({... */\n      dup2\n      mstore\n      0x20\n      add\n        /* \"work_lp.sol\":7355:7362  nextRPS */\n      dup4\n        /* \"work_lp.sol\":7255:7373  BoardSnapshot({... */\n      dup2\n      mstore\n      pop\n        /* \"work_lp.sol\":7220:7373  BoardSnapshot memory newSnapshot = BoardSnapshot({... */\n      swap1\n      pop\n        /* \"work_lp.sol\":7383:7395  boardHistory */\n      0x0b\n        /* \"work_lp.sol\":7401:7412  newSnapshot */\n      dup2\n        /* \"work_lp.sol\":7383:7413  boardHistory.push(newSnapshot) */\n      swap1\n      dup1\n      0x01\n      dup2\n      sload\n      add\n      dup1\n      dup3\n      sstore\n      dup1\n      swap2\n      pop\n      pop\n      0x01\n      swap1\n      sub\n      swap1\n      0x00\n      mstore\n      keccak256(0x00, 0x20)\n      swap1\n      0x03\n      mul\n      add\n      0x00\n      swap1\n      swap2\n      swap1\n      swap2\n      swap1\n      swap2\n      pop\n      0x00\n      dup3\n      add\n      mload\n      dup2\n      0x00\n      add\n      sstore\n      0x20\n      dup3\n      add\n      mload\n      dup2\n      0x01\n      add\n      sstore\n      0x40\n      dup3\n      add\n      mload\n      dup2\n      0x02\n      add\n      sstore\n      pop\n      pop\n        /* \"work_lp.sol\":7035:7420  {... */\n      pop\n      pop\n      pop\n        /* \"work_lp.sol\":6988:7420  function addNewSnapshot(uint256 amount) private{... */\n      pop\n      jump\t// out\n        /* \"@openzeppelin/contracts/access/Ownable.sol\":2433:2620  function _transferOwnership(address newOwner) internal virtual {... */\n    tag_197:\n        /* \"@openzeppelin/contracts/access/Ownable.sol\":2506:2522  address oldOwner */\n      0x00\n        /* \"@openzeppelin/contracts/access/Ownable.sol\":2525:2531  _owner */\n      0x03\n      0x00\n      swap1\n      sload\n      swap1\n      0x0100\n      exp\n      swap1\n      div\n      0xffffffffffffffffffffffffffffffffffffffff\n      and\n        /* \"@openzeppelin/contracts/access/Ownable.sol\":2506:2531  address oldOwner = _owner */\n      swap1\n      pop\n        /* \"@openzeppelin/contracts/access/Ownable.sol\":2550:2558  newOwner */\n      dup2\n        /* \"@openzeppelin/contracts/access/Ownable.sol\":2541:2547  _owner */\n      0x03\n      0x00\n        /* \"@openzeppelin/contracts/access/Ownable.sol\":2541:2558  _owner = newOwner */\n      0x0100\n      exp\n      dup2\n      sload\n      dup2\n      0xffffffffffffffffffffffffffffffffffffffff\n      mul\n      not\n      and\n      swap1\n      dup4\n      0xffffffffffffffffffffffffffffffffffffffff\n      and\n      mul\n      or\n      swap1\n      sstore\n      pop\n        /* \"@openzeppelin/contracts/access/Ownable.sol\":2604:2612  newOwner */\n      dup2\n        /* \"@openzeppelin/contracts/access/Ownable.sol\":2573:2613  OwnershipTransferred(oldOwner, newOwner) */\n      0xffffffffffffffffffffffffffffffffffffffff\n      and\n        /* \"@openzeppelin/contracts/access/Ownable.sol\":2594:2602  oldOwner */\n      dup2\n        /* \"@openzeppelin/contracts/access/Ownable.sol\":2573:2613  OwnershipTransferred(oldOwner, newOwner) */\n      0xffffffffffffffffffffffffffffffffffffffff\n      and\n      0x8be0079c531659141344cd1fd0a4f28419497f9722a3daafe3b4186f6b6457e0\n      mload(0x40)\n      mload(0x40)\n      dup1\n      swap2\n      sub\n      swap1\n      log3\n        /* \"@openzeppelin/contracts/access/Ownable.sol\":2496:2620  {... */\n      pop\n        /* \"@openzeppelin/contracts/access/Ownable.sol\":2433:2620  function _transferOwnership(address newOwner) internal virtual {... */\n      pop\n      jump\t// out\n        /* \"work_lp.sol\":3168:3399  function stake(uint256 amount) public virtual {... */\n    tag_225:\n        /* \"work_lp.sol\":3239:3263  _totalSupply.add(amount) */\n      tag_301\n        /* \"work_lp.sol\":3256:3262  amount */\n      dup2\n        /* \"work_lp.sol\":3239:3251  _totalSupply */\n      sload(0x01)\n        /* \"work_lp.sol\":3239:3255  _totalSupply.add */\n      tag_132\n      swap1\n        /* \"work_lp.sol\":3239:3263  _totalSupply.add(amount) */\n      swap2\n      swap1\n      0xffffffff\n      and\n      jump\t// in\n    tag_301:\n        /* \"work_lp.sol\":3224:3236  _totalSupply */\n      0x01\n        /* \"work_lp.sol\":3224:3263  _totalSupply = _totalSupply.add(amount) */\n      dup2\n      swap1\n      sstore\n      pop\n        /* \"work_lp.sol\":3297:3330  _balances[msg.sender].add(amount) */\n      tag_302\n        /* \"work_lp.sol\":3323:3329  amount */\n      dup2\n        /* \"work_lp.sol\":3297:3306  _balances */\n      0x02\n        /* \"work_lp.sol\":3297:3318  _balances[msg.sender] */\n      0x00\n        /* \"work_lp.sol\":3307:3317  msg.sender */\n      caller\n        /* \"work_lp.sol\":3297:3318  _balances[msg.sender] */\n      0xffffffffffffffffffffffffffffffffffffffff\n      and\n      0xffffffffffffffffffffffffffffffffffffffff\n      and\n      dup2\n      mstore\n      0x20\n      add\n      swap1\n      dup2\n      mstore\n      0x20\n      add\n      0x00\n      keccak256\n      sload\n        /* \"work_lp.sol\":3297:3322  _balances[msg.sender].add */\n      tag_132\n      swap1\n        /* \"work_lp.sol\":3297:3330  _balances[msg.sender].add(amount) */\n      swap2\n      swap1\n      0xffffffff\n      and\n      jump\t// in\n    tag_302:\n        /* \"work_lp.sol\":3273:3282  _balances */\n      0x02\n        /* \"work_lp.sol\":3273:3294  _balances[msg.sender] */\n      0x00\n        /* \"work_lp.sol\":3283:3293  msg.sender */\n      caller\n        /* \"work_lp.sol\":3273:3294  _balances[msg.sender] */\n      0xffffffffffffffffffffffffffffffffffffffff\n      and\n      0xffffffffffffffffffffffffffffffffffffffff\n      and\n      dup2\n      mstore\n      0x20\n      add\n      swap1\n      dup2\n      mstore\n      0x20\n      add\n      0x00\n      keccak256\n        /* \"work_lp.sol\":3273:3330  _balances[msg.sender] = _balances[msg.sender].add(amount) */\n      dup2\n      swap1\n      sstore\n      pop\n        /* \"work_lp.sol\":3340:3344  _lpt */\n      0x00\n      dup1\n      sload\n      swap1\n      0x0100\n      exp\n      swap1\n      div\n      0xffffffffffffffffffffffffffffffffffffffff\n      and\n        /* \"work_lp.sol\":3340:3357  _lpt.transferFrom */\n      0xffffffffffffffffffffffffffffffffffffffff\n      and\n      0x23b872dd\n        /* \"work_lp.sol\":3358:3368  msg.sender */\n      caller\n        /* \"work_lp.sol\":3378:3382  this */\n      address\n        /* \"work_lp.sol\":3385:3391  amount */\n      dup5\n        /* \"work_lp.sol\":3340:3392  _lpt.transferFrom(msg.sender, address(this), amount) */\n      mload(0x40)\n      dup5\n      0xffffffff\n      and\n      0xe0\n      shl\n      dup2\n      mstore\n      0x04\n      add\n      tag_303\n      swap4\n      swap3\n      swap2\n      swap1\n      tag_185\n      jump\t// in\n    tag_303:\n      0x20\n      mload(0x40)\n      dup1\n      dup4\n      sub\n      dup2\n      0x00\n      dup8\n      dup1\n      extcodesize\n      iszero\n      dup1\n      iszero\n      tag_304\n      jumpi\n      0x00\n      dup1\n      revert\n    tag_304:\n      pop\n      gas\n      call\n      iszero\n      dup1\n      iszero\n      tag_306\n      jumpi\n      returndatasize\n      0x00\n      dup1\n      returndatacopy\n      revert(0x00, returndatasize)\n    tag_306:\n      pop\n      pop\n      pop\n      pop\n      mload(0x40)\n      returndatasize\n      not(0x1f)\n      0x1f\n      dup3\n      add\n      and\n      dup3\n      add\n      dup1\n      0x40\n      mstore\n      pop\n      dup2\n      add\n      swap1\n      tag_307\n      swap2\n      swap1\n      tag_169\n      jump\t// in\n    tag_307:\n      pop\n        /* \"work_lp.sol\":3168:3399  function stake(uint256 amount) public virtual {... */\n      pop\n      jump\t// out\n        /* \"@openzeppelin/contracts/utils/Context.sol\":640:736  function _msgSender() internal view virtual returns (address) {... */\n    tag_279:\n        /* \"@openzeppelin/contracts/utils/Context.sol\":693:700  address */\n      0x00\n        /* \"@openzeppelin/contracts/utils/Context.sol\":719:729  msg.sender */\n      caller\n        /* \"@openzeppelin/contracts/utils/Context.sol\":712:729  return msg.sender */\n      swap1\n      pop\n        /* \"@openzeppelin/contracts/utils/Context.sol\":640:736  function _msgSender() internal view virtual returns (address) {... */\n      swap1\n      jump\t// out\n    tag_239:\n      mload(0x40)\n      dup1\n      0x60\n      add\n      0x40\n      mstore\n      dup1\n      0x00\n      dup2\n      mstore\n      0x20\n      add\n      0x00\n      dup2\n      mstore\n      0x20\n      add\n      0x00\n      dup2\n      mstore\n      pop\n      swap1\n      jump\t// out\n        /* \"#utility.yul\":24:746   */\n    tag_310:\n        /* \"#utility.yul\":120:125   */\n      0x00\n        /* \"#utility.yul\":145:226   */\n      tag_312\n        /* \"#utility.yul\":161:225   */\n      tag_313\n        /* \"#utility.yul\":218:224   */\n      dup5\n        /* \"#utility.yul\":161:225   */\n      tag_314\n      jump\t// in\n    tag_313:\n        /* \"#utility.yul\":145:226   */\n      tag_315\n      jump\t// in\n    tag_312:\n        /* \"#utility.yul\":136:226   */\n      swap1\n      pop\n        /* \"#utility.yul\":246:251   */\n      dup1\n        /* \"#utility.yul\":275:281   */\n      dup4\n        /* \"#utility.yul\":268:273   */\n      dup3\n        /* \"#utility.yul\":261:282   */\n      mstore\n        /* \"#utility.yul\":309:313   */\n      0x20\n        /* \"#utility.yul\":302:307   */\n      dup3\n        /* \"#utility.yul\":298:314   */\n      add\n        /* \"#utility.yul\":291:314   */\n      swap1\n      pop\n        /* \"#utility.yul\":335:341   */\n      dup3\n        /* \"#utility.yul\":385:388   */\n      dup6\n        /* \"#utility.yul\":377:381   */\n      0x20\n        /* \"#utility.yul\":369:375   */\n      dup7\n        /* \"#utility.yul\":365:382   */\n      mul\n        /* \"#utility.yul\":360:363   */\n      dup3\n        /* \"#utility.yul\":356:383   */\n      add\n        /* \"#utility.yul\":353:389   */\n      gt\n        /* \"#utility.yul\":350:493   */\n      iszero\n      tag_316\n      jumpi\n        /* \"#utility.yul\":404:483   */\n      tag_317\n      tag_318\n      jump\t// in\n    tag_317:\n        /* \"#utility.yul\":350:493   */\n    tag_316:\n        /* \"#utility.yul\":517:518   */\n      0x00\n        /* \"#utility.yul\":502:740   */\n    tag_319:\n        /* \"#utility.yul\":527:533   */\n      dup6\n        /* \"#utility.yul\":524:525   */\n      dup2\n        /* \"#utility.yul\":521:534   */\n      lt\n        /* \"#utility.yul\":502:740   */\n      iszero\n      tag_321\n      jumpi\n        /* \"#utility.yul\":595:598   */\n      dup2\n        /* \"#utility.yul\":624:661   */\n      tag_322\n        /* \"#utility.yul\":657:660   */\n      dup9\n        /* \"#utility.yul\":645:655   */\n      dup3\n        /* \"#utility.yul\":624:661   */\n      tag_323\n      jump\t// in\n    tag_322:\n        /* \"#utility.yul\":619:622   */\n      dup5\n        /* \"#utility.yul\":612:662   */\n      mstore\n        /* \"#utility.yul\":691:695   */\n      0x20\n        /* \"#utility.yul\":686:689   */\n      dup5\n        /* \"#utility.yul\":682:696   */\n      add\n        /* \"#utility.yul\":675:696   */\n      swap4\n      pop\n        /* \"#utility.yul\":725:729   */\n      0x20\n        /* \"#utility.yul\":720:723   */\n      dup4\n        /* \"#utility.yul\":716:730   */\n      add\n        /* \"#utility.yul\":709:730   */\n      swap3\n      pop\n        /* \"#utility.yul\":562:740   */\n      pop\n        /* \"#utility.yul\":549:550   */\n      0x01\n        /* \"#utility.yul\":546:547   */\n      dup2\n        /* \"#utility.yul\":542:551   */\n      add\n        /* \"#utility.yul\":537:551   */\n      swap1\n      pop\n        /* \"#utility.yul\":502:740   */\n      jump(tag_319)\n    tag_321:\n        /* \"#utility.yul\":506:520   */\n      pop\n        /* \"#utility.yul\":126:746   */\n      pop\n      pop\n        /* \"#utility.yul\":24:746   */\n      swap4\n      swap3\n      pop\n      pop\n      pop\n      jump\t// out\n        /* \"#utility.yul\":752:891   */\n    tag_323:\n        /* \"#utility.yul\":798:803   */\n      0x00\n        /* \"#utility.yul\":836:842   */\n      dup2\n        /* \"#utility.yul\":823:843   */\n      calldataload\n        /* \"#utility.yul\":814:843   */\n      swap1\n      pop\n        /* \"#utility.yul\":852:885   */\n      tag_325\n        /* \"#utility.yul\":879:884   */\n      dup2\n        /* \"#utility.yul\":852:885   */\n      tag_326\n      jump\t// in\n    tag_325:\n        /* \"#utility.yul\":752:891   */\n      swap3\n      swap2\n      pop\n      pop\n      jump\t// out\n        /* \"#utility.yul\":914:1284   */\n    tag_327:\n        /* \"#utility.yul\":985:990   */\n      0x00\n        /* \"#utility.yul\":1034:1037   */\n      dup3\n        /* \"#utility.yul\":1027:1031   */\n      0x1f\n        /* \"#utility.yul\":1019:1025   */\n      dup4\n        /* \"#utility.yul\":1015:1032   */\n      add\n        /* \"#utility.yul\":1011:1038   */\n      slt\n        /* \"#utility.yul\":1001:1123   */\n      tag_329\n      jumpi\n        /* \"#utility.yul\":1042:1121   */\n      tag_330\n      tag_331\n      jump\t// in\n    tag_330:\n        /* \"#utility.yul\":1001:1123   */\n    tag_329:\n        /* \"#utility.yul\":1159:1165   */\n      dup2\n        /* \"#utility.yul\":1146:1166   */\n      calldataload\n        /* \"#utility.yul\":1184:1278   */\n      tag_332\n        /* \"#utility.yul\":1274:1277   */\n      dup5\n        /* \"#utility.yul\":1266:1272   */\n      dup3\n        /* \"#utility.yul\":1259:1263   */\n      0x20\n        /* \"#utility.yul\":1251:1257   */\n      dup7\n        /* \"#utility.yul\":1247:1264   */\n      add\n        /* \"#utility.yul\":1184:1278   */\n      tag_310\n      jump\t// in\n    tag_332:\n        /* \"#utility.yul\":1175:1278   */\n      swap2\n      pop\n        /* \"#utility.yul\":991:1284   */\n      pop\n        /* \"#utility.yul\":914:1284   */\n      swap3\n      swap2\n      pop\n      pop\n      jump\t// out\n        /* \"#utility.yul\":1290:1423   */\n    tag_333:\n        /* \"#utility.yul\":1333:1338   */\n      0x00\n        /* \"#utility.yul\":1371:1377   */\n      dup2\n        /* \"#utility.yul\":1358:1378   */\n      calldataload\n        /* \"#utility.yul\":1349:1378   */\n      swap1\n      pop\n        /* \"#utility.yul\":1387:1417   */\n      tag_335\n        /* \"#utility.yul\":1411:1416   */\n      dup2\n        /* \"#utility.yul\":1387:1417   */\n      tag_336\n      jump\t// in\n    tag_335:\n        /* \"#utility.yul\":1290:1423   */\n      swap3\n      swap2\n      pop\n      pop\n      jump\t// out\n        /* \"#utility.yul\":1429:1566   */\n    tag_337:\n        /* \"#utility.yul\":1483:1488   */\n      0x00\n        /* \"#utility.yul\":1514:1520   */\n      dup2\n        /* \"#utility.yul\":1508:1521   */\n      mload\n        /* \"#utility.yul\":1499:1521   */\n      swap1\n      pop\n        /* \"#utility.yul\":1530:1560   */\n      tag_339\n        /* \"#utility.yul\":1554:1559   */\n      dup2\n        /* \"#utility.yul\":1530:1560   */\n      tag_336\n      jump\t// in\n    tag_339:\n        /* \"#utility.yul\":1429:1566   */\n      swap3\n      swap2\n      pop\n      pop\n      jump\t// out\n        /* \"#utility.yul\":1572:1711   */\n    tag_340:\n        /* \"#utility.yul\":1618:1623   */\n      0x00\n        /* \"#utility.yul\":1656:1662   */\n      dup2\n        /* \"#utility.yul\":1643:1663   */\n      calldataload\n        /* \"#utility.yul\":1634:1663   */\n      swap1\n      pop\n        /* \"#utility.yul\":1672:1705   */\n      tag_342\n        /* \"#utility.yul\":1699:1704   */\n      dup2\n        /* \"#utility.yul\":1672:1705   */\n      tag_343\n      jump\t// in\n    tag_342:\n        /* \"#utility.yul\":1572:1711   */\n      swap3\n      swap2\n      pop\n      pop\n      jump\t// out\n        /* \"#utility.yul\":1717:2046   */\n    tag_34:\n        /* \"#utility.yul\":1776:1782   */\n      0x00\n        /* \"#utility.yul\":1825:1827   */\n      0x20\n        /* \"#utility.yul\":1813:1822   */\n      dup3\n        /* \"#utility.yul\":1804:1811   */\n      dup5\n        /* \"#utility.yul\":1800:1823   */\n      sub\n        /* \"#utility.yul\":1796:1828   */\n      slt\n        /* \"#utility.yul\":1793:1912   */\n      iszero\n      tag_345\n      jumpi\n        /* \"#utility.yul\":1831:1910   */\n      tag_346\n      tag_347\n      jump\t// in\n    tag_346:\n        /* \"#utility.yul\":1793:1912   */\n    tag_345:\n        /* \"#utility.yul\":1951:1952   */\n      0x00\n        /* \"#utility.yul\":1976:2029   */\n      tag_348\n        /* \"#utility.yul\":2021:2028   */\n      dup5\n        /* \"#utility.yul\":2012:2018   */\n      dup3\n        /* \"#utility.yul\":2001:2010   */\n      dup6\n        /* \"#utility.yul\":1997:2019   */\n      add\n        /* \"#utility.yul\":1976:2029   */\n      tag_323\n      jump\t// in\n    tag_348:\n        /* \"#utility.yul\":1966:2029   */\n      swap2\n      pop\n        /* \"#utility.yul\":1922:2039   */\n      pop\n        /* \"#utility.yul\":1717:2046   */\n      swap3\n      swap2\n      pop\n      pop\n      jump\t// out\n        /* \"#utility.yul\":2052:2671   */\n    tag_99:\n        /* \"#utility.yul\":2129:2135   */\n      0x00\n        /* \"#utility.yul\":2137:2143   */\n      dup1\n        /* \"#utility.yul\":2145:2151   */\n      0x00\n        /* \"#utility.yul\":2194:2196   */\n      0x60\n        /* \"#utility.yul\":2182:2191   */\n      dup5\n        /* \"#utility.yul\":2173:2180   */\n      dup7\n        /* \"#utility.yul\":2169:2192   */\n      sub\n        /* \"#utility.yul\":2165:2197   */\n      slt\n        /* \"#utility.yul\":2162:2281   */\n      iszero\n      tag_350\n      jumpi\n        /* \"#utility.yul\":2200:2279   */\n      tag_351\n      tag_347\n      jump\t// in\n    tag_351:\n        /* \"#utility.yul\":2162:2281   */\n    tag_350:\n        /* \"#utility.yul\":2320:2321   */\n      0x00\n        /* \"#utility.yul\":2345:2398   */\n      tag_352\n        /* \"#utility.yul\":2390:2397   */\n      dup7\n        /* \"#utility.yul\":2381:2387   */\n      dup3\n        /* \"#utility.yul\":2370:2379   */\n      dup8\n        /* \"#utility.yul\":2366:2388   */\n      add\n        /* \"#utility.yul\":2345:2398   */\n      tag_323\n      jump\t// in\n    tag_352:\n        /* \"#utility.yul\":2335:2398   */\n      swap4\n      pop\n        /* \"#utility.yul\":2291:2408   */\n      pop\n        /* \"#utility.yul\":2447:2449   */\n      0x20\n        /* \"#utility.yul\":2473:2526   */\n      tag_353\n        /* \"#utility.yul\":2518:2525   */\n      dup7\n        /* \"#utility.yul\":2509:2515   */\n      dup3\n        /* \"#utility.yul\":2498:2507   */\n      dup8\n        /* \"#utility.yul\":2494:2516   */\n      add\n        /* \"#utility.yul\":2473:2526   */\n      tag_323\n      jump\t// in\n    tag_353:\n        /* \"#utility.yul\":2463:2526   */\n      swap3\n      pop\n        /* \"#utility.yul\":2418:2536   */\n      pop\n        /* \"#utility.yul\":2575:2577   */\n      0x40\n        /* \"#utility.yul\":2601:2654   */\n      tag_354\n        /* \"#utility.yul\":2646:2653   */\n      dup7\n        /* \"#utility.yul\":2637:2643   */\n      dup3\n        /* \"#utility.yul\":2626:2635   */\n      dup8\n        /* \"#utility.yul\":2622:2644   */\n      add\n        /* \"#utility.yul\":2601:2654   */\n      tag_340\n      jump\t// in\n    tag_354:\n        /* \"#utility.yul\":2591:2654   */\n      swap2\n      pop\n        /* \"#utility.yul\":2546:2664   */\n      pop\n        /* \"#utility.yul\":2052:2671   */\n      swap3\n      pop\n      swap3\n      pop\n      swap3\n      jump\t// out\n        /* \"#utility.yul\":2677:3355   */\n    tag_55:\n        /* \"#utility.yul\":2767:2773   */\n      0x00\n        /* \"#utility.yul\":2775:2781   */\n      dup1\n        /* \"#utility.yul\":2824:2826   */\n      0x40\n        /* \"#utility.yul\":2812:2821   */\n      dup4\n        /* \"#utility.yul\":2803:2810   */\n      dup6\n        /* \"#utility.yul\":2799:2822   */\n      sub\n        /* \"#utility.yul\":2795:2827   */\n      slt\n        /* \"#utility.yul\":2792:2911   */\n      iszero\n      tag_356\n      jumpi\n        /* \"#utility.yul\":2830:2909   */\n      tag_357\n      tag_347\n      jump\t// in\n    tag_357:\n        /* \"#utility.yul\":2792:2911   */\n    tag_356:\n        /* \"#utility.yul\":2978:2979   */\n      0x00\n        /* \"#utility.yul\":2967:2976   */\n      dup4\n        /* \"#utility.yul\":2963:2980   */\n      add\n        /* \"#utility.yul\":2950:2981   */\n      calldataload\n        /* \"#utility.yul\":3008:3026   */\n      0xffffffffffffffff\n        /* \"#utility.yul\":3000:3006   */\n      dup2\n        /* \"#utility.yul\":2997:3027   */\n      gt\n        /* \"#utility.yul\":2994:3111   */\n      iszero\n      tag_358\n      jumpi\n        /* \"#utility.yul\":3030:3109   */\n      tag_359\n      tag_360\n      jump\t// in\n    tag_359:\n        /* \"#utility.yul\":2994:3111   */\n    tag_358:\n        /* \"#utility.yul\":3135:3213   */\n      tag_361\n        /* \"#utility.yul\":3205:3212   */\n      dup6\n        /* \"#utility.yul\":3196:3202   */\n      dup3\n        /* \"#utility.yul\":3185:3194   */\n      dup7\n        /* \"#utility.yul\":3181:3203   */\n      add\n        /* \"#utility.yul\":3135:3213   */\n      tag_327\n      jump\t// in\n    tag_361:\n        /* \"#utility.yul\":3125:3213   */\n      swap3\n      pop\n        /* \"#utility.yul\":2921:3223   */\n      pop\n        /* \"#utility.yul\":3262:3264   */\n      0x20\n        /* \"#utility.yul\":3288:3338   */\n      tag_362\n        /* \"#utility.yul\":3330:3337   */\n      dup6\n        /* \"#utility.yul\":3321:3327   */\n      dup3\n        /* \"#utility.yul\":3310:3319   */\n      dup7\n        /* \"#utility.yul\":3306:3328   */\n      add\n        /* \"#utility.yul\":3288:3338   */\n      tag_333\n      jump\t// in\n    tag_362:\n        /* \"#utility.yul\":3278:3338   */\n      swap2\n      pop\n        /* \"#utility.yul\":3233:3348   */\n      pop\n        /* \"#utility.yul\":2677:3355   */\n      swap3\n      pop\n      swap3\n      swap1\n      pop\n      jump\t// out\n        /* \"#utility.yul\":3361:3706   */\n    tag_169:\n        /* \"#utility.yul\":3428:3434   */\n      0x00\n        /* \"#utility.yul\":3477:3479   */\n      0x20\n        /* \"#utility.yul\":3465:3474   */\n      dup3\n        /* \"#utility.yul\":3456:3463   */\n      dup5\n        /* \"#utility.yul\":3452:3475   */\n      sub\n        /* \"#utility.yul\":3448:3480   */\n      slt\n        /* \"#utility.yul\":3445:3564   */\n      iszero\n      tag_364\n      jumpi\n        /* \"#utility.yul\":3483:3562   */\n      tag_365\n      tag_347\n      jump\t// in\n    tag_365:\n        /* \"#utility.yul\":3445:3564   */\n    tag_364:\n        /* \"#utility.yul\":3603:3604   */\n      0x00\n        /* \"#utility.yul\":3628:3689   */\n      tag_366\n        /* \"#utility.yul\":3681:3688   */\n      dup5\n        /* \"#utility.yul\":3672:3678   */\n      dup3\n        /* \"#utility.yul\":3661:3670   */\n      dup6\n        /* \"#utility.yul\":3657:3679   */\n      add\n        /* \"#utility.yul\":3628:3689   */\n      tag_337\n      jump\t// in\n    tag_366:\n        /* \"#utility.yul\":3618:3689   */\n      swap2\n      pop\n        /* \"#utility.yul\":3574:3699   */\n      pop\n        /* \"#utility.yul\":3361:3706   */\n      swap3\n      swap2\n      pop\n      pop\n      jump\t// out\n        /* \"#utility.yul\":3712:4041   */\n    tag_59:\n        /* \"#utility.yul\":3771:3777   */\n      0x00\n        /* \"#utility.yul\":3820:3822   */\n      0x20\n        /* \"#utility.yul\":3808:3817   */\n      dup3\n        /* \"#utility.yul\":3799:3806   */\n      dup5\n        /* \"#utility.yul\":3795:3818   */\n      sub\n        /* \"#utility.yul\":3791:3823   */\n      slt\n        /* \"#utility.yul\":3788:3907   */\n      iszero\n      tag_368\n      jumpi\n        /* \"#utility.yul\":3826:3905   */\n      tag_369\n      tag_347\n      jump\t// in\n    tag_369:\n        /* \"#utility.yul\":3788:3907   */\n    tag_368:\n        /* \"#utility.yul\":3946:3947   */\n      0x00\n        /* \"#utility.yul\":3971:4024   */\n      tag_370\n        /* \"#utility.yul\":4016:4023   */\n      dup5\n        /* \"#utility.yul\":4007:4013   */\n      dup3\n        /* \"#utility.yul\":3996:4005   */\n      dup6\n        /* \"#utility.yul\":3992:4014   */\n      add\n        /* \"#utility.yul\":3971:4024   */\n      tag_340\n      jump\t// in\n    tag_370:\n        /* \"#utility.yul\":3961:4024   */\n      swap2\n      pop\n        /* \"#utility.yul\":3917:4034   */\n      pop\n        /* \"#utility.yul\":3712:4041   */\n      swap3\n      swap2\n      pop\n      pop\n      jump\t// out\n        /* \"#utility.yul\":4047:4165   */\n    tag_371:\n        /* \"#utility.yul\":4134:4158   */\n      tag_373\n        /* \"#utility.yul\":4152:4157   */\n      dup2\n        /* \"#utility.yul\":4134:4158   */\n      tag_374\n      jump\t// in\n    tag_373:\n        /* \"#utility.yul\":4129:4132   */\n      dup3\n        /* \"#utility.yul\":4122:4159   */\n      mstore\n        /* \"#utility.yul\":4047:4165   */\n      pop\n      pop\n      jump\t// out\n        /* \"#utility.yul\":4171:4280   */\n    tag_375:\n        /* \"#utility.yul\":4252:4273   */\n      tag_377\n        /* \"#utility.yul\":4267:4272   */\n      dup2\n        /* \"#utility.yul\":4252:4273   */\n      tag_378\n      jump\t// in\n    tag_377:\n        /* \"#utility.yul\":4247:4250   */\n      dup3\n        /* \"#utility.yul\":4240:4274   */\n      mstore\n        /* \"#utility.yul\":4171:4280   */\n      pop\n      pop\n      jump\t// out\n        /* \"#utility.yul\":4286:4445   */\n    tag_379:\n        /* \"#utility.yul\":4387:4438   */\n      tag_381\n        /* \"#utility.yul\":4432:4437   */\n      dup2\n        /* \"#utility.yul\":4387:4438   */\n      tag_382\n      jump\t// in\n    tag_381:\n        /* \"#utility.yul\":4382:4385   */\n      dup3\n        /* \"#utility.yul\":4375:4439   */\n      mstore\n        /* \"#utility.yul\":4286:4445   */\n      pop\n      pop\n      jump\t// out\n        /* \"#utility.yul\":4451:4817   */\n    tag_383:\n        /* \"#utility.yul\":4593:4596   */\n      0x00\n        /* \"#utility.yul\":4614:4681   */\n      tag_385\n        /* \"#utility.yul\":4678:4680   */\n      0x26\n        /* \"#utility.yul\":4673:4676   */\n      dup4\n        /* \"#utility.yul\":4614:4681   */\n      tag_386\n      jump\t// in\n    tag_385:\n        /* \"#utility.yul\":4607:4681   */\n      swap2\n      pop\n        /* \"#utility.yul\":4690:4783   */\n      tag_387\n        /* \"#utility.yul\":4779:4782   */\n      dup3\n        /* \"#utility.yul\":4690:4783   */\n      tag_388\n      jump\t// in\n    tag_387:\n        /* \"#utility.yul\":4808:4810   */\n      0x40\n        /* \"#utility.yul\":4803:4806   */\n      dup3\n        /* \"#utility.yul\":4799:4811   */\n      add\n        /* \"#utility.yul\":4792:4811   */\n      swap1\n      pop\n        /* \"#utility.yul\":4451:4817   */\n      swap2\n      swap1\n      pop\n      jump\t// out\n        /* \"#utility.yul\":4823:5189   */\n    tag_389:\n        /* \"#utility.yul\":4965:4968   */\n      0x00\n        /* \"#utility.yul\":4986:5053   */\n      tag_391\n        /* \"#utility.yul\":5050:5052   */\n      0x0e\n        /* \"#utility.yul\":5045:5048   */\n      dup4\n        /* \"#utility.yul\":4986:5053   */\n      tag_386\n      jump\t// in\n    tag_391:\n        /* \"#utility.yul\":4979:5053   */\n      swap2\n      pop\n        /* \"#utility.yul\":5062:5155   */\n      tag_392\n        /* \"#utility.yul\":5151:5154   */\n      dup3\n        /* \"#utility.yul\":5062:5155   */\n      tag_393\n      jump\t// in\n    tag_392:\n        /* \"#utility.yul\":5180:5182   */\n      0x20\n        /* \"#utility.yul\":5175:5178   */\n      dup3\n        /* \"#utility.yul\":5171:5183   */\n      add\n        /* \"#utility.yul\":5164:5183   */\n      swap1\n      pop\n        /* \"#utility.yul\":4823:5189   */\n      swap2\n      swap1\n      pop\n      jump\t// out\n        /* \"#utility.yul\":5195:5561   */\n    tag_394:\n        /* \"#utility.yul\":5337:5340   */\n      0x00\n        /* \"#utility.yul\":5358:5425   */\n      tag_396\n        /* \"#utility.yul\":5422:5424   */\n      0x1b\n        /* \"#utility.yul\":5417:5420   */\n      dup4\n        /* \"#utility.yul\":5358:5425   */\n      tag_386\n      jump\t// in\n    tag_396:\n        /* \"#utility.yul\":5351:5425   */\n      swap2\n      pop\n        /* \"#utility.yul\":5434:5527   */\n      tag_397\n        /* \"#utility.yul\":5523:5526   */\n      dup3\n        /* \"#utility.yul\":5434:5527   */\n      tag_398\n      jump\t// in\n    tag_397:\n        /* \"#utility.yul\":5552:5554   */\n      0x20\n        /* \"#utility.yul\":5547:5550   */\n      dup3\n        /* \"#utility.yul\":5543:5555   */\n      add\n        /* \"#utility.yul\":5536:5555   */\n      swap1\n      pop\n        /* \"#utility.yul\":5195:5561   */\n      swap2\n      swap1\n      pop\n      jump\t// out\n        /* \"#utility.yul\":5567:5933   */\n    tag_399:\n        /* \"#utility.yul\":5709:5712   */\n      0x00\n        /* \"#utility.yul\":5730:5797   */\n      tag_401\n        /* \"#utility.yul\":5794:5796   */\n      0x25\n        /* \"#utility.yul\":5789:5792   */\n      dup4\n        /* \"#utility.yul\":5730:5797   */\n      tag_386\n      jump\t// in\n    tag_401:\n        /* \"#utility.yul\":5723:5797   */\n      swap2\n      pop\n        /* \"#utility.yul\":5806:5899   */\n      tag_402\n        /* \"#utility.yul\":5895:5898   */\n      dup3\n        /* \"#utility.yul\":5806:5899   */\n      tag_403\n      jump\t// in\n    tag_402:\n        /* \"#utility.yul\":5924:5926   */\n      0x40\n        /* \"#utility.yul\":5919:5922   */\n      dup3\n        /* \"#utility.yul\":5915:5927   */\n      add\n        /* \"#utility.yul\":5908:5927   */\n      swap1\n      pop\n        /* \"#utility.yul\":5567:5933   */\n      swap2\n      swap1\n      pop\n      jump\t// out\n        /* \"#utility.yul\":5939:6305   */\n    tag_404:\n        /* \"#utility.yul\":6081:6084   */\n      0x00\n        /* \"#utility.yul\":6102:6169   */\n      tag_406\n        /* \"#utility.yul\":6166:6168   */\n      0x1e\n        /* \"#utility.yul\":6161:6164   */\n      dup4\n        /* \"#utility.yul\":6102:6169   */\n      tag_386\n      jump\t// in\n    tag_406:\n        /* \"#utility.yul\":6095:6169   */\n      swap2\n      pop\n        /* \"#utility.yul\":6178:6271   */\n      tag_407\n        /* \"#utility.yul\":6267:6270   */\n      dup3\n        /* \"#utility.yul\":6178:6271   */\n      tag_408\n      jump\t// in\n    tag_407:\n        /* \"#utility.yul\":6296:6298   */\n      0x20\n        /* \"#utility.yul\":6291:6294   */\n      dup3\n        /* \"#utility.yul\":6287:6299   */\n      add\n        /* \"#utility.yul\":6280:6299   */\n      swap1\n      pop\n        /* \"#utility.yul\":5939:6305   */\n      swap2\n      swap1\n      pop\n      jump\t// out\n        /* \"#utility.yul\":6311:6677   */\n    tag_409:\n        /* \"#utility.yul\":6453:6456   */\n      0x00\n        /* \"#utility.yul\":6474:6541   */\n      tag_411\n        /* \"#utility.yul\":6538:6540   */\n      0x1a\n        /* \"#utility.yul\":6533:6536   */\n      dup4\n        /* \"#utility.yul\":6474:6541   */\n      tag_386\n      jump\t// in\n    tag_411:\n        /* \"#utility.yul\":6467:6541   */\n      swap2\n      pop\n        /* \"#utility.yul\":6550:6643   */\n      tag_412\n        /* \"#utility.yul\":6639:6642   */\n      dup3\n        /* \"#utility.yul\":6550:6643   */\n      tag_413\n      jump\t// in\n    tag_412:\n        /* \"#utility.yul\":6668:6670   */\n      0x20\n        /* \"#utility.yul\":6663:6666   */\n      dup3\n        /* \"#utility.yul\":6659:6671   */\n      add\n        /* \"#utility.yul\":6652:6671   */\n      swap1\n      pop\n        /* \"#utility.yul\":6311:6677   */\n      swap2\n      swap1\n      pop\n      jump\t// out\n        /* \"#utility.yul\":6683:7049   */\n    tag_414:\n        /* \"#utility.yul\":6825:6828   */\n      0x00\n        /* \"#utility.yul\":6846:6913   */\n      tag_416\n        /* \"#utility.yul\":6910:6912   */\n      0x1c\n        /* \"#utility.yul\":6905:6908   */\n      dup4\n        /* \"#utility.yul\":6846:6913   */\n      tag_386\n      jump\t// in\n    tag_416:\n        /* \"#utility.yul\":6839:6913   */\n      swap2\n      pop\n        /* \"#utility.yul\":6922:7015   */\n      tag_417\n        /* \"#utility.yul\":7011:7014   */\n      dup3\n        /* \"#utility.yul\":6922:7015   */\n      tag_418\n      jump\t// in\n    tag_417:\n        /* \"#utility.yul\":7040:7042   */\n      0x20\n        /* \"#utility.yul\":7035:7038   */\n      dup3\n        /* \"#utility.yul\":7031:7043   */\n      add\n        /* \"#utility.yul\":7024:7043   */\n      swap1\n      pop\n        /* \"#utility.yul\":6683:7049   */\n      swap2\n      swap1\n      pop\n      jump\t// out\n        /* \"#utility.yul\":7055:7421   */\n    tag_419:\n        /* \"#utility.yul\":7197:7200   */\n      0x00\n        /* \"#utility.yul\":7218:7285   */\n      tag_421\n        /* \"#utility.yul\":7282:7284   */\n      0x11\n        /* \"#utility.yul\":7277:7280   */\n      dup4\n        /* \"#utility.yul\":7218:7285   */\n      tag_386\n      jump\t// in\n    tag_421:\n        /* \"#utility.yul\":7211:7285   */\n      swap2\n      pop\n        /* \"#utility.yul\":7294:7387   */\n      tag_422\n        /* \"#utility.yul\":7383:7386   */\n      dup3\n        /* \"#utility.yul\":7294:7387   */\n      tag_423\n      jump\t// in\n    tag_422:\n        /* \"#utility.yul\":7412:7414   */\n      0x20\n        /* \"#utility.yul\":7407:7410   */\n      dup3\n        /* \"#utility.yul\":7403:7415   */\n      add\n        /* \"#utility.yul\":7396:7415   */\n      swap1\n      pop\n        /* \"#utility.yul\":7055:7421   */\n      swap2\n      swap1\n      pop\n      jump\t// out\n        /* \"#utility.yul\":7427:7793   */\n    tag_424:\n        /* \"#utility.yul\":7569:7572   */\n      0x00\n        /* \"#utility.yul\":7590:7657   */\n      tag_426\n        /* \"#utility.yul\":7654:7656   */\n      0x21\n        /* \"#utility.yul\":7649:7652   */\n      dup4\n        /* \"#utility.yul\":7590:7657   */\n      tag_386\n      jump\t// in\n    tag_426:\n        /* \"#utility.yul\":7583:7657   */\n      swap2\n      pop\n        /* \"#utility.yul\":7666:7759   */\n      tag_427\n        /* \"#utility.yul\":7755:7758   */\n      dup3\n        /* \"#utility.yul\":7666:7759   */\n      tag_428\n      jump\t// in\n    tag_427:\n        /* \"#utility.yul\":7784:7786   */\n      0x40\n        /* \"#utility.yul\":7779:7782   */\n      dup3\n        /* \"#utility.yul\":7775:7787   */\n      add\n        /* \"#utility.yul\":7768:7787   */\n      swap1\n      pop\n        /* \"#utility.yul\":7427:7793   */\n      swap2\n      swap1\n      pop\n      jump\t// out\n        /* \"#utility.yul\":7799:8165   */\n    tag_429:\n        /* \"#utility.yul\":7941:7944   */\n      0x00\n        /* \"#utility.yul\":7962:8029   */\n      tag_431\n        /* \"#utility.yul\":8026:8028   */\n      0x20\n        /* \"#utility.yul\":8021:8024   */\n      dup4\n        /* \"#utility.yul\":7962:8029   */\n      tag_386\n      jump\t// in\n    tag_431:\n        /* \"#utility.yul\":7955:8029   */\n      swap2\n      pop\n        /* \"#utility.yul\":8038:8131   */\n      tag_432\n        /* \"#utility.yul\":8127:8130   */\n      dup3\n        /* \"#utility.yul\":8038:8131   */\n      tag_433\n      jump\t// in\n    tag_432:\n        /* \"#utility.yul\":8156:8158   */\n      0x20\n        /* \"#utility.yul\":8151:8154   */\n      dup3\n        /* \"#utility.yul\":8147:8159   */\n      add\n        /* \"#utility.yul\":8140:8159   */\n      swap1\n      pop\n        /* \"#utility.yul\":7799:8165   */\n      swap2\n      swap1\n      pop\n      jump\t// out\n        /* \"#utility.yul\":8171:8289   */\n    tag_434:\n        /* \"#utility.yul\":8258:8282   */\n      tag_436\n        /* \"#utility.yul\":8276:8281   */\n      dup2\n        /* \"#utility.yul\":8258:8282   */\n      tag_437\n      jump\t// in\n    tag_436:\n        /* \"#utility.yul\":8253:8256   */\n      dup3\n        /* \"#utility.yul\":8246:8283   */\n      mstore\n        /* \"#utility.yul\":8171:8289   */\n      pop\n      pop\n      jump\t// out\n        /* \"#utility.yul\":8295:8517   */\n    tag_93:\n        /* \"#utility.yul\":8388:8392   */\n      0x00\n        /* \"#utility.yul\":8426:8428   */\n      0x20\n        /* \"#utility.yul\":8415:8424   */\n      dup3\n        /* \"#utility.yul\":8411:8429   */\n      add\n        /* \"#utility.yul\":8403:8429   */\n      swap1\n      pop\n        /* \"#utility.yul\":8439:8510   */\n      tag_439\n        /* \"#utility.yul\":8507:8508   */\n      0x00\n        /* \"#utility.yul\":8496:8505   */\n      dup4\n        /* \"#utility.yul\":8492:8509   */\n      add\n        /* \"#utility.yul\":8483:8489   */\n      dup5\n        /* \"#utility.yul\":8439:8510   */\n      tag_371\n      jump\t// in\n    tag_439:\n        /* \"#utility.yul\":8295:8517   */\n      swap3\n      swap2\n      pop\n      pop\n      jump\t// out\n        /* \"#utility.yul\":8523:8965   */\n    tag_185:\n        /* \"#utility.yul\":8672:8676   */\n      0x00\n        /* \"#utility.yul\":8710:8712   */\n      0x60\n        /* \"#utility.yul\":8699:8708   */\n      dup3\n        /* \"#utility.yul\":8695:8713   */\n      add\n        /* \"#utility.yul\":8687:8713   */\n      swap1\n      pop\n        /* \"#utility.yul\":8723:8794   */\n      tag_441\n        /* \"#utility.yul\":8791:8792   */\n      0x00\n        /* \"#utility.yul\":8780:8789   */\n      dup4\n        /* \"#utility.yul\":8776:8793   */\n      add\n        /* \"#utility.yul\":8767:8773   */\n      dup7\n        /* \"#utility.yul\":8723:8794   */\n      tag_371\n      jump\t// in\n    tag_441:\n        /* \"#utility.yul\":8804:8876   */\n      tag_442\n        /* \"#utility.yul\":8872:8874   */\n      0x20\n        /* \"#utility.yul\":8861:8870   */\n      dup4\n        /* \"#utility.yul\":8857:8875   */\n      add\n        /* \"#utility.yul\":8848:8854   */\n      dup6\n        /* \"#utility.yul\":8804:8876   */\n      tag_371\n      jump\t// in\n    tag_442:\n        /* \"#utility.yul\":8886:8958   */\n      tag_443\n        /* \"#utility.yul\":8954:8956   */\n      0x40\n        /* \"#utility.yul\":8943:8952   */\n      dup4\n        /* \"#utility.yul\":8939:8957   */\n      add\n        /* \"#utility.yul\":8930:8936   */\n      dup5\n        /* \"#utility.yul\":8886:8958   */\n      tag_434\n      jump\t// in\n    tag_443:\n        /* \"#utility.yul\":8523:8965   */\n      swap5\n      swap4\n      pop\n      pop\n      pop\n      pop\n      jump\t// out\n        /* \"#utility.yul\":8971:9303   */\n    tag_164:\n        /* \"#utility.yul\":9092:9096   */\n      0x00\n        /* \"#utility.yul\":9130:9132   */\n      0x40\n        /* \"#utility.yul\":9119:9128   */\n      dup3\n        /* \"#utility.yul\":9115:9133   */\n      add\n        /* \"#utility.yul\":9107:9133   */\n      swap1\n      pop\n        /* \"#utility.yul\":9143:9214   */\n      tag_445\n        /* \"#utility.yul\":9211:9212   */\n      0x00\n        /* \"#utility.yul\":9200:9209   */\n      dup4\n        /* \"#utility.yul\":9196:9213   */\n      add\n        /* \"#utility.yul\":9187:9193   */\n      dup6\n        /* \"#utility.yul\":9143:9214   */\n      tag_371\n      jump\t// in\n    tag_445:\n        /* \"#utility.yul\":9224:9296   */\n      tag_446\n        /* \"#utility.yul\":9292:9294   */\n      0x20\n        /* \"#utility.yul\":9281:9290   */\n      dup4\n        /* \"#utility.yul\":9277:9295   */\n      add\n        /* \"#utility.yul\":9268:9274   */\n      dup5\n        /* \"#utility.yul\":9224:9296   */\n      tag_434\n      jump\t// in\n    tag_446:\n        /* \"#utility.yul\":8971:9303   */\n      swap4\n      swap3\n      pop\n      pop\n      pop\n      jump\t// out\n        /* \"#utility.yul\":9309:9519   */\n    tag_46:\n        /* \"#utility.yul\":9396:9400   */\n      0x00\n        /* \"#utility.yul\":9434:9436   */\n      0x20\n        /* \"#utility.yul\":9423:9432   */\n      dup3\n        /* \"#utility.yul\":9419:9437   */\n      add\n        /* \"#utility.yul\":9411:9437   */\n      swap1\n      pop\n        /* \"#utility.yul\":9447:9512   */\n      tag_448\n        /* \"#utility.yul\":9509:9510   */\n      0x00\n        /* \"#utility.yul\":9498:9507   */\n      dup4\n        /* \"#utility.yul\":9494:9511   */\n      add\n        /* \"#utility.yul\":9485:9491   */\n      dup5\n        /* \"#utility.yul\":9447:9512   */\n      tag_375\n      jump\t// in\n    tag_448:\n        /* \"#utility.yul\":9309:9519   */\n      swap3\n      swap2\n      pop\n      pop\n      jump\t// out\n        /* \"#utility.yul\":9525:9775   */\n    tag_85:\n        /* \"#utility.yul\":9632:9636   */\n      0x00\n        /* \"#utility.yul\":9670:9672   */\n      0x20\n        /* \"#utility.yul\":9659:9668   */\n      dup3\n        /* \"#utility.yul\":9655:9673   */\n      add\n        /* \"#utility.yul\":9647:9673   */\n      swap1\n      pop\n        /* \"#utility.yul\":9683:9768   */\n      tag_450\n        /* \"#utility.yul\":9765:9766   */\n      0x00\n        /* \"#utility.yul\":9754:9763   */\n      dup4\n        /* \"#utility.yul\":9750:9767   */\n      add\n        /* \"#utility.yul\":9741:9747   */\n      dup5\n        /* \"#utility.yul\":9683:9768   */\n      tag_379\n      jump\t// in\n    tag_450:\n        /* \"#utility.yul\":9525:9775   */\n      swap3\n      swap2\n      pop\n      pop\n      jump\t// out\n        /* \"#utility.yul\":9781:10200   */\n    tag_236:\n        /* \"#utility.yul\":9947:9951   */\n      0x00\n        /* \"#utility.yul\":9985:9987   */\n      0x20\n        /* \"#utility.yul\":9974:9983   */\n      dup3\n        /* \"#utility.yul\":9970:9988   */\n      add\n        /* \"#utility.yul\":9962:9988   */\n      swap1\n      pop\n        /* \"#utility.yul\":10034:10043   */\n      dup2\n        /* \"#utility.yul\":10028:10032   */\n      dup2\n        /* \"#utility.yul\":10024:10044   */\n      sub\n        /* \"#utility.yul\":10020:10021   */\n      0x00\n        /* \"#utility.yul\":10009:10018   */\n      dup4\n        /* \"#utility.yul\":10005:10022   */\n      add\n        /* \"#utility.yul\":9998:10045   */\n      mstore\n        /* \"#utility.yul\":10062:10193   */\n      tag_452\n        /* \"#utility.yul\":10188:10192   */\n      dup2\n        /* \"#utility.yul\":10062:10193   */\n      tag_383\n      jump\t// in\n    tag_452:\n        /* \"#utility.yul\":10054:10193   */\n      swap1\n      pop\n        /* \"#utility.yul\":9781:10200   */\n      swap2\n      swap1\n      pop\n      jump\t// out\n        /* \"#utility.yul\":10206:10625   */\n    tag_223:\n        /* \"#utility.yul\":10372:10376   */\n      0x00\n        /* \"#utility.yul\":10410:10412   */\n      0x20\n        /* \"#utility.yul\":10399:10408   */\n      dup3\n        /* \"#utility.yul\":10395:10413   */\n      add\n        /* \"#utility.yul\":10387:10413   */\n      swap1\n      pop\n        /* \"#utility.yul\":10459:10468   */\n      dup2\n        /* \"#utility.yul\":10453:10457   */\n      dup2\n        /* \"#utility.yul\":10449:10469   */\n      sub\n        /* \"#utility.yul\":10445:10446   */\n      0x00\n        /* \"#utility.yul\":10434:10443   */\n      dup4\n        /* \"#utility.yul\":10430:10447   */\n      add\n        /* \"#utility.yul\":10423:10470   */\n      mstore\n        /* \"#utility.yul\":10487:10618   */\n      tag_454\n        /* \"#utility.yul\":10613:10617   */\n      dup2\n        /* \"#utility.yul\":10487:10618   */\n      tag_389\n      jump\t// in\n    tag_454:\n        /* \"#utility.yul\":10479:10618   */\n      swap1\n      pop\n        /* \"#utility.yul\":10206:10625   */\n      swap2\n      swap1\n      pop\n      jump\t// out\n        /* \"#utility.yul\":10631:11050   */\n    tag_276:\n        /* \"#utility.yul\":10797:10801   */\n      0x00\n        /* \"#utility.yul\":10835:10837   */\n      0x20\n        /* \"#utility.yul\":10824:10833   */\n      dup3\n        /* \"#utility.yul\":10820:10838   */\n      add\n        /* \"#utility.yul\":10812:10838   */\n      swap1\n      pop\n        /* \"#utility.yul\":10884:10893   */\n      dup2\n        /* \"#utility.yul\":10878:10882   */\n      dup2\n        /* \"#utility.yul\":10874:10894   */\n      sub\n        /* \"#utility.yul\":10870:10871   */\n      0x00\n        /* \"#utility.yul\":10859:10868   */\n      dup4\n        /* \"#utility.yul\":10855:10872   */\n      add\n        /* \"#utility.yul\":10848:10895   */\n      mstore\n        /* \"#utility.yul\":10912:11043   */\n      tag_456\n        /* \"#utility.yul\":11038:11042   */\n      dup2\n        /* \"#utility.yul\":10912:11043   */\n      tag_394\n      jump\t// in\n    tag_456:\n        /* \"#utility.yul\":10904:11043   */\n      swap1\n      pop\n        /* \"#utility.yul\":10631:11050   */\n      swap2\n      swap1\n      pop\n      jump\t// out\n        /* \"#utility.yul\":11056:11475   */\n    tag_202:\n        /* \"#utility.yul\":11222:11226   */\n      0x00\n        /* \"#utility.yul\":11260:11262   */\n      0x20\n        /* \"#utility.yul\":11249:11258   */\n      dup3\n        /* \"#utility.yul\":11245:11263   */\n      add\n        /* \"#utility.yul\":11237:11263   */\n      swap1\n      pop\n        /* \"#utility.yul\":11309:11318   */\n      dup2\n        /* \"#utility.yul\":11303:11307   */\n      dup2\n        /* \"#utility.yul\":11299:11319   */\n      sub\n        /* \"#utility.yul\":11295:11296   */\n      0x00\n        /* \"#utility.yul\":11284:11293   */\n      dup4\n        /* \"#utility.yul\":11280:11297   */\n      add\n        /* \"#utility.yul\":11273:11320   */\n      mstore\n        /* \"#utility.yul\":11337:11468   */\n      tag_458\n        /* \"#utility.yul\":11463:11467   */\n      dup2\n        /* \"#utility.yul\":11337:11468   */\n      tag_399\n      jump\t// in\n    tag_458:\n        /* \"#utility.yul\":11329:11468   */\n      swap1\n      pop\n        /* \"#utility.yul\":11056:11475   */\n      swap2\n      swap1\n      pop\n      jump\t// out\n        /* \"#utility.yul\":11481:11900   */\n    tag_254:\n        /* \"#utility.yul\":11647:11651   */\n      0x00\n        /* \"#utility.yul\":11685:11687   */\n      0x20\n        /* \"#utility.yul\":11674:11683   */\n      dup3\n        /* \"#utility.yul\":11670:11688   */\n      add\n        /* \"#utility.yul\":11662:11688   */\n      swap1\n      pop\n        /* \"#utility.yul\":11734:11743   */\n      dup2\n        /* \"#utility.yul\":11728:11732   */\n      dup2\n        /* \"#utility.yul\":11724:11744   */\n      sub\n        /* \"#utility.yul\":11720:11721   */\n      0x00\n        /* \"#utility.yul\":11709:11718   */\n      dup4\n        /* \"#utility.yul\":11705:11722   */\n      add\n        /* \"#utility.yul\":11698:11745   */\n      mstore\n        /* \"#utility.yul\":11762:11893   */\n      tag_460\n        /* \"#utility.yul\":11888:11892   */\n      dup2\n        /* \"#utility.yul\":11762:11893   */\n      tag_404\n      jump\t// in\n    tag_460:\n        /* \"#utility.yul\":11754:11893   */\n      swap1\n      pop\n        /* \"#utility.yul\":11481:11900   */\n      swap2\n      swap1\n      pop\n      jump\t// out\n        /* \"#utility.yul\":11906:12325   */\n    tag_269:\n        /* \"#utility.yul\":12072:12076   */\n      0x00\n        /* \"#utility.yul\":12110:12112   */\n      0x20\n        /* \"#utility.yul\":12099:12108   */\n      dup3\n        /* \"#utility.yul\":12095:12113   */\n      add\n        /* \"#utility.yul\":12087:12113   */\n      swap1\n      pop\n        /* \"#utility.yul\":12159:12168   */\n      dup2\n        /* \"#utility.yul\":12153:12157   */\n      dup2\n        /* \"#utility.yul\":12149:12169   */\n      sub\n        /* \"#utility.yul\":12145:12146   */\n      0x00\n        /* \"#utility.yul\":12134:12143   */\n      dup4\n        /* \"#utility.yul\":12130:12147   */\n      add\n        /* \"#utility.yul\":12123:12170   */\n      mstore\n        /* \"#utility.yul\":12187:12318   */\n      tag_462\n        /* \"#utility.yul\":12313:12317   */\n      dup2\n        /* \"#utility.yul\":12187:12318   */\n      tag_409\n      jump\t// in\n    tag_462:\n        /* \"#utility.yul\":12179:12318   */\n      swap1\n      pop\n        /* \"#utility.yul\":11906:12325   */\n      swap2\n      swap1\n      pop\n      jump\t// out\n        /* \"#utility.yul\":12331:12750   */\n    tag_178:\n        /* \"#utility.yul\":12497:12501   */\n      0x00\n        /* \"#utility.yul\":12535:12537   */\n      0x20\n        /* \"#utility.yul\":12524:12533   */\n      dup3\n        /* \"#utility.yul\":12520:12538   */\n      add\n        /* \"#utility.yul\":12512:12538   */\n      swap1\n      pop\n        /* \"#utility.yul\":12584:12593   */\n      dup2\n        /* \"#utility.yul\":12578:12582   */\n      dup2\n        /* \"#utility.yul\":12574:12594   */\n      sub\n        /* \"#utility.yul\":12570:12571   */\n      0x00\n        /* \"#utility.yul\":12559:12568   */\n      dup4\n        /* \"#utility.yul\":12555:12572   */\n      add\n        /* \"#utility.yul\":12548:12595   */\n      mstore\n        /* \"#utility.yul\":12612:12743   */\n      tag_464\n        /* \"#utility.yul\":12738:12742   */\n      dup2\n        /* \"#utility.yul\":12612:12743   */\n      tag_414\n      jump\t// in\n    tag_464:\n        /* \"#utility.yul\":12604:12743   */\n      swap1\n      pop\n        /* \"#utility.yul\":12331:12750   */\n      swap2\n      swap1\n      pop\n      jump\t// out\n        /* \"#utility.yul\":12756:13175   */\n    tag_153:\n        /* \"#utility.yul\":12922:12926   */\n      0x00\n        /* \"#utility.yul\":12960:12962   */\n      0x20\n        /* \"#utility.yul\":12949:12958   */\n      dup3\n        /* \"#utility.yul\":12945:12963   */\n      add\n        /* \"#utility.yul\":12937:12963   */\n      swap1\n      pop\n        /* \"#utility.yul\":13009:13018   */\n      dup2\n        /* \"#utility.yul\":13003:13007   */\n      dup2\n        /* \"#utility.yul\":12999:13019   */\n      sub\n        /* \"#utility.yul\":12995:12996   */\n      0x00\n        /* \"#utility.yul\":12984:12993   */\n      dup4\n        /* \"#utility.yul\":12980:12997   */\n      add\n        /* \"#utility.yul\":12973:13020   */\n      mstore\n        /* \"#utility.yul\":13037:13168   */\n      tag_466\n        /* \"#utility.yul\":13163:13167   */\n      dup2\n        /* \"#utility.yul\":13037:13168   */\n      tag_419\n      jump\t// in\n    tag_466:\n        /* \"#utility.yul\":13029:13168   */\n      swap1\n      pop\n        /* \"#utility.yul\":12756:13175   */\n      swap2\n      swap1\n      pop\n      jump\t// out\n        /* \"#utility.yul\":13181:13600   */\n    tag_265:\n        /* \"#utility.yul\":13347:13351   */\n      0x00\n        /* \"#utility.yul\":13385:13387   */\n      0x20\n        /* \"#utility.yul\":13374:13383   */\n      dup3\n        /* \"#utility.yul\":13370:13388   */\n      add\n        /* \"#utility.yul\":13362:13388   */\n      swap1\n      pop\n        /* \"#utility.yul\":13434:13443   */\n      dup2\n        /* \"#utility.yul\":13428:13432   */\n      dup2\n        /* \"#utility.yul\":13424:13444   */\n      sub\n        /* \"#utility.yul\":13420:13421   */\n      0x00\n        /* \"#utility.yul\":13409:13418   */\n      dup4\n        /* \"#utility.yul\":13405:13422   */\n      add\n        /* \"#utility.yul\":13398:13445   */\n      mstore\n        /* \"#utility.yul\":13462:13593   */\n      tag_468\n        /* \"#utility.yul\":13588:13592   */\n      dup2\n        /* \"#utility.yul\":13462:13593   */\n      tag_424\n      jump\t// in\n    tag_468:\n        /* \"#utility.yul\":13454:13593   */\n      swap1\n      pop\n        /* \"#utility.yul\":13181:13600   */\n      swap2\n      swap1\n      pop\n      jump\t// out\n        /* \"#utility.yul\":13606:14025   */\n    tag_283:\n        /* \"#utility.yul\":13772:13776   */\n      0x00\n        /* \"#utility.yul\":13810:13812   */\n      0x20\n        /* \"#utility.yul\":13799:13808   */\n      dup3\n        /* \"#utility.yul\":13795:13813   */\n      add\n        /* \"#utility.yul\":13787:13813   */\n      swap1\n      pop\n        /* \"#utility.yul\":13859:13868   */\n      dup2\n        /* \"#utility.yul\":13853:13857   */\n      dup2\n        /* \"#utility.yul\":13849:13869   */\n      sub\n        /* \"#utility.yul\":13845:13846   */\n      0x00\n        /* \"#utility.yul\":13834:13843   */\n      dup4\n        /* \"#utility.yul\":13830:13847   */\n      add\n        /* \"#utility.yul\":13823:13870   */\n      mstore\n        /* \"#utility.yul\":13887:14018   */\n      tag_470\n        /* \"#utility.yul\":14013:14017   */\n      dup2\n        /* \"#utility.yul\":13887:14018   */\n      tag_429\n      jump\t// in\n    tag_470:\n        /* \"#utility.yul\":13879:14018   */\n      swap1\n      pop\n        /* \"#utility.yul\":13606:14025   */\n      swap2\n      swap1\n      pop\n      jump\t// out\n        /* \"#utility.yul\":14031:14253   */\n    tag_37:\n        /* \"#utility.yul\":14124:14128   */\n      0x00\n        /* \"#utility.yul\":14162:14164   */\n      0x20\n        /* \"#utility.yul\":14151:14160   */\n      dup3\n        /* \"#utility.yul\":14147:14165   */\n      add\n        /* \"#utility.yul\":14139:14165   */\n      swap1\n      pop\n        /* \"#utility.yul\":14175:14246   */\n      tag_472\n        /* \"#utility.yul\":14243:14244   */\n      0x00\n        /* \"#utility.yul\":14232:14241   */\n      dup4\n        /* \"#utility.yul\":14228:14245   */\n      add\n        /* \"#utility.yul\":14219:14225   */\n      dup5\n        /* \"#utility.yul\":14175:14246   */\n      tag_434\n      jump\t// in\n    tag_472:\n        /* \"#utility.yul\":14031:14253   */\n      swap3\n      swap2\n      pop\n      pop\n      jump\t// out\n        /* \"#utility.yul\":14259:14388   */\n    tag_315:\n        /* \"#utility.yul\":14293:14299   */\n      0x00\n        /* \"#utility.yul\":14320:14340   */\n      tag_474\n      tag_475\n      jump\t// in\n    tag_474:\n        /* \"#utility.yul\":14310:14340   */\n      swap1\n      pop\n        /* \"#utility.yul\":14349:14382   */\n      tag_476\n        /* \"#utility.yul\":14377:14381   */\n      dup3\n        /* \"#utility.yul\":14369:14375   */\n      dup3\n        /* \"#utility.yul\":14349:14382   */\n      tag_477\n      jump\t// in\n    tag_476:\n        /* \"#utility.yul\":14259:14388   */\n      swap2\n      swap1\n      pop\n      jump\t// out\n        /* \"#utility.yul\":14394:14469   */\n    tag_475:\n        /* \"#utility.yul\":14427:14433   */\n      0x00\n        /* \"#utility.yul\":14460:14462   */\n      0x40\n        /* \"#utility.yul\":14454:14463   */\n      mload\n        /* \"#utility.yul\":14444:14463   */\n      swap1\n      pop\n        /* \"#utility.yul\":14394:14469   */\n      swap1\n      jump\t// out\n        /* \"#utility.yul\":14475:14786   */\n    tag_314:\n        /* \"#utility.yul\":14552:14556   */\n      0x00\n        /* \"#utility.yul\":14642:14660   */\n      0xffffffffffffffff\n        /* \"#utility.yul\":14634:14640   */\n      dup3\n        /* \"#utility.yul\":14631:14661   */\n      gt\n        /* \"#utility.yul\":14628:14684   */\n      iszero\n      tag_480\n      jumpi\n        /* \"#utility.yul\":14664:14682   */\n      tag_481\n      tag_482\n      jump\t// in\n    tag_481:\n        /* \"#utility.yul\":14628:14684   */\n    tag_480:\n        /* \"#utility.yul\":14714:14718   */\n      0x20\n        /* \"#utility.yul\":14706:14712   */\n      dup3\n        /* \"#utility.yul\":14702:14719   */\n      mul\n        /* \"#utility.yul\":14694:14719   */\n      swap1\n      pop\n        /* \"#utility.yul\":14774:14778   */\n      0x20\n        /* \"#utility.yul\":14768:14772   */\n      dup2\n        /* \"#utility.yul\":14764:14779   */\n      add\n        /* \"#utility.yul\":14756:14779   */\n      swap1\n      pop\n        /* \"#utility.yul\":14475:14786   */\n      swap2\n      swap1\n      pop\n      jump\t// out\n        /* \"#utility.yul\":14792:14961   */\n    tag_386:\n        /* \"#utility.yul\":14876:14887   */\n      0x00\n        /* \"#utility.yul\":14910:14916   */\n      dup3\n        /* \"#utility.yul\":14905:14908   */\n      dup3\n        /* \"#utility.yul\":14898:14917   */\n      mstore\n        /* \"#utility.yul\":14950:14954   */\n      0x20\n        /* \"#utility.yul\":14945:14948   */\n      dup3\n        /* \"#utility.yul\":14941:14955   */\n      add\n        /* \"#utility.yul\":14926:14955   */\n      swap1\n      pop\n        /* \"#utility.yul\":14792:14961   */\n      swap3\n      swap2\n      pop\n      pop\n      jump\t// out\n        /* \"#utility.yul\":14967:15272   */\n    tag_273:\n        /* \"#utility.yul\":15007:15010   */\n      0x00\n        /* \"#utility.yul\":15026:15046   */\n      tag_485\n        /* \"#utility.yul\":15044:15045   */\n      dup3\n        /* \"#utility.yul\":15026:15046   */\n      tag_437\n      jump\t// in\n    tag_485:\n        /* \"#utility.yul\":15021:15046   */\n      swap2\n      pop\n        /* \"#utility.yul\":15060:15080   */\n      tag_486\n        /* \"#utility.yul\":15078:15079   */\n      dup4\n        /* \"#utility.yul\":15060:15080   */\n      tag_437\n      jump\t// in\n    tag_486:\n        /* \"#utility.yul\":15055:15080   */\n      swap3\n      pop\n        /* \"#utility.yul\":15214:15215   */\n      dup3\n        /* \"#utility.yul\":15146:15212   */\n      0xffffffffffffffffffffffffffffffffffffffffffffffffffffffffffffffff\n        /* \"#utility.yul\":15142:15216   */\n      sub\n        /* \"#utility.yul\":15139:15140   */\n      dup3\n        /* \"#utility.yul\":15136:15217   */\n      gt\n        /* \"#utility.yul\":15133:15240   */\n      iszero\n      tag_487\n      jumpi\n        /* \"#utility.yul\":15220:15238   */\n      tag_488\n      tag_489\n      jump\t// in\n    tag_488:\n        /* \"#utility.yul\":15133:15240   */\n    tag_487:\n        /* \"#utility.yul\":15264:15265   */\n      dup3\n        /* \"#utility.yul\":15261:15262   */\n      dup3\n        /* \"#utility.yul\":15257:15266   */\n      add\n        /* \"#utility.yul\":15250:15266   */\n      swap1\n      pop\n        /* \"#utility.yul\":14967:15272   */\n      swap3\n      swap2\n      pop\n      pop\n      jump\t// out\n        /* \"#utility.yul\":15278:15463   */\n    tag_262:\n        /* \"#utility.yul\":15318:15319   */\n      0x00\n        /* \"#utility.yul\":15335:15355   */\n      tag_491\n        /* \"#utility.yul\":15353:15354   */\n      dup3\n        /* \"#utility.yul\":15335:15355   */\n      tag_437\n      jump\t// in\n    tag_491:\n        /* \"#utility.yul\":15330:15355   */\n      swap2\n      pop\n        /* \"#utility.yul\":15369:15389   */\n      tag_492\n        /* \"#utility.yul\":15387:15388   */\n      dup4\n        /* \"#utility.yul\":15369:15389   */\n      tag_437\n      jump\t// in\n    tag_492:\n        /* \"#utility.yul\":15364:15389   */\n      swap3\n      pop\n        /* \"#utility.yul\":15408:15409   */\n      dup3\n        /* \"#utility.yul\":15398:15433   */\n      tag_493\n      jumpi\n        /* \"#utility.yul\":15413:15431   */\n      tag_494\n      tag_495\n      jump\t// in\n    tag_494:\n        /* \"#utility.yul\":15398:15433   */\n    tag_493:\n        /* \"#utility.yul\":15455:15456   */\n      dup3\n        /* \"#utility.yul\":15452:15453   */\n      dup3\n        /* \"#utility.yul\":15448:15457   */\n      div\n        /* \"#utility.yul\":15443:15457   */\n      swap1\n      pop\n        /* \"#utility.yul\":15278:15463   */\n      swap3\n      swap2\n      pop\n      pop\n      jump\t// out\n        /* \"#utility.yul\":15469:15817   */\n    tag_260:\n        /* \"#utility.yul\":15509:15516   */\n      0x00\n        /* \"#utility.yul\":15532:15552   */\n      tag_497\n        /* \"#utility.yul\":15550:15551   */\n      dup3\n        /* \"#utility.yul\":15532:15552   */\n      tag_437\n      jump\t// in\n    tag_497:\n        /* \"#utility.yul\":15527:15552   */\n      swap2\n      pop\n        /* \"#utility.yul\":15566:15586   */\n      tag_498\n        /* \"#utility.yul\":15584:15585   */\n      dup4\n        /* \"#utility.yul\":15566:15586   */\n      tag_437\n      jump\t// in\n    tag_498:\n        /* \"#utility.yul\":15561:15586   */\n      swap3\n      pop\n        /* \"#utility.yul\":15754:15755   */\n      dup2\n        /* \"#utility.yul\":15686:15752   */\n      0xffffffffffffffffffffffffffffffffffffffffffffffffffffffffffffffff\n        /* \"#utility.yul\":15682:15756   */\n      div\n        /* \"#utility.yul\":15679:15680   */\n      dup4\n        /* \"#utility.yul\":15676:15757   */\n      gt\n        /* \"#utility.yul\":15671:15672   */\n      dup3\n        /* \"#utility.yul\":15664:15673   */\n      iszero\n        /* \"#utility.yul\":15657:15674   */\n      iszero\n        /* \"#utility.yul\":15653:15758   */\n      and\n        /* \"#utility.yul\":15650:15781   */\n      iszero\n      tag_499\n      jumpi\n        /* \"#utility.yul\":15761:15779   */\n      tag_500\n      tag_489\n      jump\t// in\n    tag_500:\n        /* \"#utility.yul\":15650:15781   */\n    tag_499:\n        /* \"#utility.yul\":15809:15810   */\n      dup3\n        /* \"#utility.yul\":15806:15807   */\n      dup3\n        /* \"#utility.yul\":15802:15811   */\n      mul\n        /* \"#utility.yul\":15791:15811   */\n      swap1\n      pop\n        /* \"#utility.yul\":15469:15817   */\n      swap3\n      swap2\n      pop\n      pop\n      jump\t// out\n        /* \"#utility.yul\":15823:16014   */\n    tag_256:\n        /* \"#utility.yul\":15863:15867   */\n      0x00\n        /* \"#utility.yul\":15883:15903   */\n      tag_502\n        /* \"#utility.yul\":15901:15902   */\n      dup3\n        /* \"#utility.yul\":15883:15903   */\n      tag_437\n      jump\t// in\n    tag_502:\n        /* \"#utility.yul\":15878:15903   */\n      swap2\n      pop\n        /* \"#utility.yul\":15917:15937   */\n      tag_503\n        /* \"#utility.yul\":15935:15936   */\n      dup4\n        /* \"#utility.yul\":15917:15937   */\n      tag_437\n      jump\t// in\n    tag_503:\n        /* \"#utility.yul\":15912:15937   */\n      swap3\n      pop\n        /* \"#utility.yul\":15956:15957   */\n      dup3\n        /* \"#utility.yul\":15953:15954   */\n      dup3\n        /* \"#utility.yul\":15950:15958   */\n      lt\n        /* \"#utility.yul\":15947:15981   */\n      iszero\n      tag_504\n      jumpi\n        /* \"#utility.yul\":15961:15979   */\n      tag_505\n      tag_489\n      jump\t// in\n    tag_505:\n        /* \"#utility.yul\":15947:15981   */\n    tag_504:\n        /* \"#utility.yul\":16006:16007   */\n      dup3\n        /* \"#utility.yul\":16003:16004   */\n      dup3\n        /* \"#utility.yul\":15999:16008   */\n      sub\n        /* \"#utility.yul\":15991:16008   */\n      swap1\n      pop\n        /* \"#utility.yul\":15823:16014   */\n      swap3\n      swap2\n      pop\n      pop\n      jump\t// out\n        /* \"#utility.yul\":16020:16116   */\n    tag_374:\n        /* \"#utility.yul\":16057:16064   */\n      0x00\n        /* \"#utility.yul\":16086:16110   */\n      tag_507\n        /* \"#utility.yul\":16104:16109   */\n      dup3\n        /* \"#utility.yul\":16086:16110   */\n      tag_508\n      jump\t// in\n    tag_507:\n        /* \"#utility.yul\":16075:16110   */\n      swap1\n      pop\n        /* \"#utility.yul\":16020:16116   */\n      swap2\n      swap1\n      pop\n      jump\t// out\n        /* \"#utility.yul\":16122:16212   */\n    tag_378:\n        /* \"#utility.yul\":16156:16163   */\n      0x00\n        /* \"#utility.yul\":16199:16204   */\n      dup2\n        /* \"#utility.yul\":16192:16205   */\n      iszero\n        /* \"#utility.yul\":16185:16206   */\n      iszero\n        /* \"#utility.yul\":16174:16206   */\n      swap1\n      pop\n        /* \"#utility.yul\":16122:16212   */\n      swap2\n      swap1\n      pop\n      jump\t// out\n        /* \"#utility.yul\":16218:16344   */\n    tag_508:\n        /* \"#utility.yul\":16255:16262   */\n      0x00\n        /* \"#utility.yul\":16295:16337   */\n      0xffffffffffffffffffffffffffffffffffffffff\n        /* \"#utility.yul\":16288:16293   */\n      dup3\n        /* \"#utility.yul\":16284:16338   */\n      and\n        /* \"#utility.yul\":16273:16338   */\n      swap1\n      pop\n        /* \"#utility.yul\":16218:16344   */\n      swap2\n      swap1\n      pop\n      jump\t// out\n        /* \"#utility.yul\":16350:16427   */\n    tag_437:\n        /* \"#utility.yul\":16387:16394   */\n      0x00\n        /* \"#utility.yul\":16416:16421   */\n      dup2\n        /* \"#utility.yul\":16405:16421   */\n      swap1\n      pop\n        /* \"#utility.yul\":16350:16427   */\n      swap2\n      swap1\n      pop\n      jump\t// out\n        /* \"#utility.yul\":16433:16573   */\n    tag_382:\n        /* \"#utility.yul\":16497:16506   */\n      0x00\n        /* \"#utility.yul\":16530:16567   */\n      tag_513\n        /* \"#utility.yul\":16561:16566   */\n      dup3\n        /* \"#utility.yul\":16530:16567   */\n      tag_514\n      jump\t// in\n    tag_513:\n        /* \"#utility.yul\":16517:16567   */\n      swap1\n      pop\n        /* \"#utility.yul\":16433:16573   */\n      swap2\n      swap1\n      pop\n      jump\t// out\n        /* \"#utility.yul\":16579:16705   */\n    tag_514:\n        /* \"#utility.yul\":16629:16638   */\n      0x00\n        /* \"#utility.yul\":16662:16699   */\n      tag_516\n        /* \"#utility.yul\":16693:16698   */\n      dup3\n        /* \"#utility.yul\":16662:16699   */\n      tag_517\n      jump\t// in\n    tag_516:\n        /* \"#utility.yul\":16649:16699   */\n      swap1\n      pop\n        /* \"#utility.yul\":16579:16705   */\n      swap2\n      swap1\n      pop\n      jump\t// out\n        /* \"#utility.yul\":16711:16824   */\n    tag_517:\n        /* \"#utility.yul\":16761:16770   */\n      0x00\n        /* \"#utility.yul\":16794:16818   */\n      tag_519\n        /* \"#utility.yul\":16812:16817   */\n      dup3\n        /* \"#utility.yul\":16794:16818   */\n      tag_508\n      jump\t// in\n    tag_519:\n        /* \"#utility.yul\":16781:16818   */\n      swap1\n      pop\n        /* \"#utility.yul\":16711:16824   */\n      swap2\n      swap1\n      pop\n      jump\t// out\n        /* \"#utility.yul\":16830:17111   */\n    tag_477:\n        /* \"#utility.yul\":16913:16940   */\n      tag_521\n        /* \"#utility.yul\":16935:16939   */\n      dup3\n        /* \"#utility.yul\":16913:16940   */\n      tag_522\n      jump\t// in\n    tag_521:\n        /* \"#utility.yul\":16905:16911   */\n      dup2\n        /* \"#utility.yul\":16901:16941   */\n      add\n        /* \"#utility.yul\":17043:17049   */\n      dup2\n        /* \"#utility.yul\":17031:17041   */\n      dup2\n        /* \"#utility.yul\":17028:17050   */\n      lt\n        /* \"#utility.yul\":17007:17025   */\n      0xffffffffffffffff\n        /* \"#utility.yul\":16995:17005   */\n      dup3\n        /* \"#utility.yul\":16992:17026   */\n      gt\n        /* \"#utility.yul\":16989:17051   */\n      or\n        /* \"#utility.yul\":16986:17074   */\n      iszero\n      tag_523\n      jumpi\n        /* \"#utility.yul\":17054:17072   */\n      tag_524\n      tag_482\n      jump\t// in\n    tag_524:\n        /* \"#utility.yul\":16986:17074   */\n    tag_523:\n        /* \"#utility.yul\":17094:17104   */\n      dup1\n        /* \"#utility.yul\":17090:17092   */\n      0x40\n        /* \"#utility.yul\":17083:17105   */\n      mstore\n        /* \"#utility.yul\":16873:17111   */\n      pop\n        /* \"#utility.yul\":16830:17111   */\n      pop\n      pop\n      jump\t// out\n        /* \"#utility.yul\":17117:17350   */\n    tag_145:\n        /* \"#utility.yul\":17156:17159   */\n      0x00\n        /* \"#utility.yul\":17179:17203   */\n      tag_526\n        /* \"#utility.yul\":17197:17202   */\n      dup3\n        /* \"#utility.yul\":17179:17203   */\n      tag_437\n      jump\t// in\n    tag_526:\n        /* \"#utility.yul\":17170:17203   */\n      swap2\n      pop\n        /* \"#utility.yul\":17225:17291   */\n      0xffffffffffffffffffffffffffffffffffffffffffffffffffffffffffffffff\n        /* \"#utility.yul\":17218:17223   */\n      dup3\n        /* \"#utility.yul\":17215:17292   */\n      eq\n        /* \"#utility.yul\":17212:17315   */\n      iszero\n      tag_527\n      jumpi\n        /* \"#utility.yul\":17295:17313   */\n      tag_528\n      tag_489\n      jump\t// in\n    tag_528:\n        /* \"#utility.yul\":17212:17315   */\n    tag_527:\n        /* \"#utility.yul\":17342:17343   */\n      0x01\n        /* \"#utility.yul\":17335:17340   */\n      dup3\n        /* \"#utility.yul\":17331:17344   */\n      add\n        /* \"#utility.yul\":17324:17344   */\n      swap1\n      pop\n        /* \"#utility.yul\":17117:17350   */\n      swap2\n      swap1\n      pop\n      jump\t// out\n        /* \"#utility.yul\":17356:17536   */\n    tag_489:\n        /* \"#utility.yul\":17404:17481   */\n      0x4e487b7100000000000000000000000000000000000000000000000000000000\n        /* \"#utility.yul\":17401:17402   */\n      0x00\n        /* \"#utility.yul\":17394:17482   */\n      mstore\n        /* \"#utility.yul\":17501:17505   */\n      0x11\n        /* \"#utility.yul\":17498:17499   */\n      0x04\n        /* \"#utility.yul\":17491:17506   */\n      mstore\n        /* \"#utility.yul\":17525:17529   */\n      0x24\n        /* \"#utility.yul\":17522:17523   */\n      0x00\n        /* \"#utility.yul\":17515:17530   */\n      revert\n        /* \"#utility.yul\":17542:17722   */\n    tag_495:\n        /* \"#utility.yul\":17590:17667   */\n      0x4e487b7100000000000000000000000000000000000000000000000000000000\n        /* \"#utility.yul\":17587:17588   */\n      0x00\n        /* \"#utility.yul\":17580:17668   */\n      mstore\n        /* \"#utility.yul\":17687:17691   */\n      0x12\n        /* \"#utility.yul\":17684:17685   */\n      0x04\n        /* \"#utility.yul\":17677:17692   */\n      mstore\n        /* \"#utility.yul\":17711:17715   */\n      0x24\n        /* \"#utility.yul\":17708:17709   */\n      0x00\n        /* \"#utility.yul\":17701:17716   */\n      revert\n        /* \"#utility.yul\":17728:17908   */\n    tag_143:\n        /* \"#utility.yul\":17776:17853   */\n      0x4e487b7100000000000000000000000000000000000000000000000000000000\n        /* \"#utility.yul\":17773:17774   */\n      0x00\n        /* \"#utility.yul\":17766:17854   */\n      mstore\n        /* \"#utility.yul\":17873:17877   */\n      0x32\n        /* \"#utility.yul\":17870:17871   */\n      0x04\n        /* \"#utility.yul\":17863:17878   */\n      mstore\n        /* \"#utility.yul\":17897:17901   */\n      0x24\n        /* \"#utility.yul\":17894:17895   */\n      0x00\n        /* \"#utility.yul\":17887:17902   */\n      revert\n        /* \"#utility.yul\":17914:18094   */\n    tag_482:\n        /* \"#utility.yul\":17962:18039   */\n      0x4e487b7100000000000000000000000000000000000000000000000000000000\n        /* \"#utility.yul\":17959:17960   */\n      0x00\n        /* \"#utility.yul\":17952:18040   */\n      mstore\n        /* \"#utility.yul\":18059:18063   */\n      0x41\n        /* \"#utility.yul\":18056:18057   */\n      0x04\n        /* \"#utility.yul\":18049:18064   */\n      mstore\n        /* \"#utility.yul\":18083:18087   */\n      0x24\n        /* \"#utility.yul\":18080:18081   */\n      0x00\n        /* \"#utility.yul\":18073:18088   */\n      revert\n        /* \"#utility.yul\":18100:18217   */\n    tag_331:\n        /* \"#utility.yul\":18209:18210   */\n      0x00\n        /* \"#utility.yul\":18206:18207   */\n      dup1\n        /* \"#utility.yul\":18199:18211   */\n      revert\n        /* \"#utility.yul\":18223:18340   */\n    tag_318:\n        /* \"#utility.yul\":18332:18333   */\n      0x00\n        /* \"#utility.yul\":18329:18330   */\n      dup1\n        /* \"#utility.yul\":18322:18334   */\n      revert\n        /* \"#utility.yul\":18346:18463   */\n    tag_360:\n        /* \"#utility.yul\":18455:18456   */\n      0x00\n        /* \"#utility.yul\":18452:18453   */\n      dup1\n        /* \"#utility.yul\":18445:18457   */\n      revert\n        /* \"#utility.yul\":18469:18586   */\n    tag_347:\n        /* \"#utility.yul\":18578:18579   */\n      0x00\n        /* \"#utility.yul\":18575:18576   */\n      dup1\n        /* \"#utility.yul\":18568:18580   */\n      revert\n        /* \"#utility.yul\":18592:18694   */\n    tag_522:\n        /* \"#utility.yul\":18633:18639   */\n      0x00\n        /* \"#utility.yul\":18684:18686   */\n      0x1f\n        /* \"#utility.yul\":18680:18687   */\n      not\n        /* \"#utility.yul\":18675:18677   */\n      0x1f\n        /* \"#utility.yul\":18668:18673   */\n      dup4\n        /* \"#utility.yul\":18664:18678   */\n      add\n        /* \"#utility.yul\":18660:18688   */\n      and\n        /* \"#utility.yul\":18650:18688   */\n      swap1\n      pop\n        /* \"#utility.yul\":18592:18694   */\n      swap2\n      swap1\n      pop\n      jump\t// out\n        /* \"#utility.yul\":18700:18925   */\n    tag_388:\n        /* \"#utility.yul\":18840:18874   */\n      0x4f776e61626c653a206e6577206f776e657220697320746865207a65726f2061\n        /* \"#utility.yul\":18836:18837   */\n      0x00\n        /* \"#utility.yul\":18828:18834   */\n      dup3\n        /* \"#utility.yul\":18824:18838   */\n      add\n        /* \"#utility.yul\":18817:18875   */\n      mstore\n        /* \"#utility.yul\":18909:18917   */\n      0x6464726573730000000000000000000000000000000000000000000000000000\n        /* \"#utility.yul\":18904:18906   */\n      0x20\n        /* \"#utility.yul\":18896:18902   */\n      dup3\n        /* \"#utility.yul\":18892:18907   */\n      add\n        /* \"#utility.yul\":18885:18918   */\n      mstore\n        /* \"#utility.yul\":18700:18925   */\n      pop\n      jump\t// out\n        /* \"#utility.yul\":18931:19095   */\n    tag_393:\n        /* \"#utility.yul\":19071:19087   */\n      0x43616e6e6f74207374616b652030000000000000000000000000000000000000\n        /* \"#utility.yul\":19067:19068   */\n      0x00\n        /* \"#utility.yul\":19059:19065   */\n      dup3\n        /* \"#utility.yul\":19055:19069   */\n      add\n        /* \"#utility.yul\":19048:19088   */\n      mstore\n        /* \"#utility.yul\":18931:19095   */\n      pop\n      jump\t// out\n        /* \"#utility.yul\":19101:19278   */\n    tag_398:\n        /* \"#utility.yul\":19241:19270   */\n      0x536166654d6174683a206164646974696f6e206f766572666c6f770000000000\n        /* \"#utility.yul\":19237:19238   */\n      0x00\n        /* \"#utility.yul\":19229:19235   */\n      dup3\n        /* \"#utility.yul\":19225:19239   */\n      add\n        /* \"#utility.yul\":19218:19271   */\n      mstore\n        /* \"#utility.yul\":19101:19278   */\n      pop\n      jump\t// out\n        /* \"#utility.yul\":19284:19508   */\n    tag_403:\n        /* \"#utility.yul\":19424:19458   */\n      0x426f617264726f6f6d3a2043616c6c6572206973206e6f7420746865206f7065\n        /* \"#utility.yul\":19420:19421   */\n      0x00\n        /* \"#utility.yul\":19412:19418   */\n      dup3\n        /* \"#utility.yul\":19408:19422   */\n      add\n        /* \"#utility.yul\":19401:19459   */\n      mstore\n        /* \"#utility.yul\":19493:19500   */\n      0x7261746f72000000000000000000000000000000000000000000000000000000\n        /* \"#utility.yul\":19488:19490   */\n      0x20\n        /* \"#utility.yul\":19480:19486   */\n      dup3\n        /* \"#utility.yul\":19476:19491   */\n      add\n        /* \"#utility.yul\":19469:19501   */\n      mstore\n        /* \"#utility.yul\":19284:19508   */\n      pop\n      jump\t// out\n        /* \"#utility.yul\":19514:19694   */\n    tag_408:\n        /* \"#utility.yul\":19654:19686   */\n      0x536166654d6174683a207375627472616374696f6e206f766572666c6f770000\n        /* \"#utility.yul\":19650:19651   */\n      0x00\n        /* \"#utility.yul\":19642:19648   */\n      dup3\n        /* \"#utility.yul\":19638:19652   */\n      add\n        /* \"#utility.yul\":19631:19687   */\n      mstore\n        /* \"#utility.yul\":19514:19694   */\n      pop\n      jump\t// out\n        /* \"#utility.yul\":19700:19876   */\n    tag_413:\n        /* \"#utility.yul\":19840:19868   */\n      0x536166654d6174683a206469766973696f6e206279207a65726f000000000000\n        /* \"#utility.yul\":19836:19837   */\n      0x00\n        /* \"#utility.yul\":19828:19834   */\n      dup3\n        /* \"#utility.yul\":19824:19838   */\n      add\n        /* \"#utility.yul\":19817:19869   */\n      mstore\n        /* \"#utility.yul\":19700:19876   */\n      pop\n      jump\t// out\n        /* \"#utility.yul\":19882:20060   */\n    tag_418:\n        /* \"#utility.yul\":20022:20052   */\n      0x426f617264726f6f6d3a2043616e6e6f7420616c6c6f63617465203000000000\n        /* \"#utility.yul\":20018:20019   */\n      0x00\n        /* \"#utility.yul\":20010:20016   */\n      dup3\n        /* \"#utility.yul\":20006:20020   */\n      add\n        /* \"#utility.yul\":19999:20053   */\n      mstore\n        /* \"#utility.yul\":19882:20060   */\n      pop\n      jump\t// out\n        /* \"#utility.yul\":20066:20233   */\n    tag_423:\n        /* \"#utility.yul\":20206:20225   */\n      0x43616e6e6f742077697468647261772030000000000000000000000000000000\n        /* \"#utility.yul\":20202:20203   */\n      0x00\n        /* \"#utility.yul\":20194:20200   */\n      dup3\n        /* \"#utility.yul\":20190:20204   */\n      add\n        /* \"#utility.yul\":20183:20226   */\n      mstore\n        /* \"#utility.yul\":20066:20233   */\n      pop\n      jump\t// out\n        /* \"#utility.yul\":20239:20459   */\n    tag_428:\n        /* \"#utility.yul\":20379:20413   */\n      0x536166654d6174683a206d756c7469706c69636174696f6e206f766572666c6f\n        /* \"#utility.yul\":20375:20376   */\n      0x00\n        /* \"#utility.yul\":20367:20373   */\n      dup3\n        /* \"#utility.yul\":20363:20377   */\n      add\n        /* \"#utility.yul\":20356:20414   */\n      mstore\n        /* \"#utility.yul\":20448:20451   */\n      0x7700000000000000000000000000000000000000000000000000000000000000\n        /* \"#utility.yul\":20443:20445   */\n      0x20\n        /* \"#utility.yul\":20435:20441   */\n      dup3\n        /* \"#utility.yul\":20431:20446   */\n      add\n        /* \"#utility.yul\":20424:20452   */\n      mstore\n        /* \"#utility.yul\":20239:20459   */\n      pop\n      jump\t// out\n        /* \"#utility.yul\":20465:20647   */\n    tag_433:\n        /* \"#utility.yul\":20605:20639   */\n      0x4f776e61626c653a2063616c6c6572206973206e6f7420746865206f776e6572\n        /* \"#utility.yul\":20601:20602   */\n      0x00\n        /* \"#utility.yul\":20593:20599   */\n      dup3\n        /* \"#utility.yul\":20589:20603   */\n      add\n        /* \"#utility.yul\":20582:20640   */\n      mstore\n        /* \"#utility.yul\":20465:20647   */\n      pop\n      jump\t// out\n        /* \"#utility.yul\":20653:20775   */\n    tag_326:\n        /* \"#utility.yul\":20726:20750   */\n      tag_549\n        /* \"#utility.yul\":20744:20749   */\n      dup2\n        /* \"#utility.yul\":20726:20750   */\n      tag_374\n      jump\t// in\n    tag_549:\n        /* \"#utility.yul\":20719:20724   */\n      dup2\n        /* \"#utility.yul\":20716:20751   */\n      eq\n        /* \"#utility.yul\":20706:20769   */\n      tag_550\n      jumpi\n        /* \"#utility.yul\":20765:20766   */\n      0x00\n        /* \"#utility.yul\":20762:20763   */\n      dup1\n        /* \"#utility.yul\":20755:20767   */\n      revert\n        /* \"#utility.yul\":20706:20769   */\n    tag_550:\n        /* \"#utility.yul\":20653:20775   */\n      pop\n      jump\t// out\n        /* \"#utility.yul\":20781:20897   */\n    tag_336:\n        /* \"#utility.yul\":20851:20872   */\n      tag_552\n        /* \"#utility.yul\":20866:20871   */\n      dup2\n        /* \"#utility.yul\":20851:20872   */\n      tag_378\n      jump\t// in\n    tag_552:\n        /* \"#utility.yul\":20844:20849   */\n      dup2\n        /* \"#utility.yul\":20841:20873   */\n      eq\n        /* \"#utility.yul\":20831:20891   */\n      tag_553\n      jumpi\n        /* \"#utility.yul\":20887:20888   */\n      0x00\n        /* \"#utility.yul\":20884:20885   */\n      dup1\n        /* \"#utility.yul\":20877:20889   */\n      revert\n        /* \"#utility.yul\":20831:20891   */\n    tag_553:\n        /* \"#utility.yul\":20781:20897   */\n      pop\n      jump\t// out\n        /* \"#utility.yul\":20903:21025   */\n    tag_343:\n        /* \"#utility.yul\":20976:21000   */\n      tag_555\n        /* \"#utility.yul\":20994:20999   */\n      dup2\n        /* \"#utility.yul\":20976:21000   */\n      tag_437\n      jump\t// in\n    tag_555:\n        /* \"#utility.yul\":20969:20974   */\n      dup2\n        /* \"#utility.yul\":20966:21001   */\n      eq\n        /* \"#utility.yul\":20956:21019   */\n      tag_556\n      jumpi\n        /* \"#utility.yul\":21015:21016   */\n      0x00\n        /* \"#utility.yul\":21012:21013   */\n      dup1\n        /* \"#utility.yul\":21005:21017   */\n      revert\n        /* \"#utility.yul\":20956:21019   */\n    tag_556:\n        /* \"#utility.yul\":20903:21025   */\n      pop\n      jump\t// out\n\n    auxdata: 0xa2646970667358221220917ccdc5349db35c0c789b8015aaa5c06d21092c022ceaa42726cfaf8014130e64736f6c63430008070033\n}\n",
				"bytecode": {
					"linkReferences": {},
					"object": "60806040523480156200001157600080fd5b506040516200276c3803806200276c833981810160405281019062000037919062000233565b620000576200004b6200014e60201b60201c565b6200015660201b60201c565b816000806101000a81548173ffffffffffffffffffffffffffffffffffffffff021916908373ffffffffffffffffffffffffffffffffffffffff16021790555080600460006101000a81548173ffffffffffffffffffffffffffffffffffffffff021916908373ffffffffffffffffffffffffffffffffffffffff160217905550600060405180606001604052804381526020016000815260200160008152509050600b8190806001815401808255809150506001900390600052602060002090600302016000909190919091506000820151816000015560208201518160010155604082015181600201555050505050620002cd565b600033905090565b6000600360009054906101000a900473ffffffffffffffffffffffffffffffffffffffff16905081600360006101000a81548173ffffffffffffffffffffffffffffffffffffffff021916908373ffffffffffffffffffffffffffffffffffffffff1602179055508173ffffffffffffffffffffffffffffffffffffffff168173ffffffffffffffffffffffffffffffffffffffff167f8be0079c531659141344cd1fd0a4f28419497f9722a3daafe3b4186f6b6457e060405160405180910390a35050565b6000815190506200022d81620002b3565b92915050565b600080604083850312156200024d576200024c620002ae565b5b60006200025d858286016200021c565b925050602062000270858286016200021c565b9150509250929050565b600062000287826200028e565b9050919050565b600073ffffffffffffffffffffffffffffffffffffffff82169050919050565b600080fd5b620002be816200027a565b8114620002ca57600080fd5b50565b61248f80620002dd6000396000f3fe608060405234801561001057600080fd5b50600436106101725760003560e01c8063714b4658116100de578063a25e689811610097578063c8f33c9111610071578063c8f33c9114610439578063df136d6514610457578063e9fad8ee14610475578063f2fde38b1461047f57610172565b8063a25e6898146103cf578063a694fc3a146103ff578063b59c6e0e1461041b57610172565b8063714b46581461030d578063715018a61461033d5780638525feed146103475780638b876347146103655780638da5cb5b1461039557806390ca796b146103b357610172565b80632e1a7d4d116101305780632e1a7d4d1461025f5780633d18b9121461027b5780633f9e3f0414610285578063446a2ec8146102a357806366cf5880146102c157806370a08231146102dd57610172565b80628cc262146101775780630700037d146101a757806313e7c9d8146101d757806318160ddd146102075780631be05289146102255780631ed6144e14610243575b600080fd5b610191600480360381019061018c91906119dc565b61049b565b60405161019e9190611e9d565b60405180910390f35b6101c160048036038101906101bc91906119dc565b610567565b6040516101ce9190611e9d565b60405180910390f35b6101f160048036038101906101ec91906119dc565b61057f565b6040516101fe9190611d27565b60405180910390f35b61020f61059f565b60405161021c9190611e9d565b60405180910390f35b61022d6105a9565b60405161023a9190611e9d565b60405180910390f35b61025d60048036038101906102589190611a5c565b6105b0565b005b61027960048036038101906102749190611ae5565b61064d565b005b6102836107fe565b005b61028d610aac565b60405161029a9190611e9d565b60405180910390f35b6102ab610acc565b6040516102b89190611e9d565b60405180910390f35b6102db60048036038101906102d69190611ae5565b610adf565b005b6102f760048036038101906102f291906119dc565b610c49565b6040516103049190611e9d565b60405180910390f35b610327600480360381019061032291906119dc565b610c92565b6040516103349190611e9d565b60405180910390f35b610345610cde565b005b61034f610cf2565b60405161035c9190611d42565b60405180910390f35b61037f600480360381019061037a91906119dc565b610d16565b60405161038c9190611e9d565b60405180910390f35b61039d610d2e565b6040516103aa9190611cac565b60405180910390f35b6103cd60048036038101906103c89190611ae5565b610d58565b005b6103e960048036038101906103e49190611a09565b610e81565b6040516103f69190611d27565b60405180910390f35b61041960048036038101906104149190611ae5565b610f21565b005b6104236110d2565b6040516104309190611d42565b60405180910390f35b6104416110f8565b60405161044e9190611e9d565b60405180910390f35b61045f6110fe565b60405161046c9190611e9d565b60405180910390f35b61047d611104565b005b610499600480360381019061049491906119dc565b61111f565b005b6000806104a66111a3565b60400151905060006104b784611202565b604001519050600061055a600a60008773ffffffffffffffffffffffffffffffffffffffff1673ffffffffffffffffffffffffffffffffffffffff1681526020019081526020016000206001015461054c670de0b6b3a764000061053e610527878961126490919063ffffffff16565b6105308b610c49565b6112bd90919063ffffffff16565b61133890919063ffffffff16565b61139090919063ffffffff16565b9050809350505050919050565b60086020528060005260406000206000915090505481565b60096020528060005260406000206000915054906101000a900460ff1681565b6000600154905090565b6201518081565b6105b86113ee565b60005b82518110156106485781600960008584815181106105dc576105db612185565b5b602002602001015173ffffffffffffffffffffffffffffffffffffffff1673ffffffffffffffffffffffffffffffffffffffff16815260200190815260200160002060006101000a81548160ff0219169083151502179055508080610640906120de565b9150506105bb565b505050565b33600073ffffffffffffffffffffffffffffffffffffffff168173ffffffffffffffffffffffffffffffffffffffff1614610760576000600a60008373ffffffffffffffffffffffffffffffffffffffff1673ffffffffffffffffffffffffffffffffffffffff1681526020019081526020016000206040518060400160405290816000820154815260200160018201548152505090506106ed8261049b565b8160200181815250506106fe610aac565b81600001818152505080600a60008473ffffffffffffffffffffffffffffffffffffffff1673ffffffffffffffffffffffffffffffffffffffff1681526020019081526020016000206000820151816000015560208201518160010155905050505b600082116107a3576040517f08c379a000000000000000000000000000000000000000000000000000000000815260040161079a90611e3d565b60405180910390fd5b6107ac8261146c565b3373ffffffffffffffffffffffffffffffffffffffff167f7084f5476618d8e60b11ef0d7d3f06914655adb8793e28ff7f018d4c76d505d5836040516107f29190611e9d565b60405180910390a25050565b33600073ffffffffffffffffffffffffffffffffffffffff168173ffffffffffffffffffffffffffffffffffffffff1614610911576000600a60008373ffffffffffffffffffffffffffffffffffffffff1673ffffffffffffffffffffffffffffffffffffffff16815260200190815260200160002060405180604001604052908160008201548152602001600182015481525050905061089e8261049b565b8160200181815250506108af610aac565b81600001818152505080600a60008473ffffffffffffffffffffffffffffffffffffffff1673ffffffffffffffffffffffffffffffffffffffff1681526020019081526020016000206000820151816000015560208201518160010155905050505b6000600a60003373ffffffffffffffffffffffffffffffffffffffff1673ffffffffffffffffffffffffffffffffffffffff1681526020019081526020016000206001015490506000811115610aa8576000600a60003373ffffffffffffffffffffffffffffffffffffffff1673ffffffffffffffffffffffffffffffffffffffff16815260200190815260200160002060010181905550600460009054906101000a900473ffffffffffffffffffffffffffffffffffffffff1673ffffffffffffffffffffffffffffffffffffffff1663a9059cbb33836040518363ffffffff1660e01b8152600401610a06929190611cfe565b602060405180830381600087803b158015610a2057600080fd5b505af1158015610a34573d6000803e3d6000fd5b505050506040513d601f19601f82011682018060405250810190610a589190611ab8565b503373ffffffffffffffffffffffffffffffffffffffff167fe2403640ba68fed3a2f88b7557551d1993f84b99bb10ff833f0cf8db0c5e048682604051610a9f9190611e9d565b60405180910390a25b5050565b6000610ac76001600b8054905061126490919063ffffffff16565b905090565b6000610ad66111a3565b60400151905090565b60008111610b22576040517f08c379a0000000000000000000000000000000000000000000000000000000008152600401610b1990611e1d565b60405180910390fd5b6000610b2c61059f565b1115610c4657610b3b816115cd565b6000811115610bf757600460009054906101000a900473ffffffffffffffffffffffffffffffffffffffff1673ffffffffffffffffffffffffffffffffffffffff166323b872dd3330846040518463ffffffff1660e01b8152600401610ba393929190611cc7565b602060405180830381600087803b158015610bbd57600080fd5b505af1158015610bd1573d6000803e3d6000fd5b505050506040513d601f19601f82011682018060405250810190610bf59190611ab8565b505b3373ffffffffffffffffffffffffffffffffffffffff167fac24935fd910bc682b5ccb1a07b718cadf8cf2f6d1404c4f3ddc3662dae40e2982604051610c3d9190611e9d565b60405180910390a25b50565b6000600260008373ffffffffffffffffffffffffffffffffffffffff1673ffffffffffffffffffffffffffffffffffffffff168152602001908152602001600020549050919050565b6000600a60008373ffffffffffffffffffffffffffffffffffffffff1673ffffffffffffffffffffffffffffffffffffffff168152602001908152602001600020600001549050919050565b610ce66113ee565b610cf06000611698565b565b60008054906101000a900473ffffffffffffffffffffffffffffffffffffffff1681565b60076020528060005260406000206000915090505481565b6000600360009054906101000a900473ffffffffffffffffffffffffffffffffffffffff16905090565b600960003373ffffffffffffffffffffffffffffffffffffffff1673ffffffffffffffffffffffffffffffffffffffff16815260200190815260200160002060009054906101000a900460ff16610de4576040517f08c379a0000000000000000000000000000000000000000000000000000000008152600401610ddb90611dbd565b60405180910390fd5b60008111610e27576040517f08c379a0000000000000000000000000000000000000000000000000000000008152600401610e1e90611e1d565b60405180910390fd5b610e30816115cd565b3373ffffffffffffffffffffffffffffffffffffffff167fac24935fd910bc682b5ccb1a07b718cadf8cf2f6d1404c4f3ddc3662dae40e2982604051610e769190611e9d565b60405180910390a250565b6000610e8b6113ee565b8373ffffffffffffffffffffffffffffffffffffffff1663a9059cbb84846040518363ffffffff1660e01b8152600401610ec6929190611cfe565b602060405180830381600087803b158015610ee057600080fd5b505af1158015610ef4573d6000803e3d6000fd5b505050506040513d601f19601f82011682018060405250810190610f189190611ab8565b90509392505050565b33600073ffffffffffffffffffffffffffffffffffffffff168173ffffffffffffffffffffffffffffffffffffffff1614611034576000600a60008373ffffffffffffffffffffffffffffffffffffffff1673ffffffffffffffffffffffffffffffffffffffff168152602001908152602001600020604051806040016040529081600082015481526020016001820154815250509050610fc18261049b565b816020018181525050610fd2610aac565b81600001818152505080600a60008473ffffffffffffffffffffffffffffffffffffffff1673ffffffffffffffffffffffffffffffffffffffff1681526020019081526020016000206000820151816000015560208201518160010155905050505b60008211611077576040517f08c379a000000000000000000000000000000000000000000000000000000000815260040161106e90611d7d565b60405180910390fd5b6110808261175e565b3373ffffffffffffffffffffffffffffffffffffffff167f9e71bc8eea02a63969f509818f2dafb9254532904319f9dbda79b67bd34a5f3d836040516110c69190611e9d565b60405180910390a25050565b600460009054906101000a900473ffffffffffffffffffffffffffffffffffffffff1681565b60055481565b60065481565b61111561111033610c49565b61064d565b61111d6107fe565b565b6111276113ee565b600073ffffffffffffffffffffffffffffffffffffffff168173ffffffffffffffffffffffffffffffffffffffff161415611197576040517f08c379a000000000000000000000000000000000000000000000000000000000815260040161118e90611d5d565b60405180910390fd5b6111a081611698565b50565b6111ab6118c9565b600b6111b5610aac565b815481106111c6576111c5612185565b5b90600052602060002090600302016040518060600160405290816000820154815260200160018201548152602001600282015481525050905090565b61120a6118c9565b600b61121583610c92565b8154811061122657611225612185565b5b906000526020600020906003020160405180606001604052908160008201548152602001600182015481526020016002820154815250509050919050565b6000828211156112a9576040517f08c379a00000000000000000000000000000000000000000000000000000000081526004016112a090611ddd565b60405180910390fd5b81836112b59190611ffb565b905092915050565b6000808314156112d05760009050611332565b600082846112de9190611fa1565b90508284826112ed9190611f70565b1461132d576040517f08c379a000000000000000000000000000000000000000000000000000000000815260040161132490611e5d565b60405180910390fd5b809150505b92915050565b600080821161137c576040517f08c379a000000000000000000000000000000000000000000000000000000000815260040161137390611dfd565b60405180910390fd5b81836113889190611f70565b905092915050565b600080828461139f9190611f1a565b9050838110156113e4576040517f08c379a00000000000000000000000000000000000000000000000000000000081526004016113db90611d9d565b60405180910390fd5b8091505092915050565b6113f66118c1565b73ffffffffffffffffffffffffffffffffffffffff16611414610d2e565b73ffffffffffffffffffffffffffffffffffffffff161461146a576040517f08c379a000000000000000000000000000000000000000000000000000000000815260040161146190611e7d565b60405180910390fd5b565b6114818160015461126490919063ffffffff16565b6001819055506114d981600260003373ffffffffffffffffffffffffffffffffffffffff1673ffffffffffffffffffffffffffffffffffffffff1681526020019081526020016000205461126490919063ffffffff16565b600260003373ffffffffffffffffffffffffffffffffffffffff1673ffffffffffffffffffffffffffffffffffffffff1681526020019081526020016000208190555060008054906101000a900473ffffffffffffffffffffffffffffffffffffffff1673ffffffffffffffffffffffffffffffffffffffff1663a9059cbb33836040518363ffffffff1660e01b8152600401611577929190611cfe565b602060405180830381600087803b15801561159157600080fd5b505af11580156115a5573d6000803e3d6000fd5b505050506040513d601f19601f820116820180604052508101906115c99190611ab8565b5050565b60006115d76111a3565b60400151905060006116256116166115ed61059f565b611608670de0b6b3a7640000876112bd90919063ffffffff16565b61133890919063ffffffff16565b8361139090919063ffffffff16565b905060006040518060600160405280438152602001858152602001838152509050600b819080600181540180825580915050600190039060005260206000209060030201600090919091909150600082015181600001556020820151816001015560408201518160020155505050505050565b6000600360009054906101000a900473ffffffffffffffffffffffffffffffffffffffff16905081600360006101000a81548173ffffffffffffffffffffffffffffffffffffffff021916908373ffffffffffffffffffffffffffffffffffffffff1602179055508173ffffffffffffffffffffffffffffffffffffffff168173ffffffffffffffffffffffffffffffffffffffff167f8be0079c531659141344cd1fd0a4f28419497f9722a3daafe3b4186f6b6457e060405160405180910390a35050565b6117738160015461139090919063ffffffff16565b6001819055506117cb81600260003373ffffffffffffffffffffffffffffffffffffffff1673ffffffffffffffffffffffffffffffffffffffff1681526020019081526020016000205461139090919063ffffffff16565b600260003373ffffffffffffffffffffffffffffffffffffffff1673ffffffffffffffffffffffffffffffffffffffff1681526020019081526020016000208190555060008054906101000a900473ffffffffffffffffffffffffffffffffffffffff1673ffffffffffffffffffffffffffffffffffffffff166323b872dd3330846040518463ffffffff1660e01b815260040161186b93929190611cc7565b602060405180830381600087803b15801561188557600080fd5b505af1158015611899573d6000803e3d6000fd5b505050506040513d601f19601f820116820180604052508101906118bd9190611ab8565b5050565b600033905090565b60405180606001604052806000815260200160008152602001600081525090565b60006118fd6118f884611edd565b611eb8565b905080838252602082019050828560208602820111156119205761191f6121e8565b5b60005b858110156119505781611936888261195a565b845260208401935060208301925050600181019050611923565b5050509392505050565b60008135905061196981612414565b92915050565b600082601f830112611984576119836121e3565b5b81356119948482602086016118ea565b91505092915050565b6000813590506119ac8161242b565b92915050565b6000815190506119c18161242b565b92915050565b6000813590506119d681612442565b92915050565b6000602082840312156119f2576119f16121f2565b5b6000611a008482850161195a565b91505092915050565b600080600060608486031215611a2257611a216121f2565b5b6000611a308682870161195a565b9350506020611a418682870161195a565b9250506040611a52868287016119c7565b9150509250925092565b60008060408385031215611a7357611a726121f2565b5b600083013567ffffffffffffffff811115611a9157611a906121ed565b5b611a9d8582860161196f565b9250506020611aae8582860161199d565b9150509250929050565b600060208284031215611ace57611acd6121f2565b5b6000611adc848285016119b2565b91505092915050565b600060208284031215611afb57611afa6121f2565b5b6000611b09848285016119c7565b91505092915050565b611b1b8161202f565b82525050565b611b2a81612041565b82525050565b611b3981612077565b82525050565b6000611b4c602683611f09565b9150611b5782612208565b604082019050919050565b6000611b6f600e83611f09565b9150611b7a82612257565b602082019050919050565b6000611b92601b83611f09565b9150611b9d82612280565b602082019050919050565b6000611bb5602583611f09565b9150611bc0826122a9565b604082019050919050565b6000611bd8601e83611f09565b9150611be3826122f8565b602082019050919050565b6000611bfb601a83611f09565b9150611c0682612321565b602082019050919050565b6000611c1e601c83611f09565b9150611c298261234a565b602082019050919050565b6000611c41601183611f09565b9150611c4c82612373565b602082019050919050565b6000611c64602183611f09565b9150611c6f8261239c565b604082019050919050565b6000611c87602083611f09565b9150611c92826123eb565b602082019050919050565b611ca68161206d565b82525050565b6000602082019050611cc16000830184611b12565b92915050565b6000606082019050611cdc6000830186611b12565b611ce96020830185611b12565b611cf66040830184611c9d565b949350505050565b6000604082019050611d136000830185611b12565b611d206020830184611c9d565b9392505050565b6000602082019050611d3c6000830184611b21565b92915050565b6000602082019050611d576000830184611b30565b92915050565b60006020820190508181036000830152611d7681611b3f565b9050919050565b60006020820190508181036000830152611d9681611b62565b9050919050565b60006020820190508181036000830152611db681611b85565b9050919050565b60006020820190508181036000830152611dd681611ba8565b9050919050565b60006020820190508181036000830152611df681611bcb565b9050919050565b60006020820190508181036000830152611e1681611bee565b9050919050565b60006020820190508181036000830152611e3681611c11565b9050919050565b60006020820190508181036000830152611e5681611c34565b9050919050565b60006020820190508181036000830152611e7681611c57565b9050919050565b60006020820190508181036000830152611e9681611c7a565b9050919050565b6000602082019050611eb26000830184611c9d565b92915050565b6000611ec2611ed3565b9050611ece82826120ad565b919050565b6000604051905090565b600067ffffffffffffffff821115611ef857611ef76121b4565b5b602082029050602081019050919050565b600082825260208201905092915050565b6000611f258261206d565b9150611f308361206d565b9250827fffffffffffffffffffffffffffffffffffffffffffffffffffffffffffffffff03821115611f6557611f64612127565b5b828201905092915050565b6000611f7b8261206d565b9150611f868361206d565b925082611f9657611f95612156565b5b828204905092915050565b6000611fac8261206d565b9150611fb78361206d565b9250817fffffffffffffffffffffffffffffffffffffffffffffffffffffffffffffffff0483118215151615611ff057611fef612127565b5b828202905092915050565b60006120068261206d565b91506120118361206d565b92508282101561202457612023612127565b5b828203905092915050565b600061203a8261204d565b9050919050565b60008115159050919050565b600073ffffffffffffffffffffffffffffffffffffffff82169050919050565b6000819050919050565b600061208282612089565b9050919050565b60006120948261209b565b9050919050565b60006120a68261204d565b9050919050565b6120b6826121f7565b810181811067ffffffffffffffff821117156120d5576120d46121b4565b5b80604052505050565b60006120e98261206d565b91507fffffffffffffffffffffffffffffffffffffffffffffffffffffffffffffffff82141561211c5761211b612127565b5b600182019050919050565b7f4e487b7100000000000000000000000000000000000000000000000000000000600052601160045260246000fd5b7f4e487b7100000000000000000000000000000000000000000000000000000000600052601260045260246000fd5b7f4e487b7100000000000000000000000000000000000000000000000000000000600052603260045260246000fd5b7f4e487b7100000000000000000000000000000000000000000000000000000000600052604160045260246000fd5b600080fd5b600080fd5b600080fd5b600080fd5b6000601f19601f8301169050919050565b7f4f776e61626c653a206e6577206f776e657220697320746865207a65726f206160008201527f6464726573730000000000000000000000000000000000000000000000000000602082015250565b7f43616e6e6f74207374616b652030000000000000000000000000000000000000600082015250565b7f536166654d6174683a206164646974696f6e206f766572666c6f770000000000600082015250565b7f426f617264726f6f6d3a2043616c6c6572206973206e6f7420746865206f706560008201527f7261746f72000000000000000000000000000000000000000000000000000000602082015250565b7f536166654d6174683a207375627472616374696f6e206f766572666c6f770000600082015250565b7f536166654d6174683a206469766973696f6e206279207a65726f000000000000600082015250565b7f426f617264726f6f6d3a2043616e6e6f7420616c6c6f63617465203000000000600082015250565b7f43616e6e6f742077697468647261772030000000000000000000000000000000600082015250565b7f536166654d6174683a206d756c7469706c69636174696f6e206f766572666c6f60008201527f7700000000000000000000000000000000000000000000000000000000000000602082015250565b7f4f776e61626c653a2063616c6c6572206973206e6f7420746865206f776e6572600082015250565b61241d8161202f565b811461242857600080fd5b50565b61243481612041565b811461243f57600080fd5b50565b61244b8161206d565b811461245657600080fd5b5056fea2646970667358221220917ccdc5349db35c0c789b8015aaa5c06d21092c022ceaa42726cfaf8014130e64736f6c63430008070033",
					"opcodes": "PUSH1 0x80 PUSH1 0x40 MSTORE CALLVALUE DUP1 ISZERO PUSH3 0x11 JUMPI PUSH1 0x0 DUP1 REVERT JUMPDEST POP PUSH1 0x40 MLOAD PUSH3 0x276C CODESIZE SUB DUP1 PUSH3 0x276C DUP4 CODECOPY DUP2 DUP2 ADD PUSH1 0x40 MSTORE DUP2 ADD SWAP1 PUSH3 0x37 SWAP2 SWAP1 PUSH3 0x233 JUMP JUMPDEST PUSH3 0x57 PUSH3 0x4B PUSH3 0x14E PUSH1 0x20 SHL PUSH1 0x20 SHR JUMP JUMPDEST PUSH3 0x156 PUSH1 0x20 SHL PUSH1 0x20 SHR JUMP JUMPDEST DUP2 PUSH1 0x0 DUP1 PUSH2 0x100 EXP DUP2 SLOAD DUP2 PUSH20 0xFFFFFFFFFFFFFFFFFFFFFFFFFFFFFFFFFFFFFFFF MUL NOT AND SWAP1 DUP4 PUSH20 0xFFFFFFFFFFFFFFFFFFFFFFFFFFFFFFFFFFFFFFFF AND MUL OR SWAP1 SSTORE POP DUP1 PUSH1 0x4 PUSH1 0x0 PUSH2 0x100 EXP DUP2 SLOAD DUP2 PUSH20 0xFFFFFFFFFFFFFFFFFFFFFFFFFFFFFFFFFFFFFFFF MUL NOT AND SWAP1 DUP4 PUSH20 0xFFFFFFFFFFFFFFFFFFFFFFFFFFFFFFFFFFFFFFFF AND MUL OR SWAP1 SSTORE POP PUSH1 0x0 PUSH1 0x40 MLOAD DUP1 PUSH1 0x60 ADD PUSH1 0x40 MSTORE DUP1 NUMBER DUP2 MSTORE PUSH1 0x20 ADD PUSH1 0x0 DUP2 MSTORE PUSH1 0x20 ADD PUSH1 0x0 DUP2 MSTORE POP SWAP1 POP PUSH1 0xB DUP2 SWAP1 DUP1 PUSH1 0x1 DUP2 SLOAD ADD DUP1 DUP3 SSTORE DUP1 SWAP2 POP POP PUSH1 0x1 SWAP1 SUB SWAP1 PUSH1 0x0 MSTORE PUSH1 0x20 PUSH1 0x0 KECCAK256 SWAP1 PUSH1 0x3 MUL ADD PUSH1 0x0 SWAP1 SWAP2 SWAP1 SWAP2 SWAP1 SWAP2 POP PUSH1 0x0 DUP3 ADD MLOAD DUP2 PUSH1 0x0 ADD SSTORE PUSH1 0x20 DUP3 ADD MLOAD DUP2 PUSH1 0x1 ADD SSTORE PUSH1 0x40 DUP3 ADD MLOAD DUP2 PUSH1 0x2 ADD SSTORE POP POP POP POP POP PUSH3 0x2CD JUMP JUMPDEST PUSH1 0x0 CALLER SWAP1 POP SWAP1 JUMP JUMPDEST PUSH1 0x0 PUSH1 0x3 PUSH1 0x0 SWAP1 SLOAD SWAP1 PUSH2 0x100 EXP SWAP1 DIV PUSH20 0xFFFFFFFFFFFFFFFFFFFFFFFFFFFFFFFFFFFFFFFF AND SWAP1 POP DUP2 PUSH1 0x3 PUSH1 0x0 PUSH2 0x100 EXP DUP2 SLOAD DUP2 PUSH20 0xFFFFFFFFFFFFFFFFFFFFFFFFFFFFFFFFFFFFFFFF MUL NOT AND SWAP1 DUP4 PUSH20 0xFFFFFFFFFFFFFFFFFFFFFFFFFFFFFFFFFFFFFFFF AND MUL OR SWAP1 SSTORE POP DUP2 PUSH20 0xFFFFFFFFFFFFFFFFFFFFFFFFFFFFFFFFFFFFFFFF AND DUP2 PUSH20 0xFFFFFFFFFFFFFFFFFFFFFFFFFFFFFFFFFFFFFFFF AND PUSH32 0x8BE0079C531659141344CD1FD0A4F28419497F9722A3DAAFE3B4186F6B6457E0 PUSH1 0x40 MLOAD PUSH1 0x40 MLOAD DUP1 SWAP2 SUB SWAP1 LOG3 POP POP JUMP JUMPDEST PUSH1 0x0 DUP2 MLOAD SWAP1 POP PUSH3 0x22D DUP2 PUSH3 0x2B3 JUMP JUMPDEST SWAP3 SWAP2 POP POP JUMP JUMPDEST PUSH1 0x0 DUP1 PUSH1 0x40 DUP4 DUP6 SUB SLT ISZERO PUSH3 0x24D JUMPI PUSH3 0x24C PUSH3 0x2AE JUMP JUMPDEST JUMPDEST PUSH1 0x0 PUSH3 0x25D DUP6 DUP3 DUP7 ADD PUSH3 0x21C JUMP JUMPDEST SWAP3 POP POP PUSH1 0x20 PUSH3 0x270 DUP6 DUP3 DUP7 ADD PUSH3 0x21C JUMP JUMPDEST SWAP2 POP POP SWAP3 POP SWAP3 SWAP1 POP JUMP JUMPDEST PUSH1 0x0 PUSH3 0x287 DUP3 PUSH3 0x28E JUMP JUMPDEST SWAP1 POP SWAP2 SWAP1 POP JUMP JUMPDEST PUSH1 0x0 PUSH20 0xFFFFFFFFFFFFFFFFFFFFFFFFFFFFFFFFFFFFFFFF DUP3 AND SWAP1 POP SWAP2 SWAP1 POP JUMP JUMPDEST PUSH1 0x0 DUP1 REVERT JUMPDEST PUSH3 0x2BE DUP2 PUSH3 0x27A JUMP JUMPDEST DUP2 EQ PUSH3 0x2CA JUMPI PUSH1 0x0 DUP1 REVERT JUMPDEST POP JUMP JUMPDEST PUSH2 0x248F DUP1 PUSH3 0x2DD PUSH1 0x0 CODECOPY PUSH1 0x0 RETURN INVALID PUSH1 0x80 PUSH1 0x40 MSTORE CALLVALUE DUP1 ISZERO PUSH2 0x10 JUMPI PUSH1 0x0 DUP1 REVERT JUMPDEST POP PUSH1 0x4 CALLDATASIZE LT PUSH2 0x172 JUMPI PUSH1 0x0 CALLDATALOAD PUSH1 0xE0 SHR DUP1 PUSH4 0x714B4658 GT PUSH2 0xDE JUMPI DUP1 PUSH4 0xA25E6898 GT PUSH2 0x97 JUMPI DUP1 PUSH4 0xC8F33C91 GT PUSH2 0x71 JUMPI DUP1 PUSH4 0xC8F33C91 EQ PUSH2 0x439 JUMPI DUP1 PUSH4 0xDF136D65 EQ PUSH2 0x457 JUMPI DUP1 PUSH4 0xE9FAD8EE EQ PUSH2 0x475 JUMPI DUP1 PUSH4 0xF2FDE38B EQ PUSH2 0x47F JUMPI PUSH2 0x172 JUMP JUMPDEST DUP1 PUSH4 0xA25E6898 EQ PUSH2 0x3CF JUMPI DUP1 PUSH4 0xA694FC3A EQ PUSH2 0x3FF JUMPI DUP1 PUSH4 0xB59C6E0E EQ PUSH2 0x41B JUMPI PUSH2 0x172 JUMP JUMPDEST DUP1 PUSH4 0x714B4658 EQ PUSH2 0x30D JUMPI DUP1 PUSH4 0x715018A6 EQ PUSH2 0x33D JUMPI DUP1 PUSH4 0x8525FEED EQ PUSH2 0x347 JUMPI DUP1 PUSH4 0x8B876347 EQ PUSH2 0x365 JUMPI DUP1 PUSH4 0x8DA5CB5B EQ PUSH2 0x395 JUMPI DUP1 PUSH4 0x90CA796B EQ PUSH2 0x3B3 JUMPI PUSH2 0x172 JUMP JUMPDEST DUP1 PUSH4 0x2E1A7D4D GT PUSH2 0x130 JUMPI DUP1 PUSH4 0x2E1A7D4D EQ PUSH2 0x25F JUMPI DUP1 PUSH4 0x3D18B912 EQ PUSH2 0x27B JUMPI DUP1 PUSH4 0x3F9E3F04 EQ PUSH2 0x285 JUMPI DUP1 PUSH4 0x446A2EC8 EQ PUSH2 0x2A3 JUMPI DUP1 PUSH4 0x66CF5880 EQ PUSH2 0x2C1 JUMPI DUP1 PUSH4 0x70A08231 EQ PUSH2 0x2DD JUMPI PUSH2 0x172 JUMP JUMPDEST DUP1 PUSH3 0x8CC262 EQ PUSH2 0x177 JUMPI DUP1 PUSH4 0x700037D EQ PUSH2 0x1A7 JUMPI DUP1 PUSH4 0x13E7C9D8 EQ PUSH2 0x1D7 JUMPI DUP1 PUSH4 0x18160DDD EQ PUSH2 0x207 JUMPI DUP1 PUSH4 0x1BE05289 EQ PUSH2 0x225 JUMPI DUP1 PUSH4 0x1ED6144E EQ PUSH2 0x243 JUMPI JUMPDEST PUSH1 0x0 DUP1 REVERT JUMPDEST PUSH2 0x191 PUSH1 0x4 DUP1 CALLDATASIZE SUB DUP2 ADD SWAP1 PUSH2 0x18C SWAP2 SWAP1 PUSH2 0x19DC JUMP JUMPDEST PUSH2 0x49B JUMP JUMPDEST PUSH1 0x40 MLOAD PUSH2 0x19E SWAP2 SWAP1 PUSH2 0x1E9D JUMP JUMPDEST PUSH1 0x40 MLOAD DUP1 SWAP2 SUB SWAP1 RETURN JUMPDEST PUSH2 0x1C1 PUSH1 0x4 DUP1 CALLDATASIZE SUB DUP2 ADD SWAP1 PUSH2 0x1BC SWAP2 SWAP1 PUSH2 0x19DC JUMP JUMPDEST PUSH2 0x567 JUMP JUMPDEST PUSH1 0x40 MLOAD PUSH2 0x1CE SWAP2 SWAP1 PUSH2 0x1E9D JUMP JUMPDEST PUSH1 0x40 MLOAD DUP1 SWAP2 SUB SWAP1 RETURN JUMPDEST PUSH2 0x1F1 PUSH1 0x4 DUP1 CALLDATASIZE SUB DUP2 ADD SWAP1 PUSH2 0x1EC SWAP2 SWAP1 PUSH2 0x19DC JUMP JUMPDEST PUSH2 0x57F JUMP JUMPDEST PUSH1 0x40 MLOAD PUSH2 0x1FE SWAP2 SWAP1 PUSH2 0x1D27 JUMP JUMPDEST PUSH1 0x40 MLOAD DUP1 SWAP2 SUB SWAP1 RETURN JUMPDEST PUSH2 0x20F PUSH2 0x59F JUMP JUMPDEST PUSH1 0x40 MLOAD PUSH2 0x21C SWAP2 SWAP1 PUSH2 0x1E9D JUMP JUMPDEST PUSH1 0x40 MLOAD DUP1 SWAP2 SUB SWAP1 RETURN JUMPDEST PUSH2 0x22D PUSH2 0x5A9 JUMP JUMPDEST PUSH1 0x40 MLOAD PUSH2 0x23A SWAP2 SWAP1 PUSH2 0x1E9D JUMP JUMPDEST PUSH1 0x40 MLOAD DUP1 SWAP2 SUB SWAP1 RETURN JUMPDEST PUSH2 0x25D PUSH1 0x4 DUP1 CALLDATASIZE SUB DUP2 ADD SWAP1 PUSH2 0x258 SWAP2 SWAP1 PUSH2 0x1A5C JUMP JUMPDEST PUSH2 0x5B0 JUMP JUMPDEST STOP JUMPDEST PUSH2 0x279 PUSH1 0x4 DUP1 CALLDATASIZE SUB DUP2 ADD SWAP1 PUSH2 0x274 SWAP2 SWAP1 PUSH2 0x1AE5 JUMP JUMPDEST PUSH2 0x64D JUMP JUMPDEST STOP JUMPDEST PUSH2 0x283 PUSH2 0x7FE JUMP JUMPDEST STOP JUMPDEST PUSH2 0x28D PUSH2 0xAAC JUMP JUMPDEST PUSH1 0x40 MLOAD PUSH2 0x29A SWAP2 SWAP1 PUSH2 0x1E9D JUMP JUMPDEST PUSH1 0x40 MLOAD DUP1 SWAP2 SUB SWAP1 RETURN JUMPDEST PUSH2 0x2AB PUSH2 0xACC JUMP JUMPDEST PUSH1 0x40 MLOAD PUSH2 0x2B8 SWAP2 SWAP1 PUSH2 0x1E9D JUMP JUMPDEST PUSH1 0x40 MLOAD DUP1 SWAP2 SUB SWAP1 RETURN JUMPDEST PUSH2 0x2DB PUSH1 0x4 DUP1 CALLDATASIZE SUB DUP2 ADD SWAP1 PUSH2 0x2D6 SWAP2 SWAP1 PUSH2 0x1AE5 JUMP JUMPDEST PUSH2 0xADF JUMP JUMPDEST STOP JUMPDEST PUSH2 0x2F7 PUSH1 0x4 DUP1 CALLDATASIZE SUB DUP2 ADD SWAP1 PUSH2 0x2F2 SWAP2 SWAP1 PUSH2 0x19DC JUMP JUMPDEST PUSH2 0xC49 JUMP JUMPDEST PUSH1 0x40 MLOAD PUSH2 0x304 SWAP2 SWAP1 PUSH2 0x1E9D JUMP JUMPDEST PUSH1 0x40 MLOAD DUP1 SWAP2 SUB SWAP1 RETURN JUMPDEST PUSH2 0x327 PUSH1 0x4 DUP1 CALLDATASIZE SUB DUP2 ADD SWAP1 PUSH2 0x322 SWAP2 SWAP1 PUSH2 0x19DC JUMP JUMPDEST PUSH2 0xC92 JUMP JUMPDEST PUSH1 0x40 MLOAD PUSH2 0x334 SWAP2 SWAP1 PUSH2 0x1E9D JUMP JUMPDEST PUSH1 0x40 MLOAD DUP1 SWAP2 SUB SWAP1 RETURN JUMPDEST PUSH2 0x345 PUSH2 0xCDE JUMP JUMPDEST STOP JUMPDEST PUSH2 0x34F PUSH2 0xCF2 JUMP JUMPDEST PUSH1 0x40 MLOAD PUSH2 0x35C SWAP2 SWAP1 PUSH2 0x1D42 JUMP JUMPDEST PUSH1 0x40 MLOAD DUP1 SWAP2 SUB SWAP1 RETURN JUMPDEST PUSH2 0x37F PUSH1 0x4 DUP1 CALLDATASIZE SUB DUP2 ADD SWAP1 PUSH2 0x37A SWAP2 SWAP1 PUSH2 0x19DC JUMP JUMPDEST PUSH2 0xD16 JUMP JUMPDEST PUSH1 0x40 MLOAD PUSH2 0x38C SWAP2 SWAP1 PUSH2 0x1E9D JUMP JUMPDEST PUSH1 0x40 MLOAD DUP1 SWAP2 SUB SWAP1 RETURN JUMPDEST PUSH2 0x39D PUSH2 0xD2E JUMP JUMPDEST PUSH1 0x40 MLOAD PUSH2 0x3AA SWAP2 SWAP1 PUSH2 0x1CAC JUMP JUMPDEST PUSH1 0x40 MLOAD DUP1 SWAP2 SUB SWAP1 RETURN JUMPDEST PUSH2 0x3CD PUSH1 0x4 DUP1 CALLDATASIZE SUB DUP2 ADD SWAP1 PUSH2 0x3C8 SWAP2 SWAP1 PUSH2 0x1AE5 JUMP JUMPDEST PUSH2 0xD58 JUMP JUMPDEST STOP JUMPDEST PUSH2 0x3E9 PUSH1 0x4 DUP1 CALLDATASIZE SUB DUP2 ADD SWAP1 PUSH2 0x3E4 SWAP2 SWAP1 PUSH2 0x1A09 JUMP JUMPDEST PUSH2 0xE81 JUMP JUMPDEST PUSH1 0x40 MLOAD PUSH2 0x3F6 SWAP2 SWAP1 PUSH2 0x1D27 JUMP JUMPDEST PUSH1 0x40 MLOAD DUP1 SWAP2 SUB SWAP1 RETURN JUMPDEST PUSH2 0x419 PUSH1 0x4 DUP1 CALLDATASIZE SUB DUP2 ADD SWAP1 PUSH2 0x414 SWAP2 SWAP1 PUSH2 0x1AE5 JUMP JUMPDEST PUSH2 0xF21 JUMP JUMPDEST STOP JUMPDEST PUSH2 0x423 PUSH2 0x10D2 JUMP JUMPDEST PUSH1 0x40 MLOAD PUSH2 0x430 SWAP2 SWAP1 PUSH2 0x1D42 JUMP JUMPDEST PUSH1 0x40 MLOAD DUP1 SWAP2 SUB SWAP1 RETURN JUMPDEST PUSH2 0x441 PUSH2 0x10F8 JUMP JUMPDEST PUSH1 0x40 MLOAD PUSH2 0x44E SWAP2 SWAP1 PUSH2 0x1E9D JUMP JUMPDEST PUSH1 0x40 MLOAD DUP1 SWAP2 SUB SWAP1 RETURN JUMPDEST PUSH2 0x45F PUSH2 0x10FE JUMP JUMPDEST PUSH1 0x40 MLOAD PUSH2 0x46C SWAP2 SWAP1 PUSH2 0x1E9D JUMP JUMPDEST PUSH1 0x40 MLOAD DUP1 SWAP2 SUB SWAP1 RETURN JUMPDEST PUSH2 0x47D PUSH2 0x1104 JUMP JUMPDEST STOP JUMPDEST PUSH2 0x499 PUSH1 0x4 DUP1 CALLDATASIZE SUB DUP2 ADD SWAP1 PUSH2 0x494 SWAP2 SWAP1 PUSH2 0x19DC JUMP JUMPDEST PUSH2 0x111F JUMP JUMPDEST STOP JUMPDEST PUSH1 0x0 DUP1 PUSH2 0x4A6 PUSH2 0x11A3 JUMP JUMPDEST PUSH1 0x40 ADD MLOAD SWAP1 POP PUSH1 0x0 PUSH2 0x4B7 DUP5 PUSH2 0x1202 JUMP JUMPDEST PUSH1 0x40 ADD MLOAD SWAP1 POP PUSH1 0x0 PUSH2 0x55A PUSH1 0xA PUSH1 0x0 DUP8 PUSH20 0xFFFFFFFFFFFFFFFFFFFFFFFFFFFFFFFFFFFFFFFF AND PUSH20 0xFFFFFFFFFFFFFFFFFFFFFFFFFFFFFFFFFFFFFFFF AND DUP2 MSTORE PUSH1 0x20 ADD SWAP1 DUP2 MSTORE PUSH1 0x20 ADD PUSH1 0x0 KECCAK256 PUSH1 0x1 ADD SLOAD PUSH2 0x54C PUSH8 0xDE0B6B3A7640000 PUSH2 0x53E PUSH2 0x527 DUP8 DUP10 PUSH2 0x1264 SWAP1 SWAP2 SWAP1 PUSH4 0xFFFFFFFF AND JUMP JUMPDEST PUSH2 0x530 DUP12 PUSH2 0xC49 JUMP JUMPDEST PUSH2 0x12BD SWAP1 SWAP2 SWAP1 PUSH4 0xFFFFFFFF AND JUMP JUMPDEST PUSH2 0x1338 SWAP1 SWAP2 SWAP1 PUSH4 0xFFFFFFFF AND JUMP JUMPDEST PUSH2 0x1390 SWAP1 SWAP2 SWAP1 PUSH4 0xFFFFFFFF AND JUMP JUMPDEST SWAP1 POP DUP1 SWAP4 POP POP POP POP SWAP2 SWAP1 POP JUMP JUMPDEST PUSH1 0x8 PUSH1 0x20 MSTORE DUP1 PUSH1 0x0 MSTORE PUSH1 0x40 PUSH1 0x0 KECCAK256 PUSH1 0x0 SWAP2 POP SWAP1 POP SLOAD DUP2 JUMP JUMPDEST PUSH1 0x9 PUSH1 0x20 MSTORE DUP1 PUSH1 0x0 MSTORE PUSH1 0x40 PUSH1 0x0 KECCAK256 PUSH1 0x0 SWAP2 POP SLOAD SWAP1 PUSH2 0x100 EXP SWAP1 DIV PUSH1 0xFF AND DUP2 JUMP JUMPDEST PUSH1 0x0 PUSH1 0x1 SLOAD SWAP1 POP SWAP1 JUMP JUMPDEST PUSH3 0x15180 DUP2 JUMP JUMPDEST PUSH2 0x5B8 PUSH2 0x13EE JUMP JUMPDEST PUSH1 0x0 JUMPDEST DUP3 MLOAD DUP2 LT ISZERO PUSH2 0x648 JUMPI DUP2 PUSH1 0x9 PUSH1 0x0 DUP6 DUP5 DUP2 MLOAD DUP2 LT PUSH2 0x5DC JUMPI PUSH2 0x5DB PUSH2 0x2185 JUMP JUMPDEST JUMPDEST PUSH1 0x20 MUL PUSH1 0x20 ADD ADD MLOAD PUSH20 0xFFFFFFFFFFFFFFFFFFFFFFFFFFFFFFFFFFFFFFFF AND PUSH20 0xFFFFFFFFFFFFFFFFFFFFFFFFFFFFFFFFFFFFFFFF AND DUP2 MSTORE PUSH1 0x20 ADD SWAP1 DUP2 MSTORE PUSH1 0x20 ADD PUSH1 0x0 KECCAK256 PUSH1 0x0 PUSH2 0x100 EXP DUP2 SLOAD DUP2 PUSH1 0xFF MUL NOT AND SWAP1 DUP4 ISZERO ISZERO MUL OR SWAP1 SSTORE POP DUP1 DUP1 PUSH2 0x640 SWAP1 PUSH2 0x20DE JUMP JUMPDEST SWAP2 POP POP PUSH2 0x5BB JUMP JUMPDEST POP POP POP JUMP JUMPDEST CALLER PUSH1 0x0 PUSH20 0xFFFFFFFFFFFFFFFFFFFFFFFFFFFFFFFFFFFFFFFF AND DUP2 PUSH20 0xFFFFFFFFFFFFFFFFFFFFFFFFFFFFFFFFFFFFFFFF AND EQ PUSH2 0x760 JUMPI PUSH1 0x0 PUSH1 0xA PUSH1 0x0 DUP4 PUSH20 0xFFFFFFFFFFFFFFFFFFFFFFFFFFFFFFFFFFFFFFFF AND PUSH20 0xFFFFFFFFFFFFFFFFFFFFFFFFFFFFFFFFFFFFFFFF AND DUP2 MSTORE PUSH1 0x20 ADD SWAP1 DUP2 MSTORE PUSH1 0x20 ADD PUSH1 0x0 KECCAK256 PUSH1 0x40 MLOAD DUP1 PUSH1 0x40 ADD PUSH1 0x40 MSTORE SWAP1 DUP2 PUSH1 0x0 DUP3 ADD SLOAD DUP2 MSTORE PUSH1 0x20 ADD PUSH1 0x1 DUP3 ADD SLOAD DUP2 MSTORE POP POP SWAP1 POP PUSH2 0x6ED DUP3 PUSH2 0x49B JUMP JUMPDEST DUP2 PUSH1 0x20 ADD DUP2 DUP2 MSTORE POP POP PUSH2 0x6FE PUSH2 0xAAC JUMP JUMPDEST DUP2 PUSH1 0x0 ADD DUP2 DUP2 MSTORE POP POP DUP1 PUSH1 0xA PUSH1 0x0 DUP5 PUSH20 0xFFFFFFFFFFFFFFFFFFFFFFFFFFFFFFFFFFFFFFFF AND PUSH20 0xFFFFFFFFFFFFFFFFFFFFFFFFFFFFFFFFFFFFFFFF AND DUP2 MSTORE PUSH1 0x20 ADD SWAP1 DUP2 MSTORE PUSH1 0x20 ADD PUSH1 0x0 KECCAK256 PUSH1 0x0 DUP3 ADD MLOAD DUP2 PUSH1 0x0 ADD SSTORE PUSH1 0x20 DUP3 ADD MLOAD DUP2 PUSH1 0x1 ADD SSTORE SWAP1 POP POP POP JUMPDEST PUSH1 0x0 DUP3 GT PUSH2 0x7A3 JUMPI PUSH1 0x40 MLOAD PUSH32 0x8C379A000000000000000000000000000000000000000000000000000000000 DUP2 MSTORE PUSH1 0x4 ADD PUSH2 0x79A SWAP1 PUSH2 0x1E3D JUMP JUMPDEST PUSH1 0x40 MLOAD DUP1 SWAP2 SUB SWAP1 REVERT JUMPDEST PUSH2 0x7AC DUP3 PUSH2 0x146C JUMP JUMPDEST CALLER PUSH20 0xFFFFFFFFFFFFFFFFFFFFFFFFFFFFFFFFFFFFFFFF AND PUSH32 0x7084F5476618D8E60B11EF0D7D3F06914655ADB8793E28FF7F018D4C76D505D5 DUP4 PUSH1 0x40 MLOAD PUSH2 0x7F2 SWAP2 SWAP1 PUSH2 0x1E9D JUMP JUMPDEST PUSH1 0x40 MLOAD DUP1 SWAP2 SUB SWAP1 LOG2 POP POP JUMP JUMPDEST CALLER PUSH1 0x0 PUSH20 0xFFFFFFFFFFFFFFFFFFFFFFFFFFFFFFFFFFFFFFFF AND DUP2 PUSH20 0xFFFFFFFFFFFFFFFFFFFFFFFFFFFFFFFFFFFFFFFF AND EQ PUSH2 0x911 JUMPI PUSH1 0x0 PUSH1 0xA PUSH1 0x0 DUP4 PUSH20 0xFFFFFFFFFFFFFFFFFFFFFFFFFFFFFFFFFFFFFFFF AND PUSH20 0xFFFFFFFFFFFFFFFFFFFFFFFFFFFFFFFFFFFFFFFF AND DUP2 MSTORE PUSH1 0x20 ADD SWAP1 DUP2 MSTORE PUSH1 0x20 ADD PUSH1 0x0 KECCAK256 PUSH1 0x40 MLOAD DUP1 PUSH1 0x40 ADD PUSH1 0x40 MSTORE SWAP1 DUP2 PUSH1 0x0 DUP3 ADD SLOAD DUP2 MSTORE PUSH1 0x20 ADD PUSH1 0x1 DUP3 ADD SLOAD DUP2 MSTORE POP POP SWAP1 POP PUSH2 0x89E DUP3 PUSH2 0x49B JUMP JUMPDEST DUP2 PUSH1 0x20 ADD DUP2 DUP2 MSTORE POP POP PUSH2 0x8AF PUSH2 0xAAC JUMP JUMPDEST DUP2 PUSH1 0x0 ADD DUP2 DUP2 MSTORE POP POP DUP1 PUSH1 0xA PUSH1 0x0 DUP5 PUSH20 0xFFFFFFFFFFFFFFFFFFFFFFFFFFFFFFFFFFFFFFFF AND PUSH20 0xFFFFFFFFFFFFFFFFFFFFFFFFFFFFFFFFFFFFFFFF AND DUP2 MSTORE PUSH1 0x20 ADD SWAP1 DUP2 MSTORE PUSH1 0x20 ADD PUSH1 0x0 KECCAK256 PUSH1 0x0 DUP3 ADD MLOAD DUP2 PUSH1 0x0 ADD SSTORE PUSH1 0x20 DUP3 ADD MLOAD DUP2 PUSH1 0x1 ADD SSTORE SWAP1 POP POP POP JUMPDEST PUSH1 0x0 PUSH1 0xA PUSH1 0x0 CALLER PUSH20 0xFFFFFFFFFFFFFFFFFFFFFFFFFFFFFFFFFFFFFFFF AND PUSH20 0xFFFFFFFFFFFFFFFFFFFFFFFFFFFFFFFFFFFFFFFF AND DUP2 MSTORE PUSH1 0x20 ADD SWAP1 DUP2 MSTORE PUSH1 0x20 ADD PUSH1 0x0 KECCAK256 PUSH1 0x1 ADD SLOAD SWAP1 POP PUSH1 0x0 DUP2 GT ISZERO PUSH2 0xAA8 JUMPI PUSH1 0x0 PUSH1 0xA PUSH1 0x0 CALLER PUSH20 0xFFFFFFFFFFFFFFFFFFFFFFFFFFFFFFFFFFFFFFFF AND PUSH20 0xFFFFFFFFFFFFFFFFFFFFFFFFFFFFFFFFFFFFFFFF AND DUP2 MSTORE PUSH1 0x20 ADD SWAP1 DUP2 MSTORE PUSH1 0x20 ADD PUSH1 0x0 KECCAK256 PUSH1 0x1 ADD DUP2 SWAP1 SSTORE POP PUSH1 0x4 PUSH1 0x0 SWAP1 SLOAD SWAP1 PUSH2 0x100 EXP SWAP1 DIV PUSH20 0xFFFFFFFFFFFFFFFFFFFFFFFFFFFFFFFFFFFFFFFF AND PUSH20 0xFFFFFFFFFFFFFFFFFFFFFFFFFFFFFFFFFFFFFFFF AND PUSH4 0xA9059CBB CALLER DUP4 PUSH1 0x40 MLOAD DUP4 PUSH4 0xFFFFFFFF AND PUSH1 0xE0 SHL DUP2 MSTORE PUSH1 0x4 ADD PUSH2 0xA06 SWAP3 SWAP2 SWAP1 PUSH2 0x1CFE JUMP JUMPDEST PUSH1 0x20 PUSH1 0x40 MLOAD DUP1 DUP4 SUB DUP2 PUSH1 0x0 DUP8 DUP1 EXTCODESIZE ISZERO DUP1 ISZERO PUSH2 0xA20 JUMPI PUSH1 0x0 DUP1 REVERT JUMPDEST POP GAS CALL ISZERO DUP1 ISZERO PUSH2 0xA34 JUMPI RETURNDATASIZE PUSH1 0x0 DUP1 RETURNDATACOPY RETURNDATASIZE PUSH1 0x0 REVERT JUMPDEST POP POP POP POP PUSH1 0x40 MLOAD RETURNDATASIZE PUSH1 0x1F NOT PUSH1 0x1F DUP3 ADD AND DUP3 ADD DUP1 PUSH1 0x40 MSTORE POP DUP2 ADD SWAP1 PUSH2 0xA58 SWAP2 SWAP1 PUSH2 0x1AB8 JUMP JUMPDEST POP CALLER PUSH20 0xFFFFFFFFFFFFFFFFFFFFFFFFFFFFFFFFFFFFFFFF AND PUSH32 0xE2403640BA68FED3A2F88B7557551D1993F84B99BB10FF833F0CF8DB0C5E0486 DUP3 PUSH1 0x40 MLOAD PUSH2 0xA9F SWAP2 SWAP1 PUSH2 0x1E9D JUMP JUMPDEST PUSH1 0x40 MLOAD DUP1 SWAP2 SUB SWAP1 LOG2 JUMPDEST POP POP JUMP JUMPDEST PUSH1 0x0 PUSH2 0xAC7 PUSH1 0x1 PUSH1 0xB DUP1 SLOAD SWAP1 POP PUSH2 0x1264 SWAP1 SWAP2 SWAP1 PUSH4 0xFFFFFFFF AND JUMP JUMPDEST SWAP1 POP SWAP1 JUMP JUMPDEST PUSH1 0x0 PUSH2 0xAD6 PUSH2 0x11A3 JUMP JUMPDEST PUSH1 0x40 ADD MLOAD SWAP1 POP SWAP1 JUMP JUMPDEST PUSH1 0x0 DUP2 GT PUSH2 0xB22 JUMPI PUSH1 0x40 MLOAD PUSH32 0x8C379A000000000000000000000000000000000000000000000000000000000 DUP2 MSTORE PUSH1 0x4 ADD PUSH2 0xB19 SWAP1 PUSH2 0x1E1D JUMP JUMPDEST PUSH1 0x40 MLOAD DUP1 SWAP2 SUB SWAP1 REVERT JUMPDEST PUSH1 0x0 PUSH2 0xB2C PUSH2 0x59F JUMP JUMPDEST GT ISZERO PUSH2 0xC46 JUMPI PUSH2 0xB3B DUP2 PUSH2 0x15CD JUMP JUMPDEST PUSH1 0x0 DUP2 GT ISZERO PUSH2 0xBF7 JUMPI PUSH1 0x4 PUSH1 0x0 SWAP1 SLOAD SWAP1 PUSH2 0x100 EXP SWAP1 DIV PUSH20 0xFFFFFFFFFFFFFFFFFFFFFFFFFFFFFFFFFFFFFFFF AND PUSH20 0xFFFFFFFFFFFFFFFFFFFFFFFFFFFFFFFFFFFFFFFF AND PUSH4 0x23B872DD CALLER ADDRESS DUP5 PUSH1 0x40 MLOAD DUP5 PUSH4 0xFFFFFFFF AND PUSH1 0xE0 SHL DUP2 MSTORE PUSH1 0x4 ADD PUSH2 0xBA3 SWAP4 SWAP3 SWAP2 SWAP1 PUSH2 0x1CC7 JUMP JUMPDEST PUSH1 0x20 PUSH1 0x40 MLOAD DUP1 DUP4 SUB DUP2 PUSH1 0x0 DUP8 DUP1 EXTCODESIZE ISZERO DUP1 ISZERO PUSH2 0xBBD JUMPI PUSH1 0x0 DUP1 REVERT JUMPDEST POP GAS CALL ISZERO DUP1 ISZERO PUSH2 0xBD1 JUMPI RETURNDATASIZE PUSH1 0x0 DUP1 RETURNDATACOPY RETURNDATASIZE PUSH1 0x0 REVERT JUMPDEST POP POP POP POP PUSH1 0x40 MLOAD RETURNDATASIZE PUSH1 0x1F NOT PUSH1 0x1F DUP3 ADD AND DUP3 ADD DUP1 PUSH1 0x40 MSTORE POP DUP2 ADD SWAP1 PUSH2 0xBF5 SWAP2 SWAP1 PUSH2 0x1AB8 JUMP JUMPDEST POP JUMPDEST CALLER PUSH20 0xFFFFFFFFFFFFFFFFFFFFFFFFFFFFFFFFFFFFFFFF AND PUSH32 0xAC24935FD910BC682B5CCB1A07B718CADF8CF2F6D1404C4F3DDC3662DAE40E29 DUP3 PUSH1 0x40 MLOAD PUSH2 0xC3D SWAP2 SWAP1 PUSH2 0x1E9D JUMP JUMPDEST PUSH1 0x40 MLOAD DUP1 SWAP2 SUB SWAP1 LOG2 JUMPDEST POP JUMP JUMPDEST PUSH1 0x0 PUSH1 0x2 PUSH1 0x0 DUP4 PUSH20 0xFFFFFFFFFFFFFFFFFFFFFFFFFFFFFFFFFFFFFFFF AND PUSH20 0xFFFFFFFFFFFFFFFFFFFFFFFFFFFFFFFFFFFFFFFF AND DUP2 MSTORE PUSH1 0x20 ADD SWAP1 DUP2 MSTORE PUSH1 0x20 ADD PUSH1 0x0 KECCAK256 SLOAD SWAP1 POP SWAP2 SWAP1 POP JUMP JUMPDEST PUSH1 0x0 PUSH1 0xA PUSH1 0x0 DUP4 PUSH20 0xFFFFFFFFFFFFFFFFFFFFFFFFFFFFFFFFFFFFFFFF AND PUSH20 0xFFFFFFFFFFFFFFFFFFFFFFFFFFFFFFFFFFFFFFFF AND DUP2 MSTORE PUSH1 0x20 ADD SWAP1 DUP2 MSTORE PUSH1 0x20 ADD PUSH1 0x0 KECCAK256 PUSH1 0x0 ADD SLOAD SWAP1 POP SWAP2 SWAP1 POP JUMP JUMPDEST PUSH2 0xCE6 PUSH2 0x13EE JUMP JUMPDEST PUSH2 0xCF0 PUSH1 0x0 PUSH2 0x1698 JUMP JUMPDEST JUMP JUMPDEST PUSH1 0x0 DUP1 SLOAD SWAP1 PUSH2 0x100 EXP SWAP1 DIV PUSH20 0xFFFFFFFFFFFFFFFFFFFFFFFFFFFFFFFFFFFFFFFF AND DUP2 JUMP JUMPDEST PUSH1 0x7 PUSH1 0x20 MSTORE DUP1 PUSH1 0x0 MSTORE PUSH1 0x40 PUSH1 0x0 KECCAK256 PUSH1 0x0 SWAP2 POP SWAP1 POP SLOAD DUP2 JUMP JUMPDEST PUSH1 0x0 PUSH1 0x3 PUSH1 0x0 SWAP1 SLOAD SWAP1 PUSH2 0x100 EXP SWAP1 DIV PUSH20 0xFFFFFFFFFFFFFFFFFFFFFFFFFFFFFFFFFFFFFFFF AND SWAP1 POP SWAP1 JUMP JUMPDEST PUSH1 0x9 PUSH1 0x0 CALLER PUSH20 0xFFFFFFFFFFFFFFFFFFFFFFFFFFFFFFFFFFFFFFFF AND PUSH20 0xFFFFFFFFFFFFFFFFFFFFFFFFFFFFFFFFFFFFFFFF AND DUP2 MSTORE PUSH1 0x20 ADD SWAP1 DUP2 MSTORE PUSH1 0x20 ADD PUSH1 0x0 KECCAK256 PUSH1 0x0 SWAP1 SLOAD SWAP1 PUSH2 0x100 EXP SWAP1 DIV PUSH1 0xFF AND PUSH2 0xDE4 JUMPI PUSH1 0x40 MLOAD PUSH32 0x8C379A000000000000000000000000000000000000000000000000000000000 DUP2 MSTORE PUSH1 0x4 ADD PUSH2 0xDDB SWAP1 PUSH2 0x1DBD JUMP JUMPDEST PUSH1 0x40 MLOAD DUP1 SWAP2 SUB SWAP1 REVERT JUMPDEST PUSH1 0x0 DUP2 GT PUSH2 0xE27 JUMPI PUSH1 0x40 MLOAD PUSH32 0x8C379A000000000000000000000000000000000000000000000000000000000 DUP2 MSTORE PUSH1 0x4 ADD PUSH2 0xE1E SWAP1 PUSH2 0x1E1D JUMP JUMPDEST PUSH1 0x40 MLOAD DUP1 SWAP2 SUB SWAP1 REVERT JUMPDEST PUSH2 0xE30 DUP2 PUSH2 0x15CD JUMP JUMPDEST CALLER PUSH20 0xFFFFFFFFFFFFFFFFFFFFFFFFFFFFFFFFFFFFFFFF AND PUSH32 0xAC24935FD910BC682B5CCB1A07B718CADF8CF2F6D1404C4F3DDC3662DAE40E29 DUP3 PUSH1 0x40 MLOAD PUSH2 0xE76 SWAP2 SWAP1 PUSH2 0x1E9D JUMP JUMPDEST PUSH1 0x40 MLOAD DUP1 SWAP2 SUB SWAP1 LOG2 POP JUMP JUMPDEST PUSH1 0x0 PUSH2 0xE8B PUSH2 0x13EE JUMP JUMPDEST DUP4 PUSH20 0xFFFFFFFFFFFFFFFFFFFFFFFFFFFFFFFFFFFFFFFF AND PUSH4 0xA9059CBB DUP5 DUP5 PUSH1 0x40 MLOAD DUP4 PUSH4 0xFFFFFFFF AND PUSH1 0xE0 SHL DUP2 MSTORE PUSH1 0x4 ADD PUSH2 0xEC6 SWAP3 SWAP2 SWAP1 PUSH2 0x1CFE JUMP JUMPDEST PUSH1 0x20 PUSH1 0x40 MLOAD DUP1 DUP4 SUB DUP2 PUSH1 0x0 DUP8 DUP1 EXTCODESIZE ISZERO DUP1 ISZERO PUSH2 0xEE0 JUMPI PUSH1 0x0 DUP1 REVERT JUMPDEST POP GAS CALL ISZERO DUP1 ISZERO PUSH2 0xEF4 JUMPI RETURNDATASIZE PUSH1 0x0 DUP1 RETURNDATACOPY RETURNDATASIZE PUSH1 0x0 REVERT JUMPDEST POP POP POP POP PUSH1 0x40 MLOAD RETURNDATASIZE PUSH1 0x1F NOT PUSH1 0x1F DUP3 ADD AND DUP3 ADD DUP1 PUSH1 0x40 MSTORE POP DUP2 ADD SWAP1 PUSH2 0xF18 SWAP2 SWAP1 PUSH2 0x1AB8 JUMP JUMPDEST SWAP1 POP SWAP4 SWAP3 POP POP POP JUMP JUMPDEST CALLER PUSH1 0x0 PUSH20 0xFFFFFFFFFFFFFFFFFFFFFFFFFFFFFFFFFFFFFFFF AND DUP2 PUSH20 0xFFFFFFFFFFFFFFFFFFFFFFFFFFFFFFFFFFFFFFFF AND EQ PUSH2 0x1034 JUMPI PUSH1 0x0 PUSH1 0xA PUSH1 0x0 DUP4 PUSH20 0xFFFFFFFFFFFFFFFFFFFFFFFFFFFFFFFFFFFFFFFF AND PUSH20 0xFFFFFFFFFFFFFFFFFFFFFFFFFFFFFFFFFFFFFFFF AND DUP2 MSTORE PUSH1 0x20 ADD SWAP1 DUP2 MSTORE PUSH1 0x20 ADD PUSH1 0x0 KECCAK256 PUSH1 0x40 MLOAD DUP1 PUSH1 0x40 ADD PUSH1 0x40 MSTORE SWAP1 DUP2 PUSH1 0x0 DUP3 ADD SLOAD DUP2 MSTORE PUSH1 0x20 ADD PUSH1 0x1 DUP3 ADD SLOAD DUP2 MSTORE POP POP SWAP1 POP PUSH2 0xFC1 DUP3 PUSH2 0x49B JUMP JUMPDEST DUP2 PUSH1 0x20 ADD DUP2 DUP2 MSTORE POP POP PUSH2 0xFD2 PUSH2 0xAAC JUMP JUMPDEST DUP2 PUSH1 0x0 ADD DUP2 DUP2 MSTORE POP POP DUP1 PUSH1 0xA PUSH1 0x0 DUP5 PUSH20 0xFFFFFFFFFFFFFFFFFFFFFFFFFFFFFFFFFFFFFFFF AND PUSH20 0xFFFFFFFFFFFFFFFFFFFFFFFFFFFFFFFFFFFFFFFF AND DUP2 MSTORE PUSH1 0x20 ADD SWAP1 DUP2 MSTORE PUSH1 0x20 ADD PUSH1 0x0 KECCAK256 PUSH1 0x0 DUP3 ADD MLOAD DUP2 PUSH1 0x0 ADD SSTORE PUSH1 0x20 DUP3 ADD MLOAD DUP2 PUSH1 0x1 ADD SSTORE SWAP1 POP POP POP JUMPDEST PUSH1 0x0 DUP3 GT PUSH2 0x1077 JUMPI PUSH1 0x40 MLOAD PUSH32 0x8C379A000000000000000000000000000000000000000000000000000000000 DUP2 MSTORE PUSH1 0x4 ADD PUSH2 0x106E SWAP1 PUSH2 0x1D7D JUMP JUMPDEST PUSH1 0x40 MLOAD DUP1 SWAP2 SUB SWAP1 REVERT JUMPDEST PUSH2 0x1080 DUP3 PUSH2 0x175E JUMP JUMPDEST CALLER PUSH20 0xFFFFFFFFFFFFFFFFFFFFFFFFFFFFFFFFFFFFFFFF AND PUSH32 0x9E71BC8EEA02A63969F509818F2DAFB9254532904319F9DBDA79B67BD34A5F3D DUP4 PUSH1 0x40 MLOAD PUSH2 0x10C6 SWAP2 SWAP1 PUSH2 0x1E9D JUMP JUMPDEST PUSH1 0x40 MLOAD DUP1 SWAP2 SUB SWAP1 LOG2 POP POP JUMP JUMPDEST PUSH1 0x4 PUSH1 0x0 SWAP1 SLOAD SWAP1 PUSH2 0x100 EXP SWAP1 DIV PUSH20 0xFFFFFFFFFFFFFFFFFFFFFFFFFFFFFFFFFFFFFFFF AND DUP2 JUMP JUMPDEST PUSH1 0x5 SLOAD DUP2 JUMP JUMPDEST PUSH1 0x6 SLOAD DUP2 JUMP JUMPDEST PUSH2 0x1115 PUSH2 0x1110 CALLER PUSH2 0xC49 JUMP JUMPDEST PUSH2 0x64D JUMP JUMPDEST PUSH2 0x111D PUSH2 0x7FE JUMP JUMPDEST JUMP JUMPDEST PUSH2 0x1127 PUSH2 0x13EE JUMP JUMPDEST PUSH1 0x0 PUSH20 0xFFFFFFFFFFFFFFFFFFFFFFFFFFFFFFFFFFFFFFFF AND DUP2 PUSH20 0xFFFFFFFFFFFFFFFFFFFFFFFFFFFFFFFFFFFFFFFF AND EQ ISZERO PUSH2 0x1197 JUMPI PUSH1 0x40 MLOAD PUSH32 0x8C379A000000000000000000000000000000000000000000000000000000000 DUP2 MSTORE PUSH1 0x4 ADD PUSH2 0x118E SWAP1 PUSH2 0x1D5D JUMP JUMPDEST PUSH1 0x40 MLOAD DUP1 SWAP2 SUB SWAP1 REVERT JUMPDEST PUSH2 0x11A0 DUP2 PUSH2 0x1698 JUMP JUMPDEST POP JUMP JUMPDEST PUSH2 0x11AB PUSH2 0x18C9 JUMP JUMPDEST PUSH1 0xB PUSH2 0x11B5 PUSH2 0xAAC JUMP JUMPDEST DUP2 SLOAD DUP2 LT PUSH2 0x11C6 JUMPI PUSH2 0x11C5 PUSH2 0x2185 JUMP JUMPDEST JUMPDEST SWAP1 PUSH1 0x0 MSTORE PUSH1 0x20 PUSH1 0x0 KECCAK256 SWAP1 PUSH1 0x3 MUL ADD PUSH1 0x40 MLOAD DUP1 PUSH1 0x60 ADD PUSH1 0x40 MSTORE SWAP1 DUP2 PUSH1 0x0 DUP3 ADD SLOAD DUP2 MSTORE PUSH1 0x20 ADD PUSH1 0x1 DUP3 ADD SLOAD DUP2 MSTORE PUSH1 0x20 ADD PUSH1 0x2 DUP3 ADD SLOAD DUP2 MSTORE POP POP SWAP1 POP SWAP1 JUMP JUMPDEST PUSH2 0x120A PUSH2 0x18C9 JUMP JUMPDEST PUSH1 0xB PUSH2 0x1215 DUP4 PUSH2 0xC92 JUMP JUMPDEST DUP2 SLOAD DUP2 LT PUSH2 0x1226 JUMPI PUSH2 0x1225 PUSH2 0x2185 JUMP JUMPDEST JUMPDEST SWAP1 PUSH1 0x0 MSTORE PUSH1 0x20 PUSH1 0x0 KECCAK256 SWAP1 PUSH1 0x3 MUL ADD PUSH1 0x40 MLOAD DUP1 PUSH1 0x60 ADD PUSH1 0x40 MSTORE SWAP1 DUP2 PUSH1 0x0 DUP3 ADD SLOAD DUP2 MSTORE PUSH1 0x20 ADD PUSH1 0x1 DUP3 ADD SLOAD DUP2 MSTORE PUSH1 0x20 ADD PUSH1 0x2 DUP3 ADD SLOAD DUP2 MSTORE POP POP SWAP1 POP SWAP2 SWAP1 POP JUMP JUMPDEST PUSH1 0x0 DUP3 DUP3 GT ISZERO PUSH2 0x12A9 JUMPI PUSH1 0x40 MLOAD PUSH32 0x8C379A000000000000000000000000000000000000000000000000000000000 DUP2 MSTORE PUSH1 0x4 ADD PUSH2 0x12A0 SWAP1 PUSH2 0x1DDD JUMP JUMPDEST PUSH1 0x40 MLOAD DUP1 SWAP2 SUB SWAP1 REVERT JUMPDEST DUP2 DUP4 PUSH2 0x12B5 SWAP2 SWAP1 PUSH2 0x1FFB JUMP JUMPDEST SWAP1 POP SWAP3 SWAP2 POP POP JUMP JUMPDEST PUSH1 0x0 DUP1 DUP4 EQ ISZERO PUSH2 0x12D0 JUMPI PUSH1 0x0 SWAP1 POP PUSH2 0x1332 JUMP JUMPDEST PUSH1 0x0 DUP3 DUP5 PUSH2 0x12DE SWAP2 SWAP1 PUSH2 0x1FA1 JUMP JUMPDEST SWAP1 POP DUP3 DUP5 DUP3 PUSH2 0x12ED SWAP2 SWAP1 PUSH2 0x1F70 JUMP JUMPDEST EQ PUSH2 0x132D JUMPI PUSH1 0x40 MLOAD PUSH32 0x8C379A000000000000000000000000000000000000000000000000000000000 DUP2 MSTORE PUSH1 0x4 ADD PUSH2 0x1324 SWAP1 PUSH2 0x1E5D JUMP JUMPDEST PUSH1 0x40 MLOAD DUP1 SWAP2 SUB SWAP1 REVERT JUMPDEST DUP1 SWAP2 POP POP JUMPDEST SWAP3 SWAP2 POP POP JUMP JUMPDEST PUSH1 0x0 DUP1 DUP3 GT PUSH2 0x137C JUMPI PUSH1 0x40 MLOAD PUSH32 0x8C379A000000000000000000000000000000000000000000000000000000000 DUP2 MSTORE PUSH1 0x4 ADD PUSH2 0x1373 SWAP1 PUSH2 0x1DFD JUMP JUMPDEST PUSH1 0x40 MLOAD DUP1 SWAP2 SUB SWAP1 REVERT JUMPDEST DUP2 DUP4 PUSH2 0x1388 SWAP2 SWAP1 PUSH2 0x1F70 JUMP JUMPDEST SWAP1 POP SWAP3 SWAP2 POP POP JUMP JUMPDEST PUSH1 0x0 DUP1 DUP3 DUP5 PUSH2 0x139F SWAP2 SWAP1 PUSH2 0x1F1A JUMP JUMPDEST SWAP1 POP DUP4 DUP2 LT ISZERO PUSH2 0x13E4 JUMPI PUSH1 0x40 MLOAD PUSH32 0x8C379A000000000000000000000000000000000000000000000000000000000 DUP2 MSTORE PUSH1 0x4 ADD PUSH2 0x13DB SWAP1 PUSH2 0x1D9D JUMP JUMPDEST PUSH1 0x40 MLOAD DUP1 SWAP2 SUB SWAP1 REVERT JUMPDEST DUP1 SWAP2 POP POP SWAP3 SWAP2 POP POP JUMP JUMPDEST PUSH2 0x13F6 PUSH2 0x18C1 JUMP JUMPDEST PUSH20 0xFFFFFFFFFFFFFFFFFFFFFFFFFFFFFFFFFFFFFFFF AND PUSH2 0x1414 PUSH2 0xD2E JUMP JUMPDEST PUSH20 0xFFFFFFFFFFFFFFFFFFFFFFFFFFFFFFFFFFFFFFFF AND EQ PUSH2 0x146A JUMPI PUSH1 0x40 MLOAD PUSH32 0x8C379A000000000000000000000000000000000000000000000000000000000 DUP2 MSTORE PUSH1 0x4 ADD PUSH2 0x1461 SWAP1 PUSH2 0x1E7D JUMP JUMPDEST PUSH1 0x40 MLOAD DUP1 SWAP2 SUB SWAP1 REVERT JUMPDEST JUMP JUMPDEST PUSH2 0x1481 DUP2 PUSH1 0x1 SLOAD PUSH2 0x1264 SWAP1 SWAP2 SWAP1 PUSH4 0xFFFFFFFF AND JUMP JUMPDEST PUSH1 0x1 DUP2 SWAP1 SSTORE POP PUSH2 0x14D9 DUP2 PUSH1 0x2 PUSH1 0x0 CALLER PUSH20 0xFFFFFFFFFFFFFFFFFFFFFFFFFFFFFFFFFFFFFFFF AND PUSH20 0xFFFFFFFFFFFFFFFFFFFFFFFFFFFFFFFFFFFFFFFF AND DUP2 MSTORE PUSH1 0x20 ADD SWAP1 DUP2 MSTORE PUSH1 0x20 ADD PUSH1 0x0 KECCAK256 SLOAD PUSH2 0x1264 SWAP1 SWAP2 SWAP1 PUSH4 0xFFFFFFFF AND JUMP JUMPDEST PUSH1 0x2 PUSH1 0x0 CALLER PUSH20 0xFFFFFFFFFFFFFFFFFFFFFFFFFFFFFFFFFFFFFFFF AND PUSH20 0xFFFFFFFFFFFFFFFFFFFFFFFFFFFFFFFFFFFFFFFF AND DUP2 MSTORE PUSH1 0x20 ADD SWAP1 DUP2 MSTORE PUSH1 0x20 ADD PUSH1 0x0 KECCAK256 DUP2 SWAP1 SSTORE POP PUSH1 0x0 DUP1 SLOAD SWAP1 PUSH2 0x100 EXP SWAP1 DIV PUSH20 0xFFFFFFFFFFFFFFFFFFFFFFFFFFFFFFFFFFFFFFFF AND PUSH20 0xFFFFFFFFFFFFFFFFFFFFFFFFFFFFFFFFFFFFFFFF AND PUSH4 0xA9059CBB CALLER DUP4 PUSH1 0x40 MLOAD DUP4 PUSH4 0xFFFFFFFF AND PUSH1 0xE0 SHL DUP2 MSTORE PUSH1 0x4 ADD PUSH2 0x1577 SWAP3 SWAP2 SWAP1 PUSH2 0x1CFE JUMP JUMPDEST PUSH1 0x20 PUSH1 0x40 MLOAD DUP1 DUP4 SUB DUP2 PUSH1 0x0 DUP8 DUP1 EXTCODESIZE ISZERO DUP1 ISZERO PUSH2 0x1591 JUMPI PUSH1 0x0 DUP1 REVERT JUMPDEST POP GAS CALL ISZERO DUP1 ISZERO PUSH2 0x15A5 JUMPI RETURNDATASIZE PUSH1 0x0 DUP1 RETURNDATACOPY RETURNDATASIZE PUSH1 0x0 REVERT JUMPDEST POP POP POP POP PUSH1 0x40 MLOAD RETURNDATASIZE PUSH1 0x1F NOT PUSH1 0x1F DUP3 ADD AND DUP3 ADD DUP1 PUSH1 0x40 MSTORE POP DUP2 ADD SWAP1 PUSH2 0x15C9 SWAP2 SWAP1 PUSH2 0x1AB8 JUMP JUMPDEST POP POP JUMP JUMPDEST PUSH1 0x0 PUSH2 0x15D7 PUSH2 0x11A3 JUMP JUMPDEST PUSH1 0x40 ADD MLOAD SWAP1 POP PUSH1 0x0 PUSH2 0x1625 PUSH2 0x1616 PUSH2 0x15ED PUSH2 0x59F JUMP JUMPDEST PUSH2 0x1608 PUSH8 0xDE0B6B3A7640000 DUP8 PUSH2 0x12BD SWAP1 SWAP2 SWAP1 PUSH4 0xFFFFFFFF AND JUMP JUMPDEST PUSH2 0x1338 SWAP1 SWAP2 SWAP1 PUSH4 0xFFFFFFFF AND JUMP JUMPDEST DUP4 PUSH2 0x1390 SWAP1 SWAP2 SWAP1 PUSH4 0xFFFFFFFF AND JUMP JUMPDEST SWAP1 POP PUSH1 0x0 PUSH1 0x40 MLOAD DUP1 PUSH1 0x60 ADD PUSH1 0x40 MSTORE DUP1 NUMBER DUP2 MSTORE PUSH1 0x20 ADD DUP6 DUP2 MSTORE PUSH1 0x20 ADD DUP4 DUP2 MSTORE POP SWAP1 POP PUSH1 0xB DUP2 SWAP1 DUP1 PUSH1 0x1 DUP2 SLOAD ADD DUP1 DUP3 SSTORE DUP1 SWAP2 POP POP PUSH1 0x1 SWAP1 SUB SWAP1 PUSH1 0x0 MSTORE PUSH1 0x20 PUSH1 0x0 KECCAK256 SWAP1 PUSH1 0x3 MUL ADD PUSH1 0x0 SWAP1 SWAP2 SWAP1 SWAP2 SWAP1 SWAP2 POP PUSH1 0x0 DUP3 ADD MLOAD DUP2 PUSH1 0x0 ADD SSTORE PUSH1 0x20 DUP3 ADD MLOAD DUP2 PUSH1 0x1 ADD SSTORE PUSH1 0x40 DUP3 ADD MLOAD DUP2 PUSH1 0x2 ADD SSTORE POP POP POP POP POP POP JUMP JUMPDEST PUSH1 0x0 PUSH1 0x3 PUSH1 0x0 SWAP1 SLOAD SWAP1 PUSH2 0x100 EXP SWAP1 DIV PUSH20 0xFFFFFFFFFFFFFFFFFFFFFFFFFFFFFFFFFFFFFFFF AND SWAP1 POP DUP2 PUSH1 0x3 PUSH1 0x0 PUSH2 0x100 EXP DUP2 SLOAD DUP2 PUSH20 0xFFFFFFFFFFFFFFFFFFFFFFFFFFFFFFFFFFFFFFFF MUL NOT AND SWAP1 DUP4 PUSH20 0xFFFFFFFFFFFFFFFFFFFFFFFFFFFFFFFFFFFFFFFF AND MUL OR SWAP1 SSTORE POP DUP2 PUSH20 0xFFFFFFFFFFFFFFFFFFFFFFFFFFFFFFFFFFFFFFFF AND DUP2 PUSH20 0xFFFFFFFFFFFFFFFFFFFFFFFFFFFFFFFFFFFFFFFF AND PUSH32 0x8BE0079C531659141344CD1FD0A4F28419497F9722A3DAAFE3B4186F6B6457E0 PUSH1 0x40 MLOAD PUSH1 0x40 MLOAD DUP1 SWAP2 SUB SWAP1 LOG3 POP POP JUMP JUMPDEST PUSH2 0x1773 DUP2 PUSH1 0x1 SLOAD PUSH2 0x1390 SWAP1 SWAP2 SWAP1 PUSH4 0xFFFFFFFF AND JUMP JUMPDEST PUSH1 0x1 DUP2 SWAP1 SSTORE POP PUSH2 0x17CB DUP2 PUSH1 0x2 PUSH1 0x0 CALLER PUSH20 0xFFFFFFFFFFFFFFFFFFFFFFFFFFFFFFFFFFFFFFFF AND PUSH20 0xFFFFFFFFFFFFFFFFFFFFFFFFFFFFFFFFFFFFFFFF AND DUP2 MSTORE PUSH1 0x20 ADD SWAP1 DUP2 MSTORE PUSH1 0x20 ADD PUSH1 0x0 KECCAK256 SLOAD PUSH2 0x1390 SWAP1 SWAP2 SWAP1 PUSH4 0xFFFFFFFF AND JUMP JUMPDEST PUSH1 0x2 PUSH1 0x0 CALLER PUSH20 0xFFFFFFFFFFFFFFFFFFFFFFFFFFFFFFFFFFFFFFFF AND PUSH20 0xFFFFFFFFFFFFFFFFFFFFFFFFFFFFFFFFFFFFFFFF AND DUP2 MSTORE PUSH1 0x20 ADD SWAP1 DUP2 MSTORE PUSH1 0x20 ADD PUSH1 0x0 KECCAK256 DUP2 SWAP1 SSTORE POP PUSH1 0x0 DUP1 SLOAD SWAP1 PUSH2 0x100 EXP SWAP1 DIV PUSH20 0xFFFFFFFFFFFFFFFFFFFFFFFFFFFFFFFFFFFFFFFF AND PUSH20 0xFFFFFFFFFFFFFFFFFFFFFFFFFFFFFFFFFFFFFFFF AND PUSH4 0x23B872DD CALLER ADDRESS DUP5 PUSH1 0x40 MLOAD DUP5 PUSH4 0xFFFFFFFF AND PUSH1 0xE0 SHL DUP2 MSTORE PUSH1 0x4 ADD PUSH2 0x186B SWAP4 SWAP3 SWAP2 SWAP1 PUSH2 0x1CC7 JUMP JUMPDEST PUSH1 0x20 PUSH1 0x40 MLOAD DUP1 DUP4 SUB DUP2 PUSH1 0x0 DUP8 DUP1 EXTCODESIZE ISZERO DUP1 ISZERO PUSH2 0x1885 JUMPI PUSH1 0x0 DUP1 REVERT JUMPDEST POP GAS CALL ISZERO DUP1 ISZERO PUSH2 0x1899 JUMPI RETURNDATASIZE PUSH1 0x0 DUP1 RETURNDATACOPY RETURNDATASIZE PUSH1 0x0 REVERT JUMPDEST POP POP POP POP PUSH1 0x40 MLOAD RETURNDATASIZE PUSH1 0x1F NOT PUSH1 0x1F DUP3 ADD AND DUP3 ADD DUP1 PUSH1 0x40 MSTORE POP DUP2 ADD SWAP1 PUSH2 0x18BD SWAP2 SWAP1 PUSH2 0x1AB8 JUMP JUMPDEST POP POP JUMP JUMPDEST PUSH1 0x0 CALLER SWAP1 POP SWAP1 JUMP JUMPDEST PUSH1 0x40 MLOAD DUP1 PUSH1 0x60 ADD PUSH1 0x40 MSTORE DUP1 PUSH1 0x0 DUP2 MSTORE PUSH1 0x20 ADD PUSH1 0x0 DUP2 MSTORE PUSH1 0x20 ADD PUSH1 0x0 DUP2 MSTORE POP SWAP1 JUMP JUMPDEST PUSH1 0x0 PUSH2 0x18FD PUSH2 0x18F8 DUP5 PUSH2 0x1EDD JUMP JUMPDEST PUSH2 0x1EB8 JUMP JUMPDEST SWAP1 POP DUP1 DUP4 DUP3 MSTORE PUSH1 0x20 DUP3 ADD SWAP1 POP DUP3 DUP6 PUSH1 0x20 DUP7 MUL DUP3 ADD GT ISZERO PUSH2 0x1920 JUMPI PUSH2 0x191F PUSH2 0x21E8 JUMP JUMPDEST JUMPDEST PUSH1 0x0 JUMPDEST DUP6 DUP2 LT ISZERO PUSH2 0x1950 JUMPI DUP2 PUSH2 0x1936 DUP9 DUP3 PUSH2 0x195A JUMP JUMPDEST DUP5 MSTORE PUSH1 0x20 DUP5 ADD SWAP4 POP PUSH1 0x20 DUP4 ADD SWAP3 POP POP PUSH1 0x1 DUP2 ADD SWAP1 POP PUSH2 0x1923 JUMP JUMPDEST POP POP POP SWAP4 SWAP3 POP POP POP JUMP JUMPDEST PUSH1 0x0 DUP2 CALLDATALOAD SWAP1 POP PUSH2 0x1969 DUP2 PUSH2 0x2414 JUMP JUMPDEST SWAP3 SWAP2 POP POP JUMP JUMPDEST PUSH1 0x0 DUP3 PUSH1 0x1F DUP4 ADD SLT PUSH2 0x1984 JUMPI PUSH2 0x1983 PUSH2 0x21E3 JUMP JUMPDEST JUMPDEST DUP2 CALLDATALOAD PUSH2 0x1994 DUP5 DUP3 PUSH1 0x20 DUP7 ADD PUSH2 0x18EA JUMP JUMPDEST SWAP2 POP POP SWAP3 SWAP2 POP POP JUMP JUMPDEST PUSH1 0x0 DUP2 CALLDATALOAD SWAP1 POP PUSH2 0x19AC DUP2 PUSH2 0x242B JUMP JUMPDEST SWAP3 SWAP2 POP POP JUMP JUMPDEST PUSH1 0x0 DUP2 MLOAD SWAP1 POP PUSH2 0x19C1 DUP2 PUSH2 0x242B JUMP JUMPDEST SWAP3 SWAP2 POP POP JUMP JUMPDEST PUSH1 0x0 DUP2 CALLDATALOAD SWAP1 POP PUSH2 0x19D6 DUP2 PUSH2 0x2442 JUMP JUMPDEST SWAP3 SWAP2 POP POP JUMP JUMPDEST PUSH1 0x0 PUSH1 0x20 DUP3 DUP5 SUB SLT ISZERO PUSH2 0x19F2 JUMPI PUSH2 0x19F1 PUSH2 0x21F2 JUMP JUMPDEST JUMPDEST PUSH1 0x0 PUSH2 0x1A00 DUP5 DUP3 DUP6 ADD PUSH2 0x195A JUMP JUMPDEST SWAP2 POP POP SWAP3 SWAP2 POP POP JUMP JUMPDEST PUSH1 0x0 DUP1 PUSH1 0x0 PUSH1 0x60 DUP5 DUP7 SUB SLT ISZERO PUSH2 0x1A22 JUMPI PUSH2 0x1A21 PUSH2 0x21F2 JUMP JUMPDEST JUMPDEST PUSH1 0x0 PUSH2 0x1A30 DUP7 DUP3 DUP8 ADD PUSH2 0x195A JUMP JUMPDEST SWAP4 POP POP PUSH1 0x20 PUSH2 0x1A41 DUP7 DUP3 DUP8 ADD PUSH2 0x195A JUMP JUMPDEST SWAP3 POP POP PUSH1 0x40 PUSH2 0x1A52 DUP7 DUP3 DUP8 ADD PUSH2 0x19C7 JUMP JUMPDEST SWAP2 POP POP SWAP3 POP SWAP3 POP SWAP3 JUMP JUMPDEST PUSH1 0x0 DUP1 PUSH1 0x40 DUP4 DUP6 SUB SLT ISZERO PUSH2 0x1A73 JUMPI PUSH2 0x1A72 PUSH2 0x21F2 JUMP JUMPDEST JUMPDEST PUSH1 0x0 DUP4 ADD CALLDATALOAD PUSH8 0xFFFFFFFFFFFFFFFF DUP2 GT ISZERO PUSH2 0x1A91 JUMPI PUSH2 0x1A90 PUSH2 0x21ED JUMP JUMPDEST JUMPDEST PUSH2 0x1A9D DUP6 DUP3 DUP7 ADD PUSH2 0x196F JUMP JUMPDEST SWAP3 POP POP PUSH1 0x20 PUSH2 0x1AAE DUP6 DUP3 DUP7 ADD PUSH2 0x199D JUMP JUMPDEST SWAP2 POP POP SWAP3 POP SWAP3 SWAP1 POP JUMP JUMPDEST PUSH1 0x0 PUSH1 0x20 DUP3 DUP5 SUB SLT ISZERO PUSH2 0x1ACE JUMPI PUSH2 0x1ACD PUSH2 0x21F2 JUMP JUMPDEST JUMPDEST PUSH1 0x0 PUSH2 0x1ADC DUP5 DUP3 DUP6 ADD PUSH2 0x19B2 JUMP JUMPDEST SWAP2 POP POP SWAP3 SWAP2 POP POP JUMP JUMPDEST PUSH1 0x0 PUSH1 0x20 DUP3 DUP5 SUB SLT ISZERO PUSH2 0x1AFB JUMPI PUSH2 0x1AFA PUSH2 0x21F2 JUMP JUMPDEST JUMPDEST PUSH1 0x0 PUSH2 0x1B09 DUP5 DUP3 DUP6 ADD PUSH2 0x19C7 JUMP JUMPDEST SWAP2 POP POP SWAP3 SWAP2 POP POP JUMP JUMPDEST PUSH2 0x1B1B DUP2 PUSH2 0x202F JUMP JUMPDEST DUP3 MSTORE POP POP JUMP JUMPDEST PUSH2 0x1B2A DUP2 PUSH2 0x2041 JUMP JUMPDEST DUP3 MSTORE POP POP JUMP JUMPDEST PUSH2 0x1B39 DUP2 PUSH2 0x2077 JUMP JUMPDEST DUP3 MSTORE POP POP JUMP JUMPDEST PUSH1 0x0 PUSH2 0x1B4C PUSH1 0x26 DUP4 PUSH2 0x1F09 JUMP JUMPDEST SWAP2 POP PUSH2 0x1B57 DUP3 PUSH2 0x2208 JUMP JUMPDEST PUSH1 0x40 DUP3 ADD SWAP1 POP SWAP2 SWAP1 POP JUMP JUMPDEST PUSH1 0x0 PUSH2 0x1B6F PUSH1 0xE DUP4 PUSH2 0x1F09 JUMP JUMPDEST SWAP2 POP PUSH2 0x1B7A DUP3 PUSH2 0x2257 JUMP JUMPDEST PUSH1 0x20 DUP3 ADD SWAP1 POP SWAP2 SWAP1 POP JUMP JUMPDEST PUSH1 0x0 PUSH2 0x1B92 PUSH1 0x1B DUP4 PUSH2 0x1F09 JUMP JUMPDEST SWAP2 POP PUSH2 0x1B9D DUP3 PUSH2 0x2280 JUMP JUMPDEST PUSH1 0x20 DUP3 ADD SWAP1 POP SWAP2 SWAP1 POP JUMP JUMPDEST PUSH1 0x0 PUSH2 0x1BB5 PUSH1 0x25 DUP4 PUSH2 0x1F09 JUMP JUMPDEST SWAP2 POP PUSH2 0x1BC0 DUP3 PUSH2 0x22A9 JUMP JUMPDEST PUSH1 0x40 DUP3 ADD SWAP1 POP SWAP2 SWAP1 POP JUMP JUMPDEST PUSH1 0x0 PUSH2 0x1BD8 PUSH1 0x1E DUP4 PUSH2 0x1F09 JUMP JUMPDEST SWAP2 POP PUSH2 0x1BE3 DUP3 PUSH2 0x22F8 JUMP JUMPDEST PUSH1 0x20 DUP3 ADD SWAP1 POP SWAP2 SWAP1 POP JUMP JUMPDEST PUSH1 0x0 PUSH2 0x1BFB PUSH1 0x1A DUP4 PUSH2 0x1F09 JUMP JUMPDEST SWAP2 POP PUSH2 0x1C06 DUP3 PUSH2 0x2321 JUMP JUMPDEST PUSH1 0x20 DUP3 ADD SWAP1 POP SWAP2 SWAP1 POP JUMP JUMPDEST PUSH1 0x0 PUSH2 0x1C1E PUSH1 0x1C DUP4 PUSH2 0x1F09 JUMP JUMPDEST SWAP2 POP PUSH2 0x1C29 DUP3 PUSH2 0x234A JUMP JUMPDEST PUSH1 0x20 DUP3 ADD SWAP1 POP SWAP2 SWAP1 POP JUMP JUMPDEST PUSH1 0x0 PUSH2 0x1C41 PUSH1 0x11 DUP4 PUSH2 0x1F09 JUMP JUMPDEST SWAP2 POP PUSH2 0x1C4C DUP3 PUSH2 0x2373 JUMP JUMPDEST PUSH1 0x20 DUP3 ADD SWAP1 POP SWAP2 SWAP1 POP JUMP JUMPDEST PUSH1 0x0 PUSH2 0x1C64 PUSH1 0x21 DUP4 PUSH2 0x1F09 JUMP JUMPDEST SWAP2 POP PUSH2 0x1C6F DUP3 PUSH2 0x239C JUMP JUMPDEST PUSH1 0x40 DUP3 ADD SWAP1 POP SWAP2 SWAP1 POP JUMP JUMPDEST PUSH1 0x0 PUSH2 0x1C87 PUSH1 0x20 DUP4 PUSH2 0x1F09 JUMP JUMPDEST SWAP2 POP PUSH2 0x1C92 DUP3 PUSH2 0x23EB JUMP JUMPDEST PUSH1 0x20 DUP3 ADD SWAP1 POP SWAP2 SWAP1 POP JUMP JUMPDEST PUSH2 0x1CA6 DUP2 PUSH2 0x206D JUMP JUMPDEST DUP3 MSTORE POP POP JUMP JUMPDEST PUSH1 0x0 PUSH1 0x20 DUP3 ADD SWAP1 POP PUSH2 0x1CC1 PUSH1 0x0 DUP4 ADD DUP5 PUSH2 0x1B12 JUMP JUMPDEST SWAP3 SWAP2 POP POP JUMP JUMPDEST PUSH1 0x0 PUSH1 0x60 DUP3 ADD SWAP1 POP PUSH2 0x1CDC PUSH1 0x0 DUP4 ADD DUP7 PUSH2 0x1B12 JUMP JUMPDEST PUSH2 0x1CE9 PUSH1 0x20 DUP4 ADD DUP6 PUSH2 0x1B12 JUMP JUMPDEST PUSH2 0x1CF6 PUSH1 0x40 DUP4 ADD DUP5 PUSH2 0x1C9D JUMP JUMPDEST SWAP5 SWAP4 POP POP POP POP JUMP JUMPDEST PUSH1 0x0 PUSH1 0x40 DUP3 ADD SWAP1 POP PUSH2 0x1D13 PUSH1 0x0 DUP4 ADD DUP6 PUSH2 0x1B12 JUMP JUMPDEST PUSH2 0x1D20 PUSH1 0x20 DUP4 ADD DUP5 PUSH2 0x1C9D JUMP JUMPDEST SWAP4 SWAP3 POP POP POP JUMP JUMPDEST PUSH1 0x0 PUSH1 0x20 DUP3 ADD SWAP1 POP PUSH2 0x1D3C PUSH1 0x0 DUP4 ADD DUP5 PUSH2 0x1B21 JUMP JUMPDEST SWAP3 SWAP2 POP POP JUMP JUMPDEST PUSH1 0x0 PUSH1 0x20 DUP3 ADD SWAP1 POP PUSH2 0x1D57 PUSH1 0x0 DUP4 ADD DUP5 PUSH2 0x1B30 JUMP JUMPDEST SWAP3 SWAP2 POP POP JUMP JUMPDEST PUSH1 0x0 PUSH1 0x20 DUP3 ADD SWAP1 POP DUP2 DUP2 SUB PUSH1 0x0 DUP4 ADD MSTORE PUSH2 0x1D76 DUP2 PUSH2 0x1B3F JUMP JUMPDEST SWAP1 POP SWAP2 SWAP1 POP JUMP JUMPDEST PUSH1 0x0 PUSH1 0x20 DUP3 ADD SWAP1 POP DUP2 DUP2 SUB PUSH1 0x0 DUP4 ADD MSTORE PUSH2 0x1D96 DUP2 PUSH2 0x1B62 JUMP JUMPDEST SWAP1 POP SWAP2 SWAP1 POP JUMP JUMPDEST PUSH1 0x0 PUSH1 0x20 DUP3 ADD SWAP1 POP DUP2 DUP2 SUB PUSH1 0x0 DUP4 ADD MSTORE PUSH2 0x1DB6 DUP2 PUSH2 0x1B85 JUMP JUMPDEST SWAP1 POP SWAP2 SWAP1 POP JUMP JUMPDEST PUSH1 0x0 PUSH1 0x20 DUP3 ADD SWAP1 POP DUP2 DUP2 SUB PUSH1 0x0 DUP4 ADD MSTORE PUSH2 0x1DD6 DUP2 PUSH2 0x1BA8 JUMP JUMPDEST SWAP1 POP SWAP2 SWAP1 POP JUMP JUMPDEST PUSH1 0x0 PUSH1 0x20 DUP3 ADD SWAP1 POP DUP2 DUP2 SUB PUSH1 0x0 DUP4 ADD MSTORE PUSH2 0x1DF6 DUP2 PUSH2 0x1BCB JUMP JUMPDEST SWAP1 POP SWAP2 SWAP1 POP JUMP JUMPDEST PUSH1 0x0 PUSH1 0x20 DUP3 ADD SWAP1 POP DUP2 DUP2 SUB PUSH1 0x0 DUP4 ADD MSTORE PUSH2 0x1E16 DUP2 PUSH2 0x1BEE JUMP JUMPDEST SWAP1 POP SWAP2 SWAP1 POP JUMP JUMPDEST PUSH1 0x0 PUSH1 0x20 DUP3 ADD SWAP1 POP DUP2 DUP2 SUB PUSH1 0x0 DUP4 ADD MSTORE PUSH2 0x1E36 DUP2 PUSH2 0x1C11 JUMP JUMPDEST SWAP1 POP SWAP2 SWAP1 POP JUMP JUMPDEST PUSH1 0x0 PUSH1 0x20 DUP3 ADD SWAP1 POP DUP2 DUP2 SUB PUSH1 0x0 DUP4 ADD MSTORE PUSH2 0x1E56 DUP2 PUSH2 0x1C34 JUMP JUMPDEST SWAP1 POP SWAP2 SWAP1 POP JUMP JUMPDEST PUSH1 0x0 PUSH1 0x20 DUP3 ADD SWAP1 POP DUP2 DUP2 SUB PUSH1 0x0 DUP4 ADD MSTORE PUSH2 0x1E76 DUP2 PUSH2 0x1C57 JUMP JUMPDEST SWAP1 POP SWAP2 SWAP1 POP JUMP JUMPDEST PUSH1 0x0 PUSH1 0x20 DUP3 ADD SWAP1 POP DUP2 DUP2 SUB PUSH1 0x0 DUP4 ADD MSTORE PUSH2 0x1E96 DUP2 PUSH2 0x1C7A JUMP JUMPDEST SWAP1 POP SWAP2 SWAP1 POP JUMP JUMPDEST PUSH1 0x0 PUSH1 0x20 DUP3 ADD SWAP1 POP PUSH2 0x1EB2 PUSH1 0x0 DUP4 ADD DUP5 PUSH2 0x1C9D JUMP JUMPDEST SWAP3 SWAP2 POP POP JUMP JUMPDEST PUSH1 0x0 PUSH2 0x1EC2 PUSH2 0x1ED3 JUMP JUMPDEST SWAP1 POP PUSH2 0x1ECE DUP3 DUP3 PUSH2 0x20AD JUMP JUMPDEST SWAP2 SWAP1 POP JUMP JUMPDEST PUSH1 0x0 PUSH1 0x40 MLOAD SWAP1 POP SWAP1 JUMP JUMPDEST PUSH1 0x0 PUSH8 0xFFFFFFFFFFFFFFFF DUP3 GT ISZERO PUSH2 0x1EF8 JUMPI PUSH2 0x1EF7 PUSH2 0x21B4 JUMP JUMPDEST JUMPDEST PUSH1 0x20 DUP3 MUL SWAP1 POP PUSH1 0x20 DUP2 ADD SWAP1 POP SWAP2 SWAP1 POP JUMP JUMPDEST PUSH1 0x0 DUP3 DUP3 MSTORE PUSH1 0x20 DUP3 ADD SWAP1 POP SWAP3 SWAP2 POP POP JUMP JUMPDEST PUSH1 0x0 PUSH2 0x1F25 DUP3 PUSH2 0x206D JUMP JUMPDEST SWAP2 POP PUSH2 0x1F30 DUP4 PUSH2 0x206D JUMP JUMPDEST SWAP3 POP DUP3 PUSH32 0xFFFFFFFFFFFFFFFFFFFFFFFFFFFFFFFFFFFFFFFFFFFFFFFFFFFFFFFFFFFFFFFF SUB DUP3 GT ISZERO PUSH2 0x1F65 JUMPI PUSH2 0x1F64 PUSH2 0x2127 JUMP JUMPDEST JUMPDEST DUP3 DUP3 ADD SWAP1 POP SWAP3 SWAP2 POP POP JUMP JUMPDEST PUSH1 0x0 PUSH2 0x1F7B DUP3 PUSH2 0x206D JUMP JUMPDEST SWAP2 POP PUSH2 0x1F86 DUP4 PUSH2 0x206D JUMP JUMPDEST SWAP3 POP DUP3 PUSH2 0x1F96 JUMPI PUSH2 0x1F95 PUSH2 0x2156 JUMP JUMPDEST JUMPDEST DUP3 DUP3 DIV SWAP1 POP SWAP3 SWAP2 POP POP JUMP JUMPDEST PUSH1 0x0 PUSH2 0x1FAC DUP3 PUSH2 0x206D JUMP JUMPDEST SWAP2 POP PUSH2 0x1FB7 DUP4 PUSH2 0x206D JUMP JUMPDEST SWAP3 POP DUP2 PUSH32 0xFFFFFFFFFFFFFFFFFFFFFFFFFFFFFFFFFFFFFFFFFFFFFFFFFFFFFFFFFFFFFFFF DIV DUP4 GT DUP3 ISZERO ISZERO AND ISZERO PUSH2 0x1FF0 JUMPI PUSH2 0x1FEF PUSH2 0x2127 JUMP JUMPDEST JUMPDEST DUP3 DUP3 MUL SWAP1 POP SWAP3 SWAP2 POP POP JUMP JUMPDEST PUSH1 0x0 PUSH2 0x2006 DUP3 PUSH2 0x206D JUMP JUMPDEST SWAP2 POP PUSH2 0x2011 DUP4 PUSH2 0x206D JUMP JUMPDEST SWAP3 POP DUP3 DUP3 LT ISZERO PUSH2 0x2024 JUMPI PUSH2 0x2023 PUSH2 0x2127 JUMP JUMPDEST JUMPDEST DUP3 DUP3 SUB SWAP1 POP SWAP3 SWAP2 POP POP JUMP JUMPDEST PUSH1 0x0 PUSH2 0x203A DUP3 PUSH2 0x204D JUMP JUMPDEST SWAP1 POP SWAP2 SWAP1 POP JUMP JUMPDEST PUSH1 0x0 DUP2 ISZERO ISZERO SWAP1 POP SWAP2 SWAP1 POP JUMP JUMPDEST PUSH1 0x0 PUSH20 0xFFFFFFFFFFFFFFFFFFFFFFFFFFFFFFFFFFFFFFFF DUP3 AND SWAP1 POP SWAP2 SWAP1 POP JUMP JUMPDEST PUSH1 0x0 DUP2 SWAP1 POP SWAP2 SWAP1 POP JUMP JUMPDEST PUSH1 0x0 PUSH2 0x2082 DUP3 PUSH2 0x2089 JUMP JUMPDEST SWAP1 POP SWAP2 SWAP1 POP JUMP JUMPDEST PUSH1 0x0 PUSH2 0x2094 DUP3 PUSH2 0x209B JUMP JUMPDEST SWAP1 POP SWAP2 SWAP1 POP JUMP JUMPDEST PUSH1 0x0 PUSH2 0x20A6 DUP3 PUSH2 0x204D JUMP JUMPDEST SWAP1 POP SWAP2 SWAP1 POP JUMP JUMPDEST PUSH2 0x20B6 DUP3 PUSH2 0x21F7 JUMP JUMPDEST DUP2 ADD DUP2 DUP2 LT PUSH8 0xFFFFFFFFFFFFFFFF DUP3 GT OR ISZERO PUSH2 0x20D5 JUMPI PUSH2 0x20D4 PUSH2 0x21B4 JUMP JUMPDEST JUMPDEST DUP1 PUSH1 0x40 MSTORE POP POP POP JUMP JUMPDEST PUSH1 0x0 PUSH2 0x20E9 DUP3 PUSH2 0x206D JUMP JUMPDEST SWAP2 POP PUSH32 0xFFFFFFFFFFFFFFFFFFFFFFFFFFFFFFFFFFFFFFFFFFFFFFFFFFFFFFFFFFFFFFFF DUP3 EQ ISZERO PUSH2 0x211C JUMPI PUSH2 0x211B PUSH2 0x2127 JUMP JUMPDEST JUMPDEST PUSH1 0x1 DUP3 ADD SWAP1 POP SWAP2 SWAP1 POP JUMP JUMPDEST PUSH32 0x4E487B7100000000000000000000000000000000000000000000000000000000 PUSH1 0x0 MSTORE PUSH1 0x11 PUSH1 0x4 MSTORE PUSH1 0x24 PUSH1 0x0 REVERT JUMPDEST PUSH32 0x4E487B7100000000000000000000000000000000000000000000000000000000 PUSH1 0x0 MSTORE PUSH1 0x12 PUSH1 0x4 MSTORE PUSH1 0x24 PUSH1 0x0 REVERT JUMPDEST PUSH32 0x4E487B7100000000000000000000000000000000000000000000000000000000 PUSH1 0x0 MSTORE PUSH1 0x32 PUSH1 0x4 MSTORE PUSH1 0x24 PUSH1 0x0 REVERT JUMPDEST PUSH32 0x4E487B7100000000000000000000000000000000000000000000000000000000 PUSH1 0x0 MSTORE PUSH1 0x41 PUSH1 0x4 MSTORE PUSH1 0x24 PUSH1 0x0 REVERT JUMPDEST PUSH1 0x0 DUP1 REVERT JUMPDEST PUSH1 0x0 DUP1 REVERT JUMPDEST PUSH1 0x0 DUP1 REVERT JUMPDEST PUSH1 0x0 DUP1 REVERT JUMPDEST PUSH1 0x0 PUSH1 0x1F NOT PUSH1 0x1F DUP4 ADD AND SWAP1 POP SWAP2 SWAP1 POP JUMP JUMPDEST PUSH32 0x4F776E61626C653A206E6577206F776E657220697320746865207A65726F2061 PUSH1 0x0 DUP3 ADD MSTORE PUSH32 0x6464726573730000000000000000000000000000000000000000000000000000 PUSH1 0x20 DUP3 ADD MSTORE POP JUMP JUMPDEST PUSH32 0x43616E6E6F74207374616B652030000000000000000000000000000000000000 PUSH1 0x0 DUP3 ADD MSTORE POP JUMP JUMPDEST PUSH32 0x536166654D6174683A206164646974696F6E206F766572666C6F770000000000 PUSH1 0x0 DUP3 ADD MSTORE POP JUMP JUMPDEST PUSH32 0x426F617264726F6F6D3A2043616C6C6572206973206E6F7420746865206F7065 PUSH1 0x0 DUP3 ADD MSTORE PUSH32 0x7261746F72000000000000000000000000000000000000000000000000000000 PUSH1 0x20 DUP3 ADD MSTORE POP JUMP JUMPDEST PUSH32 0x536166654D6174683A207375627472616374696F6E206F766572666C6F770000 PUSH1 0x0 DUP3 ADD MSTORE POP JUMP JUMPDEST PUSH32 0x536166654D6174683A206469766973696F6E206279207A65726F000000000000 PUSH1 0x0 DUP3 ADD MSTORE POP JUMP JUMPDEST PUSH32 0x426F617264726F6F6D3A2043616E6E6F7420616C6C6F63617465203000000000 PUSH1 0x0 DUP3 ADD MSTORE POP JUMP JUMPDEST PUSH32 0x43616E6E6F742077697468647261772030000000000000000000000000000000 PUSH1 0x0 DUP3 ADD MSTORE POP JUMP JUMPDEST PUSH32 0x536166654D6174683A206D756C7469706C69636174696F6E206F766572666C6F PUSH1 0x0 DUP3 ADD MSTORE PUSH32 0x7700000000000000000000000000000000000000000000000000000000000000 PUSH1 0x20 DUP3 ADD MSTORE POP JUMP JUMPDEST PUSH32 0x4F776E61626C653A2063616C6C6572206973206E6F7420746865206F776E6572 PUSH1 0x0 DUP3 ADD MSTORE POP JUMP JUMPDEST PUSH2 0x241D DUP2 PUSH2 0x202F JUMP JUMPDEST DUP2 EQ PUSH2 0x2428 JUMPI PUSH1 0x0 DUP1 REVERT JUMPDEST POP JUMP JUMPDEST PUSH2 0x2434 DUP2 PUSH2 0x2041 JUMP JUMPDEST DUP2 EQ PUSH2 0x243F JUMPI PUSH1 0x0 DUP1 REVERT JUMPDEST POP JUMP JUMPDEST PUSH2 0x244B DUP2 PUSH2 0x206D JUMP JUMPDEST DUP2 EQ PUSH2 0x2456 JUMPI PUSH1 0x0 DUP1 REVERT JUMPDEST POP JUMP INVALID LOG2 PUSH5 0x6970667358 0x22 SLT KECCAK256 SWAP2 PUSH29 0xCDC5349DB35C0C789B8015AAA5C06D21092C022CEAA42726CFAF801413 0xE PUSH5 0x736F6C6343 STOP ADDMOD SMOD STOP CALLER "
				},
				"gasEstimates": {
					"creation": {
						"codeDepositCost": "1871800",
						"executionCost": "infinite",
						"totalCost": "infinite"
					},
					"external": {
						"DURATION()": "441",
						"_lpt()": "2664",
						"_rewardToken()": "2689",
						"allocate(uint256)": "infinite",
						"allocateWithToken(uint256)": "infinite",
						"balanceOf(address)": "2974",
						"earned(address)": "infinite",
						"exit()": "infinite",
						"getLastSnapshotIndexOf(address)": "2870",
						"getReward()": "infinite",
						"lastUpdateTime()": "2473",
						"latestSnapshotIndex()": "infinite",
						"operators(address)": "2913",
						"owner()": "2633",
						"renounceOwnership()": "30443",
						"rewardPerShare()": "infinite",
						"rewardPerTokenStored()": "2495",
						"rewards(address)": "2860",
						"setOperator(address[],bool)": "infinite",
						"stake(uint256)": "infinite",
						"totalSupply()": "2527",
						"transferOwnership(address)": "30857",
						"userRewardPerTokenPaid(address)": "2903",
						"withdraw(uint256)": "infinite",
						"withdrawForeignTokens(address,address,uint256)": "infinite"
					},
					"internal": {
						"addNewSnapshot(uint256)": "infinite",
						"getLastSnapshotOf(address)": "infinite",
						"getLatestSnapshot()": "infinite"
					}
				},
				"methodIdentifiers": {
					"DURATION()": "1be05289",
					"_lpt()": "8525feed",
					"_rewardToken()": "b59c6e0e",
					"allocate(uint256)": "90ca796b",
					"allocateWithToken(uint256)": "66cf5880",
					"balanceOf(address)": "70a08231",
					"earned(address)": "008cc262",
					"exit()": "e9fad8ee",
					"getLastSnapshotIndexOf(address)": "714b4658",
					"getReward()": "3d18b912",
					"lastUpdateTime()": "c8f33c91",
					"latestSnapshotIndex()": "3f9e3f04",
					"operators(address)": "13e7c9d8",
					"owner()": "8da5cb5b",
					"renounceOwnership()": "715018a6",
					"rewardPerShare()": "446a2ec8",
					"rewardPerTokenStored()": "df136d65",
					"rewards(address)": "0700037d",
					"setOperator(address[],bool)": "1ed6144e",
					"stake(uint256)": "a694fc3a",
					"totalSupply()": "18160ddd",
					"transferOwnership(address)": "f2fde38b",
					"userRewardPerTokenPaid(address)": "8b876347",
					"withdraw(uint256)": "2e1a7d4d",
					"withdrawForeignTokens(address,address,uint256)": "a25e6898"
				}
			},
			"storageLayout": {
				"storage": [
					{
						"astId": 1238,
						"contract": "work_lp.sol:LPPool",
						"label": "_lpt",
						"offset": 0,
						"slot": "0",
						"type": "t_contract(IERC20)776"
					},
					{
						"astId": 1240,
						"contract": "work_lp.sol:LPPool",
						"label": "_totalSupply",
						"offset": 0,
						"slot": "1",
						"type": "t_uint256"
					},
					{
						"astId": 1244,
						"contract": "work_lp.sol:LPPool",
						"label": "_balances",
						"offset": 0,
						"slot": "2",
						"type": "t_mapping(t_address,t_uint256)"
					},
					{
						"astId": 7,
						"contract": "work_lp.sol:LPPool",
						"label": "_owner",
						"offset": 0,
						"slot": "3",
						"type": "t_address"
					},
					{
						"astId": 1347,
						"contract": "work_lp.sol:LPPool",
						"label": "_rewardToken",
						"offset": 0,
						"slot": "4",
						"type": "t_contract(IERC20)776"
					},
					{
						"astId": 1352,
						"contract": "work_lp.sol:LPPool",
						"label": "lastUpdateTime",
						"offset": 0,
						"slot": "5",
						"type": "t_uint256"
					},
					{
						"astId": 1354,
						"contract": "work_lp.sol:LPPool",
						"label": "rewardPerTokenStored",
						"offset": 0,
						"slot": "6",
						"type": "t_uint256"
					},
					{
						"astId": 1358,
						"contract": "work_lp.sol:LPPool",
						"label": "userRewardPerTokenPaid",
						"offset": 0,
						"slot": "7",
						"type": "t_mapping(t_address,t_uint256)"
					},
					{
						"astId": 1362,
						"contract": "work_lp.sol:LPPool",
						"label": "rewards",
						"offset": 0,
						"slot": "8",
						"type": "t_mapping(t_address,t_uint256)"
					},
					{
						"astId": 1378,
						"contract": "work_lp.sol:LPPool",
						"label": "operators",
						"offset": 0,
						"slot": "9",
						"type": "t_mapping(t_address,t_bool)"
					},
					{
						"astId": 1383,
						"contract": "work_lp.sol:LPPool",
						"label": "directors",
						"offset": 0,
						"slot": "10",
						"type": "t_mapping(t_address,t_struct(Boardseat)1367_storage)"
					},
					{
						"astId": 1387,
						"contract": "work_lp.sol:LPPool",
						"label": "boardHistory",
						"offset": 0,
						"slot": "11",
						"type": "t_array(t_struct(BoardSnapshot)1374_storage)dyn_storage"
					}
				],
				"types": {
					"t_address": {
						"encoding": "inplace",
						"label": "address",
						"numberOfBytes": "20"
					},
					"t_array(t_struct(BoardSnapshot)1374_storage)dyn_storage": {
						"base": "t_struct(BoardSnapshot)1374_storage",
						"encoding": "dynamic_array",
						"label": "struct LPPool.BoardSnapshot[]",
						"numberOfBytes": "32"
					},
					"t_bool": {
						"encoding": "inplace",
						"label": "bool",
						"numberOfBytes": "1"
					},
					"t_contract(IERC20)776": {
						"encoding": "inplace",
						"label": "contract IERC20",
						"numberOfBytes": "20"
					},
					"t_mapping(t_address,t_bool)": {
						"encoding": "mapping",
						"key": "t_address",
						"label": "mapping(address => bool)",
						"numberOfBytes": "32",
						"value": "t_bool"
					},
					"t_mapping(t_address,t_struct(Boardseat)1367_storage)": {
						"encoding": "mapping",
						"key": "t_address",
						"label": "mapping(address => struct LPPool.Boardseat)",
						"numberOfBytes": "32",
						"value": "t_struct(Boardseat)1367_storage"
					},
					"t_mapping(t_address,t_uint256)": {
						"encoding": "mapping",
						"key": "t_address",
						"label": "mapping(address => uint256)",
						"numberOfBytes": "32",
						"value": "t_uint256"
					},
					"t_struct(BoardSnapshot)1374_storage": {
						"encoding": "inplace",
						"label": "struct LPPool.BoardSnapshot",
						"members": [
							{
								"astId": 1369,
								"contract": "work_lp.sol:LPPool",
								"label": "time",
								"offset": 0,
								"slot": "0",
								"type": "t_uint256"
							},
							{
								"astId": 1371,
								"contract": "work_lp.sol:LPPool",
								"label": "rewardReceived",
								"offset": 0,
								"slot": "1",
								"type": "t_uint256"
							},
							{
								"astId": 1373,
								"contract": "work_lp.sol:LPPool",
								"label": "rewardPerShare",
								"offset": 0,
								"slot": "2",
								"type": "t_uint256"
							}
						],
						"numberOfBytes": "96"
					},
					"t_struct(Boardseat)1367_storage": {
						"encoding": "inplace",
						"label": "struct LPPool.Boardseat",
						"members": [
							{
								"astId": 1364,
								"contract": "work_lp.sol:LPPool",
								"label": "lastSnapshotIndex",
								"offset": 0,
								"slot": "0",
								"type": "t_uint256"
							},
							{
								"astId": 1366,
								"contract": "work_lp.sol:LPPool",
								"label": "rewardEarned",
								"offset": 0,
								"slot": "1",
								"type": "t_uint256"
							}
						],
						"numberOfBytes": "64"
					},
					"t_uint256": {
						"encoding": "inplace",
						"label": "uint256",
						"numberOfBytes": "32"
					}
				}
			},
			"userdoc": {
				"kind": "user",
				"methods": {},
				"version": 1
			}
		}
	}
}