{
	"HelloWord.sol": {
		"TestArray": {
			"abi": [
				{
					"inputs": [
						{
							"internalType": "uint256",
							"name": "",
							"type": "uint256"
						}
					],
					"name": "arr",
					"outputs": [
						{
							"internalType": "uint256",
							"name": "",
							"type": "uint256"
						}
					],
					"stateMutability": "view",
					"type": "function"
				},
				{
					"inputs": [],
					"name": "findTest",
					"outputs": [
						{
							"internalType": "uint256",
							"name": "",
							"type": "uint256"
						}
					],
					"stateMutability": "view",
					"type": "function"
				}
			],
			"devdoc": {
				"kind": "dev",
				"methods": {},
				"version": 1
			},
			"evm": {
				"assembly": "    /* \"HelloWord.sol\":20954:21180  contract TestArray {... */\n  mstore(0x40, 0x80)\n    /* \"HelloWord.sol\":21010:21039  uint[] public arr = [1, 3, 2] */\n  mload(0x40)\n  dup1\n  0x60\n  add\n  0x40\n  mstore\n  dup1\n    /* \"HelloWord.sol\":21031:21032  1 */\n  0x01\n    /* \"HelloWord.sol\":21010:21039  uint[] public arr = [1, 3, 2] */\n  0xff\n  and\n  dup2\n  mstore\n  0x20\n  add\n    /* \"HelloWord.sol\":21034:21035  3 */\n  0x03\n    /* \"HelloWord.sol\":21010:21039  uint[] public arr = [1, 3, 2] */\n  0xff\n  and\n  dup2\n  mstore\n  0x20\n  add\n    /* \"HelloWord.sol\":21037:21038  2 */\n  0x02\n    /* \"HelloWord.sol\":21010:21039  uint[] public arr = [1, 3, 2] */\n  0xff\n  and\n  dup2\n  mstore\n  pop\n  0x00\n  swap1\n  0x03\n  tag_1\n  swap3\n  swap2\n  swap1\n  tag_2\n  jump\t// in\ntag_1:\n  pop\n    /* \"HelloWord.sol\":20954:21180  contract TestArray {... */\n  callvalue\n  dup1\n  iszero\n  tag_3\n  jumpi\n  0x00\n  dup1\n  revert\ntag_3:\n  pop\n  jump(tag_4)\ntag_2:\n  dup3\n  dup1\n  sload\n  dup3\n  dup3\n  sstore\n  swap1\n  0x00\n  mstore\n  keccak256(0x00, 0x20)\n  swap1\n  dup2\n  add\n  swap3\n  dup3\n  iszero\n  tag_5\n  jumpi\n  swap2\n  0x20\n  mul\n  dup3\n  add\ntag_6:\n  dup3\n  dup2\n  gt\n  iszero\n  tag_7\n  jumpi\n  dup3\n  mload\n  dup3\n  swap1\n  0xff\n  and\n  swap1\n  sstore\n  swap2\n  0x20\n  add\n  swap2\n  swap1\n  0x01\n  add\n  swap1\n  jump(tag_6)\ntag_7:\ntag_5:\n  pop\n  swap1\n  pop\n  tag_8\n  swap2\n  swap1\n  tag_9\n  jump\t// in\ntag_8:\n  pop\n  swap1\n  jump\t// out\ntag_9:\ntag_10:\n  dup1\n  dup3\n  gt\n  iszero\n  tag_11\n  jumpi\n  0x00\n  dup2\n  0x00\n  swap1\n  sstore\n  pop\n  0x01\n  add\n  jump(tag_10)\ntag_11:\n  pop\n  swap1\n  jump\t// out\ntag_4:\n  dataSize(sub_0)\n  dup1\n  dataOffset(sub_0)\n  0x00\n  codecopy\n  0x00\n  return\nstop\n\nsub_0: assembly {\n        /* \"HelloWord.sol\":20954:21180  contract TestArray {... */\n      mstore(0x40, 0x80)\n      callvalue\n      dup1\n      iszero\n      tag_1\n      jumpi\n      0x00\n      dup1\n      revert\n    tag_1:\n      pop\n      jumpi(tag_2, lt(calldatasize, 0x04))\n      shr(0xe0, calldataload(0x00))\n      dup1\n      0x71e5ee5f\n      eq\n      tag_3\n      jumpi\n      dup1\n      0xe1889f34\n      eq\n      tag_4\n      jumpi\n    tag_2:\n      0x00\n      dup1\n      revert\n        /* \"HelloWord.sol\":21010:21039  uint[] public arr = [1, 3, 2] */\n    tag_3:\n      tag_5\n      0x04\n      dup1\n      calldatasize\n      sub\n      dup2\n      add\n      swap1\n      tag_6\n      swap2\n      swap1\n      tag_7\n      jump\t// in\n    tag_6:\n      tag_8\n      jump\t// in\n    tag_5:\n      mload(0x40)\n      tag_9\n      swap2\n      swap1\n      tag_10\n      jump\t// in\n    tag_9:\n      mload(0x40)\n      dup1\n      swap2\n      sub\n      swap1\n      return\n        /* \"HelloWord.sol\":21046:21178  function findTest() external view returns(uint) {... */\n    tag_4:\n      tag_11\n      tag_12\n      jump\t// in\n    tag_11:\n      mload(0x40)\n      tag_13\n      swap2\n      swap1\n      tag_10\n      jump\t// in\n    tag_13:\n      mload(0x40)\n      dup1\n      swap2\n      sub\n      swap1\n      return\n        /* \"HelloWord.sol\":21010:21039  uint[] public arr = [1, 3, 2] */\n    tag_8:\n      0x00\n      dup2\n      dup2\n      sload\n      dup2\n      lt\n      tag_14\n      jumpi\n      0x00\n      dup1\n      revert\n    tag_14:\n      swap1\n      0x00\n      mstore\n      keccak256(0x00, 0x20)\n      add\n      0x00\n      swap2\n      pop\n      swap1\n      pop\n      sload\n      dup2\n      jump\t// out\n        /* \"HelloWord.sol\":21046:21178  function findTest() external view returns(uint) {... */\n    tag_12:\n        /* \"HelloWord.sol\":21088:21092  uint */\n      0x00\n        /* \"HelloWord.sol\":21147:21158  arr.find(2) */\n      tag_17\n        /* \"HelloWord.sol\":21156:21157  2 */\n      0x02\n        /* \"HelloWord.sol\":21147:21150  arr */\n      0x00\n        /* \"HelloWord.sol\":21147:21155  arr.find */\n      tag_18\n      swap1\n        /* \"HelloWord.sol\":21147:21158  arr.find(2) */\n      swap2\n      swap1\n      0xffffffff\n      and\n      jump\t// in\n    tag_17:\n        /* \"HelloWord.sol\":21140:21158  return arr.find(2) */\n      swap1\n      pop\n        /* \"HelloWord.sol\":21046:21178  function findTest() external view returns(uint) {... */\n      swap1\n      jump\t// out\n        /* \"HelloWord.sol\":20721:20950  function find(uint[] storage _arr, uint x) internal view returns(uint) {... */\n    tag_18:\n        /* \"HelloWord.sol\":20786:20790  uint */\n      0x00\n        /* \"HelloWord.sol\":20807:20813  uint i */\n      dup1\n        /* \"HelloWord.sol\":20816:20817  0 */\n      0x00\n        /* \"HelloWord.sol\":20807:20817  uint i = 0 */\n      swap1\n      pop\n        /* \"HelloWord.sol\":20802:20924  for (uint i = 0; i < _arr.length; i++) {... */\n    tag_20:\n        /* \"HelloWord.sol\":20823:20827  _arr */\n      dup4\n        /* \"HelloWord.sol\":20823:20834  _arr.length */\n      dup1\n      sload\n      swap1\n      pop\n        /* \"HelloWord.sol\":20819:20820  i */\n      dup2\n        /* \"HelloWord.sol\":20819:20834  i < _arr.length */\n      lt\n        /* \"HelloWord.sol\":20802:20924  for (uint i = 0; i < _arr.length; i++) {... */\n      iszero\n      tag_21\n      jumpi\n        /* \"HelloWord.sol\":20870:20871  x */\n      dup3\n        /* \"HelloWord.sol\":20859:20863  _arr */\n      dup5\n        /* \"HelloWord.sol\":20864:20865  i */\n      dup3\n        /* \"HelloWord.sol\":20859:20866  _arr[i] */\n      dup2\n      sload\n      dup2\n      lt\n      tag_23\n      jumpi\n      tag_24\n      tag_25\n      jump\t// in\n    tag_24:\n    tag_23:\n      swap1\n      0x00\n      mstore\n      keccak256(0x00, 0x20)\n      add\n      sload\n        /* \"HelloWord.sol\":20859:20871  _arr[i] == x */\n      eq\n        /* \"HelloWord.sol\":20855:20914  if (_arr[i] == x) {... */\n      iszero\n      tag_27\n      jumpi\n        /* \"HelloWord.sol\":20898:20899  i */\n      dup1\n        /* \"HelloWord.sol\":20891:20899  return i */\n      swap2\n      pop\n      pop\n      jump(tag_19)\n        /* \"HelloWord.sol\":20855:20914  if (_arr[i] == x) {... */\n    tag_27:\n        /* \"HelloWord.sol\":20836:20839  i++ */\n      dup1\n      dup1\n      tag_28\n      swap1\n      tag_29\n      jump\t// in\n    tag_28:\n      swap2\n      pop\n      pop\n        /* \"HelloWord.sol\":20802:20924  for (uint i = 0; i < _arr.length; i++) {... */\n      jump(tag_20)\n    tag_21:\n      pop\n        /* \"HelloWord.sol\":20940:20942  10 */\n      0x0a\n        /* \"HelloWord.sol\":20933:20942  return 10 */\n      swap1\n      pop\n        /* \"HelloWord.sol\":20721:20950  function find(uint[] storage _arr, uint x) internal view returns(uint) {... */\n    tag_19:\n      swap3\n      swap2\n      pop\n      pop\n      jump\t// out\n        /* \"#utility.yul\":7:146   */\n    tag_31:\n        /* \"#utility.yul\":53:58   */\n      0x00\n        /* \"#utility.yul\":91:97   */\n      dup2\n        /* \"#utility.yul\":78:98   */\n      calldataload\n        /* \"#utility.yul\":69:98   */\n      swap1\n      pop\n        /* \"#utility.yul\":107:140   */\n      tag_33\n        /* \"#utility.yul\":134:139   */\n      dup2\n        /* \"#utility.yul\":107:140   */\n      tag_34\n      jump\t// in\n    tag_33:\n        /* \"#utility.yul\":7:146   */\n      swap3\n      swap2\n      pop\n      pop\n      jump\t// out\n        /* \"#utility.yul\":152:481   */\n    tag_7:\n        /* \"#utility.yul\":211:217   */\n      0x00\n        /* \"#utility.yul\":260:262   */\n      0x20\n        /* \"#utility.yul\":248:257   */\n      dup3\n        /* \"#utility.yul\":239:246   */\n      dup5\n        /* \"#utility.yul\":235:258   */\n      sub\n        /* \"#utility.yul\":231:263   */\n      slt\n        /* \"#utility.yul\":228:347   */\n      iszero\n      tag_36\n      jumpi\n        /* \"#utility.yul\":266:345   */\n      tag_37\n      tag_38\n      jump\t// in\n    tag_37:\n        /* \"#utility.yul\":228:347   */\n    tag_36:\n        /* \"#utility.yul\":386:387   */\n      0x00\n        /* \"#utility.yul\":411:464   */\n      tag_39\n        /* \"#utility.yul\":456:463   */\n      dup5\n        /* \"#utility.yul\":447:453   */\n      dup3\n        /* \"#utility.yul\":436:445   */\n      dup6\n        /* \"#utility.yul\":432:454   */\n      add\n        /* \"#utility.yul\":411:464   */\n      tag_31\n      jump\t// in\n    tag_39:\n        /* \"#utility.yul\":401:464   */\n      swap2\n      pop\n        /* \"#utility.yul\":357:474   */\n      pop\n        /* \"#utility.yul\":152:481   */\n      swap3\n      swap2\n      pop\n      pop\n      jump\t// out\n        /* \"#utility.yul\":487:605   */\n    tag_40:\n        /* \"#utility.yul\":574:598   */\n      tag_42\n        /* \"#utility.yul\":592:597   */\n      dup2\n        /* \"#utility.yul\":574:598   */\n      tag_43\n      jump\t// in\n    tag_42:\n        /* \"#utility.yul\":569:572   */\n      dup3\n        /* \"#utility.yul\":562:599   */\n      mstore\n        /* \"#utility.yul\":487:605   */\n      pop\n      pop\n      jump\t// out\n        /* \"#utility.yul\":611:833   */\n    tag_10:\n        /* \"#utility.yul\":704:708   */\n      0x00\n        /* \"#utility.yul\":742:744   */\n      0x20\n        /* \"#utility.yul\":731:740   */\n      dup3\n        /* \"#utility.yul\":727:745   */\n      add\n        /* \"#utility.yul\":719:745   */\n      swap1\n      pop\n        /* \"#utility.yul\":755:826   */\n      tag_45\n        /* \"#utility.yul\":823:824   */\n      0x00\n        /* \"#utility.yul\":812:821   */\n      dup4\n        /* \"#utility.yul\":808:825   */\n      add\n        /* \"#utility.yul\":799:805   */\n      dup5\n        /* \"#utility.yul\":755:826   */\n      tag_40\n      jump\t// in\n    tag_45:\n        /* \"#utility.yul\":611:833   */\n      swap3\n      swap2\n      pop\n      pop\n      jump\t// out\n        /* \"#utility.yul\":920:997   */\n    tag_43:\n        /* \"#utility.yul\":957:964   */\n      0x00\n        /* \"#utility.yul\":986:991   */\n      dup2\n        /* \"#utility.yul\":975:991   */\n      swap1\n      pop\n        /* \"#utility.yul\":920:997   */\n      swap2\n      swap1\n      pop\n      jump\t// out\n        /* \"#utility.yul\":1003:1236   */\n    tag_29:\n        /* \"#utility.yul\":1042:1045   */\n      0x00\n        /* \"#utility.yul\":1065:1089   */\n      tag_50\n        /* \"#utility.yul\":1083:1088   */\n      dup3\n        /* \"#utility.yul\":1065:1089   */\n      tag_43\n      jump\t// in\n    tag_50:\n        /* \"#utility.yul\":1056:1089   */\n      swap2\n      pop\n        /* \"#utility.yul\":1111:1177   */\n      0xffffffffffffffffffffffffffffffffffffffffffffffffffffffffffffffff\n        /* \"#utility.yul\":1104:1109   */\n      dup3\n        /* \"#utility.yul\":1101:1178   */\n      eq\n        /* \"#utility.yul\":1098:1201   */\n      iszero\n      tag_51\n      jumpi\n        /* \"#utility.yul\":1181:1199   */\n      tag_52\n      tag_53\n      jump\t// in\n    tag_52:\n        /* \"#utility.yul\":1098:1201   */\n    tag_51:\n        /* \"#utility.yul\":1228:1229   */\n      0x01\n        /* \"#utility.yul\":1221:1226   */\n      dup3\n        /* \"#utility.yul\":1217:1230   */\n      add\n        /* \"#utility.yul\":1210:1230   */\n      swap1\n      pop\n        /* \"#utility.yul\":1003:1236   */\n      swap2\n      swap1\n      pop\n      jump\t// out\n        /* \"#utility.yul\":1242:1422   */\n    tag_53:\n        /* \"#utility.yul\":1290:1367   */\n      0x4e487b7100000000000000000000000000000000000000000000000000000000\n        /* \"#utility.yul\":1287:1288   */\n      0x00\n        /* \"#utility.yul\":1280:1368   */\n      mstore\n        /* \"#utility.yul\":1387:1391   */\n      0x11\n        /* \"#utility.yul\":1384:1385   */\n      0x04\n        /* \"#utility.yul\":1377:1392   */\n      mstore\n        /* \"#utility.yul\":1411:1415   */\n      0x24\n        /* \"#utility.yul\":1408:1409   */\n      0x00\n        /* \"#utility.yul\":1401:1416   */\n      revert\n        /* \"#utility.yul\":1428:1608   */\n    tag_25:\n        /* \"#utility.yul\":1476:1553   */\n      0x4e487b7100000000000000000000000000000000000000000000000000000000\n        /* \"#utility.yul\":1473:1474   */\n      0x00\n        /* \"#utility.yul\":1466:1554   */\n      mstore\n        /* \"#utility.yul\":1573:1577   */\n      0x32\n        /* \"#utility.yul\":1570:1571   */\n      0x04\n        /* \"#utility.yul\":1563:1578   */\n      mstore\n        /* \"#utility.yul\":1597:1601   */\n      0x24\n        /* \"#utility.yul\":1594:1595   */\n      0x00\n        /* \"#utility.yul\":1587:1602   */\n      revert\n        /* \"#utility.yul\":1737:1854   */\n    tag_38:\n        /* \"#utility.yul\":1846:1847   */\n      0x00\n        /* \"#utility.yul\":1843:1844   */\n      dup1\n        /* \"#utility.yul\":1836:1848   */\n      revert\n        /* \"#utility.yul\":1860:1982   */\n    tag_34:\n        /* \"#utility.yul\":1933:1957   */\n      tag_60\n        /* \"#utility.yul\":1951:1956   */\n      dup2\n        /* \"#utility.yul\":1933:1957   */\n      tag_43\n      jump\t// in\n    tag_60:\n        /* \"#utility.yul\":1926:1931   */\n      dup2\n        /* \"#utility.yul\":1923:1958   */\n      eq\n        /* \"#utility.yul\":1913:1976   */\n      tag_61\n      jumpi\n        /* \"#utility.yul\":1972:1973   */\n      0x00\n        /* \"#utility.yul\":1969:1970   */\n      dup1\n        /* \"#utility.yul\":1962:1974   */\n      revert\n        /* \"#utility.yul\":1913:1976   */\n    tag_61:\n        /* \"#utility.yul\":1860:1982   */\n      pop\n      jump\t// out\n\n    auxdata: 0xa2646970667358221220c5dff86523ada4e322fb0fdea77ef540c74d6dd8d6b79df57ca1041126cda93164736f6c63430008070033\n}\n",
				"bytecode": {
					"linkReferences": {},
					"object": "60806040526040518060600160405280600160ff168152602001600360ff168152602001600260ff16815250600090600361003b92919061004e565b5034801561004857600080fd5b506100bd565b82805482825590600052602060002090810192821561008f579160200282015b8281111561008e578251829060ff1690559160200191906001019061006e565b5b50905061009c91906100a0565b5090565b5b808211156100b95760008160009055506001016100a1565b5090565b610299806100cc6000396000f3fe608060405234801561001057600080fd5b50600436106100365760003560e01c806371e5ee5f1461003b578063e1889f341461006b575b600080fd5b6100556004803603810190610050919061013f565b610089565b604051610062919061017b565b60405180910390f35b6100736100ad565b604051610080919061017b565b60405180910390f35b6000818154811061009957600080fd5b906000526020600020016000915090505481565b60006100c4600260006100c990919063ffffffff16565b905090565b600080600090505b838054905081101561011e57828482815481106100f1576100f0610218565b5b9060005260206000200154141561010b5780915050610124565b8080610116906101a0565b9150506100d1565b50600a90505b92915050565b6000813590506101398161024c565b92915050565b60006020828403121561015557610154610247565b5b60006101638482850161012a565b91505092915050565b61017581610196565b82525050565b6000602082019050610190600083018461016c565b92915050565b6000819050919050565b60006101ab82610196565b91507fffffffffffffffffffffffffffffffffffffffffffffffffffffffffffffffff8214156101de576101dd6101e9565b5b600182019050919050565b7f4e487b7100000000000000000000000000000000000000000000000000000000600052601160045260246000fd5b7f4e487b7100000000000000000000000000000000000000000000000000000000600052603260045260246000fd5b600080fd5b61025581610196565b811461026057600080fd5b5056fea2646970667358221220c5dff86523ada4e322fb0fdea77ef540c74d6dd8d6b79df57ca1041126cda93164736f6c63430008070033",
					"opcodes": "PUSH1 0x80 PUSH1 0x40 MSTORE PUSH1 0x40 MLOAD DUP1 PUSH1 0x60 ADD PUSH1 0x40 MSTORE DUP1 PUSH1 0x1 PUSH1 0xFF AND DUP2 MSTORE PUSH1 0x20 ADD PUSH1 0x3 PUSH1 0xFF AND DUP2 MSTORE PUSH1 0x20 ADD PUSH1 0x2 PUSH1 0xFF AND DUP2 MSTORE POP PUSH1 0x0 SWAP1 PUSH1 0x3 PUSH2 0x3B SWAP3 SWAP2 SWAP1 PUSH2 0x4E JUMP JUMPDEST POP CALLVALUE DUP1 ISZERO PUSH2 0x48 JUMPI PUSH1 0x0 DUP1 REVERT JUMPDEST POP PUSH2 0xBD JUMP JUMPDEST DUP3 DUP1 SLOAD DUP3 DUP3 SSTORE SWAP1 PUSH1 0x0 MSTORE PUSH1 0x20 PUSH1 0x0 KECCAK256 SWAP1 DUP2 ADD SWAP3 DUP3 ISZERO PUSH2 0x8F JUMPI SWAP2 PUSH1 0x20 MUL DUP3 ADD JUMPDEST DUP3 DUP2 GT ISZERO PUSH2 0x8E JUMPI DUP3 MLOAD DUP3 SWAP1 PUSH1 0xFF AND SWAP1 SSTORE SWAP2 PUSH1 0x20 ADD SWAP2 SWAP1 PUSH1 0x1 ADD SWAP1 PUSH2 0x6E JUMP JUMPDEST JUMPDEST POP SWAP1 POP PUSH2 0x9C SWAP2 SWAP1 PUSH2 0xA0 JUMP JUMPDEST POP SWAP1 JUMP JUMPDEST JUMPDEST DUP1 DUP3 GT ISZERO PUSH2 0xB9 JUMPI PUSH1 0x0 DUP2 PUSH1 0x0 SWAP1 SSTORE POP PUSH1 0x1 ADD PUSH2 0xA1 JUMP JUMPDEST POP SWAP1 JUMP JUMPDEST PUSH2 0x299 DUP1 PUSH2 0xCC PUSH1 0x0 CODECOPY PUSH1 0x0 RETURN INVALID PUSH1 0x80 PUSH1 0x40 MSTORE CALLVALUE DUP1 ISZERO PUSH2 0x10 JUMPI PUSH1 0x0 DUP1 REVERT JUMPDEST POP PUSH1 0x4 CALLDATASIZE LT PUSH2 0x36 JUMPI PUSH1 0x0 CALLDATALOAD PUSH1 0xE0 SHR DUP1 PUSH4 0x71E5EE5F EQ PUSH2 0x3B JUMPI DUP1 PUSH4 0xE1889F34 EQ PUSH2 0x6B JUMPI JUMPDEST PUSH1 0x0 DUP1 REVERT JUMPDEST PUSH2 0x55 PUSH1 0x4 DUP1 CALLDATASIZE SUB DUP2 ADD SWAP1 PUSH2 0x50 SWAP2 SWAP1 PUSH2 0x13F JUMP JUMPDEST PUSH2 0x89 JUMP JUMPDEST PUSH1 0x40 MLOAD PUSH2 0x62 SWAP2 SWAP1 PUSH2 0x17B JUMP JUMPDEST PUSH1 0x40 MLOAD DUP1 SWAP2 SUB SWAP1 RETURN JUMPDEST PUSH2 0x73 PUSH2 0xAD JUMP JUMPDEST PUSH1 0x40 MLOAD PUSH2 0x80 SWAP2 SWAP1 PUSH2 0x17B JUMP JUMPDEST PUSH1 0x40 MLOAD DUP1 SWAP2 SUB SWAP1 RETURN JUMPDEST PUSH1 0x0 DUP2 DUP2 SLOAD DUP2 LT PUSH2 0x99 JUMPI PUSH1 0x0 DUP1 REVERT JUMPDEST SWAP1 PUSH1 0x0 MSTORE PUSH1 0x20 PUSH1 0x0 KECCAK256 ADD PUSH1 0x0 SWAP2 POP SWAP1 POP SLOAD DUP2 JUMP JUMPDEST PUSH1 0x0 PUSH2 0xC4 PUSH1 0x2 PUSH1 0x0 PUSH2 0xC9 SWAP1 SWAP2 SWAP1 PUSH4 0xFFFFFFFF AND JUMP JUMPDEST SWAP1 POP SWAP1 JUMP JUMPDEST PUSH1 0x0 DUP1 PUSH1 0x0 SWAP1 POP JUMPDEST DUP4 DUP1 SLOAD SWAP1 POP DUP2 LT ISZERO PUSH2 0x11E JUMPI DUP3 DUP5 DUP3 DUP2 SLOAD DUP2 LT PUSH2 0xF1 JUMPI PUSH2 0xF0 PUSH2 0x218 JUMP JUMPDEST JUMPDEST SWAP1 PUSH1 0x0 MSTORE PUSH1 0x20 PUSH1 0x0 KECCAK256 ADD SLOAD EQ ISZERO PUSH2 0x10B JUMPI DUP1 SWAP2 POP POP PUSH2 0x124 JUMP JUMPDEST DUP1 DUP1 PUSH2 0x116 SWAP1 PUSH2 0x1A0 JUMP JUMPDEST SWAP2 POP POP PUSH2 0xD1 JUMP JUMPDEST POP PUSH1 0xA SWAP1 POP JUMPDEST SWAP3 SWAP2 POP POP JUMP JUMPDEST PUSH1 0x0 DUP2 CALLDATALOAD SWAP1 POP PUSH2 0x139 DUP2 PUSH2 0x24C JUMP JUMPDEST SWAP3 SWAP2 POP POP JUMP JUMPDEST PUSH1 0x0 PUSH1 0x20 DUP3 DUP5 SUB SLT ISZERO PUSH2 0x155 JUMPI PUSH2 0x154 PUSH2 0x247 JUMP JUMPDEST JUMPDEST PUSH1 0x0 PUSH2 0x163 DUP5 DUP3 DUP6 ADD PUSH2 0x12A JUMP JUMPDEST SWAP2 POP POP SWAP3 SWAP2 POP POP JUMP JUMPDEST PUSH2 0x175 DUP2 PUSH2 0x196 JUMP JUMPDEST DUP3 MSTORE POP POP JUMP JUMPDEST PUSH1 0x0 PUSH1 0x20 DUP3 ADD SWAP1 POP PUSH2 0x190 PUSH1 0x0 DUP4 ADD DUP5 PUSH2 0x16C JUMP JUMPDEST SWAP3 SWAP2 POP POP JUMP JUMPDEST PUSH1 0x0 DUP2 SWAP1 POP SWAP2 SWAP1 POP JUMP JUMPDEST PUSH1 0x0 PUSH2 0x1AB DUP3 PUSH2 0x196 JUMP JUMPDEST SWAP2 POP PUSH32 0xFFFFFFFFFFFFFFFFFFFFFFFFFFFFFFFFFFFFFFFFFFFFFFFFFFFFFFFFFFFFFFFF DUP3 EQ ISZERO PUSH2 0x1DE JUMPI PUSH2 0x1DD PUSH2 0x1E9 JUMP JUMPDEST JUMPDEST PUSH1 0x1 DUP3 ADD SWAP1 POP SWAP2 SWAP1 POP JUMP JUMPDEST PUSH32 0x4E487B7100000000000000000000000000000000000000000000000000000000 PUSH1 0x0 MSTORE PUSH1 0x11 PUSH1 0x4 MSTORE PUSH1 0x24 PUSH1 0x0 REVERT JUMPDEST PUSH32 0x4E487B7100000000000000000000000000000000000000000000000000000000 PUSH1 0x0 MSTORE PUSH1 0x32 PUSH1 0x4 MSTORE PUSH1 0x24 PUSH1 0x0 REVERT JUMPDEST PUSH1 0x0 DUP1 REVERT JUMPDEST PUSH2 0x255 DUP2 PUSH2 0x196 JUMP JUMPDEST DUP2 EQ PUSH2 0x260 JUMPI PUSH1 0x0 DUP1 REVERT JUMPDEST POP JUMP INVALID LOG2 PUSH5 0x6970667358 0x22 SLT KECCAK256 0xC5 0xDF 0xF8 PUSH6 0x23ADA4E322FB 0xF 0xDE 0xA7 PUSH31 0xF540C74D6DD8D6B79DF57CA1041126CDA93164736F6C634300080700330000 "
				},
				"gasEstimates": {
					"creation": {
						"codeDepositCost": "133000",
						"executionCost": "infinite",
						"totalCost": "infinite"
					},
					"external": {
						"arr(uint256)": "infinite",
						"findTest()": "infinite"
					}
				},
				"methodIdentifiers": {
					"arr(uint256)": "71e5ee5f",
					"findTest()": "e1889f34"
				}
			},
			"storageLayout": {
				"storage": [
					{
						"astId": 177,
						"contract": "HelloWord.sol:TestArray",
						"label": "arr",
						"offset": 0,
						"slot": "0",
						"type": "t_array(t_uint256)dyn_storage"
					}
				],
				"types": {
					"t_array(t_uint256)dyn_storage": {
						"base": "t_uint256",
						"encoding": "dynamic_array",
						"label": "uint256[]",
						"numberOfBytes": "32"
					},
					"t_uint256": {
						"encoding": "inplace",
						"label": "uint256",
						"numberOfBytes": "32"
					}
				}
			},
			"userdoc": {
				"kind": "user",
				"methods": {},
				"version": 1
			}
		}
	}
}