{
	"HelloWord.sol": {
		"TxUserWallet": {
			"abi": [
				{
					"inputs": [],
					"stateMutability": "payable",
					"type": "constructor"
				},
				{
					"anonymous": false,
					"inputs": [
						{
							"indexed": false,
							"internalType": "uint256",
							"name": "gg",
							"type": "uint256"
						}
					],
					"name": "UserLog",
					"type": "event"
				},
				{
					"inputs": [],
					"name": "getBalance",
					"outputs": [
						{
							"internalType": "uint256",
							"name": "",
							"type": "uint256"
						}
					],
					"stateMutability": "view",
					"type": "function"
				},
				{
					"inputs": [
						{
							"internalType": "address payable",
							"name": "dest",
							"type": "address"
						},
						{
							"internalType": "uint256",
							"name": "amount",
							"type": "uint256"
						}
					],
					"name": "transferTo",
					"outputs": [],
					"stateMutability": "payable",
					"type": "function"
				}
			],
			"devdoc": {
				"kind": "dev",
				"methods": {},
				"version": 1
			},
			"evm": {
				"assembly": "    /* \"HelloWord.sol\":27954:28576  contract TxUserWallet {... */\n  mstore(0x40, 0x80)\n    /* \"HelloWord.sol\":28074:28084  msg.sender */\n  caller\n    /* \"HelloWord.sol\":28066:28071  owner */\n  0x00\n  dup1\n    /* \"HelloWord.sol\":28066:28084  owner = msg.sender */\n  0x0100\n  exp\n  dup2\n  sload\n  dup2\n  0xffffffffffffffffffffffffffffffffffffffff\n  mul\n  not\n  and\n  swap1\n  dup4\n  0xffffffffffffffffffffffffffffffffffffffff\n  and\n  mul\n  or\n  swap1\n  sstore\n  pop\n    /* \"HelloWord.sol\":27954:28576  contract TxUserWallet {... */\n  dataSize(sub_0)\n  dup1\n  dataOffset(sub_0)\n  0x00\n  codecopy\n  0x00\n  return\nstop\n\nsub_0: assembly {\n        /* \"HelloWord.sol\":27954:28576  contract TxUserWallet {... */\n      mstore(0x40, 0x80)\n      jumpi(tag_1, lt(calldatasize, 0x04))\n      shr(0xe0, calldataload(0x00))\n      dup1\n      0x12065fe0\n      eq\n      tag_2\n      jumpi\n      dup1\n      0x2ccb1b30\n      eq\n      tag_3\n      jumpi\n    tag_1:\n      0x00\n      dup1\n      revert\n        /* \"HelloWord.sol\":28447:28574  function getBalance() public view returns(uint) {... */\n    tag_2:\n      callvalue\n      dup1\n      iszero\n      tag_4\n      jumpi\n      0x00\n      dup1\n      revert\n    tag_4:\n      pop\n      tag_5\n      tag_6\n      jump\t// in\n    tag_5:\n      mload(0x40)\n      tag_7\n      swap2\n      swap1\n      tag_8\n      jump\t// in\n    tag_7:\n      mload(0x40)\n      dup1\n      swap2\n      sub\n      swap1\n      return\n        /* \"HelloWord.sol\":28097:28441  function transferTo(address payable dest, uint amount) external payable{... */\n    tag_3:\n      tag_9\n      0x04\n      dup1\n      calldatasize\n      sub\n      dup2\n      add\n      swap1\n      tag_10\n      swap2\n      swap1\n      tag_11\n      jump\t// in\n    tag_10:\n      tag_12\n      jump\t// in\n    tag_9:\n      stop\n        /* \"HelloWord.sol\":28447:28574  function getBalance() public view returns(uint) {... */\n    tag_6:\n        /* \"HelloWord.sol\":28489:28493  uint */\n      0x00\n        /* \"HelloWord.sol\":28505:28518  uint _balance */\n      dup1\n        /* \"HelloWord.sol\":28521:28542  address(this).balance */\n      selfbalance\n        /* \"HelloWord.sol\":28505:28542  uint _balance = address(this).balance */\n      swap1\n      pop\n        /* \"HelloWord.sol\":28559:28567  _balance */\n      dup1\n        /* \"HelloWord.sol\":28552:28567  return _balance */\n      swap2\n      pop\n      pop\n        /* \"HelloWord.sol\":28447:28574  function getBalance() public view returns(uint) {... */\n      swap1\n      jump\t// out\n        /* \"HelloWord.sol\":28097:28441  function transferTo(address payable dest, uint amount) external payable{... */\n    tag_12:\n        /* \"HelloWord.sol\":28199:28204  owner */\n      0x00\n      dup1\n      sload\n      swap1\n      0x0100\n      exp\n      swap1\n      div\n      0xffffffffffffffffffffffffffffffffffffffff\n      and\n        /* \"HelloWord.sol\":28186:28204  tx.origin == owner */\n      0xffffffffffffffffffffffffffffffffffffffff\n      and\n        /* \"HelloWord.sol\":28186:28195  tx.origin */\n      origin\n        /* \"HelloWord.sol\":28186:28204  tx.origin == owner */\n      0xffffffffffffffffffffffffffffffffffffffff\n      and\n      eq\n        /* \"HelloWord.sol\":28178:28205  require(tx.origin == owner) */\n      tag_15\n      jumpi\n      0x00\n      dup1\n      revert\n    tag_15:\n        /* \"HelloWord.sol\":28220:28238  UserLog(gasleft()) */\n      0xee850fde8b552ceb0af07907aa59e4b7a9813a3803c197c4c74e69b65868baa6\n        /* \"HelloWord.sol\":28228:28237  gasleft() */\n      gas\n        /* \"HelloWord.sol\":28220:28238  UserLog(gasleft()) */\n      mload(0x40)\n      tag_16\n      swap2\n      swap1\n      tag_8\n      jump\t// in\n    tag_16:\n      mload(0x40)\n      dup1\n      swap2\n      sub\n      swap1\n      log1\n        /* \"HelloWord.sol\":28406:28410  dest */\n      dup2\n        /* \"HelloWord.sol\":28406:28415  dest.call */\n      0xffffffffffffffffffffffffffffffffffffffff\n      and\n        /* \"HelloWord.sol\":28423:28429  amount */\n      dup2\n        /* \"HelloWord.sol\":28406:28434  dest.call{value: amount}(\"\") */\n      mload(0x40)\n      tag_17\n      swap1\n      tag_18\n      jump\t// in\n    tag_17:\n      0x00\n      mload(0x40)\n      dup1\n      dup4\n      sub\n      dup2\n      dup6\n      dup8\n      gas\n      call\n      swap3\n      pop\n      pop\n      pop\n      returndatasize\n      dup1\n      0x00\n      dup2\n      eq\n      tag_21\n      jumpi\n      mload(0x40)\n      swap2\n      pop\n      and(add(returndatasize, 0x3f), not(0x1f))\n      dup3\n      add\n      0x40\n      mstore\n      returndatasize\n      dup3\n      mstore\n      returndatasize\n      0x00\n      0x20\n      dup5\n      add\n      returndatacopy\n      jump(tag_20)\n    tag_21:\n      0x60\n      swap2\n      pop\n    tag_20:\n      pop\n      pop\n      pop\n        /* \"HelloWord.sol\":28097:28441  function transferTo(address payable dest, uint amount) external payable{... */\n      pop\n      pop\n      jump\t// out\n        /* \"#utility.yul\":7:162   */\n    tag_23:\n        /* \"#utility.yul\":61:66   */\n      0x00\n        /* \"#utility.yul\":99:105   */\n      dup2\n        /* \"#utility.yul\":86:106   */\n      calldataload\n        /* \"#utility.yul\":77:106   */\n      swap1\n      pop\n        /* \"#utility.yul\":115:156   */\n      tag_25\n        /* \"#utility.yul\":150:155   */\n      dup2\n        /* \"#utility.yul\":115:156   */\n      tag_26\n      jump\t// in\n    tag_25:\n        /* \"#utility.yul\":7:162   */\n      swap3\n      swap2\n      pop\n      pop\n      jump\t// out\n        /* \"#utility.yul\":168:307   */\n    tag_27:\n        /* \"#utility.yul\":214:219   */\n      0x00\n        /* \"#utility.yul\":252:258   */\n      dup2\n        /* \"#utility.yul\":239:259   */\n      calldataload\n        /* \"#utility.yul\":230:259   */\n      swap1\n      pop\n        /* \"#utility.yul\":268:301   */\n      tag_29\n        /* \"#utility.yul\":295:300   */\n      dup2\n        /* \"#utility.yul\":268:301   */\n      tag_30\n      jump\t// in\n    tag_29:\n        /* \"#utility.yul\":168:307   */\n      swap3\n      swap2\n      pop\n      pop\n      jump\t// out\n        /* \"#utility.yul\":313:803   */\n    tag_11:\n        /* \"#utility.yul\":389:395   */\n      0x00\n        /* \"#utility.yul\":397:403   */\n      dup1\n        /* \"#utility.yul\":446:448   */\n      0x40\n        /* \"#utility.yul\":434:443   */\n      dup4\n        /* \"#utility.yul\":425:432   */\n      dup6\n        /* \"#utility.yul\":421:444   */\n      sub\n        /* \"#utility.yul\":417:449   */\n      slt\n        /* \"#utility.yul\":414:533   */\n      iszero\n      tag_32\n      jumpi\n        /* \"#utility.yul\":452:531   */\n      tag_33\n      tag_34\n      jump\t// in\n    tag_33:\n        /* \"#utility.yul\":414:533   */\n    tag_32:\n        /* \"#utility.yul\":572:573   */\n      0x00\n        /* \"#utility.yul\":597:658   */\n      tag_35\n        /* \"#utility.yul\":650:657   */\n      dup6\n        /* \"#utility.yul\":641:647   */\n      dup3\n        /* \"#utility.yul\":630:639   */\n      dup7\n        /* \"#utility.yul\":626:648   */\n      add\n        /* \"#utility.yul\":597:658   */\n      tag_23\n      jump\t// in\n    tag_35:\n        /* \"#utility.yul\":587:658   */\n      swap3\n      pop\n        /* \"#utility.yul\":543:668   */\n      pop\n        /* \"#utility.yul\":707:709   */\n      0x20\n        /* \"#utility.yul\":733:786   */\n      tag_36\n        /* \"#utility.yul\":778:785   */\n      dup6\n        /* \"#utility.yul\":769:775   */\n      dup3\n        /* \"#utility.yul\":758:767   */\n      dup7\n        /* \"#utility.yul\":754:776   */\n      add\n        /* \"#utility.yul\":733:786   */\n      tag_27\n      jump\t// in\n    tag_36:\n        /* \"#utility.yul\":723:786   */\n      swap2\n      pop\n        /* \"#utility.yul\":678:796   */\n      pop\n        /* \"#utility.yul\":313:803   */\n      swap3\n      pop\n      swap3\n      swap1\n      pop\n      jump\t// out\n        /* \"#utility.yul\":809:1207   */\n    tag_37:\n        /* \"#utility.yul\":968:971   */\n      0x00\n        /* \"#utility.yul\":989:1072   */\n      tag_39\n        /* \"#utility.yul\":1070:1071   */\n      0x00\n        /* \"#utility.yul\":1065:1068   */\n      dup4\n        /* \"#utility.yul\":989:1072   */\n      tag_40\n      jump\t// in\n    tag_39:\n        /* \"#utility.yul\":982:1072   */\n      swap2\n      pop\n        /* \"#utility.yul\":1081:1174   */\n      tag_41\n        /* \"#utility.yul\":1170:1173   */\n      dup3\n        /* \"#utility.yul\":1081:1174   */\n      tag_42\n      jump\t// in\n    tag_41:\n        /* \"#utility.yul\":1199:1200   */\n      0x00\n        /* \"#utility.yul\":1194:1197   */\n      dup3\n        /* \"#utility.yul\":1190:1201   */\n      add\n        /* \"#utility.yul\":1183:1201   */\n      swap1\n      pop\n        /* \"#utility.yul\":809:1207   */\n      swap2\n      swap1\n      pop\n      jump\t// out\n        /* \"#utility.yul\":1213:1331   */\n    tag_43:\n        /* \"#utility.yul\":1300:1324   */\n      tag_45\n        /* \"#utility.yul\":1318:1323   */\n      dup2\n        /* \"#utility.yul\":1300:1324   */\n      tag_46\n      jump\t// in\n    tag_45:\n        /* \"#utility.yul\":1295:1298   */\n      dup3\n        /* \"#utility.yul\":1288:1325   */\n      mstore\n        /* \"#utility.yul\":1213:1331   */\n      pop\n      pop\n      jump\t// out\n        /* \"#utility.yul\":1337:1716   */\n    tag_18:\n        /* \"#utility.yul\":1521:1524   */\n      0x00\n        /* \"#utility.yul\":1543:1690   */\n      tag_48\n        /* \"#utility.yul\":1686:1689   */\n      dup3\n        /* \"#utility.yul\":1543:1690   */\n      tag_37\n      jump\t// in\n    tag_48:\n        /* \"#utility.yul\":1536:1690   */\n      swap2\n      pop\n        /* \"#utility.yul\":1707:1710   */\n      dup2\n        /* \"#utility.yul\":1700:1710   */\n      swap1\n      pop\n        /* \"#utility.yul\":1337:1716   */\n      swap2\n      swap1\n      pop\n      jump\t// out\n        /* \"#utility.yul\":1722:1944   */\n    tag_8:\n        /* \"#utility.yul\":1815:1819   */\n      0x00\n        /* \"#utility.yul\":1853:1855   */\n      0x20\n        /* \"#utility.yul\":1842:1851   */\n      dup3\n        /* \"#utility.yul\":1838:1856   */\n      add\n        /* \"#utility.yul\":1830:1856   */\n      swap1\n      pop\n        /* \"#utility.yul\":1866:1937   */\n      tag_50\n        /* \"#utility.yul\":1934:1935   */\n      0x00\n        /* \"#utility.yul\":1923:1932   */\n      dup4\n        /* \"#utility.yul\":1919:1936   */\n      add\n        /* \"#utility.yul\":1910:1916   */\n      dup5\n        /* \"#utility.yul\":1866:1937   */\n      tag_43\n      jump\t// in\n    tag_50:\n        /* \"#utility.yul\":1722:1944   */\n      swap3\n      swap2\n      pop\n      pop\n      jump\t// out\n        /* \"#utility.yul\":2031:2178   */\n    tag_40:\n        /* \"#utility.yul\":2132:2143   */\n      0x00\n        /* \"#utility.yul\":2169:2172   */\n      dup2\n        /* \"#utility.yul\":2154:2172   */\n      swap1\n      pop\n        /* \"#utility.yul\":2031:2178   */\n      swap3\n      swap2\n      pop\n      pop\n      jump\t// out\n        /* \"#utility.yul\":2184:2288   */\n    tag_54:\n        /* \"#utility.yul\":2229:2236   */\n      0x00\n        /* \"#utility.yul\":2258:2282   */\n      tag_56\n        /* \"#utility.yul\":2276:2281   */\n      dup3\n        /* \"#utility.yul\":2258:2282   */\n      tag_57\n      jump\t// in\n    tag_56:\n        /* \"#utility.yul\":2247:2282   */\n      swap1\n      pop\n        /* \"#utility.yul\":2184:2288   */\n      swap2\n      swap1\n      pop\n      jump\t// out\n        /* \"#utility.yul\":2294:2420   */\n    tag_57:\n        /* \"#utility.yul\":2331:2338   */\n      0x00\n        /* \"#utility.yul\":2371:2413   */\n      0xffffffffffffffffffffffffffffffffffffffff\n        /* \"#utility.yul\":2364:2369   */\n      dup3\n        /* \"#utility.yul\":2360:2414   */\n      and\n        /* \"#utility.yul\":2349:2414   */\n      swap1\n      pop\n        /* \"#utility.yul\":2294:2420   */\n      swap2\n      swap1\n      pop\n      jump\t// out\n        /* \"#utility.yul\":2426:2503   */\n    tag_46:\n        /* \"#utility.yul\":2463:2470   */\n      0x00\n        /* \"#utility.yul\":2492:2497   */\n      dup2\n        /* \"#utility.yul\":2481:2497   */\n      swap1\n      pop\n        /* \"#utility.yul\":2426:2503   */\n      swap2\n      swap1\n      pop\n      jump\t// out\n        /* \"#utility.yul\":2632:2749   */\n    tag_34:\n        /* \"#utility.yul\":2741:2742   */\n      0x00\n        /* \"#utility.yul\":2738:2739   */\n      dup1\n        /* \"#utility.yul\":2731:2743   */\n      revert\n        /* \"#utility.yul\":2755:2869   */\n    tag_42:\n      pop\n      jump\t// out\n        /* \"#utility.yul\":2875:3013   */\n    tag_26:\n        /* \"#utility.yul\":2956:2988   */\n      tag_65\n        /* \"#utility.yul\":2982:2987   */\n      dup2\n        /* \"#utility.yul\":2956:2988   */\n      tag_54\n      jump\t// in\n    tag_65:\n        /* \"#utility.yul\":2949:2954   */\n      dup2\n        /* \"#utility.yul\":2946:2989   */\n      eq\n        /* \"#utility.yul\":2936:3007   */\n      tag_66\n      jumpi\n        /* \"#utility.yul\":3003:3004   */\n      0x00\n        /* \"#utility.yul\":3000:3001   */\n      dup1\n        /* \"#utility.yul\":2993:3005   */\n      revert\n        /* \"#utility.yul\":2936:3007   */\n    tag_66:\n        /* \"#utility.yul\":2875:3013   */\n      pop\n      jump\t// out\n        /* \"#utility.yul\":3019:3141   */\n    tag_30:\n        /* \"#utility.yul\":3092:3116   */\n      tag_68\n        /* \"#utility.yul\":3110:3115   */\n      dup2\n        /* \"#utility.yul\":3092:3116   */\n      tag_46\n      jump\t// in\n    tag_68:\n        /* \"#utility.yul\":3085:3090   */\n      dup2\n        /* \"#utility.yul\":3082:3117   */\n      eq\n        /* \"#utility.yul\":3072:3135   */\n      tag_69\n      jumpi\n        /* \"#utility.yul\":3131:3132   */\n      0x00\n        /* \"#utility.yul\":3128:3129   */\n      dup1\n        /* \"#utility.yul\":3121:3133   */\n      revert\n        /* \"#utility.yul\":3072:3135   */\n    tag_69:\n        /* \"#utility.yul\":3019:3141   */\n      pop\n      jump\t// out\n\n    auxdata: 0xa26469706673582212208a9f6d653f360640e76a6b7499eed3b551b7fa0b3037e568fc481b2265fe9f3f64736f6c63430008070033\n}\n",
				"bytecode": {
					"linkReferences": {},
					"object": "6080604052336000806101000a81548173ffffffffffffffffffffffffffffffffffffffff021916908373ffffffffffffffffffffffffffffffffffffffff1602179055506102fd806100536000396000f3fe6080604052600436106100295760003560e01c806312065fe01461002e5780632ccb1b3014610059575b600080fd5b34801561003a57600080fd5b50610043610075565b604051610050919061022f565b60405180910390f35b610073600480360381019061006e91906101a8565b610082565b005b6000804790508091505090565b60008054906101000a900473ffffffffffffffffffffffffffffffffffffffff1673ffffffffffffffffffffffffffffffffffffffff163273ffffffffffffffffffffffffffffffffffffffff16146100da57600080fd5b7fee850fde8b552ceb0af07907aa59e4b7a9813a3803c197c4c74e69b65868baa65a604051610109919061022f565b60405180910390a18173ffffffffffffffffffffffffffffffffffffffff16816040516101359061021a565b60006040518083038185875af1925050503d8060008114610172576040519150601f19603f3d011682016040523d82523d6000602084013e610177565b606091505b5050505050565b60008135905061018d81610299565b92915050565b6000813590506101a2816102b0565b92915050565b600080604083850312156101bf576101be610291565b5b60006101cd8582860161017e565b92505060206101de85828601610193565b9150509250929050565b60006101f560008361024a565b915061020082610296565b600082019050919050565b61021481610287565b82525050565b6000610225826101e8565b9150819050919050565b6000602082019050610244600083018461020b565b92915050565b600081905092915050565b600061026082610267565b9050919050565b600073ffffffffffffffffffffffffffffffffffffffff82169050919050565b6000819050919050565b600080fd5b50565b6102a281610255565b81146102ad57600080fd5b50565b6102b981610287565b81146102c457600080fd5b5056fea26469706673582212208a9f6d653f360640e76a6b7499eed3b551b7fa0b3037e568fc481b2265fe9f3f64736f6c63430008070033",
					"opcodes": "PUSH1 0x80 PUSH1 0x40 MSTORE CALLER PUSH1 0x0 DUP1 PUSH2 0x100 EXP DUP2 SLOAD DUP2 PUSH20 0xFFFFFFFFFFFFFFFFFFFFFFFFFFFFFFFFFFFFFFFF MUL NOT AND SWAP1 DUP4 PUSH20 0xFFFFFFFFFFFFFFFFFFFFFFFFFFFFFFFFFFFFFFFF AND MUL OR SWAP1 SSTORE POP PUSH2 0x2FD DUP1 PUSH2 0x53 PUSH1 0x0 CODECOPY PUSH1 0x0 RETURN INVALID PUSH1 0x80 PUSH1 0x40 MSTORE PUSH1 0x4 CALLDATASIZE LT PUSH2 0x29 JUMPI PUSH1 0x0 CALLDATALOAD PUSH1 0xE0 SHR DUP1 PUSH4 0x12065FE0 EQ PUSH2 0x2E JUMPI DUP1 PUSH4 0x2CCB1B30 EQ PUSH2 0x59 JUMPI JUMPDEST PUSH1 0x0 DUP1 REVERT JUMPDEST CALLVALUE DUP1 ISZERO PUSH2 0x3A JUMPI PUSH1 0x0 DUP1 REVERT JUMPDEST POP PUSH2 0x43 PUSH2 0x75 JUMP JUMPDEST PUSH1 0x40 MLOAD PUSH2 0x50 SWAP2 SWAP1 PUSH2 0x22F JUMP JUMPDEST PUSH1 0x40 MLOAD DUP1 SWAP2 SUB SWAP1 RETURN JUMPDEST PUSH2 0x73 PUSH1 0x4 DUP1 CALLDATASIZE SUB DUP2 ADD SWAP1 PUSH2 0x6E SWAP2 SWAP1 PUSH2 0x1A8 JUMP JUMPDEST PUSH2 0x82 JUMP JUMPDEST STOP JUMPDEST PUSH1 0x0 DUP1 SELFBALANCE SWAP1 POP DUP1 SWAP2 POP POP SWAP1 JUMP JUMPDEST PUSH1 0x0 DUP1 SLOAD SWAP1 PUSH2 0x100 EXP SWAP1 DIV PUSH20 0xFFFFFFFFFFFFFFFFFFFFFFFFFFFFFFFFFFFFFFFF AND PUSH20 0xFFFFFFFFFFFFFFFFFFFFFFFFFFFFFFFFFFFFFFFF AND ORIGIN PUSH20 0xFFFFFFFFFFFFFFFFFFFFFFFFFFFFFFFFFFFFFFFF AND EQ PUSH2 0xDA JUMPI PUSH1 0x0 DUP1 REVERT JUMPDEST PUSH32 0xEE850FDE8B552CEB0AF07907AA59E4B7A9813A3803C197C4C74E69B65868BAA6 GAS PUSH1 0x40 MLOAD PUSH2 0x109 SWAP2 SWAP1 PUSH2 0x22F JUMP JUMPDEST PUSH1 0x40 MLOAD DUP1 SWAP2 SUB SWAP1 LOG1 DUP2 PUSH20 0xFFFFFFFFFFFFFFFFFFFFFFFFFFFFFFFFFFFFFFFF AND DUP2 PUSH1 0x40 MLOAD PUSH2 0x135 SWAP1 PUSH2 0x21A JUMP JUMPDEST PUSH1 0x0 PUSH1 0x40 MLOAD DUP1 DUP4 SUB DUP2 DUP6 DUP8 GAS CALL SWAP3 POP POP POP RETURNDATASIZE DUP1 PUSH1 0x0 DUP2 EQ PUSH2 0x172 JUMPI PUSH1 0x40 MLOAD SWAP2 POP PUSH1 0x1F NOT PUSH1 0x3F RETURNDATASIZE ADD AND DUP3 ADD PUSH1 0x40 MSTORE RETURNDATASIZE DUP3 MSTORE RETURNDATASIZE PUSH1 0x0 PUSH1 0x20 DUP5 ADD RETURNDATACOPY PUSH2 0x177 JUMP JUMPDEST PUSH1 0x60 SWAP2 POP JUMPDEST POP POP POP POP POP JUMP JUMPDEST PUSH1 0x0 DUP2 CALLDATALOAD SWAP1 POP PUSH2 0x18D DUP2 PUSH2 0x299 JUMP JUMPDEST SWAP3 SWAP2 POP POP JUMP JUMPDEST PUSH1 0x0 DUP2 CALLDATALOAD SWAP1 POP PUSH2 0x1A2 DUP2 PUSH2 0x2B0 JUMP JUMPDEST SWAP3 SWAP2 POP POP JUMP JUMPDEST PUSH1 0x0 DUP1 PUSH1 0x40 DUP4 DUP6 SUB SLT ISZERO PUSH2 0x1BF JUMPI PUSH2 0x1BE PUSH2 0x291 JUMP JUMPDEST JUMPDEST PUSH1 0x0 PUSH2 0x1CD DUP6 DUP3 DUP7 ADD PUSH2 0x17E JUMP JUMPDEST SWAP3 POP POP PUSH1 0x20 PUSH2 0x1DE DUP6 DUP3 DUP7 ADD PUSH2 0x193 JUMP JUMPDEST SWAP2 POP POP SWAP3 POP SWAP3 SWAP1 POP JUMP JUMPDEST PUSH1 0x0 PUSH2 0x1F5 PUSH1 0x0 DUP4 PUSH2 0x24A JUMP JUMPDEST SWAP2 POP PUSH2 0x200 DUP3 PUSH2 0x296 JUMP JUMPDEST PUSH1 0x0 DUP3 ADD SWAP1 POP SWAP2 SWAP1 POP JUMP JUMPDEST PUSH2 0x214 DUP2 PUSH2 0x287 JUMP JUMPDEST DUP3 MSTORE POP POP JUMP JUMPDEST PUSH1 0x0 PUSH2 0x225 DUP3 PUSH2 0x1E8 JUMP JUMPDEST SWAP2 POP DUP2 SWAP1 POP SWAP2 SWAP1 POP JUMP JUMPDEST PUSH1 0x0 PUSH1 0x20 DUP3 ADD SWAP1 POP PUSH2 0x244 PUSH1 0x0 DUP4 ADD DUP5 PUSH2 0x20B JUMP JUMPDEST SWAP3 SWAP2 POP POP JUMP JUMPDEST PUSH1 0x0 DUP2 SWAP1 POP SWAP3 SWAP2 POP POP JUMP JUMPDEST PUSH1 0x0 PUSH2 0x260 DUP3 PUSH2 0x267 JUMP JUMPDEST SWAP1 POP SWAP2 SWAP1 POP JUMP JUMPDEST PUSH1 0x0 PUSH20 0xFFFFFFFFFFFFFFFFFFFFFFFFFFFFFFFFFFFFFFFF DUP3 AND SWAP1 POP SWAP2 SWAP1 POP JUMP JUMPDEST PUSH1 0x0 DUP2 SWAP1 POP SWAP2 SWAP1 POP JUMP JUMPDEST PUSH1 0x0 DUP1 REVERT JUMPDEST POP JUMP JUMPDEST PUSH2 0x2A2 DUP2 PUSH2 0x255 JUMP JUMPDEST DUP2 EQ PUSH2 0x2AD JUMPI PUSH1 0x0 DUP1 REVERT JUMPDEST POP JUMP JUMPDEST PUSH2 0x2B9 DUP2 PUSH2 0x287 JUMP JUMPDEST DUP2 EQ PUSH2 0x2C4 JUMPI PUSH1 0x0 DUP1 REVERT JUMPDEST POP JUMP INVALID LOG2 PUSH5 0x6970667358 0x22 SLT KECCAK256 DUP11 SWAP16 PUSH14 0x653F360640E76A6B7499EED3B551 0xB7 STATICCALL SIGNEXTEND ADDRESS CALLDATACOPY 0xE5 PUSH9 0xFC481B2265FE9F3F64 PUSH20 0x6F6C634300080700330000000000000000000000 "
				},
				"gasEstimates": {
					"creation": {
						"codeDepositCost": "153000",
						"executionCost": "24438",
						"totalCost": "177438"
					},
					"external": {
						"getBalance()": "330",
						"transferTo(address,uint256)": "infinite"
					}
				},
				"methodIdentifiers": {
					"getBalance()": "12065fe0",
					"transferTo(address,uint256)": "2ccb1b30"
				}
			},
			"storageLayout": {
				"storage": [
					{
						"astId": 7,
						"contract": "HelloWord.sol:TxUserWallet",
						"label": "owner",
						"offset": 0,
						"slot": "0",
						"type": "t_address"
					}
				],
				"types": {
					"t_address": {
						"encoding": "inplace",
						"label": "address",
						"numberOfBytes": "20"
					}
				}
			},
			"userdoc": {
				"kind": "user",
				"methods": {},
				"version": 1
			}
		}
	}
}