{
	"HelloWord.sol": {
		"SendEther": {
			"abi": [
				{
					"inputs": [],
					"stateMutability": "payable",
					"type": "constructor"
				},
				{
					"inputs": [],
					"name": "getBalance",
					"outputs": [
						{
							"internalType": "uint256",
							"name": "",
							"type": "uint256"
						}
					],
					"stateMutability": "view",
					"type": "function"
				},
				{
					"inputs": [
						{
							"internalType": "address payable",
							"name": "_to",
							"type": "address"
						}
					],
					"name": "sendViaCall",
					"outputs": [],
					"stateMutability": "payable",
					"type": "function"
				},
				{
					"inputs": [
						{
							"internalType": "address payable",
							"name": "_to",
							"type": "address"
						}
					],
					"name": "sendViaSend",
					"outputs": [],
					"stateMutability": "payable",
					"type": "function"
				},
				{
					"inputs": [
						{
							"internalType": "address payable",
							"name": "_to",
							"type": "address"
						}
					],
					"name": "sendViaTransfer",
					"outputs": [],
					"stateMutability": "payable",
					"type": "function"
				}
			],
			"devdoc": {
				"kind": "dev",
				"methods": {},
				"version": 1
			},
			"evm": {
				"assembly": "    /* \"HelloWord.sol\":14881:15849  contract SendEther {... */\n  mstore(0x40, 0x80)\n  dataSize(sub_0)\n  dup1\n  dataOffset(sub_0)\n  0x00\n  codecopy\n  0x00\n  return\nstop\n\nsub_0: assembly {\n        /* \"HelloWord.sol\":14881:15849  contract SendEther {... */\n      mstore(0x40, 0x80)\n      jumpi(tag_1, lt(calldatasize, 0x04))\n      shr(0xe0, calldataload(0x00))\n      dup1\n      0x12065fe0\n      eq\n      tag_2\n      jumpi\n      dup1\n      0x636e082b\n      eq\n      tag_3\n      jumpi\n      dup1\n      0x74be4806\n      eq\n      tag_4\n      jumpi\n      dup1\n      0x830c29ae\n      eq\n      tag_5\n      jumpi\n    tag_1:\n      0x00\n      dup1\n      revert\n        /* \"HelloWord.sol\":14973:15069  function getBalance() external view returns (uint) {... */\n    tag_2:\n      callvalue\n      dup1\n      iszero\n      tag_6\n      jumpi\n      0x00\n      dup1\n      revert\n    tag_6:\n      pop\n      tag_7\n      tag_8\n      jump\t// in\n    tag_7:\n      mload(0x40)\n      tag_9\n      swap2\n      swap1\n      tag_10\n      jump\t// in\n    tag_9:\n      mload(0x40)\n      dup1\n      swap2\n      sub\n      swap1\n      return\n        /* \"HelloWord.sol\":15074:15313  function sendViaTransfer(address payable _to) external payable {... */\n    tag_3:\n      tag_11\n      0x04\n      dup1\n      calldatasize\n      sub\n      dup2\n      add\n      swap1\n      tag_12\n      swap2\n      swap1\n      tag_13\n      jump\t// in\n    tag_12:\n      tag_14\n      jump\t// in\n    tag_11:\n      stop\n        /* \"HelloWord.sol\":15318:15588  function sendViaSend(address payable _to) external payable {... */\n    tag_4:\n      tag_15\n      0x04\n      dup1\n      calldatasize\n      sub\n      dup2\n      add\n      swap1\n      tag_16\n      swap2\n      swap1\n      tag_13\n      jump\t// in\n    tag_16:\n      tag_17\n      jump\t// in\n    tag_15:\n      stop\n        /* \"HelloWord.sol\":15594:15847  function sendViaCall(address payable _to) external payable {... */\n    tag_5:\n      tag_18\n      0x04\n      dup1\n      calldatasize\n      sub\n      dup2\n      add\n      swap1\n      tag_19\n      swap2\n      swap1\n      tag_13\n      jump\t// in\n    tag_19:\n      tag_20\n      jump\t// in\n    tag_18:\n      stop\n        /* \"HelloWord.sol\":14973:15069  function getBalance() external view returns (uint) {... */\n    tag_8:\n        /* \"HelloWord.sol\":15018:15022  uint */\n      0x00\n        /* \"HelloWord.sol\":15041:15062  address(this).balance */\n      selfbalance\n        /* \"HelloWord.sol\":15034:15062  return address(this).balance */\n      swap1\n      pop\n        /* \"HelloWord.sol\":14973:15069  function getBalance() external view returns (uint) {... */\n      swap1\n      jump\t// out\n        /* \"HelloWord.sol\":15074:15313  function sendViaTransfer(address payable _to) external payable {... */\n    tag_14:\n        /* \"HelloWord.sol\":15289:15292  _to */\n      dup1\n        /* \"HelloWord.sol\":15289:15301  _to.transfer */\n      0xffffffffffffffffffffffffffffffffffffffff\n      and\n        /* \"HelloWord.sol\":15289:15306  _to.transfer(123) */\n      0x08fc\n        /* \"HelloWord.sol\":15302:15305  123 */\n      0x7b\n        /* \"HelloWord.sol\":15289:15306  _to.transfer(123) */\n      swap1\n      dup2\n      iszero\n      mul\n      swap1\n      mload(0x40)\n      0x00\n      mload(0x40)\n      dup1\n      dup4\n      sub\n      dup2\n      dup6\n      dup9\n      dup9\n      call\n      swap4\n      pop\n      pop\n      pop\n      pop\n      iszero\n      dup1\n      iszero\n      tag_24\n      jumpi\n      returndatasize\n      0x00\n      dup1\n      returndatacopy\n      revert(0x00, returndatasize)\n    tag_24:\n      pop\n        /* \"HelloWord.sol\":15074:15313  function sendViaTransfer(address payable _to) external payable {... */\n      pop\n      jump\t// out\n        /* \"HelloWord.sol\":15318:15588  function sendViaSend(address payable _to) external payable {... */\n    tag_17:\n        /* \"HelloWord.sol\":15526:15532  bool s */\n      0x00\n        /* \"HelloWord.sol\":15535:15538  _to */\n      dup2\n        /* \"HelloWord.sol\":15535:15543  _to.send */\n      0xffffffffffffffffffffffffffffffffffffffff\n      and\n        /* \"HelloWord.sol\":15535:15548  _to.send(123) */\n      0x08fc\n        /* \"HelloWord.sol\":15544:15547  123 */\n      0x7b\n        /* \"HelloWord.sol\":15535:15548  _to.send(123) */\n      swap1\n      dup2\n      iszero\n      mul\n      swap1\n      mload(0x40)\n      0x00\n      mload(0x40)\n      dup1\n      dup4\n      sub\n      dup2\n      dup6\n      dup9\n      dup9\n      call\n      swap4\n      pop\n      pop\n      pop\n      pop\n        /* \"HelloWord.sol\":15526:15548  bool s = _to.send(123) */\n      swap1\n      pop\n        /* \"HelloWord.sol\":15565:15566  s */\n      dup1\n        /* \"HelloWord.sol\":15557:15581  require(s, \"send faild\") */\n      tag_27\n      jumpi\n      mload(0x40)\n      0x08c379a000000000000000000000000000000000000000000000000000000000\n      dup2\n      mstore\n      0x04\n      add\n      tag_28\n      swap1\n      tag_29\n      jump\t// in\n    tag_28:\n      mload(0x40)\n      dup1\n      swap2\n      sub\n      swap1\n      revert\n    tag_27:\n        /* \"HelloWord.sol\":15377:15588  {... */\n      pop\n        /* \"HelloWord.sol\":15318:15588  function sendViaSend(address payable _to) external payable {... */\n      pop\n      jump\t// out\n        /* \"HelloWord.sol\":15594:15847  function sendViaCall(address payable _to) external payable {... */\n    tag_20:\n        /* \"HelloWord.sol\":15758:15770  bool success */\n      0x00\n        /* \"HelloWord.sol\":15777:15780  _to */\n      dup2\n        /* \"HelloWord.sol\":15777:15785  _to.call */\n      0xffffffffffffffffffffffffffffffffffffffff\n      and\n        /* \"HelloWord.sol\":15793:15796  123 */\n      0x7b\n        /* \"HelloWord.sol\":15777:15801  _to.call{value: 123}(\"\") */\n      mload(0x40)\n      tag_31\n      swap1\n      tag_32\n      jump\t// in\n    tag_31:\n      0x00\n      mload(0x40)\n      dup1\n      dup4\n      sub\n      dup2\n      dup6\n      dup8\n      gas\n      call\n      swap3\n      pop\n      pop\n      pop\n      returndatasize\n      dup1\n      0x00\n      dup2\n      eq\n      tag_35\n      jumpi\n      mload(0x40)\n      swap2\n      pop\n      and(add(returndatasize, 0x3f), not(0x1f))\n      dup3\n      add\n      0x40\n      mstore\n      returndatasize\n      dup3\n      mstore\n      returndatasize\n      0x00\n      0x20\n      dup5\n      add\n      returndatacopy\n      jump(tag_34)\n    tag_35:\n      0x60\n      swap2\n      pop\n    tag_34:\n      pop\n        /* \"HelloWord.sol\":15757:15801  (bool success, ) =  _to.call{value: 123}(\"\") */\n      pop\n      swap1\n      pop\n        /* \"HelloWord.sol\":15818:15825  success */\n      dup1\n        /* \"HelloWord.sol\":15810:15840  require(success, \"call faild\") */\n      tag_36\n      jumpi\n      mload(0x40)\n      0x08c379a000000000000000000000000000000000000000000000000000000000\n      dup2\n      mstore\n      0x04\n      add\n      tag_37\n      swap1\n      tag_38\n      jump\t// in\n    tag_37:\n      mload(0x40)\n      dup1\n      swap2\n      sub\n      swap1\n      revert\n    tag_36:\n        /* \"HelloWord.sol\":15653:15847  {... */\n      pop\n        /* \"HelloWord.sol\":15594:15847  function sendViaCall(address payable _to) external payable {... */\n      pop\n      jump\t// out\n        /* \"#utility.yul\":7:162   */\n    tag_40:\n        /* \"#utility.yul\":61:66   */\n      0x00\n        /* \"#utility.yul\":99:105   */\n      dup2\n        /* \"#utility.yul\":86:106   */\n      calldataload\n        /* \"#utility.yul\":77:106   */\n      swap1\n      pop\n        /* \"#utility.yul\":115:156   */\n      tag_42\n        /* \"#utility.yul\":150:155   */\n      dup2\n        /* \"#utility.yul\":115:156   */\n      tag_43\n      jump\t// in\n    tag_42:\n        /* \"#utility.yul\":7:162   */\n      swap3\n      swap2\n      pop\n      pop\n      jump\t// out\n        /* \"#utility.yul\":168:513   */\n    tag_13:\n        /* \"#utility.yul\":235:241   */\n      0x00\n        /* \"#utility.yul\":284:286   */\n      0x20\n        /* \"#utility.yul\":272:281   */\n      dup3\n        /* \"#utility.yul\":263:270   */\n      dup5\n        /* \"#utility.yul\":259:282   */\n      sub\n        /* \"#utility.yul\":255:287   */\n      slt\n        /* \"#utility.yul\":252:371   */\n      iszero\n      tag_45\n      jumpi\n        /* \"#utility.yul\":290:369   */\n      tag_46\n      tag_47\n      jump\t// in\n    tag_46:\n        /* \"#utility.yul\":252:371   */\n    tag_45:\n        /* \"#utility.yul\":410:411   */\n      0x00\n        /* \"#utility.yul\":435:496   */\n      tag_48\n        /* \"#utility.yul\":488:495   */\n      dup5\n        /* \"#utility.yul\":479:485   */\n      dup3\n        /* \"#utility.yul\":468:477   */\n      dup6\n        /* \"#utility.yul\":464:486   */\n      add\n        /* \"#utility.yul\":435:496   */\n      tag_40\n      jump\t// in\n    tag_48:\n        /* \"#utility.yul\":425:496   */\n      swap2\n      pop\n        /* \"#utility.yul\":381:506   */\n      pop\n        /* \"#utility.yul\":168:513   */\n      swap3\n      swap2\n      pop\n      pop\n      jump\t// out\n        /* \"#utility.yul\":519:885   */\n    tag_49:\n        /* \"#utility.yul\":661:664   */\n      0x00\n        /* \"#utility.yul\":682:749   */\n      tag_51\n        /* \"#utility.yul\":746:748   */\n      0x0a\n        /* \"#utility.yul\":741:744   */\n      dup4\n        /* \"#utility.yul\":682:749   */\n      tag_52\n      jump\t// in\n    tag_51:\n        /* \"#utility.yul\":675:749   */\n      swap2\n      pop\n        /* \"#utility.yul\":758:851   */\n      tag_53\n        /* \"#utility.yul\":847:850   */\n      dup3\n        /* \"#utility.yul\":758:851   */\n      tag_54\n      jump\t// in\n    tag_53:\n        /* \"#utility.yul\":876:878   */\n      0x20\n        /* \"#utility.yul\":871:874   */\n      dup3\n        /* \"#utility.yul\":867:879   */\n      add\n        /* \"#utility.yul\":860:879   */\n      swap1\n      pop\n        /* \"#utility.yul\":519:885   */\n      swap2\n      swap1\n      pop\n      jump\t// out\n        /* \"#utility.yul\":891:1289   */\n    tag_55:\n        /* \"#utility.yul\":1050:1053   */\n      0x00\n        /* \"#utility.yul\":1071:1154   */\n      tag_57\n        /* \"#utility.yul\":1152:1153   */\n      0x00\n        /* \"#utility.yul\":1147:1150   */\n      dup4\n        /* \"#utility.yul\":1071:1154   */\n      tag_58\n      jump\t// in\n    tag_57:\n        /* \"#utility.yul\":1064:1154   */\n      swap2\n      pop\n        /* \"#utility.yul\":1163:1256   */\n      tag_59\n        /* \"#utility.yul\":1252:1255   */\n      dup3\n        /* \"#utility.yul\":1163:1256   */\n      tag_60\n      jump\t// in\n    tag_59:\n        /* \"#utility.yul\":1281:1282   */\n      0x00\n        /* \"#utility.yul\":1276:1279   */\n      dup3\n        /* \"#utility.yul\":1272:1283   */\n      add\n        /* \"#utility.yul\":1265:1283   */\n      swap1\n      pop\n        /* \"#utility.yul\":891:1289   */\n      swap2\n      swap1\n      pop\n      jump\t// out\n        /* \"#utility.yul\":1295:1661   */\n    tag_61:\n        /* \"#utility.yul\":1437:1440   */\n      0x00\n        /* \"#utility.yul\":1458:1525   */\n      tag_63\n        /* \"#utility.yul\":1522:1524   */\n      0x0a\n        /* \"#utility.yul\":1517:1520   */\n      dup4\n        /* \"#utility.yul\":1458:1525   */\n      tag_52\n      jump\t// in\n    tag_63:\n        /* \"#utility.yul\":1451:1525   */\n      swap2\n      pop\n        /* \"#utility.yul\":1534:1627   */\n      tag_64\n        /* \"#utility.yul\":1623:1626   */\n      dup3\n        /* \"#utility.yul\":1534:1627   */\n      tag_65\n      jump\t// in\n    tag_64:\n        /* \"#utility.yul\":1652:1654   */\n      0x20\n        /* \"#utility.yul\":1647:1650   */\n      dup3\n        /* \"#utility.yul\":1643:1655   */\n      add\n        /* \"#utility.yul\":1636:1655   */\n      swap1\n      pop\n        /* \"#utility.yul\":1295:1661   */\n      swap2\n      swap1\n      pop\n      jump\t// out\n        /* \"#utility.yul\":1667:1785   */\n    tag_66:\n        /* \"#utility.yul\":1754:1778   */\n      tag_68\n        /* \"#utility.yul\":1772:1777   */\n      dup2\n        /* \"#utility.yul\":1754:1778   */\n      tag_69\n      jump\t// in\n    tag_68:\n        /* \"#utility.yul\":1749:1752   */\n      dup3\n        /* \"#utility.yul\":1742:1779   */\n      mstore\n        /* \"#utility.yul\":1667:1785   */\n      pop\n      pop\n      jump\t// out\n        /* \"#utility.yul\":1791:2170   */\n    tag_32:\n        /* \"#utility.yul\":1975:1978   */\n      0x00\n        /* \"#utility.yul\":1997:2144   */\n      tag_71\n        /* \"#utility.yul\":2140:2143   */\n      dup3\n        /* \"#utility.yul\":1997:2144   */\n      tag_55\n      jump\t// in\n    tag_71:\n        /* \"#utility.yul\":1990:2144   */\n      swap2\n      pop\n        /* \"#utility.yul\":2161:2164   */\n      dup2\n        /* \"#utility.yul\":2154:2164   */\n      swap1\n      pop\n        /* \"#utility.yul\":1791:2170   */\n      swap2\n      swap1\n      pop\n      jump\t// out\n        /* \"#utility.yul\":2176:2595   */\n    tag_38:\n        /* \"#utility.yul\":2342:2346   */\n      0x00\n        /* \"#utility.yul\":2380:2382   */\n      0x20\n        /* \"#utility.yul\":2369:2378   */\n      dup3\n        /* \"#utility.yul\":2365:2383   */\n      add\n        /* \"#utility.yul\":2357:2383   */\n      swap1\n      pop\n        /* \"#utility.yul\":2429:2438   */\n      dup2\n        /* \"#utility.yul\":2423:2427   */\n      dup2\n        /* \"#utility.yul\":2419:2439   */\n      sub\n        /* \"#utility.yul\":2415:2416   */\n      0x00\n        /* \"#utility.yul\":2404:2413   */\n      dup4\n        /* \"#utility.yul\":2400:2417   */\n      add\n        /* \"#utility.yul\":2393:2440   */\n      mstore\n        /* \"#utility.yul\":2457:2588   */\n      tag_73\n        /* \"#utility.yul\":2583:2587   */\n      dup2\n        /* \"#utility.yul\":2457:2588   */\n      tag_49\n      jump\t// in\n    tag_73:\n        /* \"#utility.yul\":2449:2588   */\n      swap1\n      pop\n        /* \"#utility.yul\":2176:2595   */\n      swap2\n      swap1\n      pop\n      jump\t// out\n        /* \"#utility.yul\":2601:3020   */\n    tag_29:\n        /* \"#utility.yul\":2767:2771   */\n      0x00\n        /* \"#utility.yul\":2805:2807   */\n      0x20\n        /* \"#utility.yul\":2794:2803   */\n      dup3\n        /* \"#utility.yul\":2790:2808   */\n      add\n        /* \"#utility.yul\":2782:2808   */\n      swap1\n      pop\n        /* \"#utility.yul\":2854:2863   */\n      dup2\n        /* \"#utility.yul\":2848:2852   */\n      dup2\n        /* \"#utility.yul\":2844:2864   */\n      sub\n        /* \"#utility.yul\":2840:2841   */\n      0x00\n        /* \"#utility.yul\":2829:2838   */\n      dup4\n        /* \"#utility.yul\":2825:2842   */\n      add\n        /* \"#utility.yul\":2818:2865   */\n      mstore\n        /* \"#utility.yul\":2882:3013   */\n      tag_75\n        /* \"#utility.yul\":3008:3012   */\n      dup2\n        /* \"#utility.yul\":2882:3013   */\n      tag_61\n      jump\t// in\n    tag_75:\n        /* \"#utility.yul\":2874:3013   */\n      swap1\n      pop\n        /* \"#utility.yul\":2601:3020   */\n      swap2\n      swap1\n      pop\n      jump\t// out\n        /* \"#utility.yul\":3026:3248   */\n    tag_10:\n        /* \"#utility.yul\":3119:3123   */\n      0x00\n        /* \"#utility.yul\":3157:3159   */\n      0x20\n        /* \"#utility.yul\":3146:3155   */\n      dup3\n        /* \"#utility.yul\":3142:3160   */\n      add\n        /* \"#utility.yul\":3134:3160   */\n      swap1\n      pop\n        /* \"#utility.yul\":3170:3241   */\n      tag_77\n        /* \"#utility.yul\":3238:3239   */\n      0x00\n        /* \"#utility.yul\":3227:3236   */\n      dup4\n        /* \"#utility.yul\":3223:3240   */\n      add\n        /* \"#utility.yul\":3214:3220   */\n      dup5\n        /* \"#utility.yul\":3170:3241   */\n      tag_66\n      jump\t// in\n    tag_77:\n        /* \"#utility.yul\":3026:3248   */\n      swap3\n      swap2\n      pop\n      pop\n      jump\t// out\n        /* \"#utility.yul\":3335:3482   */\n    tag_58:\n        /* \"#utility.yul\":3436:3447   */\n      0x00\n        /* \"#utility.yul\":3473:3476   */\n      dup2\n        /* \"#utility.yul\":3458:3476   */\n      swap1\n      pop\n        /* \"#utility.yul\":3335:3482   */\n      swap3\n      swap2\n      pop\n      pop\n      jump\t// out\n        /* \"#utility.yul\":3488:3657   */\n    tag_52:\n        /* \"#utility.yul\":3572:3583   */\n      0x00\n        /* \"#utility.yul\":3606:3612   */\n      dup3\n        /* \"#utility.yul\":3601:3604   */\n      dup3\n        /* \"#utility.yul\":3594:3613   */\n      mstore\n        /* \"#utility.yul\":3646:3650   */\n      0x20\n        /* \"#utility.yul\":3641:3644   */\n      dup3\n        /* \"#utility.yul\":3637:3651   */\n      add\n        /* \"#utility.yul\":3622:3651   */\n      swap1\n      pop\n        /* \"#utility.yul\":3488:3657   */\n      swap3\n      swap2\n      pop\n      pop\n      jump\t// out\n        /* \"#utility.yul\":3663:3767   */\n    tag_82:\n        /* \"#utility.yul\":3708:3715   */\n      0x00\n        /* \"#utility.yul\":3737:3761   */\n      tag_84\n        /* \"#utility.yul\":3755:3760   */\n      dup3\n        /* \"#utility.yul\":3737:3761   */\n      tag_85\n      jump\t// in\n    tag_84:\n        /* \"#utility.yul\":3726:3761   */\n      swap1\n      pop\n        /* \"#utility.yul\":3663:3767   */\n      swap2\n      swap1\n      pop\n      jump\t// out\n        /* \"#utility.yul\":3773:3899   */\n    tag_85:\n        /* \"#utility.yul\":3810:3817   */\n      0x00\n        /* \"#utility.yul\":3850:3892   */\n      0xffffffffffffffffffffffffffffffffffffffff\n        /* \"#utility.yul\":3843:3848   */\n      dup3\n        /* \"#utility.yul\":3839:3893   */\n      and\n        /* \"#utility.yul\":3828:3893   */\n      swap1\n      pop\n        /* \"#utility.yul\":3773:3899   */\n      swap2\n      swap1\n      pop\n      jump\t// out\n        /* \"#utility.yul\":3905:3982   */\n    tag_69:\n        /* \"#utility.yul\":3942:3949   */\n      0x00\n        /* \"#utility.yul\":3971:3976   */\n      dup2\n        /* \"#utility.yul\":3960:3976   */\n      swap1\n      pop\n        /* \"#utility.yul\":3905:3982   */\n      swap2\n      swap1\n      pop\n      jump\t// out\n        /* \"#utility.yul\":4111:4228   */\n    tag_47:\n        /* \"#utility.yul\":4220:4221   */\n      0x00\n        /* \"#utility.yul\":4217:4218   */\n      dup1\n        /* \"#utility.yul\":4210:4222   */\n      revert\n        /* \"#utility.yul\":4234:4394   */\n    tag_54:\n        /* \"#utility.yul\":4374:4386   */\n      0x63616c6c206661696c6400000000000000000000000000000000000000000000\n        /* \"#utility.yul\":4370:4371   */\n      0x00\n        /* \"#utility.yul\":4362:4368   */\n      dup3\n        /* \"#utility.yul\":4358:4372   */\n      add\n        /* \"#utility.yul\":4351:4387   */\n      mstore\n        /* \"#utility.yul\":4234:4394   */\n      pop\n      jump\t// out\n        /* \"#utility.yul\":4400:4514   */\n    tag_60:\n      pop\n      jump\t// out\n        /* \"#utility.yul\":4520:4680   */\n    tag_65:\n        /* \"#utility.yul\":4660:4672   */\n      0x73656e64206661696c6400000000000000000000000000000000000000000000\n        /* \"#utility.yul\":4656:4657   */\n      0x00\n        /* \"#utility.yul\":4648:4654   */\n      dup3\n        /* \"#utility.yul\":4644:4658   */\n      add\n        /* \"#utility.yul\":4637:4673   */\n      mstore\n        /* \"#utility.yul\":4520:4680   */\n      pop\n      jump\t// out\n        /* \"#utility.yul\":4686:4824   */\n    tag_43:\n        /* \"#utility.yul\":4767:4799   */\n      tag_95\n        /* \"#utility.yul\":4793:4798   */\n      dup2\n        /* \"#utility.yul\":4767:4799   */\n      tag_82\n      jump\t// in\n    tag_95:\n        /* \"#utility.yul\":4760:4765   */\n      dup2\n        /* \"#utility.yul\":4757:4800   */\n      eq\n        /* \"#utility.yul\":4747:4818   */\n      tag_96\n      jumpi\n        /* \"#utility.yul\":4814:4815   */\n      0x00\n        /* \"#utility.yul\":4811:4812   */\n      dup1\n        /* \"#utility.yul\":4804:4816   */\n      revert\n        /* \"#utility.yul\":4747:4818   */\n    tag_96:\n        /* \"#utility.yul\":4686:4824   */\n      pop\n      jump\t// out\n\n    auxdata: 0xa26469706673582212202f89810b97ee30cb360e7939431255fa4e3705f734ae78419f934baaa5dbe72064736f6c63430008070033\n}\n",
				"bytecode": {
					"linkReferences": {},
					"object": "608060405261046e806100136000396000f3fe60806040526004361061003f5760003560e01c806312065fe014610044578063636e082b1461006f57806374be48061461008b578063830c29ae146100a7575b600080fd5b34801561005057600080fd5b506100596100c3565b6040516100669190610354565b60405180910390f35b6100896004803603810190610084919061025a565b6100cb565b005b6100a560048036038101906100a0919061025a565b610116565b005b6100c160048036038101906100bc919061025a565b610194565b005b600047905090565b8073ffffffffffffffffffffffffffffffffffffffff166108fc607b9081150290604051600060405180830381858888f19350505050158015610112573d6000803e3d6000fd5b5050565b60008173ffffffffffffffffffffffffffffffffffffffff166108fc607b9081150290604051600060405180830381858888f19350505050905080610190576040517f08c379a000000000000000000000000000000000000000000000000000000000815260040161018790610334565b60405180910390fd5b5050565b60008173ffffffffffffffffffffffffffffffffffffffff16607b6040516101bb906102ff565b60006040518083038185875af1925050503d80600081146101f8576040519150601f19603f3d011682016040523d82523d6000602084013e6101fd565b606091505b5050905080610241576040517f08c379a000000000000000000000000000000000000000000000000000000000815260040161023890610314565b60405180910390fd5b5050565b60008135905061025481610421565b92915050565b6000602082840312156102705761026f6103c7565b5b600061027e84828501610245565b91505092915050565b6000610294600a8361037a565b915061029f826103cc565b602082019050919050565b60006102b760008361036f565b91506102c2826103f5565b600082019050919050565b60006102da600a8361037a565b91506102e5826103f8565b602082019050919050565b6102f9816103bd565b82525050565b600061030a826102aa565b9150819050919050565b6000602082019050818103600083015261032d81610287565b9050919050565b6000602082019050818103600083015261034d816102cd565b9050919050565b600060208201905061036960008301846102f0565b92915050565b600081905092915050565b600082825260208201905092915050565b60006103968261039d565b9050919050565b600073ffffffffffffffffffffffffffffffffffffffff82169050919050565b6000819050919050565b600080fd5b7f63616c6c206661696c6400000000000000000000000000000000000000000000600082015250565b50565b7f73656e64206661696c6400000000000000000000000000000000000000000000600082015250565b61042a8161038b565b811461043557600080fd5b5056fea26469706673582212202f89810b97ee30cb360e7939431255fa4e3705f734ae78419f934baaa5dbe72064736f6c63430008070033",
					"opcodes": "PUSH1 0x80 PUSH1 0x40 MSTORE PUSH2 0x46E DUP1 PUSH2 0x13 PUSH1 0x0 CODECOPY PUSH1 0x0 RETURN INVALID PUSH1 0x80 PUSH1 0x40 MSTORE PUSH1 0x4 CALLDATASIZE LT PUSH2 0x3F JUMPI PUSH1 0x0 CALLDATALOAD PUSH1 0xE0 SHR DUP1 PUSH4 0x12065FE0 EQ PUSH2 0x44 JUMPI DUP1 PUSH4 0x636E082B EQ PUSH2 0x6F JUMPI DUP1 PUSH4 0x74BE4806 EQ PUSH2 0x8B JUMPI DUP1 PUSH4 0x830C29AE EQ PUSH2 0xA7 JUMPI JUMPDEST PUSH1 0x0 DUP1 REVERT JUMPDEST CALLVALUE DUP1 ISZERO PUSH2 0x50 JUMPI PUSH1 0x0 DUP1 REVERT JUMPDEST POP PUSH2 0x59 PUSH2 0xC3 JUMP JUMPDEST PUSH1 0x40 MLOAD PUSH2 0x66 SWAP2 SWAP1 PUSH2 0x354 JUMP JUMPDEST PUSH1 0x40 MLOAD DUP1 SWAP2 SUB SWAP1 RETURN JUMPDEST PUSH2 0x89 PUSH1 0x4 DUP1 CALLDATASIZE SUB DUP2 ADD SWAP1 PUSH2 0x84 SWAP2 SWAP1 PUSH2 0x25A JUMP JUMPDEST PUSH2 0xCB JUMP JUMPDEST STOP JUMPDEST PUSH2 0xA5 PUSH1 0x4 DUP1 CALLDATASIZE SUB DUP2 ADD SWAP1 PUSH2 0xA0 SWAP2 SWAP1 PUSH2 0x25A JUMP JUMPDEST PUSH2 0x116 JUMP JUMPDEST STOP JUMPDEST PUSH2 0xC1 PUSH1 0x4 DUP1 CALLDATASIZE SUB DUP2 ADD SWAP1 PUSH2 0xBC SWAP2 SWAP1 PUSH2 0x25A JUMP JUMPDEST PUSH2 0x194 JUMP JUMPDEST STOP JUMPDEST PUSH1 0x0 SELFBALANCE SWAP1 POP SWAP1 JUMP JUMPDEST DUP1 PUSH20 0xFFFFFFFFFFFFFFFFFFFFFFFFFFFFFFFFFFFFFFFF AND PUSH2 0x8FC PUSH1 0x7B SWAP1 DUP2 ISZERO MUL SWAP1 PUSH1 0x40 MLOAD PUSH1 0x0 PUSH1 0x40 MLOAD DUP1 DUP4 SUB DUP2 DUP6 DUP9 DUP9 CALL SWAP4 POP POP POP POP ISZERO DUP1 ISZERO PUSH2 0x112 JUMPI RETURNDATASIZE PUSH1 0x0 DUP1 RETURNDATACOPY RETURNDATASIZE PUSH1 0x0 REVERT JUMPDEST POP POP JUMP JUMPDEST PUSH1 0x0 DUP2 PUSH20 0xFFFFFFFFFFFFFFFFFFFFFFFFFFFFFFFFFFFFFFFF AND PUSH2 0x8FC PUSH1 0x7B SWAP1 DUP2 ISZERO MUL SWAP1 PUSH1 0x40 MLOAD PUSH1 0x0 PUSH1 0x40 MLOAD DUP1 DUP4 SUB DUP2 DUP6 DUP9 DUP9 CALL SWAP4 POP POP POP POP SWAP1 POP DUP1 PUSH2 0x190 JUMPI PUSH1 0x40 MLOAD PUSH32 0x8C379A000000000000000000000000000000000000000000000000000000000 DUP2 MSTORE PUSH1 0x4 ADD PUSH2 0x187 SWAP1 PUSH2 0x334 JUMP JUMPDEST PUSH1 0x40 MLOAD DUP1 SWAP2 SUB SWAP1 REVERT JUMPDEST POP POP JUMP JUMPDEST PUSH1 0x0 DUP2 PUSH20 0xFFFFFFFFFFFFFFFFFFFFFFFFFFFFFFFFFFFFFFFF AND PUSH1 0x7B PUSH1 0x40 MLOAD PUSH2 0x1BB SWAP1 PUSH2 0x2FF JUMP JUMPDEST PUSH1 0x0 PUSH1 0x40 MLOAD DUP1 DUP4 SUB DUP2 DUP6 DUP8 GAS CALL SWAP3 POP POP POP RETURNDATASIZE DUP1 PUSH1 0x0 DUP2 EQ PUSH2 0x1F8 JUMPI PUSH1 0x40 MLOAD SWAP2 POP PUSH1 0x1F NOT PUSH1 0x3F RETURNDATASIZE ADD AND DUP3 ADD PUSH1 0x40 MSTORE RETURNDATASIZE DUP3 MSTORE RETURNDATASIZE PUSH1 0x0 PUSH1 0x20 DUP5 ADD RETURNDATACOPY PUSH2 0x1FD JUMP JUMPDEST PUSH1 0x60 SWAP2 POP JUMPDEST POP POP SWAP1 POP DUP1 PUSH2 0x241 JUMPI PUSH1 0x40 MLOAD PUSH32 0x8C379A000000000000000000000000000000000000000000000000000000000 DUP2 MSTORE PUSH1 0x4 ADD PUSH2 0x238 SWAP1 PUSH2 0x314 JUMP JUMPDEST PUSH1 0x40 MLOAD DUP1 SWAP2 SUB SWAP1 REVERT JUMPDEST POP POP JUMP JUMPDEST PUSH1 0x0 DUP2 CALLDATALOAD SWAP1 POP PUSH2 0x254 DUP2 PUSH2 0x421 JUMP JUMPDEST SWAP3 SWAP2 POP POP JUMP JUMPDEST PUSH1 0x0 PUSH1 0x20 DUP3 DUP5 SUB SLT ISZERO PUSH2 0x270 JUMPI PUSH2 0x26F PUSH2 0x3C7 JUMP JUMPDEST JUMPDEST PUSH1 0x0 PUSH2 0x27E DUP5 DUP3 DUP6 ADD PUSH2 0x245 JUMP JUMPDEST SWAP2 POP POP SWAP3 SWAP2 POP POP JUMP JUMPDEST PUSH1 0x0 PUSH2 0x294 PUSH1 0xA DUP4 PUSH2 0x37A JUMP JUMPDEST SWAP2 POP PUSH2 0x29F DUP3 PUSH2 0x3CC JUMP JUMPDEST PUSH1 0x20 DUP3 ADD SWAP1 POP SWAP2 SWAP1 POP JUMP JUMPDEST PUSH1 0x0 PUSH2 0x2B7 PUSH1 0x0 DUP4 PUSH2 0x36F JUMP JUMPDEST SWAP2 POP PUSH2 0x2C2 DUP3 PUSH2 0x3F5 JUMP JUMPDEST PUSH1 0x0 DUP3 ADD SWAP1 POP SWAP2 SWAP1 POP JUMP JUMPDEST PUSH1 0x0 PUSH2 0x2DA PUSH1 0xA DUP4 PUSH2 0x37A JUMP JUMPDEST SWAP2 POP PUSH2 0x2E5 DUP3 PUSH2 0x3F8 JUMP JUMPDEST PUSH1 0x20 DUP3 ADD SWAP1 POP SWAP2 SWAP1 POP JUMP JUMPDEST PUSH2 0x2F9 DUP2 PUSH2 0x3BD JUMP JUMPDEST DUP3 MSTORE POP POP JUMP JUMPDEST PUSH1 0x0 PUSH2 0x30A DUP3 PUSH2 0x2AA JUMP JUMPDEST SWAP2 POP DUP2 SWAP1 POP SWAP2 SWAP1 POP JUMP JUMPDEST PUSH1 0x0 PUSH1 0x20 DUP3 ADD SWAP1 POP DUP2 DUP2 SUB PUSH1 0x0 DUP4 ADD MSTORE PUSH2 0x32D DUP2 PUSH2 0x287 JUMP JUMPDEST SWAP1 POP SWAP2 SWAP1 POP JUMP JUMPDEST PUSH1 0x0 PUSH1 0x20 DUP3 ADD SWAP1 POP DUP2 DUP2 SUB PUSH1 0x0 DUP4 ADD MSTORE PUSH2 0x34D DUP2 PUSH2 0x2CD JUMP JUMPDEST SWAP1 POP SWAP2 SWAP1 POP JUMP JUMPDEST PUSH1 0x0 PUSH1 0x20 DUP3 ADD SWAP1 POP PUSH2 0x369 PUSH1 0x0 DUP4 ADD DUP5 PUSH2 0x2F0 JUMP JUMPDEST SWAP3 SWAP2 POP POP JUMP JUMPDEST PUSH1 0x0 DUP2 SWAP1 POP SWAP3 SWAP2 POP POP JUMP JUMPDEST PUSH1 0x0 DUP3 DUP3 MSTORE PUSH1 0x20 DUP3 ADD SWAP1 POP SWAP3 SWAP2 POP POP JUMP JUMPDEST PUSH1 0x0 PUSH2 0x396 DUP3 PUSH2 0x39D JUMP JUMPDEST SWAP1 POP SWAP2 SWAP1 POP JUMP JUMPDEST PUSH1 0x0 PUSH20 0xFFFFFFFFFFFFFFFFFFFFFFFFFFFFFFFFFFFFFFFF DUP3 AND SWAP1 POP SWAP2 SWAP1 POP JUMP JUMPDEST PUSH1 0x0 DUP2 SWAP1 POP SWAP2 SWAP1 POP JUMP JUMPDEST PUSH1 0x0 DUP1 REVERT JUMPDEST PUSH32 0x63616C6C206661696C6400000000000000000000000000000000000000000000 PUSH1 0x0 DUP3 ADD MSTORE POP JUMP JUMPDEST POP JUMP JUMPDEST PUSH32 0x73656E64206661696C6400000000000000000000000000000000000000000000 PUSH1 0x0 DUP3 ADD MSTORE POP JUMP JUMPDEST PUSH2 0x42A DUP2 PUSH2 0x38B JUMP JUMPDEST DUP2 EQ PUSH2 0x435 JUMPI PUSH1 0x0 DUP1 REVERT JUMPDEST POP JUMP INVALID LOG2 PUSH5 0x6970667358 0x22 SLT KECCAK256 0x2F DUP10 DUP2 SIGNEXTEND SWAP8 0xEE ADDRESS 0xCB CALLDATASIZE 0xE PUSH26 0x39431255FA4E3705F734AE78419F934BAAA5DBE72064736F6C63 NUMBER STOP ADDMOD SMOD STOP CALLER "
				},
				"gasEstimates": {
					"creation": {
						"codeDepositCost": "226800",
						"executionCost": "245",
						"totalCost": "227045"
					},
					"external": {
						"getBalance()": "317",
						"sendViaCall(address)": "infinite",
						"sendViaSend(address)": "infinite",
						"sendViaTransfer(address)": "infinite"
					}
				},
				"methodIdentifiers": {
					"getBalance()": "12065fe0",
					"sendViaCall(address)": "830c29ae",
					"sendViaSend(address)": "74be4806",
					"sendViaTransfer(address)": "636e082b"
				}
			},
			"storageLayout": {
				"storage": [],
				"types": null
			},
			"userdoc": {
				"kind": "user",
				"methods": {},
				"version": 1
			}
		}
	}
}