{
	"xens/xenMinimalProxyGet.sol": {
		"GETXEN": {
			"abi": [
				{
					"inputs": [],
					"stateMutability": "nonpayable",
					"type": "constructor"
				},
				{
					"inputs": [
						{
							"internalType": "uint256",
							"name": "times",
							"type": "uint256"
						},
						{
							"internalType": "uint256",
							"name": "term",
							"type": "uint256"
						}
					],
					"name": "claimMintReward",
					"outputs": [],
					"stateMutability": "nonpayable",
					"type": "function"
				},
				{
					"inputs": [
						{
							"internalType": "uint256",
							"name": "times",
							"type": "uint256"
						},
						{
							"internalType": "uint256",
							"name": "term",
							"type": "uint256"
						}
					],
					"name": "claimRank",
					"outputs": [],
					"stateMutability": "nonpayable",
					"type": "function"
				},
				{
					"inputs": [
						{
							"internalType": "address",
							"name": "",
							"type": "address"
						},
						{
							"internalType": "uint256",
							"name": "",
							"type": "uint256"
						},
						{
							"internalType": "uint256",
							"name": "",
							"type": "uint256"
						}
					],
					"name": "userContracts",
					"outputs": [
						{
							"internalType": "address",
							"name": "",
							"type": "address"
						}
					],
					"stateMutability": "view",
					"type": "function"
				},
				{
					"stateMutability": "payable",
					"type": "receive"
				}
			],
			"devdoc": {
				"kind": "dev",
				"methods": {},
				"version": 1
			},
			"evm": {
				"assembly": "    /* \"xens/xenMinimalProxyGet.sol\":937:2404  contract GETXEN {... */\n  mstore(0x40, 0xa0)\n    /* \"xens/xenMinimalProxyGet.sol\":1069:1124  constructor() {... */\n  callvalue\n  dup1\n  iszero\n  tag_1\n  jumpi\n  0x00\n  dup1\n  revert\ntag_1:\n  pop\n    /* \"xens/xenMinimalProxyGet.sol\":1107:1116  new GET() */\n  mload(0x40)\n  tag_4\n  swap1\n  tag_5\n  jump\t// in\ntag_4:\n  mload(0x40)\n  dup1\n  swap2\n  sub\n  swap1\n  0x00\n  create\n  dup1\n  iszero\n  dup1\n  iszero\n  tag_6\n  jumpi\n  returndatasize\n  0x00\n  dup1\n  returndatacopy\n  revert(0x00, returndatasize)\ntag_6:\n  pop\n    /* \"xens/xenMinimalProxyGet.sol\":1093:1117  get = address(new GET()) */\n  0xffffffffffffffffffffffffffffffffffffffff\n  and\n  0x80\n  dup2\n  0xffffffffffffffffffffffffffffffffffffffff\n  and\n  0x60\n  shl\n  dup2\n  mstore\n  pop\n  pop\n    /* \"xens/xenMinimalProxyGet.sol\":937:2404  contract GETXEN {... */\n  jump(tag_7)\ntag_5:\n  dataSize(sub_1)\n  dup1\n  dataOffset(sub_1)\n  dup4\n  codecopy\n  add\n  swap1\n  jump\t// out\ntag_7:\n  shr(0x60, mload(0x80))\n  codecopy(0x00, dataOffset(sub_0), dataSize(sub_0))\n  0x00\n  assignImmutable(\"0x9fc1ee6eadd67a54527f8d0704f8da30e58e7e115f3c3a09267ee1b121a8cd57\")\n  return(0x00, dataSize(sub_0))\nstop\n\nsub_0: assembly {\n        /* \"xens/xenMinimalProxyGet.sol\":937:2404  contract GETXEN {... */\n      mstore(0x40, 0x80)\n      jumpi(tag_1, lt(calldatasize, 0x04))\n      shr(0xe0, calldataload(0x00))\n      dup1\n      0x550e4934\n      eq\n      tag_3\n      jumpi\n      dup1\n      0xa2f40a5a\n      eq\n      tag_4\n      jumpi\n      dup1\n      0xf3efc260\n      eq\n      tag_5\n      jumpi\n      jump(tag_2)\n    tag_1:\n      jumpi(tag_2, calldatasize)\n        /* \"xens/xenMinimalProxyGet.sol\":2375:2379  this */\n      address\n        /* \"xens/xenMinimalProxyGet.sol\":2375:2389  this.claimRank */\n      0xffffffffffffffffffffffffffffffffffffffff\n      and\n      0xf3efc260\n        /* \"xens/xenMinimalProxyGet.sol\":2390:2391  5 */\n      0x05\n        /* \"xens/xenMinimalProxyGet.sol\":2393:2394  1 */\n      0x01\n        /* \"xens/xenMinimalProxyGet.sol\":2375:2395  this.claimRank(5, 1) */\n      mload(0x40)\n      dup4\n      0xffffffff\n      and\n      0xe0\n      shl\n      dup2\n      mstore\n      0x04\n      add\n      tag_8\n      swap3\n      swap2\n      swap1\n      tag_9\n      jump\t// in\n    tag_8:\n      0x00\n      mload(0x40)\n      dup1\n      dup4\n      sub\n      dup2\n      0x00\n      dup8\n      dup1\n      extcodesize\n      iszero\n      dup1\n      iszero\n      tag_10\n      jumpi\n      0x00\n      dup1\n      revert\n    tag_10:\n      pop\n      gas\n      call\n      iszero\n      dup1\n      iszero\n      tag_12\n      jumpi\n      returndatasize\n      0x00\n      dup1\n      returndatacopy\n      revert(0x00, returndatasize)\n    tag_12:\n      pop\n      pop\n      pop\n      pop\n        /* \"xens/xenMinimalProxyGet.sol\":937:2404  contract GETXEN {... */\n      stop\n    tag_2:\n      0x00\n      dup1\n      revert\n        /* \"xens/xenMinimalProxyGet.sol\":959:1027  mapping (address=>mapping (uint256=>address[])) public userContracts */\n    tag_3:\n      callvalue\n      dup1\n      iszero\n      tag_13\n      jumpi\n      0x00\n      dup1\n      revert\n    tag_13:\n      pop\n      tag_14\n      0x04\n      dup1\n      calldatasize\n      sub\n      dup2\n      add\n      swap1\n      tag_15\n      swap2\n      swap1\n      tag_16\n      jump\t// in\n    tag_15:\n      tag_17\n      jump\t// in\n    tag_14:\n      mload(0x40)\n      tag_18\n      swap2\n      swap1\n      tag_19\n      jump\t// in\n    tag_18:\n      mload(0x40)\n      dup1\n      swap2\n      sub\n      swap1\n      return\n        /* \"xens/xenMinimalProxyGet.sol\":1909:2276  function claimMintReward(uint256 times, uint256 term) external {... */\n    tag_4:\n      callvalue\n      dup1\n      iszero\n      tag_20\n      jumpi\n      0x00\n      dup1\n      revert\n    tag_20:\n      pop\n      tag_21\n      0x04\n      dup1\n      calldatasize\n      sub\n      dup2\n      add\n      swap1\n      tag_22\n      swap2\n      swap1\n      tag_23\n      jump\t// in\n    tag_22:\n      tag_24\n      jump\t// in\n    tag_21:\n      stop\n        /* \"xens/xenMinimalProxyGet.sol\":1616:1903  function claimRank(uint256 times, uint256 term) external {... */\n    tag_5:\n      callvalue\n      dup1\n      iszero\n      tag_25\n      jumpi\n      0x00\n      dup1\n      revert\n    tag_25:\n      pop\n      tag_26\n      0x04\n      dup1\n      calldatasize\n      sub\n      dup2\n      add\n      swap1\n      tag_27\n      swap2\n      swap1\n      tag_23\n      jump\t// in\n    tag_27:\n      tag_28\n      jump\t// in\n    tag_26:\n      stop\n        /* \"xens/xenMinimalProxyGet.sol\":959:1027  mapping (address=>mapping (uint256=>address[])) public userContracts */\n    tag_17:\n      mstore(0x20, 0x00)\n      dup3\n      0x00\n      mstore\n      mstore(0x20, keccak256(0x00, 0x40))\n      dup2\n      0x00\n      mstore\n      keccak256(0x00, 0x40)\n      dup2\n      dup2\n      sload\n      dup2\n      lt\n      tag_29\n      jumpi\n      0x00\n      dup1\n      revert\n    tag_29:\n      swap1\n      0x00\n      mstore\n      keccak256(0x00, 0x20)\n      add\n      0x00\n      swap3\n      pop\n      swap3\n      pop\n      pop\n      swap1\n      sload\n      swap1\n      0x0100\n      exp\n      swap1\n      div\n      0xffffffffffffffffffffffffffffffffffffffff\n      and\n      dup2\n      jump\t// out\n        /* \"xens/xenMinimalProxyGet.sol\":1909:2276  function claimMintReward(uint256 times, uint256 term) external {... */\n    tag_24:\n        /* \"xens/xenMinimalProxyGet.sol\":1982:1994  address user */\n      0x00\n        /* \"xens/xenMinimalProxyGet.sol\":1997:2006  tx.origin */\n      origin\n        /* \"xens/xenMinimalProxyGet.sol\":1982:2006  address user = tx.origin */\n      swap1\n      pop\n        /* \"xens/xenMinimalProxyGet.sol\":2020:2029  uint256 i */\n      0x00\n        /* \"xens/xenMinimalProxyGet.sol\":2016:2270  for(uint256 i; i<times; ++i){... */\n    tag_32:\n        /* \"xens/xenMinimalProxyGet.sol\":2033:2038  times */\n      dup4\n        /* \"xens/xenMinimalProxyGet.sol\":2031:2032  i */\n      dup2\n        /* \"xens/xenMinimalProxyGet.sol\":2031:2038  i<times */\n      lt\n        /* \"xens/xenMinimalProxyGet.sol\":2016:2270  for(uint256 i; i<times; ++i){... */\n      iszero\n      tag_33\n      jumpi\n        /* \"xens/xenMinimalProxyGet.sol\":2058:2071  uint256 count */\n      0x00\n        /* \"xens/xenMinimalProxyGet.sol\":2074:2087  userContracts */\n      dup1\n        /* \"xens/xenMinimalProxyGet.sol\":2074:2093  userContracts[user] */\n      0x00\n        /* \"xens/xenMinimalProxyGet.sol\":2088:2092  user */\n      dup5\n        /* \"xens/xenMinimalProxyGet.sol\":2074:2093  userContracts[user] */\n      0xffffffffffffffffffffffffffffffffffffffff\n      and\n      0xffffffffffffffffffffffffffffffffffffffff\n      and\n      dup2\n      mstore\n      0x20\n      add\n      swap1\n      dup2\n      mstore\n      0x20\n      add\n      0x00\n      keccak256\n        /* \"xens/xenMinimalProxyGet.sol\":2074:2099  userContracts[user][term] */\n      0x00\n        /* \"xens/xenMinimalProxyGet.sol\":2094:2098  term */\n      dup6\n        /* \"xens/xenMinimalProxyGet.sol\":2074:2099  userContracts[user][term] */\n      dup2\n      mstore\n      0x20\n      add\n      swap1\n      dup2\n      mstore\n      0x20\n      add\n      0x00\n      keccak256\n        /* \"xens/xenMinimalProxyGet.sol\":2074:2106  userContracts[user][term].length */\n      dup1\n      sload\n      swap1\n      pop\n        /* \"xens/xenMinimalProxyGet.sol\":2058:2106  uint256 count = userContracts[user][term].length */\n      swap1\n      pop\n        /* \"xens/xenMinimalProxyGet.sol\":2120:2133  address clone */\n      0x00\n        /* \"xens/xenMinimalProxyGet.sol\":2136:2149  userContracts */\n      dup1\n        /* \"xens/xenMinimalProxyGet.sol\":2136:2155  userContracts[user] */\n      0x00\n        /* \"xens/xenMinimalProxyGet.sol\":2150:2154  user */\n      dup6\n        /* \"xens/xenMinimalProxyGet.sol\":2136:2155  userContracts[user] */\n      0xffffffffffffffffffffffffffffffffffffffff\n      and\n      0xffffffffffffffffffffffffffffffffffffffff\n      and\n      dup2\n      mstore\n      0x20\n      add\n      swap1\n      dup2\n      mstore\n      0x20\n      add\n      0x00\n      keccak256\n        /* \"xens/xenMinimalProxyGet.sol\":2136:2161  userContracts[user][term] */\n      0x00\n        /* \"xens/xenMinimalProxyGet.sol\":2156:2160  term */\n      dup7\n        /* \"xens/xenMinimalProxyGet.sol\":2136:2161  userContracts[user][term] */\n      dup2\n      mstore\n      0x20\n      add\n      swap1\n      dup2\n      mstore\n      0x20\n      add\n      0x00\n      keccak256\n        /* \"xens/xenMinimalProxyGet.sol\":2170:2171  1 */\n      0x01\n        /* \"xens/xenMinimalProxyGet.sol\":2162:2167  count */\n      dup4\n        /* \"xens/xenMinimalProxyGet.sol\":2162:2171  count - 1 */\n      tag_35\n      swap2\n      swap1\n      tag_36\n      jump\t// in\n    tag_35:\n        /* \"xens/xenMinimalProxyGet.sol\":2136:2172  userContracts[user][term][count - 1] */\n      dup2\n      sload\n      dup2\n      lt\n      tag_37\n      jumpi\n      tag_38\n      tag_39\n      jump\t// in\n    tag_38:\n    tag_37:\n      swap1\n      0x00\n      mstore\n      keccak256(0x00, 0x20)\n      add\n      0x00\n      swap1\n      sload\n      swap1\n      0x0100\n      exp\n      swap1\n      div\n      0xffffffffffffffffffffffffffffffffffffffff\n      and\n        /* \"xens/xenMinimalProxyGet.sol\":2120:2172  address clone = userContracts[user][term][count - 1] */\n      swap1\n      pop\n        /* \"xens/xenMinimalProxyGet.sol\":2190:2195  clone */\n      dup1\n        /* \"xens/xenMinimalProxyGet.sol\":2186:2212  GET(clone).claimMintReward */\n      0xffffffffffffffffffffffffffffffffffffffff\n      and\n      0x52c7f8dc\n        /* \"xens/xenMinimalProxyGet.sol\":2186:2214  GET(clone).claimMintReward() */\n      mload(0x40)\n      dup2\n      0xffffffff\n      and\n      0xe0\n      shl\n      dup2\n      mstore\n      0x04\n      add\n      0x00\n      mload(0x40)\n      dup1\n      dup4\n      sub\n      dup2\n      0x00\n      dup8\n      dup1\n      extcodesize\n      iszero\n      dup1\n      iszero\n      tag_41\n      jumpi\n      0x00\n      dup1\n      revert\n    tag_41:\n      pop\n      gas\n      call\n      iszero\n      dup1\n      iszero\n      tag_43\n      jumpi\n      returndatasize\n      0x00\n      dup1\n      returndatacopy\n      revert(0x00, returndatasize)\n    tag_43:\n      pop\n      pop\n      pop\n      pop\n        /* \"xens/xenMinimalProxyGet.sol\":2228:2241  userContracts */\n      0x00\n        /* \"xens/xenMinimalProxyGet.sol\":2228:2247  userContracts[user] */\n      dup1\n        /* \"xens/xenMinimalProxyGet.sol\":2242:2246  user */\n      dup6\n        /* \"xens/xenMinimalProxyGet.sol\":2228:2247  userContracts[user] */\n      0xffffffffffffffffffffffffffffffffffffffff\n      and\n      0xffffffffffffffffffffffffffffffffffffffff\n      and\n      dup2\n      mstore\n      0x20\n      add\n      swap1\n      dup2\n      mstore\n      0x20\n      add\n      0x00\n      keccak256\n        /* \"xens/xenMinimalProxyGet.sol\":2228:2253  userContracts[user][term] */\n      0x00\n        /* \"xens/xenMinimalProxyGet.sol\":2248:2252  term */\n      dup7\n        /* \"xens/xenMinimalProxyGet.sol\":2228:2253  userContracts[user][term] */\n      dup2\n      mstore\n      0x20\n      add\n      swap1\n      dup2\n      mstore\n      0x20\n      add\n      0x00\n      keccak256\n        /* \"xens/xenMinimalProxyGet.sol\":2228:2259  userContracts[user][term].pop() */\n      dup1\n      sload\n      dup1\n      tag_44\n      jumpi\n      tag_45\n      tag_46\n      jump\t// in\n    tag_45:\n    tag_44:\n      0x01\n      swap1\n      sub\n      dup2\n      dup2\n      swap1\n      0x00\n      mstore\n      keccak256(0x00, 0x20)\n      add\n      exp(0x0100, 0x00)\n      dup2\n      sload\n      swap1\n      0xffffffffffffffffffffffffffffffffffffffff\n      mul\n      not\n      and\n      swap1\n      sstore\n      swap1\n      sstore\n        /* \"xens/xenMinimalProxyGet.sol\":2044:2270  {... */\n      pop\n      pop\n        /* \"xens/xenMinimalProxyGet.sol\":2040:2043  ++i */\n      dup1\n      tag_48\n      swap1\n      tag_49\n      jump\t// in\n    tag_48:\n      swap1\n      pop\n        /* \"xens/xenMinimalProxyGet.sol\":2016:2270  for(uint256 i; i<times; ++i){... */\n      jump(tag_32)\n    tag_33:\n      pop\n        /* \"xens/xenMinimalProxyGet.sol\":1972:2276  {... */\n      pop\n        /* \"xens/xenMinimalProxyGet.sol\":1909:2276  function claimMintReward(uint256 times, uint256 term) external {... */\n      pop\n      pop\n      jump\t// out\n        /* \"xens/xenMinimalProxyGet.sol\":1616:1903  function claimRank(uint256 times, uint256 term) external {... */\n    tag_28:\n        /* \"xens/xenMinimalProxyGet.sol\":1683:1695  address user */\n      0x00\n        /* \"xens/xenMinimalProxyGet.sol\":1698:1707  tx.origin */\n      origin\n        /* \"xens/xenMinimalProxyGet.sol\":1683:1707  address user = tx.origin */\n      swap1\n      pop\n        /* \"xens/xenMinimalProxyGet.sol\":1721:1730  uint256 i */\n      0x00\n        /* \"xens/xenMinimalProxyGet.sol\":1717:1897  for(uint256 i; i<times; ++i){... */\n    tag_51:\n        /* \"xens/xenMinimalProxyGet.sol\":1734:1739  times */\n      dup4\n        /* \"xens/xenMinimalProxyGet.sol\":1732:1733  i */\n      dup2\n        /* \"xens/xenMinimalProxyGet.sol\":1732:1739  i<times */\n      lt\n        /* \"xens/xenMinimalProxyGet.sol\":1717:1897  for(uint256 i; i<times; ++i){... */\n      iszero\n      tag_52\n      jumpi\n        /* \"xens/xenMinimalProxyGet.sol\":1759:1772  address clone */\n      0x00\n        /* \"xens/xenMinimalProxyGet.sol\":1775:1786  _clone(get) */\n      tag_54\n        /* \"xens/xenMinimalProxyGet.sol\":1782:1785  get */\n      immutable(\"0x9fc1ee6eadd67a54527f8d0704f8da30e58e7e115f3c3a09267ee1b121a8cd57\")\n        /* \"xens/xenMinimalProxyGet.sol\":1775:1781  _clone */\n      tag_55\n        /* \"xens/xenMinimalProxyGet.sol\":1775:1786  _clone(get) */\n      jump\t// in\n    tag_54:\n        /* \"xens/xenMinimalProxyGet.sol\":1759:1786  address clone = _clone(get) */\n      swap1\n      pop\n        /* \"xens/xenMinimalProxyGet.sol\":1804:1809  clone */\n      dup1\n        /* \"xens/xenMinimalProxyGet.sol\":1800:1820  GET(clone).claimRank */\n      0xffffffffffffffffffffffffffffffffffffffff\n      and\n      0x9ff054df\n        /* \"xens/xenMinimalProxyGet.sol\":1821:1825  term */\n      dup6\n        /* \"xens/xenMinimalProxyGet.sol\":1800:1826  GET(clone).claimRank(term) */\n      mload(0x40)\n      dup3\n      0xffffffff\n      and\n      0xe0\n      shl\n      dup2\n      mstore\n      0x04\n      add\n      tag_56\n      swap2\n      swap1\n      tag_57\n      jump\t// in\n    tag_56:\n      0x00\n      mload(0x40)\n      dup1\n      dup4\n      sub\n      dup2\n      0x00\n      dup8\n      dup1\n      extcodesize\n      iszero\n      dup1\n      iszero\n      tag_58\n      jumpi\n      0x00\n      dup1\n      revert\n    tag_58:\n      pop\n      gas\n      call\n      iszero\n      dup1\n      iszero\n      tag_60\n      jumpi\n      returndatasize\n      0x00\n      dup1\n      returndatacopy\n      revert(0x00, returndatasize)\n    tag_60:\n      pop\n      pop\n      pop\n      pop\n        /* \"xens/xenMinimalProxyGet.sol\":1840:1853  userContracts */\n      0x00\n        /* \"xens/xenMinimalProxyGet.sol\":1840:1859  userContracts[user] */\n      dup1\n        /* \"xens/xenMinimalProxyGet.sol\":1854:1858  user */\n      dup5\n        /* \"xens/xenMinimalProxyGet.sol\":1840:1859  userContracts[user] */\n      0xffffffffffffffffffffffffffffffffffffffff\n      and\n      0xffffffffffffffffffffffffffffffffffffffff\n      and\n      dup2\n      mstore\n      0x20\n      add\n      swap1\n      dup2\n      mstore\n      0x20\n      add\n      0x00\n      keccak256\n        /* \"xens/xenMinimalProxyGet.sol\":1840:1865  userContracts[user][term] */\n      0x00\n        /* \"xens/xenMinimalProxyGet.sol\":1860:1864  term */\n      dup6\n        /* \"xens/xenMinimalProxyGet.sol\":1840:1865  userContracts[user][term] */\n      dup2\n      mstore\n      0x20\n      add\n      swap1\n      dup2\n      mstore\n      0x20\n      add\n      0x00\n      keccak256\n        /* \"xens/xenMinimalProxyGet.sol\":1879:1884  clone */\n      dup2\n        /* \"xens/xenMinimalProxyGet.sol\":1840:1886  userContracts[user][term].push(address(clone)) */\n      swap1\n      dup1\n      0x01\n      dup2\n      sload\n      add\n      dup1\n      dup3\n      sstore\n      dup1\n      swap2\n      pop\n      pop\n      0x01\n      swap1\n      sub\n      swap1\n      0x00\n      mstore\n      keccak256(0x00, 0x20)\n      add\n      0x00\n      swap1\n      swap2\n      swap1\n      swap2\n      swap1\n      swap2\n      0x0100\n      exp\n      dup2\n      sload\n      dup2\n      0xffffffffffffffffffffffffffffffffffffffff\n      mul\n      not\n      and\n      swap1\n      dup4\n      0xffffffffffffffffffffffffffffffffffffffff\n      and\n      mul\n      or\n      swap1\n      sstore\n      pop\n        /* \"xens/xenMinimalProxyGet.sol\":1745:1897  {... */\n      pop\n        /* \"xens/xenMinimalProxyGet.sol\":1741:1744  ++i */\n      dup1\n      tag_62\n      swap1\n      tag_49\n      jump\t// in\n    tag_62:\n      swap1\n      pop\n        /* \"xens/xenMinimalProxyGet.sol\":1717:1897  for(uint256 i; i<times; ++i){... */\n      jump(tag_51)\n    tag_52:\n      pop\n        /* \"xens/xenMinimalProxyGet.sol\":1673:1903  {... */\n      pop\n        /* \"xens/xenMinimalProxyGet.sol\":1616:1903  function claimRank(uint256 times, uint256 term) external {... */\n      pop\n      pop\n      jump\t// out\n        /* \"xens/xenMinimalProxyGet.sol\":1130:1610  function _clone(address target) internal returns (address result) {... */\n    tag_55:\n        /* \"xens/xenMinimalProxyGet.sol\":1180:1194  address result */\n      0x00\n        /* \"xens/xenMinimalProxyGet.sol\":1206:1225  bytes20 targetBytes */\n      dup1\n        /* \"xens/xenMinimalProxyGet.sol\":1236:1242  target */\n      dup3\n        /* \"xens/xenMinimalProxyGet.sol\":1228:1243  bytes20(target) */\n      0x60\n      shl\n        /* \"xens/xenMinimalProxyGet.sol\":1206:1243  bytes20 targetBytes = bytes20(target) */\n      swap1\n      pop\n        /* \"xens/xenMinimalProxyGet.sol\":1295:1299  0x40 */\n      0x40\n        /* \"xens/xenMinimalProxyGet.sol\":1289:1300  mload(0x40) */\n      mload\n        /* \"xens/xenMinimalProxyGet.sol\":1327:1393  0x3d602d80600a3d3981f3363d3d373d3d3d363d73000000000000000000000000 */\n      0x3d602d80600a3d3981f3363d3d373d3d3d363d73000000000000000000000000\n        /* \"xens/xenMinimalProxyGet.sol\":1320:1325  clone */\n      dup2\n        /* \"xens/xenMinimalProxyGet.sol\":1313:1394  mstore(clone, 0x3d602d80600a3d3981f3363d3d373d3d3d363d73000000000000000000000000) */\n      mstore\n        /* \"xens/xenMinimalProxyGet.sol\":1432:1443  targetBytes */\n      dup2\n        /* \"xens/xenMinimalProxyGet.sol\":1425:1429  0x14 */\n      0x14\n        /* \"xens/xenMinimalProxyGet.sol\":1418:1423  clone */\n      dup3\n        /* \"xens/xenMinimalProxyGet.sol\":1414:1430  add(clone, 0x14) */\n      add\n        /* \"xens/xenMinimalProxyGet.sol\":1407:1444  mstore(add(clone, 0x14), targetBytes) */\n      mstore\n        /* \"xens/xenMinimalProxyGet.sol\":1482:1548  0x5af43d82803e903d91602b57fd5bf30000000000000000000000000000000000 */\n      0x5af43d82803e903d91602b57fd5bf30000000000000000000000000000000000\n        /* \"xens/xenMinimalProxyGet.sol\":1475:1479  0x28 */\n      0x28\n        /* \"xens/xenMinimalProxyGet.sol\":1468:1473  clone */\n      dup3\n        /* \"xens/xenMinimalProxyGet.sol\":1464:1480  add(clone, 0x28) */\n      add\n        /* \"xens/xenMinimalProxyGet.sol\":1457:1549  mstore(add(clone, 0x28), 0x5af43d82803e903d91602b57fd5bf30000000000000000000000000000000000) */\n      mstore\n        /* \"xens/xenMinimalProxyGet.sol\":1589:1593  0x37 */\n      0x37\n        /* \"xens/xenMinimalProxyGet.sol\":1582:1587  clone */\n      dup2\n        /* \"xens/xenMinimalProxyGet.sol\":1579:1580  0 */\n      0x00\n        /* \"xens/xenMinimalProxyGet.sol\":1572:1594  create(0, clone, 0x37) */\n      create\n        /* \"xens/xenMinimalProxyGet.sol\":1562:1594  result := create(0, clone, 0x37) */\n      swap3\n      pop\n        /* \"xens/xenMinimalProxyGet.sol\":1262:1604  {... */\n      pop\n      pop\n        /* \"xens/xenMinimalProxyGet.sol\":1130:1610  function _clone(address target) internal returns (address result) {... */\n      swap2\n      swap1\n      pop\n      jump\t// out\n        /* \"#utility.yul\":7:146   */\n    tag_65:\n        /* \"#utility.yul\":53:58   */\n      0x00\n        /* \"#utility.yul\":91:97   */\n      dup2\n        /* \"#utility.yul\":78:98   */\n      calldataload\n        /* \"#utility.yul\":69:98   */\n      swap1\n      pop\n        /* \"#utility.yul\":107:140   */\n      tag_67\n        /* \"#utility.yul\":134:139   */\n      dup2\n        /* \"#utility.yul\":107:140   */\n      tag_68\n      jump\t// in\n    tag_67:\n        /* \"#utility.yul\":7:146   */\n      swap3\n      swap2\n      pop\n      pop\n      jump\t// out\n        /* \"#utility.yul\":152:291   */\n    tag_69:\n        /* \"#utility.yul\":198:203   */\n      0x00\n        /* \"#utility.yul\":236:242   */\n      dup2\n        /* \"#utility.yul\":223:243   */\n      calldataload\n        /* \"#utility.yul\":214:243   */\n      swap1\n      pop\n        /* \"#utility.yul\":252:285   */\n      tag_71\n        /* \"#utility.yul\":279:284   */\n      dup2\n        /* \"#utility.yul\":252:285   */\n      tag_72\n      jump\t// in\n    tag_71:\n        /* \"#utility.yul\":152:291   */\n      swap3\n      swap2\n      pop\n      pop\n      jump\t// out\n        /* \"#utility.yul\":297:916   */\n    tag_16:\n        /* \"#utility.yul\":374:380   */\n      0x00\n        /* \"#utility.yul\":382:388   */\n      dup1\n        /* \"#utility.yul\":390:396   */\n      0x00\n        /* \"#utility.yul\":439:441   */\n      0x60\n        /* \"#utility.yul\":427:436   */\n      dup5\n        /* \"#utility.yul\":418:425   */\n      dup7\n        /* \"#utility.yul\":414:437   */\n      sub\n        /* \"#utility.yul\":410:442   */\n      slt\n        /* \"#utility.yul\":407:526   */\n      iszero\n      tag_74\n      jumpi\n        /* \"#utility.yul\":445:524   */\n      tag_75\n      tag_76\n      jump\t// in\n    tag_75:\n        /* \"#utility.yul\":407:526   */\n    tag_74:\n        /* \"#utility.yul\":565:566   */\n      0x00\n        /* \"#utility.yul\":590:643   */\n      tag_77\n        /* \"#utility.yul\":635:642   */\n      dup7\n        /* \"#utility.yul\":626:632   */\n      dup3\n        /* \"#utility.yul\":615:624   */\n      dup8\n        /* \"#utility.yul\":611:633   */\n      add\n        /* \"#utility.yul\":590:643   */\n      tag_65\n      jump\t// in\n    tag_77:\n        /* \"#utility.yul\":580:643   */\n      swap4\n      pop\n        /* \"#utility.yul\":536:653   */\n      pop\n        /* \"#utility.yul\":692:694   */\n      0x20\n        /* \"#utility.yul\":718:771   */\n      tag_78\n        /* \"#utility.yul\":763:770   */\n      dup7\n        /* \"#utility.yul\":754:760   */\n      dup3\n        /* \"#utility.yul\":743:752   */\n      dup8\n        /* \"#utility.yul\":739:761   */\n      add\n        /* \"#utility.yul\":718:771   */\n      tag_69\n      jump\t// in\n    tag_78:\n        /* \"#utility.yul\":708:771   */\n      swap3\n      pop\n        /* \"#utility.yul\":663:781   */\n      pop\n        /* \"#utility.yul\":820:822   */\n      0x40\n        /* \"#utility.yul\":846:899   */\n      tag_79\n        /* \"#utility.yul\":891:898   */\n      dup7\n        /* \"#utility.yul\":882:888   */\n      dup3\n        /* \"#utility.yul\":871:880   */\n      dup8\n        /* \"#utility.yul\":867:889   */\n      add\n        /* \"#utility.yul\":846:899   */\n      tag_69\n      jump\t// in\n    tag_79:\n        /* \"#utility.yul\":836:899   */\n      swap2\n      pop\n        /* \"#utility.yul\":791:909   */\n      pop\n        /* \"#utility.yul\":297:916   */\n      swap3\n      pop\n      swap3\n      pop\n      swap3\n      jump\t// out\n        /* \"#utility.yul\":922:1396   */\n    tag_23:\n        /* \"#utility.yul\":990:996   */\n      0x00\n        /* \"#utility.yul\":998:1004   */\n      dup1\n        /* \"#utility.yul\":1047:1049   */\n      0x40\n        /* \"#utility.yul\":1035:1044   */\n      dup4\n        /* \"#utility.yul\":1026:1033   */\n      dup6\n        /* \"#utility.yul\":1022:1045   */\n      sub\n        /* \"#utility.yul\":1018:1050   */\n      slt\n        /* \"#utility.yul\":1015:1134   */\n      iszero\n      tag_81\n      jumpi\n        /* \"#utility.yul\":1053:1132   */\n      tag_82\n      tag_76\n      jump\t// in\n    tag_82:\n        /* \"#utility.yul\":1015:1134   */\n    tag_81:\n        /* \"#utility.yul\":1173:1174   */\n      0x00\n        /* \"#utility.yul\":1198:1251   */\n      tag_83\n        /* \"#utility.yul\":1243:1250   */\n      dup6\n        /* \"#utility.yul\":1234:1240   */\n      dup3\n        /* \"#utility.yul\":1223:1232   */\n      dup7\n        /* \"#utility.yul\":1219:1241   */\n      add\n        /* \"#utility.yul\":1198:1251   */\n      tag_69\n      jump\t// in\n    tag_83:\n        /* \"#utility.yul\":1188:1251   */\n      swap3\n      pop\n        /* \"#utility.yul\":1144:1261   */\n      pop\n        /* \"#utility.yul\":1300:1302   */\n      0x20\n        /* \"#utility.yul\":1326:1379   */\n      tag_84\n        /* \"#utility.yul\":1371:1378   */\n      dup6\n        /* \"#utility.yul\":1362:1368   */\n      dup3\n        /* \"#utility.yul\":1351:1360   */\n      dup7\n        /* \"#utility.yul\":1347:1369   */\n      add\n        /* \"#utility.yul\":1326:1379   */\n      tag_69\n      jump\t// in\n    tag_84:\n        /* \"#utility.yul\":1316:1379   */\n      swap2\n      pop\n        /* \"#utility.yul\":1271:1389   */\n      pop\n        /* \"#utility.yul\":922:1396   */\n      swap3\n      pop\n      swap3\n      swap1\n      pop\n      jump\t// out\n        /* \"#utility.yul\":1402:1520   */\n    tag_85:\n        /* \"#utility.yul\":1489:1513   */\n      tag_87\n        /* \"#utility.yul\":1507:1512   */\n      dup2\n        /* \"#utility.yul\":1489:1513   */\n      tag_88\n      jump\t// in\n    tag_87:\n        /* \"#utility.yul\":1484:1487   */\n      dup3\n        /* \"#utility.yul\":1477:1514   */\n      mstore\n        /* \"#utility.yul\":1402:1520   */\n      pop\n      pop\n      jump\t// out\n        /* \"#utility.yul\":1526:1673   */\n    tag_89:\n        /* \"#utility.yul\":1621:1666   */\n      tag_91\n        /* \"#utility.yul\":1660:1665   */\n      dup2\n        /* \"#utility.yul\":1621:1666   */\n      tag_92\n      jump\t// in\n    tag_91:\n        /* \"#utility.yul\":1616:1619   */\n      dup3\n        /* \"#utility.yul\":1609:1667   */\n      mstore\n        /* \"#utility.yul\":1526:1673   */\n      pop\n      pop\n      jump\t// out\n        /* \"#utility.yul\":1679:1826   */\n    tag_93:\n        /* \"#utility.yul\":1774:1819   */\n      tag_95\n        /* \"#utility.yul\":1813:1818   */\n      dup2\n        /* \"#utility.yul\":1774:1819   */\n      tag_96\n      jump\t// in\n    tag_95:\n        /* \"#utility.yul\":1769:1772   */\n      dup3\n        /* \"#utility.yul\":1762:1820   */\n      mstore\n        /* \"#utility.yul\":1679:1826   */\n      pop\n      pop\n      jump\t// out\n        /* \"#utility.yul\":1832:1950   */\n    tag_97:\n        /* \"#utility.yul\":1919:1943   */\n      tag_99\n        /* \"#utility.yul\":1937:1942   */\n      dup2\n        /* \"#utility.yul\":1919:1943   */\n      tag_100\n      jump\t// in\n    tag_99:\n        /* \"#utility.yul\":1914:1917   */\n      dup3\n        /* \"#utility.yul\":1907:1944   */\n      mstore\n        /* \"#utility.yul\":1832:1950   */\n      pop\n      pop\n      jump\t// out\n        /* \"#utility.yul\":1956:2178   */\n    tag_19:\n        /* \"#utility.yul\":2049:2053   */\n      0x00\n        /* \"#utility.yul\":2087:2089   */\n      0x20\n        /* \"#utility.yul\":2076:2085   */\n      dup3\n        /* \"#utility.yul\":2072:2090   */\n      add\n        /* \"#utility.yul\":2064:2090   */\n      swap1\n      pop\n        /* \"#utility.yul\":2100:2171   */\n      tag_102\n        /* \"#utility.yul\":2168:2169   */\n      0x00\n        /* \"#utility.yul\":2157:2166   */\n      dup4\n        /* \"#utility.yul\":2153:2170   */\n      add\n        /* \"#utility.yul\":2144:2150   */\n      dup5\n        /* \"#utility.yul\":2100:2171   */\n      tag_85\n      jump\t// in\n    tag_102:\n        /* \"#utility.yul\":1956:2178   */\n      swap3\n      swap2\n      pop\n      pop\n      jump\t// out\n        /* \"#utility.yul\":2184:2548   */\n    tag_9:\n        /* \"#utility.yul\":2321:2325   */\n      0x00\n        /* \"#utility.yul\":2359:2361   */\n      0x40\n        /* \"#utility.yul\":2348:2357   */\n      dup3\n        /* \"#utility.yul\":2344:2362   */\n      add\n        /* \"#utility.yul\":2336:2362   */\n      swap1\n      pop\n        /* \"#utility.yul\":2372:2451   */\n      tag_104\n        /* \"#utility.yul\":2448:2449   */\n      0x00\n        /* \"#utility.yul\":2437:2446   */\n      dup4\n        /* \"#utility.yul\":2433:2450   */\n      add\n        /* \"#utility.yul\":2424:2430   */\n      dup6\n        /* \"#utility.yul\":2372:2451   */\n      tag_93\n      jump\t// in\n    tag_104:\n        /* \"#utility.yul\":2461:2541   */\n      tag_105\n        /* \"#utility.yul\":2537:2539   */\n      0x20\n        /* \"#utility.yul\":2526:2535   */\n      dup4\n        /* \"#utility.yul\":2522:2540   */\n      add\n        /* \"#utility.yul\":2513:2519   */\n      dup5\n        /* \"#utility.yul\":2461:2541   */\n      tag_89\n      jump\t// in\n    tag_105:\n        /* \"#utility.yul\":2184:2548   */\n      swap4\n      swap3\n      pop\n      pop\n      pop\n      jump\t// out\n        /* \"#utility.yul\":2554:2776   */\n    tag_57:\n        /* \"#utility.yul\":2647:2651   */\n      0x00\n        /* \"#utility.yul\":2685:2687   */\n      0x20\n        /* \"#utility.yul\":2674:2683   */\n      dup3\n        /* \"#utility.yul\":2670:2688   */\n      add\n        /* \"#utility.yul\":2662:2688   */\n      swap1\n      pop\n        /* \"#utility.yul\":2698:2769   */\n      tag_107\n        /* \"#utility.yul\":2766:2767   */\n      0x00\n        /* \"#utility.yul\":2755:2764   */\n      dup4\n        /* \"#utility.yul\":2751:2768   */\n      add\n        /* \"#utility.yul\":2742:2748   */\n      dup5\n        /* \"#utility.yul\":2698:2769   */\n      tag_97\n      jump\t// in\n    tag_107:\n        /* \"#utility.yul\":2554:2776   */\n      swap3\n      swap2\n      pop\n      pop\n      jump\t// out\n        /* \"#utility.yul\":2863:3054   */\n    tag_36:\n        /* \"#utility.yul\":2903:2907   */\n      0x00\n        /* \"#utility.yul\":2923:2943   */\n      tag_111\n        /* \"#utility.yul\":2941:2942   */\n      dup3\n        /* \"#utility.yul\":2923:2943   */\n      tag_100\n      jump\t// in\n    tag_111:\n        /* \"#utility.yul\":2918:2943   */\n      swap2\n      pop\n        /* \"#utility.yul\":2957:2977   */\n      tag_112\n        /* \"#utility.yul\":2975:2976   */\n      dup4\n        /* \"#utility.yul\":2957:2977   */\n      tag_100\n      jump\t// in\n    tag_112:\n        /* \"#utility.yul\":2952:2977   */\n      swap3\n      pop\n        /* \"#utility.yul\":2996:2997   */\n      dup3\n        /* \"#utility.yul\":2993:2994   */\n      dup3\n        /* \"#utility.yul\":2990:2998   */\n      lt\n        /* \"#utility.yul\":2987:3021   */\n      iszero\n      tag_113\n      jumpi\n        /* \"#utility.yul\":3001:3019   */\n      tag_114\n      tag_115\n      jump\t// in\n    tag_114:\n        /* \"#utility.yul\":2987:3021   */\n    tag_113:\n        /* \"#utility.yul\":3046:3047   */\n      dup3\n        /* \"#utility.yul\":3043:3044   */\n      dup3\n        /* \"#utility.yul\":3039:3048   */\n      sub\n        /* \"#utility.yul\":3031:3048   */\n      swap1\n      pop\n        /* \"#utility.yul\":2863:3054   */\n      swap3\n      swap2\n      pop\n      pop\n      jump\t// out\n        /* \"#utility.yul\":3060:3156   */\n    tag_88:\n        /* \"#utility.yul\":3097:3104   */\n      0x00\n        /* \"#utility.yul\":3126:3150   */\n      tag_117\n        /* \"#utility.yul\":3144:3149   */\n      dup3\n        /* \"#utility.yul\":3126:3150   */\n      tag_118\n      jump\t// in\n    tag_117:\n        /* \"#utility.yul\":3115:3150   */\n      swap1\n      pop\n        /* \"#utility.yul\":3060:3156   */\n      swap2\n      swap1\n      pop\n      jump\t// out\n        /* \"#utility.yul\":3162:3288   */\n    tag_118:\n        /* \"#utility.yul\":3199:3206   */\n      0x00\n        /* \"#utility.yul\":3239:3281   */\n      0xffffffffffffffffffffffffffffffffffffffff\n        /* \"#utility.yul\":3232:3237   */\n      dup3\n        /* \"#utility.yul\":3228:3282   */\n      and\n        /* \"#utility.yul\":3217:3282   */\n      swap1\n      pop\n        /* \"#utility.yul\":3162:3288   */\n      swap2\n      swap1\n      pop\n      jump\t// out\n        /* \"#utility.yul\":3294:3371   */\n    tag_100:\n        /* \"#utility.yul\":3331:3338   */\n      0x00\n        /* \"#utility.yul\":3360:3365   */\n      dup2\n        /* \"#utility.yul\":3349:3365   */\n      swap1\n      pop\n        /* \"#utility.yul\":3294:3371   */\n      swap2\n      swap1\n      pop\n      jump\t// out\n        /* \"#utility.yul\":3377:3498   */\n    tag_92:\n        /* \"#utility.yul\":3435:3444   */\n      0x00\n        /* \"#utility.yul\":3468:3492   */\n      tag_122\n        /* \"#utility.yul\":3486:3491   */\n      dup3\n        /* \"#utility.yul\":3468:3492   */\n      tag_100\n      jump\t// in\n    tag_122:\n        /* \"#utility.yul\":3455:3492   */\n      swap1\n      pop\n        /* \"#utility.yul\":3377:3498   */\n      swap2\n      swap1\n      pop\n      jump\t// out\n        /* \"#utility.yul\":3504:3625   */\n    tag_96:\n        /* \"#utility.yul\":3562:3571   */\n      0x00\n        /* \"#utility.yul\":3595:3619   */\n      tag_124\n        /* \"#utility.yul\":3613:3618   */\n      dup3\n        /* \"#utility.yul\":3595:3619   */\n      tag_100\n      jump\t// in\n    tag_124:\n        /* \"#utility.yul\":3582:3619   */\n      swap1\n      pop\n        /* \"#utility.yul\":3504:3625   */\n      swap2\n      swap1\n      pop\n      jump\t// out\n        /* \"#utility.yul\":3631:3864   */\n    tag_49:\n        /* \"#utility.yul\":3670:3673   */\n      0x00\n        /* \"#utility.yul\":3693:3717   */\n      tag_126\n        /* \"#utility.yul\":3711:3716   */\n      dup3\n        /* \"#utility.yul\":3693:3717   */\n      tag_100\n      jump\t// in\n    tag_126:\n        /* \"#utility.yul\":3684:3717   */\n      swap2\n      pop\n        /* \"#utility.yul\":3739:3805   */\n      0xffffffffffffffffffffffffffffffffffffffffffffffffffffffffffffffff\n        /* \"#utility.yul\":3732:3737   */\n      dup3\n        /* \"#utility.yul\":3729:3806   */\n      eq\n        /* \"#utility.yul\":3726:3829   */\n      iszero\n      tag_127\n      jumpi\n        /* \"#utility.yul\":3809:3827   */\n      tag_128\n      tag_115\n      jump\t// in\n    tag_128:\n        /* \"#utility.yul\":3726:3829   */\n    tag_127:\n        /* \"#utility.yul\":3856:3857   */\n      0x01\n        /* \"#utility.yul\":3849:3854   */\n      dup3\n        /* \"#utility.yul\":3845:3858   */\n      add\n        /* \"#utility.yul\":3838:3858   */\n      swap1\n      pop\n        /* \"#utility.yul\":3631:3864   */\n      swap2\n      swap1\n      pop\n      jump\t// out\n        /* \"#utility.yul\":3870:4050   */\n    tag_115:\n        /* \"#utility.yul\":3918:3995   */\n      0x4e487b7100000000000000000000000000000000000000000000000000000000\n        /* \"#utility.yul\":3915:3916   */\n      0x00\n        /* \"#utility.yul\":3908:3996   */\n      mstore\n        /* \"#utility.yul\":4015:4019   */\n      0x11\n        /* \"#utility.yul\":4012:4013   */\n      0x04\n        /* \"#utility.yul\":4005:4020   */\n      mstore\n        /* \"#utility.yul\":4039:4043   */\n      0x24\n        /* \"#utility.yul\":4036:4037   */\n      0x00\n        /* \"#utility.yul\":4029:4044   */\n      revert\n        /* \"#utility.yul\":4056:4236   */\n    tag_46:\n        /* \"#utility.yul\":4104:4181   */\n      0x4e487b7100000000000000000000000000000000000000000000000000000000\n        /* \"#utility.yul\":4101:4102   */\n      0x00\n        /* \"#utility.yul\":4094:4182   */\n      mstore\n        /* \"#utility.yul\":4201:4205   */\n      0x31\n        /* \"#utility.yul\":4198:4199   */\n      0x04\n        /* \"#utility.yul\":4191:4206   */\n      mstore\n        /* \"#utility.yul\":4225:4229   */\n      0x24\n        /* \"#utility.yul\":4222:4223   */\n      0x00\n        /* \"#utility.yul\":4215:4230   */\n      revert\n        /* \"#utility.yul\":4242:4422   */\n    tag_39:\n        /* \"#utility.yul\":4290:4367   */\n      0x4e487b7100000000000000000000000000000000000000000000000000000000\n        /* \"#utility.yul\":4287:4288   */\n      0x00\n        /* \"#utility.yul\":4280:4368   */\n      mstore\n        /* \"#utility.yul\":4387:4391   */\n      0x32\n        /* \"#utility.yul\":4384:4385   */\n      0x04\n        /* \"#utility.yul\":4377:4392   */\n      mstore\n        /* \"#utility.yul\":4411:4415   */\n      0x24\n        /* \"#utility.yul\":4408:4409   */\n      0x00\n        /* \"#utility.yul\":4401:4416   */\n      revert\n        /* \"#utility.yul\":4551:4668   */\n    tag_76:\n        /* \"#utility.yul\":4660:4661   */\n      0x00\n        /* \"#utility.yul\":4657:4658   */\n      dup1\n        /* \"#utility.yul\":4650:4662   */\n      revert\n        /* \"#utility.yul\":4674:4796   */\n    tag_68:\n        /* \"#utility.yul\":4747:4771   */\n      tag_136\n        /* \"#utility.yul\":4765:4770   */\n      dup2\n        /* \"#utility.yul\":4747:4771   */\n      tag_88\n      jump\t// in\n    tag_136:\n        /* \"#utility.yul\":4740:4745   */\n      dup2\n        /* \"#utility.yul\":4737:4772   */\n      eq\n        /* \"#utility.yul\":4727:4790   */\n      tag_137\n      jumpi\n        /* \"#utility.yul\":4786:4787   */\n      0x00\n        /* \"#utility.yul\":4783:4784   */\n      dup1\n        /* \"#utility.yul\":4776:4788   */\n      revert\n        /* \"#utility.yul\":4727:4790   */\n    tag_137:\n        /* \"#utility.yul\":4674:4796   */\n      pop\n      jump\t// out\n        /* \"#utility.yul\":4802:4924   */\n    tag_72:\n        /* \"#utility.yul\":4875:4899   */\n      tag_139\n        /* \"#utility.yul\":4893:4898   */\n      dup2\n        /* \"#utility.yul\":4875:4899   */\n      tag_100\n      jump\t// in\n    tag_139:\n        /* \"#utility.yul\":4868:4873   */\n      dup2\n        /* \"#utility.yul\":4865:4900   */\n      eq\n        /* \"#utility.yul\":4855:4918   */\n      tag_140\n      jumpi\n        /* \"#utility.yul\":4914:4915   */\n      0x00\n        /* \"#utility.yul\":4911:4912   */\n      dup1\n        /* \"#utility.yul\":4904:4916   */\n      revert\n        /* \"#utility.yul\":4855:4918   */\n    tag_140:\n        /* \"#utility.yul\":4802:4924   */\n      pop\n      jump\t// out\n\n    auxdata: 0xa26469706673582212203c5f05efcb5251e1da6c1dcf03f66cef459a21e1284dca43f1b598cadf8f2ffa64736f6c63430008070033\n}\n\nsub_1: assembly {\n        /* \"xens/xenMinimalProxyGet.sol\":477:883  contract GET{... */\n      mstore(0x40, 0x80)\n      callvalue\n      dup1\n      iszero\n      tag_1\n      jumpi\n      0x00\n      dup1\n      revert\n    tag_1:\n      pop\n      dataSize(sub_0)\n      dup1\n      dataOffset(sub_0)\n      0x00\n      codecopy\n      0x00\n      return\n    stop\n\n    sub_0: assembly {\n            /* \"xens/xenMinimalProxyGet.sol\":477:883  contract GET{... */\n          mstore(0x40, 0x80)\n          callvalue\n          dup1\n          iszero\n          tag_1\n          jumpi\n          0x00\n          dup1\n          revert\n        tag_1:\n          pop\n          jumpi(tag_2, lt(calldatasize, 0x04))\n          shr(0xe0, calldataload(0x00))\n          dup1\n          0x52c7f8dc\n          eq\n          tag_3\n          jumpi\n          dup1\n          0x9ff054df\n          eq\n          tag_4\n          jumpi\n        tag_2:\n          0x00\n          dup1\n          revert\n            /* \"xens/xenMinimalProxyGet.sol\":629:881  function claimMintReward() public {... */\n        tag_3:\n          tag_5\n          tag_6\n          jump\t// in\n        tag_5:\n          stop\n            /* \"xens/xenMinimalProxyGet.sol\":514:619  function claimRank(uint256 term) public {... */\n        tag_4:\n          tag_7\n          0x04\n          dup1\n          calldatasize\n          sub\n          dup2\n          add\n          swap1\n          tag_8\n          swap2\n          swap1\n          tag_9\n          jump\t// in\n        tag_8:\n          tag_10\n          jump\t// in\n        tag_7:\n          stop\n            /* \"xens/xenMinimalProxyGet.sol\":629:881  function claimMintReward() public {... */\n        tag_6:\n            /* \"xens/xenMinimalProxyGet.sol\":695:700  owner */\n          0x00\n          dup1\n          sload\n          swap1\n          0x0100\n          exp\n          swap1\n          div\n          0xffffffffffffffffffffffffffffffffffffffff\n          and\n            /* \"xens/xenMinimalProxyGet.sol\":681:700  msg.sender == owner */\n          0xffffffffffffffffffffffffffffffffffffffff\n          and\n            /* \"xens/xenMinimalProxyGet.sol\":681:691  msg.sender */\n          caller\n            /* \"xens/xenMinimalProxyGet.sol\":681:700  msg.sender == owner */\n          0xffffffffffffffffffffffffffffffffffffffff\n          and\n          eq\n            /* \"xens/xenMinimalProxyGet.sol\":673:701  require(msg.sender == owner) */\n          tag_12\n          jumpi\n          0x00\n          dup1\n          revert\n        tag_12:\n            /* \"xens/xenMinimalProxyGet.sol\":711:716  xen() */\n          tag_13\n            /* \"xens/xenMinimalProxyGet.sol\":711:714  xen */\n          tag_14\n            /* \"xens/xenMinimalProxyGet.sol\":711:716  xen() */\n          jump\t// in\n        tag_13:\n            /* \"xens/xenMinimalProxyGet.sol\":711:732  xen().claimMintReward */\n          0xffffffffffffffffffffffffffffffffffffffff\n          and\n          0x52c7f8dc\n            /* \"xens/xenMinimalProxyGet.sol\":711:734  xen().claimMintReward() */\n          mload(0x40)\n          dup2\n          0xffffffff\n          and\n          0xe0\n          shl\n          dup2\n          mstore\n          0x04\n          add\n          0x00\n          mload(0x40)\n          dup1\n          dup4\n          sub\n          dup2\n          0x00\n          dup8\n          dup1\n          extcodesize\n          iszero\n          dup1\n          iszero\n          tag_15\n          jumpi\n          0x00\n          dup1\n          revert\n        tag_15:\n          pop\n          gas\n          call\n          iszero\n          dup1\n          iszero\n          tag_17\n          jumpi\n          returndatasize\n          0x00\n          dup1\n          returndatacopy\n          revert(0x00, returndatasize)\n        tag_17:\n          pop\n          pop\n          pop\n          pop\n            /* \"xens/xenMinimalProxyGet.sol\":744:759  uint256 balance */\n          0x00\n            /* \"xens/xenMinimalProxyGet.sol\":762:767  xen() */\n          tag_18\n            /* \"xens/xenMinimalProxyGet.sol\":762:765  xen */\n          tag_14\n            /* \"xens/xenMinimalProxyGet.sol\":762:767  xen() */\n          jump\t// in\n        tag_18:\n            /* \"xens/xenMinimalProxyGet.sol\":762:777  xen().balanceOf */\n          0xffffffffffffffffffffffffffffffffffffffff\n          and\n          0x70a08231\n            /* \"xens/xenMinimalProxyGet.sol\":786:790  this */\n          address\n            /* \"xens/xenMinimalProxyGet.sol\":762:792  xen().balanceOf(address(this)) */\n          mload(0x40)\n          dup3\n          0xffffffff\n          and\n          0xe0\n          shl\n          dup2\n          mstore\n          0x04\n          add\n          tag_19\n          swap2\n          swap1\n          tag_20\n          jump\t// in\n        tag_19:\n          0x20\n          mload(0x40)\n          dup1\n          dup4\n          sub\n          dup2\n          dup7\n          dup1\n          extcodesize\n          iszero\n          dup1\n          iszero\n          tag_21\n          jumpi\n          0x00\n          dup1\n          revert\n        tag_21:\n          pop\n          gas\n          staticcall\n          iszero\n          dup1\n          iszero\n          tag_23\n          jumpi\n          returndatasize\n          0x00\n          dup1\n          returndatacopy\n          revert(0x00, returndatasize)\n        tag_23:\n          pop\n          pop\n          pop\n          pop\n          mload(0x40)\n          returndatasize\n          not(0x1f)\n          0x1f\n          dup3\n          add\n          and\n          dup3\n          add\n          dup1\n          0x40\n          mstore\n          pop\n          dup2\n          add\n          swap1\n          tag_24\n          swap2\n          swap1\n          tag_25\n          jump\t// in\n        tag_24:\n            /* \"xens/xenMinimalProxyGet.sol\":744:792  uint256 balance = xen().balanceOf(address(this)) */\n          swap1\n          pop\n            /* \"xens/xenMinimalProxyGet.sol\":802:807  xen() */\n          tag_26\n            /* \"xens/xenMinimalProxyGet.sol\":802:805  xen */\n          tag_14\n            /* \"xens/xenMinimalProxyGet.sol\":802:807  xen() */\n          jump\t// in\n        tag_26:\n            /* \"xens/xenMinimalProxyGet.sol\":802:816  xen().transfer */\n          0xffffffffffffffffffffffffffffffffffffffff\n          and\n          0xa9059cbb\n            /* \"xens/xenMinimalProxyGet.sol\":817:822  owner */\n          0x00\n          dup1\n          sload\n          swap1\n          0x0100\n          exp\n          swap1\n          div\n          0xffffffffffffffffffffffffffffffffffffffff\n          and\n            /* \"xens/xenMinimalProxyGet.sol\":824:831  balance */\n          dup4\n            /* \"xens/xenMinimalProxyGet.sol\":802:832  xen().transfer(owner, balance) */\n          mload(0x40)\n          dup4\n          0xffffffff\n          and\n          0xe0\n          shl\n          dup2\n          mstore\n          0x04\n          add\n          tag_27\n          swap3\n          swap2\n          swap1\n          tag_28\n          jump\t// in\n        tag_27:\n          0x20\n          mload(0x40)\n          dup1\n          dup4\n          sub\n          dup2\n          0x00\n          dup8\n          dup1\n          extcodesize\n          iszero\n          dup1\n          iszero\n          tag_29\n          jumpi\n          0x00\n          dup1\n          revert\n        tag_29:\n          pop\n          gas\n          call\n          iszero\n          dup1\n          iszero\n          tag_31\n          jumpi\n          returndatasize\n          0x00\n          dup1\n          returndatacopy\n          revert(0x00, returndatasize)\n        tag_31:\n          pop\n          pop\n          pop\n          pop\n          mload(0x40)\n          returndatasize\n          not(0x1f)\n          0x1f\n          dup3\n          add\n          and\n          dup3\n          add\n          dup1\n          0x40\n          mstore\n          pop\n          dup2\n          add\n          swap1\n          tag_32\n          swap2\n          swap1\n          tag_33\n          jump\t// in\n        tag_32:\n          pop\n            /* \"xens/xenMinimalProxyGet.sol\":863:872  tx.origin */\n          origin\n            /* \"xens/xenMinimalProxyGet.sol\":842:874  selfdestruct(payable(tx.origin)) */\n          0xffffffffffffffffffffffffffffffffffffffff\n          and\n          selfdestruct\n            /* \"xens/xenMinimalProxyGet.sol\":514:619  function claimRank(uint256 term) public {... */\n        tag_10:\n            /* \"xens/xenMinimalProxyGet.sol\":564:569  xen() */\n          tag_35\n            /* \"xens/xenMinimalProxyGet.sol\":564:567  xen */\n          tag_14\n            /* \"xens/xenMinimalProxyGet.sol\":564:569  xen() */\n          jump\t// in\n        tag_35:\n            /* \"xens/xenMinimalProxyGet.sol\":564:579  xen().claimRank */\n          0xffffffffffffffffffffffffffffffffffffffff\n          and\n          0x9ff054df\n            /* \"xens/xenMinimalProxyGet.sol\":580:584  term */\n          dup3\n            /* \"xens/xenMinimalProxyGet.sol\":564:585  xen().claimRank(term) */\n          mload(0x40)\n          dup3\n          0xffffffff\n          and\n          0xe0\n          shl\n          dup2\n          mstore\n          0x04\n          add\n          tag_36\n          swap2\n          swap1\n          tag_37\n          jump\t// in\n        tag_36:\n          0x00\n          mload(0x40)\n          dup1\n          dup4\n          sub\n          dup2\n          0x00\n          dup8\n          dup1\n          extcodesize\n          iszero\n          dup1\n          iszero\n          tag_38\n          jumpi\n          0x00\n          dup1\n          revert\n        tag_38:\n          pop\n          gas\n          call\n          iszero\n          dup1\n          iszero\n          tag_40\n          jumpi\n          returndatasize\n          0x00\n          dup1\n          returndatacopy\n          revert(0x00, returndatasize)\n        tag_40:\n          pop\n          pop\n          pop\n          pop\n            /* \"xens/xenMinimalProxyGet.sol\":603:612  tx.origin */\n          origin\n            /* \"xens/xenMinimalProxyGet.sol\":595:600  owner */\n          0x00\n          dup1\n            /* \"xens/xenMinimalProxyGet.sol\":595:612  owner = tx.origin */\n          0x0100\n          exp\n          dup2\n          sload\n          dup2\n          0xffffffffffffffffffffffffffffffffffffffff\n          mul\n          not\n          and\n          swap1\n          dup4\n          0xffffffffffffffffffffffffffffffffffffffff\n          and\n          mul\n          or\n          swap1\n          sstore\n          pop\n            /* \"xens/xenMinimalProxyGet.sol\":514:619  function claimRank(uint256 term) public {... */\n          pop\n          jump\t// out\n            /* \"xens/xenMinimalProxyGet.sol\":57:219  function xen() pure returns(IXEN) {... */\n        tag_14:\n            /* \"xens/xenMinimalProxyGet.sol\":85:89  IXEN */\n          0x00\n            /* \"xens/xenMinimalProxyGet.sol\":109:151  0x9C47A6c4814CC8D70d459C02F4684F8A9D538A95 */\n          0x9c47a6c4814cc8d70d459c02f4684f8a9d538a95\n            /* \"xens/xenMinimalProxyGet.sol\":97:152  return IXEN(0x9C47A6c4814CC8D70d459C02F4684F8A9D538A95) */\n          swap1\n          pop\n            /* \"xens/xenMinimalProxyGet.sol\":57:219  function xen() pure returns(IXEN) {... */\n          swap1\n          jump\t// out\n            /* \"#utility.yul\":7:144   */\n        tag_43:\n            /* \"#utility.yul\":61:66   */\n          0x00\n            /* \"#utility.yul\":92:98   */\n          dup2\n            /* \"#utility.yul\":86:99   */\n          mload\n            /* \"#utility.yul\":77:99   */\n          swap1\n          pop\n            /* \"#utility.yul\":108:138   */\n          tag_45\n            /* \"#utility.yul\":132:137   */\n          dup2\n            /* \"#utility.yul\":108:138   */\n          tag_46\n          jump\t// in\n        tag_45:\n            /* \"#utility.yul\":7:144   */\n          swap3\n          swap2\n          pop\n          pop\n          jump\t// out\n            /* \"#utility.yul\":150:289   */\n        tag_47:\n            /* \"#utility.yul\":196:201   */\n          0x00\n            /* \"#utility.yul\":234:240   */\n          dup2\n            /* \"#utility.yul\":221:241   */\n          calldataload\n            /* \"#utility.yul\":212:241   */\n          swap1\n          pop\n            /* \"#utility.yul\":250:283   */\n          tag_49\n            /* \"#utility.yul\":277:282   */\n          dup2\n            /* \"#utility.yul\":250:283   */\n          tag_50\n          jump\t// in\n        tag_49:\n            /* \"#utility.yul\":150:289   */\n          swap3\n          swap2\n          pop\n          pop\n          jump\t// out\n            /* \"#utility.yul\":295:438   */\n        tag_51:\n            /* \"#utility.yul\":352:357   */\n          0x00\n            /* \"#utility.yul\":383:389   */\n          dup2\n            /* \"#utility.yul\":377:390   */\n          mload\n            /* \"#utility.yul\":368:390   */\n          swap1\n          pop\n            /* \"#utility.yul\":399:432   */\n          tag_53\n            /* \"#utility.yul\":426:431   */\n          dup2\n            /* \"#utility.yul\":399:432   */\n          tag_50\n          jump\t// in\n        tag_53:\n            /* \"#utility.yul\":295:438   */\n          swap3\n          swap2\n          pop\n          pop\n          jump\t// out\n            /* \"#utility.yul\":444:789   */\n        tag_33:\n            /* \"#utility.yul\":511:517   */\n          0x00\n            /* \"#utility.yul\":560:562   */\n          0x20\n            /* \"#utility.yul\":548:557   */\n          dup3\n            /* \"#utility.yul\":539:546   */\n          dup5\n            /* \"#utility.yul\":535:558   */\n          sub\n            /* \"#utility.yul\":531:563   */\n          slt\n            /* \"#utility.yul\":528:647   */\n          iszero\n          tag_55\n          jumpi\n            /* \"#utility.yul\":566:645   */\n          tag_56\n          tag_57\n          jump\t// in\n        tag_56:\n            /* \"#utility.yul\":528:647   */\n        tag_55:\n            /* \"#utility.yul\":686:687   */\n          0x00\n            /* \"#utility.yul\":711:772   */\n          tag_58\n            /* \"#utility.yul\":764:771   */\n          dup5\n            /* \"#utility.yul\":755:761   */\n          dup3\n            /* \"#utility.yul\":744:753   */\n          dup6\n            /* \"#utility.yul\":740:762   */\n          add\n            /* \"#utility.yul\":711:772   */\n          tag_43\n          jump\t// in\n        tag_58:\n            /* \"#utility.yul\":701:772   */\n          swap2\n          pop\n            /* \"#utility.yul\":657:782   */\n          pop\n            /* \"#utility.yul\":444:789   */\n          swap3\n          swap2\n          pop\n          pop\n          jump\t// out\n            /* \"#utility.yul\":795:1124   */\n        tag_9:\n            /* \"#utility.yul\":854:860   */\n          0x00\n            /* \"#utility.yul\":903:905   */\n          0x20\n            /* \"#utility.yul\":891:900   */\n          dup3\n            /* \"#utility.yul\":882:889   */\n          dup5\n            /* \"#utility.yul\":878:901   */\n          sub\n            /* \"#utility.yul\":874:906   */\n          slt\n            /* \"#utility.yul\":871:990   */\n          iszero\n          tag_60\n          jumpi\n            /* \"#utility.yul\":909:988   */\n          tag_61\n          tag_57\n          jump\t// in\n        tag_61:\n            /* \"#utility.yul\":871:990   */\n        tag_60:\n            /* \"#utility.yul\":1029:1030   */\n          0x00\n            /* \"#utility.yul\":1054:1107   */\n          tag_62\n            /* \"#utility.yul\":1099:1106   */\n          dup5\n            /* \"#utility.yul\":1090:1096   */\n          dup3\n            /* \"#utility.yul\":1079:1088   */\n          dup6\n            /* \"#utility.yul\":1075:1097   */\n          add\n            /* \"#utility.yul\":1054:1107   */\n          tag_47\n          jump\t// in\n        tag_62:\n            /* \"#utility.yul\":1044:1107   */\n          swap2\n          pop\n            /* \"#utility.yul\":1000:1117   */\n          pop\n            /* \"#utility.yul\":795:1124   */\n          swap3\n          swap2\n          pop\n          pop\n          jump\t// out\n            /* \"#utility.yul\":1130:1481   */\n        tag_25:\n            /* \"#utility.yul\":1200:1206   */\n          0x00\n            /* \"#utility.yul\":1249:1251   */\n          0x20\n            /* \"#utility.yul\":1237:1246   */\n          dup3\n            /* \"#utility.yul\":1228:1235   */\n          dup5\n            /* \"#utility.yul\":1224:1247   */\n          sub\n            /* \"#utility.yul\":1220:1252   */\n          slt\n            /* \"#utility.yul\":1217:1336   */\n          iszero\n          tag_64\n          jumpi\n            /* \"#utility.yul\":1255:1334   */\n          tag_65\n          tag_57\n          jump\t// in\n        tag_65:\n            /* \"#utility.yul\":1217:1336   */\n        tag_64:\n            /* \"#utility.yul\":1375:1376   */\n          0x00\n            /* \"#utility.yul\":1400:1464   */\n          tag_66\n            /* \"#utility.yul\":1456:1463   */\n          dup5\n            /* \"#utility.yul\":1447:1453   */\n          dup3\n            /* \"#utility.yul\":1436:1445   */\n          dup6\n            /* \"#utility.yul\":1432:1454   */\n          add\n            /* \"#utility.yul\":1400:1464   */\n          tag_51\n          jump\t// in\n        tag_66:\n            /* \"#utility.yul\":1390:1464   */\n          swap2\n          pop\n            /* \"#utility.yul\":1346:1474   */\n          pop\n            /* \"#utility.yul\":1130:1481   */\n          swap3\n          swap2\n          pop\n          pop\n          jump\t// out\n            /* \"#utility.yul\":1487:1605   */\n        tag_67:\n            /* \"#utility.yul\":1574:1598   */\n          tag_69\n            /* \"#utility.yul\":1592:1597   */\n          dup2\n            /* \"#utility.yul\":1574:1598   */\n          tag_70\n          jump\t// in\n        tag_69:\n            /* \"#utility.yul\":1569:1572   */\n          dup3\n            /* \"#utility.yul\":1562:1599   */\n          mstore\n            /* \"#utility.yul\":1487:1605   */\n          pop\n          pop\n          jump\t// out\n            /* \"#utility.yul\":1611:1729   */\n        tag_71:\n            /* \"#utility.yul\":1698:1722   */\n          tag_73\n            /* \"#utility.yul\":1716:1721   */\n          dup2\n            /* \"#utility.yul\":1698:1722   */\n          tag_74\n          jump\t// in\n        tag_73:\n            /* \"#utility.yul\":1693:1696   */\n          dup3\n            /* \"#utility.yul\":1686:1723   */\n          mstore\n            /* \"#utility.yul\":1611:1729   */\n          pop\n          pop\n          jump\t// out\n            /* \"#utility.yul\":1735:1957   */\n        tag_20:\n            /* \"#utility.yul\":1828:1832   */\n          0x00\n            /* \"#utility.yul\":1866:1868   */\n          0x20\n            /* \"#utility.yul\":1855:1864   */\n          dup3\n            /* \"#utility.yul\":1851:1869   */\n          add\n            /* \"#utility.yul\":1843:1869   */\n          swap1\n          pop\n            /* \"#utility.yul\":1879:1950   */\n          tag_76\n            /* \"#utility.yul\":1947:1948   */\n          0x00\n            /* \"#utility.yul\":1936:1945   */\n          dup4\n            /* \"#utility.yul\":1932:1949   */\n          add\n            /* \"#utility.yul\":1923:1929   */\n          dup5\n            /* \"#utility.yul\":1879:1950   */\n          tag_67\n          jump\t// in\n        tag_76:\n            /* \"#utility.yul\":1735:1957   */\n          swap3\n          swap2\n          pop\n          pop\n          jump\t// out\n            /* \"#utility.yul\":1963:2295   */\n        tag_28:\n            /* \"#utility.yul\":2084:2088   */\n          0x00\n            /* \"#utility.yul\":2122:2124   */\n          0x40\n            /* \"#utility.yul\":2111:2120   */\n          dup3\n            /* \"#utility.yul\":2107:2125   */\n          add\n            /* \"#utility.yul\":2099:2125   */\n          swap1\n          pop\n            /* \"#utility.yul\":2135:2206   */\n          tag_78\n            /* \"#utility.yul\":2203:2204   */\n          0x00\n            /* \"#utility.yul\":2192:2201   */\n          dup4\n            /* \"#utility.yul\":2188:2205   */\n          add\n            /* \"#utility.yul\":2179:2185   */\n          dup6\n            /* \"#utility.yul\":2135:2206   */\n          tag_67\n          jump\t// in\n        tag_78:\n            /* \"#utility.yul\":2216:2288   */\n          tag_79\n            /* \"#utility.yul\":2284:2286   */\n          0x20\n            /* \"#utility.yul\":2273:2282   */\n          dup4\n            /* \"#utility.yul\":2269:2287   */\n          add\n            /* \"#utility.yul\":2260:2266   */\n          dup5\n            /* \"#utility.yul\":2216:2288   */\n          tag_71\n          jump\t// in\n        tag_79:\n            /* \"#utility.yul\":1963:2295   */\n          swap4\n          swap3\n          pop\n          pop\n          pop\n          jump\t// out\n            /* \"#utility.yul\":2301:2523   */\n        tag_37:\n            /* \"#utility.yul\":2394:2398   */\n          0x00\n            /* \"#utility.yul\":2432:2434   */\n          0x20\n            /* \"#utility.yul\":2421:2430   */\n          dup3\n            /* \"#utility.yul\":2417:2435   */\n          add\n            /* \"#utility.yul\":2409:2435   */\n          swap1\n          pop\n            /* \"#utility.yul\":2445:2516   */\n          tag_81\n            /* \"#utility.yul\":2513:2514   */\n          0x00\n            /* \"#utility.yul\":2502:2511   */\n          dup4\n            /* \"#utility.yul\":2498:2515   */\n          add\n            /* \"#utility.yul\":2489:2495   */\n          dup5\n            /* \"#utility.yul\":2445:2516   */\n          tag_71\n          jump\t// in\n        tag_81:\n            /* \"#utility.yul\":2301:2523   */\n          swap3\n          swap2\n          pop\n          pop\n          jump\t// out\n            /* \"#utility.yul\":2610:2706   */\n        tag_70:\n            /* \"#utility.yul\":2647:2654   */\n          0x00\n            /* \"#utility.yul\":2676:2700   */\n          tag_85\n            /* \"#utility.yul\":2694:2699   */\n          dup3\n            /* \"#utility.yul\":2676:2700   */\n          tag_86\n          jump\t// in\n        tag_85:\n            /* \"#utility.yul\":2665:2700   */\n          swap1\n          pop\n            /* \"#utility.yul\":2610:2706   */\n          swap2\n          swap1\n          pop\n          jump\t// out\n            /* \"#utility.yul\":2712:2802   */\n        tag_87:\n            /* \"#utility.yul\":2746:2753   */\n          0x00\n            /* \"#utility.yul\":2789:2794   */\n          dup2\n            /* \"#utility.yul\":2782:2795   */\n          iszero\n            /* \"#utility.yul\":2775:2796   */\n          iszero\n            /* \"#utility.yul\":2764:2796   */\n          swap1\n          pop\n            /* \"#utility.yul\":2712:2802   */\n          swap2\n          swap1\n          pop\n          jump\t// out\n            /* \"#utility.yul\":2808:2934   */\n        tag_86:\n            /* \"#utility.yul\":2845:2852   */\n          0x00\n            /* \"#utility.yul\":2885:2927   */\n          0xffffffffffffffffffffffffffffffffffffffff\n            /* \"#utility.yul\":2878:2883   */\n          dup3\n            /* \"#utility.yul\":2874:2928   */\n          and\n            /* \"#utility.yul\":2863:2928   */\n          swap1\n          pop\n            /* \"#utility.yul\":2808:2934   */\n          swap2\n          swap1\n          pop\n          jump\t// out\n            /* \"#utility.yul\":2940:3017   */\n        tag_74:\n            /* \"#utility.yul\":2977:2984   */\n          0x00\n            /* \"#utility.yul\":3006:3011   */\n          dup2\n            /* \"#utility.yul\":2995:3011   */\n          swap1\n          pop\n            /* \"#utility.yul\":2940:3017   */\n          swap2\n          swap1\n          pop\n          jump\t// out\n            /* \"#utility.yul\":3146:3263   */\n        tag_57:\n            /* \"#utility.yul\":3255:3256   */\n          0x00\n            /* \"#utility.yul\":3252:3253   */\n          dup1\n            /* \"#utility.yul\":3245:3257   */\n          revert\n            /* \"#utility.yul\":3269:3385   */\n        tag_46:\n            /* \"#utility.yul\":3339:3360   */\n          tag_95\n            /* \"#utility.yul\":3354:3359   */\n          dup2\n            /* \"#utility.yul\":3339:3360   */\n          tag_87\n          jump\t// in\n        tag_95:\n            /* \"#utility.yul\":3332:3337   */\n          dup2\n            /* \"#utility.yul\":3329:3361   */\n          eq\n            /* \"#utility.yul\":3319:3379   */\n          tag_96\n          jumpi\n            /* \"#utility.yul\":3375:3376   */\n          0x00\n            /* \"#utility.yul\":3372:3373   */\n          dup1\n            /* \"#utility.yul\":3365:3377   */\n          revert\n            /* \"#utility.yul\":3319:3379   */\n        tag_96:\n            /* \"#utility.yul\":3269:3385   */\n          pop\n          jump\t// out\n            /* \"#utility.yul\":3391:3513   */\n        tag_50:\n            /* \"#utility.yul\":3464:3488   */\n          tag_98\n            /* \"#utility.yul\":3482:3487   */\n          dup2\n            /* \"#utility.yul\":3464:3488   */\n          tag_74\n          jump\t// in\n        tag_98:\n            /* \"#utility.yul\":3457:3462   */\n          dup2\n            /* \"#utility.yul\":3454:3489   */\n          eq\n            /* \"#utility.yul\":3444:3507   */\n          tag_99\n          jumpi\n            /* \"#utility.yul\":3503:3504   */\n          0x00\n            /* \"#utility.yul\":3500:3501   */\n          dup1\n            /* \"#utility.yul\":3493:3505   */\n          revert\n            /* \"#utility.yul\":3444:3507   */\n        tag_99:\n            /* \"#utility.yul\":3391:3513   */\n          pop\n          jump\t// out\n\n        auxdata: 0xa264697066735822122060116058dc3a27b1968dd9b34fb95a43bcaeb80f165524b37eb70b1fbc10e04764736f6c63430008070033\n    }\n}\n",
				"bytecode": {
					"linkReferences": {},
					"object": "60a060405234801561001057600080fd5b5060405161001d90610075565b604051809103906000f080158015610039573d6000803e3d6000fd5b5073ffffffffffffffffffffffffffffffffffffffff1660808173ffffffffffffffffffffffffffffffffffffffff1660601b81525050610082565b6105678061095283390190565b60805160601c6108b26100a060003960006103c401526108b26000f3fe6080604052600436106100385760003560e01c8063550e4934146100b3578063a2f40a5a146100f0578063f3efc26014610119576100ae565b366100ae573073ffffffffffffffffffffffffffffffffffffffff1663f3efc260600560016040518363ffffffff1660e01b815260040161007a92919061069b565b600060405180830381600087803b15801561009457600080fd5b505af11580156100a8573d6000803e3d6000fd5b50505050005b600080fd5b3480156100bf57600080fd5b506100da60048036038101906100d591906105b1565b610142565b6040516100e79190610680565b60405180910390f35b3480156100fc57600080fd5b5061011760048036038101906101129190610604565b61019d565b005b34801561012557600080fd5b50610140600480360381019061013b9190610604565b6103ad565b005b6000602052826000526040600020602052816000526040600020818154811061016a57600080fd5b90600052602060002001600092509250509054906101000a900473ffffffffffffffffffffffffffffffffffffffff1681565b600032905060005b838110156103a75760008060008473ffffffffffffffffffffffffffffffffffffffff1673ffffffffffffffffffffffffffffffffffffffff168152602001908152602001600020600085815260200190815260200160002080549050905060008060008573ffffffffffffffffffffffffffffffffffffffff1673ffffffffffffffffffffffffffffffffffffffff168152602001908152602001600020600086815260200190815260200160002060018361026291906106df565b815481106102735761027261081a565b5b9060005260206000200160009054906101000a900473ffffffffffffffffffffffffffffffffffffffff1690508073ffffffffffffffffffffffffffffffffffffffff166352c7f8dc6040518163ffffffff1660e01b8152600401600060405180830381600087803b1580156102e857600080fd5b505af11580156102fc573d6000803e3d6000fd5b505050506000808573ffffffffffffffffffffffffffffffffffffffff1673ffffffffffffffffffffffffffffffffffffffff168152602001908152602001600020600086815260200190815260200160002080548061035f5761035e6107eb565b5b6001900381819060005260206000200160006101000a81549073ffffffffffffffffffffffffffffffffffffffff021916905590555050806103a090610773565b90506101a5565b50505050565b600032905060005b838110156105175760006103e87f000000000000000000000000000000000000000000000000000000000000000061051d565b90508073ffffffffffffffffffffffffffffffffffffffff16639ff054df856040518263ffffffff1660e01b815260040161042391906106c4565b600060405180830381600087803b15801561043d57600080fd5b505af1158015610451573d6000803e3d6000fd5b505050506000808473ffffffffffffffffffffffffffffffffffffffff1673ffffffffffffffffffffffffffffffffffffffff1681526020019081526020016000206000858152602001908152602001600020819080600181540180825580915050600190039060005260206000200160009091909190916101000a81548173ffffffffffffffffffffffffffffffffffffffff021916908373ffffffffffffffffffffffffffffffffffffffff160217905550508061051090610773565b90506103b5565b50505050565b6000808260601b90506040517f3d602d80600a3d3981f3363d3d373d3d3d363d7300000000000000000000000081528160148201527f5af43d82803e903d91602b57fd5bf3000000000000000000000000000000000060288201526037816000f092505050919050565b6000813590506105968161084e565b92915050565b6000813590506105ab81610865565b92915050565b6000806000606084860312156105ca576105c9610849565b5b60006105d886828701610587565b93505060206105e98682870161059c565b92505060406105fa8682870161059c565b9150509250925092565b6000806040838503121561061b5761061a610849565b5b60006106298582860161059c565b925050602061063a8582860161059c565b9150509250929050565b61064d81610713565b82525050565b61065c8161074f565b82525050565b61066b81610761565b82525050565b61067a81610745565b82525050565b60006020820190506106956000830184610644565b92915050565b60006040820190506106b06000830185610662565b6106bd6020830184610653565b9392505050565b60006020820190506106d96000830184610671565b92915050565b60006106ea82610745565b91506106f583610745565b925082821015610708576107076107bc565b5b828203905092915050565b600061071e82610725565b9050919050565b600073ffffffffffffffffffffffffffffffffffffffff82169050919050565b6000819050919050565b600061075a82610745565b9050919050565b600061076c82610745565b9050919050565b600061077e82610745565b91507fffffffffffffffffffffffffffffffffffffffffffffffffffffffffffffffff8214156107b1576107b06107bc565b5b600182019050919050565b7f4e487b7100000000000000000000000000000000000000000000000000000000600052601160045260246000fd5b7f4e487b7100000000000000000000000000000000000000000000000000000000600052603160045260246000fd5b7f4e487b7100000000000000000000000000000000000000000000000000000000600052603260045260246000fd5b600080fd5b61085781610713565b811461086257600080fd5b50565b61086e81610745565b811461087957600080fd5b5056fea26469706673582212203c5f05efcb5251e1da6c1dcf03f66cef459a21e1284dca43f1b598cadf8f2ffa64736f6c63430008070033608060405234801561001057600080fd5b50610547806100206000396000f3fe608060405234801561001057600080fd5b50600436106100365760003560e01c806352c7f8dc1461003b5780639ff054df14610045575b600080fd5b610043610061565b005b61005f600480360381019061005a91906103bf565b610282565b005b60008054906101000a900473ffffffffffffffffffffffffffffffffffffffff1673ffffffffffffffffffffffffffffffffffffffff163373ffffffffffffffffffffffffffffffffffffffff16146100b957600080fd5b6100c1610337565b73ffffffffffffffffffffffffffffffffffffffff166352c7f8dc6040518163ffffffff1660e01b8152600401600060405180830381600087803b15801561010857600080fd5b505af115801561011c573d6000803e3d6000fd5b50505050600061012a610337565b73ffffffffffffffffffffffffffffffffffffffff166370a08231306040518263ffffffff1660e01b81526004016101629190610437565b60206040518083038186803b15801561017a57600080fd5b505afa15801561018e573d6000803e3d6000fd5b505050506040513d601f19601f820116820180604052508101906101b291906103ec565b90506101bc610337565b73ffffffffffffffffffffffffffffffffffffffff1663a9059cbb60008054906101000a900473ffffffffffffffffffffffffffffffffffffffff16836040518363ffffffff1660e01b8152600401610216929190610452565b602060405180830381600087803b15801561023057600080fd5b505af1158015610244573d6000803e3d6000fd5b505050506040513d601f19601f820116820180604052508101906102689190610392565b503273ffffffffffffffffffffffffffffffffffffffff16ff5b61028a610337565b73ffffffffffffffffffffffffffffffffffffffff16639ff054df826040518263ffffffff1660e01b81526004016102c2919061047b565b600060405180830381600087803b1580156102dc57600080fd5b505af11580156102f0573d6000803e3d6000fd5b50505050326000806101000a81548173ffffffffffffffffffffffffffffffffffffffff021916908373ffffffffffffffffffffffffffffffffffffffff16021790555050565b6000739c47a6c4814cc8d70d459c02f4684f8a9d538a95905090565b600081519050610362816104e3565b92915050565b600081359050610377816104fa565b92915050565b60008151905061038c816104fa565b92915050565b6000602082840312156103a8576103a76104de565b5b60006103b684828501610353565b91505092915050565b6000602082840312156103d5576103d46104de565b5b60006103e384828501610368565b91505092915050565b600060208284031215610402576104016104de565b5b60006104108482850161037d565b91505092915050565b61042281610496565b82525050565b610431816104d4565b82525050565b600060208201905061044c6000830184610419565b92915050565b60006040820190506104676000830185610419565b6104746020830184610428565b9392505050565b60006020820190506104906000830184610428565b92915050565b60006104a1826104b4565b9050919050565b60008115159050919050565b600073ffffffffffffffffffffffffffffffffffffffff82169050919050565b6000819050919050565b600080fd5b6104ec816104a8565b81146104f757600080fd5b50565b610503816104d4565b811461050e57600080fd5b5056fea264697066735822122060116058dc3a27b1968dd9b34fb95a43bcaeb80f165524b37eb70b1fbc10e04764736f6c63430008070033",
					"opcodes": "PUSH1 0xA0 PUSH1 0x40 MSTORE CALLVALUE DUP1 ISZERO PUSH2 0x10 JUMPI PUSH1 0x0 DUP1 REVERT JUMPDEST POP PUSH1 0x40 MLOAD PUSH2 0x1D SWAP1 PUSH2 0x75 JUMP JUMPDEST PUSH1 0x40 MLOAD DUP1 SWAP2 SUB SWAP1 PUSH1 0x0 CREATE DUP1 ISZERO DUP1 ISZERO PUSH2 0x39 JUMPI RETURNDATASIZE PUSH1 0x0 DUP1 RETURNDATACOPY RETURNDATASIZE PUSH1 0x0 REVERT JUMPDEST POP PUSH20 0xFFFFFFFFFFFFFFFFFFFFFFFFFFFFFFFFFFFFFFFF AND PUSH1 0x80 DUP2 PUSH20 0xFFFFFFFFFFFFFFFFFFFFFFFFFFFFFFFFFFFFFFFF AND PUSH1 0x60 SHL DUP2 MSTORE POP POP PUSH2 0x82 JUMP JUMPDEST PUSH2 0x567 DUP1 PUSH2 0x952 DUP4 CODECOPY ADD SWAP1 JUMP JUMPDEST PUSH1 0x80 MLOAD PUSH1 0x60 SHR PUSH2 0x8B2 PUSH2 0xA0 PUSH1 0x0 CODECOPY PUSH1 0x0 PUSH2 0x3C4 ADD MSTORE PUSH2 0x8B2 PUSH1 0x0 RETURN INVALID PUSH1 0x80 PUSH1 0x40 MSTORE PUSH1 0x4 CALLDATASIZE LT PUSH2 0x38 JUMPI PUSH1 0x0 CALLDATALOAD PUSH1 0xE0 SHR DUP1 PUSH4 0x550E4934 EQ PUSH2 0xB3 JUMPI DUP1 PUSH4 0xA2F40A5A EQ PUSH2 0xF0 JUMPI DUP1 PUSH4 0xF3EFC260 EQ PUSH2 0x119 JUMPI PUSH2 0xAE JUMP JUMPDEST CALLDATASIZE PUSH2 0xAE JUMPI ADDRESS PUSH20 0xFFFFFFFFFFFFFFFFFFFFFFFFFFFFFFFFFFFFFFFF AND PUSH4 0xF3EFC260 PUSH1 0x5 PUSH1 0x1 PUSH1 0x40 MLOAD DUP4 PUSH4 0xFFFFFFFF AND PUSH1 0xE0 SHL DUP2 MSTORE PUSH1 0x4 ADD PUSH2 0x7A SWAP3 SWAP2 SWAP1 PUSH2 0x69B JUMP JUMPDEST PUSH1 0x0 PUSH1 0x40 MLOAD DUP1 DUP4 SUB DUP2 PUSH1 0x0 DUP8 DUP1 EXTCODESIZE ISZERO DUP1 ISZERO PUSH2 0x94 JUMPI PUSH1 0x0 DUP1 REVERT JUMPDEST POP GAS CALL ISZERO DUP1 ISZERO PUSH2 0xA8 JUMPI RETURNDATASIZE PUSH1 0x0 DUP1 RETURNDATACOPY RETURNDATASIZE PUSH1 0x0 REVERT JUMPDEST POP POP POP POP STOP JUMPDEST PUSH1 0x0 DUP1 REVERT JUMPDEST CALLVALUE DUP1 ISZERO PUSH2 0xBF JUMPI PUSH1 0x0 DUP1 REVERT JUMPDEST POP PUSH2 0xDA PUSH1 0x4 DUP1 CALLDATASIZE SUB DUP2 ADD SWAP1 PUSH2 0xD5 SWAP2 SWAP1 PUSH2 0x5B1 JUMP JUMPDEST PUSH2 0x142 JUMP JUMPDEST PUSH1 0x40 MLOAD PUSH2 0xE7 SWAP2 SWAP1 PUSH2 0x680 JUMP JUMPDEST PUSH1 0x40 MLOAD DUP1 SWAP2 SUB SWAP1 RETURN JUMPDEST CALLVALUE DUP1 ISZERO PUSH2 0xFC JUMPI PUSH1 0x0 DUP1 REVERT JUMPDEST POP PUSH2 0x117 PUSH1 0x4 DUP1 CALLDATASIZE SUB DUP2 ADD SWAP1 PUSH2 0x112 SWAP2 SWAP1 PUSH2 0x604 JUMP JUMPDEST PUSH2 0x19D JUMP JUMPDEST STOP JUMPDEST CALLVALUE DUP1 ISZERO PUSH2 0x125 JUMPI PUSH1 0x0 DUP1 REVERT JUMPDEST POP PUSH2 0x140 PUSH1 0x4 DUP1 CALLDATASIZE SUB DUP2 ADD SWAP1 PUSH2 0x13B SWAP2 SWAP1 PUSH2 0x604 JUMP JUMPDEST PUSH2 0x3AD JUMP JUMPDEST STOP JUMPDEST PUSH1 0x0 PUSH1 0x20 MSTORE DUP3 PUSH1 0x0 MSTORE PUSH1 0x40 PUSH1 0x0 KECCAK256 PUSH1 0x20 MSTORE DUP2 PUSH1 0x0 MSTORE PUSH1 0x40 PUSH1 0x0 KECCAK256 DUP2 DUP2 SLOAD DUP2 LT PUSH2 0x16A JUMPI PUSH1 0x0 DUP1 REVERT JUMPDEST SWAP1 PUSH1 0x0 MSTORE PUSH1 0x20 PUSH1 0x0 KECCAK256 ADD PUSH1 0x0 SWAP3 POP SWAP3 POP POP SWAP1 SLOAD SWAP1 PUSH2 0x100 EXP SWAP1 DIV PUSH20 0xFFFFFFFFFFFFFFFFFFFFFFFFFFFFFFFFFFFFFFFF AND DUP2 JUMP JUMPDEST PUSH1 0x0 ORIGIN SWAP1 POP PUSH1 0x0 JUMPDEST DUP4 DUP2 LT ISZERO PUSH2 0x3A7 JUMPI PUSH1 0x0 DUP1 PUSH1 0x0 DUP5 PUSH20 0xFFFFFFFFFFFFFFFFFFFFFFFFFFFFFFFFFFFFFFFF AND PUSH20 0xFFFFFFFFFFFFFFFFFFFFFFFFFFFFFFFFFFFFFFFF AND DUP2 MSTORE PUSH1 0x20 ADD SWAP1 DUP2 MSTORE PUSH1 0x20 ADD PUSH1 0x0 KECCAK256 PUSH1 0x0 DUP6 DUP2 MSTORE PUSH1 0x20 ADD SWAP1 DUP2 MSTORE PUSH1 0x20 ADD PUSH1 0x0 KECCAK256 DUP1 SLOAD SWAP1 POP SWAP1 POP PUSH1 0x0 DUP1 PUSH1 0x0 DUP6 PUSH20 0xFFFFFFFFFFFFFFFFFFFFFFFFFFFFFFFFFFFFFFFF AND PUSH20 0xFFFFFFFFFFFFFFFFFFFFFFFFFFFFFFFFFFFFFFFF AND DUP2 MSTORE PUSH1 0x20 ADD SWAP1 DUP2 MSTORE PUSH1 0x20 ADD PUSH1 0x0 KECCAK256 PUSH1 0x0 DUP7 DUP2 MSTORE PUSH1 0x20 ADD SWAP1 DUP2 MSTORE PUSH1 0x20 ADD PUSH1 0x0 KECCAK256 PUSH1 0x1 DUP4 PUSH2 0x262 SWAP2 SWAP1 PUSH2 0x6DF JUMP JUMPDEST DUP2 SLOAD DUP2 LT PUSH2 0x273 JUMPI PUSH2 0x272 PUSH2 0x81A JUMP JUMPDEST JUMPDEST SWAP1 PUSH1 0x0 MSTORE PUSH1 0x20 PUSH1 0x0 KECCAK256 ADD PUSH1 0x0 SWAP1 SLOAD SWAP1 PUSH2 0x100 EXP SWAP1 DIV PUSH20 0xFFFFFFFFFFFFFFFFFFFFFFFFFFFFFFFFFFFFFFFF AND SWAP1 POP DUP1 PUSH20 0xFFFFFFFFFFFFFFFFFFFFFFFFFFFFFFFFFFFFFFFF AND PUSH4 0x52C7F8DC PUSH1 0x40 MLOAD DUP2 PUSH4 0xFFFFFFFF AND PUSH1 0xE0 SHL DUP2 MSTORE PUSH1 0x4 ADD PUSH1 0x0 PUSH1 0x40 MLOAD DUP1 DUP4 SUB DUP2 PUSH1 0x0 DUP8 DUP1 EXTCODESIZE ISZERO DUP1 ISZERO PUSH2 0x2E8 JUMPI PUSH1 0x0 DUP1 REVERT JUMPDEST POP GAS CALL ISZERO DUP1 ISZERO PUSH2 0x2FC JUMPI RETURNDATASIZE PUSH1 0x0 DUP1 RETURNDATACOPY RETURNDATASIZE PUSH1 0x0 REVERT JUMPDEST POP POP POP POP PUSH1 0x0 DUP1 DUP6 PUSH20 0xFFFFFFFFFFFFFFFFFFFFFFFFFFFFFFFFFFFFFFFF AND PUSH20 0xFFFFFFFFFFFFFFFFFFFFFFFFFFFFFFFFFFFFFFFF AND DUP2 MSTORE PUSH1 0x20 ADD SWAP1 DUP2 MSTORE PUSH1 0x20 ADD PUSH1 0x0 KECCAK256 PUSH1 0x0 DUP7 DUP2 MSTORE PUSH1 0x20 ADD SWAP1 DUP2 MSTORE PUSH1 0x20 ADD PUSH1 0x0 KECCAK256 DUP1 SLOAD DUP1 PUSH2 0x35F JUMPI PUSH2 0x35E PUSH2 0x7EB JUMP JUMPDEST JUMPDEST PUSH1 0x1 SWAP1 SUB DUP2 DUP2 SWAP1 PUSH1 0x0 MSTORE PUSH1 0x20 PUSH1 0x0 KECCAK256 ADD PUSH1 0x0 PUSH2 0x100 EXP DUP2 SLOAD SWAP1 PUSH20 0xFFFFFFFFFFFFFFFFFFFFFFFFFFFFFFFFFFFFFFFF MUL NOT AND SWAP1 SSTORE SWAP1 SSTORE POP POP DUP1 PUSH2 0x3A0 SWAP1 PUSH2 0x773 JUMP JUMPDEST SWAP1 POP PUSH2 0x1A5 JUMP JUMPDEST POP POP POP POP JUMP JUMPDEST PUSH1 0x0 ORIGIN SWAP1 POP PUSH1 0x0 JUMPDEST DUP4 DUP2 LT ISZERO PUSH2 0x517 JUMPI PUSH1 0x0 PUSH2 0x3E8 PUSH32 0x0 PUSH2 0x51D JUMP JUMPDEST SWAP1 POP DUP1 PUSH20 0xFFFFFFFFFFFFFFFFFFFFFFFFFFFFFFFFFFFFFFFF AND PUSH4 0x9FF054DF DUP6 PUSH1 0x40 MLOAD DUP3 PUSH4 0xFFFFFFFF AND PUSH1 0xE0 SHL DUP2 MSTORE PUSH1 0x4 ADD PUSH2 0x423 SWAP2 SWAP1 PUSH2 0x6C4 JUMP JUMPDEST PUSH1 0x0 PUSH1 0x40 MLOAD DUP1 DUP4 SUB DUP2 PUSH1 0x0 DUP8 DUP1 EXTCODESIZE ISZERO DUP1 ISZERO PUSH2 0x43D JUMPI PUSH1 0x0 DUP1 REVERT JUMPDEST POP GAS CALL ISZERO DUP1 ISZERO PUSH2 0x451 JUMPI RETURNDATASIZE PUSH1 0x0 DUP1 RETURNDATACOPY RETURNDATASIZE PUSH1 0x0 REVERT JUMPDEST POP POP POP POP PUSH1 0x0 DUP1 DUP5 PUSH20 0xFFFFFFFFFFFFFFFFFFFFFFFFFFFFFFFFFFFFFFFF AND PUSH20 0xFFFFFFFFFFFFFFFFFFFFFFFFFFFFFFFFFFFFFFFF AND DUP2 MSTORE PUSH1 0x20 ADD SWAP1 DUP2 MSTORE PUSH1 0x20 ADD PUSH1 0x0 KECCAK256 PUSH1 0x0 DUP6 DUP2 MSTORE PUSH1 0x20 ADD SWAP1 DUP2 MSTORE PUSH1 0x20 ADD PUSH1 0x0 KECCAK256 DUP2 SWAP1 DUP1 PUSH1 0x1 DUP2 SLOAD ADD DUP1 DUP3 SSTORE DUP1 SWAP2 POP POP PUSH1 0x1 SWAP1 SUB SWAP1 PUSH1 0x0 MSTORE PUSH1 0x20 PUSH1 0x0 KECCAK256 ADD PUSH1 0x0 SWAP1 SWAP2 SWAP1 SWAP2 SWAP1 SWAP2 PUSH2 0x100 EXP DUP2 SLOAD DUP2 PUSH20 0xFFFFFFFFFFFFFFFFFFFFFFFFFFFFFFFFFFFFFFFF MUL NOT AND SWAP1 DUP4 PUSH20 0xFFFFFFFFFFFFFFFFFFFFFFFFFFFFFFFFFFFFFFFF AND MUL OR SWAP1 SSTORE POP POP DUP1 PUSH2 0x510 SWAP1 PUSH2 0x773 JUMP JUMPDEST SWAP1 POP PUSH2 0x3B5 JUMP JUMPDEST POP POP POP POP JUMP JUMPDEST PUSH1 0x0 DUP1 DUP3 PUSH1 0x60 SHL SWAP1 POP PUSH1 0x40 MLOAD PUSH32 0x3D602D80600A3D3981F3363D3D373D3D3D363D73000000000000000000000000 DUP2 MSTORE DUP2 PUSH1 0x14 DUP3 ADD MSTORE PUSH32 0x5AF43D82803E903D91602B57FD5BF30000000000000000000000000000000000 PUSH1 0x28 DUP3 ADD MSTORE PUSH1 0x37 DUP2 PUSH1 0x0 CREATE SWAP3 POP POP POP SWAP2 SWAP1 POP JUMP JUMPDEST PUSH1 0x0 DUP2 CALLDATALOAD SWAP1 POP PUSH2 0x596 DUP2 PUSH2 0x84E JUMP JUMPDEST SWAP3 SWAP2 POP POP JUMP JUMPDEST PUSH1 0x0 DUP2 CALLDATALOAD SWAP1 POP PUSH2 0x5AB DUP2 PUSH2 0x865 JUMP JUMPDEST SWAP3 SWAP2 POP POP JUMP JUMPDEST PUSH1 0x0 DUP1 PUSH1 0x0 PUSH1 0x60 DUP5 DUP7 SUB SLT ISZERO PUSH2 0x5CA JUMPI PUSH2 0x5C9 PUSH2 0x849 JUMP JUMPDEST JUMPDEST PUSH1 0x0 PUSH2 0x5D8 DUP7 DUP3 DUP8 ADD PUSH2 0x587 JUMP JUMPDEST SWAP4 POP POP PUSH1 0x20 PUSH2 0x5E9 DUP7 DUP3 DUP8 ADD PUSH2 0x59C JUMP JUMPDEST SWAP3 POP POP PUSH1 0x40 PUSH2 0x5FA DUP7 DUP3 DUP8 ADD PUSH2 0x59C JUMP JUMPDEST SWAP2 POP POP SWAP3 POP SWAP3 POP SWAP3 JUMP JUMPDEST PUSH1 0x0 DUP1 PUSH1 0x40 DUP4 DUP6 SUB SLT ISZERO PUSH2 0x61B JUMPI PUSH2 0x61A PUSH2 0x849 JUMP JUMPDEST JUMPDEST PUSH1 0x0 PUSH2 0x629 DUP6 DUP3 DUP7 ADD PUSH2 0x59C JUMP JUMPDEST SWAP3 POP POP PUSH1 0x20 PUSH2 0x63A DUP6 DUP3 DUP7 ADD PUSH2 0x59C JUMP JUMPDEST SWAP2 POP POP SWAP3 POP SWAP3 SWAP1 POP JUMP JUMPDEST PUSH2 0x64D DUP2 PUSH2 0x713 JUMP JUMPDEST DUP3 MSTORE POP POP JUMP JUMPDEST PUSH2 0x65C DUP2 PUSH2 0x74F JUMP JUMPDEST DUP3 MSTORE POP POP JUMP JUMPDEST PUSH2 0x66B DUP2 PUSH2 0x761 JUMP JUMPDEST DUP3 MSTORE POP POP JUMP JUMPDEST PUSH2 0x67A DUP2 PUSH2 0x745 JUMP JUMPDEST DUP3 MSTORE POP POP JUMP JUMPDEST PUSH1 0x0 PUSH1 0x20 DUP3 ADD SWAP1 POP PUSH2 0x695 PUSH1 0x0 DUP4 ADD DUP5 PUSH2 0x644 JUMP JUMPDEST SWAP3 SWAP2 POP POP JUMP JUMPDEST PUSH1 0x0 PUSH1 0x40 DUP3 ADD SWAP1 POP PUSH2 0x6B0 PUSH1 0x0 DUP4 ADD DUP6 PUSH2 0x662 JUMP JUMPDEST PUSH2 0x6BD PUSH1 0x20 DUP4 ADD DUP5 PUSH2 0x653 JUMP JUMPDEST SWAP4 SWAP3 POP POP POP JUMP JUMPDEST PUSH1 0x0 PUSH1 0x20 DUP3 ADD SWAP1 POP PUSH2 0x6D9 PUSH1 0x0 DUP4 ADD DUP5 PUSH2 0x671 JUMP JUMPDEST SWAP3 SWAP2 POP POP JUMP JUMPDEST PUSH1 0x0 PUSH2 0x6EA DUP3 PUSH2 0x745 JUMP JUMPDEST SWAP2 POP PUSH2 0x6F5 DUP4 PUSH2 0x745 JUMP JUMPDEST SWAP3 POP DUP3 DUP3 LT ISZERO PUSH2 0x708 JUMPI PUSH2 0x707 PUSH2 0x7BC JUMP JUMPDEST JUMPDEST DUP3 DUP3 SUB SWAP1 POP SWAP3 SWAP2 POP POP JUMP JUMPDEST PUSH1 0x0 PUSH2 0x71E DUP3 PUSH2 0x725 JUMP JUMPDEST SWAP1 POP SWAP2 SWAP1 POP JUMP JUMPDEST PUSH1 0x0 PUSH20 0xFFFFFFFFFFFFFFFFFFFFFFFFFFFFFFFFFFFFFFFF DUP3 AND SWAP1 POP SWAP2 SWAP1 POP JUMP JUMPDEST PUSH1 0x0 DUP2 SWAP1 POP SWAP2 SWAP1 POP JUMP JUMPDEST PUSH1 0x0 PUSH2 0x75A DUP3 PUSH2 0x745 JUMP JUMPDEST SWAP1 POP SWAP2 SWAP1 POP JUMP JUMPDEST PUSH1 0x0 PUSH2 0x76C DUP3 PUSH2 0x745 JUMP JUMPDEST SWAP1 POP SWAP2 SWAP1 POP JUMP JUMPDEST PUSH1 0x0 PUSH2 0x77E DUP3 PUSH2 0x745 JUMP JUMPDEST SWAP2 POP PUSH32 0xFFFFFFFFFFFFFFFFFFFFFFFFFFFFFFFFFFFFFFFFFFFFFFFFFFFFFFFFFFFFFFFF DUP3 EQ ISZERO PUSH2 0x7B1 JUMPI PUSH2 0x7B0 PUSH2 0x7BC JUMP JUMPDEST JUMPDEST PUSH1 0x1 DUP3 ADD SWAP1 POP SWAP2 SWAP1 POP JUMP JUMPDEST PUSH32 0x4E487B7100000000000000000000000000000000000000000000000000000000 PUSH1 0x0 MSTORE PUSH1 0x11 PUSH1 0x4 MSTORE PUSH1 0x24 PUSH1 0x0 REVERT JUMPDEST PUSH32 0x4E487B7100000000000000000000000000000000000000000000000000000000 PUSH1 0x0 MSTORE PUSH1 0x31 PUSH1 0x4 MSTORE PUSH1 0x24 PUSH1 0x0 REVERT JUMPDEST PUSH32 0x4E487B7100000000000000000000000000000000000000000000000000000000 PUSH1 0x0 MSTORE PUSH1 0x32 PUSH1 0x4 MSTORE PUSH1 0x24 PUSH1 0x0 REVERT JUMPDEST PUSH1 0x0 DUP1 REVERT JUMPDEST PUSH2 0x857 DUP2 PUSH2 0x713 JUMP JUMPDEST DUP2 EQ PUSH2 0x862 JUMPI PUSH1 0x0 DUP1 REVERT JUMPDEST POP JUMP JUMPDEST PUSH2 0x86E DUP2 PUSH2 0x745 JUMP JUMPDEST DUP2 EQ PUSH2 0x879 JUMPI PUSH1 0x0 DUP1 REVERT JUMPDEST POP JUMP INVALID LOG2 PUSH5 0x6970667358 0x22 SLT KECCAK256 EXTCODECOPY 0x5F SDIV 0xEF 0xCB MSTORE MLOAD 0xE1 0xDA PUSH13 0x1DCF03F66CEF459A21E1284DCA NUMBER CALL 0xB5 SWAP9 0xCA 0xDF DUP16 0x2F STATICCALL PUSH5 0x736F6C6343 STOP ADDMOD SMOD STOP CALLER PUSH1 0x80 PUSH1 0x40 MSTORE CALLVALUE DUP1 ISZERO PUSH2 0x10 JUMPI PUSH1 0x0 DUP1 REVERT JUMPDEST POP PUSH2 0x547 DUP1 PUSH2 0x20 PUSH1 0x0 CODECOPY PUSH1 0x0 RETURN INVALID PUSH1 0x80 PUSH1 0x40 MSTORE CALLVALUE DUP1 ISZERO PUSH2 0x10 JUMPI PUSH1 0x0 DUP1 REVERT JUMPDEST POP PUSH1 0x4 CALLDATASIZE LT PUSH2 0x36 JUMPI PUSH1 0x0 CALLDATALOAD PUSH1 0xE0 SHR DUP1 PUSH4 0x52C7F8DC EQ PUSH2 0x3B JUMPI DUP1 PUSH4 0x9FF054DF EQ PUSH2 0x45 JUMPI JUMPDEST PUSH1 0x0 DUP1 REVERT JUMPDEST PUSH2 0x43 PUSH2 0x61 JUMP JUMPDEST STOP JUMPDEST PUSH2 0x5F PUSH1 0x4 DUP1 CALLDATASIZE SUB DUP2 ADD SWAP1 PUSH2 0x5A SWAP2 SWAP1 PUSH2 0x3BF JUMP JUMPDEST PUSH2 0x282 JUMP JUMPDEST STOP JUMPDEST PUSH1 0x0 DUP1 SLOAD SWAP1 PUSH2 0x100 EXP SWAP1 DIV PUSH20 0xFFFFFFFFFFFFFFFFFFFFFFFFFFFFFFFFFFFFFFFF AND PUSH20 0xFFFFFFFFFFFFFFFFFFFFFFFFFFFFFFFFFFFFFFFF AND CALLER PUSH20 0xFFFFFFFFFFFFFFFFFFFFFFFFFFFFFFFFFFFFFFFF AND EQ PUSH2 0xB9 JUMPI PUSH1 0x0 DUP1 REVERT JUMPDEST PUSH2 0xC1 PUSH2 0x337 JUMP JUMPDEST PUSH20 0xFFFFFFFFFFFFFFFFFFFFFFFFFFFFFFFFFFFFFFFF AND PUSH4 0x52C7F8DC PUSH1 0x40 MLOAD DUP2 PUSH4 0xFFFFFFFF AND PUSH1 0xE0 SHL DUP2 MSTORE PUSH1 0x4 ADD PUSH1 0x0 PUSH1 0x40 MLOAD DUP1 DUP4 SUB DUP2 PUSH1 0x0 DUP8 DUP1 EXTCODESIZE ISZERO DUP1 ISZERO PUSH2 0x108 JUMPI PUSH1 0x0 DUP1 REVERT JUMPDEST POP GAS CALL ISZERO DUP1 ISZERO PUSH2 0x11C JUMPI RETURNDATASIZE PUSH1 0x0 DUP1 RETURNDATACOPY RETURNDATASIZE PUSH1 0x0 REVERT JUMPDEST POP POP POP POP PUSH1 0x0 PUSH2 0x12A PUSH2 0x337 JUMP JUMPDEST PUSH20 0xFFFFFFFFFFFFFFFFFFFFFFFFFFFFFFFFFFFFFFFF AND PUSH4 0x70A08231 ADDRESS PUSH1 0x40 MLOAD DUP3 PUSH4 0xFFFFFFFF AND PUSH1 0xE0 SHL DUP2 MSTORE PUSH1 0x4 ADD PUSH2 0x162 SWAP2 SWAP1 PUSH2 0x437 JUMP JUMPDEST PUSH1 0x20 PUSH1 0x40 MLOAD DUP1 DUP4 SUB DUP2 DUP7 DUP1 EXTCODESIZE ISZERO DUP1 ISZERO PUSH2 0x17A JUMPI PUSH1 0x0 DUP1 REVERT JUMPDEST POP GAS STATICCALL ISZERO DUP1 ISZERO PUSH2 0x18E JUMPI RETURNDATASIZE PUSH1 0x0 DUP1 RETURNDATACOPY RETURNDATASIZE PUSH1 0x0 REVERT JUMPDEST POP POP POP POP PUSH1 0x40 MLOAD RETURNDATASIZE PUSH1 0x1F NOT PUSH1 0x1F DUP3 ADD AND DUP3 ADD DUP1 PUSH1 0x40 MSTORE POP DUP2 ADD SWAP1 PUSH2 0x1B2 SWAP2 SWAP1 PUSH2 0x3EC JUMP JUMPDEST SWAP1 POP PUSH2 0x1BC PUSH2 0x337 JUMP JUMPDEST PUSH20 0xFFFFFFFFFFFFFFFFFFFFFFFFFFFFFFFFFFFFFFFF AND PUSH4 0xA9059CBB PUSH1 0x0 DUP1 SLOAD SWAP1 PUSH2 0x100 EXP SWAP1 DIV PUSH20 0xFFFFFFFFFFFFFFFFFFFFFFFFFFFFFFFFFFFFFFFF AND DUP4 PUSH1 0x40 MLOAD DUP4 PUSH4 0xFFFFFFFF AND PUSH1 0xE0 SHL DUP2 MSTORE PUSH1 0x4 ADD PUSH2 0x216 SWAP3 SWAP2 SWAP1 PUSH2 0x452 JUMP JUMPDEST PUSH1 0x20 PUSH1 0x40 MLOAD DUP1 DUP4 SUB DUP2 PUSH1 0x0 DUP8 DUP1 EXTCODESIZE ISZERO DUP1 ISZERO PUSH2 0x230 JUMPI PUSH1 0x0 DUP1 REVERT JUMPDEST POP GAS CALL ISZERO DUP1 ISZERO PUSH2 0x244 JUMPI RETURNDATASIZE PUSH1 0x0 DUP1 RETURNDATACOPY RETURNDATASIZE PUSH1 0x0 REVERT JUMPDEST POP POP POP POP PUSH1 0x40 MLOAD RETURNDATASIZE PUSH1 0x1F NOT PUSH1 0x1F DUP3 ADD AND DUP3 ADD DUP1 PUSH1 0x40 MSTORE POP DUP2 ADD SWAP1 PUSH2 0x268 SWAP2 SWAP1 PUSH2 0x392 JUMP JUMPDEST POP ORIGIN PUSH20 0xFFFFFFFFFFFFFFFFFFFFFFFFFFFFFFFFFFFFFFFF AND SELFDESTRUCT JUMPDEST PUSH2 0x28A PUSH2 0x337 JUMP JUMPDEST PUSH20 0xFFFFFFFFFFFFFFFFFFFFFFFFFFFFFFFFFFFFFFFF AND PUSH4 0x9FF054DF DUP3 PUSH1 0x40 MLOAD DUP3 PUSH4 0xFFFFFFFF AND PUSH1 0xE0 SHL DUP2 MSTORE PUSH1 0x4 ADD PUSH2 0x2C2 SWAP2 SWAP1 PUSH2 0x47B JUMP JUMPDEST PUSH1 0x0 PUSH1 0x40 MLOAD DUP1 DUP4 SUB DUP2 PUSH1 0x0 DUP8 DUP1 EXTCODESIZE ISZERO DUP1 ISZERO PUSH2 0x2DC JUMPI PUSH1 0x0 DUP1 REVERT JUMPDEST POP GAS CALL ISZERO DUP1 ISZERO PUSH2 0x2F0 JUMPI RETURNDATASIZE PUSH1 0x0 DUP1 RETURNDATACOPY RETURNDATASIZE PUSH1 0x0 REVERT JUMPDEST POP POP POP POP ORIGIN PUSH1 0x0 DUP1 PUSH2 0x100 EXP DUP2 SLOAD DUP2 PUSH20 0xFFFFFFFFFFFFFFFFFFFFFFFFFFFFFFFFFFFFFFFF MUL NOT AND SWAP1 DUP4 PUSH20 0xFFFFFFFFFFFFFFFFFFFFFFFFFFFFFFFFFFFFFFFF AND MUL OR SWAP1 SSTORE POP POP JUMP JUMPDEST PUSH1 0x0 PUSH20 0x9C47A6C4814CC8D70D459C02F4684F8A9D538A95 SWAP1 POP SWAP1 JUMP JUMPDEST PUSH1 0x0 DUP2 MLOAD SWAP1 POP PUSH2 0x362 DUP2 PUSH2 0x4E3 JUMP JUMPDEST SWAP3 SWAP2 POP POP JUMP JUMPDEST PUSH1 0x0 DUP2 CALLDATALOAD SWAP1 POP PUSH2 0x377 DUP2 PUSH2 0x4FA JUMP JUMPDEST SWAP3 SWAP2 POP POP JUMP JUMPDEST PUSH1 0x0 DUP2 MLOAD SWAP1 POP PUSH2 0x38C DUP2 PUSH2 0x4FA JUMP JUMPDEST SWAP3 SWAP2 POP POP JUMP JUMPDEST PUSH1 0x0 PUSH1 0x20 DUP3 DUP5 SUB SLT ISZERO PUSH2 0x3A8 JUMPI PUSH2 0x3A7 PUSH2 0x4DE JUMP JUMPDEST JUMPDEST PUSH1 0x0 PUSH2 0x3B6 DUP5 DUP3 DUP6 ADD PUSH2 0x353 JUMP JUMPDEST SWAP2 POP POP SWAP3 SWAP2 POP POP JUMP JUMPDEST PUSH1 0x0 PUSH1 0x20 DUP3 DUP5 SUB SLT ISZERO PUSH2 0x3D5 JUMPI PUSH2 0x3D4 PUSH2 0x4DE JUMP JUMPDEST JUMPDEST PUSH1 0x0 PUSH2 0x3E3 DUP5 DUP3 DUP6 ADD PUSH2 0x368 JUMP JUMPDEST SWAP2 POP POP SWAP3 SWAP2 POP POP JUMP JUMPDEST PUSH1 0x0 PUSH1 0x20 DUP3 DUP5 SUB SLT ISZERO PUSH2 0x402 JUMPI PUSH2 0x401 PUSH2 0x4DE JUMP JUMPDEST JUMPDEST PUSH1 0x0 PUSH2 0x410 DUP5 DUP3 DUP6 ADD PUSH2 0x37D JUMP JUMPDEST SWAP2 POP POP SWAP3 SWAP2 POP POP JUMP JUMPDEST PUSH2 0x422 DUP2 PUSH2 0x496 JUMP JUMPDEST DUP3 MSTORE POP POP JUMP JUMPDEST PUSH2 0x431 DUP2 PUSH2 0x4D4 JUMP JUMPDEST DUP3 MSTORE POP POP JUMP JUMPDEST PUSH1 0x0 PUSH1 0x20 DUP3 ADD SWAP1 POP PUSH2 0x44C PUSH1 0x0 DUP4 ADD DUP5 PUSH2 0x419 JUMP JUMPDEST SWAP3 SWAP2 POP POP JUMP JUMPDEST PUSH1 0x0 PUSH1 0x40 DUP3 ADD SWAP1 POP PUSH2 0x467 PUSH1 0x0 DUP4 ADD DUP6 PUSH2 0x419 JUMP JUMPDEST PUSH2 0x474 PUSH1 0x20 DUP4 ADD DUP5 PUSH2 0x428 JUMP JUMPDEST SWAP4 SWAP3 POP POP POP JUMP JUMPDEST PUSH1 0x0 PUSH1 0x20 DUP3 ADD SWAP1 POP PUSH2 0x490 PUSH1 0x0 DUP4 ADD DUP5 PUSH2 0x428 JUMP JUMPDEST SWAP3 SWAP2 POP POP JUMP JUMPDEST PUSH1 0x0 PUSH2 0x4A1 DUP3 PUSH2 0x4B4 JUMP JUMPDEST SWAP1 POP SWAP2 SWAP1 POP JUMP JUMPDEST PUSH1 0x0 DUP2 ISZERO ISZERO SWAP1 POP SWAP2 SWAP1 POP JUMP JUMPDEST PUSH1 0x0 PUSH20 0xFFFFFFFFFFFFFFFFFFFFFFFFFFFFFFFFFFFFFFFF DUP3 AND SWAP1 POP SWAP2 SWAP1 POP JUMP JUMPDEST PUSH1 0x0 DUP2 SWAP1 POP SWAP2 SWAP1 POP JUMP JUMPDEST PUSH1 0x0 DUP1 REVERT JUMPDEST PUSH2 0x4EC DUP2 PUSH2 0x4A8 JUMP JUMPDEST DUP2 EQ PUSH2 0x4F7 JUMPI PUSH1 0x0 DUP1 REVERT JUMPDEST POP JUMP JUMPDEST PUSH2 0x503 DUP2 PUSH2 0x4D4 JUMP JUMPDEST DUP2 EQ PUSH2 0x50E JUMPI PUSH1 0x0 DUP1 REVERT JUMPDEST POP JUMP INVALID LOG2 PUSH5 0x6970667358 0x22 SLT KECCAK256 PUSH1 0x11 PUSH1 0x58 0xDC GASPRICE 0x27 0xB1 SWAP7 DUP14 0xD9 0xB3 0x4F 0xB9 GAS NUMBER 0xBC 0xAE 0xB8 0xF AND SSTORE 0x24 0xB3 PUSH31 0xB70B1FBC10E04764736F6C6343000807003300000000000000000000000000 "
				},
				"gasEstimates": {
					"creation": {
						"codeDepositCost": "445200",
						"executionCost": "infinite",
						"totalCost": "infinite"
					},
					"external": {
						"claimMintReward(uint256,uint256)": "infinite",
						"claimRank(uint256,uint256)": "infinite",
						"userContracts(address,uint256,uint256)": "infinite"
					},
					"internal": {
						"_clone(address)": "infinite"
					}
				},
				"methodIdentifiers": {
					"claimMintReward(uint256,uint256)": "a2f40a5a",
					"claimRank(uint256,uint256)": "f3efc260",
					"userContracts(address,uint256,uint256)": "550e4934"
				}
			},
			"storageLayout": {
				"storage": [
					{
						"astId": 106,
						"contract": "xens/xenMinimalProxyGet.sol:GETXEN",
						"label": "userContracts",
						"offset": 0,
						"slot": "0",
						"type": "t_mapping(t_address,t_mapping(t_uint256,t_array(t_address)dyn_storage))"
					}
				],
				"types": {
					"t_address": {
						"encoding": "inplace",
						"label": "address",
						"numberOfBytes": "20"
					},
					"t_array(t_address)dyn_storage": {
						"base": "t_address",
						"encoding": "dynamic_array",
						"label": "address[]",
						"numberOfBytes": "32"
					},
					"t_mapping(t_address,t_mapping(t_uint256,t_array(t_address)dyn_storage))": {
						"encoding": "mapping",
						"key": "t_address",
						"label": "mapping(address => mapping(uint256 => address[]))",
						"numberOfBytes": "32",
						"value": "t_mapping(t_uint256,t_array(t_address)dyn_storage)"
					},
					"t_mapping(t_uint256,t_array(t_address)dyn_storage)": {
						"encoding": "mapping",
						"key": "t_uint256",
						"label": "mapping(uint256 => address[])",
						"numberOfBytes": "32",
						"value": "t_array(t_address)dyn_storage"
					},
					"t_uint256": {
						"encoding": "inplace",
						"label": "uint256",
						"numberOfBytes": "32"
					}
				}
			},
			"userdoc": {
				"kind": "user",
				"methods": {},
				"version": 1
			}
		}
	}
}