{
	"chainlinkvrf/ChainlinkVrf.sol": {
		"ChainLinkVRFDemo": {
			"abi": [
				{
					"inputs": [
						{
							"internalType": "uint64",
							"name": "_subId",
							"type": "uint64"
						}
					],
					"stateMutability": "nonpayable",
					"type": "constructor"
				},
				{
					"inputs": [
						{
							"internalType": "address",
							"name": "have",
							"type": "address"
						},
						{
							"internalType": "address",
							"name": "want",
							"type": "address"
						}
					],
					"name": "OnlyCoordinatorCanFulfill",
					"type": "error"
				},
				{
					"inputs": [
						{
							"internalType": "uint256",
							"name": "requestId",
							"type": "uint256"
						},
						{
							"internalType": "uint256[]",
							"name": "randomWords",
							"type": "uint256[]"
						}
					],
					"name": "rawFulfillRandomWords",
					"outputs": [],
					"stateMutability": "nonpayable",
					"type": "function"
				},
				{
					"inputs": [],
					"name": "requestID",
					"outputs": [
						{
							"internalType": "uint256",
							"name": "",
							"type": "uint256"
						}
					],
					"stateMutability": "view",
					"type": "function"
				},
				{
					"inputs": [],
					"name": "requestRandomWords",
					"outputs": [],
					"stateMutability": "nonpayable",
					"type": "function"
				},
				{
					"inputs": [
						{
							"internalType": "uint256",
							"name": "",
							"type": "uint256"
						}
					],
					"name": "s_randomWords",
					"outputs": [
						{
							"internalType": "uint256",
							"name": "",
							"type": "uint256"
						}
					],
					"stateMutability": "view",
					"type": "function"
				}
			],
			"devdoc": {
				"kind": "dev",
				"methods": {},
				"version": 1
			},
			"evm": {
				"assembly": "    /* \"chainlinkvrf/ChainlinkVrf.sol\":201:1481  contract ChainLinkVRFDemo is VRFConsumerBaseV2{... */\n  mstore(0x40, 0xa0)\n    /* \"chainlinkvrf/ChainlinkVrf.sol\":361:403  0x2Ca8E0C643bDe4C2E08ab1fA0da3401AdAD7734D */\n  0x2ca8e0c643bde4c2e08ab1fa0da3401adad7734d\n    /* \"chainlinkvrf/ChainlinkVrf.sol\":334:403  address vrfCoordinatorAddr=0x2Ca8E0C643bDe4C2E08ab1fA0da3401AdAD7734D */\n  0x02\n  exp(0x0100, 0x00)\n  dup2\n  sload\n  dup2\n  0xffffffffffffffffffffffffffffffffffffffff\n  mul\n  not\n  and\n  swap1\n  dup4\n  0xffffffffffffffffffffffffffffffffffffffff\n  and\n  mul\n  or\n  swap1\n  sstore\n  pop\n    /* \"chainlinkvrf/ChainlinkVrf.sol\":425:491  0x79d3d8832d904592c0bf9818b621522c988bb8b0c05cdc3b15aea1b6e8db0c15 */\n  0x79d3d8832d904592c0bf9818b621522c988bb8b0c05cdc3b15aea1b6e8db0c15\n    /* \"chainlinkvrf/ChainlinkVrf.sol\":409:491  bytes32 keyHash=0x79d3d8832d904592c0bf9818b621522c988bb8b0c05cdc3b15aea1b6e8db0c15 */\n  0x00\n  shl\n  0x03\n  sstore\n    /* \"chainlinkvrf/ChainlinkVrf.sol\":591:592  3 */\n  0x03\n    /* \"chainlinkvrf/ChainlinkVrf.sol\":563:592  uint16 requestConfirmations=3 */\n  0x04\n  exp(0x0100, 0x00)\n  dup2\n  sload\n  dup2\n  0xffff\n  mul\n  not\n  and\n  swap1\n  dup4\n  0xffff\n  and\n  mul\n  or\n  swap1\n  sstore\n  pop\n    /* \"chainlinkvrf/ChainlinkVrf.sol\":644:650  100000 */\n  0x0186a0\n    /* \"chainlinkvrf/ChainlinkVrf.sol\":620:650  uint32 callbackGasLimit=100000 */\n  0x04\n  exp(0x0100, 0x02)\n  dup2\n  sload\n  dup2\n  0xffffffff\n  mul\n  not\n  and\n  swap1\n  dup4\n  0xffffffff\n  and\n  mul\n  or\n  swap1\n  sstore\n  pop\n    /* \"chainlinkvrf/ChainlinkVrf.sol\":718:719  3 */\n  0x03\n    /* \"chainlinkvrf/ChainlinkVrf.sol\":702:719  uint32 numWords=3 */\n  0x04\n  exp(0x0100, 0x06)\n  dup2\n  sload\n  dup2\n  0xffffffff\n  mul\n  not\n  and\n  swap1\n  dup4\n  0xffffffff\n  and\n  mul\n  or\n  swap1\n  sstore\n  pop\n    /* \"chainlinkvrf/ChainlinkVrf.sol\":849:1010  constructor(uint64 _subId) VRFConsumerBaseV2(vrfCoordinatorAddr){... */\n  callvalue\n  dup1\n  iszero\n  tag_1\n  jumpi\n  0x00\n  dup1\n  revert\ntag_1:\n  pop\n  mload(0x40)\n  sub(codesize, bytecodeSize)\n  dup1\n  bytecodeSize\n  dup4\n  codecopy\n  dup2\n  dup2\n  add\n  0x40\n  mstore\n  dup2\n  add\n  swap1\n  tag_2\n  swap2\n  swap1\n  tag_3\n  jump\t// in\ntag_2:\n    /* \"chainlinkvrf/ChainlinkVrf.sol\":894:912  vrfCoordinatorAddr */\n  0x02\n  0x00\n  swap1\n  sload\n  swap1\n  0x0100\n  exp\n  swap1\n  div\n  0xffffffffffffffffffffffffffffffffffffffff\n  and\n    /* \"@chainlink/contracts/src/v0.8/VRFConsumerBaseV2.sol\":5616:5631  _vrfCoordinator */\n  dup1\n    /* \"@chainlink/contracts/src/v0.8/VRFConsumerBaseV2.sol\":5599:5631  vrfCoordinator = _vrfCoordinator */\n  0xffffffffffffffffffffffffffffffffffffffff\n  and\n  0x80\n  dup2\n  0xffffffffffffffffffffffffffffffffffffffff\n  and\n  0x60\n  shl\n  dup2\n  mstore\n  pop\n  pop\n    /* \"@chainlink/contracts/src/v0.8/VRFConsumerBaseV2.sol\":5556:5636  constructor(address _vrfCoordinator) {... */\n  pop\n    /* \"chainlinkvrf/ChainlinkVrf.sol\":962:980  vrfCoordinatorAddr */\n  0x02\n  0x00\n  swap1\n  sload\n  swap1\n  0x0100\n  exp\n  swap1\n  div\n  0xffffffffffffffffffffffffffffffffffffffff\n  and\n    /* \"chainlinkvrf/ChainlinkVrf.sol\":923:935  VRFInterface */\n  0x00\n  dup1\n    /* \"chainlinkvrf/ChainlinkVrf.sol\":923:981  VRFInterface=VRFCoordinatorV2Interface(vrfCoordinatorAddr) */\n  0x0100\n  exp\n  dup2\n  sload\n  dup2\n  0xffffffffffffffffffffffffffffffffffffffff\n  mul\n  not\n  and\n  swap1\n  dup4\n  0xffffffffffffffffffffffffffffffffffffffff\n  and\n  mul\n  or\n  swap1\n  sstore\n  pop\n    /* \"chainlinkvrf/ChainlinkVrf.sol\":997:1003  _subId */\n  dup1\n    /* \"chainlinkvrf/ChainlinkVrf.sol\":991:996  subId */\n  0x00\n  0x14\n    /* \"chainlinkvrf/ChainlinkVrf.sol\":991:1003  subId=_subId */\n  0x0100\n  exp\n  dup2\n  sload\n  dup2\n  0xffffffffffffffff\n  mul\n  not\n  and\n  swap1\n  dup4\n  0xffffffffffffffff\n  and\n  mul\n  or\n  swap1\n  sstore\n  pop\n    /* \"chainlinkvrf/ChainlinkVrf.sol\":849:1010  constructor(uint64 _subId) VRFConsumerBaseV2(vrfCoordinatorAddr){... */\n  pop\n    /* \"chainlinkvrf/ChainlinkVrf.sol\":201:1481  contract ChainLinkVRFDemo is VRFConsumerBaseV2{... */\n  jump(tag_8)\n    /* \"#utility.yul\":7:148   */\ntag_10:\n    /* \"#utility.yul\":63:68   */\n  0x00\n    /* \"#utility.yul\":94:100   */\n  dup2\n    /* \"#utility.yul\":88:101   */\n  mload\n    /* \"#utility.yul\":79:101   */\n  swap1\n  pop\n    /* \"#utility.yul\":110:142   */\n  tag_12\n    /* \"#utility.yul\":136:141   */\n  dup2\n    /* \"#utility.yul\":110:142   */\n  tag_13\n  jump\t// in\ntag_12:\n    /* \"#utility.yul\":7:148   */\n  swap3\n  swap2\n  pop\n  pop\n  jump\t// out\n    /* \"#utility.yul\":154:503   */\ntag_3:\n    /* \"#utility.yul\":223:229   */\n  0x00\n    /* \"#utility.yul\":272:274   */\n  0x20\n    /* \"#utility.yul\":260:269   */\n  dup3\n    /* \"#utility.yul\":251:258   */\n  dup5\n    /* \"#utility.yul\":247:270   */\n  sub\n    /* \"#utility.yul\":243:275   */\n  slt\n    /* \"#utility.yul\":240:359   */\n  iszero\n  tag_15\n  jumpi\n    /* \"#utility.yul\":278:357   */\n  tag_16\n  tag_17\n  jump\t// in\ntag_16:\n    /* \"#utility.yul\":240:359   */\ntag_15:\n    /* \"#utility.yul\":398:399   */\n  0x00\n    /* \"#utility.yul\":423:486   */\n  tag_18\n    /* \"#utility.yul\":478:485   */\n  dup5\n    /* \"#utility.yul\":469:475   */\n  dup3\n    /* \"#utility.yul\":458:467   */\n  dup6\n    /* \"#utility.yul\":454:476   */\n  add\n    /* \"#utility.yul\":423:486   */\n  tag_10\n  jump\t// in\ntag_18:\n    /* \"#utility.yul\":413:486   */\n  swap2\n  pop\n    /* \"#utility.yul\":369:496   */\n  pop\n    /* \"#utility.yul\":154:503   */\n  swap3\n  swap2\n  pop\n  pop\n  jump\t// out\n    /* \"#utility.yul\":590:691   */\ntag_21:\n    /* \"#utility.yul\":626:633   */\n  0x00\n    /* \"#utility.yul\":666:684   */\n  0xffffffffffffffff\n    /* \"#utility.yul\":659:664   */\n  dup3\n    /* \"#utility.yul\":655:685   */\n  and\n    /* \"#utility.yul\":644:685   */\n  swap1\n  pop\n    /* \"#utility.yul\":590:691   */\n  swap2\n  swap1\n  pop\n  jump\t// out\n    /* \"#utility.yul\":820:937   */\ntag_17:\n    /* \"#utility.yul\":929:930   */\n  0x00\n    /* \"#utility.yul\":926:927   */\n  dup1\n    /* \"#utility.yul\":919:931   */\n  revert\n    /* \"#utility.yul\":943:1063   */\ntag_13:\n    /* \"#utility.yul\":1015:1038   */\n  tag_27\n    /* \"#utility.yul\":1032:1037   */\n  dup2\n    /* \"#utility.yul\":1015:1038   */\n  tag_21\n  jump\t// in\ntag_27:\n    /* \"#utility.yul\":1008:1013   */\n  dup2\n    /* \"#utility.yul\":1005:1039   */\n  eq\n    /* \"#utility.yul\":995:1057   */\n  tag_28\n  jumpi\n    /* \"#utility.yul\":1053:1054   */\n  0x00\n    /* \"#utility.yul\":1050:1051   */\n  dup1\n    /* \"#utility.yul\":1043:1055   */\n  revert\n    /* \"#utility.yul\":995:1057   */\ntag_28:\n    /* \"#utility.yul\":943:1063   */\n  pop\n  jump\t// out\n    /* \"chainlinkvrf/ChainlinkVrf.sol\":201:1481  contract ChainLinkVRFDemo is VRFConsumerBaseV2{... */\ntag_8:\n  shr(0x60, mload(0x80))\n  codecopy(0x00, dataOffset(sub_0), dataSize(sub_0))\n  0x00\n  assignImmutable(\"0x1a192fabce13988b84994d4296e6cdc418d55e2f1d7f942188d4040b94fc57ac\")\n  return(0x00, dataSize(sub_0))\nstop\n\nsub_0: assembly {\n        /* \"chainlinkvrf/ChainlinkVrf.sol\":201:1481  contract ChainLinkVRFDemo is VRFConsumerBaseV2{... */\n      mstore(0x40, 0x80)\n      callvalue\n      dup1\n      iszero\n      tag_1\n      jumpi\n      0x00\n      dup1\n      revert\n    tag_1:\n      pop\n      jumpi(tag_2, lt(calldatasize, 0x04))\n      shr(0xe0, calldataload(0x00))\n      dup1\n      0x1fe543e3\n      eq\n      tag_3\n      jumpi\n      dup1\n      0x8f779201\n      eq\n      tag_4\n      jumpi\n      dup1\n      0xe0c86289\n      eq\n      tag_5\n      jumpi\n      dup1\n      0xf6eaffc8\n      eq\n      tag_6\n      jumpi\n    tag_2:\n      0x00\n      dup1\n      revert\n        /* \"@chainlink/contracts/src/v0.8/VRFConsumerBaseV2.sol\":6618:6874  function rawFulfillRandomWords(uint256 requestId, uint256[] memory randomWords) external {... */\n    tag_3:\n      tag_7\n      0x04\n      dup1\n      calldatasize\n      sub\n      dup2\n      add\n      swap1\n      tag_8\n      swap2\n      swap1\n      tag_9\n      jump\t// in\n    tag_8:\n      tag_10\n      jump\t// in\n    tag_7:\n      stop\n        /* \"chainlinkvrf/ChainlinkVrf.sol\":814:838  uint256 public requestID */\n    tag_4:\n      tag_11\n      tag_12\n      jump\t// in\n    tag_11:\n      mload(0x40)\n      tag_13\n      swap2\n      swap1\n      tag_14\n      jump\t// in\n    tag_13:\n      mload(0x40)\n      dup1\n      swap2\n      sub\n      swap1\n      return\n        /* \"chainlinkvrf/ChainlinkVrf.sol\":1211:1479  function requestRandomWords() external{... */\n    tag_5:\n      tag_15\n      tag_16\n      jump\t// in\n    tag_15:\n      stop\n        /* \"chainlinkvrf/ChainlinkVrf.sol\":747:777  uint256[] public s_randomWords */\n    tag_6:\n      tag_17\n      0x04\n      dup1\n      calldatasize\n      sub\n      dup2\n      add\n      swap1\n      tag_18\n      swap2\n      swap1\n      tag_19\n      jump\t// in\n    tag_18:\n      tag_20\n      jump\t// in\n    tag_17:\n      mload(0x40)\n      tag_21\n      swap2\n      swap1\n      tag_14\n      jump\t// in\n    tag_21:\n      mload(0x40)\n      dup1\n      swap2\n      sub\n      swap1\n      return\n        /* \"@chainlink/contracts/src/v0.8/VRFConsumerBaseV2.sol\":6618:6874  function rawFulfillRandomWords(uint256 requestId, uint256[] memory randomWords) external {... */\n    tag_10:\n        /* \"@chainlink/contracts/src/v0.8/VRFConsumerBaseV2.sol\":6731:6745  vrfCoordinator */\n      immutable(\"0x1a192fabce13988b84994d4296e6cdc418d55e2f1d7f942188d4040b94fc57ac\")\n        /* \"@chainlink/contracts/src/v0.8/VRFConsumerBaseV2.sol\":6717:6745  msg.sender != vrfCoordinator */\n      0xffffffffffffffffffffffffffffffffffffffff\n      and\n        /* \"@chainlink/contracts/src/v0.8/VRFConsumerBaseV2.sol\":6717:6727  msg.sender */\n      caller\n        /* \"@chainlink/contracts/src/v0.8/VRFConsumerBaseV2.sol\":6717:6745  msg.sender != vrfCoordinator */\n      0xffffffffffffffffffffffffffffffffffffffff\n      and\n      eq\n        /* \"@chainlink/contracts/src/v0.8/VRFConsumerBaseV2.sol\":6713:6822  if (msg.sender != vrfCoordinator) {... */\n      tag_23\n      jumpi\n        /* \"@chainlink/contracts/src/v0.8/VRFConsumerBaseV2.sol\":6788:6798  msg.sender */\n      caller\n        /* \"@chainlink/contracts/src/v0.8/VRFConsumerBaseV2.sol\":6800:6814  vrfCoordinator */\n      immutable(\"0x1a192fabce13988b84994d4296e6cdc418d55e2f1d7f942188d4040b94fc57ac\")\n        /* \"@chainlink/contracts/src/v0.8/VRFConsumerBaseV2.sol\":6762:6815  OnlyCoordinatorCanFulfill(msg.sender, vrfCoordinator) */\n      mload(0x40)\n      0x1cf993f400000000000000000000000000000000000000000000000000000000\n      dup2\n      mstore\n      0x04\n      add\n      tag_24\n      swap3\n      swap2\n      swap1\n      tag_25\n      jump\t// in\n    tag_24:\n      mload(0x40)\n      dup1\n      swap2\n      sub\n      swap1\n      revert\n        /* \"@chainlink/contracts/src/v0.8/VRFConsumerBaseV2.sol\":6713:6822  if (msg.sender != vrfCoordinator) {... */\n    tag_23:\n        /* \"@chainlink/contracts/src/v0.8/VRFConsumerBaseV2.sol\":6827:6869  fulfillRandomWords(requestId, randomWords) */\n      tag_26\n        /* \"@chainlink/contracts/src/v0.8/VRFConsumerBaseV2.sol\":6846:6855  requestId */\n      dup3\n        /* \"@chainlink/contracts/src/v0.8/VRFConsumerBaseV2.sol\":6857:6868  randomWords */\n      dup3\n        /* \"@chainlink/contracts/src/v0.8/VRFConsumerBaseV2.sol\":6827:6845  fulfillRandomWords */\n      tag_27\n        /* \"@chainlink/contracts/src/v0.8/VRFConsumerBaseV2.sol\":6827:6869  fulfillRandomWords(requestId, randomWords) */\n      jump\t// in\n    tag_26:\n        /* \"@chainlink/contracts/src/v0.8/VRFConsumerBaseV2.sol\":6618:6874  function rawFulfillRandomWords(uint256 requestId, uint256[] memory randomWords) external {... */\n      pop\n      pop\n      jump\t// out\n        /* \"chainlinkvrf/ChainlinkVrf.sol\":814:838  uint256 public requestID */\n    tag_12:\n      sload(0x06)\n      dup2\n      jump\t// out\n        /* \"chainlinkvrf/ChainlinkVrf.sol\":1211:1479  function requestRandomWords() external{... */\n    tag_16:\n        /* \"chainlinkvrf/ChainlinkVrf.sol\":1279:1284  owner */\n      0x01\n      0x00\n      swap1\n      sload\n      swap1\n      0x0100\n      exp\n      swap1\n      div\n      0xffffffffffffffffffffffffffffffffffffffff\n      and\n        /* \"chainlinkvrf/ChainlinkVrf.sol\":1267:1284  msg.sender==owner */\n      0xffffffffffffffffffffffffffffffffffffffff\n      and\n        /* \"chainlinkvrf/ChainlinkVrf.sol\":1267:1277  msg.sender */\n      caller\n        /* \"chainlinkvrf/ChainlinkVrf.sol\":1267:1284  msg.sender==owner */\n      0xffffffffffffffffffffffffffffffffffffffff\n      and\n      eq\n        /* \"chainlinkvrf/ChainlinkVrf.sol\":1259:1285  require(msg.sender==owner) */\n      tag_29\n      jumpi\n      0x00\n      dup1\n      revert\n    tag_29:\n        /* \"chainlinkvrf/ChainlinkVrf.sol\":1305:1317  VRFInterface */\n      0x00\n      dup1\n      sload\n      swap1\n      0x0100\n      exp\n      swap1\n      div\n      0xffffffffffffffffffffffffffffffffffffffff\n      and\n        /* \"chainlinkvrf/ChainlinkVrf.sol\":1305:1336  VRFInterface.requestRandomWords */\n      0xffffffffffffffffffffffffffffffffffffffff\n      and\n      0x5d3b1d30\n        /* \"chainlinkvrf/ChainlinkVrf.sol\":1350:1357  keyHash */\n      sload(0x03)\n        /* \"chainlinkvrf/ChainlinkVrf.sol\":1371:1376  subId */\n      0x00\n      0x14\n      swap1\n      sload\n      swap1\n      0x0100\n      exp\n      swap1\n      div\n      0xffffffffffffffff\n      and\n        /* \"chainlinkvrf/ChainlinkVrf.sol\":1390:1410  requestConfirmations */\n      0x04\n      0x00\n      swap1\n      sload\n      swap1\n      0x0100\n      exp\n      swap1\n      div\n      0xffff\n      and\n        /* \"chainlinkvrf/ChainlinkVrf.sol\":1424:1440  callbackGasLimit */\n      0x04\n      0x02\n      swap1\n      sload\n      swap1\n      0x0100\n      exp\n      swap1\n      div\n      0xffffffff\n      and\n        /* \"chainlinkvrf/ChainlinkVrf.sol\":1454:1462  numWords */\n      0x04\n      0x06\n      swap1\n      sload\n      swap1\n      0x0100\n      exp\n      swap1\n      div\n      0xffffffff\n      and\n        /* \"chainlinkvrf/ChainlinkVrf.sol\":1305:1472  VRFInterface.requestRandomWords(... */\n      mload(0x40)\n      dup7\n      0xffffffff\n      and\n      0xe0\n      shl\n      dup2\n      mstore\n      0x04\n      add\n      tag_30\n      swap6\n      swap5\n      swap4\n      swap3\n      swap2\n      swap1\n      tag_31\n      jump\t// in\n    tag_30:\n      0x20\n      mload(0x40)\n      dup1\n      dup4\n      sub\n      dup2\n      0x00\n      dup8\n      dup1\n      extcodesize\n      iszero\n      dup1\n      iszero\n      tag_32\n      jumpi\n      0x00\n      dup1\n      revert\n    tag_32:\n      pop\n      gas\n      call\n      iszero\n      dup1\n      iszero\n      tag_34\n      jumpi\n      returndatasize\n      0x00\n      dup1\n      returndatacopy\n      revert(0x00, returndatasize)\n    tag_34:\n      pop\n      pop\n      pop\n      pop\n      mload(0x40)\n      returndatasize\n      not(0x1f)\n      0x1f\n      dup3\n      add\n      and\n      dup3\n      add\n      dup1\n      0x40\n      mstore\n      pop\n      dup2\n      add\n      swap1\n      tag_35\n      swap2\n      swap1\n      tag_36\n      jump\t// in\n    tag_35:\n        /* \"chainlinkvrf/ChainlinkVrf.sol\":1295:1304  requestID */\n      0x06\n        /* \"chainlinkvrf/ChainlinkVrf.sol\":1295:1472  requestID=VRFInterface.requestRandomWords(... */\n      dup2\n      swap1\n      sstore\n      pop\n        /* \"chainlinkvrf/ChainlinkVrf.sol\":1211:1479  function requestRandomWords() external{... */\n      jump\t// out\n        /* \"chainlinkvrf/ChainlinkVrf.sol\":747:777  uint256[] public s_randomWords */\n    tag_20:\n      0x05\n      dup2\n      dup2\n      sload\n      dup2\n      lt\n      tag_37\n      jumpi\n      0x00\n      dup1\n      revert\n    tag_37:\n      swap1\n      0x00\n      mstore\n      keccak256(0x00, 0x20)\n      add\n      0x00\n      swap2\n      pop\n      swap1\n      pop\n      sload\n      dup2\n      jump\t// out\n        /* \"chainlinkvrf/ChainlinkVrf.sol\":1035:1203  function fulfillRandomWords(uint256 _requestID,uint256[] memory randomWords) internal override{... */\n    tag_27:\n        /* \"chainlinkvrf/ChainlinkVrf.sol\":1153:1164  randomWords */\n      dup1\n        /* \"chainlinkvrf/ChainlinkVrf.sol\":1139:1152  s_randomWords */\n      0x05\n        /* \"chainlinkvrf/ChainlinkVrf.sol\":1139:1164  s_randomWords=randomWords */\n      swap1\n      dup1\n      mload\n      swap1\n      0x20\n      add\n      swap1\n      tag_40\n      swap3\n      swap2\n      swap1\n      tag_41\n      jump\t// in\n    tag_40:\n      pop\n        /* \"chainlinkvrf/ChainlinkVrf.sol\":1186:1196  _requestID */\n      dup2\n        /* \"chainlinkvrf/ChainlinkVrf.sol\":1174:1183  requestID */\n      0x06\n        /* \"chainlinkvrf/ChainlinkVrf.sol\":1174:1196  requestID = _requestID */\n      dup2\n      swap1\n      sstore\n      pop\n        /* \"chainlinkvrf/ChainlinkVrf.sol\":1035:1203  function fulfillRandomWords(uint256 _requestID,uint256[] memory randomWords) internal override{... */\n      pop\n      pop\n      jump\t// out\n    tag_41:\n      dup3\n      dup1\n      sload\n      dup3\n      dup3\n      sstore\n      swap1\n      0x00\n      mstore\n      keccak256(0x00, 0x20)\n      swap1\n      dup2\n      add\n      swap3\n      dup3\n      iszero\n      tag_42\n      jumpi\n      swap2\n      0x20\n      mul\n      dup3\n      add\n    tag_43:\n      dup3\n      dup2\n      gt\n      iszero\n      tag_44\n      jumpi\n      dup3\n      mload\n      dup3\n      sstore\n      swap2\n      0x20\n      add\n      swap2\n      swap1\n      0x01\n      add\n      swap1\n      jump(tag_43)\n    tag_44:\n    tag_42:\n      pop\n      swap1\n      pop\n      tag_45\n      swap2\n      swap1\n      tag_46\n      jump\t// in\n    tag_45:\n      pop\n      swap1\n      jump\t// out\n    tag_46:\n    tag_47:\n      dup1\n      dup3\n      gt\n      iszero\n      tag_48\n      jumpi\n      0x00\n      dup2\n      0x00\n      swap1\n      sstore\n      pop\n      0x01\n      add\n      jump(tag_47)\n    tag_48:\n      pop\n      swap1\n      jump\t// out\n        /* \"#utility.yul\":24:746   */\n    tag_50:\n        /* \"#utility.yul\":120:125   */\n      0x00\n        /* \"#utility.yul\":145:226   */\n      tag_52\n        /* \"#utility.yul\":161:225   */\n      tag_53\n        /* \"#utility.yul\":218:224   */\n      dup5\n        /* \"#utility.yul\":161:225   */\n      tag_54\n      jump\t// in\n    tag_53:\n        /* \"#utility.yul\":145:226   */\n      tag_55\n      jump\t// in\n    tag_52:\n        /* \"#utility.yul\":136:226   */\n      swap1\n      pop\n        /* \"#utility.yul\":246:251   */\n      dup1\n        /* \"#utility.yul\":275:281   */\n      dup4\n        /* \"#utility.yul\":268:273   */\n      dup3\n        /* \"#utility.yul\":261:282   */\n      mstore\n        /* \"#utility.yul\":309:313   */\n      0x20\n        /* \"#utility.yul\":302:307   */\n      dup3\n        /* \"#utility.yul\":298:314   */\n      add\n        /* \"#utility.yul\":291:314   */\n      swap1\n      pop\n        /* \"#utility.yul\":335:341   */\n      dup3\n        /* \"#utility.yul\":385:388   */\n      dup6\n        /* \"#utility.yul\":377:381   */\n      0x20\n        /* \"#utility.yul\":369:375   */\n      dup7\n        /* \"#utility.yul\":365:382   */\n      mul\n        /* \"#utility.yul\":360:363   */\n      dup3\n        /* \"#utility.yul\":356:383   */\n      add\n        /* \"#utility.yul\":353:389   */\n      gt\n        /* \"#utility.yul\":350:493   */\n      iszero\n      tag_56\n      jumpi\n        /* \"#utility.yul\":404:483   */\n      tag_57\n      tag_58\n      jump\t// in\n    tag_57:\n        /* \"#utility.yul\":350:493   */\n    tag_56:\n        /* \"#utility.yul\":517:518   */\n      0x00\n        /* \"#utility.yul\":502:740   */\n    tag_59:\n        /* \"#utility.yul\":527:533   */\n      dup6\n        /* \"#utility.yul\":524:525   */\n      dup2\n        /* \"#utility.yul\":521:534   */\n      lt\n        /* \"#utility.yul\":502:740   */\n      iszero\n      tag_61\n      jumpi\n        /* \"#utility.yul\":595:598   */\n      dup2\n        /* \"#utility.yul\":624:661   */\n      tag_62\n        /* \"#utility.yul\":657:660   */\n      dup9\n        /* \"#utility.yul\":645:655   */\n      dup3\n        /* \"#utility.yul\":624:661   */\n      tag_63\n      jump\t// in\n    tag_62:\n        /* \"#utility.yul\":619:622   */\n      dup5\n        /* \"#utility.yul\":612:662   */\n      mstore\n        /* \"#utility.yul\":691:695   */\n      0x20\n        /* \"#utility.yul\":686:689   */\n      dup5\n        /* \"#utility.yul\":682:696   */\n      add\n        /* \"#utility.yul\":675:696   */\n      swap4\n      pop\n        /* \"#utility.yul\":725:729   */\n      0x20\n        /* \"#utility.yul\":720:723   */\n      dup4\n        /* \"#utility.yul\":716:730   */\n      add\n        /* \"#utility.yul\":709:730   */\n      swap3\n      pop\n        /* \"#utility.yul\":562:740   */\n      pop\n        /* \"#utility.yul\":549:550   */\n      0x01\n        /* \"#utility.yul\":546:547   */\n      dup2\n        /* \"#utility.yul\":542:551   */\n      add\n        /* \"#utility.yul\":537:551   */\n      swap1\n      pop\n        /* \"#utility.yul\":502:740   */\n      jump(tag_59)\n    tag_61:\n        /* \"#utility.yul\":506:520   */\n      pop\n        /* \"#utility.yul\":126:746   */\n      pop\n      pop\n        /* \"#utility.yul\":24:746   */\n      swap4\n      swap3\n      pop\n      pop\n      pop\n      jump\t// out\n        /* \"#utility.yul\":769:1139   */\n    tag_64:\n        /* \"#utility.yul\":840:845   */\n      0x00\n        /* \"#utility.yul\":889:892   */\n      dup3\n        /* \"#utility.yul\":882:886   */\n      0x1f\n        /* \"#utility.yul\":874:880   */\n      dup4\n        /* \"#utility.yul\":870:887   */\n      add\n        /* \"#utility.yul\":866:893   */\n      slt\n        /* \"#utility.yul\":856:978   */\n      tag_66\n      jumpi\n        /* \"#utility.yul\":897:976   */\n      tag_67\n      tag_68\n      jump\t// in\n    tag_67:\n        /* \"#utility.yul\":856:978   */\n    tag_66:\n        /* \"#utility.yul\":1014:1020   */\n      dup2\n        /* \"#utility.yul\":1001:1021   */\n      calldataload\n        /* \"#utility.yul\":1039:1133   */\n      tag_69\n        /* \"#utility.yul\":1129:1132   */\n      dup5\n        /* \"#utility.yul\":1121:1127   */\n      dup3\n        /* \"#utility.yul\":1114:1118   */\n      0x20\n        /* \"#utility.yul\":1106:1112   */\n      dup7\n        /* \"#utility.yul\":1102:1119   */\n      add\n        /* \"#utility.yul\":1039:1133   */\n      tag_50\n      jump\t// in\n    tag_69:\n        /* \"#utility.yul\":1030:1133   */\n      swap2\n      pop\n        /* \"#utility.yul\":846:1139   */\n      pop\n        /* \"#utility.yul\":769:1139   */\n      swap3\n      swap2\n      pop\n      pop\n      jump\t// out\n        /* \"#utility.yul\":1145:1284   */\n    tag_63:\n        /* \"#utility.yul\":1191:1196   */\n      0x00\n        /* \"#utility.yul\":1229:1235   */\n      dup2\n        /* \"#utility.yul\":1216:1236   */\n      calldataload\n        /* \"#utility.yul\":1207:1236   */\n      swap1\n      pop\n        /* \"#utility.yul\":1245:1278   */\n      tag_71\n        /* \"#utility.yul\":1272:1277   */\n      dup2\n        /* \"#utility.yul\":1245:1278   */\n      tag_72\n      jump\t// in\n    tag_71:\n        /* \"#utility.yul\":1145:1284   */\n      swap3\n      swap2\n      pop\n      pop\n      jump\t// out\n        /* \"#utility.yul\":1290:1433   */\n    tag_73:\n        /* \"#utility.yul\":1347:1352   */\n      0x00\n        /* \"#utility.yul\":1378:1384   */\n      dup2\n        /* \"#utility.yul\":1372:1385   */\n      mload\n        /* \"#utility.yul\":1363:1385   */\n      swap1\n      pop\n        /* \"#utility.yul\":1394:1427   */\n      tag_75\n        /* \"#utility.yul\":1421:1426   */\n      dup2\n        /* \"#utility.yul\":1394:1427   */\n      tag_72\n      jump\t// in\n    tag_75:\n        /* \"#utility.yul\":1290:1433   */\n      swap3\n      swap2\n      pop\n      pop\n      jump\t// out\n        /* \"#utility.yul\":1439:1768   */\n    tag_19:\n        /* \"#utility.yul\":1498:1504   */\n      0x00\n        /* \"#utility.yul\":1547:1549   */\n      0x20\n        /* \"#utility.yul\":1535:1544   */\n      dup3\n        /* \"#utility.yul\":1526:1533   */\n      dup5\n        /* \"#utility.yul\":1522:1545   */\n      sub\n        /* \"#utility.yul\":1518:1550   */\n      slt\n        /* \"#utility.yul\":1515:1634   */\n      iszero\n      tag_77\n      jumpi\n        /* \"#utility.yul\":1553:1632   */\n      tag_78\n      tag_79\n      jump\t// in\n    tag_78:\n        /* \"#utility.yul\":1515:1634   */\n    tag_77:\n        /* \"#utility.yul\":1673:1674   */\n      0x00\n        /* \"#utility.yul\":1698:1751   */\n      tag_80\n        /* \"#utility.yul\":1743:1750   */\n      dup5\n        /* \"#utility.yul\":1734:1740   */\n      dup3\n        /* \"#utility.yul\":1723:1732   */\n      dup6\n        /* \"#utility.yul\":1719:1741   */\n      add\n        /* \"#utility.yul\":1698:1751   */\n      tag_63\n      jump\t// in\n    tag_80:\n        /* \"#utility.yul\":1688:1751   */\n      swap2\n      pop\n        /* \"#utility.yul\":1644:1761   */\n      pop\n        /* \"#utility.yul\":1439:1768   */\n      swap3\n      swap2\n      pop\n      pop\n      jump\t// out\n        /* \"#utility.yul\":1774:2125   */\n    tag_36:\n        /* \"#utility.yul\":1844:1850   */\n      0x00\n        /* \"#utility.yul\":1893:1895   */\n      0x20\n        /* \"#utility.yul\":1881:1890   */\n      dup3\n        /* \"#utility.yul\":1872:1879   */\n      dup5\n        /* \"#utility.yul\":1868:1891   */\n      sub\n        /* \"#utility.yul\":1864:1896   */\n      slt\n        /* \"#utility.yul\":1861:1980   */\n      iszero\n      tag_82\n      jumpi\n        /* \"#utility.yul\":1899:1978   */\n      tag_83\n      tag_79\n      jump\t// in\n    tag_83:\n        /* \"#utility.yul\":1861:1980   */\n    tag_82:\n        /* \"#utility.yul\":2019:2020   */\n      0x00\n        /* \"#utility.yul\":2044:2108   */\n      tag_84\n        /* \"#utility.yul\":2100:2107   */\n      dup5\n        /* \"#utility.yul\":2091:2097   */\n      dup3\n        /* \"#utility.yul\":2080:2089   */\n      dup6\n        /* \"#utility.yul\":2076:2098   */\n      add\n        /* \"#utility.yul\":2044:2108   */\n      tag_73\n      jump\t// in\n    tag_84:\n        /* \"#utility.yul\":2034:2108   */\n      swap2\n      pop\n        /* \"#utility.yul\":1990:2118   */\n      pop\n        /* \"#utility.yul\":1774:2125   */\n      swap3\n      swap2\n      pop\n      pop\n      jump\t// out\n        /* \"#utility.yul\":2131:2815   */\n    tag_9:\n        /* \"#utility.yul\":2224:2230   */\n      0x00\n        /* \"#utility.yul\":2232:2238   */\n      dup1\n        /* \"#utility.yul\":2281:2283   */\n      0x40\n        /* \"#utility.yul\":2269:2278   */\n      dup4\n        /* \"#utility.yul\":2260:2267   */\n      dup6\n        /* \"#utility.yul\":2256:2279   */\n      sub\n        /* \"#utility.yul\":2252:2284   */\n      slt\n        /* \"#utility.yul\":2249:2368   */\n      iszero\n      tag_86\n      jumpi\n        /* \"#utility.yul\":2287:2366   */\n      tag_87\n      tag_79\n      jump\t// in\n    tag_87:\n        /* \"#utility.yul\":2249:2368   */\n    tag_86:\n        /* \"#utility.yul\":2407:2408   */\n      0x00\n        /* \"#utility.yul\":2432:2485   */\n      tag_88\n        /* \"#utility.yul\":2477:2484   */\n      dup6\n        /* \"#utility.yul\":2468:2474   */\n      dup3\n        /* \"#utility.yul\":2457:2466   */\n      dup7\n        /* \"#utility.yul\":2453:2475   */\n      add\n        /* \"#utility.yul\":2432:2485   */\n      tag_63\n      jump\t// in\n    tag_88:\n        /* \"#utility.yul\":2422:2485   */\n      swap3\n      pop\n        /* \"#utility.yul\":2378:2495   */\n      pop\n        /* \"#utility.yul\":2562:2564   */\n      0x20\n        /* \"#utility.yul\":2551:2560   */\n      dup4\n        /* \"#utility.yul\":2547:2565   */\n      add\n        /* \"#utility.yul\":2534:2566   */\n      calldataload\n        /* \"#utility.yul\":2593:2611   */\n      0xffffffffffffffff\n        /* \"#utility.yul\":2585:2591   */\n      dup2\n        /* \"#utility.yul\":2582:2612   */\n      gt\n        /* \"#utility.yul\":2579:2696   */\n      iszero\n      tag_89\n      jumpi\n        /* \"#utility.yul\":2615:2694   */\n      tag_90\n      tag_91\n      jump\t// in\n    tag_90:\n        /* \"#utility.yul\":2579:2696   */\n    tag_89:\n        /* \"#utility.yul\":2720:2798   */\n      tag_92\n        /* \"#utility.yul\":2790:2797   */\n      dup6\n        /* \"#utility.yul\":2781:2787   */\n      dup3\n        /* \"#utility.yul\":2770:2779   */\n      dup7\n        /* \"#utility.yul\":2766:2788   */\n      add\n        /* \"#utility.yul\":2720:2798   */\n      tag_64\n      jump\t// in\n    tag_92:\n        /* \"#utility.yul\":2710:2798   */\n      swap2\n      pop\n        /* \"#utility.yul\":2505:2808   */\n      pop\n        /* \"#utility.yul\":2131:2815   */\n      swap3\n      pop\n      swap3\n      swap1\n      pop\n      jump\t// out\n        /* \"#utility.yul\":2821:2939   */\n    tag_93:\n        /* \"#utility.yul\":2908:2932   */\n      tag_95\n        /* \"#utility.yul\":2926:2931   */\n      dup2\n        /* \"#utility.yul\":2908:2932   */\n      tag_96\n      jump\t// in\n    tag_95:\n        /* \"#utility.yul\":2903:2906   */\n      dup3\n        /* \"#utility.yul\":2896:2933   */\n      mstore\n        /* \"#utility.yul\":2821:2939   */\n      pop\n      pop\n      jump\t// out\n        /* \"#utility.yul\":2945:3063   */\n    tag_97:\n        /* \"#utility.yul\":3032:3056   */\n      tag_99\n        /* \"#utility.yul\":3050:3055   */\n      dup2\n        /* \"#utility.yul\":3032:3056   */\n      tag_100\n      jump\t// in\n    tag_99:\n        /* \"#utility.yul\":3027:3030   */\n      dup3\n        /* \"#utility.yul\":3020:3057   */\n      mstore\n        /* \"#utility.yul\":2945:3063   */\n      pop\n      pop\n      jump\t// out\n        /* \"#utility.yul\":3069:3184   */\n    tag_101:\n        /* \"#utility.yul\":3154:3177   */\n      tag_103\n        /* \"#utility.yul\":3171:3176   */\n      dup2\n        /* \"#utility.yul\":3154:3177   */\n      tag_104\n      jump\t// in\n    tag_103:\n        /* \"#utility.yul\":3149:3152   */\n      dup3\n        /* \"#utility.yul\":3142:3178   */\n      mstore\n        /* \"#utility.yul\":3069:3184   */\n      pop\n      pop\n      jump\t// out\n        /* \"#utility.yul\":3190:3308   */\n    tag_105:\n        /* \"#utility.yul\":3277:3301   */\n      tag_107\n        /* \"#utility.yul\":3295:3300   */\n      dup2\n        /* \"#utility.yul\":3277:3301   */\n      tag_108\n      jump\t// in\n    tag_107:\n        /* \"#utility.yul\":3272:3275   */\n      dup3\n        /* \"#utility.yul\":3265:3302   */\n      mstore\n        /* \"#utility.yul\":3190:3308   */\n      pop\n      pop\n      jump\t// out\n        /* \"#utility.yul\":3314:3429   */\n    tag_109:\n        /* \"#utility.yul\":3399:3422   */\n      tag_111\n        /* \"#utility.yul\":3416:3421   */\n      dup2\n        /* \"#utility.yul\":3399:3422   */\n      tag_112\n      jump\t// in\n    tag_111:\n        /* \"#utility.yul\":3394:3397   */\n      dup3\n        /* \"#utility.yul\":3387:3423   */\n      mstore\n        /* \"#utility.yul\":3314:3429   */\n      pop\n      pop\n      jump\t// out\n        /* \"#utility.yul\":3435:3550   */\n    tag_113:\n        /* \"#utility.yul\":3520:3543   */\n      tag_115\n        /* \"#utility.yul\":3537:3542   */\n      dup2\n        /* \"#utility.yul\":3520:3543   */\n      tag_116\n      jump\t// in\n    tag_115:\n        /* \"#utility.yul\":3515:3518   */\n      dup3\n        /* \"#utility.yul\":3508:3544   */\n      mstore\n        /* \"#utility.yul\":3435:3550   */\n      pop\n      pop\n      jump\t// out\n        /* \"#utility.yul\":3556:3888   */\n    tag_25:\n        /* \"#utility.yul\":3677:3681   */\n      0x00\n        /* \"#utility.yul\":3715:3717   */\n      0x40\n        /* \"#utility.yul\":3704:3713   */\n      dup3\n        /* \"#utility.yul\":3700:3718   */\n      add\n        /* \"#utility.yul\":3692:3718   */\n      swap1\n      pop\n        /* \"#utility.yul\":3728:3799   */\n      tag_118\n        /* \"#utility.yul\":3796:3797   */\n      0x00\n        /* \"#utility.yul\":3785:3794   */\n      dup4\n        /* \"#utility.yul\":3781:3798   */\n      add\n        /* \"#utility.yul\":3772:3778   */\n      dup6\n        /* \"#utility.yul\":3728:3799   */\n      tag_93\n      jump\t// in\n    tag_118:\n        /* \"#utility.yul\":3809:3881   */\n      tag_119\n        /* \"#utility.yul\":3877:3879   */\n      0x20\n        /* \"#utility.yul\":3866:3875   */\n      dup4\n        /* \"#utility.yul\":3862:3880   */\n      add\n        /* \"#utility.yul\":3853:3859   */\n      dup5\n        /* \"#utility.yul\":3809:3881   */\n      tag_93\n      jump\t// in\n    tag_119:\n        /* \"#utility.yul\":3556:3888   */\n      swap4\n      swap3\n      pop\n      pop\n      pop\n      jump\t// out\n        /* \"#utility.yul\":3894:4542   */\n    tag_31:\n        /* \"#utility.yul\":4091:4095   */\n      0x00\n        /* \"#utility.yul\":4129:4132   */\n      0xa0\n        /* \"#utility.yul\":4118:4127   */\n      dup3\n        /* \"#utility.yul\":4114:4133   */\n      add\n        /* \"#utility.yul\":4106:4133   */\n      swap1\n      pop\n        /* \"#utility.yul\":4143:4214   */\n      tag_121\n        /* \"#utility.yul\":4211:4212   */\n      0x00\n        /* \"#utility.yul\":4200:4209   */\n      dup4\n        /* \"#utility.yul\":4196:4213   */\n      add\n        /* \"#utility.yul\":4187:4193   */\n      dup9\n        /* \"#utility.yul\":4143:4214   */\n      tag_97\n      jump\t// in\n    tag_121:\n        /* \"#utility.yul\":4224:4294   */\n      tag_122\n        /* \"#utility.yul\":4290:4292   */\n      0x20\n        /* \"#utility.yul\":4279:4288   */\n      dup4\n        /* \"#utility.yul\":4275:4293   */\n      add\n        /* \"#utility.yul\":4266:4272   */\n      dup8\n        /* \"#utility.yul\":4224:4294   */\n      tag_113\n      jump\t// in\n    tag_122:\n        /* \"#utility.yul\":4304:4374   */\n      tag_123\n        /* \"#utility.yul\":4370:4372   */\n      0x40\n        /* \"#utility.yul\":4359:4368   */\n      dup4\n        /* \"#utility.yul\":4355:4373   */\n      add\n        /* \"#utility.yul\":4346:4352   */\n      dup7\n        /* \"#utility.yul\":4304:4374   */\n      tag_101\n      jump\t// in\n    tag_123:\n        /* \"#utility.yul\":4384:4454   */\n      tag_124\n        /* \"#utility.yul\":4450:4452   */\n      0x60\n        /* \"#utility.yul\":4439:4448   */\n      dup4\n        /* \"#utility.yul\":4435:4453   */\n      add\n        /* \"#utility.yul\":4426:4432   */\n      dup6\n        /* \"#utility.yul\":4384:4454   */\n      tag_109\n      jump\t// in\n    tag_124:\n        /* \"#utility.yul\":4464:4535   */\n      tag_125\n        /* \"#utility.yul\":4530:4533   */\n      0x80\n        /* \"#utility.yul\":4519:4528   */\n      dup4\n        /* \"#utility.yul\":4515:4534   */\n      add\n        /* \"#utility.yul\":4506:4512   */\n      dup5\n        /* \"#utility.yul\":4464:4535   */\n      tag_109\n      jump\t// in\n    tag_125:\n        /* \"#utility.yul\":3894:4542   */\n      swap7\n      swap6\n      pop\n      pop\n      pop\n      pop\n      pop\n      pop\n      jump\t// out\n        /* \"#utility.yul\":4548:4770   */\n    tag_14:\n        /* \"#utility.yul\":4641:4645   */\n      0x00\n        /* \"#utility.yul\":4679:4681   */\n      0x20\n        /* \"#utility.yul\":4668:4677   */\n      dup3\n        /* \"#utility.yul\":4664:4682   */\n      add\n        /* \"#utility.yul\":4656:4682   */\n      swap1\n      pop\n        /* \"#utility.yul\":4692:4763   */\n      tag_127\n        /* \"#utility.yul\":4760:4761   */\n      0x00\n        /* \"#utility.yul\":4749:4758   */\n      dup4\n        /* \"#utility.yul\":4745:4762   */\n      add\n        /* \"#utility.yul\":4736:4742   */\n      dup5\n        /* \"#utility.yul\":4692:4763   */\n      tag_105\n      jump\t// in\n    tag_127:\n        /* \"#utility.yul\":4548:4770   */\n      swap3\n      swap2\n      pop\n      pop\n      jump\t// out\n        /* \"#utility.yul\":4776:4905   */\n    tag_55:\n        /* \"#utility.yul\":4810:4816   */\n      0x00\n        /* \"#utility.yul\":4837:4857   */\n      tag_129\n      tag_130\n      jump\t// in\n    tag_129:\n        /* \"#utility.yul\":4827:4857   */\n      swap1\n      pop\n        /* \"#utility.yul\":4866:4899   */\n      tag_131\n        /* \"#utility.yul\":4894:4898   */\n      dup3\n        /* \"#utility.yul\":4886:4892   */\n      dup3\n        /* \"#utility.yul\":4866:4899   */\n      tag_132\n      jump\t// in\n    tag_131:\n        /* \"#utility.yul\":4776:4905   */\n      swap2\n      swap1\n      pop\n      jump\t// out\n        /* \"#utility.yul\":4911:4986   */\n    tag_130:\n        /* \"#utility.yul\":4944:4950   */\n      0x00\n        /* \"#utility.yul\":4977:4979   */\n      0x40\n        /* \"#utility.yul\":4971:4980   */\n      mload\n        /* \"#utility.yul\":4961:4980   */\n      swap1\n      pop\n        /* \"#utility.yul\":4911:4986   */\n      swap1\n      jump\t// out\n        /* \"#utility.yul\":4992:5303   */\n    tag_54:\n        /* \"#utility.yul\":5069:5073   */\n      0x00\n        /* \"#utility.yul\":5159:5177   */\n      0xffffffffffffffff\n        /* \"#utility.yul\":5151:5157   */\n      dup3\n        /* \"#utility.yul\":5148:5178   */\n      gt\n        /* \"#utility.yul\":5145:5201   */\n      iszero\n      tag_135\n      jumpi\n        /* \"#utility.yul\":5181:5199   */\n      tag_136\n      tag_137\n      jump\t// in\n    tag_136:\n        /* \"#utility.yul\":5145:5201   */\n    tag_135:\n        /* \"#utility.yul\":5231:5235   */\n      0x20\n        /* \"#utility.yul\":5223:5229   */\n      dup3\n        /* \"#utility.yul\":5219:5236   */\n      mul\n        /* \"#utility.yul\":5211:5236   */\n      swap1\n      pop\n        /* \"#utility.yul\":5291:5295   */\n      0x20\n        /* \"#utility.yul\":5285:5289   */\n      dup2\n        /* \"#utility.yul\":5281:5296   */\n      add\n        /* \"#utility.yul\":5273:5296   */\n      swap1\n      pop\n        /* \"#utility.yul\":4992:5303   */\n      swap2\n      swap1\n      pop\n      jump\t// out\n        /* \"#utility.yul\":5309:5405   */\n    tag_96:\n        /* \"#utility.yul\":5346:5353   */\n      0x00\n        /* \"#utility.yul\":5375:5399   */\n      tag_139\n        /* \"#utility.yul\":5393:5398   */\n      dup3\n        /* \"#utility.yul\":5375:5399   */\n      tag_140\n      jump\t// in\n    tag_139:\n        /* \"#utility.yul\":5364:5399   */\n      swap1\n      pop\n        /* \"#utility.yul\":5309:5405   */\n      swap2\n      swap1\n      pop\n      jump\t// out\n        /* \"#utility.yul\":5411:5488   */\n    tag_100:\n        /* \"#utility.yul\":5448:5455   */\n      0x00\n        /* \"#utility.yul\":5477:5482   */\n      dup2\n        /* \"#utility.yul\":5466:5482   */\n      swap1\n      pop\n        /* \"#utility.yul\":5411:5488   */\n      swap2\n      swap1\n      pop\n      jump\t// out\n        /* \"#utility.yul\":5494:5583   */\n    tag_104:\n        /* \"#utility.yul\":5530:5537   */\n      0x00\n        /* \"#utility.yul\":5570:5576   */\n      0xffff\n        /* \"#utility.yul\":5563:5568   */\n      dup3\n        /* \"#utility.yul\":5559:5577   */\n      and\n        /* \"#utility.yul\":5548:5577   */\n      swap1\n      pop\n        /* \"#utility.yul\":5494:5583   */\n      swap2\n      swap1\n      pop\n      jump\t// out\n        /* \"#utility.yul\":5589:5715   */\n    tag_140:\n        /* \"#utility.yul\":5626:5633   */\n      0x00\n        /* \"#utility.yul\":5666:5708   */\n      0xffffffffffffffffffffffffffffffffffffffff\n        /* \"#utility.yul\":5659:5664   */\n      dup3\n        /* \"#utility.yul\":5655:5709   */\n      and\n        /* \"#utility.yul\":5644:5709   */\n      swap1\n      pop\n        /* \"#utility.yul\":5589:5715   */\n      swap2\n      swap1\n      pop\n      jump\t// out\n        /* \"#utility.yul\":5721:5798   */\n    tag_108:\n        /* \"#utility.yul\":5758:5765   */\n      0x00\n        /* \"#utility.yul\":5787:5792   */\n      dup2\n        /* \"#utility.yul\":5776:5792   */\n      swap1\n      pop\n        /* \"#utility.yul\":5721:5798   */\n      swap2\n      swap1\n      pop\n      jump\t// out\n        /* \"#utility.yul\":5804:5897   */\n    tag_112:\n        /* \"#utility.yul\":5840:5847   */\n      0x00\n        /* \"#utility.yul\":5880:5890   */\n      0xffffffff\n        /* \"#utility.yul\":5873:5878   */\n      dup3\n        /* \"#utility.yul\":5869:5891   */\n      and\n        /* \"#utility.yul\":5858:5891   */\n      swap1\n      pop\n        /* \"#utility.yul\":5804:5897   */\n      swap2\n      swap1\n      pop\n      jump\t// out\n        /* \"#utility.yul\":5903:6004   */\n    tag_116:\n        /* \"#utility.yul\":5939:5946   */\n      0x00\n        /* \"#utility.yul\":5979:5997   */\n      0xffffffffffffffff\n        /* \"#utility.yul\":5972:5977   */\n      dup3\n        /* \"#utility.yul\":5968:5998   */\n      and\n        /* \"#utility.yul\":5957:5998   */\n      swap1\n      pop\n        /* \"#utility.yul\":5903:6004   */\n      swap2\n      swap1\n      pop\n      jump\t// out\n        /* \"#utility.yul\":6010:6291   */\n    tag_132:\n        /* \"#utility.yul\":6093:6120   */\n      tag_148\n        /* \"#utility.yul\":6115:6119   */\n      dup3\n        /* \"#utility.yul\":6093:6120   */\n      tag_149\n      jump\t// in\n    tag_148:\n        /* \"#utility.yul\":6085:6091   */\n      dup2\n        /* \"#utility.yul\":6081:6121   */\n      add\n        /* \"#utility.yul\":6223:6229   */\n      dup2\n        /* \"#utility.yul\":6211:6221   */\n      dup2\n        /* \"#utility.yul\":6208:6230   */\n      lt\n        /* \"#utility.yul\":6187:6205   */\n      0xffffffffffffffff\n        /* \"#utility.yul\":6175:6185   */\n      dup3\n        /* \"#utility.yul\":6172:6206   */\n      gt\n        /* \"#utility.yul\":6169:6231   */\n      or\n        /* \"#utility.yul\":6166:6254   */\n      iszero\n      tag_150\n      jumpi\n        /* \"#utility.yul\":6234:6252   */\n      tag_151\n      tag_137\n      jump\t// in\n    tag_151:\n        /* \"#utility.yul\":6166:6254   */\n    tag_150:\n        /* \"#utility.yul\":6274:6284   */\n      dup1\n        /* \"#utility.yul\":6270:6272   */\n      0x40\n        /* \"#utility.yul\":6263:6285   */\n      mstore\n        /* \"#utility.yul\":6053:6291   */\n      pop\n        /* \"#utility.yul\":6010:6291   */\n      pop\n      pop\n      jump\t// out\n        /* \"#utility.yul\":6297:6477   */\n    tag_137:\n        /* \"#utility.yul\":6345:6422   */\n      0x4e487b7100000000000000000000000000000000000000000000000000000000\n        /* \"#utility.yul\":6342:6343   */\n      0x00\n        /* \"#utility.yul\":6335:6423   */\n      mstore\n        /* \"#utility.yul\":6442:6446   */\n      0x41\n        /* \"#utility.yul\":6439:6440   */\n      0x04\n        /* \"#utility.yul\":6432:6447   */\n      mstore\n        /* \"#utility.yul\":6466:6470   */\n      0x24\n        /* \"#utility.yul\":6463:6464   */\n      0x00\n        /* \"#utility.yul\":6456:6471   */\n      revert\n        /* \"#utility.yul\":6483:6600   */\n    tag_68:\n        /* \"#utility.yul\":6592:6593   */\n      0x00\n        /* \"#utility.yul\":6589:6590   */\n      dup1\n        /* \"#utility.yul\":6582:6594   */\n      revert\n        /* \"#utility.yul\":6606:6723   */\n    tag_58:\n        /* \"#utility.yul\":6715:6716   */\n      0x00\n        /* \"#utility.yul\":6712:6713   */\n      dup1\n        /* \"#utility.yul\":6705:6717   */\n      revert\n        /* \"#utility.yul\":6729:6846   */\n    tag_91:\n        /* \"#utility.yul\":6838:6839   */\n      0x00\n        /* \"#utility.yul\":6835:6836   */\n      dup1\n        /* \"#utility.yul\":6828:6840   */\n      revert\n        /* \"#utility.yul\":6852:6969   */\n    tag_79:\n        /* \"#utility.yul\":6961:6962   */\n      0x00\n        /* \"#utility.yul\":6958:6959   */\n      dup1\n        /* \"#utility.yul\":6951:6963   */\n      revert\n        /* \"#utility.yul\":6975:7077   */\n    tag_149:\n        /* \"#utility.yul\":7016:7022   */\n      0x00\n        /* \"#utility.yul\":7067:7069   */\n      0x1f\n        /* \"#utility.yul\":7063:7070   */\n      not\n        /* \"#utility.yul\":7058:7060   */\n      0x1f\n        /* \"#utility.yul\":7051:7056   */\n      dup4\n        /* \"#utility.yul\":7047:7061   */\n      add\n        /* \"#utility.yul\":7043:7071   */\n      and\n        /* \"#utility.yul\":7033:7071   */\n      swap1\n      pop\n        /* \"#utility.yul\":6975:7077   */\n      swap2\n      swap1\n      pop\n      jump\t// out\n        /* \"#utility.yul\":7083:7205   */\n    tag_72:\n        /* \"#utility.yul\":7156:7180   */\n      tag_159\n        /* \"#utility.yul\":7174:7179   */\n      dup2\n        /* \"#utility.yul\":7156:7180   */\n      tag_108\n      jump\t// in\n    tag_159:\n        /* \"#utility.yul\":7149:7154   */\n      dup2\n        /* \"#utility.yul\":7146:7181   */\n      eq\n        /* \"#utility.yul\":7136:7199   */\n      tag_160\n      jumpi\n        /* \"#utility.yul\":7195:7196   */\n      0x00\n        /* \"#utility.yul\":7192:7193   */\n      dup1\n        /* \"#utility.yul\":7185:7197   */\n      revert\n        /* \"#utility.yul\":7136:7199   */\n    tag_160:\n        /* \"#utility.yul\":7083:7205   */\n      pop\n      jump\t// out\n\n    auxdata: 0xa2646970667358221220305321f79463e5004d0bdcafc10cbb9c0eaf2b9f1c792dda67910eac40354a9364736f6c63430008070033\n}\n",
				"bytecode": {
					"linkReferences": {},
					"object": "60a0604052732ca8e0c643bde4c2e08ab1fa0da3401adad7734d600260006101000a81548173ffffffffffffffffffffffffffffffffffffffff021916908373ffffffffffffffffffffffffffffffffffffffff1602179055507f79d3d8832d904592c0bf9818b621522c988bb8b0c05cdc3b15aea1b6e8db0c1560001b6003556003600460006101000a81548161ffff021916908361ffff160217905550620186a0600460026101000a81548163ffffffff021916908363ffffffff1602179055506003600460066101000a81548163ffffffff021916908363ffffffff1602179055503480156100f057600080fd5b50604051610a3a380380610a3a83398181016040528101906101129190610213565b600260009054906101000a900473ffffffffffffffffffffffffffffffffffffffff168073ffffffffffffffffffffffffffffffffffffffff1660808173ffffffffffffffffffffffffffffffffffffffff1660601b8152505050600260009054906101000a900473ffffffffffffffffffffffffffffffffffffffff166000806101000a81548173ffffffffffffffffffffffffffffffffffffffff021916908373ffffffffffffffffffffffffffffffffffffffff16021790555080600060146101000a81548167ffffffffffffffff021916908367ffffffffffffffff16021790555050610270565b60008151905061020d81610259565b92915050565b60006020828403121561022957610228610254565b5b6000610237848285016101fe565b91505092915050565b600067ffffffffffffffff82169050919050565b600080fd5b61026281610240565b811461026d57600080fd5b50565b60805160601c6107a66102946000396000818160c7015261011b01526107a66000f3fe608060405234801561001057600080fd5b506004361061004c5760003560e01c80631fe543e3146100515780638f7792011461006d578063e0c862891461008b578063f6eaffc814610095575b600080fd5b61006b600480360381019061006691906104be565b6100c5565b005b610075610185565b60405161008291906105f0565b60405180910390f35b61009361018b565b005b6100af60048036038101906100aa9190610464565b6102ec565b6040516100bc91906105f0565b60405180910390f35b7f000000000000000000000000000000000000000000000000000000000000000073ffffffffffffffffffffffffffffffffffffffff163373ffffffffffffffffffffffffffffffffffffffff161461017757337f00000000000000000000000000000000000000000000000000000000000000006040517f1cf993f400000000000000000000000000000000000000000000000000000000815260040161016e929190610574565b60405180910390fd5b6101818282610310565b5050565b60065481565b600160009054906101000a900473ffffffffffffffffffffffffffffffffffffffff1673ffffffffffffffffffffffffffffffffffffffff163373ffffffffffffffffffffffffffffffffffffffff16146101e557600080fd5b60008054906101000a900473ffffffffffffffffffffffffffffffffffffffff1673ffffffffffffffffffffffffffffffffffffffff16635d3b1d30600354600060149054906101000a900467ffffffffffffffff16600460009054906101000a900461ffff16600460029054906101000a900463ffffffff16600460069054906101000a900463ffffffff166040518663ffffffff1660e01b815260040161029295949392919061059d565b602060405180830381600087803b1580156102ac57600080fd5b505af11580156102c0573d6000803e3d6000fd5b505050506040513d601f19601f820116820180604052508101906102e49190610491565b600681905550565b600581815481106102fc57600080fd5b906000526020600020016000915090505481565b8060059080519060200190610326929190610332565b50816006819055505050565b82805482825590600052602060002090810192821561036e579160200282015b8281111561036d578251825591602001919060010190610352565b5b50905061037b919061037f565b5090565b5b80821115610398576000816000905550600101610380565b5090565b60006103af6103aa84610630565b61060b565b905080838252602082019050828560208602820111156103d2576103d1610739565b5b60005b8581101561040257816103e8888261043a565b8452602084019350602083019250506001810190506103d5565b5050509392505050565b600082601f83011261042157610420610734565b5b813561043184826020860161039c565b91505092915050565b60008135905061044981610759565b92915050565b60008151905061045e81610759565b92915050565b60006020828403121561047a57610479610743565b5b60006104888482850161043a565b91505092915050565b6000602082840312156104a7576104a6610743565b5b60006104b58482850161044f565b91505092915050565b600080604083850312156104d5576104d4610743565b5b60006104e38582860161043a565b925050602083013567ffffffffffffffff8111156105045761050361073e565b5b6105108582860161040c565b9150509250929050565b6105238161065c565b82525050565b6105328161066e565b82525050565b61054181610678565b82525050565b610550816106a6565b82525050565b61055f816106b0565b82525050565b61056e816106c0565b82525050565b6000604082019050610589600083018561051a565b610596602083018461051a565b9392505050565b600060a0820190506105b26000830188610529565b6105bf6020830187610565565b6105cc6040830186610538565b6105d96060830185610556565b6105e66080830184610556565b9695505050505050565b60006020820190506106056000830184610547565b92915050565b6000610615610626565b905061062182826106d4565b919050565b6000604051905090565b600067ffffffffffffffff82111561064b5761064a610705565b5b602082029050602081019050919050565b600061066782610686565b9050919050565b6000819050919050565b600061ffff82169050919050565b600073ffffffffffffffffffffffffffffffffffffffff82169050919050565b6000819050919050565b600063ffffffff82169050919050565b600067ffffffffffffffff82169050919050565b6106dd82610748565b810181811067ffffffffffffffff821117156106fc576106fb610705565b5b80604052505050565b7f4e487b7100000000000000000000000000000000000000000000000000000000600052604160045260246000fd5b600080fd5b600080fd5b600080fd5b600080fd5b6000601f19601f8301169050919050565b610762816106a6565b811461076d57600080fd5b5056fea2646970667358221220305321f79463e5004d0bdcafc10cbb9c0eaf2b9f1c792dda67910eac40354a9364736f6c63430008070033",
					"opcodes": "PUSH1 0xA0 PUSH1 0x40 MSTORE PUSH20 0x2CA8E0C643BDE4C2E08AB1FA0DA3401ADAD7734D PUSH1 0x2 PUSH1 0x0 PUSH2 0x100 EXP DUP2 SLOAD DUP2 PUSH20 0xFFFFFFFFFFFFFFFFFFFFFFFFFFFFFFFFFFFFFFFF MUL NOT AND SWAP1 DUP4 PUSH20 0xFFFFFFFFFFFFFFFFFFFFFFFFFFFFFFFFFFFFFFFF AND MUL OR SWAP1 SSTORE POP PUSH32 0x79D3D8832D904592C0BF9818B621522C988BB8B0C05CDC3B15AEA1B6E8DB0C15 PUSH1 0x0 SHL PUSH1 0x3 SSTORE PUSH1 0x3 PUSH1 0x4 PUSH1 0x0 PUSH2 0x100 EXP DUP2 SLOAD DUP2 PUSH2 0xFFFF MUL NOT AND SWAP1 DUP4 PUSH2 0xFFFF AND MUL OR SWAP1 SSTORE POP PUSH3 0x186A0 PUSH1 0x4 PUSH1 0x2 PUSH2 0x100 EXP DUP2 SLOAD DUP2 PUSH4 0xFFFFFFFF MUL NOT AND SWAP1 DUP4 PUSH4 0xFFFFFFFF AND MUL OR SWAP1 SSTORE POP PUSH1 0x3 PUSH1 0x4 PUSH1 0x6 PUSH2 0x100 EXP DUP2 SLOAD DUP2 PUSH4 0xFFFFFFFF MUL NOT AND SWAP1 DUP4 PUSH4 0xFFFFFFFF AND MUL OR SWAP1 SSTORE POP CALLVALUE DUP1 ISZERO PUSH2 0xF0 JUMPI PUSH1 0x0 DUP1 REVERT JUMPDEST POP PUSH1 0x40 MLOAD PUSH2 0xA3A CODESIZE SUB DUP1 PUSH2 0xA3A DUP4 CODECOPY DUP2 DUP2 ADD PUSH1 0x40 MSTORE DUP2 ADD SWAP1 PUSH2 0x112 SWAP2 SWAP1 PUSH2 0x213 JUMP JUMPDEST PUSH1 0x2 PUSH1 0x0 SWAP1 SLOAD SWAP1 PUSH2 0x100 EXP SWAP1 DIV PUSH20 0xFFFFFFFFFFFFFFFFFFFFFFFFFFFFFFFFFFFFFFFF AND DUP1 PUSH20 0xFFFFFFFFFFFFFFFFFFFFFFFFFFFFFFFFFFFFFFFF AND PUSH1 0x80 DUP2 PUSH20 0xFFFFFFFFFFFFFFFFFFFFFFFFFFFFFFFFFFFFFFFF AND PUSH1 0x60 SHL DUP2 MSTORE POP POP POP PUSH1 0x2 PUSH1 0x0 SWAP1 SLOAD SWAP1 PUSH2 0x100 EXP SWAP1 DIV PUSH20 0xFFFFFFFFFFFFFFFFFFFFFFFFFFFFFFFFFFFFFFFF AND PUSH1 0x0 DUP1 PUSH2 0x100 EXP DUP2 SLOAD DUP2 PUSH20 0xFFFFFFFFFFFFFFFFFFFFFFFFFFFFFFFFFFFFFFFF MUL NOT AND SWAP1 DUP4 PUSH20 0xFFFFFFFFFFFFFFFFFFFFFFFFFFFFFFFFFFFFFFFF AND MUL OR SWAP1 SSTORE POP DUP1 PUSH1 0x0 PUSH1 0x14 PUSH2 0x100 EXP DUP2 SLOAD DUP2 PUSH8 0xFFFFFFFFFFFFFFFF MUL NOT AND SWAP1 DUP4 PUSH8 0xFFFFFFFFFFFFFFFF AND MUL OR SWAP1 SSTORE POP POP PUSH2 0x270 JUMP JUMPDEST PUSH1 0x0 DUP2 MLOAD SWAP1 POP PUSH2 0x20D DUP2 PUSH2 0x259 JUMP JUMPDEST SWAP3 SWAP2 POP POP JUMP JUMPDEST PUSH1 0x0 PUSH1 0x20 DUP3 DUP5 SUB SLT ISZERO PUSH2 0x229 JUMPI PUSH2 0x228 PUSH2 0x254 JUMP JUMPDEST JUMPDEST PUSH1 0x0 PUSH2 0x237 DUP5 DUP3 DUP6 ADD PUSH2 0x1FE JUMP JUMPDEST SWAP2 POP POP SWAP3 SWAP2 POP POP JUMP JUMPDEST PUSH1 0x0 PUSH8 0xFFFFFFFFFFFFFFFF DUP3 AND SWAP1 POP SWAP2 SWAP1 POP JUMP JUMPDEST PUSH1 0x0 DUP1 REVERT JUMPDEST PUSH2 0x262 DUP2 PUSH2 0x240 JUMP JUMPDEST DUP2 EQ PUSH2 0x26D JUMPI PUSH1 0x0 DUP1 REVERT JUMPDEST POP JUMP JUMPDEST PUSH1 0x80 MLOAD PUSH1 0x60 SHR PUSH2 0x7A6 PUSH2 0x294 PUSH1 0x0 CODECOPY PUSH1 0x0 DUP2 DUP2 PUSH1 0xC7 ADD MSTORE PUSH2 0x11B ADD MSTORE PUSH2 0x7A6 PUSH1 0x0 RETURN INVALID PUSH1 0x80 PUSH1 0x40 MSTORE CALLVALUE DUP1 ISZERO PUSH2 0x10 JUMPI PUSH1 0x0 DUP1 REVERT JUMPDEST POP PUSH1 0x4 CALLDATASIZE LT PUSH2 0x4C JUMPI PUSH1 0x0 CALLDATALOAD PUSH1 0xE0 SHR DUP1 PUSH4 0x1FE543E3 EQ PUSH2 0x51 JUMPI DUP1 PUSH4 0x8F779201 EQ PUSH2 0x6D JUMPI DUP1 PUSH4 0xE0C86289 EQ PUSH2 0x8B JUMPI DUP1 PUSH4 0xF6EAFFC8 EQ PUSH2 0x95 JUMPI JUMPDEST PUSH1 0x0 DUP1 REVERT JUMPDEST PUSH2 0x6B PUSH1 0x4 DUP1 CALLDATASIZE SUB DUP2 ADD SWAP1 PUSH2 0x66 SWAP2 SWAP1 PUSH2 0x4BE JUMP JUMPDEST PUSH2 0xC5 JUMP JUMPDEST STOP JUMPDEST PUSH2 0x75 PUSH2 0x185 JUMP JUMPDEST PUSH1 0x40 MLOAD PUSH2 0x82 SWAP2 SWAP1 PUSH2 0x5F0 JUMP JUMPDEST PUSH1 0x40 MLOAD DUP1 SWAP2 SUB SWAP1 RETURN JUMPDEST PUSH2 0x93 PUSH2 0x18B JUMP JUMPDEST STOP JUMPDEST PUSH2 0xAF PUSH1 0x4 DUP1 CALLDATASIZE SUB DUP2 ADD SWAP1 PUSH2 0xAA SWAP2 SWAP1 PUSH2 0x464 JUMP JUMPDEST PUSH2 0x2EC JUMP JUMPDEST PUSH1 0x40 MLOAD PUSH2 0xBC SWAP2 SWAP1 PUSH2 0x5F0 JUMP JUMPDEST PUSH1 0x40 MLOAD DUP1 SWAP2 SUB SWAP1 RETURN JUMPDEST PUSH32 0x0 PUSH20 0xFFFFFFFFFFFFFFFFFFFFFFFFFFFFFFFFFFFFFFFF AND CALLER PUSH20 0xFFFFFFFFFFFFFFFFFFFFFFFFFFFFFFFFFFFFFFFF AND EQ PUSH2 0x177 JUMPI CALLER PUSH32 0x0 PUSH1 0x40 MLOAD PUSH32 0x1CF993F400000000000000000000000000000000000000000000000000000000 DUP2 MSTORE PUSH1 0x4 ADD PUSH2 0x16E SWAP3 SWAP2 SWAP1 PUSH2 0x574 JUMP JUMPDEST PUSH1 0x40 MLOAD DUP1 SWAP2 SUB SWAP1 REVERT JUMPDEST PUSH2 0x181 DUP3 DUP3 PUSH2 0x310 JUMP JUMPDEST POP POP JUMP JUMPDEST PUSH1 0x6 SLOAD DUP2 JUMP JUMPDEST PUSH1 0x1 PUSH1 0x0 SWAP1 SLOAD SWAP1 PUSH2 0x100 EXP SWAP1 DIV PUSH20 0xFFFFFFFFFFFFFFFFFFFFFFFFFFFFFFFFFFFFFFFF AND PUSH20 0xFFFFFFFFFFFFFFFFFFFFFFFFFFFFFFFFFFFFFFFF AND CALLER PUSH20 0xFFFFFFFFFFFFFFFFFFFFFFFFFFFFFFFFFFFFFFFF AND EQ PUSH2 0x1E5 JUMPI PUSH1 0x0 DUP1 REVERT JUMPDEST PUSH1 0x0 DUP1 SLOAD SWAP1 PUSH2 0x100 EXP SWAP1 DIV PUSH20 0xFFFFFFFFFFFFFFFFFFFFFFFFFFFFFFFFFFFFFFFF AND PUSH20 0xFFFFFFFFFFFFFFFFFFFFFFFFFFFFFFFFFFFFFFFF AND PUSH4 0x5D3B1D30 PUSH1 0x3 SLOAD PUSH1 0x0 PUSH1 0x14 SWAP1 SLOAD SWAP1 PUSH2 0x100 EXP SWAP1 DIV PUSH8 0xFFFFFFFFFFFFFFFF AND PUSH1 0x4 PUSH1 0x0 SWAP1 SLOAD SWAP1 PUSH2 0x100 EXP SWAP1 DIV PUSH2 0xFFFF AND PUSH1 0x4 PUSH1 0x2 SWAP1 SLOAD SWAP1 PUSH2 0x100 EXP SWAP1 DIV PUSH4 0xFFFFFFFF AND PUSH1 0x4 PUSH1 0x6 SWAP1 SLOAD SWAP1 PUSH2 0x100 EXP SWAP1 DIV PUSH4 0xFFFFFFFF AND PUSH1 0x40 MLOAD DUP7 PUSH4 0xFFFFFFFF AND PUSH1 0xE0 SHL DUP2 MSTORE PUSH1 0x4 ADD PUSH2 0x292 SWAP6 SWAP5 SWAP4 SWAP3 SWAP2 SWAP1 PUSH2 0x59D JUMP JUMPDEST PUSH1 0x20 PUSH1 0x40 MLOAD DUP1 DUP4 SUB DUP2 PUSH1 0x0 DUP8 DUP1 EXTCODESIZE ISZERO DUP1 ISZERO PUSH2 0x2AC JUMPI PUSH1 0x0 DUP1 REVERT JUMPDEST POP GAS CALL ISZERO DUP1 ISZERO PUSH2 0x2C0 JUMPI RETURNDATASIZE PUSH1 0x0 DUP1 RETURNDATACOPY RETURNDATASIZE PUSH1 0x0 REVERT JUMPDEST POP POP POP POP PUSH1 0x40 MLOAD RETURNDATASIZE PUSH1 0x1F NOT PUSH1 0x1F DUP3 ADD AND DUP3 ADD DUP1 PUSH1 0x40 MSTORE POP DUP2 ADD SWAP1 PUSH2 0x2E4 SWAP2 SWAP1 PUSH2 0x491 JUMP JUMPDEST PUSH1 0x6 DUP2 SWAP1 SSTORE POP JUMP JUMPDEST PUSH1 0x5 DUP2 DUP2 SLOAD DUP2 LT PUSH2 0x2FC JUMPI PUSH1 0x0 DUP1 REVERT JUMPDEST SWAP1 PUSH1 0x0 MSTORE PUSH1 0x20 PUSH1 0x0 KECCAK256 ADD PUSH1 0x0 SWAP2 POP SWAP1 POP SLOAD DUP2 JUMP JUMPDEST DUP1 PUSH1 0x5 SWAP1 DUP1 MLOAD SWAP1 PUSH1 0x20 ADD SWAP1 PUSH2 0x326 SWAP3 SWAP2 SWAP1 PUSH2 0x332 JUMP JUMPDEST POP DUP2 PUSH1 0x6 DUP2 SWAP1 SSTORE POP POP POP JUMP JUMPDEST DUP3 DUP1 SLOAD DUP3 DUP3 SSTORE SWAP1 PUSH1 0x0 MSTORE PUSH1 0x20 PUSH1 0x0 KECCAK256 SWAP1 DUP2 ADD SWAP3 DUP3 ISZERO PUSH2 0x36E JUMPI SWAP2 PUSH1 0x20 MUL DUP3 ADD JUMPDEST DUP3 DUP2 GT ISZERO PUSH2 0x36D JUMPI DUP3 MLOAD DUP3 SSTORE SWAP2 PUSH1 0x20 ADD SWAP2 SWAP1 PUSH1 0x1 ADD SWAP1 PUSH2 0x352 JUMP JUMPDEST JUMPDEST POP SWAP1 POP PUSH2 0x37B SWAP2 SWAP1 PUSH2 0x37F JUMP JUMPDEST POP SWAP1 JUMP JUMPDEST JUMPDEST DUP1 DUP3 GT ISZERO PUSH2 0x398 JUMPI PUSH1 0x0 DUP2 PUSH1 0x0 SWAP1 SSTORE POP PUSH1 0x1 ADD PUSH2 0x380 JUMP JUMPDEST POP SWAP1 JUMP JUMPDEST PUSH1 0x0 PUSH2 0x3AF PUSH2 0x3AA DUP5 PUSH2 0x630 JUMP JUMPDEST PUSH2 0x60B JUMP JUMPDEST SWAP1 POP DUP1 DUP4 DUP3 MSTORE PUSH1 0x20 DUP3 ADD SWAP1 POP DUP3 DUP6 PUSH1 0x20 DUP7 MUL DUP3 ADD GT ISZERO PUSH2 0x3D2 JUMPI PUSH2 0x3D1 PUSH2 0x739 JUMP JUMPDEST JUMPDEST PUSH1 0x0 JUMPDEST DUP6 DUP2 LT ISZERO PUSH2 0x402 JUMPI DUP2 PUSH2 0x3E8 DUP9 DUP3 PUSH2 0x43A JUMP JUMPDEST DUP5 MSTORE PUSH1 0x20 DUP5 ADD SWAP4 POP PUSH1 0x20 DUP4 ADD SWAP3 POP POP PUSH1 0x1 DUP2 ADD SWAP1 POP PUSH2 0x3D5 JUMP JUMPDEST POP POP POP SWAP4 SWAP3 POP POP POP JUMP JUMPDEST PUSH1 0x0 DUP3 PUSH1 0x1F DUP4 ADD SLT PUSH2 0x421 JUMPI PUSH2 0x420 PUSH2 0x734 JUMP JUMPDEST JUMPDEST DUP2 CALLDATALOAD PUSH2 0x431 DUP5 DUP3 PUSH1 0x20 DUP7 ADD PUSH2 0x39C JUMP JUMPDEST SWAP2 POP POP SWAP3 SWAP2 POP POP JUMP JUMPDEST PUSH1 0x0 DUP2 CALLDATALOAD SWAP1 POP PUSH2 0x449 DUP2 PUSH2 0x759 JUMP JUMPDEST SWAP3 SWAP2 POP POP JUMP JUMPDEST PUSH1 0x0 DUP2 MLOAD SWAP1 POP PUSH2 0x45E DUP2 PUSH2 0x759 JUMP JUMPDEST SWAP3 SWAP2 POP POP JUMP JUMPDEST PUSH1 0x0 PUSH1 0x20 DUP3 DUP5 SUB SLT ISZERO PUSH2 0x47A JUMPI PUSH2 0x479 PUSH2 0x743 JUMP JUMPDEST JUMPDEST PUSH1 0x0 PUSH2 0x488 DUP5 DUP3 DUP6 ADD PUSH2 0x43A JUMP JUMPDEST SWAP2 POP POP SWAP3 SWAP2 POP POP JUMP JUMPDEST PUSH1 0x0 PUSH1 0x20 DUP3 DUP5 SUB SLT ISZERO PUSH2 0x4A7 JUMPI PUSH2 0x4A6 PUSH2 0x743 JUMP JUMPDEST JUMPDEST PUSH1 0x0 PUSH2 0x4B5 DUP5 DUP3 DUP6 ADD PUSH2 0x44F JUMP JUMPDEST SWAP2 POP POP SWAP3 SWAP2 POP POP JUMP JUMPDEST PUSH1 0x0 DUP1 PUSH1 0x40 DUP4 DUP6 SUB SLT ISZERO PUSH2 0x4D5 JUMPI PUSH2 0x4D4 PUSH2 0x743 JUMP JUMPDEST JUMPDEST PUSH1 0x0 PUSH2 0x4E3 DUP6 DUP3 DUP7 ADD PUSH2 0x43A JUMP JUMPDEST SWAP3 POP POP PUSH1 0x20 DUP4 ADD CALLDATALOAD PUSH8 0xFFFFFFFFFFFFFFFF DUP2 GT ISZERO PUSH2 0x504 JUMPI PUSH2 0x503 PUSH2 0x73E JUMP JUMPDEST JUMPDEST PUSH2 0x510 DUP6 DUP3 DUP7 ADD PUSH2 0x40C JUMP JUMPDEST SWAP2 POP POP SWAP3 POP SWAP3 SWAP1 POP JUMP JUMPDEST PUSH2 0x523 DUP2 PUSH2 0x65C JUMP JUMPDEST DUP3 MSTORE POP POP JUMP JUMPDEST PUSH2 0x532 DUP2 PUSH2 0x66E JUMP JUMPDEST DUP3 MSTORE POP POP JUMP JUMPDEST PUSH2 0x541 DUP2 PUSH2 0x678 JUMP JUMPDEST DUP3 MSTORE POP POP JUMP JUMPDEST PUSH2 0x550 DUP2 PUSH2 0x6A6 JUMP JUMPDEST DUP3 MSTORE POP POP JUMP JUMPDEST PUSH2 0x55F DUP2 PUSH2 0x6B0 JUMP JUMPDEST DUP3 MSTORE POP POP JUMP JUMPDEST PUSH2 0x56E DUP2 PUSH2 0x6C0 JUMP JUMPDEST DUP3 MSTORE POP POP JUMP JUMPDEST PUSH1 0x0 PUSH1 0x40 DUP3 ADD SWAP1 POP PUSH2 0x589 PUSH1 0x0 DUP4 ADD DUP6 PUSH2 0x51A JUMP JUMPDEST PUSH2 0x596 PUSH1 0x20 DUP4 ADD DUP5 PUSH2 0x51A JUMP JUMPDEST SWAP4 SWAP3 POP POP POP JUMP JUMPDEST PUSH1 0x0 PUSH1 0xA0 DUP3 ADD SWAP1 POP PUSH2 0x5B2 PUSH1 0x0 DUP4 ADD DUP9 PUSH2 0x529 JUMP JUMPDEST PUSH2 0x5BF PUSH1 0x20 DUP4 ADD DUP8 PUSH2 0x565 JUMP JUMPDEST PUSH2 0x5CC PUSH1 0x40 DUP4 ADD DUP7 PUSH2 0x538 JUMP JUMPDEST PUSH2 0x5D9 PUSH1 0x60 DUP4 ADD DUP6 PUSH2 0x556 JUMP JUMPDEST PUSH2 0x5E6 PUSH1 0x80 DUP4 ADD DUP5 PUSH2 0x556 JUMP JUMPDEST SWAP7 SWAP6 POP POP POP POP POP POP JUMP JUMPDEST PUSH1 0x0 PUSH1 0x20 DUP3 ADD SWAP1 POP PUSH2 0x605 PUSH1 0x0 DUP4 ADD DUP5 PUSH2 0x547 JUMP JUMPDEST SWAP3 SWAP2 POP POP JUMP JUMPDEST PUSH1 0x0 PUSH2 0x615 PUSH2 0x626 JUMP JUMPDEST SWAP1 POP PUSH2 0x621 DUP3 DUP3 PUSH2 0x6D4 JUMP JUMPDEST SWAP2 SWAP1 POP JUMP JUMPDEST PUSH1 0x0 PUSH1 0x40 MLOAD SWAP1 POP SWAP1 JUMP JUMPDEST PUSH1 0x0 PUSH8 0xFFFFFFFFFFFFFFFF DUP3 GT ISZERO PUSH2 0x64B JUMPI PUSH2 0x64A PUSH2 0x705 JUMP JUMPDEST JUMPDEST PUSH1 0x20 DUP3 MUL SWAP1 POP PUSH1 0x20 DUP2 ADD SWAP1 POP SWAP2 SWAP1 POP JUMP JUMPDEST PUSH1 0x0 PUSH2 0x667 DUP3 PUSH2 0x686 JUMP JUMPDEST SWAP1 POP SWAP2 SWAP1 POP JUMP JUMPDEST PUSH1 0x0 DUP2 SWAP1 POP SWAP2 SWAP1 POP JUMP JUMPDEST PUSH1 0x0 PUSH2 0xFFFF DUP3 AND SWAP1 POP SWAP2 SWAP1 POP JUMP JUMPDEST PUSH1 0x0 PUSH20 0xFFFFFFFFFFFFFFFFFFFFFFFFFFFFFFFFFFFFFFFF DUP3 AND SWAP1 POP SWAP2 SWAP1 POP JUMP JUMPDEST PUSH1 0x0 DUP2 SWAP1 POP SWAP2 SWAP1 POP JUMP JUMPDEST PUSH1 0x0 PUSH4 0xFFFFFFFF DUP3 AND SWAP1 POP SWAP2 SWAP1 POP JUMP JUMPDEST PUSH1 0x0 PUSH8 0xFFFFFFFFFFFFFFFF DUP3 AND SWAP1 POP SWAP2 SWAP1 POP JUMP JUMPDEST PUSH2 0x6DD DUP3 PUSH2 0x748 JUMP JUMPDEST DUP2 ADD DUP2 DUP2 LT PUSH8 0xFFFFFFFFFFFFFFFF DUP3 GT OR ISZERO PUSH2 0x6FC JUMPI PUSH2 0x6FB PUSH2 0x705 JUMP JUMPDEST JUMPDEST DUP1 PUSH1 0x40 MSTORE POP POP POP JUMP JUMPDEST PUSH32 0x4E487B7100000000000000000000000000000000000000000000000000000000 PUSH1 0x0 MSTORE PUSH1 0x41 PUSH1 0x4 MSTORE PUSH1 0x24 PUSH1 0x0 REVERT JUMPDEST PUSH1 0x0 DUP1 REVERT JUMPDEST PUSH1 0x0 DUP1 REVERT JUMPDEST PUSH1 0x0 DUP1 REVERT JUMPDEST PUSH1 0x0 DUP1 REVERT JUMPDEST PUSH1 0x0 PUSH1 0x1F NOT PUSH1 0x1F DUP4 ADD AND SWAP1 POP SWAP2 SWAP1 POP JUMP JUMPDEST PUSH2 0x762 DUP2 PUSH2 0x6A6 JUMP JUMPDEST DUP2 EQ PUSH2 0x76D JUMPI PUSH1 0x0 DUP1 REVERT JUMPDEST POP JUMP INVALID LOG2 PUSH5 0x6970667358 0x22 SLT KECCAK256 ADDRESS MSTORE8 0x21 0xF7 SWAP5 PUSH4 0xE5004D0B 0xDC 0xAF 0xC1 0xC 0xBB SWAP13 0xE 0xAF 0x2B SWAP16 SHR PUSH26 0x2DDA67910EAC40354A9364736F6C634300080700330000000000 "
				},
				"gasEstimates": {
					"creation": {
						"codeDepositCost": "391600",
						"executionCost": "infinite",
						"totalCost": "infinite"
					},
					"external": {
						"rawFulfillRandomWords(uint256,uint256[])": "infinite",
						"requestID()": "2429",
						"requestRandomWords()": "infinite",
						"s_randomWords(uint256)": "infinite"
					},
					"internal": {
						"fulfillRandomWords(uint256,uint256[] memory)": "infinite"
					}
				},
				"methodIdentifiers": {
					"rawFulfillRandomWords(uint256,uint256[])": "1fe543e3",
					"requestID()": "8f779201",
					"requestRandomWords()": "e0c86289",
					"s_randomWords(uint256)": "f6eaffc8"
				}
			},
			"storageLayout": {
				"storage": [
					{
						"astId": 162,
						"contract": "chainlinkvrf/ChainlinkVrf.sol:ChainLinkVRFDemo",
						"label": "VRFInterface",
						"offset": 0,
						"slot": "0",
						"type": "t_contract(VRFCoordinatorV2Interface)153"
					},
					{
						"astId": 164,
						"contract": "chainlinkvrf/ChainlinkVrf.sol:ChainLinkVRFDemo",
						"label": "subId",
						"offset": 20,
						"slot": "0",
						"type": "t_uint64"
					},
					{
						"astId": 166,
						"contract": "chainlinkvrf/ChainlinkVrf.sol:ChainLinkVRFDemo",
						"label": "owner",
						"offset": 0,
						"slot": "1",
						"type": "t_address"
					},
					{
						"astId": 169,
						"contract": "chainlinkvrf/ChainlinkVrf.sol:ChainLinkVRFDemo",
						"label": "vrfCoordinatorAddr",
						"offset": 0,
						"slot": "2",
						"type": "t_address"
					},
					{
						"astId": 172,
						"contract": "chainlinkvrf/ChainlinkVrf.sol:ChainLinkVRFDemo",
						"label": "keyHash",
						"offset": 0,
						"slot": "3",
						"type": "t_bytes32"
					},
					{
						"astId": 175,
						"contract": "chainlinkvrf/ChainlinkVrf.sol:ChainLinkVRFDemo",
						"label": "requestConfirmations",
						"offset": 0,
						"slot": "4",
						"type": "t_uint16"
					},
					{
						"astId": 178,
						"contract": "chainlinkvrf/ChainlinkVrf.sol:ChainLinkVRFDemo",
						"label": "callbackGasLimit",
						"offset": 2,
						"slot": "4",
						"type": "t_uint32"
					},
					{
						"astId": 181,
						"contract": "chainlinkvrf/ChainlinkVrf.sol:ChainLinkVRFDemo",
						"label": "numWords",
						"offset": 6,
						"slot": "4",
						"type": "t_uint32"
					},
					{
						"astId": 184,
						"contract": "chainlinkvrf/ChainlinkVrf.sol:ChainLinkVRFDemo",
						"label": "s_randomWords",
						"offset": 0,
						"slot": "5",
						"type": "t_array(t_uint256)dyn_storage"
					},
					{
						"astId": 186,
						"contract": "chainlinkvrf/ChainlinkVrf.sol:ChainLinkVRFDemo",
						"label": "requestID",
						"offset": 0,
						"slot": "6",
						"type": "t_uint256"
					}
				],
				"types": {
					"t_address": {
						"encoding": "inplace",
						"label": "address",
						"numberOfBytes": "20"
					},
					"t_array(t_uint256)dyn_storage": {
						"base": "t_uint256",
						"encoding": "dynamic_array",
						"label": "uint256[]",
						"numberOfBytes": "32"
					},
					"t_bytes32": {
						"encoding": "inplace",
						"label": "bytes32",
						"numberOfBytes": "32"
					},
					"t_contract(VRFCoordinatorV2Interface)153": {
						"encoding": "inplace",
						"label": "contract VRFCoordinatorV2Interface",
						"numberOfBytes": "20"
					},
					"t_uint16": {
						"encoding": "inplace",
						"label": "uint16",
						"numberOfBytes": "2"
					},
					"t_uint256": {
						"encoding": "inplace",
						"label": "uint256",
						"numberOfBytes": "32"
					},
					"t_uint32": {
						"encoding": "inplace",
						"label": "uint32",
						"numberOfBytes": "4"
					},
					"t_uint64": {
						"encoding": "inplace",
						"label": "uint64",
						"numberOfBytes": "8"
					}
				}
			},
			"userdoc": {
				"kind": "user",
				"methods": {},
				"version": 1
			}
		}
	}
}