{
	"chainlinkvrf/ChainlinkVrf.sol": {
		"ChainLinkVRFDemo": {
			"abi": [
				{
					"inputs": [
						{
							"internalType": "uint64",
							"name": "_subId",
							"type": "uint64"
						}
					],
					"stateMutability": "nonpayable",
					"type": "constructor"
				},
				{
					"inputs": [
						{
							"internalType": "address",
							"name": "have",
							"type": "address"
						},
						{
							"internalType": "address",
							"name": "want",
							"type": "address"
						}
					],
					"name": "OnlyCoordinatorCanFulfill",
					"type": "error"
				},
				{
					"inputs": [
						{
							"internalType": "uint256",
							"name": "requestId",
							"type": "uint256"
						},
						{
							"internalType": "uint256[]",
							"name": "randomWords",
							"type": "uint256[]"
						}
					],
					"name": "rawFulfillRandomWords",
					"outputs": [],
					"stateMutability": "nonpayable",
					"type": "function"
				},
				{
					"inputs": [],
					"name": "requestID",
					"outputs": [
						{
							"internalType": "uint256",
							"name": "",
							"type": "uint256"
						}
					],
					"stateMutability": "view",
					"type": "function"
				},
				{
					"inputs": [
						{
							"internalType": "uint256",
							"name": "",
							"type": "uint256"
						}
					],
					"name": "s_randomWords",
					"outputs": [
						{
							"internalType": "uint256",
							"name": "",
							"type": "uint256"
						}
					],
					"stateMutability": "view",
					"type": "function"
				}
			],
			"devdoc": {
				"kind": "dev",
				"methods": {},
				"version": 1
			},
			"evm": {
				"assembly": "    /* \"chainlinkvrf/ChainlinkVrf.sol\":201:1259  contract ChainLinkVRFDemo is VRFConsumerBaseV2{... */\n  mstore(0x40, 0xa0)\n    /* \"chainlinkvrf/ChainlinkVrf.sol\":372:414  0x2Ca8E0C643bDe4C2E08ab1fA0da3401AdAD7734D */\n  0x2ca8e0c643bde4c2e08ab1fa0da3401adad7734d\n    /* \"chainlinkvrf/ChainlinkVrf.sol\":345:414  address vrfCoordinatorAddr=0x2Ca8E0C643bDe4C2E08ab1fA0da3401AdAD7734D */\n  0x02\n  exp(0x0100, 0x00)\n  dup2\n  sload\n  dup2\n  0xffffffffffffffffffffffffffffffffffffffff\n  mul\n  not\n  and\n  swap1\n  dup4\n  0xffffffffffffffffffffffffffffffffffffffff\n  and\n  mul\n  or\n  swap1\n  sstore\n  pop\n    /* \"chainlinkvrf/ChainlinkVrf.sol\":508:574  0x79d3d8832d904592c0bf9818b621522c988bb8b0c05cdc3b15aea1b6e8db0c15 */\n  0x79d3d8832d904592c0bf9818b621522c988bb8b0c05cdc3b15aea1b6e8db0c15\n    /* \"chainlinkvrf/ChainlinkVrf.sol\":492:574  bytes32 keyHash=0x79d3d8832d904592c0bf9818b621522c988bb8b0c05cdc3b15aea1b6e8db0c15 */\n  0x00\n  shl\n  0x03\n  sstore\n    /* \"chainlinkvrf/ChainlinkVrf.sol\":674:675  3 */\n  0x03\n    /* \"chainlinkvrf/ChainlinkVrf.sol\":646:675  uint16 requestConfirmations=3 */\n  0x04\n  exp(0x0100, 0x00)\n  dup2\n  sload\n  dup2\n  0xffff\n  mul\n  not\n  and\n  swap1\n  dup4\n  0xffff\n  and\n  mul\n  or\n  swap1\n  sstore\n  pop\n    /* \"chainlinkvrf/ChainlinkVrf.sol\":727:733  100000 */\n  0x0186a0\n    /* \"chainlinkvrf/ChainlinkVrf.sol\":703:733  uint32 callbackGasLimit=100000 */\n  0x04\n  exp(0x0100, 0x02)\n  dup2\n  sload\n  dup2\n  0xffffffff\n  mul\n  not\n  and\n  swap1\n  dup4\n  0xffffffff\n  and\n  mul\n  or\n  swap1\n  sstore\n  pop\n    /* \"chainlinkvrf/ChainlinkVrf.sol\":801:802  3 */\n  0x03\n    /* \"chainlinkvrf/ChainlinkVrf.sol\":785:802  uint32 numWords=3 */\n  0x04\n  exp(0x0100, 0x06)\n  dup2\n  sload\n  dup2\n  0xffffffff\n  mul\n  not\n  and\n  swap1\n  dup4\n  0xffffffff\n  and\n  mul\n  or\n  swap1\n  sstore\n  pop\n    /* \"chainlinkvrf/ChainlinkVrf.sol\":932:1093  constructor(uint64 _subId) VRFConsumerBaseV2(vrfCoordinatorAddr){... */\n  callvalue\n  dup1\n  iszero\n  tag_1\n  jumpi\n  0x00\n  dup1\n  revert\ntag_1:\n  pop\n  mload(0x40)\n  sub(codesize, bytecodeSize)\n  dup1\n  bytecodeSize\n  dup4\n  codecopy\n  dup2\n  dup2\n  add\n  0x40\n  mstore\n  dup2\n  add\n  swap1\n  tag_2\n  swap2\n  swap1\n  tag_3\n  jump\t// in\ntag_2:\n    /* \"chainlinkvrf/ChainlinkVrf.sol\":977:995  vrfCoordinatorAddr */\n  0x02\n  0x00\n  swap1\n  sload\n  swap1\n  0x0100\n  exp\n  swap1\n  div\n  0xffffffffffffffffffffffffffffffffffffffff\n  and\n    /* \"@chainlink/contracts/src/v0.8/VRFConsumerBaseV2.sol\":5616:5631  _vrfCoordinator */\n  dup1\n    /* \"@chainlink/contracts/src/v0.8/VRFConsumerBaseV2.sol\":5599:5631  vrfCoordinator = _vrfCoordinator */\n  0xffffffffffffffffffffffffffffffffffffffff\n  and\n  0x80\n  dup2\n  0xffffffffffffffffffffffffffffffffffffffff\n  and\n  0x60\n  shl\n  dup2\n  mstore\n  pop\n  pop\n    /* \"@chainlink/contracts/src/v0.8/VRFConsumerBaseV2.sol\":5556:5636  constructor(address _vrfCoordinator) {... */\n  pop\n    /* \"chainlinkvrf/ChainlinkVrf.sol\":1045:1063  vrfCoordinatorAddr */\n  0x02\n  0x00\n  swap1\n  sload\n  swap1\n  0x0100\n  exp\n  swap1\n  div\n  0xffffffffffffffffffffffffffffffffffffffff\n  and\n    /* \"chainlinkvrf/ChainlinkVrf.sol\":1006:1018  VRFInterface */\n  0x00\n  dup1\n    /* \"chainlinkvrf/ChainlinkVrf.sol\":1006:1064  VRFInterface=VRFCoordinatorV2Interface(vrfCoordinatorAddr) */\n  0x0100\n  exp\n  dup2\n  sload\n  dup2\n  0xffffffffffffffffffffffffffffffffffffffff\n  mul\n  not\n  and\n  swap1\n  dup4\n  0xffffffffffffffffffffffffffffffffffffffff\n  and\n  mul\n  or\n  swap1\n  sstore\n  pop\n    /* \"chainlinkvrf/ChainlinkVrf.sol\":1080:1086  _subId */\n  dup1\n    /* \"chainlinkvrf/ChainlinkVrf.sol\":1074:1079  subId */\n  0x00\n  0x14\n    /* \"chainlinkvrf/ChainlinkVrf.sol\":1074:1086  subId=_subId */\n  0x0100\n  exp\n  dup2\n  sload\n  dup2\n  0xffffffffffffffff\n  mul\n  not\n  and\n  swap1\n  dup4\n  0xffffffffffffffff\n  and\n  mul\n  or\n  swap1\n  sstore\n  pop\n    /* \"chainlinkvrf/ChainlinkVrf.sol\":932:1093  constructor(uint64 _subId) VRFConsumerBaseV2(vrfCoordinatorAddr){... */\n  pop\n    /* \"chainlinkvrf/ChainlinkVrf.sol\":201:1259  contract ChainLinkVRFDemo is VRFConsumerBaseV2{... */\n  jump(tag_8)\n    /* \"#utility.yul\":7:148   */\ntag_10:\n    /* \"#utility.yul\":63:68   */\n  0x00\n    /* \"#utility.yul\":94:100   */\n  dup2\n    /* \"#utility.yul\":88:101   */\n  mload\n    /* \"#utility.yul\":79:101   */\n  swap1\n  pop\n    /* \"#utility.yul\":110:142   */\n  tag_12\n    /* \"#utility.yul\":136:141   */\n  dup2\n    /* \"#utility.yul\":110:142   */\n  tag_13\n  jump\t// in\ntag_12:\n    /* \"#utility.yul\":7:148   */\n  swap3\n  swap2\n  pop\n  pop\n  jump\t// out\n    /* \"#utility.yul\":154:503   */\ntag_3:\n    /* \"#utility.yul\":223:229   */\n  0x00\n    /* \"#utility.yul\":272:274   */\n  0x20\n    /* \"#utility.yul\":260:269   */\n  dup3\n    /* \"#utility.yul\":251:258   */\n  dup5\n    /* \"#utility.yul\":247:270   */\n  sub\n    /* \"#utility.yul\":243:275   */\n  slt\n    /* \"#utility.yul\":240:359   */\n  iszero\n  tag_15\n  jumpi\n    /* \"#utility.yul\":278:357   */\n  tag_16\n  tag_17\n  jump\t// in\ntag_16:\n    /* \"#utility.yul\":240:359   */\ntag_15:\n    /* \"#utility.yul\":398:399   */\n  0x00\n    /* \"#utility.yul\":423:486   */\n  tag_18\n    /* \"#utility.yul\":478:485   */\n  dup5\n    /* \"#utility.yul\":469:475   */\n  dup3\n    /* \"#utility.yul\":458:467   */\n  dup6\n    /* \"#utility.yul\":454:476   */\n  add\n    /* \"#utility.yul\":423:486   */\n  tag_10\n  jump\t// in\ntag_18:\n    /* \"#utility.yul\":413:486   */\n  swap2\n  pop\n    /* \"#utility.yul\":369:496   */\n  pop\n    /* \"#utility.yul\":154:503   */\n  swap3\n  swap2\n  pop\n  pop\n  jump\t// out\n    /* \"#utility.yul\":590:691   */\ntag_21:\n    /* \"#utility.yul\":626:633   */\n  0x00\n    /* \"#utility.yul\":666:684   */\n  0xffffffffffffffff\n    /* \"#utility.yul\":659:664   */\n  dup3\n    /* \"#utility.yul\":655:685   */\n  and\n    /* \"#utility.yul\":644:685   */\n  swap1\n  pop\n    /* \"#utility.yul\":590:691   */\n  swap2\n  swap1\n  pop\n  jump\t// out\n    /* \"#utility.yul\":820:937   */\ntag_17:\n    /* \"#utility.yul\":929:930   */\n  0x00\n    /* \"#utility.yul\":926:927   */\n  dup1\n    /* \"#utility.yul\":919:931   */\n  revert\n    /* \"#utility.yul\":943:1063   */\ntag_13:\n    /* \"#utility.yul\":1015:1038   */\n  tag_27\n    /* \"#utility.yul\":1032:1037   */\n  dup2\n    /* \"#utility.yul\":1015:1038   */\n  tag_21\n  jump\t// in\ntag_27:\n    /* \"#utility.yul\":1008:1013   */\n  dup2\n    /* \"#utility.yul\":1005:1039   */\n  eq\n    /* \"#utility.yul\":995:1057   */\n  tag_28\n  jumpi\n    /* \"#utility.yul\":1053:1054   */\n  0x00\n    /* \"#utility.yul\":1050:1051   */\n  dup1\n    /* \"#utility.yul\":1043:1055   */\n  revert\n    /* \"#utility.yul\":995:1057   */\ntag_28:\n    /* \"#utility.yul\":943:1063   */\n  pop\n  jump\t// out\n    /* \"chainlinkvrf/ChainlinkVrf.sol\":201:1259  contract ChainLinkVRFDemo is VRFConsumerBaseV2{... */\ntag_8:\n  shr(0x60, mload(0x80))\n  codecopy(0x00, dataOffset(sub_0), dataSize(sub_0))\n  0x00\n  assignImmutable(\"0x1a192fabce13988b84994d4296e6cdc418d55e2f1d7f942188d4040b94fc57ac\")\n  return(0x00, dataSize(sub_0))\nstop\n\nsub_0: assembly {\n        /* \"chainlinkvrf/ChainlinkVrf.sol\":201:1259  contract ChainLinkVRFDemo is VRFConsumerBaseV2{... */\n      mstore(0x40, 0x80)\n      callvalue\n      dup1\n      iszero\n      tag_1\n      jumpi\n      0x00\n      dup1\n      revert\n    tag_1:\n      pop\n      jumpi(tag_2, lt(calldatasize, 0x04))\n      shr(0xe0, calldataload(0x00))\n      dup1\n      0x1fe543e3\n      eq\n      tag_3\n      jumpi\n      dup1\n      0x8f779201\n      eq\n      tag_4\n      jumpi\n      dup1\n      0xf6eaffc8\n      eq\n      tag_5\n      jumpi\n    tag_2:\n      0x00\n      dup1\n      revert\n        /* \"@chainlink/contracts/src/v0.8/VRFConsumerBaseV2.sol\":6618:6874  function rawFulfillRandomWords(uint256 requestId, uint256[] memory randomWords) external {... */\n    tag_3:\n      tag_6\n      0x04\n      dup1\n      calldatasize\n      sub\n      dup2\n      add\n      swap1\n      tag_7\n      swap2\n      swap1\n      tag_8\n      jump\t// in\n    tag_7:\n      tag_9\n      jump\t// in\n    tag_6:\n      stop\n        /* \"chainlinkvrf/ChainlinkVrf.sol\":897:921  uint256 public requestID */\n    tag_4:\n      tag_10\n      tag_11\n      jump\t// in\n    tag_10:\n      mload(0x40)\n      tag_12\n      swap2\n      swap1\n      tag_13\n      jump\t// in\n    tag_12:\n      mload(0x40)\n      dup1\n      swap2\n      sub\n      swap1\n      return\n        /* \"chainlinkvrf/ChainlinkVrf.sol\":830:860  uint256[] public s_randomWords */\n    tag_5:\n      tag_14\n      0x04\n      dup1\n      calldatasize\n      sub\n      dup2\n      add\n      swap1\n      tag_15\n      swap2\n      swap1\n      tag_16\n      jump\t// in\n    tag_15:\n      tag_17\n      jump\t// in\n    tag_14:\n      mload(0x40)\n      tag_18\n      swap2\n      swap1\n      tag_13\n      jump\t// in\n    tag_18:\n      mload(0x40)\n      dup1\n      swap2\n      sub\n      swap1\n      return\n        /* \"@chainlink/contracts/src/v0.8/VRFConsumerBaseV2.sol\":6618:6874  function rawFulfillRandomWords(uint256 requestId, uint256[] memory randomWords) external {... */\n    tag_9:\n        /* \"@chainlink/contracts/src/v0.8/VRFConsumerBaseV2.sol\":6731:6745  vrfCoordinator */\n      immutable(\"0x1a192fabce13988b84994d4296e6cdc418d55e2f1d7f942188d4040b94fc57ac\")\n        /* \"@chainlink/contracts/src/v0.8/VRFConsumerBaseV2.sol\":6717:6745  msg.sender != vrfCoordinator */\n      0xffffffffffffffffffffffffffffffffffffffff\n      and\n        /* \"@chainlink/contracts/src/v0.8/VRFConsumerBaseV2.sol\":6717:6727  msg.sender */\n      caller\n        /* \"@chainlink/contracts/src/v0.8/VRFConsumerBaseV2.sol\":6717:6745  msg.sender != vrfCoordinator */\n      0xffffffffffffffffffffffffffffffffffffffff\n      and\n      eq\n        /* \"@chainlink/contracts/src/v0.8/VRFConsumerBaseV2.sol\":6713:6822  if (msg.sender != vrfCoordinator) {... */\n      tag_20\n      jumpi\n        /* \"@chainlink/contracts/src/v0.8/VRFConsumerBaseV2.sol\":6788:6798  msg.sender */\n      caller\n        /* \"@chainlink/contracts/src/v0.8/VRFConsumerBaseV2.sol\":6800:6814  vrfCoordinator */\n      immutable(\"0x1a192fabce13988b84994d4296e6cdc418d55e2f1d7f942188d4040b94fc57ac\")\n        /* \"@chainlink/contracts/src/v0.8/VRFConsumerBaseV2.sol\":6762:6815  OnlyCoordinatorCanFulfill(msg.sender, vrfCoordinator) */\n      mload(0x40)\n      0x1cf993f400000000000000000000000000000000000000000000000000000000\n      dup2\n      mstore\n      0x04\n      add\n      tag_21\n      swap3\n      swap2\n      swap1\n      tag_22\n      jump\t// in\n    tag_21:\n      mload(0x40)\n      dup1\n      swap2\n      sub\n      swap1\n      revert\n        /* \"@chainlink/contracts/src/v0.8/VRFConsumerBaseV2.sol\":6713:6822  if (msg.sender != vrfCoordinator) {... */\n    tag_20:\n        /* \"@chainlink/contracts/src/v0.8/VRFConsumerBaseV2.sol\":6827:6869  fulfillRandomWords(requestId, randomWords) */\n      tag_23\n        /* \"@chainlink/contracts/src/v0.8/VRFConsumerBaseV2.sol\":6846:6855  requestId */\n      dup3\n        /* \"@chainlink/contracts/src/v0.8/VRFConsumerBaseV2.sol\":6857:6868  randomWords */\n      dup3\n        /* \"@chainlink/contracts/src/v0.8/VRFConsumerBaseV2.sol\":6827:6845  fulfillRandomWords */\n      tag_24\n        /* \"@chainlink/contracts/src/v0.8/VRFConsumerBaseV2.sol\":6827:6869  fulfillRandomWords(requestId, randomWords) */\n      jump\t// in\n    tag_23:\n        /* \"@chainlink/contracts/src/v0.8/VRFConsumerBaseV2.sol\":6618:6874  function rawFulfillRandomWords(uint256 requestId, uint256[] memory randomWords) external {... */\n      pop\n      pop\n      jump\t// out\n        /* \"chainlinkvrf/ChainlinkVrf.sol\":897:921  uint256 public requestID */\n    tag_11:\n      sload(0x06)\n      dup2\n      jump\t// out\n        /* \"chainlinkvrf/ChainlinkVrf.sol\":830:860  uint256[] public s_randomWords */\n    tag_17:\n      0x05\n      dup2\n      dup2\n      sload\n      dup2\n      lt\n      tag_25\n      jumpi\n      0x00\n      dup1\n      revert\n    tag_25:\n      swap1\n      0x00\n      mstore\n      keccak256(0x00, 0x20)\n      add\n      0x00\n      swap2\n      pop\n      swap1\n      pop\n      sload\n      dup2\n      jump\t// out\n        /* \"chainlinkvrf/ChainlinkVrf.sol\":1118:1253  function fulfillRandomWords(uint256 requestID,uint256[] memory randomWords) internal override{... */\n    tag_24:\n        /* \"chainlinkvrf/ChainlinkVrf.sol\":1235:1246  randomWords */\n      dup1\n        /* \"chainlinkvrf/ChainlinkVrf.sol\":1221:1234  s_randomWords */\n      0x05\n        /* \"chainlinkvrf/ChainlinkVrf.sol\":1221:1246  s_randomWords=randomWords */\n      swap1\n      dup1\n      mload\n      swap1\n      0x20\n      add\n      swap1\n      tag_28\n      swap3\n      swap2\n      swap1\n      tag_29\n      jump\t// in\n    tag_28:\n      pop\n        /* \"chainlinkvrf/ChainlinkVrf.sol\":1118:1253  function fulfillRandomWords(uint256 requestID,uint256[] memory randomWords) internal override{... */\n      pop\n      pop\n      jump\t// out\n    tag_29:\n      dup3\n      dup1\n      sload\n      dup3\n      dup3\n      sstore\n      swap1\n      0x00\n      mstore\n      keccak256(0x00, 0x20)\n      swap1\n      dup2\n      add\n      swap3\n      dup3\n      iszero\n      tag_30\n      jumpi\n      swap2\n      0x20\n      mul\n      dup3\n      add\n    tag_31:\n      dup3\n      dup2\n      gt\n      iszero\n      tag_32\n      jumpi\n      dup3\n      mload\n      dup3\n      sstore\n      swap2\n      0x20\n      add\n      swap2\n      swap1\n      0x01\n      add\n      swap1\n      jump(tag_31)\n    tag_32:\n    tag_30:\n      pop\n      swap1\n      pop\n      tag_33\n      swap2\n      swap1\n      tag_34\n      jump\t// in\n    tag_33:\n      pop\n      swap1\n      jump\t// out\n    tag_34:\n    tag_35:\n      dup1\n      dup3\n      gt\n      iszero\n      tag_36\n      jumpi\n      0x00\n      dup2\n      0x00\n      swap1\n      sstore\n      pop\n      0x01\n      add\n      jump(tag_35)\n    tag_36:\n      pop\n      swap1\n      jump\t// out\n        /* \"#utility.yul\":24:746   */\n    tag_38:\n        /* \"#utility.yul\":120:125   */\n      0x00\n        /* \"#utility.yul\":145:226   */\n      tag_40\n        /* \"#utility.yul\":161:225   */\n      tag_41\n        /* \"#utility.yul\":218:224   */\n      dup5\n        /* \"#utility.yul\":161:225   */\n      tag_42\n      jump\t// in\n    tag_41:\n        /* \"#utility.yul\":145:226   */\n      tag_43\n      jump\t// in\n    tag_40:\n        /* \"#utility.yul\":136:226   */\n      swap1\n      pop\n        /* \"#utility.yul\":246:251   */\n      dup1\n        /* \"#utility.yul\":275:281   */\n      dup4\n        /* \"#utility.yul\":268:273   */\n      dup3\n        /* \"#utility.yul\":261:282   */\n      mstore\n        /* \"#utility.yul\":309:313   */\n      0x20\n        /* \"#utility.yul\":302:307   */\n      dup3\n        /* \"#utility.yul\":298:314   */\n      add\n        /* \"#utility.yul\":291:314   */\n      swap1\n      pop\n        /* \"#utility.yul\":335:341   */\n      dup3\n        /* \"#utility.yul\":385:388   */\n      dup6\n        /* \"#utility.yul\":377:381   */\n      0x20\n        /* \"#utility.yul\":369:375   */\n      dup7\n        /* \"#utility.yul\":365:382   */\n      mul\n        /* \"#utility.yul\":360:363   */\n      dup3\n        /* \"#utility.yul\":356:383   */\n      add\n        /* \"#utility.yul\":353:389   */\n      gt\n        /* \"#utility.yul\":350:493   */\n      iszero\n      tag_44\n      jumpi\n        /* \"#utility.yul\":404:483   */\n      tag_45\n      tag_46\n      jump\t// in\n    tag_45:\n        /* \"#utility.yul\":350:493   */\n    tag_44:\n        /* \"#utility.yul\":517:518   */\n      0x00\n        /* \"#utility.yul\":502:740   */\n    tag_47:\n        /* \"#utility.yul\":527:533   */\n      dup6\n        /* \"#utility.yul\":524:525   */\n      dup2\n        /* \"#utility.yul\":521:534   */\n      lt\n        /* \"#utility.yul\":502:740   */\n      iszero\n      tag_49\n      jumpi\n        /* \"#utility.yul\":595:598   */\n      dup2\n        /* \"#utility.yul\":624:661   */\n      tag_50\n        /* \"#utility.yul\":657:660   */\n      dup9\n        /* \"#utility.yul\":645:655   */\n      dup3\n        /* \"#utility.yul\":624:661   */\n      tag_51\n      jump\t// in\n    tag_50:\n        /* \"#utility.yul\":619:622   */\n      dup5\n        /* \"#utility.yul\":612:662   */\n      mstore\n        /* \"#utility.yul\":691:695   */\n      0x20\n        /* \"#utility.yul\":686:689   */\n      dup5\n        /* \"#utility.yul\":682:696   */\n      add\n        /* \"#utility.yul\":675:696   */\n      swap4\n      pop\n        /* \"#utility.yul\":725:729   */\n      0x20\n        /* \"#utility.yul\":720:723   */\n      dup4\n        /* \"#utility.yul\":716:730   */\n      add\n        /* \"#utility.yul\":709:730   */\n      swap3\n      pop\n        /* \"#utility.yul\":562:740   */\n      pop\n        /* \"#utility.yul\":549:550   */\n      0x01\n        /* \"#utility.yul\":546:547   */\n      dup2\n        /* \"#utility.yul\":542:551   */\n      add\n        /* \"#utility.yul\":537:551   */\n      swap1\n      pop\n        /* \"#utility.yul\":502:740   */\n      jump(tag_47)\n    tag_49:\n        /* \"#utility.yul\":506:520   */\n      pop\n        /* \"#utility.yul\":126:746   */\n      pop\n      pop\n        /* \"#utility.yul\":24:746   */\n      swap4\n      swap3\n      pop\n      pop\n      pop\n      jump\t// out\n        /* \"#utility.yul\":769:1139   */\n    tag_52:\n        /* \"#utility.yul\":840:845   */\n      0x00\n        /* \"#utility.yul\":889:892   */\n      dup3\n        /* \"#utility.yul\":882:886   */\n      0x1f\n        /* \"#utility.yul\":874:880   */\n      dup4\n        /* \"#utility.yul\":870:887   */\n      add\n        /* \"#utility.yul\":866:893   */\n      slt\n        /* \"#utility.yul\":856:978   */\n      tag_54\n      jumpi\n        /* \"#utility.yul\":897:976   */\n      tag_55\n      tag_56\n      jump\t// in\n    tag_55:\n        /* \"#utility.yul\":856:978   */\n    tag_54:\n        /* \"#utility.yul\":1014:1020   */\n      dup2\n        /* \"#utility.yul\":1001:1021   */\n      calldataload\n        /* \"#utility.yul\":1039:1133   */\n      tag_57\n        /* \"#utility.yul\":1129:1132   */\n      dup5\n        /* \"#utility.yul\":1121:1127   */\n      dup3\n        /* \"#utility.yul\":1114:1118   */\n      0x20\n        /* \"#utility.yul\":1106:1112   */\n      dup7\n        /* \"#utility.yul\":1102:1119   */\n      add\n        /* \"#utility.yul\":1039:1133   */\n      tag_38\n      jump\t// in\n    tag_57:\n        /* \"#utility.yul\":1030:1133   */\n      swap2\n      pop\n        /* \"#utility.yul\":846:1139   */\n      pop\n        /* \"#utility.yul\":769:1139   */\n      swap3\n      swap2\n      pop\n      pop\n      jump\t// out\n        /* \"#utility.yul\":1145:1284   */\n    tag_51:\n        /* \"#utility.yul\":1191:1196   */\n      0x00\n        /* \"#utility.yul\":1229:1235   */\n      dup2\n        /* \"#utility.yul\":1216:1236   */\n      calldataload\n        /* \"#utility.yul\":1207:1236   */\n      swap1\n      pop\n        /* \"#utility.yul\":1245:1278   */\n      tag_59\n        /* \"#utility.yul\":1272:1277   */\n      dup2\n        /* \"#utility.yul\":1245:1278   */\n      tag_60\n      jump\t// in\n    tag_59:\n        /* \"#utility.yul\":1145:1284   */\n      swap3\n      swap2\n      pop\n      pop\n      jump\t// out\n        /* \"#utility.yul\":1290:1619   */\n    tag_16:\n        /* \"#utility.yul\":1349:1355   */\n      0x00\n        /* \"#utility.yul\":1398:1400   */\n      0x20\n        /* \"#utility.yul\":1386:1395   */\n      dup3\n        /* \"#utility.yul\":1377:1384   */\n      dup5\n        /* \"#utility.yul\":1373:1396   */\n      sub\n        /* \"#utility.yul\":1369:1401   */\n      slt\n        /* \"#utility.yul\":1366:1485   */\n      iszero\n      tag_62\n      jumpi\n        /* \"#utility.yul\":1404:1483   */\n      tag_63\n      tag_64\n      jump\t// in\n    tag_63:\n        /* \"#utility.yul\":1366:1485   */\n    tag_62:\n        /* \"#utility.yul\":1524:1525   */\n      0x00\n        /* \"#utility.yul\":1549:1602   */\n      tag_65\n        /* \"#utility.yul\":1594:1601   */\n      dup5\n        /* \"#utility.yul\":1585:1591   */\n      dup3\n        /* \"#utility.yul\":1574:1583   */\n      dup6\n        /* \"#utility.yul\":1570:1592   */\n      add\n        /* \"#utility.yul\":1549:1602   */\n      tag_51\n      jump\t// in\n    tag_65:\n        /* \"#utility.yul\":1539:1602   */\n      swap2\n      pop\n        /* \"#utility.yul\":1495:1612   */\n      pop\n        /* \"#utility.yul\":1290:1619   */\n      swap3\n      swap2\n      pop\n      pop\n      jump\t// out\n        /* \"#utility.yul\":1625:2309   */\n    tag_8:\n        /* \"#utility.yul\":1718:1724   */\n      0x00\n        /* \"#utility.yul\":1726:1732   */\n      dup1\n        /* \"#utility.yul\":1775:1777   */\n      0x40\n        /* \"#utility.yul\":1763:1772   */\n      dup4\n        /* \"#utility.yul\":1754:1761   */\n      dup6\n        /* \"#utility.yul\":1750:1773   */\n      sub\n        /* \"#utility.yul\":1746:1778   */\n      slt\n        /* \"#utility.yul\":1743:1862   */\n      iszero\n      tag_67\n      jumpi\n        /* \"#utility.yul\":1781:1860   */\n      tag_68\n      tag_64\n      jump\t// in\n    tag_68:\n        /* \"#utility.yul\":1743:1862   */\n    tag_67:\n        /* \"#utility.yul\":1901:1902   */\n      0x00\n        /* \"#utility.yul\":1926:1979   */\n      tag_69\n        /* \"#utility.yul\":1971:1978   */\n      dup6\n        /* \"#utility.yul\":1962:1968   */\n      dup3\n        /* \"#utility.yul\":1951:1960   */\n      dup7\n        /* \"#utility.yul\":1947:1969   */\n      add\n        /* \"#utility.yul\":1926:1979   */\n      tag_51\n      jump\t// in\n    tag_69:\n        /* \"#utility.yul\":1916:1979   */\n      swap3\n      pop\n        /* \"#utility.yul\":1872:1989   */\n      pop\n        /* \"#utility.yul\":2056:2058   */\n      0x20\n        /* \"#utility.yul\":2045:2054   */\n      dup4\n        /* \"#utility.yul\":2041:2059   */\n      add\n        /* \"#utility.yul\":2028:2060   */\n      calldataload\n        /* \"#utility.yul\":2087:2105   */\n      0xffffffffffffffff\n        /* \"#utility.yul\":2079:2085   */\n      dup2\n        /* \"#utility.yul\":2076:2106   */\n      gt\n        /* \"#utility.yul\":2073:2190   */\n      iszero\n      tag_70\n      jumpi\n        /* \"#utility.yul\":2109:2188   */\n      tag_71\n      tag_72\n      jump\t// in\n    tag_71:\n        /* \"#utility.yul\":2073:2190   */\n    tag_70:\n        /* \"#utility.yul\":2214:2292   */\n      tag_73\n        /* \"#utility.yul\":2284:2291   */\n      dup6\n        /* \"#utility.yul\":2275:2281   */\n      dup3\n        /* \"#utility.yul\":2264:2273   */\n      dup7\n        /* \"#utility.yul\":2260:2282   */\n      add\n        /* \"#utility.yul\":2214:2292   */\n      tag_52\n      jump\t// in\n    tag_73:\n        /* \"#utility.yul\":2204:2292   */\n      swap2\n      pop\n        /* \"#utility.yul\":1999:2302   */\n      pop\n        /* \"#utility.yul\":1625:2309   */\n      swap3\n      pop\n      swap3\n      swap1\n      pop\n      jump\t// out\n        /* \"#utility.yul\":2315:2433   */\n    tag_74:\n        /* \"#utility.yul\":2402:2426   */\n      tag_76\n        /* \"#utility.yul\":2420:2425   */\n      dup2\n        /* \"#utility.yul\":2402:2426   */\n      tag_77\n      jump\t// in\n    tag_76:\n        /* \"#utility.yul\":2397:2400   */\n      dup3\n        /* \"#utility.yul\":2390:2427   */\n      mstore\n        /* \"#utility.yul\":2315:2433   */\n      pop\n      pop\n      jump\t// out\n        /* \"#utility.yul\":2439:2557   */\n    tag_78:\n        /* \"#utility.yul\":2526:2550   */\n      tag_80\n        /* \"#utility.yul\":2544:2549   */\n      dup2\n        /* \"#utility.yul\":2526:2550   */\n      tag_81\n      jump\t// in\n    tag_80:\n        /* \"#utility.yul\":2521:2524   */\n      dup3\n        /* \"#utility.yul\":2514:2551   */\n      mstore\n        /* \"#utility.yul\":2439:2557   */\n      pop\n      pop\n      jump\t// out\n        /* \"#utility.yul\":2563:2895   */\n    tag_22:\n        /* \"#utility.yul\":2684:2688   */\n      0x00\n        /* \"#utility.yul\":2722:2724   */\n      0x40\n        /* \"#utility.yul\":2711:2720   */\n      dup3\n        /* \"#utility.yul\":2707:2725   */\n      add\n        /* \"#utility.yul\":2699:2725   */\n      swap1\n      pop\n        /* \"#utility.yul\":2735:2806   */\n      tag_83\n        /* \"#utility.yul\":2803:2804   */\n      0x00\n        /* \"#utility.yul\":2792:2801   */\n      dup4\n        /* \"#utility.yul\":2788:2805   */\n      add\n        /* \"#utility.yul\":2779:2785   */\n      dup6\n        /* \"#utility.yul\":2735:2806   */\n      tag_74\n      jump\t// in\n    tag_83:\n        /* \"#utility.yul\":2816:2888   */\n      tag_84\n        /* \"#utility.yul\":2884:2886   */\n      0x20\n        /* \"#utility.yul\":2873:2882   */\n      dup4\n        /* \"#utility.yul\":2869:2887   */\n      add\n        /* \"#utility.yul\":2860:2866   */\n      dup5\n        /* \"#utility.yul\":2816:2888   */\n      tag_74\n      jump\t// in\n    tag_84:\n        /* \"#utility.yul\":2563:2895   */\n      swap4\n      swap3\n      pop\n      pop\n      pop\n      jump\t// out\n        /* \"#utility.yul\":2901:3123   */\n    tag_13:\n        /* \"#utility.yul\":2994:2998   */\n      0x00\n        /* \"#utility.yul\":3032:3034   */\n      0x20\n        /* \"#utility.yul\":3021:3030   */\n      dup3\n        /* \"#utility.yul\":3017:3035   */\n      add\n        /* \"#utility.yul\":3009:3035   */\n      swap1\n      pop\n        /* \"#utility.yul\":3045:3116   */\n      tag_86\n        /* \"#utility.yul\":3113:3114   */\n      0x00\n        /* \"#utility.yul\":3102:3111   */\n      dup4\n        /* \"#utility.yul\":3098:3115   */\n      add\n        /* \"#utility.yul\":3089:3095   */\n      dup5\n        /* \"#utility.yul\":3045:3116   */\n      tag_78\n      jump\t// in\n    tag_86:\n        /* \"#utility.yul\":2901:3123   */\n      swap3\n      swap2\n      pop\n      pop\n      jump\t// out\n        /* \"#utility.yul\":3129:3258   */\n    tag_43:\n        /* \"#utility.yul\":3163:3169   */\n      0x00\n        /* \"#utility.yul\":3190:3210   */\n      tag_88\n      tag_89\n      jump\t// in\n    tag_88:\n        /* \"#utility.yul\":3180:3210   */\n      swap1\n      pop\n        /* \"#utility.yul\":3219:3252   */\n      tag_90\n        /* \"#utility.yul\":3247:3251   */\n      dup3\n        /* \"#utility.yul\":3239:3245   */\n      dup3\n        /* \"#utility.yul\":3219:3252   */\n      tag_91\n      jump\t// in\n    tag_90:\n        /* \"#utility.yul\":3129:3258   */\n      swap2\n      swap1\n      pop\n      jump\t// out\n        /* \"#utility.yul\":3264:3339   */\n    tag_89:\n        /* \"#utility.yul\":3297:3303   */\n      0x00\n        /* \"#utility.yul\":3330:3332   */\n      0x40\n        /* \"#utility.yul\":3324:3333   */\n      mload\n        /* \"#utility.yul\":3314:3333   */\n      swap1\n      pop\n        /* \"#utility.yul\":3264:3339   */\n      swap1\n      jump\t// out\n        /* \"#utility.yul\":3345:3656   */\n    tag_42:\n        /* \"#utility.yul\":3422:3426   */\n      0x00\n        /* \"#utility.yul\":3512:3530   */\n      0xffffffffffffffff\n        /* \"#utility.yul\":3504:3510   */\n      dup3\n        /* \"#utility.yul\":3501:3531   */\n      gt\n        /* \"#utility.yul\":3498:3554   */\n      iszero\n      tag_94\n      jumpi\n        /* \"#utility.yul\":3534:3552   */\n      tag_95\n      tag_96\n      jump\t// in\n    tag_95:\n        /* \"#utility.yul\":3498:3554   */\n    tag_94:\n        /* \"#utility.yul\":3584:3588   */\n      0x20\n        /* \"#utility.yul\":3576:3582   */\n      dup3\n        /* \"#utility.yul\":3572:3589   */\n      mul\n        /* \"#utility.yul\":3564:3589   */\n      swap1\n      pop\n        /* \"#utility.yul\":3644:3648   */\n      0x20\n        /* \"#utility.yul\":3638:3642   */\n      dup2\n        /* \"#utility.yul\":3634:3649   */\n      add\n        /* \"#utility.yul\":3626:3649   */\n      swap1\n      pop\n        /* \"#utility.yul\":3345:3656   */\n      swap2\n      swap1\n      pop\n      jump\t// out\n        /* \"#utility.yul\":3662:3758   */\n    tag_77:\n        /* \"#utility.yul\":3699:3706   */\n      0x00\n        /* \"#utility.yul\":3728:3752   */\n      tag_98\n        /* \"#utility.yul\":3746:3751   */\n      dup3\n        /* \"#utility.yul\":3728:3752   */\n      tag_99\n      jump\t// in\n    tag_98:\n        /* \"#utility.yul\":3717:3752   */\n      swap1\n      pop\n        /* \"#utility.yul\":3662:3758   */\n      swap2\n      swap1\n      pop\n      jump\t// out\n        /* \"#utility.yul\":3764:3890   */\n    tag_99:\n        /* \"#utility.yul\":3801:3808   */\n      0x00\n        /* \"#utility.yul\":3841:3883   */\n      0xffffffffffffffffffffffffffffffffffffffff\n        /* \"#utility.yul\":3834:3839   */\n      dup3\n        /* \"#utility.yul\":3830:3884   */\n      and\n        /* \"#utility.yul\":3819:3884   */\n      swap1\n      pop\n        /* \"#utility.yul\":3764:3890   */\n      swap2\n      swap1\n      pop\n      jump\t// out\n        /* \"#utility.yul\":3896:3973   */\n    tag_81:\n        /* \"#utility.yul\":3933:3940   */\n      0x00\n        /* \"#utility.yul\":3962:3967   */\n      dup2\n        /* \"#utility.yul\":3951:3967   */\n      swap1\n      pop\n        /* \"#utility.yul\":3896:3973   */\n      swap2\n      swap1\n      pop\n      jump\t// out\n        /* \"#utility.yul\":3979:4260   */\n    tag_91:\n        /* \"#utility.yul\":4062:4089   */\n      tag_103\n        /* \"#utility.yul\":4084:4088   */\n      dup3\n        /* \"#utility.yul\":4062:4089   */\n      tag_104\n      jump\t// in\n    tag_103:\n        /* \"#utility.yul\":4054:4060   */\n      dup2\n        /* \"#utility.yul\":4050:4090   */\n      add\n        /* \"#utility.yul\":4192:4198   */\n      dup2\n        /* \"#utility.yul\":4180:4190   */\n      dup2\n        /* \"#utility.yul\":4177:4199   */\n      lt\n        /* \"#utility.yul\":4156:4174   */\n      0xffffffffffffffff\n        /* \"#utility.yul\":4144:4154   */\n      dup3\n        /* \"#utility.yul\":4141:4175   */\n      gt\n        /* \"#utility.yul\":4138:4200   */\n      or\n        /* \"#utility.yul\":4135:4223   */\n      iszero\n      tag_105\n      jumpi\n        /* \"#utility.yul\":4203:4221   */\n      tag_106\n      tag_96\n      jump\t// in\n    tag_106:\n        /* \"#utility.yul\":4135:4223   */\n    tag_105:\n        /* \"#utility.yul\":4243:4253   */\n      dup1\n        /* \"#utility.yul\":4239:4241   */\n      0x40\n        /* \"#utility.yul\":4232:4254   */\n      mstore\n        /* \"#utility.yul\":4022:4260   */\n      pop\n        /* \"#utility.yul\":3979:4260   */\n      pop\n      pop\n      jump\t// out\n        /* \"#utility.yul\":4266:4446   */\n    tag_96:\n        /* \"#utility.yul\":4314:4391   */\n      0x4e487b7100000000000000000000000000000000000000000000000000000000\n        /* \"#utility.yul\":4311:4312   */\n      0x00\n        /* \"#utility.yul\":4304:4392   */\n      mstore\n        /* \"#utility.yul\":4411:4415   */\n      0x41\n        /* \"#utility.yul\":4408:4409   */\n      0x04\n        /* \"#utility.yul\":4401:4416   */\n      mstore\n        /* \"#utility.yul\":4435:4439   */\n      0x24\n        /* \"#utility.yul\":4432:4433   */\n      0x00\n        /* \"#utility.yul\":4425:4440   */\n      revert\n        /* \"#utility.yul\":4452:4569   */\n    tag_56:\n        /* \"#utility.yul\":4561:4562   */\n      0x00\n        /* \"#utility.yul\":4558:4559   */\n      dup1\n        /* \"#utility.yul\":4551:4563   */\n      revert\n        /* \"#utility.yul\":4575:4692   */\n    tag_46:\n        /* \"#utility.yul\":4684:4685   */\n      0x00\n        /* \"#utility.yul\":4681:4682   */\n      dup1\n        /* \"#utility.yul\":4674:4686   */\n      revert\n        /* \"#utility.yul\":4698:4815   */\n    tag_72:\n        /* \"#utility.yul\":4807:4808   */\n      0x00\n        /* \"#utility.yul\":4804:4805   */\n      dup1\n        /* \"#utility.yul\":4797:4809   */\n      revert\n        /* \"#utility.yul\":4821:4938   */\n    tag_64:\n        /* \"#utility.yul\":4930:4931   */\n      0x00\n        /* \"#utility.yul\":4927:4928   */\n      dup1\n        /* \"#utility.yul\":4920:4932   */\n      revert\n        /* \"#utility.yul\":4944:5046   */\n    tag_104:\n        /* \"#utility.yul\":4985:4991   */\n      0x00\n        /* \"#utility.yul\":5036:5038   */\n      0x1f\n        /* \"#utility.yul\":5032:5039   */\n      not\n        /* \"#utility.yul\":5027:5029   */\n      0x1f\n        /* \"#utility.yul\":5020:5025   */\n      dup4\n        /* \"#utility.yul\":5016:5030   */\n      add\n        /* \"#utility.yul\":5012:5040   */\n      and\n        /* \"#utility.yul\":5002:5040   */\n      swap1\n      pop\n        /* \"#utility.yul\":4944:5046   */\n      swap2\n      swap1\n      pop\n      jump\t// out\n        /* \"#utility.yul\":5052:5174   */\n    tag_60:\n        /* \"#utility.yul\":5125:5149   */\n      tag_114\n        /* \"#utility.yul\":5143:5148   */\n      dup2\n        /* \"#utility.yul\":5125:5149   */\n      tag_81\n      jump\t// in\n    tag_114:\n        /* \"#utility.yul\":5118:5123   */\n      dup2\n        /* \"#utility.yul\":5115:5150   */\n      eq\n        /* \"#utility.yul\":5105:5168   */\n      tag_115\n      jumpi\n        /* \"#utility.yul\":5164:5165   */\n      0x00\n        /* \"#utility.yul\":5161:5162   */\n      dup1\n        /* \"#utility.yul\":5154:5166   */\n      revert\n        /* \"#utility.yul\":5105:5168   */\n    tag_115:\n        /* \"#utility.yul\":5052:5174   */\n      pop\n      jump\t// out\n\n    auxdata: 0xa2646970667358221220a9330c5f4b8d588fd6ad2d8b4cde19b11b7ea4c62b42975344b5053ecce334a964736f6c63430008070033\n}\n",
				"bytecode": {
					"linkReferences": {},
					"object": "60a0604052732ca8e0c643bde4c2e08ab1fa0da3401adad7734d600260006101000a81548173ffffffffffffffffffffffffffffffffffffffff021916908373ffffffffffffffffffffffffffffffffffffffff1602179055507f79d3d8832d904592c0bf9818b621522c988bb8b0c05cdc3b15aea1b6e8db0c1560001b6003556003600460006101000a81548161ffff021916908361ffff160217905550620186a0600460026101000a81548163ffffffff021916908363ffffffff1602179055506003600460066101000a81548163ffffffff021916908363ffffffff1602179055503480156100f057600080fd5b506040516107b03803806107b083398181016040528101906101129190610213565b600260009054906101000a900473ffffffffffffffffffffffffffffffffffffffff168073ffffffffffffffffffffffffffffffffffffffff1660808173ffffffffffffffffffffffffffffffffffffffff1660601b8152505050600260009054906101000a900473ffffffffffffffffffffffffffffffffffffffff166000806101000a81548173ffffffffffffffffffffffffffffffffffffffff021916908373ffffffffffffffffffffffffffffffffffffffff16021790555080600060146101000a81548167ffffffffffffffff021916908367ffffffffffffffff16021790555050610270565b60008151905061020d81610259565b92915050565b60006020828403121561022957610228610254565b5b6000610237848285016101fe565b91505092915050565b600067ffffffffffffffff82169050919050565b600080fd5b61026281610240565b811461026d57600080fd5b50565b60805160601c61051c6102946000396000818160b20152610106015261051c6000f3fe608060405234801561001057600080fd5b50600436106100415760003560e01c80631fe543e3146100465780638f77920114610062578063f6eaffc814610080575b600080fd5b610060600480360381019061005b91906102ff565b6100b0565b005b61006a610170565b60405161007791906103a2565b60405180910390f35b61009a600480360381019061009591906102d2565b610176565b6040516100a791906103a2565b60405180910390f35b7f000000000000000000000000000000000000000000000000000000000000000073ffffffffffffffffffffffffffffffffffffffff163373ffffffffffffffffffffffffffffffffffffffff161461016257337f00000000000000000000000000000000000000000000000000000000000000006040517f1cf993f4000000000000000000000000000000000000000000000000000000008152600401610159929190610379565b60405180910390fd5b61016c828261019a565b5050565b60065481565b6005818154811061018657600080fd5b906000526020600020016000915090505481565b80600590805190602001906101b09291906101b5565b505050565b8280548282559060005260206000209081019282156101f1579160200282015b828111156101f05782518255916020019190600101906101d5565b5b5090506101fe9190610202565b5090565b5b8082111561021b576000816000905550600101610203565b5090565b600061023261022d846103e2565b6103bd565b90508083825260208201905082856020860282011115610255576102546104af565b5b60005b85811015610285578161026b88826102bd565b845260208401935060208301925050600181019050610258565b5050509392505050565b600082601f8301126102a4576102a36104aa565b5b81356102b484826020860161021f565b91505092915050565b6000813590506102cc816104cf565b92915050565b6000602082840312156102e8576102e76104b9565b5b60006102f6848285016102bd565b91505092915050565b60008060408385031215610316576103156104b9565b5b6000610324858286016102bd565b925050602083013567ffffffffffffffff811115610345576103446104b4565b5b6103518582860161028f565b9150509250929050565b6103648161040e565b82525050565b61037381610440565b82525050565b600060408201905061038e600083018561035b565b61039b602083018461035b565b9392505050565b60006020820190506103b7600083018461036a565b92915050565b60006103c76103d8565b90506103d3828261044a565b919050565b6000604051905090565b600067ffffffffffffffff8211156103fd576103fc61047b565b5b602082029050602081019050919050565b600061041982610420565b9050919050565b600073ffffffffffffffffffffffffffffffffffffffff82169050919050565b6000819050919050565b610453826104be565b810181811067ffffffffffffffff821117156104725761047161047b565b5b80604052505050565b7f4e487b7100000000000000000000000000000000000000000000000000000000600052604160045260246000fd5b600080fd5b600080fd5b600080fd5b600080fd5b6000601f19601f8301169050919050565b6104d881610440565b81146104e357600080fd5b5056fea2646970667358221220a9330c5f4b8d588fd6ad2d8b4cde19b11b7ea4c62b42975344b5053ecce334a964736f6c63430008070033",
					"opcodes": "PUSH1 0xA0 PUSH1 0x40 MSTORE PUSH20 0x2CA8E0C643BDE4C2E08AB1FA0DA3401ADAD7734D PUSH1 0x2 PUSH1 0x0 PUSH2 0x100 EXP DUP2 SLOAD DUP2 PUSH20 0xFFFFFFFFFFFFFFFFFFFFFFFFFFFFFFFFFFFFFFFF MUL NOT AND SWAP1 DUP4 PUSH20 0xFFFFFFFFFFFFFFFFFFFFFFFFFFFFFFFFFFFFFFFF AND MUL OR SWAP1 SSTORE POP PUSH32 0x79D3D8832D904592C0BF9818B621522C988BB8B0C05CDC3B15AEA1B6E8DB0C15 PUSH1 0x0 SHL PUSH1 0x3 SSTORE PUSH1 0x3 PUSH1 0x4 PUSH1 0x0 PUSH2 0x100 EXP DUP2 SLOAD DUP2 PUSH2 0xFFFF MUL NOT AND SWAP1 DUP4 PUSH2 0xFFFF AND MUL OR SWAP1 SSTORE POP PUSH3 0x186A0 PUSH1 0x4 PUSH1 0x2 PUSH2 0x100 EXP DUP2 SLOAD DUP2 PUSH4 0xFFFFFFFF MUL NOT AND SWAP1 DUP4 PUSH4 0xFFFFFFFF AND MUL OR SWAP1 SSTORE POP PUSH1 0x3 PUSH1 0x4 PUSH1 0x6 PUSH2 0x100 EXP DUP2 SLOAD DUP2 PUSH4 0xFFFFFFFF MUL NOT AND SWAP1 DUP4 PUSH4 0xFFFFFFFF AND MUL OR SWAP1 SSTORE POP CALLVALUE DUP1 ISZERO PUSH2 0xF0 JUMPI PUSH1 0x0 DUP1 REVERT JUMPDEST POP PUSH1 0x40 MLOAD PUSH2 0x7B0 CODESIZE SUB DUP1 PUSH2 0x7B0 DUP4 CODECOPY DUP2 DUP2 ADD PUSH1 0x40 MSTORE DUP2 ADD SWAP1 PUSH2 0x112 SWAP2 SWAP1 PUSH2 0x213 JUMP JUMPDEST PUSH1 0x2 PUSH1 0x0 SWAP1 SLOAD SWAP1 PUSH2 0x100 EXP SWAP1 DIV PUSH20 0xFFFFFFFFFFFFFFFFFFFFFFFFFFFFFFFFFFFFFFFF AND DUP1 PUSH20 0xFFFFFFFFFFFFFFFFFFFFFFFFFFFFFFFFFFFFFFFF AND PUSH1 0x80 DUP2 PUSH20 0xFFFFFFFFFFFFFFFFFFFFFFFFFFFFFFFFFFFFFFFF AND PUSH1 0x60 SHL DUP2 MSTORE POP POP POP PUSH1 0x2 PUSH1 0x0 SWAP1 SLOAD SWAP1 PUSH2 0x100 EXP SWAP1 DIV PUSH20 0xFFFFFFFFFFFFFFFFFFFFFFFFFFFFFFFFFFFFFFFF AND PUSH1 0x0 DUP1 PUSH2 0x100 EXP DUP2 SLOAD DUP2 PUSH20 0xFFFFFFFFFFFFFFFFFFFFFFFFFFFFFFFFFFFFFFFF MUL NOT AND SWAP1 DUP4 PUSH20 0xFFFFFFFFFFFFFFFFFFFFFFFFFFFFFFFFFFFFFFFF AND MUL OR SWAP1 SSTORE POP DUP1 PUSH1 0x0 PUSH1 0x14 PUSH2 0x100 EXP DUP2 SLOAD DUP2 PUSH8 0xFFFFFFFFFFFFFFFF MUL NOT AND SWAP1 DUP4 PUSH8 0xFFFFFFFFFFFFFFFF AND MUL OR SWAP1 SSTORE POP POP PUSH2 0x270 JUMP JUMPDEST PUSH1 0x0 DUP2 MLOAD SWAP1 POP PUSH2 0x20D DUP2 PUSH2 0x259 JUMP JUMPDEST SWAP3 SWAP2 POP POP JUMP JUMPDEST PUSH1 0x0 PUSH1 0x20 DUP3 DUP5 SUB SLT ISZERO PUSH2 0x229 JUMPI PUSH2 0x228 PUSH2 0x254 JUMP JUMPDEST JUMPDEST PUSH1 0x0 PUSH2 0x237 DUP5 DUP3 DUP6 ADD PUSH2 0x1FE JUMP JUMPDEST SWAP2 POP POP SWAP3 SWAP2 POP POP JUMP JUMPDEST PUSH1 0x0 PUSH8 0xFFFFFFFFFFFFFFFF DUP3 AND SWAP1 POP SWAP2 SWAP1 POP JUMP JUMPDEST PUSH1 0x0 DUP1 REVERT JUMPDEST PUSH2 0x262 DUP2 PUSH2 0x240 JUMP JUMPDEST DUP2 EQ PUSH2 0x26D JUMPI PUSH1 0x0 DUP1 REVERT JUMPDEST POP JUMP JUMPDEST PUSH1 0x80 MLOAD PUSH1 0x60 SHR PUSH2 0x51C PUSH2 0x294 PUSH1 0x0 CODECOPY PUSH1 0x0 DUP2 DUP2 PUSH1 0xB2 ADD MSTORE PUSH2 0x106 ADD MSTORE PUSH2 0x51C PUSH1 0x0 RETURN INVALID PUSH1 0x80 PUSH1 0x40 MSTORE CALLVALUE DUP1 ISZERO PUSH2 0x10 JUMPI PUSH1 0x0 DUP1 REVERT JUMPDEST POP PUSH1 0x4 CALLDATASIZE LT PUSH2 0x41 JUMPI PUSH1 0x0 CALLDATALOAD PUSH1 0xE0 SHR DUP1 PUSH4 0x1FE543E3 EQ PUSH2 0x46 JUMPI DUP1 PUSH4 0x8F779201 EQ PUSH2 0x62 JUMPI DUP1 PUSH4 0xF6EAFFC8 EQ PUSH2 0x80 JUMPI JUMPDEST PUSH1 0x0 DUP1 REVERT JUMPDEST PUSH2 0x60 PUSH1 0x4 DUP1 CALLDATASIZE SUB DUP2 ADD SWAP1 PUSH2 0x5B SWAP2 SWAP1 PUSH2 0x2FF JUMP JUMPDEST PUSH2 0xB0 JUMP JUMPDEST STOP JUMPDEST PUSH2 0x6A PUSH2 0x170 JUMP JUMPDEST PUSH1 0x40 MLOAD PUSH2 0x77 SWAP2 SWAP1 PUSH2 0x3A2 JUMP JUMPDEST PUSH1 0x40 MLOAD DUP1 SWAP2 SUB SWAP1 RETURN JUMPDEST PUSH2 0x9A PUSH1 0x4 DUP1 CALLDATASIZE SUB DUP2 ADD SWAP1 PUSH2 0x95 SWAP2 SWAP1 PUSH2 0x2D2 JUMP JUMPDEST PUSH2 0x176 JUMP JUMPDEST PUSH1 0x40 MLOAD PUSH2 0xA7 SWAP2 SWAP1 PUSH2 0x3A2 JUMP JUMPDEST PUSH1 0x40 MLOAD DUP1 SWAP2 SUB SWAP1 RETURN JUMPDEST PUSH32 0x0 PUSH20 0xFFFFFFFFFFFFFFFFFFFFFFFFFFFFFFFFFFFFFFFF AND CALLER PUSH20 0xFFFFFFFFFFFFFFFFFFFFFFFFFFFFFFFFFFFFFFFF AND EQ PUSH2 0x162 JUMPI CALLER PUSH32 0x0 PUSH1 0x40 MLOAD PUSH32 0x1CF993F400000000000000000000000000000000000000000000000000000000 DUP2 MSTORE PUSH1 0x4 ADD PUSH2 0x159 SWAP3 SWAP2 SWAP1 PUSH2 0x379 JUMP JUMPDEST PUSH1 0x40 MLOAD DUP1 SWAP2 SUB SWAP1 REVERT JUMPDEST PUSH2 0x16C DUP3 DUP3 PUSH2 0x19A JUMP JUMPDEST POP POP JUMP JUMPDEST PUSH1 0x6 SLOAD DUP2 JUMP JUMPDEST PUSH1 0x5 DUP2 DUP2 SLOAD DUP2 LT PUSH2 0x186 JUMPI PUSH1 0x0 DUP1 REVERT JUMPDEST SWAP1 PUSH1 0x0 MSTORE PUSH1 0x20 PUSH1 0x0 KECCAK256 ADD PUSH1 0x0 SWAP2 POP SWAP1 POP SLOAD DUP2 JUMP JUMPDEST DUP1 PUSH1 0x5 SWAP1 DUP1 MLOAD SWAP1 PUSH1 0x20 ADD SWAP1 PUSH2 0x1B0 SWAP3 SWAP2 SWAP1 PUSH2 0x1B5 JUMP JUMPDEST POP POP POP JUMP JUMPDEST DUP3 DUP1 SLOAD DUP3 DUP3 SSTORE SWAP1 PUSH1 0x0 MSTORE PUSH1 0x20 PUSH1 0x0 KECCAK256 SWAP1 DUP2 ADD SWAP3 DUP3 ISZERO PUSH2 0x1F1 JUMPI SWAP2 PUSH1 0x20 MUL DUP3 ADD JUMPDEST DUP3 DUP2 GT ISZERO PUSH2 0x1F0 JUMPI DUP3 MLOAD DUP3 SSTORE SWAP2 PUSH1 0x20 ADD SWAP2 SWAP1 PUSH1 0x1 ADD SWAP1 PUSH2 0x1D5 JUMP JUMPDEST JUMPDEST POP SWAP1 POP PUSH2 0x1FE SWAP2 SWAP1 PUSH2 0x202 JUMP JUMPDEST POP SWAP1 JUMP JUMPDEST JUMPDEST DUP1 DUP3 GT ISZERO PUSH2 0x21B JUMPI PUSH1 0x0 DUP2 PUSH1 0x0 SWAP1 SSTORE POP PUSH1 0x1 ADD PUSH2 0x203 JUMP JUMPDEST POP SWAP1 JUMP JUMPDEST PUSH1 0x0 PUSH2 0x232 PUSH2 0x22D DUP5 PUSH2 0x3E2 JUMP JUMPDEST PUSH2 0x3BD JUMP JUMPDEST SWAP1 POP DUP1 DUP4 DUP3 MSTORE PUSH1 0x20 DUP3 ADD SWAP1 POP DUP3 DUP6 PUSH1 0x20 DUP7 MUL DUP3 ADD GT ISZERO PUSH2 0x255 JUMPI PUSH2 0x254 PUSH2 0x4AF JUMP JUMPDEST JUMPDEST PUSH1 0x0 JUMPDEST DUP6 DUP2 LT ISZERO PUSH2 0x285 JUMPI DUP2 PUSH2 0x26B DUP9 DUP3 PUSH2 0x2BD JUMP JUMPDEST DUP5 MSTORE PUSH1 0x20 DUP5 ADD SWAP4 POP PUSH1 0x20 DUP4 ADD SWAP3 POP POP PUSH1 0x1 DUP2 ADD SWAP1 POP PUSH2 0x258 JUMP JUMPDEST POP POP POP SWAP4 SWAP3 POP POP POP JUMP JUMPDEST PUSH1 0x0 DUP3 PUSH1 0x1F DUP4 ADD SLT PUSH2 0x2A4 JUMPI PUSH2 0x2A3 PUSH2 0x4AA JUMP JUMPDEST JUMPDEST DUP2 CALLDATALOAD PUSH2 0x2B4 DUP5 DUP3 PUSH1 0x20 DUP7 ADD PUSH2 0x21F JUMP JUMPDEST SWAP2 POP POP SWAP3 SWAP2 POP POP JUMP JUMPDEST PUSH1 0x0 DUP2 CALLDATALOAD SWAP1 POP PUSH2 0x2CC DUP2 PUSH2 0x4CF JUMP JUMPDEST SWAP3 SWAP2 POP POP JUMP JUMPDEST PUSH1 0x0 PUSH1 0x20 DUP3 DUP5 SUB SLT ISZERO PUSH2 0x2E8 JUMPI PUSH2 0x2E7 PUSH2 0x4B9 JUMP JUMPDEST JUMPDEST PUSH1 0x0 PUSH2 0x2F6 DUP5 DUP3 DUP6 ADD PUSH2 0x2BD JUMP JUMPDEST SWAP2 POP POP SWAP3 SWAP2 POP POP JUMP JUMPDEST PUSH1 0x0 DUP1 PUSH1 0x40 DUP4 DUP6 SUB SLT ISZERO PUSH2 0x316 JUMPI PUSH2 0x315 PUSH2 0x4B9 JUMP JUMPDEST JUMPDEST PUSH1 0x0 PUSH2 0x324 DUP6 DUP3 DUP7 ADD PUSH2 0x2BD JUMP JUMPDEST SWAP3 POP POP PUSH1 0x20 DUP4 ADD CALLDATALOAD PUSH8 0xFFFFFFFFFFFFFFFF DUP2 GT ISZERO PUSH2 0x345 JUMPI PUSH2 0x344 PUSH2 0x4B4 JUMP JUMPDEST JUMPDEST PUSH2 0x351 DUP6 DUP3 DUP7 ADD PUSH2 0x28F JUMP JUMPDEST SWAP2 POP POP SWAP3 POP SWAP3 SWAP1 POP JUMP JUMPDEST PUSH2 0x364 DUP2 PUSH2 0x40E JUMP JUMPDEST DUP3 MSTORE POP POP JUMP JUMPDEST PUSH2 0x373 DUP2 PUSH2 0x440 JUMP JUMPDEST DUP3 MSTORE POP POP JUMP JUMPDEST PUSH1 0x0 PUSH1 0x40 DUP3 ADD SWAP1 POP PUSH2 0x38E PUSH1 0x0 DUP4 ADD DUP6 PUSH2 0x35B JUMP JUMPDEST PUSH2 0x39B PUSH1 0x20 DUP4 ADD DUP5 PUSH2 0x35B JUMP JUMPDEST SWAP4 SWAP3 POP POP POP JUMP JUMPDEST PUSH1 0x0 PUSH1 0x20 DUP3 ADD SWAP1 POP PUSH2 0x3B7 PUSH1 0x0 DUP4 ADD DUP5 PUSH2 0x36A JUMP JUMPDEST SWAP3 SWAP2 POP POP JUMP JUMPDEST PUSH1 0x0 PUSH2 0x3C7 PUSH2 0x3D8 JUMP JUMPDEST SWAP1 POP PUSH2 0x3D3 DUP3 DUP3 PUSH2 0x44A JUMP JUMPDEST SWAP2 SWAP1 POP JUMP JUMPDEST PUSH1 0x0 PUSH1 0x40 MLOAD SWAP1 POP SWAP1 JUMP JUMPDEST PUSH1 0x0 PUSH8 0xFFFFFFFFFFFFFFFF DUP3 GT ISZERO PUSH2 0x3FD JUMPI PUSH2 0x3FC PUSH2 0x47B JUMP JUMPDEST JUMPDEST PUSH1 0x20 DUP3 MUL SWAP1 POP PUSH1 0x20 DUP2 ADD SWAP1 POP SWAP2 SWAP1 POP JUMP JUMPDEST PUSH1 0x0 PUSH2 0x419 DUP3 PUSH2 0x420 JUMP JUMPDEST SWAP1 POP SWAP2 SWAP1 POP JUMP JUMPDEST PUSH1 0x0 PUSH20 0xFFFFFFFFFFFFFFFFFFFFFFFFFFFFFFFFFFFFFFFF DUP3 AND SWAP1 POP SWAP2 SWAP1 POP JUMP JUMPDEST PUSH1 0x0 DUP2 SWAP1 POP SWAP2 SWAP1 POP JUMP JUMPDEST PUSH2 0x453 DUP3 PUSH2 0x4BE JUMP JUMPDEST DUP2 ADD DUP2 DUP2 LT PUSH8 0xFFFFFFFFFFFFFFFF DUP3 GT OR ISZERO PUSH2 0x472 JUMPI PUSH2 0x471 PUSH2 0x47B JUMP JUMPDEST JUMPDEST DUP1 PUSH1 0x40 MSTORE POP POP POP JUMP JUMPDEST PUSH32 0x4E487B7100000000000000000000000000000000000000000000000000000000 PUSH1 0x0 MSTORE PUSH1 0x41 PUSH1 0x4 MSTORE PUSH1 0x24 PUSH1 0x0 REVERT JUMPDEST PUSH1 0x0 DUP1 REVERT JUMPDEST PUSH1 0x0 DUP1 REVERT JUMPDEST PUSH1 0x0 DUP1 REVERT JUMPDEST PUSH1 0x0 DUP1 REVERT JUMPDEST PUSH1 0x0 PUSH1 0x1F NOT PUSH1 0x1F DUP4 ADD AND SWAP1 POP SWAP2 SWAP1 POP JUMP JUMPDEST PUSH2 0x4D8 DUP2 PUSH2 0x440 JUMP JUMPDEST DUP2 EQ PUSH2 0x4E3 JUMPI PUSH1 0x0 DUP1 REVERT JUMPDEST POP JUMP INVALID LOG2 PUSH5 0x6970667358 0x22 SLT KECCAK256 0xA9 CALLER 0xC 0x5F 0x4B DUP14 PC DUP16 0xD6 0xAD 0x2D DUP12 0x4C 0xDE NOT 0xB1 SHL PUSH31 0xA4C62B42975344B5053ECCE334A964736F6C63430008070033000000000000 "
				},
				"gasEstimates": {
					"creation": {
						"codeDepositCost": "261600",
						"executionCost": "infinite",
						"totalCost": "infinite"
					},
					"external": {
						"rawFulfillRandomWords(uint256,uint256[])": "infinite",
						"requestID()": "2429",
						"s_randomWords(uint256)": "infinite"
					},
					"internal": {
						"fulfillRandomWords(uint256,uint256[] memory)": "infinite"
					}
				},
				"methodIdentifiers": {
					"rawFulfillRandomWords(uint256,uint256[])": "1fe543e3",
					"requestID()": "8f779201",
					"s_randomWords(uint256)": "f6eaffc8"
				}
			},
			"storageLayout": {
				"storage": [
					{
						"astId": 162,
						"contract": "chainlinkvrf/ChainlinkVrf.sol:ChainLinkVRFDemo",
						"label": "VRFInterface",
						"offset": 0,
						"slot": "0",
						"type": "t_contract(VRFCoordinatorV2Interface)153"
					},
					{
						"astId": 164,
						"contract": "chainlinkvrf/ChainlinkVrf.sol:ChainLinkVRFDemo",
						"label": "subId",
						"offset": 20,
						"slot": "0",
						"type": "t_uint64"
					},
					{
						"astId": 166,
						"contract": "chainlinkvrf/ChainlinkVrf.sol:ChainLinkVRFDemo",
						"label": "owner",
						"offset": 0,
						"slot": "1",
						"type": "t_address"
					},
					{
						"astId": 169,
						"contract": "chainlinkvrf/ChainlinkVrf.sol:ChainLinkVRFDemo",
						"label": "vrfCoordinatorAddr",
						"offset": 0,
						"slot": "2",
						"type": "t_address"
					},
					{
						"astId": 172,
						"contract": "chainlinkvrf/ChainlinkVrf.sol:ChainLinkVRFDemo",
						"label": "keyHash",
						"offset": 0,
						"slot": "3",
						"type": "t_bytes32"
					},
					{
						"astId": 175,
						"contract": "chainlinkvrf/ChainlinkVrf.sol:ChainLinkVRFDemo",
						"label": "requestConfirmations",
						"offset": 0,
						"slot": "4",
						"type": "t_uint16"
					},
					{
						"astId": 178,
						"contract": "chainlinkvrf/ChainlinkVrf.sol:ChainLinkVRFDemo",
						"label": "callbackGasLimit",
						"offset": 2,
						"slot": "4",
						"type": "t_uint32"
					},
					{
						"astId": 181,
						"contract": "chainlinkvrf/ChainlinkVrf.sol:ChainLinkVRFDemo",
						"label": "numWords",
						"offset": 6,
						"slot": "4",
						"type": "t_uint32"
					},
					{
						"astId": 184,
						"contract": "chainlinkvrf/ChainlinkVrf.sol:ChainLinkVRFDemo",
						"label": "s_randomWords",
						"offset": 0,
						"slot": "5",
						"type": "t_array(t_uint256)dyn_storage"
					},
					{
						"astId": 186,
						"contract": "chainlinkvrf/ChainlinkVrf.sol:ChainLinkVRFDemo",
						"label": "requestID",
						"offset": 0,
						"slot": "6",
						"type": "t_uint256"
					}
				],
				"types": {
					"t_address": {
						"encoding": "inplace",
						"label": "address",
						"numberOfBytes": "20"
					},
					"t_array(t_uint256)dyn_storage": {
						"base": "t_uint256",
						"encoding": "dynamic_array",
						"label": "uint256[]",
						"numberOfBytes": "32"
					},
					"t_bytes32": {
						"encoding": "inplace",
						"label": "bytes32",
						"numberOfBytes": "32"
					},
					"t_contract(VRFCoordinatorV2Interface)153": {
						"encoding": "inplace",
						"label": "contract VRFCoordinatorV2Interface",
						"numberOfBytes": "20"
					},
					"t_uint16": {
						"encoding": "inplace",
						"label": "uint16",
						"numberOfBytes": "2"
					},
					"t_uint256": {
						"encoding": "inplace",
						"label": "uint256",
						"numberOfBytes": "32"
					},
					"t_uint32": {
						"encoding": "inplace",
						"label": "uint32",
						"numberOfBytes": "4"
					},
					"t_uint64": {
						"encoding": "inplace",
						"label": "uint64",
						"numberOfBytes": "8"
					}
				}
			},
			"userdoc": {
				"kind": "user",
				"methods": {},
				"version": 1
			}
		}
	}
}