{
	"data": {
		"bytecode": {
			"linkReferences": {},
			"object": "608060405234801561001057600080fd5b50610714806100206000396000f3fe608060405234801561001057600080fd5b50600436106100365760003560e01c80638471af771461003b578063b4ff1c1314610057575b600080fd5b610055600480360381019061005091906101f9565b610087565b005b610071600480360381019061006c9190610239565b610183565b60405161007e91906102bc565b60405180910390f35b8181604051610095906101c2565b6100a0929190610293565b604051809103906000f0801580156100bc573d6000803e3d6000fd5b506000806101000a81548173ffffffffffffffffffffffffffffffffffffffff021916908373ffffffffffffffffffffffffffffffffffffffff160217905550600160008054906101000a900473ffffffffffffffffffffffffffffffffffffffff169080600181540180825580915050600190039060005260206000200160009091909190916101000a81548173ffffffffffffffffffffffffffffffffffffffff021916908373ffffffffffffffffffffffffffffffffffffffff1602179055505050565b6001818154811061019357600080fd5b906000526020600020016000915054906101000a900473ffffffffffffffffffffffffffffffffffffffff1681565b6103628061037d83390190565b6000813590506101de8161034e565b92915050565b6000813590506101f381610365565b92915050565b600080604083850312156102105761020f610349565b5b600061021e858286016101cf565b925050602061022f858286016101e4565b9150509250929050565b60006020828403121561024f5761024e610349565b5b600061025d848285016101e4565b91505092915050565b61026f816102d7565b82525050565b61027e81610313565b82525050565b61028d81610309565b82525050565b60006040820190506102a86000830185610266565b6102b56020830184610284565b9392505050565b60006020820190506102d16000830184610275565b92915050565b60006102e2826102e9565b9050919050565b600073ffffffffffffffffffffffffffffffffffffffff82169050919050565b6000819050919050565b600061031e82610325565b9050919050565b600061033082610337565b9050919050565b6000610342826102e9565b9050919050565b600080fd5b610357816102d7565b811461036257600080fd5b50565b61036e81610309565b811461037957600080fd5b5056fe608060405234801561001057600080fd5b50604051610362380380610362833981810160405281019061003291906100ec565b8060008190555081600160006101000a81548173ffffffffffffffffffffffffffffffffffffffff021916908373ffffffffffffffffffffffffffffffffffffffff16021790555033600260006101000a81548173ffffffffffffffffffffffffffffffffffffffff021916908373ffffffffffffffffffffffffffffffffffffffff160217905550505061019b565b6000815190506100d18161016d565b92915050565b6000815190506100e681610184565b92915050565b6000806040838503121561010357610102610168565b5b6000610111858286016100c2565b9250506020610122858286016100d7565b9150509250929050565b60006101378261013e565b9050919050565b600073ffffffffffffffffffffffffffffffffffffffff82169050919050565b6000819050919050565b600080fd5b6101768161012c565b811461018157600080fd5b50565b61018d8161015e565b811461019857600080fd5b50565b6101b8806101aa6000396000f3fe608060405234801561001057600080fd5b50600436106100415760003560e01c80638da5cb5b14610046578063d5f3948814610064578063d6b82fe314610082575b600080fd5b61004e6100a0565b60405161005b9190610110565b60405180910390f35b61006c6100c6565b6040516100799190610110565b60405180910390f35b61008a6100ec565b604051610097919061012b565b60405180910390f35b600160009054906101000a900473ffffffffffffffffffffffffffffffffffffffff1681565b600260009054906101000a900473ffffffffffffffffffffffffffffffffffffffff1681565b60005481565b6100fb81610146565b82525050565b61010a81610178565b82525050565b600060208201905061012560008301846100f2565b92915050565b60006020820190506101406000830184610101565b92915050565b600061015182610158565b9050919050565b600073ffffffffffffffffffffffffffffffffffffffff82169050919050565b600081905091905056fea264697066735822122016186383327c351121e1193243ff1b6366f4dcaabbb479f41073bca247c9262064736f6c63430008070033a2646970667358221220db993126b98c0c5e28edbc64d15d389f071ee121855ec6f50bc650805ac83fbe64736f6c63430008070033",
			"opcodes": "PUSH1 0x80 PUSH1 0x40 MSTORE CALLVALUE DUP1 ISZERO PUSH2 0x10 JUMPI PUSH1 0x0 DUP1 REVERT JUMPDEST POP PUSH2 0x714 DUP1 PUSH2 0x20 PUSH1 0x0 CODECOPY PUSH1 0x0 RETURN INVALID PUSH1 0x80 PUSH1 0x40 MSTORE CALLVALUE DUP1 ISZERO PUSH2 0x10 JUMPI PUSH1 0x0 DUP1 REVERT JUMPDEST POP PUSH1 0x4 CALLDATASIZE LT PUSH2 0x36 JUMPI PUSH1 0x0 CALLDATALOAD PUSH1 0xE0 SHR DUP1 PUSH4 0x8471AF77 EQ PUSH2 0x3B JUMPI DUP1 PUSH4 0xB4FF1C13 EQ PUSH2 0x57 JUMPI JUMPDEST PUSH1 0x0 DUP1 REVERT JUMPDEST PUSH2 0x55 PUSH1 0x4 DUP1 CALLDATASIZE SUB DUP2 ADD SWAP1 PUSH2 0x50 SWAP2 SWAP1 PUSH2 0x1F9 JUMP JUMPDEST PUSH2 0x87 JUMP JUMPDEST STOP JUMPDEST PUSH2 0x71 PUSH1 0x4 DUP1 CALLDATASIZE SUB DUP2 ADD SWAP1 PUSH2 0x6C SWAP2 SWAP1 PUSH2 0x239 JUMP JUMPDEST PUSH2 0x183 JUMP JUMPDEST PUSH1 0x40 MLOAD PUSH2 0x7E SWAP2 SWAP1 PUSH2 0x2BC JUMP JUMPDEST PUSH1 0x40 MLOAD DUP1 SWAP2 SUB SWAP1 RETURN JUMPDEST DUP2 DUP2 PUSH1 0x40 MLOAD PUSH2 0x95 SWAP1 PUSH2 0x1C2 JUMP JUMPDEST PUSH2 0xA0 SWAP3 SWAP2 SWAP1 PUSH2 0x293 JUMP JUMPDEST PUSH1 0x40 MLOAD DUP1 SWAP2 SUB SWAP1 PUSH1 0x0 CREATE DUP1 ISZERO DUP1 ISZERO PUSH2 0xBC JUMPI RETURNDATASIZE PUSH1 0x0 DUP1 RETURNDATACOPY RETURNDATASIZE PUSH1 0x0 REVERT JUMPDEST POP PUSH1 0x0 DUP1 PUSH2 0x100 EXP DUP2 SLOAD DUP2 PUSH20 0xFFFFFFFFFFFFFFFFFFFFFFFFFFFFFFFFFFFFFFFF MUL NOT AND SWAP1 DUP4 PUSH20 0xFFFFFFFFFFFFFFFFFFFFFFFFFFFFFFFFFFFFFFFF AND MUL OR SWAP1 SSTORE POP PUSH1 0x1 PUSH1 0x0 DUP1 SLOAD SWAP1 PUSH2 0x100 EXP SWAP1 DIV PUSH20 0xFFFFFFFFFFFFFFFFFFFFFFFFFFFFFFFFFFFFFFFF AND SWAP1 DUP1 PUSH1 0x1 DUP2 SLOAD ADD DUP1 DUP3 SSTORE DUP1 SWAP2 POP POP PUSH1 0x1 SWAP1 SUB SWAP1 PUSH1 0x0 MSTORE PUSH1 0x20 PUSH1 0x0 KECCAK256 ADD PUSH1 0x0 SWAP1 SWAP2 SWAP1 SWAP2 SWAP1 SWAP2 PUSH2 0x100 EXP DUP2 SLOAD DUP2 PUSH20 0xFFFFFFFFFFFFFFFFFFFFFFFFFFFFFFFFFFFFFFFF MUL NOT AND SWAP1 DUP4 PUSH20 0xFFFFFFFFFFFFFFFFFFFFFFFFFFFFFFFFFFFFFFFF AND MUL OR SWAP1 SSTORE POP POP POP JUMP JUMPDEST PUSH1 0x1 DUP2 DUP2 SLOAD DUP2 LT PUSH2 0x193 JUMPI PUSH1 0x0 DUP1 REVERT JUMPDEST SWAP1 PUSH1 0x0 MSTORE PUSH1 0x20 PUSH1 0x0 KECCAK256 ADD PUSH1 0x0 SWAP2 POP SLOAD SWAP1 PUSH2 0x100 EXP SWAP1 DIV PUSH20 0xFFFFFFFFFFFFFFFFFFFFFFFFFFFFFFFFFFFFFFFF AND DUP2 JUMP JUMPDEST PUSH2 0x362 DUP1 PUSH2 0x37D DUP4 CODECOPY ADD SWAP1 JUMP JUMPDEST PUSH1 0x0 DUP2 CALLDATALOAD SWAP1 POP PUSH2 0x1DE DUP2 PUSH2 0x34E JUMP JUMPDEST SWAP3 SWAP2 POP POP JUMP JUMPDEST PUSH1 0x0 DUP2 CALLDATALOAD SWAP1 POP PUSH2 0x1F3 DUP2 PUSH2 0x365 JUMP JUMPDEST SWAP3 SWAP2 POP POP JUMP JUMPDEST PUSH1 0x0 DUP1 PUSH1 0x40 DUP4 DUP6 SUB SLT ISZERO PUSH2 0x210 JUMPI PUSH2 0x20F PUSH2 0x349 JUMP JUMPDEST JUMPDEST PUSH1 0x0 PUSH2 0x21E DUP6 DUP3 DUP7 ADD PUSH2 0x1CF JUMP JUMPDEST SWAP3 POP POP PUSH1 0x20 PUSH2 0x22F DUP6 DUP3 DUP7 ADD PUSH2 0x1E4 JUMP JUMPDEST SWAP2 POP POP SWAP3 POP SWAP3 SWAP1 POP JUMP JUMPDEST PUSH1 0x0 PUSH1 0x20 DUP3 DUP5 SUB SLT ISZERO PUSH2 0x24F JUMPI PUSH2 0x24E PUSH2 0x349 JUMP JUMPDEST JUMPDEST PUSH1 0x0 PUSH2 0x25D DUP5 DUP3 DUP6 ADD PUSH2 0x1E4 JUMP JUMPDEST SWAP2 POP POP SWAP3 SWAP2 POP POP JUMP JUMPDEST PUSH2 0x26F DUP2 PUSH2 0x2D7 JUMP JUMPDEST DUP3 MSTORE POP POP JUMP JUMPDEST PUSH2 0x27E DUP2 PUSH2 0x313 JUMP JUMPDEST DUP3 MSTORE POP POP JUMP JUMPDEST PUSH2 0x28D DUP2 PUSH2 0x309 JUMP JUMPDEST DUP3 MSTORE POP POP JUMP JUMPDEST PUSH1 0x0 PUSH1 0x40 DUP3 ADD SWAP1 POP PUSH2 0x2A8 PUSH1 0x0 DUP4 ADD DUP6 PUSH2 0x266 JUMP JUMPDEST PUSH2 0x2B5 PUSH1 0x20 DUP4 ADD DUP5 PUSH2 0x284 JUMP JUMPDEST SWAP4 SWAP3 POP POP POP JUMP JUMPDEST PUSH1 0x0 PUSH1 0x20 DUP3 ADD SWAP1 POP PUSH2 0x2D1 PUSH1 0x0 DUP4 ADD DUP5 PUSH2 0x275 JUMP JUMPDEST SWAP3 SWAP2 POP POP JUMP JUMPDEST PUSH1 0x0 PUSH2 0x2E2 DUP3 PUSH2 0x2E9 JUMP JUMPDEST SWAP1 POP SWAP2 SWAP1 POP JUMP JUMPDEST PUSH1 0x0 PUSH20 0xFFFFFFFFFFFFFFFFFFFFFFFFFFFFFFFFFFFFFFFF DUP3 AND SWAP1 POP SWAP2 SWAP1 POP JUMP JUMPDEST PUSH1 0x0 DUP2 SWAP1 POP SWAP2 SWAP1 POP JUMP JUMPDEST PUSH1 0x0 PUSH2 0x31E DUP3 PUSH2 0x325 JUMP JUMPDEST SWAP1 POP SWAP2 SWAP1 POP JUMP JUMPDEST PUSH1 0x0 PUSH2 0x330 DUP3 PUSH2 0x337 JUMP JUMPDEST SWAP1 POP SWAP2 SWAP1 POP JUMP JUMPDEST PUSH1 0x0 PUSH2 0x342 DUP3 PUSH2 0x2E9 JUMP JUMPDEST SWAP1 POP SWAP2 SWAP1 POP JUMP JUMPDEST PUSH1 0x0 DUP1 REVERT JUMPDEST PUSH2 0x357 DUP2 PUSH2 0x2D7 JUMP JUMPDEST DUP2 EQ PUSH2 0x362 JUMPI PUSH1 0x0 DUP1 REVERT JUMPDEST POP JUMP JUMPDEST PUSH2 0x36E DUP2 PUSH2 0x309 JUMP JUMPDEST DUP2 EQ PUSH2 0x379 JUMPI PUSH1 0x0 DUP1 REVERT JUMPDEST POP JUMP INVALID PUSH1 0x80 PUSH1 0x40 MSTORE CALLVALUE DUP1 ISZERO PUSH2 0x10 JUMPI PUSH1 0x0 DUP1 REVERT JUMPDEST POP PUSH1 0x40 MLOAD PUSH2 0x362 CODESIZE SUB DUP1 PUSH2 0x362 DUP4 CODECOPY DUP2 DUP2 ADD PUSH1 0x40 MSTORE DUP2 ADD SWAP1 PUSH2 0x32 SWAP2 SWAP1 PUSH2 0xEC JUMP JUMPDEST DUP1 PUSH1 0x0 DUP2 SWAP1 SSTORE POP DUP2 PUSH1 0x1 PUSH1 0x0 PUSH2 0x100 EXP DUP2 SLOAD DUP2 PUSH20 0xFFFFFFFFFFFFFFFFFFFFFFFFFFFFFFFFFFFFFFFF MUL NOT AND SWAP1 DUP4 PUSH20 0xFFFFFFFFFFFFFFFFFFFFFFFFFFFFFFFFFFFFFFFF AND MUL OR SWAP1 SSTORE POP CALLER PUSH1 0x2 PUSH1 0x0 PUSH2 0x100 EXP DUP2 SLOAD DUP2 PUSH20 0xFFFFFFFFFFFFFFFFFFFFFFFFFFFFFFFFFFFFFFFF MUL NOT AND SWAP1 DUP4 PUSH20 0xFFFFFFFFFFFFFFFFFFFFFFFFFFFFFFFFFFFFFFFF AND MUL OR SWAP1 SSTORE POP POP POP PUSH2 0x19B JUMP JUMPDEST PUSH1 0x0 DUP2 MLOAD SWAP1 POP PUSH2 0xD1 DUP2 PUSH2 0x16D JUMP JUMPDEST SWAP3 SWAP2 POP POP JUMP JUMPDEST PUSH1 0x0 DUP2 MLOAD SWAP1 POP PUSH2 0xE6 DUP2 PUSH2 0x184 JUMP JUMPDEST SWAP3 SWAP2 POP POP JUMP JUMPDEST PUSH1 0x0 DUP1 PUSH1 0x40 DUP4 DUP6 SUB SLT ISZERO PUSH2 0x103 JUMPI PUSH2 0x102 PUSH2 0x168 JUMP JUMPDEST JUMPDEST PUSH1 0x0 PUSH2 0x111 DUP6 DUP3 DUP7 ADD PUSH2 0xC2 JUMP JUMPDEST SWAP3 POP POP PUSH1 0x20 PUSH2 0x122 DUP6 DUP3 DUP7 ADD PUSH2 0xD7 JUMP JUMPDEST SWAP2 POP POP SWAP3 POP SWAP3 SWAP1 POP JUMP JUMPDEST PUSH1 0x0 PUSH2 0x137 DUP3 PUSH2 0x13E JUMP JUMPDEST SWAP1 POP SWAP2 SWAP1 POP JUMP JUMPDEST PUSH1 0x0 PUSH20 0xFFFFFFFFFFFFFFFFFFFFFFFFFFFFFFFFFFFFFFFF DUP3 AND SWAP1 POP SWAP2 SWAP1 POP JUMP JUMPDEST PUSH1 0x0 DUP2 SWAP1 POP SWAP2 SWAP1 POP JUMP JUMPDEST PUSH1 0x0 DUP1 REVERT JUMPDEST PUSH2 0x176 DUP2 PUSH2 0x12C JUMP JUMPDEST DUP2 EQ PUSH2 0x181 JUMPI PUSH1 0x0 DUP1 REVERT JUMPDEST POP JUMP JUMPDEST PUSH2 0x18D DUP2 PUSH2 0x15E JUMP JUMPDEST DUP2 EQ PUSH2 0x198 JUMPI PUSH1 0x0 DUP1 REVERT JUMPDEST POP JUMP JUMPDEST PUSH2 0x1B8 DUP1 PUSH2 0x1AA PUSH1 0x0 CODECOPY PUSH1 0x0 RETURN INVALID PUSH1 0x80 PUSH1 0x40 MSTORE CALLVALUE DUP1 ISZERO PUSH2 0x10 JUMPI PUSH1 0x0 DUP1 REVERT JUMPDEST POP PUSH1 0x4 CALLDATASIZE LT PUSH2 0x41 JUMPI PUSH1 0x0 CALLDATALOAD PUSH1 0xE0 SHR DUP1 PUSH4 0x8DA5CB5B EQ PUSH2 0x46 JUMPI DUP1 PUSH4 0xD5F39488 EQ PUSH2 0x64 JUMPI DUP1 PUSH4 0xD6B82FE3 EQ PUSH2 0x82 JUMPI JUMPDEST PUSH1 0x0 DUP1 REVERT JUMPDEST PUSH2 0x4E PUSH2 0xA0 JUMP JUMPDEST PUSH1 0x40 MLOAD PUSH2 0x5B SWAP2 SWAP1 PUSH2 0x110 JUMP JUMPDEST PUSH1 0x40 MLOAD DUP1 SWAP2 SUB SWAP1 RETURN JUMPDEST PUSH2 0x6C PUSH2 0xC6 JUMP JUMPDEST PUSH1 0x40 MLOAD PUSH2 0x79 SWAP2 SWAP1 PUSH2 0x110 JUMP JUMPDEST PUSH1 0x40 MLOAD DUP1 SWAP2 SUB SWAP1 RETURN JUMPDEST PUSH2 0x8A PUSH2 0xEC JUMP JUMPDEST PUSH1 0x40 MLOAD PUSH2 0x97 SWAP2 SWAP1 PUSH2 0x12B JUMP JUMPDEST PUSH1 0x40 MLOAD DUP1 SWAP2 SUB SWAP1 RETURN JUMPDEST PUSH1 0x1 PUSH1 0x0 SWAP1 SLOAD SWAP1 PUSH2 0x100 EXP SWAP1 DIV PUSH20 0xFFFFFFFFFFFFFFFFFFFFFFFFFFFFFFFFFFFFFFFF AND DUP2 JUMP JUMPDEST PUSH1 0x2 PUSH1 0x0 SWAP1 SLOAD SWAP1 PUSH2 0x100 EXP SWAP1 DIV PUSH20 0xFFFFFFFFFFFFFFFFFFFFFFFFFFFFFFFFFFFFFFFF AND DUP2 JUMP JUMPDEST PUSH1 0x0 SLOAD DUP2 JUMP JUMPDEST PUSH2 0xFB DUP2 PUSH2 0x146 JUMP JUMPDEST DUP3 MSTORE POP POP JUMP JUMPDEST PUSH2 0x10A DUP2 PUSH2 0x178 JUMP JUMPDEST DUP3 MSTORE POP POP JUMP JUMPDEST PUSH1 0x0 PUSH1 0x20 DUP3 ADD SWAP1 POP PUSH2 0x125 PUSH1 0x0 DUP4 ADD DUP5 PUSH2 0xF2 JUMP JUMPDEST SWAP3 SWAP2 POP POP JUMP JUMPDEST PUSH1 0x0 PUSH1 0x20 DUP3 ADD SWAP1 POP PUSH2 0x140 PUSH1 0x0 DUP4 ADD DUP5 PUSH2 0x101 JUMP JUMPDEST SWAP3 SWAP2 POP POP JUMP JUMPDEST PUSH1 0x0 PUSH2 0x151 DUP3 PUSH2 0x158 JUMP JUMPDEST SWAP1 POP SWAP2 SWAP1 POP JUMP JUMPDEST PUSH1 0x0 PUSH20 0xFFFFFFFFFFFFFFFFFFFFFFFFFFFFFFFFFFFFFFFF DUP3 AND SWAP1 POP SWAP2 SWAP1 POP JUMP JUMPDEST PUSH1 0x0 DUP2 SWAP1 POP SWAP2 SWAP1 POP JUMP INVALID LOG2 PUSH5 0x6970667358 0x22 SLT KECCAK256 AND XOR PUSH4 0x83327C35 GT 0x21 0xE1 NOT ORIGIN NUMBER SELFDESTRUCT SHL PUSH4 0x66F4DCAA 0xBB 0xB4 PUSH26 0xF41073BCA247C9262064736F6C63430008070033A26469706673 PC 0x22 SLT KECCAK256 0xDB SWAP10 BALANCE 0x26 0xB9 DUP13 0xC 0x5E 0x28 0xED 0xBC PUSH5 0xD15D389F07 0x1E 0xE1 0x21 DUP6 0x5E 0xC6 CREATE2 SIGNEXTEND 0xC6 POP DUP1 GAS 0xC8 EXTCODEHASH 0xBE PUSH5 0x736F6C6343 STOP ADDMOD SMOD STOP CALLER "
		},
		"gasEstimates": {
			"creation": {
				"codeDepositCost": "362400",
				"executionCost": "399",
				"totalCost": "362799"
			},
			"external": {
				"createBank(address,uint256)": "infinite",
				"list_of_banks(uint256)": "5042"
			}
		},
		"methodIdentifiers": {
			"createBank(address,uint256)": "8471af77",
			"list_of_banks(uint256)": "b4ff1c13"
		}
	},
	"abi": [
		{
			"inputs": [
				{
					"internalType": "address",
					"name": "_owner",
					"type": "address"
				},
				{
					"internalType": "uint256",
					"name": "_funds",
					"type": "uint256"
				}
			],
			"name": "createBank",
			"outputs": [],
			"stateMutability": "nonpayable",
			"type": "function"
		},
		{
			"inputs": [
				{
					"internalType": "uint256",
					"name": "",
					"type": "uint256"
				}
			],
			"name": "list_of_banks",
			"outputs": [
				{
					"internalType": "contract Bank",
					"name": "",
					"type": "address"
				}
			],
			"stateMutability": "view",
			"type": "function"
		}
	]
}