{
	"data": {
		"bytecode": {
			"linkReferences": {},
			"object": "608060405266470de4df8200006008556109366009556000600a60006101000a81548160ff021916908360028111156200003e576200003d62000791565b5b02179055503480156200005057600080fd5b5060405162004bc238038062004bc283398181016040528101906200007691906200049b565b6040518060400160405280600781526020017f456e74726f7065000000000000000000000000000000000000000000000000008152506040518060400160405280600181526020017f2a000000000000000000000000000000000000000000000000000000000000008152508160009080519060200190620000fa929190620003d4565b50806001908051906020019062000113929190620003d4565b505050620001366200012a6200018c60201b60201c565b6200019460201b60201c565b6200014c816200025a60201b62001ae61760201c565b6040516020016200015e91906200052b565b6040516020818303038152906040526007908051906020019062000184929190620003d4565b5050620008bb565b600033905090565b6000600660009054906101000a900473ffffffffffffffffffffffffffffffffffffffff16905081600660006101000a81548173ffffffffffffffffffffffffffffffffffffffff021916908373ffffffffffffffffffffffffffffffffffffffff1602179055508173ffffffffffffffffffffffffffffffffffffffff168173ffffffffffffffffffffffffffffffffffffffff167f8be0079c531659141344cd1fd0a4f28419497f9722a3daafe3b4186f6b6457e060405160405180910390a35050565b60606000821415620002a4576040518060400160405280600181526020017f30000000000000000000000000000000000000000000000000000000000000008152509050620003cf565b600082905060005b60008214620002dc578080620002c290620006ad565b915050600a82620002d49190620005c4565b9150620002ac565b60008167ffffffffffffffff811115620002fb57620002fa6200081e565b5b6040519080825280601f01601f1916602001820160405280156200032e5781602001600182028036833780820191505090505b5090505b60008514620003c8576001826200034a9190620005fc565b9150600a856200035b9190620006fb565b603062000369919062000567565b60f81b818381518110620003825762000381620007ef565b5b60200101907effffffffffffffffffffffffffffffffffffffffffffffffffffffffffffff1916908160001a905350600a85620003c09190620005c4565b945062000332565b8093505050505b919050565b828054620003e29062000677565b90600052602060002090601f01602090048101928262000406576000855562000452565b82601f106200042157805160ff191683800117855562000452565b8280016001018555821562000452579182015b828111156200045157825182559160200191906001019062000434565b5b50905062000461919062000465565b5090565b5b808211156200048057600081600090555060010162000466565b5090565b6000815190506200049581620008a1565b92915050565b600060208284031215620004b457620004b36200084d565b5b6000620004c48482850162000484565b91505092915050565b6000620004da8262000551565b620004e681856200055c565b9350620004f881856020860162000641565b80840191505092915050565b6000620005136021836200055c565b9150620005208262000852565b602182019050919050565b6000620005388262000504565b9150620005468284620004cd565b915081905092915050565b600081519050919050565b600081905092915050565b6000620005748262000637565b9150620005818362000637565b9250827fffffffffffffffffffffffffffffffffffffffffffffffffffffffffffffffff03821115620005b957620005b862000733565b5b828201905092915050565b6000620005d18262000637565b9150620005de8362000637565b925082620005f157620005f062000762565b5b828204905092915050565b6000620006098262000637565b9150620006168362000637565b9250828210156200062c576200062b62000733565b5b828203905092915050565b6000819050919050565b60005b838110156200066157808201518184015260208101905062000644565b8381111562000671576000848401525b50505050565b600060028204905060018216806200069057607f821691505b60208210811415620006a757620006a6620007c0565b5b50919050565b6000620006ba8262000637565b91507fffffffffffffffffffffffffffffffffffffffffffffffffffffffffffffffff821415620006f057620006ef62000733565b5b600182019050919050565b6000620007088262000637565b9150620007158362000637565b92508262000728576200072762000762565b5b828206905092915050565b7f4e487b7100000000000000000000000000000000000000000000000000000000600052601160045260246000fd5b7f4e487b7100000000000000000000000000000000000000000000000000000000600052601260045260246000fd5b7f4e487b7100000000000000000000000000000000000000000000000000000000600052602160045260246000fd5b7f4e487b7100000000000000000000000000000000000000000000000000000000600052602260045260246000fd5b7f4e487b7100000000000000000000000000000000000000000000000000000000600052603260045260246000fd5b7f4e487b7100000000000000000000000000000000000000000000000000000000600052604160045260246000fd5b600080fd5b7f687474703a2f2f686f73742e656e74726f7065732e78797a2f70726f6a65637460008201527f2f00000000000000000000000000000000000000000000000000000000000000602082015250565b620008ac8162000637565b8114620008b857600080fd5b50565b6142f780620008cb6000396000f3fe6080604052600436106102135760003560e01c806378a8956711610118578063a152e361116100a0578063c313b3391161006f578063c313b33914610800578063c87b56dd1461083d578063dba98e5b1461087a578063e985e9c5146108b7578063f2fde38b146108f457610214565b8063a152e3611461077b578063a22cb465146107a4578063a4821719146107cd578063b88d4fde146107d757610214565b806383b2d174116100e757806383b2d174146106b55780638da5cb5b146106d157806391b7f5ed146106fc57806395d89b411461072557806398d5fdca1461075057610214565b806378a89567146105f95780637ff9b5961461062457806380a9dc0f1461064f578063830639ac1461067857610214565b80633b4c4b251161019b5780635a67de071161016a5780635a67de07146105145780636352211e1461053d5780636c9c2faf1461057a57806370a08231146105a5578063715018a6146105e257610214565b80633b4c4b251461046e5780633ce68dd51461049757806342842e0e146104c257806355f804b3146104eb57610214565b8063095ea7b3116101e2578063095ea7b31461037757806316a1abb4146103a057806323b872dd146103dd57806325bdb2a8146104065780633af32abf1461043157610214565b806301ffc9a7146102a7578063047fc9aa146102e457806306fdde031461030f578063081812fc1461033a57610214565b5b60003411610257576040517f08c379a000000000000000000000000000000000000000000000000000000000815260040161024e90613524565b60405180910390fd5b61025f61091d565b73ffffffffffffffffffffffffffffffffffffffff166108fc349081150290604051600060405180830381858888f193505050501580156102a4573d6000803e3d6000fd5b50005b3480156102b357600080fd5b506102ce60048036038101906102c99190612d53565b610947565b6040516102db9190613467565b60405180910390f35b3480156102f057600080fd5b506102f9610a29565b6040516103069190613764565b60405180910390f35b34801561031b57600080fd5b50610324610a2f565b6040516103319190613482565b60405180910390f35b34801561034657600080fd5b50610361600480360381019061035c9190612df6565b610ac1565b60405161036e91906133de565b60405180910390f35b34801561038357600080fd5b5061039e60048036038101906103999190612cb7565b610b07565b005b3480156103ac57600080fd5b506103c760048036038101906103c29190612e23565b610c1f565b6040516103d49190613445565b60405180910390f35b3480156103e957600080fd5b5061040460048036038101906103ff9190612ba1565b610ce2565b005b34801561041257600080fd5b5061041b610d42565b604051610428919061377f565b60405180910390f35b34801561043d57600080fd5b5061045860048036038101906104539190612b34565b610d6b565b6040516104659190613467565b60405180910390f35b34801561047a57600080fd5b5061049560048036038101906104909190612df6565b610db6565b005b3480156104a357600080fd5b506104ac610dc8565b6040516104b99190613482565b60405180910390f35b3480156104ce57600080fd5b506104e960048036038101906104e49190612ba1565b610e56565b005b3480156104f757600080fd5b50610512600480360381019061050d9190612dad565b610e76565b005b34801561052057600080fd5b5061053b60048036038101906105369190612e63565b610e98565b005b34801561054957600080fd5b50610564600480360381019061055f9190612df6565b610ee2565b60405161057191906133de565b60405180910390f35b34801561058657600080fd5b5061058f610f94565b60405161059c9190613764565b60405180910390f35b3480156105b157600080fd5b506105cc60048036038101906105c79190612b34565b610f9e565b6040516105d99190613764565b60405180910390f35b3480156105ee57600080fd5b506105f7611056565b005b34801561060557600080fd5b5061060e61106a565b60405161061b9190613764565b60405180910390f35b34801561063057600080fd5b5061063961107b565b6040516106469190613764565b60405180910390f35b34801561065b57600080fd5b5061067660048036038101906106719190612cf7565b611081565b005b34801561068457600080fd5b5061069f600480360381019061069a9190612cb7565b61110b565b6040516106ac9190613467565b60405180910390f35b6106cf60048036038101906106ca9190612df6565b611158565b005b3480156106dd57600080fd5b506106e661091d565b6040516106f391906133de565b60405180910390f35b34801561070857600080fd5b50610723600480360381019061071e9190612df6565b61143d565b005b34801561073157600080fd5b5061073a61144f565b6040516107479190613482565b60405180910390f35b34801561075c57600080fd5b506107656114e1565b6040516107729190613764565b60405180910390f35b34801561078757600080fd5b506107a2600480360381019061079d9190612cb7565b6114eb565b005b3480156107b057600080fd5b506107cb60048036038101906107c69190612c77565b61153b565b005b6107d5611551565b005b3480156107e357600080fd5b506107fe60048036038101906107f99190612bf4565b611886565b005b34801561080c57600080fd5b5061082760048036038101906108229190612b34565b6118e8565b6040516108349190613764565b60405180910390f35b34801561084957600080fd5b50610864600480360381019061085f9190612df6565b611931565b6040516108719190613482565b60405180910390f35b34801561088657600080fd5b506108a1600480360381019061089c9190612b34565b611999565b6040516108ae9190613764565b60405180910390f35b3480156108c357600080fd5b506108de60048036038101906108d99190612b61565b6119ce565b6040516108eb9190613467565b60405180910390f35b34801561090057600080fd5b5061091b60048036038101906109169190612b34565b611a62565b005b6000600660009054906101000a900473ffffffffffffffffffffffffffffffffffffffff16905090565b60007f80ac58cd000000000000000000000000000000000000000000000000000000007bffffffffffffffffffffffffffffffffffffffffffffffffffffffff1916827bffffffffffffffffffffffffffffffffffffffffffffffffffffffff19161480610a1257507f5b5e139f000000000000000000000000000000000000000000000000000000007bffffffffffffffffffffffffffffffffffffffffffffffffffffffff1916827bffffffffffffffffffffffffffffffffffffffffffffffffffffffff1916145b80610a225750610a2182611c47565b5b9050919050565b60095481565b606060008054610a3e90613ab6565b80601f0160208091040260200160405190810160405280929190818152602001828054610a6a90613ab6565b8015610ab75780601f10610a8c57610100808354040283529160200191610ab7565b820191906000526020600020905b815481529060010190602001808311610a9a57829003601f168201915b5050505050905090565b6000610acc82611cb1565b6004600083815260200190815260200160002060009054906101000a900473ffffffffffffffffffffffffffffffffffffffff169050919050565b6000610b1282610ee2565b90508073ffffffffffffffffffffffffffffffffffffffff168373ffffffffffffffffffffffffffffffffffffffff161415610b83576040517f08c379a0000000000000000000000000000000000000000000000000000000008152600401610b7a906136e4565b60405180910390fd5b8073ffffffffffffffffffffffffffffffffffffffff16610ba2611cfc565b73ffffffffffffffffffffffffffffffffffffffff161480610bd15750610bd081610bcb611cfc565b6119ce565b5b610c10576040517f08c379a0000000000000000000000000000000000000000000000000000000008152600401610c0790613624565b60405180910390fd5b610c1a8383611d04565b505050565b6060610c29611dbd565b60008367ffffffffffffffff811115610c4557610c44613c7e565b5b604051908082528060200260200182016040528015610c735781602001602082028036833780820191505090505b50905060005b84811015610cd7576000610c8d600c611e3b565b9050610c99600c611e49565b610ca38582611e5f565b80838381518110610cb757610cb6613c4f565b5b602002602001018181525050508080610ccf90613b19565b915050610c79565b508091505092915050565b610cf3610ced611cfc565b82611e7d565b610d32576040517f08c379a0000000000000000000000000000000000000000000000000000000008152600401610d2990613724565b60405180910390fd5b610d3d838383611f12565b505050565b6000600a60009054906101000a900460ff166002811115610d6657610d65613bf1565b5b905090565b600080600b60008473ffffffffffffffffffffffffffffffffffffffff1673ffffffffffffffffffffffffffffffffffffffff16815260200190815260200160002054119050919050565b610dbe611dbd565b8060098190555050565b60078054610dd590613ab6565b80601f0160208091040260200160405190810160405280929190818152602001828054610e0190613ab6565b8015610e4e5780601f10610e2357610100808354040283529160200191610e4e565b820191906000526020600020905b815481529060010190602001808311610e3157829003601f168201915b505050505081565b610e7183838360405180602001604052806000815250611886565b505050565b610e7e611dbd565b8060079080519060200190610e94929190612895565b5050565b610ea0611dbd565b8060ff166002811115610eb657610eb5613bf1565b5b600a60006101000a81548160ff02191690836002811115610eda57610ed9613bf1565b5b021790555050565b6000806002600084815260200190815260200160002060009054906101000a900473ffffffffffffffffffffffffffffffffffffffff169050600073ffffffffffffffffffffffffffffffffffffffff168173ffffffffffffffffffffffffffffffffffffffff161415610f8b576040517f08c379a0000000000000000000000000000000000000000000000000000000008152600401610f82906136c4565b60405180910390fd5b80915050919050565b6000600954905090565b60008073ffffffffffffffffffffffffffffffffffffffff168273ffffffffffffffffffffffffffffffffffffffff16141561100f576040517f08c379a0000000000000000000000000000000000000000000000000000000008152600401611006906135c4565b60405180910390fd5b600360008373ffffffffffffffffffffffffffffffffffffffff1673ffffffffffffffffffffffffffffffffffffffff168152602001908152602001600020549050919050565b61105e611dbd565b6110686000612179565b565b6000611076600c611e3b565b905090565b60085481565b611089611dbd565b60005b82518110156111065781600b60008584815181106110ad576110ac613c4f565b5b602002602001015173ffffffffffffffffffffffffffffffffffffffff1673ffffffffffffffffffffffffffffffffffffffff1681526020019081526020016000208190555080806110fe90613b19565b91505061108c565b505050565b600081600b60008573ffffffffffffffffffffffffffffffffffffffff1673ffffffffffffffffffffffffffffffffffffffff168152602001908152602001600020541015905092915050565b6001600281111561116c5761116b613bf1565b5b600a60009054906101000a900460ff16600281111561118e5761118d613bf1565b5b146111ce576040517f08c379a00000000000000000000000000000000000000000000000000000000081526004016111c5906135e4565b60405180910390fd5b6000816008546111de9190613965565b905080341015611223576040517f08c379a000000000000000000000000000000000000000000000000000000000815260040161121a90613704565b60405180910390fd5b600954611230600c611e3b565b10611270576040517f08c379a0000000000000000000000000000000000000000000000000000000008152600401611267906136a4565b60405180910390fd5b61127a338361110b565b6112b9576040517f08c379a00000000000000000000000000000000000000000000000000000000081526004016112b090613664565b60405180910390fd5b60005b828110156112fa5760006112d0600c611e3b565b90506112dc600c611e49565b6112e63382611e5f565b5080806112f290613b19565b9150506112bc565b5081600b60003373ffffffffffffffffffffffffffffffffffffffff1673ffffffffffffffffffffffffffffffffffffffff168152602001908152602001600020600082825461134a91906139bf565b92505081905550600061135b61091d565b73ffffffffffffffffffffffffffffffffffffffff166108fc839081150290604051600060405180830381858888f193505050509050806113d1576040517f08c379a00000000000000000000000000000000000000000000000000000000081526004016113c890613544565b60405180910390fd5b600082346113df91906139bf565b1115611438573373ffffffffffffffffffffffffffffffffffffffff166108fc833461140b91906139bf565b9081150290604051600060405180830381858888f19350505050158015611436573d6000803e3d6000fd5b505b505050565b611445611dbd565b8060088190555050565b60606001805461145e90613ab6565b80601f016020809104026020016040519081016040528092919081815260200182805461148a90613ab6565b80156114d75780601f106114ac576101008083540402835291602001916114d7565b820191906000526020600020905b8154815290600101906020018083116114ba57829003601f168201915b5050505050905090565b6000600854905090565b6114f3611dbd565b80600b60008473ffffffffffffffffffffffffffffffffffffffff1673ffffffffffffffffffffffffffffffffffffffff168152602001908152602001600020819055505050565b61154d611546611cfc565b838361223f565b5050565b6000600281111561156557611564613bf1565b5b600a60009054906101000a900460ff16600281111561158757611586613bf1565b5b14156115c8576040517f08c379a00000000000000000000000000000000000000000000000000000000081526004016115bf90613604565b60405180910390fd5b60085434101561160d576040517f08c379a000000000000000000000000000000000000000000000000000000000815260040161160490613704565b60405180910390fd5b60095461161a600c611e3b565b1061165a576040517f08c379a000000000000000000000000000000000000000000000000000000000815260040161165190613744565b60405180910390fd5b6001600281111561166e5761166d613bf1565b5b600a60009054906101000a900460ff1660028111156116905761168f613bf1565b5b14156116df5761169f33610d6b565b6116de576040517f08c379a00000000000000000000000000000000000000000000000000000000081526004016116d5906135a4565b60405180910390fd5b5b60006116eb600c611e3b565b90506116f7600c611e49565b6117013382611e5f565b6001600281111561171557611714613bf1565b5b600a60009054906101000a900460ff16600281111561173757611736613bf1565b5b1415611795576001600b60003373ffffffffffffffffffffffffffffffffffffffff1673ffffffffffffffffffffffffffffffffffffffff168152602001908152602001600020600082825461178d91906139bf565b925050819055505b600061179f61091d565b73ffffffffffffffffffffffffffffffffffffffff166108fc6008549081150290604051600060405180830381858888f19350505050905080611817576040517f08c379a000000000000000000000000000000000000000000000000000000000815260040161180e90613544565b60405180910390fd5b60006008543461182791906139bf565b1115611882573373ffffffffffffffffffffffffffffffffffffffff166108fc6008543461185591906139bf565b9081150290604051600060405180830381858888f19350505050158015611880573d6000803e3d6000fd5b505b5050565b611897611891611cfc565b83611e7d565b6118d6576040517f08c379a00000000000000000000000000000000000000000000000000000000081526004016118cd90613724565b60405180910390fd5b6118e2848484846123ac565b50505050565b6000600b60008373ffffffffffffffffffffffffffffffffffffffff1673ffffffffffffffffffffffffffffffffffffffff168152602001908152602001600020549050919050565b606061193c82611cb1565b6000611946612408565b905060008151116119665760405180602001604052806000815250611991565b8061197084611ae6565b604051602001611981929190613398565b6040516020818303038152906040525b915050919050565b60006119a3611dbd565b60006119af600c611e3b565b90506119bb600c611e49565b6119c58382611e5f565b80915050919050565b6000600560008473ffffffffffffffffffffffffffffffffffffffff1673ffffffffffffffffffffffffffffffffffffffff16815260200190815260200160002060008373ffffffffffffffffffffffffffffffffffffffff1673ffffffffffffffffffffffffffffffffffffffff16815260200190815260200160002060009054906101000a900460ff16905092915050565b611a6a611dbd565b600073ffffffffffffffffffffffffffffffffffffffff168173ffffffffffffffffffffffffffffffffffffffff161415611ada576040517f08c379a0000000000000000000000000000000000000000000000000000000008152600401611ad1906134c4565b60405180910390fd5b611ae381612179565b50565b60606000821415611b2e576040518060400160405280600181526020017f30000000000000000000000000000000000000000000000000000000000000008152509050611c42565b600082905060005b60008214611b60578080611b4990613b19565b915050600a82611b599190613934565b9150611b36565b60008167ffffffffffffffff811115611b7c57611b7b613c7e565b5b6040519080825280601f01601f191660200182016040528015611bae5781602001600182028036833780820191505090505b5090505b60008514611c3b57600182611bc791906139bf565b9150600a85611bd69190613b62565b6030611be291906138de565b60f81b818381518110611bf857611bf7613c4f565b5b60200101907effffffffffffffffffffffffffffffffffffffffffffffffffffffffffffff1916908160001a905350600a85611c349190613934565b9450611bb2565b8093505050505b919050565b60007f01ffc9a7000000000000000000000000000000000000000000000000000000007bffffffffffffffffffffffffffffffffffffffffffffffffffffffff1916827bffffffffffffffffffffffffffffffffffffffffffffffffffffffff1916149050919050565b611cba81612430565b611cf9576040517f08c379a0000000000000000000000000000000000000000000000000000000008152600401611cf0906136c4565b60405180910390fd5b50565b600033905090565b816004600083815260200190815260200160002060006101000a81548173ffffffffffffffffffffffffffffffffffffffff021916908373ffffffffffffffffffffffffffffffffffffffff160217905550808273ffffffffffffffffffffffffffffffffffffffff16611d7783610ee2565b73ffffffffffffffffffffffffffffffffffffffff167f8c5be1e5ebec7d5bd14f71427d1e84f3dd0314c0f7b2291e5b200ac8c7c3b92560405160405180910390a45050565b611dc5611cfc565b73ffffffffffffffffffffffffffffffffffffffff16611de361091d565b73ffffffffffffffffffffffffffffffffffffffff1614611e39576040517f08c379a0000000000000000000000000000000000000000000000000000000008152600401611e3090613684565b60405180910390fd5b565b600081600001549050919050565b6001816000016000828254019250508190555050565b611e7982826040518060200160405280600081525061249c565b5050565b600080611e8983610ee2565b90508073ffffffffffffffffffffffffffffffffffffffff168473ffffffffffffffffffffffffffffffffffffffff161480611ecb5750611eca81856119ce565b5b80611f0957508373ffffffffffffffffffffffffffffffffffffffff16611ef184610ac1565b73ffffffffffffffffffffffffffffffffffffffff16145b91505092915050565b8273ffffffffffffffffffffffffffffffffffffffff16611f3282610ee2565b73ffffffffffffffffffffffffffffffffffffffff1614611f88576040517f08c379a0000000000000000000000000000000000000000000000000000000008152600401611f7f906134e4565b60405180910390fd5b600073ffffffffffffffffffffffffffffffffffffffff168273ffffffffffffffffffffffffffffffffffffffff161415611ff8576040517f08c379a0000000000000000000000000000000000000000000000000000000008152600401611fef90613564565b60405180910390fd5b6120038383836124f7565b61200e600082611d04565b6001600360008573ffffffffffffffffffffffffffffffffffffffff1673ffffffffffffffffffffffffffffffffffffffff168152602001908152602001600020600082825461205e91906139bf565b925050819055506001600360008473ffffffffffffffffffffffffffffffffffffffff1673ffffffffffffffffffffffffffffffffffffffff16815260200190815260200160002060008282546120b591906138de565b92505081905550816002600083815260200190815260200160002060006101000a81548173ffffffffffffffffffffffffffffffffffffffff021916908373ffffffffffffffffffffffffffffffffffffffff160217905550808273ffffffffffffffffffffffffffffffffffffffff168473ffffffffffffffffffffffffffffffffffffffff167fddf252ad1be2c89b69c2b068fc378daa952ba7f163c4a11628f55a4df523b3ef60405160405180910390a46121748383836124fc565b505050565b6000600660009054906101000a900473ffffffffffffffffffffffffffffffffffffffff16905081600660006101000a81548173ffffffffffffffffffffffffffffffffffffffff021916908373ffffffffffffffffffffffffffffffffffffffff1602179055508173ffffffffffffffffffffffffffffffffffffffff168173ffffffffffffffffffffffffffffffffffffffff167f8be0079c531659141344cd1fd0a4f28419497f9722a3daafe3b4186f6b6457e060405160405180910390a35050565b8173ffffffffffffffffffffffffffffffffffffffff168373ffffffffffffffffffffffffffffffffffffffff1614156122ae576040517f08c379a00000000000000000000000000000000000000000000000000000000081526004016122a590613584565b60405180910390fd5b80600560008573ffffffffffffffffffffffffffffffffffffffff1673ffffffffffffffffffffffffffffffffffffffff16815260200190815260200160002060008473ffffffffffffffffffffffffffffffffffffffff1673ffffffffffffffffffffffffffffffffffffffff16815260200190815260200160002060006101000a81548160ff0219169083151502179055508173ffffffffffffffffffffffffffffffffffffffff168373ffffffffffffffffffffffffffffffffffffffff167f17307eab39ab6107e8899845ad3d59bd9653f200f220920489ca2b5937696c318360405161239f9190613467565b60405180910390a3505050565b6123b7848484611f12565b6123c384848484612501565b612402576040517f08c379a00000000000000000000000000000000000000000000000000000000081526004016123f9906134a4565b60405180910390fd5b50505050565b6060600760405160200161241c91906133bc565b604051602081830303815290604052905090565b60008073ffffffffffffffffffffffffffffffffffffffff166002600084815260200190815260200160002060009054906101000a900473ffffffffffffffffffffffffffffffffffffffff1673ffffffffffffffffffffffffffffffffffffffff1614159050919050565b6124a68383612698565b6124b36000848484612501565b6124f2576040517f08c379a00000000000000000000000000000000000000000000000000000000081526004016124e9906134a4565b60405180910390fd5b505050565b505050565b505050565b60006125228473ffffffffffffffffffffffffffffffffffffffff16612872565b1561268b578373ffffffffffffffffffffffffffffffffffffffff1663150b7a0261254b611cfc565b8786866040518563ffffffff1660e01b815260040161256d94939291906133f9565b602060405180830381600087803b15801561258757600080fd5b505af19250505080156125b857506040513d601f19601f820116820180604052508101906125b59190612d80565b60015b61263b573d80600081146125e8576040519150601f19603f3d011682016040523d82523d6000602084013e6125ed565b606091505b50600081511415612633576040517f08c379a000000000000000000000000000000000000000000000000000000000815260040161262a906134a4565b60405180910390fd5b805181602001fd5b63150b7a0260e01b7bffffffffffffffffffffffffffffffffffffffffffffffffffffffff1916817bffffffffffffffffffffffffffffffffffffffffffffffffffffffff191614915050612690565b600190505b949350505050565b600073ffffffffffffffffffffffffffffffffffffffff168273ffffffffffffffffffffffffffffffffffffffff161415612708576040517f08c379a00000000000000000000000000000000000000000000000000000000081526004016126ff90613644565b60405180910390fd5b61271181612430565b15612751576040517f08c379a000000000000000000000000000000000000000000000000000000000815260040161274890613504565b60405180910390fd5b61275d600083836124f7565b6001600360008473ffffffffffffffffffffffffffffffffffffffff1673ffffffffffffffffffffffffffffffffffffffff16815260200190815260200160002060008282546127ad91906138de565b92505081905550816002600083815260200190815260200160002060006101000a81548173ffffffffffffffffffffffffffffffffffffffff021916908373ffffffffffffffffffffffffffffffffffffffff160217905550808273ffffffffffffffffffffffffffffffffffffffff16600073ffffffffffffffffffffffffffffffffffffffff167fddf252ad1be2c89b69c2b068fc378daa952ba7f163c4a11628f55a4df523b3ef60405160405180910390a461286e600083836124fc565b5050565b6000808273ffffffffffffffffffffffffffffffffffffffff163b119050919050565b8280546128a190613ab6565b90600052602060002090601f0160209004810192826128c3576000855561290a565b82601f106128dc57805160ff191683800117855561290a565b8280016001018555821561290a579182015b828111156129095782518255916020019190600101906128ee565b5b509050612917919061291b565b5090565b5b8082111561293457600081600090555060010161291c565b5090565b600061294b612946846137bf565b61379a565b9050808382526020820190508285602086028201111561296e5761296d613cb2565b5b60005b8581101561299e57816129848882612a2c565b845260208401935060208301925050600181019050612971565b5050509392505050565b60006129bb6129b6846137eb565b61379a565b9050828152602081018484840111156129d7576129d6613cb7565b5b6129e2848285613a74565b509392505050565b60006129fd6129f88461381c565b61379a565b905082815260208101848484011115612a1957612a18613cb7565b5b612a24848285613a74565b509392505050565b600081359050612a3b8161424e565b92915050565b600082601f830112612a5657612a55613cad565b5b8135612a66848260208601612938565b91505092915050565b600081359050612a7e81614265565b92915050565b600081359050612a938161427c565b92915050565b600081519050612aa88161427c565b92915050565b600082601f830112612ac357612ac2613cad565b5b8135612ad38482602086016129a8565b91505092915050565b600082601f830112612af157612af0613cad565b5b8135612b018482602086016129ea565b91505092915050565b600081359050612b1981614293565b92915050565b600081359050612b2e816142aa565b92915050565b600060208284031215612b4a57612b49613cc1565b5b6000612b5884828501612a2c565b91505092915050565b60008060408385031215612b7857612b77613cc1565b5b6000612b8685828601612a2c565b9250506020612b9785828601612a2c565b9150509250929050565b600080600060608486031215612bba57612bb9613cc1565b5b6000612bc886828701612a2c565b9350506020612bd986828701612a2c565b9250506040612bea86828701612b0a565b9150509250925092565b60008060008060808587031215612c0e57612c0d613cc1565b5b6000612c1c87828801612a2c565b9450506020612c2d87828801612a2c565b9350506040612c3e87828801612b0a565b925050606085013567ffffffffffffffff811115612c5f57612c5e613cbc565b5b612c6b87828801612aae565b91505092959194509250565b60008060408385031215612c8e57612c8d613cc1565b5b6000612c9c85828601612a2c565b9250506020612cad85828601612a6f565b9150509250929050565b60008060408385031215612cce57612ccd613cc1565b5b6000612cdc85828601612a2c565b9250506020612ced85828601612b0a565b9150509250929050565b60008060408385031215612d0e57612d0d613cc1565b5b600083013567ffffffffffffffff811115612d2c57612d2b613cbc565b5b612d3885828601612a41565b9250506020612d4985828601612b0a565b9150509250929050565b600060208284031215612d6957612d68613cc1565b5b6000612d7784828501612a84565b91505092915050565b600060208284031215612d9657612d95613cc1565b5b6000612da484828501612a99565b91505092915050565b600060208284031215612dc357612dc2613cc1565b5b600082013567ffffffffffffffff811115612de157612de0613cbc565b5b612ded84828501612adc565b91505092915050565b600060208284031215612e0c57612e0b613cc1565b5b6000612e1a84828501612b0a565b91505092915050565b60008060408385031215612e3a57612e39613cc1565b5b6000612e4885828601612b0a565b9250506020612e5985828601612a2c565b9150509250929050565b600060208284031215612e7957612e78613cc1565b5b6000612e8784828501612b1f565b91505092915050565b6000612e9c838361336b565b60208301905092915050565b612eb1816139f3565b82525050565b6000612ec282613872565b612ecc81856138a0565b9350612ed78361384d565b8060005b83811015612f08578151612eef8882612e90565b9750612efa83613893565b925050600181019050612edb565b5085935050505092915050565b612f1e81613a05565b82525050565b6000612f2f8261387d565b612f3981856138b1565b9350612f49818560208601613a83565b612f5281613cc6565b840191505092915050565b6000612f6882613888565b612f7281856138c2565b9350612f82818560208601613a83565b612f8b81613cc6565b840191505092915050565b6000612fa182613888565b612fab81856138d3565b9350612fbb818560208601613a83565b80840191505092915050565b60008154612fd481613ab6565b612fde81866138d3565b94506001821660008114612ff9576001811461300a5761303d565b60ff1983168652818601935061303d565b6130138561385d565b60005b8381101561303557815481890152600182019150602081019050613016565b838801955050505b50505092915050565b60006130536032836138c2565b915061305e82613cd7565b604082019050919050565b60006130766026836138c2565b915061308182613d26565b604082019050919050565b60006130996007836138d3565b91506130a482613d75565b600782019050919050565b60006130bc6025836138c2565b91506130c782613d9e565b604082019050919050565b60006130df601c836138c2565b91506130ea82613ded565b602082019050919050565b6000613102601e836138c2565b915061310d82613e16565b602082019050919050565b60006131256014836138c2565b915061313082613e3f565b602082019050919050565b60006131486024836138c2565b915061315382613e68565b604082019050919050565b600061316b6019836138c2565b915061317682613eb7565b602082019050919050565b600061318e6023836138c2565b915061319982613ee0565b604082019050919050565b60006131b16029836138c2565b91506131bc82613f2f565b604082019050919050565b60006131d4600e836138c2565b91506131df82613f7e565b602082019050919050565b60006131f76010836138c2565b915061320282613fa7565b602082019050919050565b600061321a603e836138c2565b915061322582613fd0565b604082019050919050565b600061323d6020836138c2565b91506132488261401f565b602082019050919050565b6000613260602d836138c2565b915061326b82614048565b604082019050919050565b60006132836020836138c2565b915061328e82614097565b602082019050919050565b60006132a6602c836138c2565b91506132b1826140c0565b604082019050919050565b60006132c96018836138c2565b91506132d48261410f565b602082019050919050565b60006132ec6021836138c2565b91506132f782614138565b604082019050919050565b600061330f602b836138c2565b915061331a82614187565b604082019050919050565b6000613332602e836138c2565b915061333d826141d6565b604082019050919050565b6000613355601a836138c2565b915061336082614225565b602082019050919050565b61337481613a5d565b82525050565b61338381613a5d565b82525050565b61339281613a67565b82525050565b60006133a48285612f96565b91506133b08284612f96565b91508190509392505050565b60006133c88284612fc7565b91506133d38261308c565b915081905092915050565b60006020820190506133f36000830184612ea8565b92915050565b600060808201905061340e6000830187612ea8565b61341b6020830186612ea8565b613428604083018561337a565b818103606083015261343a8184612f24565b905095945050505050565b6000602082019050818103600083015261345f8184612eb7565b905092915050565b600060208201905061347c6000830184612f15565b92915050565b6000602082019050818103600083015261349c8184612f5d565b905092915050565b600060208201905081810360008301526134bd81613046565b9050919050565b600060208201905081810360008301526134dd81613069565b9050919050565b600060208201905081810360008301526134fd816130af565b9050919050565b6000602082019050818103600083015261351d816130d2565b9050919050565b6000602082019050818103600083015261353d816130f5565b9050919050565b6000602082019050818103600083015261355d81613118565b9050919050565b6000602082019050818103600083015261357d8161313b565b9050919050565b6000602082019050818103600083015261359d8161315e565b9050919050565b600060208201905081810360008301526135bd81613181565b9050919050565b600060208201905081810360008301526135dd816131a4565b9050919050565b600060208201905081810360008301526135fd816131c7565b9050919050565b6000602082019050818103600083015261361d816131ea565b9050919050565b6000602082019050818103600083015261363d8161320d565b9050919050565b6000602082019050818103600083015261365d81613230565b9050919050565b6000602082019050818103600083015261367d81613253565b9050919050565b6000602082019050818103600083015261369d81613276565b9050919050565b600060208201905081810360008301526136bd81613299565b9050919050565b600060208201905081810360008301526136dd816132bc565b9050919050565b600060208201905081810360008301526136fd816132df565b9050919050565b6000602082019050818103600083015261371d81613302565b9050919050565b6000602082019050818103600083015261373d81613325565b9050919050565b6000602082019050818103600083015261375d81613348565b9050919050565b6000602082019050613779600083018461337a565b92915050565b60006020820190506137946000830184613389565b92915050565b60006137a46137b5565b90506137b08282613ae8565b919050565b6000604051905090565b600067ffffffffffffffff8211156137da576137d9613c7e565b5b602082029050602081019050919050565b600067ffffffffffffffff82111561380657613805613c7e565b5b61380f82613cc6565b9050602081019050919050565b600067ffffffffffffffff82111561383757613836613c7e565b5b61384082613cc6565b9050602081019050919050565b6000819050602082019050919050565b60008190508160005260206000209050919050565b600081519050919050565b600081519050919050565b600081519050919050565b6000602082019050919050565b600082825260208201905092915050565b600082825260208201905092915050565b600082825260208201905092915050565b600081905092915050565b60006138e982613a5d565b91506138f483613a5d565b9250827fffffffffffffffffffffffffffffffffffffffffffffffffffffffffffffffff0382111561392957613928613b93565b5b828201905092915050565b600061393f82613a5d565b915061394a83613a5d565b92508261395a57613959613bc2565b5b828204905092915050565b600061397082613a5d565b915061397b83613a5d565b9250817fffffffffffffffffffffffffffffffffffffffffffffffffffffffffffffffff04831182151516156139b4576139b3613b93565b5b828202905092915050565b60006139ca82613a5d565b91506139d583613a5d565b9250828210156139e8576139e7613b93565b5b828203905092915050565b60006139fe82613a3d565b9050919050565b60008115159050919050565b60007fffffffff0000000000000000000000000000000000000000000000000000000082169050919050565b600073ffffffffffffffffffffffffffffffffffffffff82169050919050565b6000819050919050565b600060ff82169050919050565b82818337600083830152505050565b60005b83811015613aa1578082015181840152602081019050613a86565b83811115613ab0576000848401525b50505050565b60006002820490506001821680613ace57607f821691505b60208210811415613ae257613ae1613c20565b5b50919050565b613af182613cc6565b810181811067ffffffffffffffff82111715613b1057613b0f613c7e565b5b80604052505050565b6000613b2482613a5d565b91507fffffffffffffffffffffffffffffffffffffffffffffffffffffffffffffffff821415613b5757613b56613b93565b5b600182019050919050565b6000613b6d82613a5d565b9150613b7883613a5d565b925082613b8857613b87613bc2565b5b828206905092915050565b7f4e487b7100000000000000000000000000000000000000000000000000000000600052601160045260246000fd5b7f4e487b7100000000000000000000000000000000000000000000000000000000600052601260045260246000fd5b7f4e487b7100000000000000000000000000000000000000000000000000000000600052602160045260246000fd5b7f4e487b7100000000000000000000000000000000000000000000000000000000600052602260045260246000fd5b7f4e487b7100000000000000000000000000000000000000000000000000000000600052603260045260246000fd5b7f4e487b7100000000000000000000000000000000000000000000000000000000600052604160045260246000fd5b600080fd5b600080fd5b600080fd5b600080fd5b600080fd5b6000601f19601f8301169050919050565b7f4552433732313a207472616e7366657220746f206e6f6e20455243373231526560008201527f63656976657220696d706c656d656e7465720000000000000000000000000000602082015250565b7f4f776e61626c653a206e6577206f776e657220697320746865207a65726f206160008201527f6464726573730000000000000000000000000000000000000000000000000000602082015250565b7f2f746f6b656e2d00000000000000000000000000000000000000000000000000600082015250565b7f4552433732313a207472616e736665722066726f6d20696e636f72726563742060008201527f6f776e6572000000000000000000000000000000000000000000000000000000602082015250565b7f4552433732313a20746f6b656e20616c7265616479206d696e74656400000000600082015250565b7f496e73756666696369656e7420696e7075742062616c616e6365202830290000600082015250565b7f4661696c656420746f2073656e64204574686572000000000000000000000000600082015250565b7f4552433732313a207472616e7366657220746f20746865207a65726f2061646460008201527f7265737300000000000000000000000000000000000000000000000000000000602082015250565b7f4552433732313a20617070726f766520746f2063616c6c657200000000000000600082015250565b7f4e6f20746f6b656e7320726573657276656420666f7220796f7572206164647260008201527f6573730000000000000000000000000000000000000000000000000000000000602082015250565b7f4552433732313a2061646472657373207a65726f206973206e6f74206120766160008201527f6c6964206f776e65720000000000000000000000000000000000000000000000602082015250565b7f4e6f7420696e2070726573616c65000000000000000000000000000000000000600082015250565b7f53616c65732061726520636c6f73656400000000000000000000000000000000600082015250565b7f4552433732313a20617070726f76652063616c6c6572206973206e6f7420746f60008201527f6b656e206f776e6572206e6f7220617070726f76656420666f7220616c6c0000602082015250565b7f4552433732313a206d696e7420746f20746865207a65726f2061646472657373600082015250565b7f496e73756666696369656e7420726573657276656420746f6b656e7320666f7260008201527f20796f7572206164647265737300000000000000000000000000000000000000602082015250565b7f4f776e61626c653a2063616c6c6572206973206e6f7420746865206f776e6572600082015250565b7f546f6b656e20737570706c7920696e737566666963656e7420666f722074686560008201527f20676976656e20636f756e740000000000000000000000000000000000000000602082015250565b7f4552433732313a20696e76616c696420746f6b656e2049440000000000000000600082015250565b7f4552433732313a20617070726f76616c20746f2063757272656e74206f776e6560008201527f7200000000000000000000000000000000000000000000000000000000000000602082015250565b7f496e73756666696369656e7420696e7075742062616c616e63652c206d75737460008201527f206265203e207072696365000000000000000000000000000000000000000000602082015250565b7f4552433732313a2063616c6c6572206973206e6f7420746f6b656e206f776e6560008201527f72206e6f7220617070726f766564000000000000000000000000000000000000602082015250565b7f546f6b656e20737570706c79206c696d69742072656163686564000000000000600082015250565b614257816139f3565b811461426257600080fd5b50565b61426e81613a05565b811461427957600080fd5b50565b61428581613a11565b811461429057600080fd5b50565b61429c81613a5d565b81146142a757600080fd5b50565b6142b381613a67565b81146142be57600080fd5b5056fea26469706673582212208cb89b8e48465db2dae136f55585e7342d9558b0bf60ec4d0e15aa1a9d65561764736f6c63430008070033",
			"opcodes": "PUSH1 0x80 PUSH1 0x40 MSTORE PUSH7 0x470DE4DF820000 PUSH1 0x8 SSTORE PUSH2 0x936 PUSH1 0x9 SSTORE PUSH1 0x0 PUSH1 0xA PUSH1 0x0 PUSH2 0x100 EXP DUP2 SLOAD DUP2 PUSH1 0xFF MUL NOT AND SWAP1 DUP4 PUSH1 0x2 DUP2 GT ISZERO PUSH3 0x3E JUMPI PUSH3 0x3D PUSH3 0x791 JUMP JUMPDEST JUMPDEST MUL OR SWAP1 SSTORE POP CALLVALUE DUP1 ISZERO PUSH3 0x50 JUMPI PUSH1 0x0 DUP1 REVERT JUMPDEST POP PUSH1 0x40 MLOAD PUSH3 0x4BC2 CODESIZE SUB DUP1 PUSH3 0x4BC2 DUP4 CODECOPY DUP2 DUP2 ADD PUSH1 0x40 MSTORE DUP2 ADD SWAP1 PUSH3 0x76 SWAP2 SWAP1 PUSH3 0x49B JUMP JUMPDEST PUSH1 0x40 MLOAD DUP1 PUSH1 0x40 ADD PUSH1 0x40 MSTORE DUP1 PUSH1 0x7 DUP2 MSTORE PUSH1 0x20 ADD PUSH32 0x456E74726F706500000000000000000000000000000000000000000000000000 DUP2 MSTORE POP PUSH1 0x40 MLOAD DUP1 PUSH1 0x40 ADD PUSH1 0x40 MSTORE DUP1 PUSH1 0x1 DUP2 MSTORE PUSH1 0x20 ADD PUSH32 0x2A00000000000000000000000000000000000000000000000000000000000000 DUP2 MSTORE POP DUP2 PUSH1 0x0 SWAP1 DUP1 MLOAD SWAP1 PUSH1 0x20 ADD SWAP1 PUSH3 0xFA SWAP3 SWAP2 SWAP1 PUSH3 0x3D4 JUMP JUMPDEST POP DUP1 PUSH1 0x1 SWAP1 DUP1 MLOAD SWAP1 PUSH1 0x20 ADD SWAP1 PUSH3 0x113 SWAP3 SWAP2 SWAP1 PUSH3 0x3D4 JUMP JUMPDEST POP POP POP PUSH3 0x136 PUSH3 0x12A PUSH3 0x18C PUSH1 0x20 SHL PUSH1 0x20 SHR JUMP JUMPDEST PUSH3 0x194 PUSH1 0x20 SHL PUSH1 0x20 SHR JUMP JUMPDEST PUSH3 0x14C DUP2 PUSH3 0x25A PUSH1 0x20 SHL PUSH3 0x1AE6 OR PUSH1 0x20 SHR JUMP JUMPDEST PUSH1 0x40 MLOAD PUSH1 0x20 ADD PUSH3 0x15E SWAP2 SWAP1 PUSH3 0x52B JUMP JUMPDEST PUSH1 0x40 MLOAD PUSH1 0x20 DUP2 DUP4 SUB SUB DUP2 MSTORE SWAP1 PUSH1 0x40 MSTORE PUSH1 0x7 SWAP1 DUP1 MLOAD SWAP1 PUSH1 0x20 ADD SWAP1 PUSH3 0x184 SWAP3 SWAP2 SWAP1 PUSH3 0x3D4 JUMP JUMPDEST POP POP PUSH3 0x8BB JUMP JUMPDEST PUSH1 0x0 CALLER SWAP1 POP SWAP1 JUMP JUMPDEST PUSH1 0x0 PUSH1 0x6 PUSH1 0x0 SWAP1 SLOAD SWAP1 PUSH2 0x100 EXP SWAP1 DIV PUSH20 0xFFFFFFFFFFFFFFFFFFFFFFFFFFFFFFFFFFFFFFFF AND SWAP1 POP DUP2 PUSH1 0x6 PUSH1 0x0 PUSH2 0x100 EXP DUP2 SLOAD DUP2 PUSH20 0xFFFFFFFFFFFFFFFFFFFFFFFFFFFFFFFFFFFFFFFF MUL NOT AND SWAP1 DUP4 PUSH20 0xFFFFFFFFFFFFFFFFFFFFFFFFFFFFFFFFFFFFFFFF AND MUL OR SWAP1 SSTORE POP DUP2 PUSH20 0xFFFFFFFFFFFFFFFFFFFFFFFFFFFFFFFFFFFFFFFF AND DUP2 PUSH20 0xFFFFFFFFFFFFFFFFFFFFFFFFFFFFFFFFFFFFFFFF AND PUSH32 0x8BE0079C531659141344CD1FD0A4F28419497F9722A3DAAFE3B4186F6B6457E0 PUSH1 0x40 MLOAD PUSH1 0x40 MLOAD DUP1 SWAP2 SUB SWAP1 LOG3 POP POP JUMP JUMPDEST PUSH1 0x60 PUSH1 0x0 DUP3 EQ ISZERO PUSH3 0x2A4 JUMPI PUSH1 0x40 MLOAD DUP1 PUSH1 0x40 ADD PUSH1 0x40 MSTORE DUP1 PUSH1 0x1 DUP2 MSTORE PUSH1 0x20 ADD PUSH32 0x3000000000000000000000000000000000000000000000000000000000000000 DUP2 MSTORE POP SWAP1 POP PUSH3 0x3CF JUMP JUMPDEST PUSH1 0x0 DUP3 SWAP1 POP PUSH1 0x0 JUMPDEST PUSH1 0x0 DUP3 EQ PUSH3 0x2DC JUMPI DUP1 DUP1 PUSH3 0x2C2 SWAP1 PUSH3 0x6AD JUMP JUMPDEST SWAP2 POP POP PUSH1 0xA DUP3 PUSH3 0x2D4 SWAP2 SWAP1 PUSH3 0x5C4 JUMP JUMPDEST SWAP2 POP PUSH3 0x2AC JUMP JUMPDEST PUSH1 0x0 DUP2 PUSH8 0xFFFFFFFFFFFFFFFF DUP2 GT ISZERO PUSH3 0x2FB JUMPI PUSH3 0x2FA PUSH3 0x81E JUMP JUMPDEST JUMPDEST PUSH1 0x40 MLOAD SWAP1 DUP1 DUP3 MSTORE DUP1 PUSH1 0x1F ADD PUSH1 0x1F NOT AND PUSH1 0x20 ADD DUP3 ADD PUSH1 0x40 MSTORE DUP1 ISZERO PUSH3 0x32E JUMPI DUP2 PUSH1 0x20 ADD PUSH1 0x1 DUP3 MUL DUP1 CALLDATASIZE DUP4 CALLDATACOPY DUP1 DUP3 ADD SWAP2 POP POP SWAP1 POP JUMPDEST POP SWAP1 POP JUMPDEST PUSH1 0x0 DUP6 EQ PUSH3 0x3C8 JUMPI PUSH1 0x1 DUP3 PUSH3 0x34A SWAP2 SWAP1 PUSH3 0x5FC JUMP JUMPDEST SWAP2 POP PUSH1 0xA DUP6 PUSH3 0x35B SWAP2 SWAP1 PUSH3 0x6FB JUMP JUMPDEST PUSH1 0x30 PUSH3 0x369 SWAP2 SWAP1 PUSH3 0x567 JUMP JUMPDEST PUSH1 0xF8 SHL DUP2 DUP4 DUP2 MLOAD DUP2 LT PUSH3 0x382 JUMPI PUSH3 0x381 PUSH3 0x7EF JUMP JUMPDEST JUMPDEST PUSH1 0x20 ADD ADD SWAP1 PUSH31 0xFFFFFFFFFFFFFFFFFFFFFFFFFFFFFFFFFFFFFFFFFFFFFFFFFFFFFFFFFFFFFF NOT AND SWAP1 DUP2 PUSH1 0x0 BYTE SWAP1 MSTORE8 POP PUSH1 0xA DUP6 PUSH3 0x3C0 SWAP2 SWAP1 PUSH3 0x5C4 JUMP JUMPDEST SWAP5 POP PUSH3 0x332 JUMP JUMPDEST DUP1 SWAP4 POP POP POP POP JUMPDEST SWAP2 SWAP1 POP JUMP JUMPDEST DUP3 DUP1 SLOAD PUSH3 0x3E2 SWAP1 PUSH3 0x677 JUMP JUMPDEST SWAP1 PUSH1 0x0 MSTORE PUSH1 0x20 PUSH1 0x0 KECCAK256 SWAP1 PUSH1 0x1F ADD PUSH1 0x20 SWAP1 DIV DUP2 ADD SWAP3 DUP3 PUSH3 0x406 JUMPI PUSH1 0x0 DUP6 SSTORE PUSH3 0x452 JUMP JUMPDEST DUP3 PUSH1 0x1F LT PUSH3 0x421 JUMPI DUP1 MLOAD PUSH1 0xFF NOT AND DUP4 DUP1 ADD OR DUP6 SSTORE PUSH3 0x452 JUMP JUMPDEST DUP3 DUP1 ADD PUSH1 0x1 ADD DUP6 SSTORE DUP3 ISZERO PUSH3 0x452 JUMPI SWAP2 DUP3 ADD JUMPDEST DUP3 DUP2 GT ISZERO PUSH3 0x451 JUMPI DUP3 MLOAD DUP3 SSTORE SWAP2 PUSH1 0x20 ADD SWAP2 SWAP1 PUSH1 0x1 ADD SWAP1 PUSH3 0x434 JUMP JUMPDEST JUMPDEST POP SWAP1 POP PUSH3 0x461 SWAP2 SWAP1 PUSH3 0x465 JUMP JUMPDEST POP SWAP1 JUMP JUMPDEST JUMPDEST DUP1 DUP3 GT ISZERO PUSH3 0x480 JUMPI PUSH1 0x0 DUP2 PUSH1 0x0 SWAP1 SSTORE POP PUSH1 0x1 ADD PUSH3 0x466 JUMP JUMPDEST POP SWAP1 JUMP JUMPDEST PUSH1 0x0 DUP2 MLOAD SWAP1 POP PUSH3 0x495 DUP2 PUSH3 0x8A1 JUMP JUMPDEST SWAP3 SWAP2 POP POP JUMP JUMPDEST PUSH1 0x0 PUSH1 0x20 DUP3 DUP5 SUB SLT ISZERO PUSH3 0x4B4 JUMPI PUSH3 0x4B3 PUSH3 0x84D JUMP JUMPDEST JUMPDEST PUSH1 0x0 PUSH3 0x4C4 DUP5 DUP3 DUP6 ADD PUSH3 0x484 JUMP JUMPDEST SWAP2 POP POP SWAP3 SWAP2 POP POP JUMP JUMPDEST PUSH1 0x0 PUSH3 0x4DA DUP3 PUSH3 0x551 JUMP JUMPDEST PUSH3 0x4E6 DUP2 DUP6 PUSH3 0x55C JUMP JUMPDEST SWAP4 POP PUSH3 0x4F8 DUP2 DUP6 PUSH1 0x20 DUP7 ADD PUSH3 0x641 JUMP JUMPDEST DUP1 DUP5 ADD SWAP2 POP POP SWAP3 SWAP2 POP POP JUMP JUMPDEST PUSH1 0x0 PUSH3 0x513 PUSH1 0x21 DUP4 PUSH3 0x55C JUMP JUMPDEST SWAP2 POP PUSH3 0x520 DUP3 PUSH3 0x852 JUMP JUMPDEST PUSH1 0x21 DUP3 ADD SWAP1 POP SWAP2 SWAP1 POP JUMP JUMPDEST PUSH1 0x0 PUSH3 0x538 DUP3 PUSH3 0x504 JUMP JUMPDEST SWAP2 POP PUSH3 0x546 DUP3 DUP5 PUSH3 0x4CD JUMP JUMPDEST SWAP2 POP DUP2 SWAP1 POP SWAP3 SWAP2 POP POP JUMP JUMPDEST PUSH1 0x0 DUP2 MLOAD SWAP1 POP SWAP2 SWAP1 POP JUMP JUMPDEST PUSH1 0x0 DUP2 SWAP1 POP SWAP3 SWAP2 POP POP JUMP JUMPDEST PUSH1 0x0 PUSH3 0x574 DUP3 PUSH3 0x637 JUMP JUMPDEST SWAP2 POP PUSH3 0x581 DUP4 PUSH3 0x637 JUMP JUMPDEST SWAP3 POP DUP3 PUSH32 0xFFFFFFFFFFFFFFFFFFFFFFFFFFFFFFFFFFFFFFFFFFFFFFFFFFFFFFFFFFFFFFFF SUB DUP3 GT ISZERO PUSH3 0x5B9 JUMPI PUSH3 0x5B8 PUSH3 0x733 JUMP JUMPDEST JUMPDEST DUP3 DUP3 ADD SWAP1 POP SWAP3 SWAP2 POP POP JUMP JUMPDEST PUSH1 0x0 PUSH3 0x5D1 DUP3 PUSH3 0x637 JUMP JUMPDEST SWAP2 POP PUSH3 0x5DE DUP4 PUSH3 0x637 JUMP JUMPDEST SWAP3 POP DUP3 PUSH3 0x5F1 JUMPI PUSH3 0x5F0 PUSH3 0x762 JUMP JUMPDEST JUMPDEST DUP3 DUP3 DIV SWAP1 POP SWAP3 SWAP2 POP POP JUMP JUMPDEST PUSH1 0x0 PUSH3 0x609 DUP3 PUSH3 0x637 JUMP JUMPDEST SWAP2 POP PUSH3 0x616 DUP4 PUSH3 0x637 JUMP JUMPDEST SWAP3 POP DUP3 DUP3 LT ISZERO PUSH3 0x62C JUMPI PUSH3 0x62B PUSH3 0x733 JUMP JUMPDEST JUMPDEST DUP3 DUP3 SUB SWAP1 POP SWAP3 SWAP2 POP POP JUMP JUMPDEST PUSH1 0x0 DUP2 SWAP1 POP SWAP2 SWAP1 POP JUMP JUMPDEST PUSH1 0x0 JUMPDEST DUP4 DUP2 LT ISZERO PUSH3 0x661 JUMPI DUP1 DUP3 ADD MLOAD DUP2 DUP5 ADD MSTORE PUSH1 0x20 DUP2 ADD SWAP1 POP PUSH3 0x644 JUMP JUMPDEST DUP4 DUP2 GT ISZERO PUSH3 0x671 JUMPI PUSH1 0x0 DUP5 DUP5 ADD MSTORE JUMPDEST POP POP POP POP JUMP JUMPDEST PUSH1 0x0 PUSH1 0x2 DUP3 DIV SWAP1 POP PUSH1 0x1 DUP3 AND DUP1 PUSH3 0x690 JUMPI PUSH1 0x7F DUP3 AND SWAP2 POP JUMPDEST PUSH1 0x20 DUP3 LT DUP2 EQ ISZERO PUSH3 0x6A7 JUMPI PUSH3 0x6A6 PUSH3 0x7C0 JUMP JUMPDEST JUMPDEST POP SWAP2 SWAP1 POP JUMP JUMPDEST PUSH1 0x0 PUSH3 0x6BA DUP3 PUSH3 0x637 JUMP JUMPDEST SWAP2 POP PUSH32 0xFFFFFFFFFFFFFFFFFFFFFFFFFFFFFFFFFFFFFFFFFFFFFFFFFFFFFFFFFFFFFFFF DUP3 EQ ISZERO PUSH3 0x6F0 JUMPI PUSH3 0x6EF PUSH3 0x733 JUMP JUMPDEST JUMPDEST PUSH1 0x1 DUP3 ADD SWAP1 POP SWAP2 SWAP1 POP JUMP JUMPDEST PUSH1 0x0 PUSH3 0x708 DUP3 PUSH3 0x637 JUMP JUMPDEST SWAP2 POP PUSH3 0x715 DUP4 PUSH3 0x637 JUMP JUMPDEST SWAP3 POP DUP3 PUSH3 0x728 JUMPI PUSH3 0x727 PUSH3 0x762 JUMP JUMPDEST JUMPDEST DUP3 DUP3 MOD SWAP1 POP SWAP3 SWAP2 POP POP JUMP JUMPDEST PUSH32 0x4E487B7100000000000000000000000000000000000000000000000000000000 PUSH1 0x0 MSTORE PUSH1 0x11 PUSH1 0x4 MSTORE PUSH1 0x24 PUSH1 0x0 REVERT JUMPDEST PUSH32 0x4E487B7100000000000000000000000000000000000000000000000000000000 PUSH1 0x0 MSTORE PUSH1 0x12 PUSH1 0x4 MSTORE PUSH1 0x24 PUSH1 0x0 REVERT JUMPDEST PUSH32 0x4E487B7100000000000000000000000000000000000000000000000000000000 PUSH1 0x0 MSTORE PUSH1 0x21 PUSH1 0x4 MSTORE PUSH1 0x24 PUSH1 0x0 REVERT JUMPDEST PUSH32 0x4E487B7100000000000000000000000000000000000000000000000000000000 PUSH1 0x0 MSTORE PUSH1 0x22 PUSH1 0x4 MSTORE PUSH1 0x24 PUSH1 0x0 REVERT JUMPDEST PUSH32 0x4E487B7100000000000000000000000000000000000000000000000000000000 PUSH1 0x0 MSTORE PUSH1 0x32 PUSH1 0x4 MSTORE PUSH1 0x24 PUSH1 0x0 REVERT JUMPDEST PUSH32 0x4E487B7100000000000000000000000000000000000000000000000000000000 PUSH1 0x0 MSTORE PUSH1 0x41 PUSH1 0x4 MSTORE PUSH1 0x24 PUSH1 0x0 REVERT JUMPDEST PUSH1 0x0 DUP1 REVERT JUMPDEST PUSH32 0x687474703A2F2F686F73742E656E74726F7065732E78797A2F70726F6A656374 PUSH1 0x0 DUP3 ADD MSTORE PUSH32 0x2F00000000000000000000000000000000000000000000000000000000000000 PUSH1 0x20 DUP3 ADD MSTORE POP JUMP JUMPDEST PUSH3 0x8AC DUP2 PUSH3 0x637 JUMP JUMPDEST DUP2 EQ PUSH3 0x8B8 JUMPI PUSH1 0x0 DUP1 REVERT JUMPDEST POP JUMP JUMPDEST PUSH2 0x42F7 DUP1 PUSH3 0x8CB PUSH1 0x0 CODECOPY PUSH1 0x0 RETURN INVALID PUSH1 0x80 PUSH1 0x40 MSTORE PUSH1 0x4 CALLDATASIZE LT PUSH2 0x213 JUMPI PUSH1 0x0 CALLDATALOAD PUSH1 0xE0 SHR DUP1 PUSH4 0x78A89567 GT PUSH2 0x118 JUMPI DUP1 PUSH4 0xA152E361 GT PUSH2 0xA0 JUMPI DUP1 PUSH4 0xC313B339 GT PUSH2 0x6F JUMPI DUP1 PUSH4 0xC313B339 EQ PUSH2 0x800 JUMPI DUP1 PUSH4 0xC87B56DD EQ PUSH2 0x83D JUMPI DUP1 PUSH4 0xDBA98E5B EQ PUSH2 0x87A JUMPI DUP1 PUSH4 0xE985E9C5 EQ PUSH2 0x8B7 JUMPI DUP1 PUSH4 0xF2FDE38B EQ PUSH2 0x8F4 JUMPI PUSH2 0x214 JUMP JUMPDEST DUP1 PUSH4 0xA152E361 EQ PUSH2 0x77B JUMPI DUP1 PUSH4 0xA22CB465 EQ PUSH2 0x7A4 JUMPI DUP1 PUSH4 0xA4821719 EQ PUSH2 0x7CD JUMPI DUP1 PUSH4 0xB88D4FDE EQ PUSH2 0x7D7 JUMPI PUSH2 0x214 JUMP JUMPDEST DUP1 PUSH4 0x83B2D174 GT PUSH2 0xE7 JUMPI DUP1 PUSH4 0x83B2D174 EQ PUSH2 0x6B5 JUMPI DUP1 PUSH4 0x8DA5CB5B EQ PUSH2 0x6D1 JUMPI DUP1 PUSH4 0x91B7F5ED EQ PUSH2 0x6FC JUMPI DUP1 PUSH4 0x95D89B41 EQ PUSH2 0x725 JUMPI DUP1 PUSH4 0x98D5FDCA EQ PUSH2 0x750 JUMPI PUSH2 0x214 JUMP JUMPDEST DUP1 PUSH4 0x78A89567 EQ PUSH2 0x5F9 JUMPI DUP1 PUSH4 0x7FF9B596 EQ PUSH2 0x624 JUMPI DUP1 PUSH4 0x80A9DC0F EQ PUSH2 0x64F JUMPI DUP1 PUSH4 0x830639AC EQ PUSH2 0x678 JUMPI PUSH2 0x214 JUMP JUMPDEST DUP1 PUSH4 0x3B4C4B25 GT PUSH2 0x19B JUMPI DUP1 PUSH4 0x5A67DE07 GT PUSH2 0x16A JUMPI DUP1 PUSH4 0x5A67DE07 EQ PUSH2 0x514 JUMPI DUP1 PUSH4 0x6352211E EQ PUSH2 0x53D JUMPI DUP1 PUSH4 0x6C9C2FAF EQ PUSH2 0x57A JUMPI DUP1 PUSH4 0x70A08231 EQ PUSH2 0x5A5 JUMPI DUP1 PUSH4 0x715018A6 EQ PUSH2 0x5E2 JUMPI PUSH2 0x214 JUMP JUMPDEST DUP1 PUSH4 0x3B4C4B25 EQ PUSH2 0x46E JUMPI DUP1 PUSH4 0x3CE68DD5 EQ PUSH2 0x497 JUMPI DUP1 PUSH4 0x42842E0E EQ PUSH2 0x4C2 JUMPI DUP1 PUSH4 0x55F804B3 EQ PUSH2 0x4EB JUMPI PUSH2 0x214 JUMP JUMPDEST DUP1 PUSH4 0x95EA7B3 GT PUSH2 0x1E2 JUMPI DUP1 PUSH4 0x95EA7B3 EQ PUSH2 0x377 JUMPI DUP1 PUSH4 0x16A1ABB4 EQ PUSH2 0x3A0 JUMPI DUP1 PUSH4 0x23B872DD EQ PUSH2 0x3DD JUMPI DUP1 PUSH4 0x25BDB2A8 EQ PUSH2 0x406 JUMPI DUP1 PUSH4 0x3AF32ABF EQ PUSH2 0x431 JUMPI PUSH2 0x214 JUMP JUMPDEST DUP1 PUSH4 0x1FFC9A7 EQ PUSH2 0x2A7 JUMPI DUP1 PUSH4 0x47FC9AA EQ PUSH2 0x2E4 JUMPI DUP1 PUSH4 0x6FDDE03 EQ PUSH2 0x30F JUMPI DUP1 PUSH4 0x81812FC EQ PUSH2 0x33A JUMPI PUSH2 0x214 JUMP JUMPDEST JUMPDEST PUSH1 0x0 CALLVALUE GT PUSH2 0x257 JUMPI PUSH1 0x40 MLOAD PUSH32 0x8C379A000000000000000000000000000000000000000000000000000000000 DUP2 MSTORE PUSH1 0x4 ADD PUSH2 0x24E SWAP1 PUSH2 0x3524 JUMP JUMPDEST PUSH1 0x40 MLOAD DUP1 SWAP2 SUB SWAP1 REVERT JUMPDEST PUSH2 0x25F PUSH2 0x91D JUMP JUMPDEST PUSH20 0xFFFFFFFFFFFFFFFFFFFFFFFFFFFFFFFFFFFFFFFF AND PUSH2 0x8FC CALLVALUE SWAP1 DUP2 ISZERO MUL SWAP1 PUSH1 0x40 MLOAD PUSH1 0x0 PUSH1 0x40 MLOAD DUP1 DUP4 SUB DUP2 DUP6 DUP9 DUP9 CALL SWAP4 POP POP POP POP ISZERO DUP1 ISZERO PUSH2 0x2A4 JUMPI RETURNDATASIZE PUSH1 0x0 DUP1 RETURNDATACOPY RETURNDATASIZE PUSH1 0x0 REVERT JUMPDEST POP STOP JUMPDEST CALLVALUE DUP1 ISZERO PUSH2 0x2B3 JUMPI PUSH1 0x0 DUP1 REVERT JUMPDEST POP PUSH2 0x2CE PUSH1 0x4 DUP1 CALLDATASIZE SUB DUP2 ADD SWAP1 PUSH2 0x2C9 SWAP2 SWAP1 PUSH2 0x2D53 JUMP JUMPDEST PUSH2 0x947 JUMP JUMPDEST PUSH1 0x40 MLOAD PUSH2 0x2DB SWAP2 SWAP1 PUSH2 0x3467 JUMP JUMPDEST PUSH1 0x40 MLOAD DUP1 SWAP2 SUB SWAP1 RETURN JUMPDEST CALLVALUE DUP1 ISZERO PUSH2 0x2F0 JUMPI PUSH1 0x0 DUP1 REVERT JUMPDEST POP PUSH2 0x2F9 PUSH2 0xA29 JUMP JUMPDEST PUSH1 0x40 MLOAD PUSH2 0x306 SWAP2 SWAP1 PUSH2 0x3764 JUMP JUMPDEST PUSH1 0x40 MLOAD DUP1 SWAP2 SUB SWAP1 RETURN JUMPDEST CALLVALUE DUP1 ISZERO PUSH2 0x31B JUMPI PUSH1 0x0 DUP1 REVERT JUMPDEST POP PUSH2 0x324 PUSH2 0xA2F JUMP JUMPDEST PUSH1 0x40 MLOAD PUSH2 0x331 SWAP2 SWAP1 PUSH2 0x3482 JUMP JUMPDEST PUSH1 0x40 MLOAD DUP1 SWAP2 SUB SWAP1 RETURN JUMPDEST CALLVALUE DUP1 ISZERO PUSH2 0x346 JUMPI PUSH1 0x0 DUP1 REVERT JUMPDEST POP PUSH2 0x361 PUSH1 0x4 DUP1 CALLDATASIZE SUB DUP2 ADD SWAP1 PUSH2 0x35C SWAP2 SWAP1 PUSH2 0x2DF6 JUMP JUMPDEST PUSH2 0xAC1 JUMP JUMPDEST PUSH1 0x40 MLOAD PUSH2 0x36E SWAP2 SWAP1 PUSH2 0x33DE JUMP JUMPDEST PUSH1 0x40 MLOAD DUP1 SWAP2 SUB SWAP1 RETURN JUMPDEST CALLVALUE DUP1 ISZERO PUSH2 0x383 JUMPI PUSH1 0x0 DUP1 REVERT JUMPDEST POP PUSH2 0x39E PUSH1 0x4 DUP1 CALLDATASIZE SUB DUP2 ADD SWAP1 PUSH2 0x399 SWAP2 SWAP1 PUSH2 0x2CB7 JUMP JUMPDEST PUSH2 0xB07 JUMP JUMPDEST STOP JUMPDEST CALLVALUE DUP1 ISZERO PUSH2 0x3AC JUMPI PUSH1 0x0 DUP1 REVERT JUMPDEST POP PUSH2 0x3C7 PUSH1 0x4 DUP1 CALLDATASIZE SUB DUP2 ADD SWAP1 PUSH2 0x3C2 SWAP2 SWAP1 PUSH2 0x2E23 JUMP JUMPDEST PUSH2 0xC1F JUMP JUMPDEST PUSH1 0x40 MLOAD PUSH2 0x3D4 SWAP2 SWAP1 PUSH2 0x3445 JUMP JUMPDEST PUSH1 0x40 MLOAD DUP1 SWAP2 SUB SWAP1 RETURN JUMPDEST CALLVALUE DUP1 ISZERO PUSH2 0x3E9 JUMPI PUSH1 0x0 DUP1 REVERT JUMPDEST POP PUSH2 0x404 PUSH1 0x4 DUP1 CALLDATASIZE SUB DUP2 ADD SWAP1 PUSH2 0x3FF SWAP2 SWAP1 PUSH2 0x2BA1 JUMP JUMPDEST PUSH2 0xCE2 JUMP JUMPDEST STOP JUMPDEST CALLVALUE DUP1 ISZERO PUSH2 0x412 JUMPI PUSH1 0x0 DUP1 REVERT JUMPDEST POP PUSH2 0x41B PUSH2 0xD42 JUMP JUMPDEST PUSH1 0x40 MLOAD PUSH2 0x428 SWAP2 SWAP1 PUSH2 0x377F JUMP JUMPDEST PUSH1 0x40 MLOAD DUP1 SWAP2 SUB SWAP1 RETURN JUMPDEST CALLVALUE DUP1 ISZERO PUSH2 0x43D JUMPI PUSH1 0x0 DUP1 REVERT JUMPDEST POP PUSH2 0x458 PUSH1 0x4 DUP1 CALLDATASIZE SUB DUP2 ADD SWAP1 PUSH2 0x453 SWAP2 SWAP1 PUSH2 0x2B34 JUMP JUMPDEST PUSH2 0xD6B JUMP JUMPDEST PUSH1 0x40 MLOAD PUSH2 0x465 SWAP2 SWAP1 PUSH2 0x3467 JUMP JUMPDEST PUSH1 0x40 MLOAD DUP1 SWAP2 SUB SWAP1 RETURN JUMPDEST CALLVALUE DUP1 ISZERO PUSH2 0x47A JUMPI PUSH1 0x0 DUP1 REVERT JUMPDEST POP PUSH2 0x495 PUSH1 0x4 DUP1 CALLDATASIZE SUB DUP2 ADD SWAP1 PUSH2 0x490 SWAP2 SWAP1 PUSH2 0x2DF6 JUMP JUMPDEST PUSH2 0xDB6 JUMP JUMPDEST STOP JUMPDEST CALLVALUE DUP1 ISZERO PUSH2 0x4A3 JUMPI PUSH1 0x0 DUP1 REVERT JUMPDEST POP PUSH2 0x4AC PUSH2 0xDC8 JUMP JUMPDEST PUSH1 0x40 MLOAD PUSH2 0x4B9 SWAP2 SWAP1 PUSH2 0x3482 JUMP JUMPDEST PUSH1 0x40 MLOAD DUP1 SWAP2 SUB SWAP1 RETURN JUMPDEST CALLVALUE DUP1 ISZERO PUSH2 0x4CE JUMPI PUSH1 0x0 DUP1 REVERT JUMPDEST POP PUSH2 0x4E9 PUSH1 0x4 DUP1 CALLDATASIZE SUB DUP2 ADD SWAP1 PUSH2 0x4E4 SWAP2 SWAP1 PUSH2 0x2BA1 JUMP JUMPDEST PUSH2 0xE56 JUMP JUMPDEST STOP JUMPDEST CALLVALUE DUP1 ISZERO PUSH2 0x4F7 JUMPI PUSH1 0x0 DUP1 REVERT JUMPDEST POP PUSH2 0x512 PUSH1 0x4 DUP1 CALLDATASIZE SUB DUP2 ADD SWAP1 PUSH2 0x50D SWAP2 SWAP1 PUSH2 0x2DAD JUMP JUMPDEST PUSH2 0xE76 JUMP JUMPDEST STOP JUMPDEST CALLVALUE DUP1 ISZERO PUSH2 0x520 JUMPI PUSH1 0x0 DUP1 REVERT JUMPDEST POP PUSH2 0x53B PUSH1 0x4 DUP1 CALLDATASIZE SUB DUP2 ADD SWAP1 PUSH2 0x536 SWAP2 SWAP1 PUSH2 0x2E63 JUMP JUMPDEST PUSH2 0xE98 JUMP JUMPDEST STOP JUMPDEST CALLVALUE DUP1 ISZERO PUSH2 0x549 JUMPI PUSH1 0x0 DUP1 REVERT JUMPDEST POP PUSH2 0x564 PUSH1 0x4 DUP1 CALLDATASIZE SUB DUP2 ADD SWAP1 PUSH2 0x55F SWAP2 SWAP1 PUSH2 0x2DF6 JUMP JUMPDEST PUSH2 0xEE2 JUMP JUMPDEST PUSH1 0x40 MLOAD PUSH2 0x571 SWAP2 SWAP1 PUSH2 0x33DE JUMP JUMPDEST PUSH1 0x40 MLOAD DUP1 SWAP2 SUB SWAP1 RETURN JUMPDEST CALLVALUE DUP1 ISZERO PUSH2 0x586 JUMPI PUSH1 0x0 DUP1 REVERT JUMPDEST POP PUSH2 0x58F PUSH2 0xF94 JUMP JUMPDEST PUSH1 0x40 MLOAD PUSH2 0x59C SWAP2 SWAP1 PUSH2 0x3764 JUMP JUMPDEST PUSH1 0x40 MLOAD DUP1 SWAP2 SUB SWAP1 RETURN JUMPDEST CALLVALUE DUP1 ISZERO PUSH2 0x5B1 JUMPI PUSH1 0x0 DUP1 REVERT JUMPDEST POP PUSH2 0x5CC PUSH1 0x4 DUP1 CALLDATASIZE SUB DUP2 ADD SWAP1 PUSH2 0x5C7 SWAP2 SWAP1 PUSH2 0x2B34 JUMP JUMPDEST PUSH2 0xF9E JUMP JUMPDEST PUSH1 0x40 MLOAD PUSH2 0x5D9 SWAP2 SWAP1 PUSH2 0x3764 JUMP JUMPDEST PUSH1 0x40 MLOAD DUP1 SWAP2 SUB SWAP1 RETURN JUMPDEST CALLVALUE DUP1 ISZERO PUSH2 0x5EE JUMPI PUSH1 0x0 DUP1 REVERT JUMPDEST POP PUSH2 0x5F7 PUSH2 0x1056 JUMP JUMPDEST STOP JUMPDEST CALLVALUE DUP1 ISZERO PUSH2 0x605 JUMPI PUSH1 0x0 DUP1 REVERT JUMPDEST POP PUSH2 0x60E PUSH2 0x106A JUMP JUMPDEST PUSH1 0x40 MLOAD PUSH2 0x61B SWAP2 SWAP1 PUSH2 0x3764 JUMP JUMPDEST PUSH1 0x40 MLOAD DUP1 SWAP2 SUB SWAP1 RETURN JUMPDEST CALLVALUE DUP1 ISZERO PUSH2 0x630 JUMPI PUSH1 0x0 DUP1 REVERT JUMPDEST POP PUSH2 0x639 PUSH2 0x107B JUMP JUMPDEST PUSH1 0x40 MLOAD PUSH2 0x646 SWAP2 SWAP1 PUSH2 0x3764 JUMP JUMPDEST PUSH1 0x40 MLOAD DUP1 SWAP2 SUB SWAP1 RETURN JUMPDEST CALLVALUE DUP1 ISZERO PUSH2 0x65B JUMPI PUSH1 0x0 DUP1 REVERT JUMPDEST POP PUSH2 0x676 PUSH1 0x4 DUP1 CALLDATASIZE SUB DUP2 ADD SWAP1 PUSH2 0x671 SWAP2 SWAP1 PUSH2 0x2CF7 JUMP JUMPDEST PUSH2 0x1081 JUMP JUMPDEST STOP JUMPDEST CALLVALUE DUP1 ISZERO PUSH2 0x684 JUMPI PUSH1 0x0 DUP1 REVERT JUMPDEST POP PUSH2 0x69F PUSH1 0x4 DUP1 CALLDATASIZE SUB DUP2 ADD SWAP1 PUSH2 0x69A SWAP2 SWAP1 PUSH2 0x2CB7 JUMP JUMPDEST PUSH2 0x110B JUMP JUMPDEST PUSH1 0x40 MLOAD PUSH2 0x6AC SWAP2 SWAP1 PUSH2 0x3467 JUMP JUMPDEST PUSH1 0x40 MLOAD DUP1 SWAP2 SUB SWAP1 RETURN JUMPDEST PUSH2 0x6CF PUSH1 0x4 DUP1 CALLDATASIZE SUB DUP2 ADD SWAP1 PUSH2 0x6CA SWAP2 SWAP1 PUSH2 0x2DF6 JUMP JUMPDEST PUSH2 0x1158 JUMP JUMPDEST STOP JUMPDEST CALLVALUE DUP1 ISZERO PUSH2 0x6DD JUMPI PUSH1 0x0 DUP1 REVERT JUMPDEST POP PUSH2 0x6E6 PUSH2 0x91D JUMP JUMPDEST PUSH1 0x40 MLOAD PUSH2 0x6F3 SWAP2 SWAP1 PUSH2 0x33DE JUMP JUMPDEST PUSH1 0x40 MLOAD DUP1 SWAP2 SUB SWAP1 RETURN JUMPDEST CALLVALUE DUP1 ISZERO PUSH2 0x708 JUMPI PUSH1 0x0 DUP1 REVERT JUMPDEST POP PUSH2 0x723 PUSH1 0x4 DUP1 CALLDATASIZE SUB DUP2 ADD SWAP1 PUSH2 0x71E SWAP2 SWAP1 PUSH2 0x2DF6 JUMP JUMPDEST PUSH2 0x143D JUMP JUMPDEST STOP JUMPDEST CALLVALUE DUP1 ISZERO PUSH2 0x731 JUMPI PUSH1 0x0 DUP1 REVERT JUMPDEST POP PUSH2 0x73A PUSH2 0x144F JUMP JUMPDEST PUSH1 0x40 MLOAD PUSH2 0x747 SWAP2 SWAP1 PUSH2 0x3482 JUMP JUMPDEST PUSH1 0x40 MLOAD DUP1 SWAP2 SUB SWAP1 RETURN JUMPDEST CALLVALUE DUP1 ISZERO PUSH2 0x75C JUMPI PUSH1 0x0 DUP1 REVERT JUMPDEST POP PUSH2 0x765 PUSH2 0x14E1 JUMP JUMPDEST PUSH1 0x40 MLOAD PUSH2 0x772 SWAP2 SWAP1 PUSH2 0x3764 JUMP JUMPDEST PUSH1 0x40 MLOAD DUP1 SWAP2 SUB SWAP1 RETURN JUMPDEST CALLVALUE DUP1 ISZERO PUSH2 0x787 JUMPI PUSH1 0x0 DUP1 REVERT JUMPDEST POP PUSH2 0x7A2 PUSH1 0x4 DUP1 CALLDATASIZE SUB DUP2 ADD SWAP1 PUSH2 0x79D SWAP2 SWAP1 PUSH2 0x2CB7 JUMP JUMPDEST PUSH2 0x14EB JUMP JUMPDEST STOP JUMPDEST CALLVALUE DUP1 ISZERO PUSH2 0x7B0 JUMPI PUSH1 0x0 DUP1 REVERT JUMPDEST POP PUSH2 0x7CB PUSH1 0x4 DUP1 CALLDATASIZE SUB DUP2 ADD SWAP1 PUSH2 0x7C6 SWAP2 SWAP1 PUSH2 0x2C77 JUMP JUMPDEST PUSH2 0x153B JUMP JUMPDEST STOP JUMPDEST PUSH2 0x7D5 PUSH2 0x1551 JUMP JUMPDEST STOP JUMPDEST CALLVALUE DUP1 ISZERO PUSH2 0x7E3 JUMPI PUSH1 0x0 DUP1 REVERT JUMPDEST POP PUSH2 0x7FE PUSH1 0x4 DUP1 CALLDATASIZE SUB DUP2 ADD SWAP1 PUSH2 0x7F9 SWAP2 SWAP1 PUSH2 0x2BF4 JUMP JUMPDEST PUSH2 0x1886 JUMP JUMPDEST STOP JUMPDEST CALLVALUE DUP1 ISZERO PUSH2 0x80C JUMPI PUSH1 0x0 DUP1 REVERT JUMPDEST POP PUSH2 0x827 PUSH1 0x4 DUP1 CALLDATASIZE SUB DUP2 ADD SWAP1 PUSH2 0x822 SWAP2 SWAP1 PUSH2 0x2B34 JUMP JUMPDEST PUSH2 0x18E8 JUMP JUMPDEST PUSH1 0x40 MLOAD PUSH2 0x834 SWAP2 SWAP1 PUSH2 0x3764 JUMP JUMPDEST PUSH1 0x40 MLOAD DUP1 SWAP2 SUB SWAP1 RETURN JUMPDEST CALLVALUE DUP1 ISZERO PUSH2 0x849 JUMPI PUSH1 0x0 DUP1 REVERT JUMPDEST POP PUSH2 0x864 PUSH1 0x4 DUP1 CALLDATASIZE SUB DUP2 ADD SWAP1 PUSH2 0x85F SWAP2 SWAP1 PUSH2 0x2DF6 JUMP JUMPDEST PUSH2 0x1931 JUMP JUMPDEST PUSH1 0x40 MLOAD PUSH2 0x871 SWAP2 SWAP1 PUSH2 0x3482 JUMP JUMPDEST PUSH1 0x40 MLOAD DUP1 SWAP2 SUB SWAP1 RETURN JUMPDEST CALLVALUE DUP1 ISZERO PUSH2 0x886 JUMPI PUSH1 0x0 DUP1 REVERT JUMPDEST POP PUSH2 0x8A1 PUSH1 0x4 DUP1 CALLDATASIZE SUB DUP2 ADD SWAP1 PUSH2 0x89C SWAP2 SWAP1 PUSH2 0x2B34 JUMP JUMPDEST PUSH2 0x1999 JUMP JUMPDEST PUSH1 0x40 MLOAD PUSH2 0x8AE SWAP2 SWAP1 PUSH2 0x3764 JUMP JUMPDEST PUSH1 0x40 MLOAD DUP1 SWAP2 SUB SWAP1 RETURN JUMPDEST CALLVALUE DUP1 ISZERO PUSH2 0x8C3 JUMPI PUSH1 0x0 DUP1 REVERT JUMPDEST POP PUSH2 0x8DE PUSH1 0x4 DUP1 CALLDATASIZE SUB DUP2 ADD SWAP1 PUSH2 0x8D9 SWAP2 SWAP1 PUSH2 0x2B61 JUMP JUMPDEST PUSH2 0x19CE JUMP JUMPDEST PUSH1 0x40 MLOAD PUSH2 0x8EB SWAP2 SWAP1 PUSH2 0x3467 JUMP JUMPDEST PUSH1 0x40 MLOAD DUP1 SWAP2 SUB SWAP1 RETURN JUMPDEST CALLVALUE DUP1 ISZERO PUSH2 0x900 JUMPI PUSH1 0x0 DUP1 REVERT JUMPDEST POP PUSH2 0x91B PUSH1 0x4 DUP1 CALLDATASIZE SUB DUP2 ADD SWAP1 PUSH2 0x916 SWAP2 SWAP1 PUSH2 0x2B34 JUMP JUMPDEST PUSH2 0x1A62 JUMP JUMPDEST STOP JUMPDEST PUSH1 0x0 PUSH1 0x6 PUSH1 0x0 SWAP1 SLOAD SWAP1 PUSH2 0x100 EXP SWAP1 DIV PUSH20 0xFFFFFFFFFFFFFFFFFFFFFFFFFFFFFFFFFFFFFFFF AND SWAP1 POP SWAP1 JUMP JUMPDEST PUSH1 0x0 PUSH32 0x80AC58CD00000000000000000000000000000000000000000000000000000000 PUSH28 0xFFFFFFFFFFFFFFFFFFFFFFFFFFFFFFFFFFFFFFFFFFFFFFFFFFFFFFFF NOT AND DUP3 PUSH28 0xFFFFFFFFFFFFFFFFFFFFFFFFFFFFFFFFFFFFFFFFFFFFFFFFFFFFFFFF NOT AND EQ DUP1 PUSH2 0xA12 JUMPI POP PUSH32 0x5B5E139F00000000000000000000000000000000000000000000000000000000 PUSH28 0xFFFFFFFFFFFFFFFFFFFFFFFFFFFFFFFFFFFFFFFFFFFFFFFFFFFFFFFF NOT AND DUP3 PUSH28 0xFFFFFFFFFFFFFFFFFFFFFFFFFFFFFFFFFFFFFFFFFFFFFFFFFFFFFFFF NOT AND EQ JUMPDEST DUP1 PUSH2 0xA22 JUMPI POP PUSH2 0xA21 DUP3 PUSH2 0x1C47 JUMP JUMPDEST JUMPDEST SWAP1 POP SWAP2 SWAP1 POP JUMP JUMPDEST PUSH1 0x9 SLOAD DUP2 JUMP JUMPDEST PUSH1 0x60 PUSH1 0x0 DUP1 SLOAD PUSH2 0xA3E SWAP1 PUSH2 0x3AB6 JUMP JUMPDEST DUP1 PUSH1 0x1F ADD PUSH1 0x20 DUP1 SWAP2 DIV MUL PUSH1 0x20 ADD PUSH1 0x40 MLOAD SWAP1 DUP2 ADD PUSH1 0x40 MSTORE DUP1 SWAP3 SWAP2 SWAP1 DUP2 DUP2 MSTORE PUSH1 0x20 ADD DUP3 DUP1 SLOAD PUSH2 0xA6A SWAP1 PUSH2 0x3AB6 JUMP JUMPDEST DUP1 ISZERO PUSH2 0xAB7 JUMPI DUP1 PUSH1 0x1F LT PUSH2 0xA8C JUMPI PUSH2 0x100 DUP1 DUP4 SLOAD DIV MUL DUP4 MSTORE SWAP2 PUSH1 0x20 ADD SWAP2 PUSH2 0xAB7 JUMP JUMPDEST DUP3 ADD SWAP2 SWAP1 PUSH1 0x0 MSTORE PUSH1 0x20 PUSH1 0x0 KECCAK256 SWAP1 JUMPDEST DUP2 SLOAD DUP2 MSTORE SWAP1 PUSH1 0x1 ADD SWAP1 PUSH1 0x20 ADD DUP1 DUP4 GT PUSH2 0xA9A JUMPI DUP3 SWAP1 SUB PUSH1 0x1F AND DUP3 ADD SWAP2 JUMPDEST POP POP POP POP POP SWAP1 POP SWAP1 JUMP JUMPDEST PUSH1 0x0 PUSH2 0xACC DUP3 PUSH2 0x1CB1 JUMP JUMPDEST PUSH1 0x4 PUSH1 0x0 DUP4 DUP2 MSTORE PUSH1 0x20 ADD SWAP1 DUP2 MSTORE PUSH1 0x20 ADD PUSH1 0x0 KECCAK256 PUSH1 0x0 SWAP1 SLOAD SWAP1 PUSH2 0x100 EXP SWAP1 DIV PUSH20 0xFFFFFFFFFFFFFFFFFFFFFFFFFFFFFFFFFFFFFFFF AND SWAP1 POP SWAP2 SWAP1 POP JUMP JUMPDEST PUSH1 0x0 PUSH2 0xB12 DUP3 PUSH2 0xEE2 JUMP JUMPDEST SWAP1 POP DUP1 PUSH20 0xFFFFFFFFFFFFFFFFFFFFFFFFFFFFFFFFFFFFFFFF AND DUP4 PUSH20 0xFFFFFFFFFFFFFFFFFFFFFFFFFFFFFFFFFFFFFFFF AND EQ ISZERO PUSH2 0xB83 JUMPI PUSH1 0x40 MLOAD PUSH32 0x8C379A000000000000000000000000000000000000000000000000000000000 DUP2 MSTORE PUSH1 0x4 ADD PUSH2 0xB7A SWAP1 PUSH2 0x36E4 JUMP JUMPDEST PUSH1 0x40 MLOAD DUP1 SWAP2 SUB SWAP1 REVERT JUMPDEST DUP1 PUSH20 0xFFFFFFFFFFFFFFFFFFFFFFFFFFFFFFFFFFFFFFFF AND PUSH2 0xBA2 PUSH2 0x1CFC JUMP JUMPDEST PUSH20 0xFFFFFFFFFFFFFFFFFFFFFFFFFFFFFFFFFFFFFFFF AND EQ DUP1 PUSH2 0xBD1 JUMPI POP PUSH2 0xBD0 DUP2 PUSH2 0xBCB PUSH2 0x1CFC JUMP JUMPDEST PUSH2 0x19CE JUMP JUMPDEST JUMPDEST PUSH2 0xC10 JUMPI PUSH1 0x40 MLOAD PUSH32 0x8C379A000000000000000000000000000000000000000000000000000000000 DUP2 MSTORE PUSH1 0x4 ADD PUSH2 0xC07 SWAP1 PUSH2 0x3624 JUMP JUMPDEST PUSH1 0x40 MLOAD DUP1 SWAP2 SUB SWAP1 REVERT JUMPDEST PUSH2 0xC1A DUP4 DUP4 PUSH2 0x1D04 JUMP JUMPDEST POP POP POP JUMP JUMPDEST PUSH1 0x60 PUSH2 0xC29 PUSH2 0x1DBD JUMP JUMPDEST PUSH1 0x0 DUP4 PUSH8 0xFFFFFFFFFFFFFFFF DUP2 GT ISZERO PUSH2 0xC45 JUMPI PUSH2 0xC44 PUSH2 0x3C7E JUMP JUMPDEST JUMPDEST PUSH1 0x40 MLOAD SWAP1 DUP1 DUP3 MSTORE DUP1 PUSH1 0x20 MUL PUSH1 0x20 ADD DUP3 ADD PUSH1 0x40 MSTORE DUP1 ISZERO PUSH2 0xC73 JUMPI DUP2 PUSH1 0x20 ADD PUSH1 0x20 DUP3 MUL DUP1 CALLDATASIZE DUP4 CALLDATACOPY DUP1 DUP3 ADD SWAP2 POP POP SWAP1 POP JUMPDEST POP SWAP1 POP PUSH1 0x0 JUMPDEST DUP5 DUP2 LT ISZERO PUSH2 0xCD7 JUMPI PUSH1 0x0 PUSH2 0xC8D PUSH1 0xC PUSH2 0x1E3B JUMP JUMPDEST SWAP1 POP PUSH2 0xC99 PUSH1 0xC PUSH2 0x1E49 JUMP JUMPDEST PUSH2 0xCA3 DUP6 DUP3 PUSH2 0x1E5F JUMP JUMPDEST DUP1 DUP4 DUP4 DUP2 MLOAD DUP2 LT PUSH2 0xCB7 JUMPI PUSH2 0xCB6 PUSH2 0x3C4F JUMP JUMPDEST JUMPDEST PUSH1 0x20 MUL PUSH1 0x20 ADD ADD DUP2 DUP2 MSTORE POP POP POP DUP1 DUP1 PUSH2 0xCCF SWAP1 PUSH2 0x3B19 JUMP JUMPDEST SWAP2 POP POP PUSH2 0xC79 JUMP JUMPDEST POP DUP1 SWAP2 POP POP SWAP3 SWAP2 POP POP JUMP JUMPDEST PUSH2 0xCF3 PUSH2 0xCED PUSH2 0x1CFC JUMP JUMPDEST DUP3 PUSH2 0x1E7D JUMP JUMPDEST PUSH2 0xD32 JUMPI PUSH1 0x40 MLOAD PUSH32 0x8C379A000000000000000000000000000000000000000000000000000000000 DUP2 MSTORE PUSH1 0x4 ADD PUSH2 0xD29 SWAP1 PUSH2 0x3724 JUMP JUMPDEST PUSH1 0x40 MLOAD DUP1 SWAP2 SUB SWAP1 REVERT JUMPDEST PUSH2 0xD3D DUP4 DUP4 DUP4 PUSH2 0x1F12 JUMP JUMPDEST POP POP POP JUMP JUMPDEST PUSH1 0x0 PUSH1 0xA PUSH1 0x0 SWAP1 SLOAD SWAP1 PUSH2 0x100 EXP SWAP1 DIV PUSH1 0xFF AND PUSH1 0x2 DUP2 GT ISZERO PUSH2 0xD66 JUMPI PUSH2 0xD65 PUSH2 0x3BF1 JUMP JUMPDEST JUMPDEST SWAP1 POP SWAP1 JUMP JUMPDEST PUSH1 0x0 DUP1 PUSH1 0xB PUSH1 0x0 DUP5 PUSH20 0xFFFFFFFFFFFFFFFFFFFFFFFFFFFFFFFFFFFFFFFF AND PUSH20 0xFFFFFFFFFFFFFFFFFFFFFFFFFFFFFFFFFFFFFFFF AND DUP2 MSTORE PUSH1 0x20 ADD SWAP1 DUP2 MSTORE PUSH1 0x20 ADD PUSH1 0x0 KECCAK256 SLOAD GT SWAP1 POP SWAP2 SWAP1 POP JUMP JUMPDEST PUSH2 0xDBE PUSH2 0x1DBD JUMP JUMPDEST DUP1 PUSH1 0x9 DUP2 SWAP1 SSTORE POP POP JUMP JUMPDEST PUSH1 0x7 DUP1 SLOAD PUSH2 0xDD5 SWAP1 PUSH2 0x3AB6 JUMP JUMPDEST DUP1 PUSH1 0x1F ADD PUSH1 0x20 DUP1 SWAP2 DIV MUL PUSH1 0x20 ADD PUSH1 0x40 MLOAD SWAP1 DUP2 ADD PUSH1 0x40 MSTORE DUP1 SWAP3 SWAP2 SWAP1 DUP2 DUP2 MSTORE PUSH1 0x20 ADD DUP3 DUP1 SLOAD PUSH2 0xE01 SWAP1 PUSH2 0x3AB6 JUMP JUMPDEST DUP1 ISZERO PUSH2 0xE4E JUMPI DUP1 PUSH1 0x1F LT PUSH2 0xE23 JUMPI PUSH2 0x100 DUP1 DUP4 SLOAD DIV MUL DUP4 MSTORE SWAP2 PUSH1 0x20 ADD SWAP2 PUSH2 0xE4E JUMP JUMPDEST DUP3 ADD SWAP2 SWAP1 PUSH1 0x0 MSTORE PUSH1 0x20 PUSH1 0x0 KECCAK256 SWAP1 JUMPDEST DUP2 SLOAD DUP2 MSTORE SWAP1 PUSH1 0x1 ADD SWAP1 PUSH1 0x20 ADD DUP1 DUP4 GT PUSH2 0xE31 JUMPI DUP3 SWAP1 SUB PUSH1 0x1F AND DUP3 ADD SWAP2 JUMPDEST POP POP POP POP POP DUP2 JUMP JUMPDEST PUSH2 0xE71 DUP4 DUP4 DUP4 PUSH1 0x40 MLOAD DUP1 PUSH1 0x20 ADD PUSH1 0x40 MSTORE DUP1 PUSH1 0x0 DUP2 MSTORE POP PUSH2 0x1886 JUMP JUMPDEST POP POP POP JUMP JUMPDEST PUSH2 0xE7E PUSH2 0x1DBD JUMP JUMPDEST DUP1 PUSH1 0x7 SWAP1 DUP1 MLOAD SWAP1 PUSH1 0x20 ADD SWAP1 PUSH2 0xE94 SWAP3 SWAP2 SWAP1 PUSH2 0x2895 JUMP JUMPDEST POP POP JUMP JUMPDEST PUSH2 0xEA0 PUSH2 0x1DBD JUMP JUMPDEST DUP1 PUSH1 0xFF AND PUSH1 0x2 DUP2 GT ISZERO PUSH2 0xEB6 JUMPI PUSH2 0xEB5 PUSH2 0x3BF1 JUMP JUMPDEST JUMPDEST PUSH1 0xA PUSH1 0x0 PUSH2 0x100 EXP DUP2 SLOAD DUP2 PUSH1 0xFF MUL NOT AND SWAP1 DUP4 PUSH1 0x2 DUP2 GT ISZERO PUSH2 0xEDA JUMPI PUSH2 0xED9 PUSH2 0x3BF1 JUMP JUMPDEST JUMPDEST MUL OR SWAP1 SSTORE POP POP JUMP JUMPDEST PUSH1 0x0 DUP1 PUSH1 0x2 PUSH1 0x0 DUP5 DUP2 MSTORE PUSH1 0x20 ADD SWAP1 DUP2 MSTORE PUSH1 0x20 ADD PUSH1 0x0 KECCAK256 PUSH1 0x0 SWAP1 SLOAD SWAP1 PUSH2 0x100 EXP SWAP1 DIV PUSH20 0xFFFFFFFFFFFFFFFFFFFFFFFFFFFFFFFFFFFFFFFF AND SWAP1 POP PUSH1 0x0 PUSH20 0xFFFFFFFFFFFFFFFFFFFFFFFFFFFFFFFFFFFFFFFF AND DUP2 PUSH20 0xFFFFFFFFFFFFFFFFFFFFFFFFFFFFFFFFFFFFFFFF AND EQ ISZERO PUSH2 0xF8B JUMPI PUSH1 0x40 MLOAD PUSH32 0x8C379A000000000000000000000000000000000000000000000000000000000 DUP2 MSTORE PUSH1 0x4 ADD PUSH2 0xF82 SWAP1 PUSH2 0x36C4 JUMP JUMPDEST PUSH1 0x40 MLOAD DUP1 SWAP2 SUB SWAP1 REVERT JUMPDEST DUP1 SWAP2 POP POP SWAP2 SWAP1 POP JUMP JUMPDEST PUSH1 0x0 PUSH1 0x9 SLOAD SWAP1 POP SWAP1 JUMP JUMPDEST PUSH1 0x0 DUP1 PUSH20 0xFFFFFFFFFFFFFFFFFFFFFFFFFFFFFFFFFFFFFFFF AND DUP3 PUSH20 0xFFFFFFFFFFFFFFFFFFFFFFFFFFFFFFFFFFFFFFFF AND EQ ISZERO PUSH2 0x100F JUMPI PUSH1 0x40 MLOAD PUSH32 0x8C379A000000000000000000000000000000000000000000000000000000000 DUP2 MSTORE PUSH1 0x4 ADD PUSH2 0x1006 SWAP1 PUSH2 0x35C4 JUMP JUMPDEST PUSH1 0x40 MLOAD DUP1 SWAP2 SUB SWAP1 REVERT JUMPDEST PUSH1 0x3 PUSH1 0x0 DUP4 PUSH20 0xFFFFFFFFFFFFFFFFFFFFFFFFFFFFFFFFFFFFFFFF AND PUSH20 0xFFFFFFFFFFFFFFFFFFFFFFFFFFFFFFFFFFFFFFFF AND DUP2 MSTORE PUSH1 0x20 ADD SWAP1 DUP2 MSTORE PUSH1 0x20 ADD PUSH1 0x0 KECCAK256 SLOAD SWAP1 POP SWAP2 SWAP1 POP JUMP JUMPDEST PUSH2 0x105E PUSH2 0x1DBD JUMP JUMPDEST PUSH2 0x1068 PUSH1 0x0 PUSH2 0x2179 JUMP JUMPDEST JUMP JUMPDEST PUSH1 0x0 PUSH2 0x1076 PUSH1 0xC PUSH2 0x1E3B JUMP JUMPDEST SWAP1 POP SWAP1 JUMP JUMPDEST PUSH1 0x8 SLOAD DUP2 JUMP JUMPDEST PUSH2 0x1089 PUSH2 0x1DBD JUMP JUMPDEST PUSH1 0x0 JUMPDEST DUP3 MLOAD DUP2 LT ISZERO PUSH2 0x1106 JUMPI DUP2 PUSH1 0xB PUSH1 0x0 DUP6 DUP5 DUP2 MLOAD DUP2 LT PUSH2 0x10AD JUMPI PUSH2 0x10AC PUSH2 0x3C4F JUMP JUMPDEST JUMPDEST PUSH1 0x20 MUL PUSH1 0x20 ADD ADD MLOAD PUSH20 0xFFFFFFFFFFFFFFFFFFFFFFFFFFFFFFFFFFFFFFFF AND PUSH20 0xFFFFFFFFFFFFFFFFFFFFFFFFFFFFFFFFFFFFFFFF AND DUP2 MSTORE PUSH1 0x20 ADD SWAP1 DUP2 MSTORE PUSH1 0x20 ADD PUSH1 0x0 KECCAK256 DUP2 SWAP1 SSTORE POP DUP1 DUP1 PUSH2 0x10FE SWAP1 PUSH2 0x3B19 JUMP JUMPDEST SWAP2 POP POP PUSH2 0x108C JUMP JUMPDEST POP POP POP JUMP JUMPDEST PUSH1 0x0 DUP2 PUSH1 0xB PUSH1 0x0 DUP6 PUSH20 0xFFFFFFFFFFFFFFFFFFFFFFFFFFFFFFFFFFFFFFFF AND PUSH20 0xFFFFFFFFFFFFFFFFFFFFFFFFFFFFFFFFFFFFFFFF AND DUP2 MSTORE PUSH1 0x20 ADD SWAP1 DUP2 MSTORE PUSH1 0x20 ADD PUSH1 0x0 KECCAK256 SLOAD LT ISZERO SWAP1 POP SWAP3 SWAP2 POP POP JUMP JUMPDEST PUSH1 0x1 PUSH1 0x2 DUP2 GT ISZERO PUSH2 0x116C JUMPI PUSH2 0x116B PUSH2 0x3BF1 JUMP JUMPDEST JUMPDEST PUSH1 0xA PUSH1 0x0 SWAP1 SLOAD SWAP1 PUSH2 0x100 EXP SWAP1 DIV PUSH1 0xFF AND PUSH1 0x2 DUP2 GT ISZERO PUSH2 0x118E JUMPI PUSH2 0x118D PUSH2 0x3BF1 JUMP JUMPDEST JUMPDEST EQ PUSH2 0x11CE JUMPI PUSH1 0x40 MLOAD PUSH32 0x8C379A000000000000000000000000000000000000000000000000000000000 DUP2 MSTORE PUSH1 0x4 ADD PUSH2 0x11C5 SWAP1 PUSH2 0x35E4 JUMP JUMPDEST PUSH1 0x40 MLOAD DUP1 SWAP2 SUB SWAP1 REVERT JUMPDEST PUSH1 0x0 DUP2 PUSH1 0x8 SLOAD PUSH2 0x11DE SWAP2 SWAP1 PUSH2 0x3965 JUMP JUMPDEST SWAP1 POP DUP1 CALLVALUE LT ISZERO PUSH2 0x1223 JUMPI PUSH1 0x40 MLOAD PUSH32 0x8C379A000000000000000000000000000000000000000000000000000000000 DUP2 MSTORE PUSH1 0x4 ADD PUSH2 0x121A SWAP1 PUSH2 0x3704 JUMP JUMPDEST PUSH1 0x40 MLOAD DUP1 SWAP2 SUB SWAP1 REVERT JUMPDEST PUSH1 0x9 SLOAD PUSH2 0x1230 PUSH1 0xC PUSH2 0x1E3B JUMP JUMPDEST LT PUSH2 0x1270 JUMPI PUSH1 0x40 MLOAD PUSH32 0x8C379A000000000000000000000000000000000000000000000000000000000 DUP2 MSTORE PUSH1 0x4 ADD PUSH2 0x1267 SWAP1 PUSH2 0x36A4 JUMP JUMPDEST PUSH1 0x40 MLOAD DUP1 SWAP2 SUB SWAP1 REVERT JUMPDEST PUSH2 0x127A CALLER DUP4 PUSH2 0x110B JUMP JUMPDEST PUSH2 0x12B9 JUMPI PUSH1 0x40 MLOAD PUSH32 0x8C379A000000000000000000000000000000000000000000000000000000000 DUP2 MSTORE PUSH1 0x4 ADD PUSH2 0x12B0 SWAP1 PUSH2 0x3664 JUMP JUMPDEST PUSH1 0x40 MLOAD DUP1 SWAP2 SUB SWAP1 REVERT JUMPDEST PUSH1 0x0 JUMPDEST DUP3 DUP2 LT ISZERO PUSH2 0x12FA JUMPI PUSH1 0x0 PUSH2 0x12D0 PUSH1 0xC PUSH2 0x1E3B JUMP JUMPDEST SWAP1 POP PUSH2 0x12DC PUSH1 0xC PUSH2 0x1E49 JUMP JUMPDEST PUSH2 0x12E6 CALLER DUP3 PUSH2 0x1E5F JUMP JUMPDEST POP DUP1 DUP1 PUSH2 0x12F2 SWAP1 PUSH2 0x3B19 JUMP JUMPDEST SWAP2 POP POP PUSH2 0x12BC JUMP JUMPDEST POP DUP2 PUSH1 0xB PUSH1 0x0 CALLER PUSH20 0xFFFFFFFFFFFFFFFFFFFFFFFFFFFFFFFFFFFFFFFF AND PUSH20 0xFFFFFFFFFFFFFFFFFFFFFFFFFFFFFFFFFFFFFFFF AND DUP2 MSTORE PUSH1 0x20 ADD SWAP1 DUP2 MSTORE PUSH1 0x20 ADD PUSH1 0x0 KECCAK256 PUSH1 0x0 DUP3 DUP3 SLOAD PUSH2 0x134A SWAP2 SWAP1 PUSH2 0x39BF JUMP JUMPDEST SWAP3 POP POP DUP2 SWAP1 SSTORE POP PUSH1 0x0 PUSH2 0x135B PUSH2 0x91D JUMP JUMPDEST PUSH20 0xFFFFFFFFFFFFFFFFFFFFFFFFFFFFFFFFFFFFFFFF AND PUSH2 0x8FC DUP4 SWAP1 DUP2 ISZERO MUL SWAP1 PUSH1 0x40 MLOAD PUSH1 0x0 PUSH1 0x40 MLOAD DUP1 DUP4 SUB DUP2 DUP6 DUP9 DUP9 CALL SWAP4 POP POP POP POP SWAP1 POP DUP1 PUSH2 0x13D1 JUMPI PUSH1 0x40 MLOAD PUSH32 0x8C379A000000000000000000000000000000000000000000000000000000000 DUP2 MSTORE PUSH1 0x4 ADD PUSH2 0x13C8 SWAP1 PUSH2 0x3544 JUMP JUMPDEST PUSH1 0x40 MLOAD DUP1 SWAP2 SUB SWAP1 REVERT JUMPDEST PUSH1 0x0 DUP3 CALLVALUE PUSH2 0x13DF SWAP2 SWAP1 PUSH2 0x39BF JUMP JUMPDEST GT ISZERO PUSH2 0x1438 JUMPI CALLER PUSH20 0xFFFFFFFFFFFFFFFFFFFFFFFFFFFFFFFFFFFFFFFF AND PUSH2 0x8FC DUP4 CALLVALUE PUSH2 0x140B SWAP2 SWAP1 PUSH2 0x39BF JUMP JUMPDEST SWAP1 DUP2 ISZERO MUL SWAP1 PUSH1 0x40 MLOAD PUSH1 0x0 PUSH1 0x40 MLOAD DUP1 DUP4 SUB DUP2 DUP6 DUP9 DUP9 CALL SWAP4 POP POP POP POP ISZERO DUP1 ISZERO PUSH2 0x1436 JUMPI RETURNDATASIZE PUSH1 0x0 DUP1 RETURNDATACOPY RETURNDATASIZE PUSH1 0x0 REVERT JUMPDEST POP JUMPDEST POP POP POP JUMP JUMPDEST PUSH2 0x1445 PUSH2 0x1DBD JUMP JUMPDEST DUP1 PUSH1 0x8 DUP2 SWAP1 SSTORE POP POP JUMP JUMPDEST PUSH1 0x60 PUSH1 0x1 DUP1 SLOAD PUSH2 0x145E SWAP1 PUSH2 0x3AB6 JUMP JUMPDEST DUP1 PUSH1 0x1F ADD PUSH1 0x20 DUP1 SWAP2 DIV MUL PUSH1 0x20 ADD PUSH1 0x40 MLOAD SWAP1 DUP2 ADD PUSH1 0x40 MSTORE DUP1 SWAP3 SWAP2 SWAP1 DUP2 DUP2 MSTORE PUSH1 0x20 ADD DUP3 DUP1 SLOAD PUSH2 0x148A SWAP1 PUSH2 0x3AB6 JUMP JUMPDEST DUP1 ISZERO PUSH2 0x14D7 JUMPI DUP1 PUSH1 0x1F LT PUSH2 0x14AC JUMPI PUSH2 0x100 DUP1 DUP4 SLOAD DIV MUL DUP4 MSTORE SWAP2 PUSH1 0x20 ADD SWAP2 PUSH2 0x14D7 JUMP JUMPDEST DUP3 ADD SWAP2 SWAP1 PUSH1 0x0 MSTORE PUSH1 0x20 PUSH1 0x0 KECCAK256 SWAP1 JUMPDEST DUP2 SLOAD DUP2 MSTORE SWAP1 PUSH1 0x1 ADD SWAP1 PUSH1 0x20 ADD DUP1 DUP4 GT PUSH2 0x14BA JUMPI DUP3 SWAP1 SUB PUSH1 0x1F AND DUP3 ADD SWAP2 JUMPDEST POP POP POP POP POP SWAP1 POP SWAP1 JUMP JUMPDEST PUSH1 0x0 PUSH1 0x8 SLOAD SWAP1 POP SWAP1 JUMP JUMPDEST PUSH2 0x14F3 PUSH2 0x1DBD JUMP JUMPDEST DUP1 PUSH1 0xB PUSH1 0x0 DUP5 PUSH20 0xFFFFFFFFFFFFFFFFFFFFFFFFFFFFFFFFFFFFFFFF AND PUSH20 0xFFFFFFFFFFFFFFFFFFFFFFFFFFFFFFFFFFFFFFFF AND DUP2 MSTORE PUSH1 0x20 ADD SWAP1 DUP2 MSTORE PUSH1 0x20 ADD PUSH1 0x0 KECCAK256 DUP2 SWAP1 SSTORE POP POP POP JUMP JUMPDEST PUSH2 0x154D PUSH2 0x1546 PUSH2 0x1CFC JUMP JUMPDEST DUP4 DUP4 PUSH2 0x223F JUMP JUMPDEST POP POP JUMP JUMPDEST PUSH1 0x0 PUSH1 0x2 DUP2 GT ISZERO PUSH2 0x1565 JUMPI PUSH2 0x1564 PUSH2 0x3BF1 JUMP JUMPDEST JUMPDEST PUSH1 0xA PUSH1 0x0 SWAP1 SLOAD SWAP1 PUSH2 0x100 EXP SWAP1 DIV PUSH1 0xFF AND PUSH1 0x2 DUP2 GT ISZERO PUSH2 0x1587 JUMPI PUSH2 0x1586 PUSH2 0x3BF1 JUMP JUMPDEST JUMPDEST EQ ISZERO PUSH2 0x15C8 JUMPI PUSH1 0x40 MLOAD PUSH32 0x8C379A000000000000000000000000000000000000000000000000000000000 DUP2 MSTORE PUSH1 0x4 ADD PUSH2 0x15BF SWAP1 PUSH2 0x3604 JUMP JUMPDEST PUSH1 0x40 MLOAD DUP1 SWAP2 SUB SWAP1 REVERT JUMPDEST PUSH1 0x8 SLOAD CALLVALUE LT ISZERO PUSH2 0x160D JUMPI PUSH1 0x40 MLOAD PUSH32 0x8C379A000000000000000000000000000000000000000000000000000000000 DUP2 MSTORE PUSH1 0x4 ADD PUSH2 0x1604 SWAP1 PUSH2 0x3704 JUMP JUMPDEST PUSH1 0x40 MLOAD DUP1 SWAP2 SUB SWAP1 REVERT JUMPDEST PUSH1 0x9 SLOAD PUSH2 0x161A PUSH1 0xC PUSH2 0x1E3B JUMP JUMPDEST LT PUSH2 0x165A JUMPI PUSH1 0x40 MLOAD PUSH32 0x8C379A000000000000000000000000000000000000000000000000000000000 DUP2 MSTORE PUSH1 0x4 ADD PUSH2 0x1651 SWAP1 PUSH2 0x3744 JUMP JUMPDEST PUSH1 0x40 MLOAD DUP1 SWAP2 SUB SWAP1 REVERT JUMPDEST PUSH1 0x1 PUSH1 0x2 DUP2 GT ISZERO PUSH2 0x166E JUMPI PUSH2 0x166D PUSH2 0x3BF1 JUMP JUMPDEST JUMPDEST PUSH1 0xA PUSH1 0x0 SWAP1 SLOAD SWAP1 PUSH2 0x100 EXP SWAP1 DIV PUSH1 0xFF AND PUSH1 0x2 DUP2 GT ISZERO PUSH2 0x1690 JUMPI PUSH2 0x168F PUSH2 0x3BF1 JUMP JUMPDEST JUMPDEST EQ ISZERO PUSH2 0x16DF JUMPI PUSH2 0x169F CALLER PUSH2 0xD6B JUMP JUMPDEST PUSH2 0x16DE JUMPI PUSH1 0x40 MLOAD PUSH32 0x8C379A000000000000000000000000000000000000000000000000000000000 DUP2 MSTORE PUSH1 0x4 ADD PUSH2 0x16D5 SWAP1 PUSH2 0x35A4 JUMP JUMPDEST PUSH1 0x40 MLOAD DUP1 SWAP2 SUB SWAP1 REVERT JUMPDEST JUMPDEST PUSH1 0x0 PUSH2 0x16EB PUSH1 0xC PUSH2 0x1E3B JUMP JUMPDEST SWAP1 POP PUSH2 0x16F7 PUSH1 0xC PUSH2 0x1E49 JUMP JUMPDEST PUSH2 0x1701 CALLER DUP3 PUSH2 0x1E5F JUMP JUMPDEST PUSH1 0x1 PUSH1 0x2 DUP2 GT ISZERO PUSH2 0x1715 JUMPI PUSH2 0x1714 PUSH2 0x3BF1 JUMP JUMPDEST JUMPDEST PUSH1 0xA PUSH1 0x0 SWAP1 SLOAD SWAP1 PUSH2 0x100 EXP SWAP1 DIV PUSH1 0xFF AND PUSH1 0x2 DUP2 GT ISZERO PUSH2 0x1737 JUMPI PUSH2 0x1736 PUSH2 0x3BF1 JUMP JUMPDEST JUMPDEST EQ ISZERO PUSH2 0x1795 JUMPI PUSH1 0x1 PUSH1 0xB PUSH1 0x0 CALLER PUSH20 0xFFFFFFFFFFFFFFFFFFFFFFFFFFFFFFFFFFFFFFFF AND PUSH20 0xFFFFFFFFFFFFFFFFFFFFFFFFFFFFFFFFFFFFFFFF AND DUP2 MSTORE PUSH1 0x20 ADD SWAP1 DUP2 MSTORE PUSH1 0x20 ADD PUSH1 0x0 KECCAK256 PUSH1 0x0 DUP3 DUP3 SLOAD PUSH2 0x178D SWAP2 SWAP1 PUSH2 0x39BF JUMP JUMPDEST SWAP3 POP POP DUP2 SWAP1 SSTORE POP JUMPDEST PUSH1 0x0 PUSH2 0x179F PUSH2 0x91D JUMP JUMPDEST PUSH20 0xFFFFFFFFFFFFFFFFFFFFFFFFFFFFFFFFFFFFFFFF AND PUSH2 0x8FC PUSH1 0x8 SLOAD SWAP1 DUP2 ISZERO MUL SWAP1 PUSH1 0x40 MLOAD PUSH1 0x0 PUSH1 0x40 MLOAD DUP1 DUP4 SUB DUP2 DUP6 DUP9 DUP9 CALL SWAP4 POP POP POP POP SWAP1 POP DUP1 PUSH2 0x1817 JUMPI PUSH1 0x40 MLOAD PUSH32 0x8C379A000000000000000000000000000000000000000000000000000000000 DUP2 MSTORE PUSH1 0x4 ADD PUSH2 0x180E SWAP1 PUSH2 0x3544 JUMP JUMPDEST PUSH1 0x40 MLOAD DUP1 SWAP2 SUB SWAP1 REVERT JUMPDEST PUSH1 0x0 PUSH1 0x8 SLOAD CALLVALUE PUSH2 0x1827 SWAP2 SWAP1 PUSH2 0x39BF JUMP JUMPDEST GT ISZERO PUSH2 0x1882 JUMPI CALLER PUSH20 0xFFFFFFFFFFFFFFFFFFFFFFFFFFFFFFFFFFFFFFFF AND PUSH2 0x8FC PUSH1 0x8 SLOAD CALLVALUE PUSH2 0x1855 SWAP2 SWAP1 PUSH2 0x39BF JUMP JUMPDEST SWAP1 DUP2 ISZERO MUL SWAP1 PUSH1 0x40 MLOAD PUSH1 0x0 PUSH1 0x40 MLOAD DUP1 DUP4 SUB DUP2 DUP6 DUP9 DUP9 CALL SWAP4 POP POP POP POP ISZERO DUP1 ISZERO PUSH2 0x1880 JUMPI RETURNDATASIZE PUSH1 0x0 DUP1 RETURNDATACOPY RETURNDATASIZE PUSH1 0x0 REVERT JUMPDEST POP JUMPDEST POP POP JUMP JUMPDEST PUSH2 0x1897 PUSH2 0x1891 PUSH2 0x1CFC JUMP JUMPDEST DUP4 PUSH2 0x1E7D JUMP JUMPDEST PUSH2 0x18D6 JUMPI PUSH1 0x40 MLOAD PUSH32 0x8C379A000000000000000000000000000000000000000000000000000000000 DUP2 MSTORE PUSH1 0x4 ADD PUSH2 0x18CD SWAP1 PUSH2 0x3724 JUMP JUMPDEST PUSH1 0x40 MLOAD DUP1 SWAP2 SUB SWAP1 REVERT JUMPDEST PUSH2 0x18E2 DUP5 DUP5 DUP5 DUP5 PUSH2 0x23AC JUMP JUMPDEST POP POP POP POP JUMP JUMPDEST PUSH1 0x0 PUSH1 0xB PUSH1 0x0 DUP4 PUSH20 0xFFFFFFFFFFFFFFFFFFFFFFFFFFFFFFFFFFFFFFFF AND PUSH20 0xFFFFFFFFFFFFFFFFFFFFFFFFFFFFFFFFFFFFFFFF AND DUP2 MSTORE PUSH1 0x20 ADD SWAP1 DUP2 MSTORE PUSH1 0x20 ADD PUSH1 0x0 KECCAK256 SLOAD SWAP1 POP SWAP2 SWAP1 POP JUMP JUMPDEST PUSH1 0x60 PUSH2 0x193C DUP3 PUSH2 0x1CB1 JUMP JUMPDEST PUSH1 0x0 PUSH2 0x1946 PUSH2 0x2408 JUMP JUMPDEST SWAP1 POP PUSH1 0x0 DUP2 MLOAD GT PUSH2 0x1966 JUMPI PUSH1 0x40 MLOAD DUP1 PUSH1 0x20 ADD PUSH1 0x40 MSTORE DUP1 PUSH1 0x0 DUP2 MSTORE POP PUSH2 0x1991 JUMP JUMPDEST DUP1 PUSH2 0x1970 DUP5 PUSH2 0x1AE6 JUMP JUMPDEST PUSH1 0x40 MLOAD PUSH1 0x20 ADD PUSH2 0x1981 SWAP3 SWAP2 SWAP1 PUSH2 0x3398 JUMP JUMPDEST PUSH1 0x40 MLOAD PUSH1 0x20 DUP2 DUP4 SUB SUB DUP2 MSTORE SWAP1 PUSH1 0x40 MSTORE JUMPDEST SWAP2 POP POP SWAP2 SWAP1 POP JUMP JUMPDEST PUSH1 0x0 PUSH2 0x19A3 PUSH2 0x1DBD JUMP JUMPDEST PUSH1 0x0 PUSH2 0x19AF PUSH1 0xC PUSH2 0x1E3B JUMP JUMPDEST SWAP1 POP PUSH2 0x19BB PUSH1 0xC PUSH2 0x1E49 JUMP JUMPDEST PUSH2 0x19C5 DUP4 DUP3 PUSH2 0x1E5F JUMP JUMPDEST DUP1 SWAP2 POP POP SWAP2 SWAP1 POP JUMP JUMPDEST PUSH1 0x0 PUSH1 0x5 PUSH1 0x0 DUP5 PUSH20 0xFFFFFFFFFFFFFFFFFFFFFFFFFFFFFFFFFFFFFFFF AND PUSH20 0xFFFFFFFFFFFFFFFFFFFFFFFFFFFFFFFFFFFFFFFF AND DUP2 MSTORE PUSH1 0x20 ADD SWAP1 DUP2 MSTORE PUSH1 0x20 ADD PUSH1 0x0 KECCAK256 PUSH1 0x0 DUP4 PUSH20 0xFFFFFFFFFFFFFFFFFFFFFFFFFFFFFFFFFFFFFFFF AND PUSH20 0xFFFFFFFFFFFFFFFFFFFFFFFFFFFFFFFFFFFFFFFF AND DUP2 MSTORE PUSH1 0x20 ADD SWAP1 DUP2 MSTORE PUSH1 0x20 ADD PUSH1 0x0 KECCAK256 PUSH1 0x0 SWAP1 SLOAD SWAP1 PUSH2 0x100 EXP SWAP1 DIV PUSH1 0xFF AND SWAP1 POP SWAP3 SWAP2 POP POP JUMP JUMPDEST PUSH2 0x1A6A PUSH2 0x1DBD JUMP JUMPDEST PUSH1 0x0 PUSH20 0xFFFFFFFFFFFFFFFFFFFFFFFFFFFFFFFFFFFFFFFF AND DUP2 PUSH20 0xFFFFFFFFFFFFFFFFFFFFFFFFFFFFFFFFFFFFFFFF AND EQ ISZERO PUSH2 0x1ADA JUMPI PUSH1 0x40 MLOAD PUSH32 0x8C379A000000000000000000000000000000000000000000000000000000000 DUP2 MSTORE PUSH1 0x4 ADD PUSH2 0x1AD1 SWAP1 PUSH2 0x34C4 JUMP JUMPDEST PUSH1 0x40 MLOAD DUP1 SWAP2 SUB SWAP1 REVERT JUMPDEST PUSH2 0x1AE3 DUP2 PUSH2 0x2179 JUMP JUMPDEST POP JUMP JUMPDEST PUSH1 0x60 PUSH1 0x0 DUP3 EQ ISZERO PUSH2 0x1B2E JUMPI PUSH1 0x40 MLOAD DUP1 PUSH1 0x40 ADD PUSH1 0x40 MSTORE DUP1 PUSH1 0x1 DUP2 MSTORE PUSH1 0x20 ADD PUSH32 0x3000000000000000000000000000000000000000000000000000000000000000 DUP2 MSTORE POP SWAP1 POP PUSH2 0x1C42 JUMP JUMPDEST PUSH1 0x0 DUP3 SWAP1 POP PUSH1 0x0 JUMPDEST PUSH1 0x0 DUP3 EQ PUSH2 0x1B60 JUMPI DUP1 DUP1 PUSH2 0x1B49 SWAP1 PUSH2 0x3B19 JUMP JUMPDEST SWAP2 POP POP PUSH1 0xA DUP3 PUSH2 0x1B59 SWAP2 SWAP1 PUSH2 0x3934 JUMP JUMPDEST SWAP2 POP PUSH2 0x1B36 JUMP JUMPDEST PUSH1 0x0 DUP2 PUSH8 0xFFFFFFFFFFFFFFFF DUP2 GT ISZERO PUSH2 0x1B7C JUMPI PUSH2 0x1B7B PUSH2 0x3C7E JUMP JUMPDEST JUMPDEST PUSH1 0x40 MLOAD SWAP1 DUP1 DUP3 MSTORE DUP1 PUSH1 0x1F ADD PUSH1 0x1F NOT AND PUSH1 0x20 ADD DUP3 ADD PUSH1 0x40 MSTORE DUP1 ISZERO PUSH2 0x1BAE JUMPI DUP2 PUSH1 0x20 ADD PUSH1 0x1 DUP3 MUL DUP1 CALLDATASIZE DUP4 CALLDATACOPY DUP1 DUP3 ADD SWAP2 POP POP SWAP1 POP JUMPDEST POP SWAP1 POP JUMPDEST PUSH1 0x0 DUP6 EQ PUSH2 0x1C3B JUMPI PUSH1 0x1 DUP3 PUSH2 0x1BC7 SWAP2 SWAP1 PUSH2 0x39BF JUMP JUMPDEST SWAP2 POP PUSH1 0xA DUP6 PUSH2 0x1BD6 SWAP2 SWAP1 PUSH2 0x3B62 JUMP JUMPDEST PUSH1 0x30 PUSH2 0x1BE2 SWAP2 SWAP1 PUSH2 0x38DE JUMP JUMPDEST PUSH1 0xF8 SHL DUP2 DUP4 DUP2 MLOAD DUP2 LT PUSH2 0x1BF8 JUMPI PUSH2 0x1BF7 PUSH2 0x3C4F JUMP JUMPDEST JUMPDEST PUSH1 0x20 ADD ADD SWAP1 PUSH31 0xFFFFFFFFFFFFFFFFFFFFFFFFFFFFFFFFFFFFFFFFFFFFFFFFFFFFFFFFFFFFFF NOT AND SWAP1 DUP2 PUSH1 0x0 BYTE SWAP1 MSTORE8 POP PUSH1 0xA DUP6 PUSH2 0x1C34 SWAP2 SWAP1 PUSH2 0x3934 JUMP JUMPDEST SWAP5 POP PUSH2 0x1BB2 JUMP JUMPDEST DUP1 SWAP4 POP POP POP POP JUMPDEST SWAP2 SWAP1 POP JUMP JUMPDEST PUSH1 0x0 PUSH32 0x1FFC9A700000000000000000000000000000000000000000000000000000000 PUSH28 0xFFFFFFFFFFFFFFFFFFFFFFFFFFFFFFFFFFFFFFFFFFFFFFFFFFFFFFFF NOT AND DUP3 PUSH28 0xFFFFFFFFFFFFFFFFFFFFFFFFFFFFFFFFFFFFFFFFFFFFFFFFFFFFFFFF NOT AND EQ SWAP1 POP SWAP2 SWAP1 POP JUMP JUMPDEST PUSH2 0x1CBA DUP2 PUSH2 0x2430 JUMP JUMPDEST PUSH2 0x1CF9 JUMPI PUSH1 0x40 MLOAD PUSH32 0x8C379A000000000000000000000000000000000000000000000000000000000 DUP2 MSTORE PUSH1 0x4 ADD PUSH2 0x1CF0 SWAP1 PUSH2 0x36C4 JUMP JUMPDEST PUSH1 0x40 MLOAD DUP1 SWAP2 SUB SWAP1 REVERT JUMPDEST POP JUMP JUMPDEST PUSH1 0x0 CALLER SWAP1 POP SWAP1 JUMP JUMPDEST DUP2 PUSH1 0x4 PUSH1 0x0 DUP4 DUP2 MSTORE PUSH1 0x20 ADD SWAP1 DUP2 MSTORE PUSH1 0x20 ADD PUSH1 0x0 KECCAK256 PUSH1 0x0 PUSH2 0x100 EXP DUP2 SLOAD DUP2 PUSH20 0xFFFFFFFFFFFFFFFFFFFFFFFFFFFFFFFFFFFFFFFF MUL NOT AND SWAP1 DUP4 PUSH20 0xFFFFFFFFFFFFFFFFFFFFFFFFFFFFFFFFFFFFFFFF AND MUL OR SWAP1 SSTORE POP DUP1 DUP3 PUSH20 0xFFFFFFFFFFFFFFFFFFFFFFFFFFFFFFFFFFFFFFFF AND PUSH2 0x1D77 DUP4 PUSH2 0xEE2 JUMP JUMPDEST PUSH20 0xFFFFFFFFFFFFFFFFFFFFFFFFFFFFFFFFFFFFFFFF AND PUSH32 0x8C5BE1E5EBEC7D5BD14F71427D1E84F3DD0314C0F7B2291E5B200AC8C7C3B925 PUSH1 0x40 MLOAD PUSH1 0x40 MLOAD DUP1 SWAP2 SUB SWAP1 LOG4 POP POP JUMP JUMPDEST PUSH2 0x1DC5 PUSH2 0x1CFC JUMP JUMPDEST PUSH20 0xFFFFFFFFFFFFFFFFFFFFFFFFFFFFFFFFFFFFFFFF AND PUSH2 0x1DE3 PUSH2 0x91D JUMP JUMPDEST PUSH20 0xFFFFFFFFFFFFFFFFFFFFFFFFFFFFFFFFFFFFFFFF AND EQ PUSH2 0x1E39 JUMPI PUSH1 0x40 MLOAD PUSH32 0x8C379A000000000000000000000000000000000000000000000000000000000 DUP2 MSTORE PUSH1 0x4 ADD PUSH2 0x1E30 SWAP1 PUSH2 0x3684 JUMP JUMPDEST PUSH1 0x40 MLOAD DUP1 SWAP2 SUB SWAP1 REVERT JUMPDEST JUMP JUMPDEST PUSH1 0x0 DUP2 PUSH1 0x0 ADD SLOAD SWAP1 POP SWAP2 SWAP1 POP JUMP JUMPDEST PUSH1 0x1 DUP2 PUSH1 0x0 ADD PUSH1 0x0 DUP3 DUP3 SLOAD ADD SWAP3 POP POP DUP2 SWAP1 SSTORE POP POP JUMP JUMPDEST PUSH2 0x1E79 DUP3 DUP3 PUSH1 0x40 MLOAD DUP1 PUSH1 0x20 ADD PUSH1 0x40 MSTORE DUP1 PUSH1 0x0 DUP2 MSTORE POP PUSH2 0x249C JUMP JUMPDEST POP POP JUMP JUMPDEST PUSH1 0x0 DUP1 PUSH2 0x1E89 DUP4 PUSH2 0xEE2 JUMP JUMPDEST SWAP1 POP DUP1 PUSH20 0xFFFFFFFFFFFFFFFFFFFFFFFFFFFFFFFFFFFFFFFF AND DUP5 PUSH20 0xFFFFFFFFFFFFFFFFFFFFFFFFFFFFFFFFFFFFFFFF AND EQ DUP1 PUSH2 0x1ECB JUMPI POP PUSH2 0x1ECA DUP2 DUP6 PUSH2 0x19CE JUMP JUMPDEST JUMPDEST DUP1 PUSH2 0x1F09 JUMPI POP DUP4 PUSH20 0xFFFFFFFFFFFFFFFFFFFFFFFFFFFFFFFFFFFFFFFF AND PUSH2 0x1EF1 DUP5 PUSH2 0xAC1 JUMP JUMPDEST PUSH20 0xFFFFFFFFFFFFFFFFFFFFFFFFFFFFFFFFFFFFFFFF AND EQ JUMPDEST SWAP2 POP POP SWAP3 SWAP2 POP POP JUMP JUMPDEST DUP3 PUSH20 0xFFFFFFFFFFFFFFFFFFFFFFFFFFFFFFFFFFFFFFFF AND PUSH2 0x1F32 DUP3 PUSH2 0xEE2 JUMP JUMPDEST PUSH20 0xFFFFFFFFFFFFFFFFFFFFFFFFFFFFFFFFFFFFFFFF AND EQ PUSH2 0x1F88 JUMPI PUSH1 0x40 MLOAD PUSH32 0x8C379A000000000000000000000000000000000000000000000000000000000 DUP2 MSTORE PUSH1 0x4 ADD PUSH2 0x1F7F SWAP1 PUSH2 0x34E4 JUMP JUMPDEST PUSH1 0x40 MLOAD DUP1 SWAP2 SUB SWAP1 REVERT JUMPDEST PUSH1 0x0 PUSH20 0xFFFFFFFFFFFFFFFFFFFFFFFFFFFFFFFFFFFFFFFF AND DUP3 PUSH20 0xFFFFFFFFFFFFFFFFFFFFFFFFFFFFFFFFFFFFFFFF AND EQ ISZERO PUSH2 0x1FF8 JUMPI PUSH1 0x40 MLOAD PUSH32 0x8C379A000000000000000000000000000000000000000000000000000000000 DUP2 MSTORE PUSH1 0x4 ADD PUSH2 0x1FEF SWAP1 PUSH2 0x3564 JUMP JUMPDEST PUSH1 0x40 MLOAD DUP1 SWAP2 SUB SWAP1 REVERT JUMPDEST PUSH2 0x2003 DUP4 DUP4 DUP4 PUSH2 0x24F7 JUMP JUMPDEST PUSH2 0x200E PUSH1 0x0 DUP3 PUSH2 0x1D04 JUMP JUMPDEST PUSH1 0x1 PUSH1 0x3 PUSH1 0x0 DUP6 PUSH20 0xFFFFFFFFFFFFFFFFFFFFFFFFFFFFFFFFFFFFFFFF AND PUSH20 0xFFFFFFFFFFFFFFFFFFFFFFFFFFFFFFFFFFFFFFFF AND DUP2 MSTORE PUSH1 0x20 ADD SWAP1 DUP2 MSTORE PUSH1 0x20 ADD PUSH1 0x0 KECCAK256 PUSH1 0x0 DUP3 DUP3 SLOAD PUSH2 0x205E SWAP2 SWAP1 PUSH2 0x39BF JUMP JUMPDEST SWAP3 POP POP DUP2 SWAP1 SSTORE POP PUSH1 0x1 PUSH1 0x3 PUSH1 0x0 DUP5 PUSH20 0xFFFFFFFFFFFFFFFFFFFFFFFFFFFFFFFFFFFFFFFF AND PUSH20 0xFFFFFFFFFFFFFFFFFFFFFFFFFFFFFFFFFFFFFFFF AND DUP2 MSTORE PUSH1 0x20 ADD SWAP1 DUP2 MSTORE PUSH1 0x20 ADD PUSH1 0x0 KECCAK256 PUSH1 0x0 DUP3 DUP3 SLOAD PUSH2 0x20B5 SWAP2 SWAP1 PUSH2 0x38DE JUMP JUMPDEST SWAP3 POP POP DUP2 SWAP1 SSTORE POP DUP2 PUSH1 0x2 PUSH1 0x0 DUP4 DUP2 MSTORE PUSH1 0x20 ADD SWAP1 DUP2 MSTORE PUSH1 0x20 ADD PUSH1 0x0 KECCAK256 PUSH1 0x0 PUSH2 0x100 EXP DUP2 SLOAD DUP2 PUSH20 0xFFFFFFFFFFFFFFFFFFFFFFFFFFFFFFFFFFFFFFFF MUL NOT AND SWAP1 DUP4 PUSH20 0xFFFFFFFFFFFFFFFFFFFFFFFFFFFFFFFFFFFFFFFF AND MUL OR SWAP1 SSTORE POP DUP1 DUP3 PUSH20 0xFFFFFFFFFFFFFFFFFFFFFFFFFFFFFFFFFFFFFFFF AND DUP5 PUSH20 0xFFFFFFFFFFFFFFFFFFFFFFFFFFFFFFFFFFFFFFFF AND PUSH32 0xDDF252AD1BE2C89B69C2B068FC378DAA952BA7F163C4A11628F55A4DF523B3EF PUSH1 0x40 MLOAD PUSH1 0x40 MLOAD DUP1 SWAP2 SUB SWAP1 LOG4 PUSH2 0x2174 DUP4 DUP4 DUP4 PUSH2 0x24FC JUMP JUMPDEST POP POP POP JUMP JUMPDEST PUSH1 0x0 PUSH1 0x6 PUSH1 0x0 SWAP1 SLOAD SWAP1 PUSH2 0x100 EXP SWAP1 DIV PUSH20 0xFFFFFFFFFFFFFFFFFFFFFFFFFFFFFFFFFFFFFFFF AND SWAP1 POP DUP2 PUSH1 0x6 PUSH1 0x0 PUSH2 0x100 EXP DUP2 SLOAD DUP2 PUSH20 0xFFFFFFFFFFFFFFFFFFFFFFFFFFFFFFFFFFFFFFFF MUL NOT AND SWAP1 DUP4 PUSH20 0xFFFFFFFFFFFFFFFFFFFFFFFFFFFFFFFFFFFFFFFF AND MUL OR SWAP1 SSTORE POP DUP2 PUSH20 0xFFFFFFFFFFFFFFFFFFFFFFFFFFFFFFFFFFFFFFFF AND DUP2 PUSH20 0xFFFFFFFFFFFFFFFFFFFFFFFFFFFFFFFFFFFFFFFF AND PUSH32 0x8BE0079C531659141344CD1FD0A4F28419497F9722A3DAAFE3B4186F6B6457E0 PUSH1 0x40 MLOAD PUSH1 0x40 MLOAD DUP1 SWAP2 SUB SWAP1 LOG3 POP POP JUMP JUMPDEST DUP2 PUSH20 0xFFFFFFFFFFFFFFFFFFFFFFFFFFFFFFFFFFFFFFFF AND DUP4 PUSH20 0xFFFFFFFFFFFFFFFFFFFFFFFFFFFFFFFFFFFFFFFF AND EQ ISZERO PUSH2 0x22AE JUMPI PUSH1 0x40 MLOAD PUSH32 0x8C379A000000000000000000000000000000000000000000000000000000000 DUP2 MSTORE PUSH1 0x4 ADD PUSH2 0x22A5 SWAP1 PUSH2 0x3584 JUMP JUMPDEST PUSH1 0x40 MLOAD DUP1 SWAP2 SUB SWAP1 REVERT JUMPDEST DUP1 PUSH1 0x5 PUSH1 0x0 DUP6 PUSH20 0xFFFFFFFFFFFFFFFFFFFFFFFFFFFFFFFFFFFFFFFF AND PUSH20 0xFFFFFFFFFFFFFFFFFFFFFFFFFFFFFFFFFFFFFFFF AND DUP2 MSTORE PUSH1 0x20 ADD SWAP1 DUP2 MSTORE PUSH1 0x20 ADD PUSH1 0x0 KECCAK256 PUSH1 0x0 DUP5 PUSH20 0xFFFFFFFFFFFFFFFFFFFFFFFFFFFFFFFFFFFFFFFF AND PUSH20 0xFFFFFFFFFFFFFFFFFFFFFFFFFFFFFFFFFFFFFFFF AND DUP2 MSTORE PUSH1 0x20 ADD SWAP1 DUP2 MSTORE PUSH1 0x20 ADD PUSH1 0x0 KECCAK256 PUSH1 0x0 PUSH2 0x100 EXP DUP2 SLOAD DUP2 PUSH1 0xFF MUL NOT AND SWAP1 DUP4 ISZERO ISZERO MUL OR SWAP1 SSTORE POP DUP2 PUSH20 0xFFFFFFFFFFFFFFFFFFFFFFFFFFFFFFFFFFFFFFFF AND DUP4 PUSH20 0xFFFFFFFFFFFFFFFFFFFFFFFFFFFFFFFFFFFFFFFF AND PUSH32 0x17307EAB39AB6107E8899845AD3D59BD9653F200F220920489CA2B5937696C31 DUP4 PUSH1 0x40 MLOAD PUSH2 0x239F SWAP2 SWAP1 PUSH2 0x3467 JUMP JUMPDEST PUSH1 0x40 MLOAD DUP1 SWAP2 SUB SWAP1 LOG3 POP POP POP JUMP JUMPDEST PUSH2 0x23B7 DUP5 DUP5 DUP5 PUSH2 0x1F12 JUMP JUMPDEST PUSH2 0x23C3 DUP5 DUP5 DUP5 DUP5 PUSH2 0x2501 JUMP JUMPDEST PUSH2 0x2402 JUMPI PUSH1 0x40 MLOAD PUSH32 0x8C379A000000000000000000000000000000000000000000000000000000000 DUP2 MSTORE PUSH1 0x4 ADD PUSH2 0x23F9 SWAP1 PUSH2 0x34A4 JUMP JUMPDEST PUSH1 0x40 MLOAD DUP1 SWAP2 SUB SWAP1 REVERT JUMPDEST POP POP POP POP JUMP JUMPDEST PUSH1 0x60 PUSH1 0x7 PUSH1 0x40 MLOAD PUSH1 0x20 ADD PUSH2 0x241C SWAP2 SWAP1 PUSH2 0x33BC JUMP JUMPDEST PUSH1 0x40 MLOAD PUSH1 0x20 DUP2 DUP4 SUB SUB DUP2 MSTORE SWAP1 PUSH1 0x40 MSTORE SWAP1 POP SWAP1 JUMP JUMPDEST PUSH1 0x0 DUP1 PUSH20 0xFFFFFFFFFFFFFFFFFFFFFFFFFFFFFFFFFFFFFFFF AND PUSH1 0x2 PUSH1 0x0 DUP5 DUP2 MSTORE PUSH1 0x20 ADD SWAP1 DUP2 MSTORE PUSH1 0x20 ADD PUSH1 0x0 KECCAK256 PUSH1 0x0 SWAP1 SLOAD SWAP1 PUSH2 0x100 EXP SWAP1 DIV PUSH20 0xFFFFFFFFFFFFFFFFFFFFFFFFFFFFFFFFFFFFFFFF AND PUSH20 0xFFFFFFFFFFFFFFFFFFFFFFFFFFFFFFFFFFFFFFFF AND EQ ISZERO SWAP1 POP SWAP2 SWAP1 POP JUMP JUMPDEST PUSH2 0x24A6 DUP4 DUP4 PUSH2 0x2698 JUMP JUMPDEST PUSH2 0x24B3 PUSH1 0x0 DUP5 DUP5 DUP5 PUSH2 0x2501 JUMP JUMPDEST PUSH2 0x24F2 JUMPI PUSH1 0x40 MLOAD PUSH32 0x8C379A000000000000000000000000000000000000000000000000000000000 DUP2 MSTORE PUSH1 0x4 ADD PUSH2 0x24E9 SWAP1 PUSH2 0x34A4 JUMP JUMPDEST PUSH1 0x40 MLOAD DUP1 SWAP2 SUB SWAP1 REVERT JUMPDEST POP POP POP JUMP JUMPDEST POP POP POP JUMP JUMPDEST POP POP POP JUMP JUMPDEST PUSH1 0x0 PUSH2 0x2522 DUP5 PUSH20 0xFFFFFFFFFFFFFFFFFFFFFFFFFFFFFFFFFFFFFFFF AND PUSH2 0x2872 JUMP JUMPDEST ISZERO PUSH2 0x268B JUMPI DUP4 PUSH20 0xFFFFFFFFFFFFFFFFFFFFFFFFFFFFFFFFFFFFFFFF AND PUSH4 0x150B7A02 PUSH2 0x254B PUSH2 0x1CFC JUMP JUMPDEST DUP8 DUP7 DUP7 PUSH1 0x40 MLOAD DUP6 PUSH4 0xFFFFFFFF AND PUSH1 0xE0 SHL DUP2 MSTORE PUSH1 0x4 ADD PUSH2 0x256D SWAP5 SWAP4 SWAP3 SWAP2 SWAP1 PUSH2 0x33F9 JUMP JUMPDEST PUSH1 0x20 PUSH1 0x40 MLOAD DUP1 DUP4 SUB DUP2 PUSH1 0x0 DUP8 DUP1 EXTCODESIZE ISZERO DUP1 ISZERO PUSH2 0x2587 JUMPI PUSH1 0x0 DUP1 REVERT JUMPDEST POP GAS CALL SWAP3 POP POP POP DUP1 ISZERO PUSH2 0x25B8 JUMPI POP PUSH1 0x40 MLOAD RETURNDATASIZE PUSH1 0x1F NOT PUSH1 0x1F DUP3 ADD AND DUP3 ADD DUP1 PUSH1 0x40 MSTORE POP DUP2 ADD SWAP1 PUSH2 0x25B5 SWAP2 SWAP1 PUSH2 0x2D80 JUMP JUMPDEST PUSH1 0x1 JUMPDEST PUSH2 0x263B JUMPI RETURNDATASIZE DUP1 PUSH1 0x0 DUP2 EQ PUSH2 0x25E8 JUMPI PUSH1 0x40 MLOAD SWAP2 POP PUSH1 0x1F NOT PUSH1 0x3F RETURNDATASIZE ADD AND DUP3 ADD PUSH1 0x40 MSTORE RETURNDATASIZE DUP3 MSTORE RETURNDATASIZE PUSH1 0x0 PUSH1 0x20 DUP5 ADD RETURNDATACOPY PUSH2 0x25ED JUMP JUMPDEST PUSH1 0x60 SWAP2 POP JUMPDEST POP PUSH1 0x0 DUP2 MLOAD EQ ISZERO PUSH2 0x2633 JUMPI PUSH1 0x40 MLOAD PUSH32 0x8C379A000000000000000000000000000000000000000000000000000000000 DUP2 MSTORE PUSH1 0x4 ADD PUSH2 0x262A SWAP1 PUSH2 0x34A4 JUMP JUMPDEST PUSH1 0x40 MLOAD DUP1 SWAP2 SUB SWAP1 REVERT JUMPDEST DUP1 MLOAD DUP2 PUSH1 0x20 ADD REVERT JUMPDEST PUSH4 0x150B7A02 PUSH1 0xE0 SHL PUSH28 0xFFFFFFFFFFFFFFFFFFFFFFFFFFFFFFFFFFFFFFFFFFFFFFFFFFFFFFFF NOT AND DUP2 PUSH28 0xFFFFFFFFFFFFFFFFFFFFFFFFFFFFFFFFFFFFFFFFFFFFFFFFFFFFFFFF NOT AND EQ SWAP2 POP POP PUSH2 0x2690 JUMP JUMPDEST PUSH1 0x1 SWAP1 POP JUMPDEST SWAP5 SWAP4 POP POP POP POP JUMP JUMPDEST PUSH1 0x0 PUSH20 0xFFFFFFFFFFFFFFFFFFFFFFFFFFFFFFFFFFFFFFFF AND DUP3 PUSH20 0xFFFFFFFFFFFFFFFFFFFFFFFFFFFFFFFFFFFFFFFF AND EQ ISZERO PUSH2 0x2708 JUMPI PUSH1 0x40 MLOAD PUSH32 0x8C379A000000000000000000000000000000000000000000000000000000000 DUP2 MSTORE PUSH1 0x4 ADD PUSH2 0x26FF SWAP1 PUSH2 0x3644 JUMP JUMPDEST PUSH1 0x40 MLOAD DUP1 SWAP2 SUB SWAP1 REVERT JUMPDEST PUSH2 0x2711 DUP2 PUSH2 0x2430 JUMP JUMPDEST ISZERO PUSH2 0x2751 JUMPI PUSH1 0x40 MLOAD PUSH32 0x8C379A000000000000000000000000000000000000000000000000000000000 DUP2 MSTORE PUSH1 0x4 ADD PUSH2 0x2748 SWAP1 PUSH2 0x3504 JUMP JUMPDEST PUSH1 0x40 MLOAD DUP1 SWAP2 SUB SWAP1 REVERT JUMPDEST PUSH2 0x275D PUSH1 0x0 DUP4 DUP4 PUSH2 0x24F7 JUMP JUMPDEST PUSH1 0x1 PUSH1 0x3 PUSH1 0x0 DUP5 PUSH20 0xFFFFFFFFFFFFFFFFFFFFFFFFFFFFFFFFFFFFFFFF AND PUSH20 0xFFFFFFFFFFFFFFFFFFFFFFFFFFFFFFFFFFFFFFFF AND DUP2 MSTORE PUSH1 0x20 ADD SWAP1 DUP2 MSTORE PUSH1 0x20 ADD PUSH1 0x0 KECCAK256 PUSH1 0x0 DUP3 DUP3 SLOAD PUSH2 0x27AD SWAP2 SWAP1 PUSH2 0x38DE JUMP JUMPDEST SWAP3 POP POP DUP2 SWAP1 SSTORE POP DUP2 PUSH1 0x2 PUSH1 0x0 DUP4 DUP2 MSTORE PUSH1 0x20 ADD SWAP1 DUP2 MSTORE PUSH1 0x20 ADD PUSH1 0x0 KECCAK256 PUSH1 0x0 PUSH2 0x100 EXP DUP2 SLOAD DUP2 PUSH20 0xFFFFFFFFFFFFFFFFFFFFFFFFFFFFFFFFFFFFFFFF MUL NOT AND SWAP1 DUP4 PUSH20 0xFFFFFFFFFFFFFFFFFFFFFFFFFFFFFFFFFFFFFFFF AND MUL OR SWAP1 SSTORE POP DUP1 DUP3 PUSH20 0xFFFFFFFFFFFFFFFFFFFFFFFFFFFFFFFFFFFFFFFF AND PUSH1 0x0 PUSH20 0xFFFFFFFFFFFFFFFFFFFFFFFFFFFFFFFFFFFFFFFF AND PUSH32 0xDDF252AD1BE2C89B69C2B068FC378DAA952BA7F163C4A11628F55A4DF523B3EF PUSH1 0x40 MLOAD PUSH1 0x40 MLOAD DUP1 SWAP2 SUB SWAP1 LOG4 PUSH2 0x286E PUSH1 0x0 DUP4 DUP4 PUSH2 0x24FC JUMP JUMPDEST POP POP JUMP JUMPDEST PUSH1 0x0 DUP1 DUP3 PUSH20 0xFFFFFFFFFFFFFFFFFFFFFFFFFFFFFFFFFFFFFFFF AND EXTCODESIZE GT SWAP1 POP SWAP2 SWAP1 POP JUMP JUMPDEST DUP3 DUP1 SLOAD PUSH2 0x28A1 SWAP1 PUSH2 0x3AB6 JUMP JUMPDEST SWAP1 PUSH1 0x0 MSTORE PUSH1 0x20 PUSH1 0x0 KECCAK256 SWAP1 PUSH1 0x1F ADD PUSH1 0x20 SWAP1 DIV DUP2 ADD SWAP3 DUP3 PUSH2 0x28C3 JUMPI PUSH1 0x0 DUP6 SSTORE PUSH2 0x290A JUMP JUMPDEST DUP3 PUSH1 0x1F LT PUSH2 0x28DC JUMPI DUP1 MLOAD PUSH1 0xFF NOT AND DUP4 DUP1 ADD OR DUP6 SSTORE PUSH2 0x290A JUMP JUMPDEST DUP3 DUP1 ADD PUSH1 0x1 ADD DUP6 SSTORE DUP3 ISZERO PUSH2 0x290A JUMPI SWAP2 DUP3 ADD JUMPDEST DUP3 DUP2 GT ISZERO PUSH2 0x2909 JUMPI DUP3 MLOAD DUP3 SSTORE SWAP2 PUSH1 0x20 ADD SWAP2 SWAP1 PUSH1 0x1 ADD SWAP1 PUSH2 0x28EE JUMP JUMPDEST JUMPDEST POP SWAP1 POP PUSH2 0x2917 SWAP2 SWAP1 PUSH2 0x291B JUMP JUMPDEST POP SWAP1 JUMP JUMPDEST JUMPDEST DUP1 DUP3 GT ISZERO PUSH2 0x2934 JUMPI PUSH1 0x0 DUP2 PUSH1 0x0 SWAP1 SSTORE POP PUSH1 0x1 ADD PUSH2 0x291C JUMP JUMPDEST POP SWAP1 JUMP JUMPDEST PUSH1 0x0 PUSH2 0x294B PUSH2 0x2946 DUP5 PUSH2 0x37BF JUMP JUMPDEST PUSH2 0x379A JUMP JUMPDEST SWAP1 POP DUP1 DUP4 DUP3 MSTORE PUSH1 0x20 DUP3 ADD SWAP1 POP DUP3 DUP6 PUSH1 0x20 DUP7 MUL DUP3 ADD GT ISZERO PUSH2 0x296E JUMPI PUSH2 0x296D PUSH2 0x3CB2 JUMP JUMPDEST JUMPDEST PUSH1 0x0 JUMPDEST DUP6 DUP2 LT ISZERO PUSH2 0x299E JUMPI DUP2 PUSH2 0x2984 DUP9 DUP3 PUSH2 0x2A2C JUMP JUMPDEST DUP5 MSTORE PUSH1 0x20 DUP5 ADD SWAP4 POP PUSH1 0x20 DUP4 ADD SWAP3 POP POP PUSH1 0x1 DUP2 ADD SWAP1 POP PUSH2 0x2971 JUMP JUMPDEST POP POP POP SWAP4 SWAP3 POP POP POP JUMP JUMPDEST PUSH1 0x0 PUSH2 0x29BB PUSH2 0x29B6 DUP5 PUSH2 0x37EB JUMP JUMPDEST PUSH2 0x379A JUMP JUMPDEST SWAP1 POP DUP3 DUP2 MSTORE PUSH1 0x20 DUP2 ADD DUP5 DUP5 DUP5 ADD GT ISZERO PUSH2 0x29D7 JUMPI PUSH2 0x29D6 PUSH2 0x3CB7 JUMP JUMPDEST JUMPDEST PUSH2 0x29E2 DUP5 DUP3 DUP6 PUSH2 0x3A74 JUMP JUMPDEST POP SWAP4 SWAP3 POP POP POP JUMP JUMPDEST PUSH1 0x0 PUSH2 0x29FD PUSH2 0x29F8 DUP5 PUSH2 0x381C JUMP JUMPDEST PUSH2 0x379A JUMP JUMPDEST SWAP1 POP DUP3 DUP2 MSTORE PUSH1 0x20 DUP2 ADD DUP5 DUP5 DUP5 ADD GT ISZERO PUSH2 0x2A19 JUMPI PUSH2 0x2A18 PUSH2 0x3CB7 JUMP JUMPDEST JUMPDEST PUSH2 0x2A24 DUP5 DUP3 DUP6 PUSH2 0x3A74 JUMP JUMPDEST POP SWAP4 SWAP3 POP POP POP JUMP JUMPDEST PUSH1 0x0 DUP2 CALLDATALOAD SWAP1 POP PUSH2 0x2A3B DUP2 PUSH2 0x424E JUMP JUMPDEST SWAP3 SWAP2 POP POP JUMP JUMPDEST PUSH1 0x0 DUP3 PUSH1 0x1F DUP4 ADD SLT PUSH2 0x2A56 JUMPI PUSH2 0x2A55 PUSH2 0x3CAD JUMP JUMPDEST JUMPDEST DUP2 CALLDATALOAD PUSH2 0x2A66 DUP5 DUP3 PUSH1 0x20 DUP7 ADD PUSH2 0x2938 JUMP JUMPDEST SWAP2 POP POP SWAP3 SWAP2 POP POP JUMP JUMPDEST PUSH1 0x0 DUP2 CALLDATALOAD SWAP1 POP PUSH2 0x2A7E DUP2 PUSH2 0x4265 JUMP JUMPDEST SWAP3 SWAP2 POP POP JUMP JUMPDEST PUSH1 0x0 DUP2 CALLDATALOAD SWAP1 POP PUSH2 0x2A93 DUP2 PUSH2 0x427C JUMP JUMPDEST SWAP3 SWAP2 POP POP JUMP JUMPDEST PUSH1 0x0 DUP2 MLOAD SWAP1 POP PUSH2 0x2AA8 DUP2 PUSH2 0x427C JUMP JUMPDEST SWAP3 SWAP2 POP POP JUMP JUMPDEST PUSH1 0x0 DUP3 PUSH1 0x1F DUP4 ADD SLT PUSH2 0x2AC3 JUMPI PUSH2 0x2AC2 PUSH2 0x3CAD JUMP JUMPDEST JUMPDEST DUP2 CALLDATALOAD PUSH2 0x2AD3 DUP5 DUP3 PUSH1 0x20 DUP7 ADD PUSH2 0x29A8 JUMP JUMPDEST SWAP2 POP POP SWAP3 SWAP2 POP POP JUMP JUMPDEST PUSH1 0x0 DUP3 PUSH1 0x1F DUP4 ADD SLT PUSH2 0x2AF1 JUMPI PUSH2 0x2AF0 PUSH2 0x3CAD JUMP JUMPDEST JUMPDEST DUP2 CALLDATALOAD PUSH2 0x2B01 DUP5 DUP3 PUSH1 0x20 DUP7 ADD PUSH2 0x29EA JUMP JUMPDEST SWAP2 POP POP SWAP3 SWAP2 POP POP JUMP JUMPDEST PUSH1 0x0 DUP2 CALLDATALOAD SWAP1 POP PUSH2 0x2B19 DUP2 PUSH2 0x4293 JUMP JUMPDEST SWAP3 SWAP2 POP POP JUMP JUMPDEST PUSH1 0x0 DUP2 CALLDATALOAD SWAP1 POP PUSH2 0x2B2E DUP2 PUSH2 0x42AA JUMP JUMPDEST SWAP3 SWAP2 POP POP JUMP JUMPDEST PUSH1 0x0 PUSH1 0x20 DUP3 DUP5 SUB SLT ISZERO PUSH2 0x2B4A JUMPI PUSH2 0x2B49 PUSH2 0x3CC1 JUMP JUMPDEST JUMPDEST PUSH1 0x0 PUSH2 0x2B58 DUP5 DUP3 DUP6 ADD PUSH2 0x2A2C JUMP JUMPDEST SWAP2 POP POP SWAP3 SWAP2 POP POP JUMP JUMPDEST PUSH1 0x0 DUP1 PUSH1 0x40 DUP4 DUP6 SUB SLT ISZERO PUSH2 0x2B78 JUMPI PUSH2 0x2B77 PUSH2 0x3CC1 JUMP JUMPDEST JUMPDEST PUSH1 0x0 PUSH2 0x2B86 DUP6 DUP3 DUP7 ADD PUSH2 0x2A2C JUMP JUMPDEST SWAP3 POP POP PUSH1 0x20 PUSH2 0x2B97 DUP6 DUP3 DUP7 ADD PUSH2 0x2A2C JUMP JUMPDEST SWAP2 POP POP SWAP3 POP SWAP3 SWAP1 POP JUMP JUMPDEST PUSH1 0x0 DUP1 PUSH1 0x0 PUSH1 0x60 DUP5 DUP7 SUB SLT ISZERO PUSH2 0x2BBA JUMPI PUSH2 0x2BB9 PUSH2 0x3CC1 JUMP JUMPDEST JUMPDEST PUSH1 0x0 PUSH2 0x2BC8 DUP7 DUP3 DUP8 ADD PUSH2 0x2A2C JUMP JUMPDEST SWAP4 POP POP PUSH1 0x20 PUSH2 0x2BD9 DUP7 DUP3 DUP8 ADD PUSH2 0x2A2C JUMP JUMPDEST SWAP3 POP POP PUSH1 0x40 PUSH2 0x2BEA DUP7 DUP3 DUP8 ADD PUSH2 0x2B0A JUMP JUMPDEST SWAP2 POP POP SWAP3 POP SWAP3 POP SWAP3 JUMP JUMPDEST PUSH1 0x0 DUP1 PUSH1 0x0 DUP1 PUSH1 0x80 DUP6 DUP8 SUB SLT ISZERO PUSH2 0x2C0E JUMPI PUSH2 0x2C0D PUSH2 0x3CC1 JUMP JUMPDEST JUMPDEST PUSH1 0x0 PUSH2 0x2C1C DUP8 DUP3 DUP9 ADD PUSH2 0x2A2C JUMP JUMPDEST SWAP5 POP POP PUSH1 0x20 PUSH2 0x2C2D DUP8 DUP3 DUP9 ADD PUSH2 0x2A2C JUMP JUMPDEST SWAP4 POP POP PUSH1 0x40 PUSH2 0x2C3E DUP8 DUP3 DUP9 ADD PUSH2 0x2B0A JUMP JUMPDEST SWAP3 POP POP PUSH1 0x60 DUP6 ADD CALLDATALOAD PUSH8 0xFFFFFFFFFFFFFFFF DUP2 GT ISZERO PUSH2 0x2C5F JUMPI PUSH2 0x2C5E PUSH2 0x3CBC JUMP JUMPDEST JUMPDEST PUSH2 0x2C6B DUP8 DUP3 DUP9 ADD PUSH2 0x2AAE JUMP JUMPDEST SWAP2 POP POP SWAP3 SWAP6 SWAP2 SWAP5 POP SWAP3 POP JUMP JUMPDEST PUSH1 0x0 DUP1 PUSH1 0x40 DUP4 DUP6 SUB SLT ISZERO PUSH2 0x2C8E JUMPI PUSH2 0x2C8D PUSH2 0x3CC1 JUMP JUMPDEST JUMPDEST PUSH1 0x0 PUSH2 0x2C9C DUP6 DUP3 DUP7 ADD PUSH2 0x2A2C JUMP JUMPDEST SWAP3 POP POP PUSH1 0x20 PUSH2 0x2CAD DUP6 DUP3 DUP7 ADD PUSH2 0x2A6F JUMP JUMPDEST SWAP2 POP POP SWAP3 POP SWAP3 SWAP1 POP JUMP JUMPDEST PUSH1 0x0 DUP1 PUSH1 0x40 DUP4 DUP6 SUB SLT ISZERO PUSH2 0x2CCE JUMPI PUSH2 0x2CCD PUSH2 0x3CC1 JUMP JUMPDEST JUMPDEST PUSH1 0x0 PUSH2 0x2CDC DUP6 DUP3 DUP7 ADD PUSH2 0x2A2C JUMP JUMPDEST SWAP3 POP POP PUSH1 0x20 PUSH2 0x2CED DUP6 DUP3 DUP7 ADD PUSH2 0x2B0A JUMP JUMPDEST SWAP2 POP POP SWAP3 POP SWAP3 SWAP1 POP JUMP JUMPDEST PUSH1 0x0 DUP1 PUSH1 0x40 DUP4 DUP6 SUB SLT ISZERO PUSH2 0x2D0E JUMPI PUSH2 0x2D0D PUSH2 0x3CC1 JUMP JUMPDEST JUMPDEST PUSH1 0x0 DUP4 ADD CALLDATALOAD PUSH8 0xFFFFFFFFFFFFFFFF DUP2 GT ISZERO PUSH2 0x2D2C JUMPI PUSH2 0x2D2B PUSH2 0x3CBC JUMP JUMPDEST JUMPDEST PUSH2 0x2D38 DUP6 DUP3 DUP7 ADD PUSH2 0x2A41 JUMP JUMPDEST SWAP3 POP POP PUSH1 0x20 PUSH2 0x2D49 DUP6 DUP3 DUP7 ADD PUSH2 0x2B0A JUMP JUMPDEST SWAP2 POP POP SWAP3 POP SWAP3 SWAP1 POP JUMP JUMPDEST PUSH1 0x0 PUSH1 0x20 DUP3 DUP5 SUB SLT ISZERO PUSH2 0x2D69 JUMPI PUSH2 0x2D68 PUSH2 0x3CC1 JUMP JUMPDEST JUMPDEST PUSH1 0x0 PUSH2 0x2D77 DUP5 DUP3 DUP6 ADD PUSH2 0x2A84 JUMP JUMPDEST SWAP2 POP POP SWAP3 SWAP2 POP POP JUMP JUMPDEST PUSH1 0x0 PUSH1 0x20 DUP3 DUP5 SUB SLT ISZERO PUSH2 0x2D96 JUMPI PUSH2 0x2D95 PUSH2 0x3CC1 JUMP JUMPDEST JUMPDEST PUSH1 0x0 PUSH2 0x2DA4 DUP5 DUP3 DUP6 ADD PUSH2 0x2A99 JUMP JUMPDEST SWAP2 POP POP SWAP3 SWAP2 POP POP JUMP JUMPDEST PUSH1 0x0 PUSH1 0x20 DUP3 DUP5 SUB SLT ISZERO PUSH2 0x2DC3 JUMPI PUSH2 0x2DC2 PUSH2 0x3CC1 JUMP JUMPDEST JUMPDEST PUSH1 0x0 DUP3 ADD CALLDATALOAD PUSH8 0xFFFFFFFFFFFFFFFF DUP2 GT ISZERO PUSH2 0x2DE1 JUMPI PUSH2 0x2DE0 PUSH2 0x3CBC JUMP JUMPDEST JUMPDEST PUSH2 0x2DED DUP5 DUP3 DUP6 ADD PUSH2 0x2ADC JUMP JUMPDEST SWAP2 POP POP SWAP3 SWAP2 POP POP JUMP JUMPDEST PUSH1 0x0 PUSH1 0x20 DUP3 DUP5 SUB SLT ISZERO PUSH2 0x2E0C JUMPI PUSH2 0x2E0B PUSH2 0x3CC1 JUMP JUMPDEST JUMPDEST PUSH1 0x0 PUSH2 0x2E1A DUP5 DUP3 DUP6 ADD PUSH2 0x2B0A JUMP JUMPDEST SWAP2 POP POP SWAP3 SWAP2 POP POP JUMP JUMPDEST PUSH1 0x0 DUP1 PUSH1 0x40 DUP4 DUP6 SUB SLT ISZERO PUSH2 0x2E3A JUMPI PUSH2 0x2E39 PUSH2 0x3CC1 JUMP JUMPDEST JUMPDEST PUSH1 0x0 PUSH2 0x2E48 DUP6 DUP3 DUP7 ADD PUSH2 0x2B0A JUMP JUMPDEST SWAP3 POP POP PUSH1 0x20 PUSH2 0x2E59 DUP6 DUP3 DUP7 ADD PUSH2 0x2A2C JUMP JUMPDEST SWAP2 POP POP SWAP3 POP SWAP3 SWAP1 POP JUMP JUMPDEST PUSH1 0x0 PUSH1 0x20 DUP3 DUP5 SUB SLT ISZERO PUSH2 0x2E79 JUMPI PUSH2 0x2E78 PUSH2 0x3CC1 JUMP JUMPDEST JUMPDEST PUSH1 0x0 PUSH2 0x2E87 DUP5 DUP3 DUP6 ADD PUSH2 0x2B1F JUMP JUMPDEST SWAP2 POP POP SWAP3 SWAP2 POP POP JUMP JUMPDEST PUSH1 0x0 PUSH2 0x2E9C DUP4 DUP4 PUSH2 0x336B JUMP JUMPDEST PUSH1 0x20 DUP4 ADD SWAP1 POP SWAP3 SWAP2 POP POP JUMP JUMPDEST PUSH2 0x2EB1 DUP2 PUSH2 0x39F3 JUMP JUMPDEST DUP3 MSTORE POP POP JUMP JUMPDEST PUSH1 0x0 PUSH2 0x2EC2 DUP3 PUSH2 0x3872 JUMP JUMPDEST PUSH2 0x2ECC DUP2 DUP6 PUSH2 0x38A0 JUMP JUMPDEST SWAP4 POP PUSH2 0x2ED7 DUP4 PUSH2 0x384D JUMP JUMPDEST DUP1 PUSH1 0x0 JUMPDEST DUP4 DUP2 LT ISZERO PUSH2 0x2F08 JUMPI DUP2 MLOAD PUSH2 0x2EEF DUP9 DUP3 PUSH2 0x2E90 JUMP JUMPDEST SWAP8 POP PUSH2 0x2EFA DUP4 PUSH2 0x3893 JUMP JUMPDEST SWAP3 POP POP PUSH1 0x1 DUP2 ADD SWAP1 POP PUSH2 0x2EDB JUMP JUMPDEST POP DUP6 SWAP4 POP POP POP POP SWAP3 SWAP2 POP POP JUMP JUMPDEST PUSH2 0x2F1E DUP2 PUSH2 0x3A05 JUMP JUMPDEST DUP3 MSTORE POP POP JUMP JUMPDEST PUSH1 0x0 PUSH2 0x2F2F DUP3 PUSH2 0x387D JUMP JUMPDEST PUSH2 0x2F39 DUP2 DUP6 PUSH2 0x38B1 JUMP JUMPDEST SWAP4 POP PUSH2 0x2F49 DUP2 DUP6 PUSH1 0x20 DUP7 ADD PUSH2 0x3A83 JUMP JUMPDEST PUSH2 0x2F52 DUP2 PUSH2 0x3CC6 JUMP JUMPDEST DUP5 ADD SWAP2 POP POP SWAP3 SWAP2 POP POP JUMP JUMPDEST PUSH1 0x0 PUSH2 0x2F68 DUP3 PUSH2 0x3888 JUMP JUMPDEST PUSH2 0x2F72 DUP2 DUP6 PUSH2 0x38C2 JUMP JUMPDEST SWAP4 POP PUSH2 0x2F82 DUP2 DUP6 PUSH1 0x20 DUP7 ADD PUSH2 0x3A83 JUMP JUMPDEST PUSH2 0x2F8B DUP2 PUSH2 0x3CC6 JUMP JUMPDEST DUP5 ADD SWAP2 POP POP SWAP3 SWAP2 POP POP JUMP JUMPDEST PUSH1 0x0 PUSH2 0x2FA1 DUP3 PUSH2 0x3888 JUMP JUMPDEST PUSH2 0x2FAB DUP2 DUP6 PUSH2 0x38D3 JUMP JUMPDEST SWAP4 POP PUSH2 0x2FBB DUP2 DUP6 PUSH1 0x20 DUP7 ADD PUSH2 0x3A83 JUMP JUMPDEST DUP1 DUP5 ADD SWAP2 POP POP SWAP3 SWAP2 POP POP JUMP JUMPDEST PUSH1 0x0 DUP2 SLOAD PUSH2 0x2FD4 DUP2 PUSH2 0x3AB6 JUMP JUMPDEST PUSH2 0x2FDE DUP2 DUP7 PUSH2 0x38D3 JUMP JUMPDEST SWAP5 POP PUSH1 0x1 DUP3 AND PUSH1 0x0 DUP2 EQ PUSH2 0x2FF9 JUMPI PUSH1 0x1 DUP2 EQ PUSH2 0x300A JUMPI PUSH2 0x303D JUMP JUMPDEST PUSH1 0xFF NOT DUP4 AND DUP7 MSTORE DUP2 DUP7 ADD SWAP4 POP PUSH2 0x303D JUMP JUMPDEST PUSH2 0x3013 DUP6 PUSH2 0x385D JUMP JUMPDEST PUSH1 0x0 JUMPDEST DUP4 DUP2 LT ISZERO PUSH2 0x3035 JUMPI DUP2 SLOAD DUP2 DUP10 ADD MSTORE PUSH1 0x1 DUP3 ADD SWAP2 POP PUSH1 0x20 DUP2 ADD SWAP1 POP PUSH2 0x3016 JUMP JUMPDEST DUP4 DUP9 ADD SWAP6 POP POP POP JUMPDEST POP POP POP SWAP3 SWAP2 POP POP JUMP JUMPDEST PUSH1 0x0 PUSH2 0x3053 PUSH1 0x32 DUP4 PUSH2 0x38C2 JUMP JUMPDEST SWAP2 POP PUSH2 0x305E DUP3 PUSH2 0x3CD7 JUMP JUMPDEST PUSH1 0x40 DUP3 ADD SWAP1 POP SWAP2 SWAP1 POP JUMP JUMPDEST PUSH1 0x0 PUSH2 0x3076 PUSH1 0x26 DUP4 PUSH2 0x38C2 JUMP JUMPDEST SWAP2 POP PUSH2 0x3081 DUP3 PUSH2 0x3D26 JUMP JUMPDEST PUSH1 0x40 DUP3 ADD SWAP1 POP SWAP2 SWAP1 POP JUMP JUMPDEST PUSH1 0x0 PUSH2 0x3099 PUSH1 0x7 DUP4 PUSH2 0x38D3 JUMP JUMPDEST SWAP2 POP PUSH2 0x30A4 DUP3 PUSH2 0x3D75 JUMP JUMPDEST PUSH1 0x7 DUP3 ADD SWAP1 POP SWAP2 SWAP1 POP JUMP JUMPDEST PUSH1 0x0 PUSH2 0x30BC PUSH1 0x25 DUP4 PUSH2 0x38C2 JUMP JUMPDEST SWAP2 POP PUSH2 0x30C7 DUP3 PUSH2 0x3D9E JUMP JUMPDEST PUSH1 0x40 DUP3 ADD SWAP1 POP SWAP2 SWAP1 POP JUMP JUMPDEST PUSH1 0x0 PUSH2 0x30DF PUSH1 0x1C DUP4 PUSH2 0x38C2 JUMP JUMPDEST SWAP2 POP PUSH2 0x30EA DUP3 PUSH2 0x3DED JUMP JUMPDEST PUSH1 0x20 DUP3 ADD SWAP1 POP SWAP2 SWAP1 POP JUMP JUMPDEST PUSH1 0x0 PUSH2 0x3102 PUSH1 0x1E DUP4 PUSH2 0x38C2 JUMP JUMPDEST SWAP2 POP PUSH2 0x310D DUP3 PUSH2 0x3E16 JUMP JUMPDEST PUSH1 0x20 DUP3 ADD SWAP1 POP SWAP2 SWAP1 POP JUMP JUMPDEST PUSH1 0x0 PUSH2 0x3125 PUSH1 0x14 DUP4 PUSH2 0x38C2 JUMP JUMPDEST SWAP2 POP PUSH2 0x3130 DUP3 PUSH2 0x3E3F JUMP JUMPDEST PUSH1 0x20 DUP3 ADD SWAP1 POP SWAP2 SWAP1 POP JUMP JUMPDEST PUSH1 0x0 PUSH2 0x3148 PUSH1 0x24 DUP4 PUSH2 0x38C2 JUMP JUMPDEST SWAP2 POP PUSH2 0x3153 DUP3 PUSH2 0x3E68 JUMP JUMPDEST PUSH1 0x40 DUP3 ADD SWAP1 POP SWAP2 SWAP1 POP JUMP JUMPDEST PUSH1 0x0 PUSH2 0x316B PUSH1 0x19 DUP4 PUSH2 0x38C2 JUMP JUMPDEST SWAP2 POP PUSH2 0x3176 DUP3 PUSH2 0x3EB7 JUMP JUMPDEST PUSH1 0x20 DUP3 ADD SWAP1 POP SWAP2 SWAP1 POP JUMP JUMPDEST PUSH1 0x0 PUSH2 0x318E PUSH1 0x23 DUP4 PUSH2 0x38C2 JUMP JUMPDEST SWAP2 POP PUSH2 0x3199 DUP3 PUSH2 0x3EE0 JUMP JUMPDEST PUSH1 0x40 DUP3 ADD SWAP1 POP SWAP2 SWAP1 POP JUMP JUMPDEST PUSH1 0x0 PUSH2 0x31B1 PUSH1 0x29 DUP4 PUSH2 0x38C2 JUMP JUMPDEST SWAP2 POP PUSH2 0x31BC DUP3 PUSH2 0x3F2F JUMP JUMPDEST PUSH1 0x40 DUP3 ADD SWAP1 POP SWAP2 SWAP1 POP JUMP JUMPDEST PUSH1 0x0 PUSH2 0x31D4 PUSH1 0xE DUP4 PUSH2 0x38C2 JUMP JUMPDEST SWAP2 POP PUSH2 0x31DF DUP3 PUSH2 0x3F7E JUMP JUMPDEST PUSH1 0x20 DUP3 ADD SWAP1 POP SWAP2 SWAP1 POP JUMP JUMPDEST PUSH1 0x0 PUSH2 0x31F7 PUSH1 0x10 DUP4 PUSH2 0x38C2 JUMP JUMPDEST SWAP2 POP PUSH2 0x3202 DUP3 PUSH2 0x3FA7 JUMP JUMPDEST PUSH1 0x20 DUP3 ADD SWAP1 POP SWAP2 SWAP1 POP JUMP JUMPDEST PUSH1 0x0 PUSH2 0x321A PUSH1 0x3E DUP4 PUSH2 0x38C2 JUMP JUMPDEST SWAP2 POP PUSH2 0x3225 DUP3 PUSH2 0x3FD0 JUMP JUMPDEST PUSH1 0x40 DUP3 ADD SWAP1 POP SWAP2 SWAP1 POP JUMP JUMPDEST PUSH1 0x0 PUSH2 0x323D PUSH1 0x20 DUP4 PUSH2 0x38C2 JUMP JUMPDEST SWAP2 POP PUSH2 0x3248 DUP3 PUSH2 0x401F JUMP JUMPDEST PUSH1 0x20 DUP3 ADD SWAP1 POP SWAP2 SWAP1 POP JUMP JUMPDEST PUSH1 0x0 PUSH2 0x3260 PUSH1 0x2D DUP4 PUSH2 0x38C2 JUMP JUMPDEST SWAP2 POP PUSH2 0x326B DUP3 PUSH2 0x4048 JUMP JUMPDEST PUSH1 0x40 DUP3 ADD SWAP1 POP SWAP2 SWAP1 POP JUMP JUMPDEST PUSH1 0x0 PUSH2 0x3283 PUSH1 0x20 DUP4 PUSH2 0x38C2 JUMP JUMPDEST SWAP2 POP PUSH2 0x328E DUP3 PUSH2 0x4097 JUMP JUMPDEST PUSH1 0x20 DUP3 ADD SWAP1 POP SWAP2 SWAP1 POP JUMP JUMPDEST PUSH1 0x0 PUSH2 0x32A6 PUSH1 0x2C DUP4 PUSH2 0x38C2 JUMP JUMPDEST SWAP2 POP PUSH2 0x32B1 DUP3 PUSH2 0x40C0 JUMP JUMPDEST PUSH1 0x40 DUP3 ADD SWAP1 POP SWAP2 SWAP1 POP JUMP JUMPDEST PUSH1 0x0 PUSH2 0x32C9 PUSH1 0x18 DUP4 PUSH2 0x38C2 JUMP JUMPDEST SWAP2 POP PUSH2 0x32D4 DUP3 PUSH2 0x410F JUMP JUMPDEST PUSH1 0x20 DUP3 ADD SWAP1 POP SWAP2 SWAP1 POP JUMP JUMPDEST PUSH1 0x0 PUSH2 0x32EC PUSH1 0x21 DUP4 PUSH2 0x38C2 JUMP JUMPDEST SWAP2 POP PUSH2 0x32F7 DUP3 PUSH2 0x4138 JUMP JUMPDEST PUSH1 0x40 DUP3 ADD SWAP1 POP SWAP2 SWAP1 POP JUMP JUMPDEST PUSH1 0x0 PUSH2 0x330F PUSH1 0x2B DUP4 PUSH2 0x38C2 JUMP JUMPDEST SWAP2 POP PUSH2 0x331A DUP3 PUSH2 0x4187 JUMP JUMPDEST PUSH1 0x40 DUP3 ADD SWAP1 POP SWAP2 SWAP1 POP JUMP JUMPDEST PUSH1 0x0 PUSH2 0x3332 PUSH1 0x2E DUP4 PUSH2 0x38C2 JUMP JUMPDEST SWAP2 POP PUSH2 0x333D DUP3 PUSH2 0x41D6 JUMP JUMPDEST PUSH1 0x40 DUP3 ADD SWAP1 POP SWAP2 SWAP1 POP JUMP JUMPDEST PUSH1 0x0 PUSH2 0x3355 PUSH1 0x1A DUP4 PUSH2 0x38C2 JUMP JUMPDEST SWAP2 POP PUSH2 0x3360 DUP3 PUSH2 0x4225 JUMP JUMPDEST PUSH1 0x20 DUP3 ADD SWAP1 POP SWAP2 SWAP1 POP JUMP JUMPDEST PUSH2 0x3374 DUP2 PUSH2 0x3A5D JUMP JUMPDEST DUP3 MSTORE POP POP JUMP JUMPDEST PUSH2 0x3383 DUP2 PUSH2 0x3A5D JUMP JUMPDEST DUP3 MSTORE POP POP JUMP JUMPDEST PUSH2 0x3392 DUP2 PUSH2 0x3A67 JUMP JUMPDEST DUP3 MSTORE POP POP JUMP JUMPDEST PUSH1 0x0 PUSH2 0x33A4 DUP3 DUP6 PUSH2 0x2F96 JUMP JUMPDEST SWAP2 POP PUSH2 0x33B0 DUP3 DUP5 PUSH2 0x2F96 JUMP JUMPDEST SWAP2 POP DUP2 SWAP1 POP SWAP4 SWAP3 POP POP POP JUMP JUMPDEST PUSH1 0x0 PUSH2 0x33C8 DUP3 DUP5 PUSH2 0x2FC7 JUMP JUMPDEST SWAP2 POP PUSH2 0x33D3 DUP3 PUSH2 0x308C JUMP JUMPDEST SWAP2 POP DUP2 SWAP1 POP SWAP3 SWAP2 POP POP JUMP JUMPDEST PUSH1 0x0 PUSH1 0x20 DUP3 ADD SWAP1 POP PUSH2 0x33F3 PUSH1 0x0 DUP4 ADD DUP5 PUSH2 0x2EA8 JUMP JUMPDEST SWAP3 SWAP2 POP POP JUMP JUMPDEST PUSH1 0x0 PUSH1 0x80 DUP3 ADD SWAP1 POP PUSH2 0x340E PUSH1 0x0 DUP4 ADD DUP8 PUSH2 0x2EA8 JUMP JUMPDEST PUSH2 0x341B PUSH1 0x20 DUP4 ADD DUP7 PUSH2 0x2EA8 JUMP JUMPDEST PUSH2 0x3428 PUSH1 0x40 DUP4 ADD DUP6 PUSH2 0x337A JUMP JUMPDEST DUP2 DUP2 SUB PUSH1 0x60 DUP4 ADD MSTORE PUSH2 0x343A DUP2 DUP5 PUSH2 0x2F24 JUMP JUMPDEST SWAP1 POP SWAP6 SWAP5 POP POP POP POP POP JUMP JUMPDEST PUSH1 0x0 PUSH1 0x20 DUP3 ADD SWAP1 POP DUP2 DUP2 SUB PUSH1 0x0 DUP4 ADD MSTORE PUSH2 0x345F DUP2 DUP5 PUSH2 0x2EB7 JUMP JUMPDEST SWAP1 POP SWAP3 SWAP2 POP POP JUMP JUMPDEST PUSH1 0x0 PUSH1 0x20 DUP3 ADD SWAP1 POP PUSH2 0x347C PUSH1 0x0 DUP4 ADD DUP5 PUSH2 0x2F15 JUMP JUMPDEST SWAP3 SWAP2 POP POP JUMP JUMPDEST PUSH1 0x0 PUSH1 0x20 DUP3 ADD SWAP1 POP DUP2 DUP2 SUB PUSH1 0x0 DUP4 ADD MSTORE PUSH2 0x349C DUP2 DUP5 PUSH2 0x2F5D JUMP JUMPDEST SWAP1 POP SWAP3 SWAP2 POP POP JUMP JUMPDEST PUSH1 0x0 PUSH1 0x20 DUP3 ADD SWAP1 POP DUP2 DUP2 SUB PUSH1 0x0 DUP4 ADD MSTORE PUSH2 0x34BD DUP2 PUSH2 0x3046 JUMP JUMPDEST SWAP1 POP SWAP2 SWAP1 POP JUMP JUMPDEST PUSH1 0x0 PUSH1 0x20 DUP3 ADD SWAP1 POP DUP2 DUP2 SUB PUSH1 0x0 DUP4 ADD MSTORE PUSH2 0x34DD DUP2 PUSH2 0x3069 JUMP JUMPDEST SWAP1 POP SWAP2 SWAP1 POP JUMP JUMPDEST PUSH1 0x0 PUSH1 0x20 DUP3 ADD SWAP1 POP DUP2 DUP2 SUB PUSH1 0x0 DUP4 ADD MSTORE PUSH2 0x34FD DUP2 PUSH2 0x30AF JUMP JUMPDEST SWAP1 POP SWAP2 SWAP1 POP JUMP JUMPDEST PUSH1 0x0 PUSH1 0x20 DUP3 ADD SWAP1 POP DUP2 DUP2 SUB PUSH1 0x0 DUP4 ADD MSTORE PUSH2 0x351D DUP2 PUSH2 0x30D2 JUMP JUMPDEST SWAP1 POP SWAP2 SWAP1 POP JUMP JUMPDEST PUSH1 0x0 PUSH1 0x20 DUP3 ADD SWAP1 POP DUP2 DUP2 SUB PUSH1 0x0 DUP4 ADD MSTORE PUSH2 0x353D DUP2 PUSH2 0x30F5 JUMP JUMPDEST SWAP1 POP SWAP2 SWAP1 POP JUMP JUMPDEST PUSH1 0x0 PUSH1 0x20 DUP3 ADD SWAP1 POP DUP2 DUP2 SUB PUSH1 0x0 DUP4 ADD MSTORE PUSH2 0x355D DUP2 PUSH2 0x3118 JUMP JUMPDEST SWAP1 POP SWAP2 SWAP1 POP JUMP JUMPDEST PUSH1 0x0 PUSH1 0x20 DUP3 ADD SWAP1 POP DUP2 DUP2 SUB PUSH1 0x0 DUP4 ADD MSTORE PUSH2 0x357D DUP2 PUSH2 0x313B JUMP JUMPDEST SWAP1 POP SWAP2 SWAP1 POP JUMP JUMPDEST PUSH1 0x0 PUSH1 0x20 DUP3 ADD SWAP1 POP DUP2 DUP2 SUB PUSH1 0x0 DUP4 ADD MSTORE PUSH2 0x359D DUP2 PUSH2 0x315E JUMP JUMPDEST SWAP1 POP SWAP2 SWAP1 POP JUMP JUMPDEST PUSH1 0x0 PUSH1 0x20 DUP3 ADD SWAP1 POP DUP2 DUP2 SUB PUSH1 0x0 DUP4 ADD MSTORE PUSH2 0x35BD DUP2 PUSH2 0x3181 JUMP JUMPDEST SWAP1 POP SWAP2 SWAP1 POP JUMP JUMPDEST PUSH1 0x0 PUSH1 0x20 DUP3 ADD SWAP1 POP DUP2 DUP2 SUB PUSH1 0x0 DUP4 ADD MSTORE PUSH2 0x35DD DUP2 PUSH2 0x31A4 JUMP JUMPDEST SWAP1 POP SWAP2 SWAP1 POP JUMP JUMPDEST PUSH1 0x0 PUSH1 0x20 DUP3 ADD SWAP1 POP DUP2 DUP2 SUB PUSH1 0x0 DUP4 ADD MSTORE PUSH2 0x35FD DUP2 PUSH2 0x31C7 JUMP JUMPDEST SWAP1 POP SWAP2 SWAP1 POP JUMP JUMPDEST PUSH1 0x0 PUSH1 0x20 DUP3 ADD SWAP1 POP DUP2 DUP2 SUB PUSH1 0x0 DUP4 ADD MSTORE PUSH2 0x361D DUP2 PUSH2 0x31EA JUMP JUMPDEST SWAP1 POP SWAP2 SWAP1 POP JUMP JUMPDEST PUSH1 0x0 PUSH1 0x20 DUP3 ADD SWAP1 POP DUP2 DUP2 SUB PUSH1 0x0 DUP4 ADD MSTORE PUSH2 0x363D DUP2 PUSH2 0x320D JUMP JUMPDEST SWAP1 POP SWAP2 SWAP1 POP JUMP JUMPDEST PUSH1 0x0 PUSH1 0x20 DUP3 ADD SWAP1 POP DUP2 DUP2 SUB PUSH1 0x0 DUP4 ADD MSTORE PUSH2 0x365D DUP2 PUSH2 0x3230 JUMP JUMPDEST SWAP1 POP SWAP2 SWAP1 POP JUMP JUMPDEST PUSH1 0x0 PUSH1 0x20 DUP3 ADD SWAP1 POP DUP2 DUP2 SUB PUSH1 0x0 DUP4 ADD MSTORE PUSH2 0x367D DUP2 PUSH2 0x3253 JUMP JUMPDEST SWAP1 POP SWAP2 SWAP1 POP JUMP JUMPDEST PUSH1 0x0 PUSH1 0x20 DUP3 ADD SWAP1 POP DUP2 DUP2 SUB PUSH1 0x0 DUP4 ADD MSTORE PUSH2 0x369D DUP2 PUSH2 0x3276 JUMP JUMPDEST SWAP1 POP SWAP2 SWAP1 POP JUMP JUMPDEST PUSH1 0x0 PUSH1 0x20 DUP3 ADD SWAP1 POP DUP2 DUP2 SUB PUSH1 0x0 DUP4 ADD MSTORE PUSH2 0x36BD DUP2 PUSH2 0x3299 JUMP JUMPDEST SWAP1 POP SWAP2 SWAP1 POP JUMP JUMPDEST PUSH1 0x0 PUSH1 0x20 DUP3 ADD SWAP1 POP DUP2 DUP2 SUB PUSH1 0x0 DUP4 ADD MSTORE PUSH2 0x36DD DUP2 PUSH2 0x32BC JUMP JUMPDEST SWAP1 POP SWAP2 SWAP1 POP JUMP JUMPDEST PUSH1 0x0 PUSH1 0x20 DUP3 ADD SWAP1 POP DUP2 DUP2 SUB PUSH1 0x0 DUP4 ADD MSTORE PUSH2 0x36FD DUP2 PUSH2 0x32DF JUMP JUMPDEST SWAP1 POP SWAP2 SWAP1 POP JUMP JUMPDEST PUSH1 0x0 PUSH1 0x20 DUP3 ADD SWAP1 POP DUP2 DUP2 SUB PUSH1 0x0 DUP4 ADD MSTORE PUSH2 0x371D DUP2 PUSH2 0x3302 JUMP JUMPDEST SWAP1 POP SWAP2 SWAP1 POP JUMP JUMPDEST PUSH1 0x0 PUSH1 0x20 DUP3 ADD SWAP1 POP DUP2 DUP2 SUB PUSH1 0x0 DUP4 ADD MSTORE PUSH2 0x373D DUP2 PUSH2 0x3325 JUMP JUMPDEST SWAP1 POP SWAP2 SWAP1 POP JUMP JUMPDEST PUSH1 0x0 PUSH1 0x20 DUP3 ADD SWAP1 POP DUP2 DUP2 SUB PUSH1 0x0 DUP4 ADD MSTORE PUSH2 0x375D DUP2 PUSH2 0x3348 JUMP JUMPDEST SWAP1 POP SWAP2 SWAP1 POP JUMP JUMPDEST PUSH1 0x0 PUSH1 0x20 DUP3 ADD SWAP1 POP PUSH2 0x3779 PUSH1 0x0 DUP4 ADD DUP5 PUSH2 0x337A JUMP JUMPDEST SWAP3 SWAP2 POP POP JUMP JUMPDEST PUSH1 0x0 PUSH1 0x20 DUP3 ADD SWAP1 POP PUSH2 0x3794 PUSH1 0x0 DUP4 ADD DUP5 PUSH2 0x3389 JUMP JUMPDEST SWAP3 SWAP2 POP POP JUMP JUMPDEST PUSH1 0x0 PUSH2 0x37A4 PUSH2 0x37B5 JUMP JUMPDEST SWAP1 POP PUSH2 0x37B0 DUP3 DUP3 PUSH2 0x3AE8 JUMP JUMPDEST SWAP2 SWAP1 POP JUMP JUMPDEST PUSH1 0x0 PUSH1 0x40 MLOAD SWAP1 POP SWAP1 JUMP JUMPDEST PUSH1 0x0 PUSH8 0xFFFFFFFFFFFFFFFF DUP3 GT ISZERO PUSH2 0x37DA JUMPI PUSH2 0x37D9 PUSH2 0x3C7E JUMP JUMPDEST JUMPDEST PUSH1 0x20 DUP3 MUL SWAP1 POP PUSH1 0x20 DUP2 ADD SWAP1 POP SWAP2 SWAP1 POP JUMP JUMPDEST PUSH1 0x0 PUSH8 0xFFFFFFFFFFFFFFFF DUP3 GT ISZERO PUSH2 0x3806 JUMPI PUSH2 0x3805 PUSH2 0x3C7E JUMP JUMPDEST JUMPDEST PUSH2 0x380F DUP3 PUSH2 0x3CC6 JUMP JUMPDEST SWAP1 POP PUSH1 0x20 DUP2 ADD SWAP1 POP SWAP2 SWAP1 POP JUMP JUMPDEST PUSH1 0x0 PUSH8 0xFFFFFFFFFFFFFFFF DUP3 GT ISZERO PUSH2 0x3837 JUMPI PUSH2 0x3836 PUSH2 0x3C7E JUMP JUMPDEST JUMPDEST PUSH2 0x3840 DUP3 PUSH2 0x3CC6 JUMP JUMPDEST SWAP1 POP PUSH1 0x20 DUP2 ADD SWAP1 POP SWAP2 SWAP1 POP JUMP JUMPDEST PUSH1 0x0 DUP2 SWAP1 POP PUSH1 0x20 DUP3 ADD SWAP1 POP SWAP2 SWAP1 POP JUMP JUMPDEST PUSH1 0x0 DUP2 SWAP1 POP DUP2 PUSH1 0x0 MSTORE PUSH1 0x20 PUSH1 0x0 KECCAK256 SWAP1 POP SWAP2 SWAP1 POP JUMP JUMPDEST PUSH1 0x0 DUP2 MLOAD SWAP1 POP SWAP2 SWAP1 POP JUMP JUMPDEST PUSH1 0x0 DUP2 MLOAD SWAP1 POP SWAP2 SWAP1 POP JUMP JUMPDEST PUSH1 0x0 DUP2 MLOAD SWAP1 POP SWAP2 SWAP1 POP JUMP JUMPDEST PUSH1 0x0 PUSH1 0x20 DUP3 ADD SWAP1 POP SWAP2 SWAP1 POP JUMP JUMPDEST PUSH1 0x0 DUP3 DUP3 MSTORE PUSH1 0x20 DUP3 ADD SWAP1 POP SWAP3 SWAP2 POP POP JUMP JUMPDEST PUSH1 0x0 DUP3 DUP3 MSTORE PUSH1 0x20 DUP3 ADD SWAP1 POP SWAP3 SWAP2 POP POP JUMP JUMPDEST PUSH1 0x0 DUP3 DUP3 MSTORE PUSH1 0x20 DUP3 ADD SWAP1 POP SWAP3 SWAP2 POP POP JUMP JUMPDEST PUSH1 0x0 DUP2 SWAP1 POP SWAP3 SWAP2 POP POP JUMP JUMPDEST PUSH1 0x0 PUSH2 0x38E9 DUP3 PUSH2 0x3A5D JUMP JUMPDEST SWAP2 POP PUSH2 0x38F4 DUP4 PUSH2 0x3A5D JUMP JUMPDEST SWAP3 POP DUP3 PUSH32 0xFFFFFFFFFFFFFFFFFFFFFFFFFFFFFFFFFFFFFFFFFFFFFFFFFFFFFFFFFFFFFFFF SUB DUP3 GT ISZERO PUSH2 0x3929 JUMPI PUSH2 0x3928 PUSH2 0x3B93 JUMP JUMPDEST JUMPDEST DUP3 DUP3 ADD SWAP1 POP SWAP3 SWAP2 POP POP JUMP JUMPDEST PUSH1 0x0 PUSH2 0x393F DUP3 PUSH2 0x3A5D JUMP JUMPDEST SWAP2 POP PUSH2 0x394A DUP4 PUSH2 0x3A5D JUMP JUMPDEST SWAP3 POP DUP3 PUSH2 0x395A JUMPI PUSH2 0x3959 PUSH2 0x3BC2 JUMP JUMPDEST JUMPDEST DUP3 DUP3 DIV SWAP1 POP SWAP3 SWAP2 POP POP JUMP JUMPDEST PUSH1 0x0 PUSH2 0x3970 DUP3 PUSH2 0x3A5D JUMP JUMPDEST SWAP2 POP PUSH2 0x397B DUP4 PUSH2 0x3A5D JUMP JUMPDEST SWAP3 POP DUP2 PUSH32 0xFFFFFFFFFFFFFFFFFFFFFFFFFFFFFFFFFFFFFFFFFFFFFFFFFFFFFFFFFFFFFFFF DIV DUP4 GT DUP3 ISZERO ISZERO AND ISZERO PUSH2 0x39B4 JUMPI PUSH2 0x39B3 PUSH2 0x3B93 JUMP JUMPDEST JUMPDEST DUP3 DUP3 MUL SWAP1 POP SWAP3 SWAP2 POP POP JUMP JUMPDEST PUSH1 0x0 PUSH2 0x39CA DUP3 PUSH2 0x3A5D JUMP JUMPDEST SWAP2 POP PUSH2 0x39D5 DUP4 PUSH2 0x3A5D JUMP JUMPDEST SWAP3 POP DUP3 DUP3 LT ISZERO PUSH2 0x39E8 JUMPI PUSH2 0x39E7 PUSH2 0x3B93 JUMP JUMPDEST JUMPDEST DUP3 DUP3 SUB SWAP1 POP SWAP3 SWAP2 POP POP JUMP JUMPDEST PUSH1 0x0 PUSH2 0x39FE DUP3 PUSH2 0x3A3D JUMP JUMPDEST SWAP1 POP SWAP2 SWAP1 POP JUMP JUMPDEST PUSH1 0x0 DUP2 ISZERO ISZERO SWAP1 POP SWAP2 SWAP1 POP JUMP JUMPDEST PUSH1 0x0 PUSH32 0xFFFFFFFF00000000000000000000000000000000000000000000000000000000 DUP3 AND SWAP1 POP SWAP2 SWAP1 POP JUMP JUMPDEST PUSH1 0x0 PUSH20 0xFFFFFFFFFFFFFFFFFFFFFFFFFFFFFFFFFFFFFFFF DUP3 AND SWAP1 POP SWAP2 SWAP1 POP JUMP JUMPDEST PUSH1 0x0 DUP2 SWAP1 POP SWAP2 SWAP1 POP JUMP JUMPDEST PUSH1 0x0 PUSH1 0xFF DUP3 AND SWAP1 POP SWAP2 SWAP1 POP JUMP JUMPDEST DUP3 DUP2 DUP4 CALLDATACOPY PUSH1 0x0 DUP4 DUP4 ADD MSTORE POP POP POP JUMP JUMPDEST PUSH1 0x0 JUMPDEST DUP4 DUP2 LT ISZERO PUSH2 0x3AA1 JUMPI DUP1 DUP3 ADD MLOAD DUP2 DUP5 ADD MSTORE PUSH1 0x20 DUP2 ADD SWAP1 POP PUSH2 0x3A86 JUMP JUMPDEST DUP4 DUP2 GT ISZERO PUSH2 0x3AB0 JUMPI PUSH1 0x0 DUP5 DUP5 ADD MSTORE JUMPDEST POP POP POP POP JUMP JUMPDEST PUSH1 0x0 PUSH1 0x2 DUP3 DIV SWAP1 POP PUSH1 0x1 DUP3 AND DUP1 PUSH2 0x3ACE JUMPI PUSH1 0x7F DUP3 AND SWAP2 POP JUMPDEST PUSH1 0x20 DUP3 LT DUP2 EQ ISZERO PUSH2 0x3AE2 JUMPI PUSH2 0x3AE1 PUSH2 0x3C20 JUMP JUMPDEST JUMPDEST POP SWAP2 SWAP1 POP JUMP JUMPDEST PUSH2 0x3AF1 DUP3 PUSH2 0x3CC6 JUMP JUMPDEST DUP2 ADD DUP2 DUP2 LT PUSH8 0xFFFFFFFFFFFFFFFF DUP3 GT OR ISZERO PUSH2 0x3B10 JUMPI PUSH2 0x3B0F PUSH2 0x3C7E JUMP JUMPDEST JUMPDEST DUP1 PUSH1 0x40 MSTORE POP POP POP JUMP JUMPDEST PUSH1 0x0 PUSH2 0x3B24 DUP3 PUSH2 0x3A5D JUMP JUMPDEST SWAP2 POP PUSH32 0xFFFFFFFFFFFFFFFFFFFFFFFFFFFFFFFFFFFFFFFFFFFFFFFFFFFFFFFFFFFFFFFF DUP3 EQ ISZERO PUSH2 0x3B57 JUMPI PUSH2 0x3B56 PUSH2 0x3B93 JUMP JUMPDEST JUMPDEST PUSH1 0x1 DUP3 ADD SWAP1 POP SWAP2 SWAP1 POP JUMP JUMPDEST PUSH1 0x0 PUSH2 0x3B6D DUP3 PUSH2 0x3A5D JUMP JUMPDEST SWAP2 POP PUSH2 0x3B78 DUP4 PUSH2 0x3A5D JUMP JUMPDEST SWAP3 POP DUP3 PUSH2 0x3B88 JUMPI PUSH2 0x3B87 PUSH2 0x3BC2 JUMP JUMPDEST JUMPDEST DUP3 DUP3 MOD SWAP1 POP SWAP3 SWAP2 POP POP JUMP JUMPDEST PUSH32 0x4E487B7100000000000000000000000000000000000000000000000000000000 PUSH1 0x0 MSTORE PUSH1 0x11 PUSH1 0x4 MSTORE PUSH1 0x24 PUSH1 0x0 REVERT JUMPDEST PUSH32 0x4E487B7100000000000000000000000000000000000000000000000000000000 PUSH1 0x0 MSTORE PUSH1 0x12 PUSH1 0x4 MSTORE PUSH1 0x24 PUSH1 0x0 REVERT JUMPDEST PUSH32 0x4E487B7100000000000000000000000000000000000000000000000000000000 PUSH1 0x0 MSTORE PUSH1 0x21 PUSH1 0x4 MSTORE PUSH1 0x24 PUSH1 0x0 REVERT JUMPDEST PUSH32 0x4E487B7100000000000000000000000000000000000000000000000000000000 PUSH1 0x0 MSTORE PUSH1 0x22 PUSH1 0x4 MSTORE PUSH1 0x24 PUSH1 0x0 REVERT JUMPDEST PUSH32 0x4E487B7100000000000000000000000000000000000000000000000000000000 PUSH1 0x0 MSTORE PUSH1 0x32 PUSH1 0x4 MSTORE PUSH1 0x24 PUSH1 0x0 REVERT JUMPDEST PUSH32 0x4E487B7100000000000000000000000000000000000000000000000000000000 PUSH1 0x0 MSTORE PUSH1 0x41 PUSH1 0x4 MSTORE PUSH1 0x24 PUSH1 0x0 REVERT JUMPDEST PUSH1 0x0 DUP1 REVERT JUMPDEST PUSH1 0x0 DUP1 REVERT JUMPDEST PUSH1 0x0 DUP1 REVERT JUMPDEST PUSH1 0x0 DUP1 REVERT JUMPDEST PUSH1 0x0 DUP1 REVERT JUMPDEST PUSH1 0x0 PUSH1 0x1F NOT PUSH1 0x1F DUP4 ADD AND SWAP1 POP SWAP2 SWAP1 POP JUMP JUMPDEST PUSH32 0x4552433732313A207472616E7366657220746F206E6F6E204552433732315265 PUSH1 0x0 DUP3 ADD MSTORE PUSH32 0x63656976657220696D706C656D656E7465720000000000000000000000000000 PUSH1 0x20 DUP3 ADD MSTORE POP JUMP JUMPDEST PUSH32 0x4F776E61626C653A206E6577206F776E657220697320746865207A65726F2061 PUSH1 0x0 DUP3 ADD MSTORE PUSH32 0x6464726573730000000000000000000000000000000000000000000000000000 PUSH1 0x20 DUP3 ADD MSTORE POP JUMP JUMPDEST PUSH32 0x2F746F6B656E2D00000000000000000000000000000000000000000000000000 PUSH1 0x0 DUP3 ADD MSTORE POP JUMP JUMPDEST PUSH32 0x4552433732313A207472616E736665722066726F6D20696E636F727265637420 PUSH1 0x0 DUP3 ADD MSTORE PUSH32 0x6F776E6572000000000000000000000000000000000000000000000000000000 PUSH1 0x20 DUP3 ADD MSTORE POP JUMP JUMPDEST PUSH32 0x4552433732313A20746F6B656E20616C7265616479206D696E74656400000000 PUSH1 0x0 DUP3 ADD MSTORE POP JUMP JUMPDEST PUSH32 0x496E73756666696369656E7420696E7075742062616C616E6365202830290000 PUSH1 0x0 DUP3 ADD MSTORE POP JUMP JUMPDEST PUSH32 0x4661696C656420746F2073656E64204574686572000000000000000000000000 PUSH1 0x0 DUP3 ADD MSTORE POP JUMP JUMPDEST PUSH32 0x4552433732313A207472616E7366657220746F20746865207A65726F20616464 PUSH1 0x0 DUP3 ADD MSTORE PUSH32 0x7265737300000000000000000000000000000000000000000000000000000000 PUSH1 0x20 DUP3 ADD MSTORE POP JUMP JUMPDEST PUSH32 0x4552433732313A20617070726F766520746F2063616C6C657200000000000000 PUSH1 0x0 DUP3 ADD MSTORE POP JUMP JUMPDEST PUSH32 0x4E6F20746F6B656E7320726573657276656420666F7220796F75722061646472 PUSH1 0x0 DUP3 ADD MSTORE PUSH32 0x6573730000000000000000000000000000000000000000000000000000000000 PUSH1 0x20 DUP3 ADD MSTORE POP JUMP JUMPDEST PUSH32 0x4552433732313A2061646472657373207A65726F206973206E6F742061207661 PUSH1 0x0 DUP3 ADD MSTORE PUSH32 0x6C6964206F776E65720000000000000000000000000000000000000000000000 PUSH1 0x20 DUP3 ADD MSTORE POP JUMP JUMPDEST PUSH32 0x4E6F7420696E2070726573616C65000000000000000000000000000000000000 PUSH1 0x0 DUP3 ADD MSTORE POP JUMP JUMPDEST PUSH32 0x53616C65732061726520636C6F73656400000000000000000000000000000000 PUSH1 0x0 DUP3 ADD MSTORE POP JUMP JUMPDEST PUSH32 0x4552433732313A20617070726F76652063616C6C6572206973206E6F7420746F PUSH1 0x0 DUP3 ADD MSTORE PUSH32 0x6B656E206F776E6572206E6F7220617070726F76656420666F7220616C6C0000 PUSH1 0x20 DUP3 ADD MSTORE POP JUMP JUMPDEST PUSH32 0x4552433732313A206D696E7420746F20746865207A65726F2061646472657373 PUSH1 0x0 DUP3 ADD MSTORE POP JUMP JUMPDEST PUSH32 0x496E73756666696369656E7420726573657276656420746F6B656E7320666F72 PUSH1 0x0 DUP3 ADD MSTORE PUSH32 0x20796F7572206164647265737300000000000000000000000000000000000000 PUSH1 0x20 DUP3 ADD MSTORE POP JUMP JUMPDEST PUSH32 0x4F776E61626C653A2063616C6C6572206973206E6F7420746865206F776E6572 PUSH1 0x0 DUP3 ADD MSTORE POP JUMP JUMPDEST PUSH32 0x546F6B656E20737570706C7920696E737566666963656E7420666F7220746865 PUSH1 0x0 DUP3 ADD MSTORE PUSH32 0x20676976656E20636F756E740000000000000000000000000000000000000000 PUSH1 0x20 DUP3 ADD MSTORE POP JUMP JUMPDEST PUSH32 0x4552433732313A20696E76616C696420746F6B656E2049440000000000000000 PUSH1 0x0 DUP3 ADD MSTORE POP JUMP JUMPDEST PUSH32 0x4552433732313A20617070726F76616C20746F2063757272656E74206F776E65 PUSH1 0x0 DUP3 ADD MSTORE PUSH32 0x7200000000000000000000000000000000000000000000000000000000000000 PUSH1 0x20 DUP3 ADD MSTORE POP JUMP JUMPDEST PUSH32 0x496E73756666696369656E7420696E7075742062616C616E63652C206D757374 PUSH1 0x0 DUP3 ADD MSTORE PUSH32 0x206265203E207072696365000000000000000000000000000000000000000000 PUSH1 0x20 DUP3 ADD MSTORE POP JUMP JUMPDEST PUSH32 0x4552433732313A2063616C6C6572206973206E6F7420746F6B656E206F776E65 PUSH1 0x0 DUP3 ADD MSTORE PUSH32 0x72206E6F7220617070726F766564000000000000000000000000000000000000 PUSH1 0x20 DUP3 ADD MSTORE POP JUMP JUMPDEST PUSH32 0x546F6B656E20737570706C79206C696D69742072656163686564000000000000 PUSH1 0x0 DUP3 ADD MSTORE POP JUMP JUMPDEST PUSH2 0x4257 DUP2 PUSH2 0x39F3 JUMP JUMPDEST DUP2 EQ PUSH2 0x4262 JUMPI PUSH1 0x0 DUP1 REVERT JUMPDEST POP JUMP JUMPDEST PUSH2 0x426E DUP2 PUSH2 0x3A05 JUMP JUMPDEST DUP2 EQ PUSH2 0x4279 JUMPI PUSH1 0x0 DUP1 REVERT JUMPDEST POP JUMP JUMPDEST PUSH2 0x4285 DUP2 PUSH2 0x3A11 JUMP JUMPDEST DUP2 EQ PUSH2 0x4290 JUMPI PUSH1 0x0 DUP1 REVERT JUMPDEST POP JUMP JUMPDEST PUSH2 0x429C DUP2 PUSH2 0x3A5D JUMP JUMPDEST DUP2 EQ PUSH2 0x42A7 JUMPI PUSH1 0x0 DUP1 REVERT JUMPDEST POP JUMP JUMPDEST PUSH2 0x42B3 DUP2 PUSH2 0x3A67 JUMP JUMPDEST DUP2 EQ PUSH2 0x42BE JUMPI PUSH1 0x0 DUP1 REVERT JUMPDEST POP JUMP INVALID LOG2 PUSH5 0x6970667358 0x22 SLT KECCAK256 DUP13 0xB8 SWAP12 DUP15 BASEFEE CHAINID 0x5D 0xB2 0xDA 0xE1 CALLDATASIZE CREATE2 SSTORE DUP6 0xE7 CALLVALUE 0x2D SWAP6 PC 0xB0 0xBF PUSH1 0xEC 0x4D 0xE ISZERO 0xAA BYTE SWAP14 PUSH6 0x561764736F6C PUSH4 0x43000807 STOP CALLER "
		},
		"gasEstimates": {
			"creation": {
				"codeDepositCost": "3428600",
				"executionCost": "infinite",
				"totalCost": "infinite"
			},
			"external": {
				"": "infinite",
				"_base()": "infinite",
				"approve(address,uint256)": "infinite",
				"awardToken(address)": "infinite",
				"awardTokens(uint256,address)": "infinite",
				"balanceOf(address)": "2990",
				"buyPresaleTokens(uint256)": "infinite",
				"buyToken()": "infinite",
				"getApproved(uint256)": "5302",
				"getPresaleAllowance(address)": "2885",
				"getPrice()": "2570",
				"getSaleState()": "2617",
				"getSupply()": "2526",
				"getTokenCount()": "2532",
				"isApprovedForAll(address,address)": "infinite",
				"isWhitelisted(address)": "2987",
				"isWhitelisted(address,uint256)": "3141",
				"name()": "infinite",
				"owner()": "2589",
				"ownerOf(uint256)": "3026",
				"renounceOwnership()": "30531",
				"safeTransferFrom(address,address,uint256)": "infinite",
				"safeTransferFrom(address,address,uint256,bytes)": "infinite",
				"setApprovalForAll(address,bool)": "infinite",
				"setBaseURI(string)": "infinite",
				"setPresaleAllowance(address,uint256)": "25141",
				"setPresaleAllowances(address[],uint256)": "infinite",
				"setPrice(uint256)": "24873",
				"setSaleState(uint8)": "27040",
				"setSupply(uint256)": "24830",
				"supply()": "2498",
				"supportsInterface(bytes4)": "820",
				"symbol()": "infinite",
				"tokenPrice()": "2497",
				"tokenURI(uint256)": "infinite",
				"transferFrom(address,address,uint256)": "infinite",
				"transferOwnership(address)": "30879"
			},
			"internal": {
				"_baseURI()": "infinite"
			}
		},
		"methodIdentifiers": {
			"_base()": "3ce68dd5",
			"approve(address,uint256)": "095ea7b3",
			"awardToken(address)": "dba98e5b",
			"awardTokens(uint256,address)": "16a1abb4",
			"balanceOf(address)": "70a08231",
			"buyPresaleTokens(uint256)": "83b2d174",
			"buyToken()": "a4821719",
			"getApproved(uint256)": "081812fc",
			"getPresaleAllowance(address)": "c313b339",
			"getPrice()": "98d5fdca",
			"getSaleState()": "25bdb2a8",
			"getSupply()": "6c9c2faf",
			"getTokenCount()": "78a89567",
			"isApprovedForAll(address,address)": "e985e9c5",
			"isWhitelisted(address)": "3af32abf",
			"isWhitelisted(address,uint256)": "830639ac",
			"name()": "06fdde03",
			"owner()": "8da5cb5b",
			"ownerOf(uint256)": "6352211e",
			"renounceOwnership()": "715018a6",
			"safeTransferFrom(address,address,uint256)": "42842e0e",
			"safeTransferFrom(address,address,uint256,bytes)": "b88d4fde",
			"setApprovalForAll(address,bool)": "a22cb465",
			"setBaseURI(string)": "55f804b3",
			"setPresaleAllowance(address,uint256)": "a152e361",
			"setPresaleAllowances(address[],uint256)": "80a9dc0f",
			"setPrice(uint256)": "91b7f5ed",
			"setSaleState(uint8)": "5a67de07",
			"setSupply(uint256)": "3b4c4b25",
			"supply()": "047fc9aa",
			"supportsInterface(bytes4)": "01ffc9a7",
			"symbol()": "95d89b41",
			"tokenPrice()": "7ff9b596",
			"tokenURI(uint256)": "c87b56dd",
			"transferFrom(address,address,uint256)": "23b872dd",
			"transferOwnership(address)": "f2fde38b"
		}
	},
	"abi": [
		{
			"inputs": [
				{
					"internalType": "uint256",
					"name": "_projectId",
					"type": "uint256"
				}
			],
			"stateMutability": "nonpayable",
			"type": "constructor"
		},
		{
			"anonymous": false,
			"inputs": [
				{
					"indexed": true,
					"internalType": "address",
					"name": "owner",
					"type": "address"
				},
				{
					"indexed": true,
					"internalType": "address",
					"name": "approved",
					"type": "address"
				},
				{
					"indexed": true,
					"internalType": "uint256",
					"name": "tokenId",
					"type": "uint256"
				}
			],
			"name": "Approval",
			"type": "event"
		},
		{
			"anonymous": false,
			"inputs": [
				{
					"indexed": true,
					"internalType": "address",
					"name": "owner",
					"type": "address"
				},
				{
					"indexed": true,
					"internalType": "address",
					"name": "operator",
					"type": "address"
				},
				{
					"indexed": false,
					"internalType": "bool",
					"name": "approved",
					"type": "bool"
				}
			],
			"name": "ApprovalForAll",
			"type": "event"
		},
		{
			"anonymous": false,
			"inputs": [
				{
					"indexed": true,
					"internalType": "address",
					"name": "previousOwner",
					"type": "address"
				},
				{
					"indexed": true,
					"internalType": "address",
					"name": "newOwner",
					"type": "address"
				}
			],
			"name": "OwnershipTransferred",
			"type": "event"
		},
		{
			"anonymous": false,
			"inputs": [
				{
					"indexed": true,
					"internalType": "address",
					"name": "from",
					"type": "address"
				},
				{
					"indexed": true,
					"internalType": "address",
					"name": "to",
					"type": "address"
				},
				{
					"indexed": true,
					"internalType": "uint256",
					"name": "tokenId",
					"type": "uint256"
				}
			],
			"name": "Transfer",
			"type": "event"
		},
		{
			"stateMutability": "payable",
			"type": "fallback"
		},
		{
			"inputs": [],
			"name": "_base",
			"outputs": [
				{
					"internalType": "string",
					"name": "",
					"type": "string"
				}
			],
			"stateMutability": "view",
			"type": "function"
		},
		{
			"inputs": [
				{
					"internalType": "address",
					"name": "to",
					"type": "address"
				},
				{
					"internalType": "uint256",
					"name": "tokenId",
					"type": "uint256"
				}
			],
			"name": "approve",
			"outputs": [],
			"stateMutability": "nonpayable",
			"type": "function"
		},
		{
			"inputs": [
				{
					"internalType": "address",
					"name": "_to",
					"type": "address"
				}
			],
			"name": "awardToken",
			"outputs": [
				{
					"internalType": "uint256",
					"name": "",
					"type": "uint256"
				}
			],
			"stateMutability": "nonpayable",
			"type": "function"
		},
		{
			"inputs": [
				{
					"internalType": "uint256",
					"name": "_count",
					"type": "uint256"
				},
				{
					"internalType": "address",
					"name": "_to",
					"type": "address"
				}
			],
			"name": "awardTokens",
			"outputs": [
				{
					"internalType": "uint256[]",
					"name": "",
					"type": "uint256[]"
				}
			],
			"stateMutability": "nonpayable",
			"type": "function"
		},
		{
			"inputs": [
				{
					"internalType": "address",
					"name": "owner",
					"type": "address"
				}
			],
			"name": "balanceOf",
			"outputs": [
				{
					"internalType": "uint256",
					"name": "",
					"type": "uint256"
				}
			],
			"stateMutability": "view",
			"type": "function"
		},
		{
			"inputs": [
				{
					"internalType": "uint256",
					"name": "_count",
					"type": "uint256"
				}
			],
			"name": "buyPresaleTokens",
			"outputs": [],
			"stateMutability": "payable",
			"type": "function"
		},
		{
			"inputs": [],
			"name": "buyToken",
			"outputs": [],
			"stateMutability": "payable",
			"type": "function"
		},
		{
			"inputs": [
				{
					"internalType": "uint256",
					"name": "tokenId",
					"type": "uint256"
				}
			],
			"name": "getApproved",
			"outputs": [
				{
					"internalType": "address",
					"name": "",
					"type": "address"
				}
			],
			"stateMutability": "view",
			"type": "function"
		},
		{
			"inputs": [
				{
					"internalType": "address",
					"name": "_to",
					"type": "address"
				}
			],
			"name": "getPresaleAllowance",
			"outputs": [
				{
					"internalType": "uint256",
					"name": "",
					"type": "uint256"
				}
			],
			"stateMutability": "view",
			"type": "function"
		},
		{
			"inputs": [],
			"name": "getPrice",
			"outputs": [
				{
					"internalType": "uint256",
					"name": "",
					"type": "uint256"
				}
			],
			"stateMutability": "view",
			"type": "function"
		},
		{
			"inputs": [],
			"name": "getSaleState",
			"outputs": [
				{
					"internalType": "uint8",
					"name": "",
					"type": "uint8"
				}
			],
			"stateMutability": "view",
			"type": "function"
		},
		{
			"inputs": [],
			"name": "getSupply",
			"outputs": [
				{
					"internalType": "uint256",
					"name": "",
					"type": "uint256"
				}
			],
			"stateMutability": "view",
			"type": "function"
		},
		{
			"inputs": [],
			"name": "getTokenCount",
			"outputs": [
				{
					"internalType": "uint256",
					"name": "",
					"type": "uint256"
				}
			],
			"stateMutability": "view",
			"type": "function"
		},
		{
			"inputs": [
				{
					"internalType": "address",
					"name": "owner",
					"type": "address"
				},
				{
					"internalType": "address",
					"name": "operator",
					"type": "address"
				}
			],
			"name": "isApprovedForAll",
			"outputs": [
				{
					"internalType": "bool",
					"name": "",
					"type": "bool"
				}
			],
			"stateMutability": "view",
			"type": "function"
		},
		{
			"inputs": [
				{
					"internalType": "address",
					"name": "_account",
					"type": "address"
				}
			],
			"name": "isWhitelisted",
			"outputs": [
				{
					"internalType": "bool",
					"name": "",
					"type": "bool"
				}
			],
			"stateMutability": "view",
			"type": "function"
		},
		{
			"inputs": [
				{
					"internalType": "address",
					"name": "_account",
					"type": "address"
				},
				{
					"internalType": "uint256",
					"name": "_count",
					"type": "uint256"
				}
			],
			"name": "isWhitelisted",
			"outputs": [
				{
					"internalType": "bool",
					"name": "",
					"type": "bool"
				}
			],
			"stateMutability": "view",
			"type": "function"
		},
		{
			"inputs": [],
			"name": "name",
			"outputs": [
				{
					"internalType": "string",
					"name": "",
					"type": "string"
				}
			],
			"stateMutability": "view",
			"type": "function"
		},
		{
			"inputs": [],
			"name": "owner",
			"outputs": [
				{
					"internalType": "address",
					"name": "",
					"type": "address"
				}
			],
			"stateMutability": "view",
			"type": "function"
		},
		{
			"inputs": [
				{
					"internalType": "uint256",
					"name": "tokenId",
					"type": "uint256"
				}
			],
			"name": "ownerOf",
			"outputs": [
				{
					"internalType": "address",
					"name": "",
					"type": "address"
				}
			],
			"stateMutability": "view",
			"type": "function"
		},
		{
			"inputs": [],
			"name": "renounceOwnership",
			"outputs": [],
			"stateMutability": "nonpayable",
			"type": "function"
		},
		{
			"inputs": [
				{
					"internalType": "address",
					"name": "from",
					"type": "address"
				},
				{
					"internalType": "address",
					"name": "to",
					"type": "address"
				},
				{
					"internalType": "uint256",
					"name": "tokenId",
					"type": "uint256"
				}
			],
			"name": "safeTransferFrom",
			"outputs": [],
			"stateMutability": "nonpayable",
			"type": "function"
		},
		{
			"inputs": [
				{
					"internalType": "address",
					"name": "from",
					"type": "address"
				},
				{
					"internalType": "address",
					"name": "to",
					"type": "address"
				},
				{
					"internalType": "uint256",
					"name": "tokenId",
					"type": "uint256"
				},
				{
					"internalType": "bytes",
					"name": "data",
					"type": "bytes"
				}
			],
			"name": "safeTransferFrom",
			"outputs": [],
			"stateMutability": "nonpayable",
			"type": "function"
		},
		{
			"inputs": [
				{
					"internalType": "address",
					"name": "operator",
					"type": "address"
				},
				{
					"internalType": "bool",
					"name": "approved",
					"type": "bool"
				}
			],
			"name": "setApprovalForAll",
			"outputs": [],
			"stateMutability": "nonpayable",
			"type": "function"
		},
		{
			"inputs": [
				{
					"internalType": "string",
					"name": "_uri",
					"type": "string"
				}
			],
			"name": "setBaseURI",
			"outputs": [],
			"stateMutability": "nonpayable",
			"type": "function"
		},
		{
			"inputs": [
				{
					"internalType": "address",
					"name": "_to",
					"type": "address"
				},
				{
					"internalType": "uint256",
					"name": "_allowance",
					"type": "uint256"
				}
			],
			"name": "setPresaleAllowance",
			"outputs": [],
			"stateMutability": "nonpayable",
			"type": "function"
		},
		{
			"inputs": [
				{
					"internalType": "address[]",
					"name": "_to",
					"type": "address[]"
				},
				{
					"internalType": "uint256",
					"name": "_allowance",
					"type": "uint256"
				}
			],
			"name": "setPresaleAllowances",
			"outputs": [],
			"stateMutability": "nonpayable",
			"type": "function"
		},
		{
			"inputs": [
				{
					"internalType": "uint256",
					"name": "_price",
					"type": "uint256"
				}
			],
			"name": "setPrice",
			"outputs": [],
			"stateMutability": "nonpayable",
			"type": "function"
		},
		{
			"inputs": [
				{
					"internalType": "uint8",
					"name": "_state",
					"type": "uint8"
				}
			],
			"name": "setSaleState",
			"outputs": [],
			"stateMutability": "nonpayable",
			"type": "function"
		},
		{
			"inputs": [
				{
					"internalType": "uint256",
					"name": "_supply",
					"type": "uint256"
				}
			],
			"name": "setSupply",
			"outputs": [],
			"stateMutability": "nonpayable",
			"type": "function"
		},
		{
			"inputs": [],
			"name": "supply",
			"outputs": [
				{
					"internalType": "uint256",
					"name": "",
					"type": "uint256"
				}
			],
			"stateMutability": "view",
			"type": "function"
		},
		{
			"inputs": [
				{
					"internalType": "bytes4",
					"name": "interfaceId",
					"type": "bytes4"
				}
			],
			"name": "supportsInterface",
			"outputs": [
				{
					"internalType": "bool",
					"name": "",
					"type": "bool"
				}
			],
			"stateMutability": "view",
			"type": "function"
		},
		{
			"inputs": [],
			"name": "symbol",
			"outputs": [
				{
					"internalType": "string",
					"name": "",
					"type": "string"
				}
			],
			"stateMutability": "view",
			"type": "function"
		},
		{
			"inputs": [],
			"name": "tokenPrice",
			"outputs": [
				{
					"internalType": "uint256",
					"name": "",
					"type": "uint256"
				}
			],
			"stateMutability": "view",
			"type": "function"
		},
		{
			"inputs": [
				{
					"internalType": "uint256",
					"name": "tokenId",
					"type": "uint256"
				}
			],
			"name": "tokenURI",
			"outputs": [
				{
					"internalType": "string",
					"name": "",
					"type": "string"
				}
			],
			"stateMutability": "view",
			"type": "function"
		},
		{
			"inputs": [
				{
					"internalType": "address",
					"name": "from",
					"type": "address"
				},
				{
					"internalType": "address",
					"name": "to",
					"type": "address"
				},
				{
					"internalType": "uint256",
					"name": "tokenId",
					"type": "uint256"
				}
			],
			"name": "transferFrom",
			"outputs": [],
			"stateMutability": "nonpayable",
			"type": "function"
		},
		{
			"inputs": [
				{
					"internalType": "address",
					"name": "newOwner",
					"type": "address"
				}
			],
			"name": "transferOwnership",
			"outputs": [],
			"stateMutability": "nonpayable",
			"type": "function"
		}
	]
}