{
	"data": {
		"bytecode": {
			"linkReferences": {},
			"object": "608060405234801561001057600080fd5b50336000806101000a81548173ffffffffffffffffffffffffffffffffffffffff021916908373ffffffffffffffffffffffffffffffffffffffff1602179055506106c5806100606000396000f3fe60806040526004361061001e5760003560e01c80634956eaf014610023575b600080fd5b61003d600480360381019061003891906100f9565b61003f565b005b60005b818110156100bd5766b1a2bc2ec500008360008054906101000a900473ffffffffffffffffffffffffffffffffffffffff16604051610080906100c2565b61008b929190610148565b6040518091039082f09050801580156100a8573d6000803e3d6000fd5b505080806100b5906101ad565b915050610042565b505050565b6104378061025983390190565b6000813590506100de8161022a565b92915050565b6000813590506100f381610241565b92915050565b600080604083850312156101105761010f610225565b5b600061011e858286016100cf565b925050602061012f858286016100e4565b9150509250929050565b61014281610171565b82525050565b600060408201905061015d6000830185610139565b61016a6020830184610139565b9392505050565b600061017c82610183565b9050919050565b600073ffffffffffffffffffffffffffffffffffffffff82169050919050565b6000819050919050565b60006101b8826101a3565b91507fffffffffffffffffffffffffffffffffffffffffffffffffffffffffffffffff8214156101eb576101ea6101f6565b5b600182019050919050565b7f4e487b7100000000000000000000000000000000000000000000000000000000600052601160045260246000fd5b600080fd5b61023381610171565b811461023e57600080fd5b50565b61024a816101a3565b811461025557600080fd5b5056fe6080604052604051610437380380610437833981810160405281019061002591906101fb565b60008273ffffffffffffffffffffffffffffffffffffffff166318160ddd6040518163ffffffff1660e01b815260040160206040518083038186803b15801561006d57600080fd5b505afa158015610081573d6000803e3d6000fd5b505050506040513d601f19601f820116820180604052508101906100a5919061023b565b90508273ffffffffffffffffffffffffffffffffffffffff1663a0712d6866b1a2bc2ec5000060056040518363ffffffff1660e01b81526004016100e991906102cc565b6000604051808303818588803b15801561010257600080fd5b505af1158015610116573d6000803e3d6000fd5b50505050506000600190505b600581116101b7578373ffffffffffffffffffffffffffffffffffffffff166323b872dd3085848661015491906102e7565b6040518463ffffffff1660e01b815260040161017293929190610295565b600060405180830381600087803b15801561018c57600080fd5b505af11580156101a0573d6000803e3d6000fd5b5050505080806101af9061038b565b915050610122565b508173ffffffffffffffffffffffffffffffffffffffff16ff5b6000815190506101e081610408565b92915050565b6000815190506101f58161041f565b92915050565b6000806040838503121561021257610211610403565b5b6000610220858286016101d1565b9250506020610231858286016101d1565b9150509250929050565b60006020828403121561025157610250610403565b5b600061025f848285016101e6565b91505092915050565b6102718161033d565b82525050565b61028081610379565b82525050565b61028f8161036f565b82525050565b60006060820190506102aa6000830186610268565b6102b76020830185610268565b6102c46040830184610286565b949350505050565b60006020820190506102e16000830184610277565b92915050565b60006102f28261036f565b91506102fd8361036f565b9250827fffffffffffffffffffffffffffffffffffffffffffffffffffffffffffffffff03821115610332576103316103d4565b5b828201905092915050565b60006103488261034f565b9050919050565b600073ffffffffffffffffffffffffffffffffffffffff82169050919050565b6000819050919050565b60006103848261036f565b9050919050565b60006103968261036f565b91507fffffffffffffffffffffffffffffffffffffffffffffffffffffffffffffffff8214156103c9576103c86103d4565b5b600182019050919050565b7f4e487b7100000000000000000000000000000000000000000000000000000000600052601160045260246000fd5b600080fd5b6104118161033d565b811461041c57600080fd5b50565b6104288161036f565b811461043357600080fd5b5056fea26469706673582212203be2737c307336321a8966a2e43efd578141749ba4a07f7eb88f6768b82a026364736f6c63430008070033",
			"opcodes": "PUSH1 0x80 PUSH1 0x40 MSTORE CALLVALUE DUP1 ISZERO PUSH2 0x10 JUMPI PUSH1 0x0 DUP1 REVERT JUMPDEST POP CALLER PUSH1 0x0 DUP1 PUSH2 0x100 EXP DUP2 SLOAD DUP2 PUSH20 0xFFFFFFFFFFFFFFFFFFFFFFFFFFFFFFFFFFFFFFFF MUL NOT AND SWAP1 DUP4 PUSH20 0xFFFFFFFFFFFFFFFFFFFFFFFFFFFFFFFFFFFFFFFF AND MUL OR SWAP1 SSTORE POP PUSH2 0x6C5 DUP1 PUSH2 0x60 PUSH1 0x0 CODECOPY PUSH1 0x0 RETURN INVALID PUSH1 0x80 PUSH1 0x40 MSTORE PUSH1 0x4 CALLDATASIZE LT PUSH2 0x1E JUMPI PUSH1 0x0 CALLDATALOAD PUSH1 0xE0 SHR DUP1 PUSH4 0x4956EAF0 EQ PUSH2 0x23 JUMPI JUMPDEST PUSH1 0x0 DUP1 REVERT JUMPDEST PUSH2 0x3D PUSH1 0x4 DUP1 CALLDATASIZE SUB DUP2 ADD SWAP1 PUSH2 0x38 SWAP2 SWAP1 PUSH2 0xF9 JUMP JUMPDEST PUSH2 0x3F JUMP JUMPDEST STOP JUMPDEST PUSH1 0x0 JUMPDEST DUP2 DUP2 LT ISZERO PUSH2 0xBD JUMPI PUSH7 0xB1A2BC2EC50000 DUP4 PUSH1 0x0 DUP1 SLOAD SWAP1 PUSH2 0x100 EXP SWAP1 DIV PUSH20 0xFFFFFFFFFFFFFFFFFFFFFFFFFFFFFFFFFFFFFFFF AND PUSH1 0x40 MLOAD PUSH2 0x80 SWAP1 PUSH2 0xC2 JUMP JUMPDEST PUSH2 0x8B SWAP3 SWAP2 SWAP1 PUSH2 0x148 JUMP JUMPDEST PUSH1 0x40 MLOAD DUP1 SWAP2 SUB SWAP1 DUP3 CREATE SWAP1 POP DUP1 ISZERO DUP1 ISZERO PUSH2 0xA8 JUMPI RETURNDATASIZE PUSH1 0x0 DUP1 RETURNDATACOPY RETURNDATASIZE PUSH1 0x0 REVERT JUMPDEST POP POP DUP1 DUP1 PUSH2 0xB5 SWAP1 PUSH2 0x1AD JUMP JUMPDEST SWAP2 POP POP PUSH2 0x42 JUMP JUMPDEST POP POP POP JUMP JUMPDEST PUSH2 0x437 DUP1 PUSH2 0x259 DUP4 CODECOPY ADD SWAP1 JUMP JUMPDEST PUSH1 0x0 DUP2 CALLDATALOAD SWAP1 POP PUSH2 0xDE DUP2 PUSH2 0x22A JUMP JUMPDEST SWAP3 SWAP2 POP POP JUMP JUMPDEST PUSH1 0x0 DUP2 CALLDATALOAD SWAP1 POP PUSH2 0xF3 DUP2 PUSH2 0x241 JUMP JUMPDEST SWAP3 SWAP2 POP POP JUMP JUMPDEST PUSH1 0x0 DUP1 PUSH1 0x40 DUP4 DUP6 SUB SLT ISZERO PUSH2 0x110 JUMPI PUSH2 0x10F PUSH2 0x225 JUMP JUMPDEST JUMPDEST PUSH1 0x0 PUSH2 0x11E DUP6 DUP3 DUP7 ADD PUSH2 0xCF JUMP JUMPDEST SWAP3 POP POP PUSH1 0x20 PUSH2 0x12F DUP6 DUP3 DUP7 ADD PUSH2 0xE4 JUMP JUMPDEST SWAP2 POP POP SWAP3 POP SWAP3 SWAP1 POP JUMP JUMPDEST PUSH2 0x142 DUP2 PUSH2 0x171 JUMP JUMPDEST DUP3 MSTORE POP POP JUMP JUMPDEST PUSH1 0x0 PUSH1 0x40 DUP3 ADD SWAP1 POP PUSH2 0x15D PUSH1 0x0 DUP4 ADD DUP6 PUSH2 0x139 JUMP JUMPDEST PUSH2 0x16A PUSH1 0x20 DUP4 ADD DUP5 PUSH2 0x139 JUMP JUMPDEST SWAP4 SWAP3 POP POP POP JUMP JUMPDEST PUSH1 0x0 PUSH2 0x17C DUP3 PUSH2 0x183 JUMP JUMPDEST SWAP1 POP SWAP2 SWAP1 POP JUMP JUMPDEST PUSH1 0x0 PUSH20 0xFFFFFFFFFFFFFFFFFFFFFFFFFFFFFFFFFFFFFFFF DUP3 AND SWAP1 POP SWAP2 SWAP1 POP JUMP JUMPDEST PUSH1 0x0 DUP2 SWAP1 POP SWAP2 SWAP1 POP JUMP JUMPDEST PUSH1 0x0 PUSH2 0x1B8 DUP3 PUSH2 0x1A3 JUMP JUMPDEST SWAP2 POP PUSH32 0xFFFFFFFFFFFFFFFFFFFFFFFFFFFFFFFFFFFFFFFFFFFFFFFFFFFFFFFFFFFFFFFF DUP3 EQ ISZERO PUSH2 0x1EB JUMPI PUSH2 0x1EA PUSH2 0x1F6 JUMP JUMPDEST JUMPDEST PUSH1 0x1 DUP3 ADD SWAP1 POP SWAP2 SWAP1 POP JUMP JUMPDEST PUSH32 0x4E487B7100000000000000000000000000000000000000000000000000000000 PUSH1 0x0 MSTORE PUSH1 0x11 PUSH1 0x4 MSTORE PUSH1 0x24 PUSH1 0x0 REVERT JUMPDEST PUSH1 0x0 DUP1 REVERT JUMPDEST PUSH2 0x233 DUP2 PUSH2 0x171 JUMP JUMPDEST DUP2 EQ PUSH2 0x23E JUMPI PUSH1 0x0 DUP1 REVERT JUMPDEST POP JUMP JUMPDEST PUSH2 0x24A DUP2 PUSH2 0x1A3 JUMP JUMPDEST DUP2 EQ PUSH2 0x255 JUMPI PUSH1 0x0 DUP1 REVERT JUMPDEST POP JUMP INVALID PUSH1 0x80 PUSH1 0x40 MSTORE PUSH1 0x40 MLOAD PUSH2 0x437 CODESIZE SUB DUP1 PUSH2 0x437 DUP4 CODECOPY DUP2 DUP2 ADD PUSH1 0x40 MSTORE DUP2 ADD SWAP1 PUSH2 0x25 SWAP2 SWAP1 PUSH2 0x1FB JUMP JUMPDEST PUSH1 0x0 DUP3 PUSH20 0xFFFFFFFFFFFFFFFFFFFFFFFFFFFFFFFFFFFFFFFF AND PUSH4 0x18160DDD PUSH1 0x40 MLOAD DUP2 PUSH4 0xFFFFFFFF AND PUSH1 0xE0 SHL DUP2 MSTORE PUSH1 0x4 ADD PUSH1 0x20 PUSH1 0x40 MLOAD DUP1 DUP4 SUB DUP2 DUP7 DUP1 EXTCODESIZE ISZERO DUP1 ISZERO PUSH2 0x6D JUMPI PUSH1 0x0 DUP1 REVERT JUMPDEST POP GAS STATICCALL ISZERO DUP1 ISZERO PUSH2 0x81 JUMPI RETURNDATASIZE PUSH1 0x0 DUP1 RETURNDATACOPY RETURNDATASIZE PUSH1 0x0 REVERT JUMPDEST POP POP POP POP PUSH1 0x40 MLOAD RETURNDATASIZE PUSH1 0x1F NOT PUSH1 0x1F DUP3 ADD AND DUP3 ADD DUP1 PUSH1 0x40 MSTORE POP DUP2 ADD SWAP1 PUSH2 0xA5 SWAP2 SWAP1 PUSH2 0x23B JUMP JUMPDEST SWAP1 POP DUP3 PUSH20 0xFFFFFFFFFFFFFFFFFFFFFFFFFFFFFFFFFFFFFFFF AND PUSH4 0xA0712D68 PUSH7 0xB1A2BC2EC50000 PUSH1 0x5 PUSH1 0x40 MLOAD DUP4 PUSH4 0xFFFFFFFF AND PUSH1 0xE0 SHL DUP2 MSTORE PUSH1 0x4 ADD PUSH2 0xE9 SWAP2 SWAP1 PUSH2 0x2CC JUMP JUMPDEST PUSH1 0x0 PUSH1 0x40 MLOAD DUP1 DUP4 SUB DUP2 DUP6 DUP9 DUP1 EXTCODESIZE ISZERO DUP1 ISZERO PUSH2 0x102 JUMPI PUSH1 0x0 DUP1 REVERT JUMPDEST POP GAS CALL ISZERO DUP1 ISZERO PUSH2 0x116 JUMPI RETURNDATASIZE PUSH1 0x0 DUP1 RETURNDATACOPY RETURNDATASIZE PUSH1 0x0 REVERT JUMPDEST POP POP POP POP POP PUSH1 0x0 PUSH1 0x1 SWAP1 POP JUMPDEST PUSH1 0x5 DUP2 GT PUSH2 0x1B7 JUMPI DUP4 PUSH20 0xFFFFFFFFFFFFFFFFFFFFFFFFFFFFFFFFFFFFFFFF AND PUSH4 0x23B872DD ADDRESS DUP6 DUP5 DUP7 PUSH2 0x154 SWAP2 SWAP1 PUSH2 0x2E7 JUMP JUMPDEST PUSH1 0x40 MLOAD DUP5 PUSH4 0xFFFFFFFF AND PUSH1 0xE0 SHL DUP2 MSTORE PUSH1 0x4 ADD PUSH2 0x172 SWAP4 SWAP3 SWAP2 SWAP1 PUSH2 0x295 JUMP JUMPDEST PUSH1 0x0 PUSH1 0x40 MLOAD DUP1 DUP4 SUB DUP2 PUSH1 0x0 DUP8 DUP1 EXTCODESIZE ISZERO DUP1 ISZERO PUSH2 0x18C JUMPI PUSH1 0x0 DUP1 REVERT JUMPDEST POP GAS CALL ISZERO DUP1 ISZERO PUSH2 0x1A0 JUMPI RETURNDATASIZE PUSH1 0x0 DUP1 RETURNDATACOPY RETURNDATASIZE PUSH1 0x0 REVERT JUMPDEST POP POP POP POP DUP1 DUP1 PUSH2 0x1AF SWAP1 PUSH2 0x38B JUMP JUMPDEST SWAP2 POP POP PUSH2 0x122 JUMP JUMPDEST POP DUP2 PUSH20 0xFFFFFFFFFFFFFFFFFFFFFFFFFFFFFFFFFFFFFFFF AND SELFDESTRUCT JUMPDEST PUSH1 0x0 DUP2 MLOAD SWAP1 POP PUSH2 0x1E0 DUP2 PUSH2 0x408 JUMP JUMPDEST SWAP3 SWAP2 POP POP JUMP JUMPDEST PUSH1 0x0 DUP2 MLOAD SWAP1 POP PUSH2 0x1F5 DUP2 PUSH2 0x41F JUMP JUMPDEST SWAP3 SWAP2 POP POP JUMP JUMPDEST PUSH1 0x0 DUP1 PUSH1 0x40 DUP4 DUP6 SUB SLT ISZERO PUSH2 0x212 JUMPI PUSH2 0x211 PUSH2 0x403 JUMP JUMPDEST JUMPDEST PUSH1 0x0 PUSH2 0x220 DUP6 DUP3 DUP7 ADD PUSH2 0x1D1 JUMP JUMPDEST SWAP3 POP POP PUSH1 0x20 PUSH2 0x231 DUP6 DUP3 DUP7 ADD PUSH2 0x1D1 JUMP JUMPDEST SWAP2 POP POP SWAP3 POP SWAP3 SWAP1 POP JUMP JUMPDEST PUSH1 0x0 PUSH1 0x20 DUP3 DUP5 SUB SLT ISZERO PUSH2 0x251 JUMPI PUSH2 0x250 PUSH2 0x403 JUMP JUMPDEST JUMPDEST PUSH1 0x0 PUSH2 0x25F DUP5 DUP3 DUP6 ADD PUSH2 0x1E6 JUMP JUMPDEST SWAP2 POP POP SWAP3 SWAP2 POP POP JUMP JUMPDEST PUSH2 0x271 DUP2 PUSH2 0x33D JUMP JUMPDEST DUP3 MSTORE POP POP JUMP JUMPDEST PUSH2 0x280 DUP2 PUSH2 0x379 JUMP JUMPDEST DUP3 MSTORE POP POP JUMP JUMPDEST PUSH2 0x28F DUP2 PUSH2 0x36F JUMP JUMPDEST DUP3 MSTORE POP POP JUMP JUMPDEST PUSH1 0x0 PUSH1 0x60 DUP3 ADD SWAP1 POP PUSH2 0x2AA PUSH1 0x0 DUP4 ADD DUP7 PUSH2 0x268 JUMP JUMPDEST PUSH2 0x2B7 PUSH1 0x20 DUP4 ADD DUP6 PUSH2 0x268 JUMP JUMPDEST PUSH2 0x2C4 PUSH1 0x40 DUP4 ADD DUP5 PUSH2 0x286 JUMP JUMPDEST SWAP5 SWAP4 POP POP POP POP JUMP JUMPDEST PUSH1 0x0 PUSH1 0x20 DUP3 ADD SWAP1 POP PUSH2 0x2E1 PUSH1 0x0 DUP4 ADD DUP5 PUSH2 0x277 JUMP JUMPDEST SWAP3 SWAP2 POP POP JUMP JUMPDEST PUSH1 0x0 PUSH2 0x2F2 DUP3 PUSH2 0x36F JUMP JUMPDEST SWAP2 POP PUSH2 0x2FD DUP4 PUSH2 0x36F JUMP JUMPDEST SWAP3 POP DUP3 PUSH32 0xFFFFFFFFFFFFFFFFFFFFFFFFFFFFFFFFFFFFFFFFFFFFFFFFFFFFFFFFFFFFFFFF SUB DUP3 GT ISZERO PUSH2 0x332 JUMPI PUSH2 0x331 PUSH2 0x3D4 JUMP JUMPDEST JUMPDEST DUP3 DUP3 ADD SWAP1 POP SWAP3 SWAP2 POP POP JUMP JUMPDEST PUSH1 0x0 PUSH2 0x348 DUP3 PUSH2 0x34F JUMP JUMPDEST SWAP1 POP SWAP2 SWAP1 POP JUMP JUMPDEST PUSH1 0x0 PUSH20 0xFFFFFFFFFFFFFFFFFFFFFFFFFFFFFFFFFFFFFFFF DUP3 AND SWAP1 POP SWAP2 SWAP1 POP JUMP JUMPDEST PUSH1 0x0 DUP2 SWAP1 POP SWAP2 SWAP1 POP JUMP JUMPDEST PUSH1 0x0 PUSH2 0x384 DUP3 PUSH2 0x36F JUMP JUMPDEST SWAP1 POP SWAP2 SWAP1 POP JUMP JUMPDEST PUSH1 0x0 PUSH2 0x396 DUP3 PUSH2 0x36F JUMP JUMPDEST SWAP2 POP PUSH32 0xFFFFFFFFFFFFFFFFFFFFFFFFFFFFFFFFFFFFFFFFFFFFFFFFFFFFFFFFFFFFFFFF DUP3 EQ ISZERO PUSH2 0x3C9 JUMPI PUSH2 0x3C8 PUSH2 0x3D4 JUMP JUMPDEST JUMPDEST PUSH1 0x1 DUP3 ADD SWAP1 POP SWAP2 SWAP1 POP JUMP JUMPDEST PUSH32 0x4E487B7100000000000000000000000000000000000000000000000000000000 PUSH1 0x0 MSTORE PUSH1 0x11 PUSH1 0x4 MSTORE PUSH1 0x24 PUSH1 0x0 REVERT JUMPDEST PUSH1 0x0 DUP1 REVERT JUMPDEST PUSH2 0x411 DUP2 PUSH2 0x33D JUMP JUMPDEST DUP2 EQ PUSH2 0x41C JUMPI PUSH1 0x0 DUP1 REVERT JUMPDEST POP JUMP JUMPDEST PUSH2 0x428 DUP2 PUSH2 0x36F JUMP JUMPDEST DUP2 EQ PUSH2 0x433 JUMPI PUSH1 0x0 DUP1 REVERT JUMPDEST POP JUMP INVALID LOG2 PUSH5 0x6970667358 0x22 SLT KECCAK256 EXTCODESIZE 0xE2 PUSH20 0x7C307336321A8966A2E43EFD578141749BA4A07F PUSH31 0xB88F6768B82A026364736F6C63430008070033000000000000000000000000 "
		},
		"gasEstimates": {
			"creation": {
				"codeDepositCost": "346600",
				"executionCost": "24652",
				"totalCost": "371252"
			},
			"external": {
				"deploy(address,uint256)": "infinite"
			}
		},
		"methodIdentifiers": {
			"deploy(address,uint256)": "4956eaf0"
		}
	},
	"abi": [
		{
			"inputs": [],
			"stateMutability": "nonpayable",
			"type": "constructor"
		},
		{
			"inputs": [
				{
					"internalType": "address",
					"name": "ERC721",
					"type": "address"
				},
				{
					"internalType": "uint256",
					"name": "count",
					"type": "uint256"
				}
			],
			"name": "deploy",
			"outputs": [],
			"stateMutability": "payable",
			"type": "function"
		}
	]
}