{
	"data": {
		"bytecode": {
			"linkReferences": {},
			"object": "60806040526000600860006101000a81548160ff0219169083151502179055503480156200002c57600080fd5b506040518060400160405280600981526020017f57757449735468697300000000000000000000000000000000000000000000008152506040518060400160405280600481526020017f57495453000000000000000000000000000000000000000000000000000000008152508160009080519060200190620000b1929190620001c1565b508060019080519060200190620000ca929190620001c1565b505050620000ed620000e1620000f360201b60201c565b620000fb60201b60201c565b620002d6565b600033905090565b6000600660009054906101000a900473ffffffffffffffffffffffffffffffffffffffff16905081600660006101000a81548173ffffffffffffffffffffffffffffffffffffffff021916908373ffffffffffffffffffffffffffffffffffffffff1602179055508173ffffffffffffffffffffffffffffffffffffffff168173ffffffffffffffffffffffffffffffffffffffff167f8be0079c531659141344cd1fd0a4f28419497f9722a3daafe3b4186f6b6457e060405160405180910390a35050565b828054620001cf9062000271565b90600052602060002090601f016020900481019282620001f357600085556200023f565b82601f106200020e57805160ff19168380011785556200023f565b828001600101855582156200023f579182015b828111156200023e57825182559160200191906001019062000221565b5b5090506200024e919062000252565b5090565b5b808211156200026d57600081600090555060010162000253565b5090565b600060028204905060018216806200028a57607f821691505b60208210811415620002a157620002a0620002a7565b5b50919050565b7f4e487b7100000000000000000000000000000000000000000000000000000000600052602260045260246000fd5b6132a580620002e66000396000f3fe6080604052600436106101c25760003560e01c80637824407f116100f7578063b88d4fde11610095578063e954670e11610064578063e954670e146105e9578063e985e9c514610614578063eb8d244414610651578063f2fde38b1461067c576101c2565b8063b88d4fde1461052f578063c1f2612314610558578063c87b56dd14610581578063da0239a6146105be576101c2565b806395d89b41116100d157806395d89b41146104855780639d1b464a146104b0578063a22cb465146104db578063b303b07414610504576101c2565b80637824407f146104185780637d8966e4146104435780638da5cb5b1461045a576101c2565b806342842e0e116101645780636352211e1161013e5780636352211e1461035c5780636e92ceae1461039957806370a08231146103c4578063715018a614610401576101c2565b806342842e0e146102f357806355f804b31461031c5780635fd8c71014610345576101c2565b8063095ea7b3116101a0578063095ea7b31461026c5780631249c58b1461029557806323b872dd1461029f57806332cb6b0c146102c8576101c2565b806301ffc9a7146101c757806306fdde0314610204578063081812fc1461022f575b600080fd5b3480156101d357600080fd5b506101ee60048036038101906101e9919061230c565b6106a5565b6040516101fb919061278a565b60405180910390f35b34801561021057600080fd5b50610219610787565b60405161022691906127a5565b60405180910390f35b34801561023b57600080fd5b50610256600480360381019061025191906123af565b610819565b6040516102639190612723565b60405180910390f35b34801561027857600080fd5b50610293600480360381019061028e91906122cc565b61085f565b005b61029d610977565b005b3480156102ab57600080fd5b506102c660048036038101906102c191906121b6565b610a8c565b005b3480156102d457600080fd5b506102dd610aec565b6040516102ea91906129e7565b60405180910390f35b3480156102ff57600080fd5b5061031a600480360381019061031591906121b6565b610af2565b005b34801561032857600080fd5b50610343600480360381019061033e9190612366565b610b12565b005b34801561035157600080fd5b5061035a610b34565b005b34801561036857600080fd5b50610383600480360381019061037e91906123af565b610b85565b6040516103909190612723565b60405180910390f35b3480156103a557600080fd5b506103ae610c37565b6040516103bb91906129e7565b60405180910390f35b3480156103d057600080fd5b506103eb60048036038101906103e69190612149565b610c43565b6040516103f891906129e7565b60405180910390f35b34801561040d57600080fd5b50610416610cfb565b005b34801561042457600080fd5b5061042d610d0f565b60405161043a91906129e7565b60405180910390f35b34801561044f57600080fd5b50610458610d20565b005b34801561046657600080fd5b5061046f610d54565b60405161047c9190612723565b60405180910390f35b34801561049157600080fd5b5061049a610d7e565b6040516104a791906127a5565b60405180910390f35b3480156104bc57600080fd5b506104c5610e10565b6040516104d291906129e7565b60405180910390f35b3480156104e757600080fd5b5061050260048036038101906104fd919061228c565b610e63565b005b34801561051057600080fd5b50610519610e79565b60405161052691906129e7565b60405180910390f35b34801561053b57600080fd5b5061055660048036038101906105519190612209565b610e85565b005b34801561056457600080fd5b5061057f600480360381019061057a91906123af565b610ee7565b005b34801561058d57600080fd5b506105a860048036038101906105a391906123af565b610f87565b6040516105b591906127a5565b60405180910390f35b3480156105ca57600080fd5b506105d3610fef565b6040516105e091906129e7565b60405180910390f35b3480156105f557600080fd5b506105fe61100d565b60405161060b91906129e7565b60405180910390f35b34801561062057600080fd5b5061063b60048036038101906106369190612176565b611019565b604051610648919061278a565b60405180910390f35b34801561065d57600080fd5b506106666110ad565b604051610673919061278a565b60405180910390f35b34801561068857600080fd5b506106a3600480360381019061069e9190612149565b6110c0565b005b60007f80ac58cd000000000000000000000000000000000000000000000000000000007bffffffffffffffffffffffffffffffffffffffffffffffffffffffff1916827bffffffffffffffffffffffffffffffffffffffffffffffffffffffff1916148061077057507f5b5e139f000000000000000000000000000000000000000000000000000000007bffffffffffffffffffffffffffffffffffffffffffffffffffffffff1916827bffffffffffffffffffffffffffffffffffffffffffffffffffffffff1916145b80610780575061077f82611144565b5b9050919050565b60606000805461079690612c3d565b80601f01602080910402602001604051908101604052809291908181526020018280546107c290612c3d565b801561080f5780601f106107e45761010080835404028352916020019161080f565b820191906000526020600020905b8154815290600101906020018083116107f257829003601f168201915b5050505050905090565b6000610824826111ae565b6004600083815260200190815260200160002060009054906101000a900473ffffffffffffffffffffffffffffffffffffffff169050919050565b600061086a82610b85565b90508073ffffffffffffffffffffffffffffffffffffffff168373ffffffffffffffffffffffffffffffffffffffff1614156108db576040517f08c379a00000000000000000000000000000000000000000000000000000000081526004016108d290612967565b60405180910390fd5b8073ffffffffffffffffffffffffffffffffffffffff166108fa6111f9565b73ffffffffffffffffffffffffffffffffffffffff1614806109295750610928816109236111f9565b611019565b5b610968576040517f08c379a000000000000000000000000000000000000000000000000000000000815260040161095f906128e7565b60405180910390fd5b6109728383611201565b505050565b600860009054906101000a900460ff166109c6576040517f08c379a00000000000000000000000000000000000000000000000000000000081526004016109bd906129a7565b60405180910390fd5b600060016109d460076112ba565b6109de9190612acc565b90506101f4811115610a25576040517f08c379a0000000000000000000000000000000000000000000000000000000008152600401610a1c906127c7565b60405180910390fd5b6000610a2f610e10565b905080341015610a74576040517f08c379a0000000000000000000000000000000000000000000000000000000008152600401610a6b90612987565b60405180910390fd5b610a7e60076112c8565b610a8833836112de565b5050565b610a9d610a976111f9565b826112fc565b610adc576040517f08c379a0000000000000000000000000000000000000000000000000000000008152600401610ad3906129c7565b60405180910390fd5b610ae7838383611391565b505050565b6101f481565b610b0d83838360405180602001604052806000815250610e85565b505050565b610b1a6115f8565b8060099080519060200190610b30929190611f5d565b5050565b610b3c6115f8565b3373ffffffffffffffffffffffffffffffffffffffff166108fc479081150290604051600060405180830381858888f19350505050158015610b82573d6000803e3d6000fd5b50565b6000806002600084815260200190815260200160002060009054906101000a900473ffffffffffffffffffffffffffffffffffffffff169050600073ffffffffffffffffffffffffffffffffffffffff168173ffffffffffffffffffffffffffffffffffffffff161415610c2e576040517f08c379a0000000000000000000000000000000000000000000000000000000008152600401610c2590612947565b60405180910390fd5b80915050919050565b6709b6e64a8ec6000081565b60008073ffffffffffffffffffffffffffffffffffffffff168273ffffffffffffffffffffffffffffffffffffffff161415610cb4576040517f08c379a0000000000000000000000000000000000000000000000000000000008152600401610cab906128a7565b60405180910390fd5b600360008373ffffffffffffffffffffffffffffffffffffffff1673ffffffffffffffffffffffffffffffffffffffff168152602001908152602001600020549050919050565b610d036115f8565b610d0d6000611676565b565b6000610d1b60076112ba565b905090565b610d286115f8565b600860009054906101000a900460ff1615600860006101000a81548160ff021916908315150217905550565b6000600660009054906101000a900473ffffffffffffffffffffffffffffffffffffffff16905090565b606060018054610d8d90612c3d565b80601f0160208091040260200160405190810160405280929190818152602001828054610db990612c3d565b8015610e065780601f10610ddb57610100808354040283529160200191610e06565b820191906000526020600020905b815481529060010190602001808311610de957829003601f168201915b5050505050905090565b600080610e1d60076112ba565b90506064811015610e39576706f05b59d3b20000915050610e60565b60fa811015610e5357670853a0d2313c0000915050610e60565b6709b6e64a8ec600009150505b90565b610e75610e6e6111f9565b838361173c565b5050565b6706f05b59d3b2000081565b610e96610e906111f9565b836112fc565b610ed5576040517f08c379a0000000000000000000000000000000000000000000000000000000008152600401610ecc906129c7565b60405180910390fd5b610ee1848484846118a9565b50505050565b610eef6115f8565b6101f481610efd60076112ba565b610f079190612acc565b1115610f48576040517f08c379a0000000000000000000000000000000000000000000000000000000008152600401610f3f906128c7565b60405180910390fd5b60005b81811015610f8357610f5d60076112c8565b610f7033610f6b60076112ba565b6112de565b8080610f7b90612ca0565b915050610f4b565b5050565b6060610f92826111ae565b6000610f9c611905565b90506000815111610fbc5760405180602001604052806000815250610fe7565b80610fc684611997565b604051602001610fd79291906126ff565b6040516020818303038152906040525b915050919050565b6000610ffb60076112ba565b6101f46110089190612b53565b905090565b670853a0d2313c000081565b6000600560008473ffffffffffffffffffffffffffffffffffffffff1673ffffffffffffffffffffffffffffffffffffffff16815260200190815260200160002060008373ffffffffffffffffffffffffffffffffffffffff1673ffffffffffffffffffffffffffffffffffffffff16815260200190815260200160002060009054906101000a900460ff16905092915050565b600860009054906101000a900460ff1681565b6110c86115f8565b600073ffffffffffffffffffffffffffffffffffffffff168173ffffffffffffffffffffffffffffffffffffffff161415611138576040517f08c379a000000000000000000000000000000000000000000000000000000000815260040161112f90612807565b60405180910390fd5b61114181611676565b50565b60007f01ffc9a7000000000000000000000000000000000000000000000000000000007bffffffffffffffffffffffffffffffffffffffffffffffffffffffff1916827bffffffffffffffffffffffffffffffffffffffffffffffffffffffff1916149050919050565b6111b781611af8565b6111f6576040517f08c379a00000000000000000000000000000000000000000000000000000000081526004016111ed90612947565b60405180910390fd5b50565b600033905090565b816004600083815260200190815260200160002060006101000a81548173ffffffffffffffffffffffffffffffffffffffff021916908373ffffffffffffffffffffffffffffffffffffffff160217905550808273ffffffffffffffffffffffffffffffffffffffff1661127483610b85565b73ffffffffffffffffffffffffffffffffffffffff167f8c5be1e5ebec7d5bd14f71427d1e84f3dd0314c0f7b2291e5b200ac8c7c3b92560405160405180910390a45050565b600081600001549050919050565b6001816000016000828254019250508190555050565b6112f8828260405180602001604052806000815250611b64565b5050565b60008061130883610b85565b90508073ffffffffffffffffffffffffffffffffffffffff168473ffffffffffffffffffffffffffffffffffffffff16148061134a57506113498185611019565b5b8061138857508373ffffffffffffffffffffffffffffffffffffffff1661137084610819565b73ffffffffffffffffffffffffffffffffffffffff16145b91505092915050565b8273ffffffffffffffffffffffffffffffffffffffff166113b182610b85565b73ffffffffffffffffffffffffffffffffffffffff1614611407576040517f08c379a00000000000000000000000000000000000000000000000000000000081526004016113fe90612827565b60405180910390fd5b600073ffffffffffffffffffffffffffffffffffffffff168273ffffffffffffffffffffffffffffffffffffffff161415611477576040517f08c379a000000000000000000000000000000000000000000000000000000000815260040161146e90612867565b60405180910390fd5b611482838383611bbf565b61148d600082611201565b6001600360008573ffffffffffffffffffffffffffffffffffffffff1673ffffffffffffffffffffffffffffffffffffffff16815260200190815260200160002060008282546114dd9190612b53565b925050819055506001600360008473ffffffffffffffffffffffffffffffffffffffff1673ffffffffffffffffffffffffffffffffffffffff16815260200190815260200160002060008282546115349190612acc565b92505081905550816002600083815260200190815260200160002060006101000a81548173ffffffffffffffffffffffffffffffffffffffff021916908373ffffffffffffffffffffffffffffffffffffffff160217905550808273ffffffffffffffffffffffffffffffffffffffff168473ffffffffffffffffffffffffffffffffffffffff167fddf252ad1be2c89b69c2b068fc378daa952ba7f163c4a11628f55a4df523b3ef60405160405180910390a46115f3838383611bc4565b505050565b6116006111f9565b73ffffffffffffffffffffffffffffffffffffffff1661161e610d54565b73ffffffffffffffffffffffffffffffffffffffff1614611674576040517f08c379a000000000000000000000000000000000000000000000000000000000815260040161166b90612927565b60405180910390fd5b565b6000600660009054906101000a900473ffffffffffffffffffffffffffffffffffffffff16905081600660006101000a81548173ffffffffffffffffffffffffffffffffffffffff021916908373ffffffffffffffffffffffffffffffffffffffff1602179055508173ffffffffffffffffffffffffffffffffffffffff168173ffffffffffffffffffffffffffffffffffffffff167f8be0079c531659141344cd1fd0a4f28419497f9722a3daafe3b4186f6b6457e060405160405180910390a35050565b8173ffffffffffffffffffffffffffffffffffffffff168373ffffffffffffffffffffffffffffffffffffffff1614156117ab576040517f08c379a00000000000000000000000000000000000000000000000000000000081526004016117a290612887565b60405180910390fd5b80600560008573ffffffffffffffffffffffffffffffffffffffff1673ffffffffffffffffffffffffffffffffffffffff16815260200190815260200160002060008473ffffffffffffffffffffffffffffffffffffffff1673ffffffffffffffffffffffffffffffffffffffff16815260200190815260200160002060006101000a81548160ff0219169083151502179055508173ffffffffffffffffffffffffffffffffffffffff168373ffffffffffffffffffffffffffffffffffffffff167f17307eab39ab6107e8899845ad3d59bd9653f200f220920489ca2b5937696c318360405161189c919061278a565b60405180910390a3505050565b6118b4848484611391565b6118c084848484611bc9565b6118ff576040517f08c379a00000000000000000000000000000000000000000000000000000000081526004016118f6906127e7565b60405180910390fd5b50505050565b60606009805461191490612c3d565b80601f016020809104026020016040519081016040528092919081815260200182805461194090612c3d565b801561198d5780601f106119625761010080835404028352916020019161198d565b820191906000526020600020905b81548152906001019060200180831161197057829003601f168201915b5050505050905090565b606060008214156119df576040518060400160405280600181526020017f30000000000000000000000000000000000000000000000000000000000000008152509050611af3565b600082905060005b60008214611a115780806119fa90612ca0565b915050600a82611a0a9190612b22565b91506119e7565b60008167ffffffffffffffff811115611a2d57611a2c612dd6565b5b6040519080825280601f01601f191660200182016040528015611a5f5781602001600182028036833780820191505090505b5090505b60008514611aec57600182611a789190612b53565b9150600a85611a879190612ce9565b6030611a939190612acc565b60f81b818381518110611aa957611aa8612da7565b5b60200101907effffffffffffffffffffffffffffffffffffffffffffffffffffffffffffff1916908160001a905350600a85611ae59190612b22565b9450611a63565b8093505050505b919050565b60008073ffffffffffffffffffffffffffffffffffffffff166002600084815260200190815260200160002060009054906101000a900473ffffffffffffffffffffffffffffffffffffffff1673ffffffffffffffffffffffffffffffffffffffff1614159050919050565b611b6e8383611d60565b611b7b6000848484611bc9565b611bba576040517f08c379a0000000000000000000000000000000000000000000000000000000008152600401611bb1906127e7565b60405180910390fd5b505050565b505050565b505050565b6000611bea8473ffffffffffffffffffffffffffffffffffffffff16611f3a565b15611d53578373ffffffffffffffffffffffffffffffffffffffff1663150b7a02611c136111f9565b8786866040518563ffffffff1660e01b8152600401611c35949392919061273e565b602060405180830381600087803b158015611c4f57600080fd5b505af1925050508015611c8057506040513d601f19601f82011682018060405250810190611c7d9190612339565b60015b611d03573d8060008114611cb0576040519150601f19603f3d011682016040523d82523d6000602084013e611cb5565b606091505b50600081511415611cfb576040517f08c379a0000000000000000000000000000000000000000000000000000000008152600401611cf2906127e7565b60405180910390fd5b805181602001fd5b63150b7a0260e01b7bffffffffffffffffffffffffffffffffffffffffffffffffffffffff1916817bffffffffffffffffffffffffffffffffffffffffffffffffffffffff191614915050611d58565b600190505b949350505050565b600073ffffffffffffffffffffffffffffffffffffffff168273ffffffffffffffffffffffffffffffffffffffff161415611dd0576040517f08c379a0000000000000000000000000000000000000000000000000000000008152600401611dc790612907565b60405180910390fd5b611dd981611af8565b15611e19576040517f08c379a0000000000000000000000000000000000000000000000000000000008152600401611e1090612847565b60405180910390fd5b611e2560008383611bbf565b6001600360008473ffffffffffffffffffffffffffffffffffffffff1673ffffffffffffffffffffffffffffffffffffffff1681526020019081526020016000206000828254611e759190612acc565b92505081905550816002600083815260200190815260200160002060006101000a81548173ffffffffffffffffffffffffffffffffffffffff021916908373ffffffffffffffffffffffffffffffffffffffff160217905550808273ffffffffffffffffffffffffffffffffffffffff16600073ffffffffffffffffffffffffffffffffffffffff167fddf252ad1be2c89b69c2b068fc378daa952ba7f163c4a11628f55a4df523b3ef60405160405180910390a4611f3660008383611bc4565b5050565b6000808273ffffffffffffffffffffffffffffffffffffffff163b119050919050565b828054611f6990612c3d565b90600052602060002090601f016020900481019282611f8b5760008555611fd2565b82601f10611fa457805160ff1916838001178555611fd2565b82800160010185558215611fd2579182015b82811115611fd1578251825591602001919060010190611fb6565b5b509050611fdf9190611fe3565b5090565b5b80821115611ffc576000816000905550600101611fe4565b5090565b600061201361200e84612a27565b612a02565b90508281526020810184848401111561202f5761202e612e0a565b5b61203a848285612bfb565b509392505050565b600061205561205084612a58565b612a02565b90508281526020810184848401111561207157612070612e0a565b5b61207c848285612bfb565b509392505050565b60008135905061209381613213565b92915050565b6000813590506120a88161322a565b92915050565b6000813590506120bd81613241565b92915050565b6000815190506120d281613241565b92915050565b600082601f8301126120ed576120ec612e05565b5b81356120fd848260208601612000565b91505092915050565b600082601f83011261211b5761211a612e05565b5b813561212b848260208601612042565b91505092915050565b60008135905061214381613258565b92915050565b60006020828403121561215f5761215e612e14565b5b600061216d84828501612084565b91505092915050565b6000806040838503121561218d5761218c612e14565b5b600061219b85828601612084565b92505060206121ac85828601612084565b9150509250929050565b6000806000606084860312156121cf576121ce612e14565b5b60006121dd86828701612084565b93505060206121ee86828701612084565b92505060406121ff86828701612134565b9150509250925092565b6000806000806080858703121561222357612222612e14565b5b600061223187828801612084565b945050602061224287828801612084565b935050604061225387828801612134565b925050606085013567ffffffffffffffff81111561227457612273612e0f565b5b612280878288016120d8565b91505092959194509250565b600080604083850312156122a3576122a2612e14565b5b60006122b185828601612084565b92505060206122c285828601612099565b9150509250929050565b600080604083850312156122e3576122e2612e14565b5b60006122f185828601612084565b925050602061230285828601612134565b9150509250929050565b60006020828403121561232257612321612e14565b5b6000612330848285016120ae565b91505092915050565b60006020828403121561234f5761234e612e14565b5b600061235d848285016120c3565b91505092915050565b60006020828403121561237c5761237b612e14565b5b600082013567ffffffffffffffff81111561239a57612399612e0f565b5b6123a684828501612106565b91505092915050565b6000602082840312156123c5576123c4612e14565b5b60006123d384828501612134565b91505092915050565b6123e581612b87565b82525050565b6123f481612b99565b82525050565b600061240582612a89565b61240f8185612a9f565b935061241f818560208601612c0a565b61242881612e19565b840191505092915050565b600061243e82612a94565b6124488185612ab0565b9350612458818560208601612c0a565b61246181612e19565b840191505092915050565b600061247782612a94565b6124818185612ac1565b9350612491818560208601612c0a565b80840191505092915050565b60006124aa601383612ab0565b91506124b582612e2a565b602082019050919050565b60006124cd603283612ab0565b91506124d882612e53565b604082019050919050565b60006124f0602683612ab0565b91506124fb82612ea2565b604082019050919050565b6000612513602583612ab0565b915061251e82612ef1565b604082019050919050565b6000612536601c83612ab0565b915061254182612f40565b602082019050919050565b6000612559602483612ab0565b915061256482612f69565b604082019050919050565b600061257c601983612ab0565b915061258782612fb8565b602082019050919050565b600061259f602983612ab0565b91506125aa82612fe1565b604082019050919050565b60006125c2601283612ab0565b91506125cd82613030565b602082019050919050565b60006125e5603e83612ab0565b91506125f082613059565b604082019050919050565b6000612608602083612ab0565b9150612613826130a8565b602082019050919050565b600061262b602083612ab0565b9150612636826130d1565b602082019050919050565b600061264e601883612ab0565b9150612659826130fa565b602082019050919050565b6000612671602183612ab0565b915061267c82613123565b604082019050919050565b6000612694601d83612ab0565b915061269f82613172565b602082019050919050565b60006126b7601b83612ab0565b91506126c28261319b565b602082019050919050565b60006126da602e83612ab0565b91506126e5826131c4565b604082019050919050565b6126f981612bf1565b82525050565b600061270b828561246c565b9150612717828461246c565b91508190509392505050565b600060208201905061273860008301846123dc565b92915050565b600060808201905061275360008301876123dc565b61276060208301866123dc565b61276d60408301856126f0565b818103606083015261277f81846123fa565b905095945050505050565b600060208201905061279f60008301846123eb565b92915050565b600060208201905081810360008301526127bf8184612433565b905092915050565b600060208201905081810360008301526127e08161249d565b9050919050565b60006020820190508181036000830152612800816124c0565b9050919050565b60006020820190508181036000830152612820816124e3565b9050919050565b6000602082019050818103600083015261284081612506565b9050919050565b6000602082019050818103600083015261286081612529565b9050919050565b600060208201905081810360008301526128808161254c565b9050919050565b600060208201905081810360008301526128a08161256f565b9050919050565b600060208201905081810360008301526128c081612592565b9050919050565b600060208201905081810360008301526128e0816125b5565b9050919050565b60006020820190508181036000830152612900816125d8565b9050919050565b60006020820190508181036000830152612920816125fb565b9050919050565b600060208201905081810360008301526129408161261e565b9050919050565b6000602082019050818103600083015261296081612641565b9050919050565b6000602082019050818103600083015261298081612664565b9050919050565b600060208201905081810360008301526129a081612687565b9050919050565b600060208201905081810360008301526129c0816126aa565b9050919050565b600060208201905081810360008301526129e0816126cd565b9050919050565b60006020820190506129fc60008301846126f0565b92915050565b6000612a0c612a1d565b9050612a188282612c6f565b919050565b6000604051905090565b600067ffffffffffffffff821115612a4257612a41612dd6565b5b612a4b82612e19565b9050602081019050919050565b600067ffffffffffffffff821115612a7357612a72612dd6565b5b612a7c82612e19565b9050602081019050919050565b600081519050919050565b600081519050919050565b600082825260208201905092915050565b600082825260208201905092915050565b600081905092915050565b6000612ad782612bf1565b9150612ae283612bf1565b9250827fffffffffffffffffffffffffffffffffffffffffffffffffffffffffffffffff03821115612b1757612b16612d1a565b5b828201905092915050565b6000612b2d82612bf1565b9150612b3883612bf1565b925082612b4857612b47612d49565b5b828204905092915050565b6000612b5e82612bf1565b9150612b6983612bf1565b925082821015612b7c57612b7b612d1a565b5b828203905092915050565b6000612b9282612bd1565b9050919050565b60008115159050919050565b60007fffffffff0000000000000000000000000000000000000000000000000000000082169050919050565b600073ffffffffffffffffffffffffffffffffffffffff82169050919050565b6000819050919050565b82818337600083830152505050565b60005b83811015612c28578082015181840152602081019050612c0d565b83811115612c37576000848401525b50505050565b60006002820490506001821680612c5557607f821691505b60208210811415612c6957612c68612d78565b5b50919050565b612c7882612e19565b810181811067ffffffffffffffff82111715612c9757612c96612dd6565b5b80604052505050565b6000612cab82612bf1565b91507fffffffffffffffffffffffffffffffffffffffffffffffffffffffffffffffff821415612cde57612cdd612d1a565b5b600182019050919050565b6000612cf482612bf1565b9150612cff83612bf1565b925082612d0f57612d0e612d49565b5b828206905092915050565b7f4e487b7100000000000000000000000000000000000000000000000000000000600052601160045260246000fd5b7f4e487b7100000000000000000000000000000000000000000000000000000000600052601260045260246000fd5b7f4e487b7100000000000000000000000000000000000000000000000000000000600052602260045260246000fd5b7f4e487b7100000000000000000000000000000000000000000000000000000000600052603260045260246000fd5b7f4e487b7100000000000000000000000000000000000000000000000000000000600052604160045260246000fd5b600080fd5b600080fd5b600080fd5b600080fd5b6000601f19601f8301169050919050565b7f4a504547732061726520736f6c64206f75742100000000000000000000000000600082015250565b7f4552433732313a207472616e7366657220746f206e6f6e20455243373231526560008201527f63656976657220696d706c656d656e7465720000000000000000000000000000602082015250565b7f4f776e61626c653a206e6577206f776e657220697320746865207a65726f206160008201527f6464726573730000000000000000000000000000000000000000000000000000602082015250565b7f4552433732313a207472616e736665722066726f6d20696e636f72726563742060008201527f6f776e6572000000000000000000000000000000000000000000000000000000602082015250565b7f4552433732313a20746f6b656e20616c7265616479206d696e74656400000000600082015250565b7f4552433732313a207472616e7366657220746f20746865207a65726f2061646460008201527f7265737300000000000000000000000000000000000000000000000000000000602082015250565b7f4552433732313a20617070726f766520746f2063616c6c657200000000000000600082015250565b7f4552433732313a2061646472657373207a65726f206973206e6f74206120766160008201527f6c6964206f776e65720000000000000000000000000000000000000000000000602082015250565b7f45786365656473206d617820737570706c790000000000000000000000000000600082015250565b7f4552433732313a20617070726f76652063616c6c6572206973206e6f7420746f60008201527f6b656e206f776e6572206e6f7220617070726f76656420666f7220616c6c0000602082015250565b7f4552433732313a206d696e7420746f20746865207a65726f2061646472657373600082015250565b7f4f776e61626c653a2063616c6c6572206973206e6f7420746865206f776e6572600082015250565b7f4552433732313a20696e76616c696420746f6b656e2049440000000000000000600082015250565b7f4552433732313a20617070726f76616c20746f2063757272656e74206f776e6560008201527f7200000000000000000000000000000000000000000000000000000000000000602082015250565b7f4e6f7420656e6f7567682045544820746f206275792061204a50454721000000600082015250565b7f4a5045477320617265206e6f7420666f722073616c6520796574210000000000600082015250565b7f4552433732313a2063616c6c6572206973206e6f7420746f6b656e206f776e6560008201527f72206e6f7220617070726f766564000000000000000000000000000000000000602082015250565b61321c81612b87565b811461322757600080fd5b50565b61323381612b99565b811461323e57600080fd5b50565b61324a81612ba5565b811461325557600080fd5b50565b61326181612bf1565b811461326c57600080fd5b5056fea26469706673582212204b9d1600ba774a08ceafd079bddb08f23a4ee300a2a55e9129d94ebad3e3788964736f6c63430008070033",
			"opcodes": "PUSH1 0x80 PUSH1 0x40 MSTORE PUSH1 0x0 PUSH1 0x8 PUSH1 0x0 PUSH2 0x100 EXP DUP2 SLOAD DUP2 PUSH1 0xFF MUL NOT AND SWAP1 DUP4 ISZERO ISZERO MUL OR SWAP1 SSTORE POP CALLVALUE DUP1 ISZERO PUSH3 0x2C JUMPI PUSH1 0x0 DUP1 REVERT JUMPDEST POP PUSH1 0x40 MLOAD DUP1 PUSH1 0x40 ADD PUSH1 0x40 MSTORE DUP1 PUSH1 0x9 DUP2 MSTORE PUSH1 0x20 ADD PUSH32 0x5775744973546869730000000000000000000000000000000000000000000000 DUP2 MSTORE POP PUSH1 0x40 MLOAD DUP1 PUSH1 0x40 ADD PUSH1 0x40 MSTORE DUP1 PUSH1 0x4 DUP2 MSTORE PUSH1 0x20 ADD PUSH32 0x5749545300000000000000000000000000000000000000000000000000000000 DUP2 MSTORE POP DUP2 PUSH1 0x0 SWAP1 DUP1 MLOAD SWAP1 PUSH1 0x20 ADD SWAP1 PUSH3 0xB1 SWAP3 SWAP2 SWAP1 PUSH3 0x1C1 JUMP JUMPDEST POP DUP1 PUSH1 0x1 SWAP1 DUP1 MLOAD SWAP1 PUSH1 0x20 ADD SWAP1 PUSH3 0xCA SWAP3 SWAP2 SWAP1 PUSH3 0x1C1 JUMP JUMPDEST POP POP POP PUSH3 0xED PUSH3 0xE1 PUSH3 0xF3 PUSH1 0x20 SHL PUSH1 0x20 SHR JUMP JUMPDEST PUSH3 0xFB PUSH1 0x20 SHL PUSH1 0x20 SHR JUMP JUMPDEST PUSH3 0x2D6 JUMP JUMPDEST PUSH1 0x0 CALLER SWAP1 POP SWAP1 JUMP JUMPDEST PUSH1 0x0 PUSH1 0x6 PUSH1 0x0 SWAP1 SLOAD SWAP1 PUSH2 0x100 EXP SWAP1 DIV PUSH20 0xFFFFFFFFFFFFFFFFFFFFFFFFFFFFFFFFFFFFFFFF AND SWAP1 POP DUP2 PUSH1 0x6 PUSH1 0x0 PUSH2 0x100 EXP DUP2 SLOAD DUP2 PUSH20 0xFFFFFFFFFFFFFFFFFFFFFFFFFFFFFFFFFFFFFFFF MUL NOT AND SWAP1 DUP4 PUSH20 0xFFFFFFFFFFFFFFFFFFFFFFFFFFFFFFFFFFFFFFFF AND MUL OR SWAP1 SSTORE POP DUP2 PUSH20 0xFFFFFFFFFFFFFFFFFFFFFFFFFFFFFFFFFFFFFFFF AND DUP2 PUSH20 0xFFFFFFFFFFFFFFFFFFFFFFFFFFFFFFFFFFFFFFFF AND PUSH32 0x8BE0079C531659141344CD1FD0A4F28419497F9722A3DAAFE3B4186F6B6457E0 PUSH1 0x40 MLOAD PUSH1 0x40 MLOAD DUP1 SWAP2 SUB SWAP1 LOG3 POP POP JUMP JUMPDEST DUP3 DUP1 SLOAD PUSH3 0x1CF SWAP1 PUSH3 0x271 JUMP JUMPDEST SWAP1 PUSH1 0x0 MSTORE PUSH1 0x20 PUSH1 0x0 KECCAK256 SWAP1 PUSH1 0x1F ADD PUSH1 0x20 SWAP1 DIV DUP2 ADD SWAP3 DUP3 PUSH3 0x1F3 JUMPI PUSH1 0x0 DUP6 SSTORE PUSH3 0x23F JUMP JUMPDEST DUP3 PUSH1 0x1F LT PUSH3 0x20E JUMPI DUP1 MLOAD PUSH1 0xFF NOT AND DUP4 DUP1 ADD OR DUP6 SSTORE PUSH3 0x23F JUMP JUMPDEST DUP3 DUP1 ADD PUSH1 0x1 ADD DUP6 SSTORE DUP3 ISZERO PUSH3 0x23F JUMPI SWAP2 DUP3 ADD JUMPDEST DUP3 DUP2 GT ISZERO PUSH3 0x23E JUMPI DUP3 MLOAD DUP3 SSTORE SWAP2 PUSH1 0x20 ADD SWAP2 SWAP1 PUSH1 0x1 ADD SWAP1 PUSH3 0x221 JUMP JUMPDEST JUMPDEST POP SWAP1 POP PUSH3 0x24E SWAP2 SWAP1 PUSH3 0x252 JUMP JUMPDEST POP SWAP1 JUMP JUMPDEST JUMPDEST DUP1 DUP3 GT ISZERO PUSH3 0x26D JUMPI PUSH1 0x0 DUP2 PUSH1 0x0 SWAP1 SSTORE POP PUSH1 0x1 ADD PUSH3 0x253 JUMP JUMPDEST POP SWAP1 JUMP JUMPDEST PUSH1 0x0 PUSH1 0x2 DUP3 DIV SWAP1 POP PUSH1 0x1 DUP3 AND DUP1 PUSH3 0x28A JUMPI PUSH1 0x7F DUP3 AND SWAP2 POP JUMPDEST PUSH1 0x20 DUP3 LT DUP2 EQ ISZERO PUSH3 0x2A1 JUMPI PUSH3 0x2A0 PUSH3 0x2A7 JUMP JUMPDEST JUMPDEST POP SWAP2 SWAP1 POP JUMP JUMPDEST PUSH32 0x4E487B7100000000000000000000000000000000000000000000000000000000 PUSH1 0x0 MSTORE PUSH1 0x22 PUSH1 0x4 MSTORE PUSH1 0x24 PUSH1 0x0 REVERT JUMPDEST PUSH2 0x32A5 DUP1 PUSH3 0x2E6 PUSH1 0x0 CODECOPY PUSH1 0x0 RETURN INVALID PUSH1 0x80 PUSH1 0x40 MSTORE PUSH1 0x4 CALLDATASIZE LT PUSH2 0x1C2 JUMPI PUSH1 0x0 CALLDATALOAD PUSH1 0xE0 SHR DUP1 PUSH4 0x7824407F GT PUSH2 0xF7 JUMPI DUP1 PUSH4 0xB88D4FDE GT PUSH2 0x95 JUMPI DUP1 PUSH4 0xE954670E GT PUSH2 0x64 JUMPI DUP1 PUSH4 0xE954670E EQ PUSH2 0x5E9 JUMPI DUP1 PUSH4 0xE985E9C5 EQ PUSH2 0x614 JUMPI DUP1 PUSH4 0xEB8D2444 EQ PUSH2 0x651 JUMPI DUP1 PUSH4 0xF2FDE38B EQ PUSH2 0x67C JUMPI PUSH2 0x1C2 JUMP JUMPDEST DUP1 PUSH4 0xB88D4FDE EQ PUSH2 0x52F JUMPI DUP1 PUSH4 0xC1F26123 EQ PUSH2 0x558 JUMPI DUP1 PUSH4 0xC87B56DD EQ PUSH2 0x581 JUMPI DUP1 PUSH4 0xDA0239A6 EQ PUSH2 0x5BE JUMPI PUSH2 0x1C2 JUMP JUMPDEST DUP1 PUSH4 0x95D89B41 GT PUSH2 0xD1 JUMPI DUP1 PUSH4 0x95D89B41 EQ PUSH2 0x485 JUMPI DUP1 PUSH4 0x9D1B464A EQ PUSH2 0x4B0 JUMPI DUP1 PUSH4 0xA22CB465 EQ PUSH2 0x4DB JUMPI DUP1 PUSH4 0xB303B074 EQ PUSH2 0x504 JUMPI PUSH2 0x1C2 JUMP JUMPDEST DUP1 PUSH4 0x7824407F EQ PUSH2 0x418 JUMPI DUP1 PUSH4 0x7D8966E4 EQ PUSH2 0x443 JUMPI DUP1 PUSH4 0x8DA5CB5B EQ PUSH2 0x45A JUMPI PUSH2 0x1C2 JUMP JUMPDEST DUP1 PUSH4 0x42842E0E GT PUSH2 0x164 JUMPI DUP1 PUSH4 0x6352211E GT PUSH2 0x13E JUMPI DUP1 PUSH4 0x6352211E EQ PUSH2 0x35C JUMPI DUP1 PUSH4 0x6E92CEAE EQ PUSH2 0x399 JUMPI DUP1 PUSH4 0x70A08231 EQ PUSH2 0x3C4 JUMPI DUP1 PUSH4 0x715018A6 EQ PUSH2 0x401 JUMPI PUSH2 0x1C2 JUMP JUMPDEST DUP1 PUSH4 0x42842E0E EQ PUSH2 0x2F3 JUMPI DUP1 PUSH4 0x55F804B3 EQ PUSH2 0x31C JUMPI DUP1 PUSH4 0x5FD8C710 EQ PUSH2 0x345 JUMPI PUSH2 0x1C2 JUMP JUMPDEST DUP1 PUSH4 0x95EA7B3 GT PUSH2 0x1A0 JUMPI DUP1 PUSH4 0x95EA7B3 EQ PUSH2 0x26C JUMPI DUP1 PUSH4 0x1249C58B EQ PUSH2 0x295 JUMPI DUP1 PUSH4 0x23B872DD EQ PUSH2 0x29F JUMPI DUP1 PUSH4 0x32CB6B0C EQ PUSH2 0x2C8 JUMPI PUSH2 0x1C2 JUMP JUMPDEST DUP1 PUSH4 0x1FFC9A7 EQ PUSH2 0x1C7 JUMPI DUP1 PUSH4 0x6FDDE03 EQ PUSH2 0x204 JUMPI DUP1 PUSH4 0x81812FC EQ PUSH2 0x22F JUMPI JUMPDEST PUSH1 0x0 DUP1 REVERT JUMPDEST CALLVALUE DUP1 ISZERO PUSH2 0x1D3 JUMPI PUSH1 0x0 DUP1 REVERT JUMPDEST POP PUSH2 0x1EE PUSH1 0x4 DUP1 CALLDATASIZE SUB DUP2 ADD SWAP1 PUSH2 0x1E9 SWAP2 SWAP1 PUSH2 0x230C JUMP JUMPDEST PUSH2 0x6A5 JUMP JUMPDEST PUSH1 0x40 MLOAD PUSH2 0x1FB SWAP2 SWAP1 PUSH2 0x278A JUMP JUMPDEST PUSH1 0x40 MLOAD DUP1 SWAP2 SUB SWAP1 RETURN JUMPDEST CALLVALUE DUP1 ISZERO PUSH2 0x210 JUMPI PUSH1 0x0 DUP1 REVERT JUMPDEST POP PUSH2 0x219 PUSH2 0x787 JUMP JUMPDEST PUSH1 0x40 MLOAD PUSH2 0x226 SWAP2 SWAP1 PUSH2 0x27A5 JUMP JUMPDEST PUSH1 0x40 MLOAD DUP1 SWAP2 SUB SWAP1 RETURN JUMPDEST CALLVALUE DUP1 ISZERO PUSH2 0x23B JUMPI PUSH1 0x0 DUP1 REVERT JUMPDEST POP PUSH2 0x256 PUSH1 0x4 DUP1 CALLDATASIZE SUB DUP2 ADD SWAP1 PUSH2 0x251 SWAP2 SWAP1 PUSH2 0x23AF JUMP JUMPDEST PUSH2 0x819 JUMP JUMPDEST PUSH1 0x40 MLOAD PUSH2 0x263 SWAP2 SWAP1 PUSH2 0x2723 JUMP JUMPDEST PUSH1 0x40 MLOAD DUP1 SWAP2 SUB SWAP1 RETURN JUMPDEST CALLVALUE DUP1 ISZERO PUSH2 0x278 JUMPI PUSH1 0x0 DUP1 REVERT JUMPDEST POP PUSH2 0x293 PUSH1 0x4 DUP1 CALLDATASIZE SUB DUP2 ADD SWAP1 PUSH2 0x28E SWAP2 SWAP1 PUSH2 0x22CC JUMP JUMPDEST PUSH2 0x85F JUMP JUMPDEST STOP JUMPDEST PUSH2 0x29D PUSH2 0x977 JUMP JUMPDEST STOP JUMPDEST CALLVALUE DUP1 ISZERO PUSH2 0x2AB JUMPI PUSH1 0x0 DUP1 REVERT JUMPDEST POP PUSH2 0x2C6 PUSH1 0x4 DUP1 CALLDATASIZE SUB DUP2 ADD SWAP1 PUSH2 0x2C1 SWAP2 SWAP1 PUSH2 0x21B6 JUMP JUMPDEST PUSH2 0xA8C JUMP JUMPDEST STOP JUMPDEST CALLVALUE DUP1 ISZERO PUSH2 0x2D4 JUMPI PUSH1 0x0 DUP1 REVERT JUMPDEST POP PUSH2 0x2DD PUSH2 0xAEC JUMP JUMPDEST PUSH1 0x40 MLOAD PUSH2 0x2EA SWAP2 SWAP1 PUSH2 0x29E7 JUMP JUMPDEST PUSH1 0x40 MLOAD DUP1 SWAP2 SUB SWAP1 RETURN JUMPDEST CALLVALUE DUP1 ISZERO PUSH2 0x2FF JUMPI PUSH1 0x0 DUP1 REVERT JUMPDEST POP PUSH2 0x31A PUSH1 0x4 DUP1 CALLDATASIZE SUB DUP2 ADD SWAP1 PUSH2 0x315 SWAP2 SWAP1 PUSH2 0x21B6 JUMP JUMPDEST PUSH2 0xAF2 JUMP JUMPDEST STOP JUMPDEST CALLVALUE DUP1 ISZERO PUSH2 0x328 JUMPI PUSH1 0x0 DUP1 REVERT JUMPDEST POP PUSH2 0x343 PUSH1 0x4 DUP1 CALLDATASIZE SUB DUP2 ADD SWAP1 PUSH2 0x33E SWAP2 SWAP1 PUSH2 0x2366 JUMP JUMPDEST PUSH2 0xB12 JUMP JUMPDEST STOP JUMPDEST CALLVALUE DUP1 ISZERO PUSH2 0x351 JUMPI PUSH1 0x0 DUP1 REVERT JUMPDEST POP PUSH2 0x35A PUSH2 0xB34 JUMP JUMPDEST STOP JUMPDEST CALLVALUE DUP1 ISZERO PUSH2 0x368 JUMPI PUSH1 0x0 DUP1 REVERT JUMPDEST POP PUSH2 0x383 PUSH1 0x4 DUP1 CALLDATASIZE SUB DUP2 ADD SWAP1 PUSH2 0x37E SWAP2 SWAP1 PUSH2 0x23AF JUMP JUMPDEST PUSH2 0xB85 JUMP JUMPDEST PUSH1 0x40 MLOAD PUSH2 0x390 SWAP2 SWAP1 PUSH2 0x2723 JUMP JUMPDEST PUSH1 0x40 MLOAD DUP1 SWAP2 SUB SWAP1 RETURN JUMPDEST CALLVALUE DUP1 ISZERO PUSH2 0x3A5 JUMPI PUSH1 0x0 DUP1 REVERT JUMPDEST POP PUSH2 0x3AE PUSH2 0xC37 JUMP JUMPDEST PUSH1 0x40 MLOAD PUSH2 0x3BB SWAP2 SWAP1 PUSH2 0x29E7 JUMP JUMPDEST PUSH1 0x40 MLOAD DUP1 SWAP2 SUB SWAP1 RETURN JUMPDEST CALLVALUE DUP1 ISZERO PUSH2 0x3D0 JUMPI PUSH1 0x0 DUP1 REVERT JUMPDEST POP PUSH2 0x3EB PUSH1 0x4 DUP1 CALLDATASIZE SUB DUP2 ADD SWAP1 PUSH2 0x3E6 SWAP2 SWAP1 PUSH2 0x2149 JUMP JUMPDEST PUSH2 0xC43 JUMP JUMPDEST PUSH1 0x40 MLOAD PUSH2 0x3F8 SWAP2 SWAP1 PUSH2 0x29E7 JUMP JUMPDEST PUSH1 0x40 MLOAD DUP1 SWAP2 SUB SWAP1 RETURN JUMPDEST CALLVALUE DUP1 ISZERO PUSH2 0x40D JUMPI PUSH1 0x0 DUP1 REVERT JUMPDEST POP PUSH2 0x416 PUSH2 0xCFB JUMP JUMPDEST STOP JUMPDEST CALLVALUE DUP1 ISZERO PUSH2 0x424 JUMPI PUSH1 0x0 DUP1 REVERT JUMPDEST POP PUSH2 0x42D PUSH2 0xD0F JUMP JUMPDEST PUSH1 0x40 MLOAD PUSH2 0x43A SWAP2 SWAP1 PUSH2 0x29E7 JUMP JUMPDEST PUSH1 0x40 MLOAD DUP1 SWAP2 SUB SWAP1 RETURN JUMPDEST CALLVALUE DUP1 ISZERO PUSH2 0x44F JUMPI PUSH1 0x0 DUP1 REVERT JUMPDEST POP PUSH2 0x458 PUSH2 0xD20 JUMP JUMPDEST STOP JUMPDEST CALLVALUE DUP1 ISZERO PUSH2 0x466 JUMPI PUSH1 0x0 DUP1 REVERT JUMPDEST POP PUSH2 0x46F PUSH2 0xD54 JUMP JUMPDEST PUSH1 0x40 MLOAD PUSH2 0x47C SWAP2 SWAP1 PUSH2 0x2723 JUMP JUMPDEST PUSH1 0x40 MLOAD DUP1 SWAP2 SUB SWAP1 RETURN JUMPDEST CALLVALUE DUP1 ISZERO PUSH2 0x491 JUMPI PUSH1 0x0 DUP1 REVERT JUMPDEST POP PUSH2 0x49A PUSH2 0xD7E JUMP JUMPDEST PUSH1 0x40 MLOAD PUSH2 0x4A7 SWAP2 SWAP1 PUSH2 0x27A5 JUMP JUMPDEST PUSH1 0x40 MLOAD DUP1 SWAP2 SUB SWAP1 RETURN JUMPDEST CALLVALUE DUP1 ISZERO PUSH2 0x4BC JUMPI PUSH1 0x0 DUP1 REVERT JUMPDEST POP PUSH2 0x4C5 PUSH2 0xE10 JUMP JUMPDEST PUSH1 0x40 MLOAD PUSH2 0x4D2 SWAP2 SWAP1 PUSH2 0x29E7 JUMP JUMPDEST PUSH1 0x40 MLOAD DUP1 SWAP2 SUB SWAP1 RETURN JUMPDEST CALLVALUE DUP1 ISZERO PUSH2 0x4E7 JUMPI PUSH1 0x0 DUP1 REVERT JUMPDEST POP PUSH2 0x502 PUSH1 0x4 DUP1 CALLDATASIZE SUB DUP2 ADD SWAP1 PUSH2 0x4FD SWAP2 SWAP1 PUSH2 0x228C JUMP JUMPDEST PUSH2 0xE63 JUMP JUMPDEST STOP JUMPDEST CALLVALUE DUP1 ISZERO PUSH2 0x510 JUMPI PUSH1 0x0 DUP1 REVERT JUMPDEST POP PUSH2 0x519 PUSH2 0xE79 JUMP JUMPDEST PUSH1 0x40 MLOAD PUSH2 0x526 SWAP2 SWAP1 PUSH2 0x29E7 JUMP JUMPDEST PUSH1 0x40 MLOAD DUP1 SWAP2 SUB SWAP1 RETURN JUMPDEST CALLVALUE DUP1 ISZERO PUSH2 0x53B JUMPI PUSH1 0x0 DUP1 REVERT JUMPDEST POP PUSH2 0x556 PUSH1 0x4 DUP1 CALLDATASIZE SUB DUP2 ADD SWAP1 PUSH2 0x551 SWAP2 SWAP1 PUSH2 0x2209 JUMP JUMPDEST PUSH2 0xE85 JUMP JUMPDEST STOP JUMPDEST CALLVALUE DUP1 ISZERO PUSH2 0x564 JUMPI PUSH1 0x0 DUP1 REVERT JUMPDEST POP PUSH2 0x57F PUSH1 0x4 DUP1 CALLDATASIZE SUB DUP2 ADD SWAP1 PUSH2 0x57A SWAP2 SWAP1 PUSH2 0x23AF JUMP JUMPDEST PUSH2 0xEE7 JUMP JUMPDEST STOP JUMPDEST CALLVALUE DUP1 ISZERO PUSH2 0x58D JUMPI PUSH1 0x0 DUP1 REVERT JUMPDEST POP PUSH2 0x5A8 PUSH1 0x4 DUP1 CALLDATASIZE SUB DUP2 ADD SWAP1 PUSH2 0x5A3 SWAP2 SWAP1 PUSH2 0x23AF JUMP JUMPDEST PUSH2 0xF87 JUMP JUMPDEST PUSH1 0x40 MLOAD PUSH2 0x5B5 SWAP2 SWAP1 PUSH2 0x27A5 JUMP JUMPDEST PUSH1 0x40 MLOAD DUP1 SWAP2 SUB SWAP1 RETURN JUMPDEST CALLVALUE DUP1 ISZERO PUSH2 0x5CA JUMPI PUSH1 0x0 DUP1 REVERT JUMPDEST POP PUSH2 0x5D3 PUSH2 0xFEF JUMP JUMPDEST PUSH1 0x40 MLOAD PUSH2 0x5E0 SWAP2 SWAP1 PUSH2 0x29E7 JUMP JUMPDEST PUSH1 0x40 MLOAD DUP1 SWAP2 SUB SWAP1 RETURN JUMPDEST CALLVALUE DUP1 ISZERO PUSH2 0x5F5 JUMPI PUSH1 0x0 DUP1 REVERT JUMPDEST POP PUSH2 0x5FE PUSH2 0x100D JUMP JUMPDEST PUSH1 0x40 MLOAD PUSH2 0x60B SWAP2 SWAP1 PUSH2 0x29E7 JUMP JUMPDEST PUSH1 0x40 MLOAD DUP1 SWAP2 SUB SWAP1 RETURN JUMPDEST CALLVALUE DUP1 ISZERO PUSH2 0x620 JUMPI PUSH1 0x0 DUP1 REVERT JUMPDEST POP PUSH2 0x63B PUSH1 0x4 DUP1 CALLDATASIZE SUB DUP2 ADD SWAP1 PUSH2 0x636 SWAP2 SWAP1 PUSH2 0x2176 JUMP JUMPDEST PUSH2 0x1019 JUMP JUMPDEST PUSH1 0x40 MLOAD PUSH2 0x648 SWAP2 SWAP1 PUSH2 0x278A JUMP JUMPDEST PUSH1 0x40 MLOAD DUP1 SWAP2 SUB SWAP1 RETURN JUMPDEST CALLVALUE DUP1 ISZERO PUSH2 0x65D JUMPI PUSH1 0x0 DUP1 REVERT JUMPDEST POP PUSH2 0x666 PUSH2 0x10AD JUMP JUMPDEST PUSH1 0x40 MLOAD PUSH2 0x673 SWAP2 SWAP1 PUSH2 0x278A JUMP JUMPDEST PUSH1 0x40 MLOAD DUP1 SWAP2 SUB SWAP1 RETURN JUMPDEST CALLVALUE DUP1 ISZERO PUSH2 0x688 JUMPI PUSH1 0x0 DUP1 REVERT JUMPDEST POP PUSH2 0x6A3 PUSH1 0x4 DUP1 CALLDATASIZE SUB DUP2 ADD SWAP1 PUSH2 0x69E SWAP2 SWAP1 PUSH2 0x2149 JUMP JUMPDEST PUSH2 0x10C0 JUMP JUMPDEST STOP JUMPDEST PUSH1 0x0 PUSH32 0x80AC58CD00000000000000000000000000000000000000000000000000000000 PUSH28 0xFFFFFFFFFFFFFFFFFFFFFFFFFFFFFFFFFFFFFFFFFFFFFFFFFFFFFFFF NOT AND DUP3 PUSH28 0xFFFFFFFFFFFFFFFFFFFFFFFFFFFFFFFFFFFFFFFFFFFFFFFFFFFFFFFF NOT AND EQ DUP1 PUSH2 0x770 JUMPI POP PUSH32 0x5B5E139F00000000000000000000000000000000000000000000000000000000 PUSH28 0xFFFFFFFFFFFFFFFFFFFFFFFFFFFFFFFFFFFFFFFFFFFFFFFFFFFFFFFF NOT AND DUP3 PUSH28 0xFFFFFFFFFFFFFFFFFFFFFFFFFFFFFFFFFFFFFFFFFFFFFFFFFFFFFFFF NOT AND EQ JUMPDEST DUP1 PUSH2 0x780 JUMPI POP PUSH2 0x77F DUP3 PUSH2 0x1144 JUMP JUMPDEST JUMPDEST SWAP1 POP SWAP2 SWAP1 POP JUMP JUMPDEST PUSH1 0x60 PUSH1 0x0 DUP1 SLOAD PUSH2 0x796 SWAP1 PUSH2 0x2C3D JUMP JUMPDEST DUP1 PUSH1 0x1F ADD PUSH1 0x20 DUP1 SWAP2 DIV MUL PUSH1 0x20 ADD PUSH1 0x40 MLOAD SWAP1 DUP2 ADD PUSH1 0x40 MSTORE DUP1 SWAP3 SWAP2 SWAP1 DUP2 DUP2 MSTORE PUSH1 0x20 ADD DUP3 DUP1 SLOAD PUSH2 0x7C2 SWAP1 PUSH2 0x2C3D JUMP JUMPDEST DUP1 ISZERO PUSH2 0x80F JUMPI DUP1 PUSH1 0x1F LT PUSH2 0x7E4 JUMPI PUSH2 0x100 DUP1 DUP4 SLOAD DIV MUL DUP4 MSTORE SWAP2 PUSH1 0x20 ADD SWAP2 PUSH2 0x80F JUMP JUMPDEST DUP3 ADD SWAP2 SWAP1 PUSH1 0x0 MSTORE PUSH1 0x20 PUSH1 0x0 KECCAK256 SWAP1 JUMPDEST DUP2 SLOAD DUP2 MSTORE SWAP1 PUSH1 0x1 ADD SWAP1 PUSH1 0x20 ADD DUP1 DUP4 GT PUSH2 0x7F2 JUMPI DUP3 SWAP1 SUB PUSH1 0x1F AND DUP3 ADD SWAP2 JUMPDEST POP POP POP POP POP SWAP1 POP SWAP1 JUMP JUMPDEST PUSH1 0x0 PUSH2 0x824 DUP3 PUSH2 0x11AE JUMP JUMPDEST PUSH1 0x4 PUSH1 0x0 DUP4 DUP2 MSTORE PUSH1 0x20 ADD SWAP1 DUP2 MSTORE PUSH1 0x20 ADD PUSH1 0x0 KECCAK256 PUSH1 0x0 SWAP1 SLOAD SWAP1 PUSH2 0x100 EXP SWAP1 DIV PUSH20 0xFFFFFFFFFFFFFFFFFFFFFFFFFFFFFFFFFFFFFFFF AND SWAP1 POP SWAP2 SWAP1 POP JUMP JUMPDEST PUSH1 0x0 PUSH2 0x86A DUP3 PUSH2 0xB85 JUMP JUMPDEST SWAP1 POP DUP1 PUSH20 0xFFFFFFFFFFFFFFFFFFFFFFFFFFFFFFFFFFFFFFFF AND DUP4 PUSH20 0xFFFFFFFFFFFFFFFFFFFFFFFFFFFFFFFFFFFFFFFF AND EQ ISZERO PUSH2 0x8DB JUMPI PUSH1 0x40 MLOAD PUSH32 0x8C379A000000000000000000000000000000000000000000000000000000000 DUP2 MSTORE PUSH1 0x4 ADD PUSH2 0x8D2 SWAP1 PUSH2 0x2967 JUMP JUMPDEST PUSH1 0x40 MLOAD DUP1 SWAP2 SUB SWAP1 REVERT JUMPDEST DUP1 PUSH20 0xFFFFFFFFFFFFFFFFFFFFFFFFFFFFFFFFFFFFFFFF AND PUSH2 0x8FA PUSH2 0x11F9 JUMP JUMPDEST PUSH20 0xFFFFFFFFFFFFFFFFFFFFFFFFFFFFFFFFFFFFFFFF AND EQ DUP1 PUSH2 0x929 JUMPI POP PUSH2 0x928 DUP2 PUSH2 0x923 PUSH2 0x11F9 JUMP JUMPDEST PUSH2 0x1019 JUMP JUMPDEST JUMPDEST PUSH2 0x968 JUMPI PUSH1 0x40 MLOAD PUSH32 0x8C379A000000000000000000000000000000000000000000000000000000000 DUP2 MSTORE PUSH1 0x4 ADD PUSH2 0x95F SWAP1 PUSH2 0x28E7 JUMP JUMPDEST PUSH1 0x40 MLOAD DUP1 SWAP2 SUB SWAP1 REVERT JUMPDEST PUSH2 0x972 DUP4 DUP4 PUSH2 0x1201 JUMP JUMPDEST POP POP POP JUMP JUMPDEST PUSH1 0x8 PUSH1 0x0 SWAP1 SLOAD SWAP1 PUSH2 0x100 EXP SWAP1 DIV PUSH1 0xFF AND PUSH2 0x9C6 JUMPI PUSH1 0x40 MLOAD PUSH32 0x8C379A000000000000000000000000000000000000000000000000000000000 DUP2 MSTORE PUSH1 0x4 ADD PUSH2 0x9BD SWAP1 PUSH2 0x29A7 JUMP JUMPDEST PUSH1 0x40 MLOAD DUP1 SWAP2 SUB SWAP1 REVERT JUMPDEST PUSH1 0x0 PUSH1 0x1 PUSH2 0x9D4 PUSH1 0x7 PUSH2 0x12BA JUMP JUMPDEST PUSH2 0x9DE SWAP2 SWAP1 PUSH2 0x2ACC JUMP JUMPDEST SWAP1 POP PUSH2 0x1F4 DUP2 GT ISZERO PUSH2 0xA25 JUMPI PUSH1 0x40 MLOAD PUSH32 0x8C379A000000000000000000000000000000000000000000000000000000000 DUP2 MSTORE PUSH1 0x4 ADD PUSH2 0xA1C SWAP1 PUSH2 0x27C7 JUMP JUMPDEST PUSH1 0x40 MLOAD DUP1 SWAP2 SUB SWAP1 REVERT JUMPDEST PUSH1 0x0 PUSH2 0xA2F PUSH2 0xE10 JUMP JUMPDEST SWAP1 POP DUP1 CALLVALUE LT ISZERO PUSH2 0xA74 JUMPI PUSH1 0x40 MLOAD PUSH32 0x8C379A000000000000000000000000000000000000000000000000000000000 DUP2 MSTORE PUSH1 0x4 ADD PUSH2 0xA6B SWAP1 PUSH2 0x2987 JUMP JUMPDEST PUSH1 0x40 MLOAD DUP1 SWAP2 SUB SWAP1 REVERT JUMPDEST PUSH2 0xA7E PUSH1 0x7 PUSH2 0x12C8 JUMP JUMPDEST PUSH2 0xA88 CALLER DUP4 PUSH2 0x12DE JUMP JUMPDEST POP POP JUMP JUMPDEST PUSH2 0xA9D PUSH2 0xA97 PUSH2 0x11F9 JUMP JUMPDEST DUP3 PUSH2 0x12FC JUMP JUMPDEST PUSH2 0xADC JUMPI PUSH1 0x40 MLOAD PUSH32 0x8C379A000000000000000000000000000000000000000000000000000000000 DUP2 MSTORE PUSH1 0x4 ADD PUSH2 0xAD3 SWAP1 PUSH2 0x29C7 JUMP JUMPDEST PUSH1 0x40 MLOAD DUP1 SWAP2 SUB SWAP1 REVERT JUMPDEST PUSH2 0xAE7 DUP4 DUP4 DUP4 PUSH2 0x1391 JUMP JUMPDEST POP POP POP JUMP JUMPDEST PUSH2 0x1F4 DUP2 JUMP JUMPDEST PUSH2 0xB0D DUP4 DUP4 DUP4 PUSH1 0x40 MLOAD DUP1 PUSH1 0x20 ADD PUSH1 0x40 MSTORE DUP1 PUSH1 0x0 DUP2 MSTORE POP PUSH2 0xE85 JUMP JUMPDEST POP POP POP JUMP JUMPDEST PUSH2 0xB1A PUSH2 0x15F8 JUMP JUMPDEST DUP1 PUSH1 0x9 SWAP1 DUP1 MLOAD SWAP1 PUSH1 0x20 ADD SWAP1 PUSH2 0xB30 SWAP3 SWAP2 SWAP1 PUSH2 0x1F5D JUMP JUMPDEST POP POP JUMP JUMPDEST PUSH2 0xB3C PUSH2 0x15F8 JUMP JUMPDEST CALLER PUSH20 0xFFFFFFFFFFFFFFFFFFFFFFFFFFFFFFFFFFFFFFFF AND PUSH2 0x8FC SELFBALANCE SWAP1 DUP2 ISZERO MUL SWAP1 PUSH1 0x40 MLOAD PUSH1 0x0 PUSH1 0x40 MLOAD DUP1 DUP4 SUB DUP2 DUP6 DUP9 DUP9 CALL SWAP4 POP POP POP POP ISZERO DUP1 ISZERO PUSH2 0xB82 JUMPI RETURNDATASIZE PUSH1 0x0 DUP1 RETURNDATACOPY RETURNDATASIZE PUSH1 0x0 REVERT JUMPDEST POP JUMP JUMPDEST PUSH1 0x0 DUP1 PUSH1 0x2 PUSH1 0x0 DUP5 DUP2 MSTORE PUSH1 0x20 ADD SWAP1 DUP2 MSTORE PUSH1 0x20 ADD PUSH1 0x0 KECCAK256 PUSH1 0x0 SWAP1 SLOAD SWAP1 PUSH2 0x100 EXP SWAP1 DIV PUSH20 0xFFFFFFFFFFFFFFFFFFFFFFFFFFFFFFFFFFFFFFFF AND SWAP1 POP PUSH1 0x0 PUSH20 0xFFFFFFFFFFFFFFFFFFFFFFFFFFFFFFFFFFFFFFFF AND DUP2 PUSH20 0xFFFFFFFFFFFFFFFFFFFFFFFFFFFFFFFFFFFFFFFF AND EQ ISZERO PUSH2 0xC2E JUMPI PUSH1 0x40 MLOAD PUSH32 0x8C379A000000000000000000000000000000000000000000000000000000000 DUP2 MSTORE PUSH1 0x4 ADD PUSH2 0xC25 SWAP1 PUSH2 0x2947 JUMP JUMPDEST PUSH1 0x40 MLOAD DUP1 SWAP2 SUB SWAP1 REVERT JUMPDEST DUP1 SWAP2 POP POP SWAP2 SWAP1 POP JUMP JUMPDEST PUSH8 0x9B6E64A8EC60000 DUP2 JUMP JUMPDEST PUSH1 0x0 DUP1 PUSH20 0xFFFFFFFFFFFFFFFFFFFFFFFFFFFFFFFFFFFFFFFF AND DUP3 PUSH20 0xFFFFFFFFFFFFFFFFFFFFFFFFFFFFFFFFFFFFFFFF AND EQ ISZERO PUSH2 0xCB4 JUMPI PUSH1 0x40 MLOAD PUSH32 0x8C379A000000000000000000000000000000000000000000000000000000000 DUP2 MSTORE PUSH1 0x4 ADD PUSH2 0xCAB SWAP1 PUSH2 0x28A7 JUMP JUMPDEST PUSH1 0x40 MLOAD DUP1 SWAP2 SUB SWAP1 REVERT JUMPDEST PUSH1 0x3 PUSH1 0x0 DUP4 PUSH20 0xFFFFFFFFFFFFFFFFFFFFFFFFFFFFFFFFFFFFFFFF AND PUSH20 0xFFFFFFFFFFFFFFFFFFFFFFFFFFFFFFFFFFFFFFFF AND DUP2 MSTORE PUSH1 0x20 ADD SWAP1 DUP2 MSTORE PUSH1 0x20 ADD PUSH1 0x0 KECCAK256 SLOAD SWAP1 POP SWAP2 SWAP1 POP JUMP JUMPDEST PUSH2 0xD03 PUSH2 0x15F8 JUMP JUMPDEST PUSH2 0xD0D PUSH1 0x0 PUSH2 0x1676 JUMP JUMPDEST JUMP JUMPDEST PUSH1 0x0 PUSH2 0xD1B PUSH1 0x7 PUSH2 0x12BA JUMP JUMPDEST SWAP1 POP SWAP1 JUMP JUMPDEST PUSH2 0xD28 PUSH2 0x15F8 JUMP JUMPDEST PUSH1 0x8 PUSH1 0x0 SWAP1 SLOAD SWAP1 PUSH2 0x100 EXP SWAP1 DIV PUSH1 0xFF AND ISZERO PUSH1 0x8 PUSH1 0x0 PUSH2 0x100 EXP DUP2 SLOAD DUP2 PUSH1 0xFF MUL NOT AND SWAP1 DUP4 ISZERO ISZERO MUL OR SWAP1 SSTORE POP JUMP JUMPDEST PUSH1 0x0 PUSH1 0x6 PUSH1 0x0 SWAP1 SLOAD SWAP1 PUSH2 0x100 EXP SWAP1 DIV PUSH20 0xFFFFFFFFFFFFFFFFFFFFFFFFFFFFFFFFFFFFFFFF AND SWAP1 POP SWAP1 JUMP JUMPDEST PUSH1 0x60 PUSH1 0x1 DUP1 SLOAD PUSH2 0xD8D SWAP1 PUSH2 0x2C3D JUMP JUMPDEST DUP1 PUSH1 0x1F ADD PUSH1 0x20 DUP1 SWAP2 DIV MUL PUSH1 0x20 ADD PUSH1 0x40 MLOAD SWAP1 DUP2 ADD PUSH1 0x40 MSTORE DUP1 SWAP3 SWAP2 SWAP1 DUP2 DUP2 MSTORE PUSH1 0x20 ADD DUP3 DUP1 SLOAD PUSH2 0xDB9 SWAP1 PUSH2 0x2C3D JUMP JUMPDEST DUP1 ISZERO PUSH2 0xE06 JUMPI DUP1 PUSH1 0x1F LT PUSH2 0xDDB JUMPI PUSH2 0x100 DUP1 DUP4 SLOAD DIV MUL DUP4 MSTORE SWAP2 PUSH1 0x20 ADD SWAP2 PUSH2 0xE06 JUMP JUMPDEST DUP3 ADD SWAP2 SWAP1 PUSH1 0x0 MSTORE PUSH1 0x20 PUSH1 0x0 KECCAK256 SWAP1 JUMPDEST DUP2 SLOAD DUP2 MSTORE SWAP1 PUSH1 0x1 ADD SWAP1 PUSH1 0x20 ADD DUP1 DUP4 GT PUSH2 0xDE9 JUMPI DUP3 SWAP1 SUB PUSH1 0x1F AND DUP3 ADD SWAP2 JUMPDEST POP POP POP POP POP SWAP1 POP SWAP1 JUMP JUMPDEST PUSH1 0x0 DUP1 PUSH2 0xE1D PUSH1 0x7 PUSH2 0x12BA JUMP JUMPDEST SWAP1 POP PUSH1 0x64 DUP2 LT ISZERO PUSH2 0xE39 JUMPI PUSH8 0x6F05B59D3B20000 SWAP2 POP POP PUSH2 0xE60 JUMP JUMPDEST PUSH1 0xFA DUP2 LT ISZERO PUSH2 0xE53 JUMPI PUSH8 0x853A0D2313C0000 SWAP2 POP POP PUSH2 0xE60 JUMP JUMPDEST PUSH8 0x9B6E64A8EC60000 SWAP2 POP POP JUMPDEST SWAP1 JUMP JUMPDEST PUSH2 0xE75 PUSH2 0xE6E PUSH2 0x11F9 JUMP JUMPDEST DUP4 DUP4 PUSH2 0x173C JUMP JUMPDEST POP POP JUMP JUMPDEST PUSH8 0x6F05B59D3B20000 DUP2 JUMP JUMPDEST PUSH2 0xE96 PUSH2 0xE90 PUSH2 0x11F9 JUMP JUMPDEST DUP4 PUSH2 0x12FC JUMP JUMPDEST PUSH2 0xED5 JUMPI PUSH1 0x40 MLOAD PUSH32 0x8C379A000000000000000000000000000000000000000000000000000000000 DUP2 MSTORE PUSH1 0x4 ADD PUSH2 0xECC SWAP1 PUSH2 0x29C7 JUMP JUMPDEST PUSH1 0x40 MLOAD DUP1 SWAP2 SUB SWAP1 REVERT JUMPDEST PUSH2 0xEE1 DUP5 DUP5 DUP5 DUP5 PUSH2 0x18A9 JUMP JUMPDEST POP POP POP POP JUMP JUMPDEST PUSH2 0xEEF PUSH2 0x15F8 JUMP JUMPDEST PUSH2 0x1F4 DUP2 PUSH2 0xEFD PUSH1 0x7 PUSH2 0x12BA JUMP JUMPDEST PUSH2 0xF07 SWAP2 SWAP1 PUSH2 0x2ACC JUMP JUMPDEST GT ISZERO PUSH2 0xF48 JUMPI PUSH1 0x40 MLOAD PUSH32 0x8C379A000000000000000000000000000000000000000000000000000000000 DUP2 MSTORE PUSH1 0x4 ADD PUSH2 0xF3F SWAP1 PUSH2 0x28C7 JUMP JUMPDEST PUSH1 0x40 MLOAD DUP1 SWAP2 SUB SWAP1 REVERT JUMPDEST PUSH1 0x0 JUMPDEST DUP2 DUP2 LT ISZERO PUSH2 0xF83 JUMPI PUSH2 0xF5D PUSH1 0x7 PUSH2 0x12C8 JUMP JUMPDEST PUSH2 0xF70 CALLER PUSH2 0xF6B PUSH1 0x7 PUSH2 0x12BA JUMP JUMPDEST PUSH2 0x12DE JUMP JUMPDEST DUP1 DUP1 PUSH2 0xF7B SWAP1 PUSH2 0x2CA0 JUMP JUMPDEST SWAP2 POP POP PUSH2 0xF4B JUMP JUMPDEST POP POP JUMP JUMPDEST PUSH1 0x60 PUSH2 0xF92 DUP3 PUSH2 0x11AE JUMP JUMPDEST PUSH1 0x0 PUSH2 0xF9C PUSH2 0x1905 JUMP JUMPDEST SWAP1 POP PUSH1 0x0 DUP2 MLOAD GT PUSH2 0xFBC JUMPI PUSH1 0x40 MLOAD DUP1 PUSH1 0x20 ADD PUSH1 0x40 MSTORE DUP1 PUSH1 0x0 DUP2 MSTORE POP PUSH2 0xFE7 JUMP JUMPDEST DUP1 PUSH2 0xFC6 DUP5 PUSH2 0x1997 JUMP JUMPDEST PUSH1 0x40 MLOAD PUSH1 0x20 ADD PUSH2 0xFD7 SWAP3 SWAP2 SWAP1 PUSH2 0x26FF JUMP JUMPDEST PUSH1 0x40 MLOAD PUSH1 0x20 DUP2 DUP4 SUB SUB DUP2 MSTORE SWAP1 PUSH1 0x40 MSTORE JUMPDEST SWAP2 POP POP SWAP2 SWAP1 POP JUMP JUMPDEST PUSH1 0x0 PUSH2 0xFFB PUSH1 0x7 PUSH2 0x12BA JUMP JUMPDEST PUSH2 0x1F4 PUSH2 0x1008 SWAP2 SWAP1 PUSH2 0x2B53 JUMP JUMPDEST SWAP1 POP SWAP1 JUMP JUMPDEST PUSH8 0x853A0D2313C0000 DUP2 JUMP JUMPDEST PUSH1 0x0 PUSH1 0x5 PUSH1 0x0 DUP5 PUSH20 0xFFFFFFFFFFFFFFFFFFFFFFFFFFFFFFFFFFFFFFFF AND PUSH20 0xFFFFFFFFFFFFFFFFFFFFFFFFFFFFFFFFFFFFFFFF AND DUP2 MSTORE PUSH1 0x20 ADD SWAP1 DUP2 MSTORE PUSH1 0x20 ADD PUSH1 0x0 KECCAK256 PUSH1 0x0 DUP4 PUSH20 0xFFFFFFFFFFFFFFFFFFFFFFFFFFFFFFFFFFFFFFFF AND PUSH20 0xFFFFFFFFFFFFFFFFFFFFFFFFFFFFFFFFFFFFFFFF AND DUP2 MSTORE PUSH1 0x20 ADD SWAP1 DUP2 MSTORE PUSH1 0x20 ADD PUSH1 0x0 KECCAK256 PUSH1 0x0 SWAP1 SLOAD SWAP1 PUSH2 0x100 EXP SWAP1 DIV PUSH1 0xFF AND SWAP1 POP SWAP3 SWAP2 POP POP JUMP JUMPDEST PUSH1 0x8 PUSH1 0x0 SWAP1 SLOAD SWAP1 PUSH2 0x100 EXP SWAP1 DIV PUSH1 0xFF AND DUP2 JUMP JUMPDEST PUSH2 0x10C8 PUSH2 0x15F8 JUMP JUMPDEST PUSH1 0x0 PUSH20 0xFFFFFFFFFFFFFFFFFFFFFFFFFFFFFFFFFFFFFFFF AND DUP2 PUSH20 0xFFFFFFFFFFFFFFFFFFFFFFFFFFFFFFFFFFFFFFFF AND EQ ISZERO PUSH2 0x1138 JUMPI PUSH1 0x40 MLOAD PUSH32 0x8C379A000000000000000000000000000000000000000000000000000000000 DUP2 MSTORE PUSH1 0x4 ADD PUSH2 0x112F SWAP1 PUSH2 0x2807 JUMP JUMPDEST PUSH1 0x40 MLOAD DUP1 SWAP2 SUB SWAP1 REVERT JUMPDEST PUSH2 0x1141 DUP2 PUSH2 0x1676 JUMP JUMPDEST POP JUMP JUMPDEST PUSH1 0x0 PUSH32 0x1FFC9A700000000000000000000000000000000000000000000000000000000 PUSH28 0xFFFFFFFFFFFFFFFFFFFFFFFFFFFFFFFFFFFFFFFFFFFFFFFFFFFFFFFF NOT AND DUP3 PUSH28 0xFFFFFFFFFFFFFFFFFFFFFFFFFFFFFFFFFFFFFFFFFFFFFFFFFFFFFFFF NOT AND EQ SWAP1 POP SWAP2 SWAP1 POP JUMP JUMPDEST PUSH2 0x11B7 DUP2 PUSH2 0x1AF8 JUMP JUMPDEST PUSH2 0x11F6 JUMPI PUSH1 0x40 MLOAD PUSH32 0x8C379A000000000000000000000000000000000000000000000000000000000 DUP2 MSTORE PUSH1 0x4 ADD PUSH2 0x11ED SWAP1 PUSH2 0x2947 JUMP JUMPDEST PUSH1 0x40 MLOAD DUP1 SWAP2 SUB SWAP1 REVERT JUMPDEST POP JUMP JUMPDEST PUSH1 0x0 CALLER SWAP1 POP SWAP1 JUMP JUMPDEST DUP2 PUSH1 0x4 PUSH1 0x0 DUP4 DUP2 MSTORE PUSH1 0x20 ADD SWAP1 DUP2 MSTORE PUSH1 0x20 ADD PUSH1 0x0 KECCAK256 PUSH1 0x0 PUSH2 0x100 EXP DUP2 SLOAD DUP2 PUSH20 0xFFFFFFFFFFFFFFFFFFFFFFFFFFFFFFFFFFFFFFFF MUL NOT AND SWAP1 DUP4 PUSH20 0xFFFFFFFFFFFFFFFFFFFFFFFFFFFFFFFFFFFFFFFF AND MUL OR SWAP1 SSTORE POP DUP1 DUP3 PUSH20 0xFFFFFFFFFFFFFFFFFFFFFFFFFFFFFFFFFFFFFFFF AND PUSH2 0x1274 DUP4 PUSH2 0xB85 JUMP JUMPDEST PUSH20 0xFFFFFFFFFFFFFFFFFFFFFFFFFFFFFFFFFFFFFFFF AND PUSH32 0x8C5BE1E5EBEC7D5BD14F71427D1E84F3DD0314C0F7B2291E5B200AC8C7C3B925 PUSH1 0x40 MLOAD PUSH1 0x40 MLOAD DUP1 SWAP2 SUB SWAP1 LOG4 POP POP JUMP JUMPDEST PUSH1 0x0 DUP2 PUSH1 0x0 ADD SLOAD SWAP1 POP SWAP2 SWAP1 POP JUMP JUMPDEST PUSH1 0x1 DUP2 PUSH1 0x0 ADD PUSH1 0x0 DUP3 DUP3 SLOAD ADD SWAP3 POP POP DUP2 SWAP1 SSTORE POP POP JUMP JUMPDEST PUSH2 0x12F8 DUP3 DUP3 PUSH1 0x40 MLOAD DUP1 PUSH1 0x20 ADD PUSH1 0x40 MSTORE DUP1 PUSH1 0x0 DUP2 MSTORE POP PUSH2 0x1B64 JUMP JUMPDEST POP POP JUMP JUMPDEST PUSH1 0x0 DUP1 PUSH2 0x1308 DUP4 PUSH2 0xB85 JUMP JUMPDEST SWAP1 POP DUP1 PUSH20 0xFFFFFFFFFFFFFFFFFFFFFFFFFFFFFFFFFFFFFFFF AND DUP5 PUSH20 0xFFFFFFFFFFFFFFFFFFFFFFFFFFFFFFFFFFFFFFFF AND EQ DUP1 PUSH2 0x134A JUMPI POP PUSH2 0x1349 DUP2 DUP6 PUSH2 0x1019 JUMP JUMPDEST JUMPDEST DUP1 PUSH2 0x1388 JUMPI POP DUP4 PUSH20 0xFFFFFFFFFFFFFFFFFFFFFFFFFFFFFFFFFFFFFFFF AND PUSH2 0x1370 DUP5 PUSH2 0x819 JUMP JUMPDEST PUSH20 0xFFFFFFFFFFFFFFFFFFFFFFFFFFFFFFFFFFFFFFFF AND EQ JUMPDEST SWAP2 POP POP SWAP3 SWAP2 POP POP JUMP JUMPDEST DUP3 PUSH20 0xFFFFFFFFFFFFFFFFFFFFFFFFFFFFFFFFFFFFFFFF AND PUSH2 0x13B1 DUP3 PUSH2 0xB85 JUMP JUMPDEST PUSH20 0xFFFFFFFFFFFFFFFFFFFFFFFFFFFFFFFFFFFFFFFF AND EQ PUSH2 0x1407 JUMPI PUSH1 0x40 MLOAD PUSH32 0x8C379A000000000000000000000000000000000000000000000000000000000 DUP2 MSTORE PUSH1 0x4 ADD PUSH2 0x13FE SWAP1 PUSH2 0x2827 JUMP JUMPDEST PUSH1 0x40 MLOAD DUP1 SWAP2 SUB SWAP1 REVERT JUMPDEST PUSH1 0x0 PUSH20 0xFFFFFFFFFFFFFFFFFFFFFFFFFFFFFFFFFFFFFFFF AND DUP3 PUSH20 0xFFFFFFFFFFFFFFFFFFFFFFFFFFFFFFFFFFFFFFFF AND EQ ISZERO PUSH2 0x1477 JUMPI PUSH1 0x40 MLOAD PUSH32 0x8C379A000000000000000000000000000000000000000000000000000000000 DUP2 MSTORE PUSH1 0x4 ADD PUSH2 0x146E SWAP1 PUSH2 0x2867 JUMP JUMPDEST PUSH1 0x40 MLOAD DUP1 SWAP2 SUB SWAP1 REVERT JUMPDEST PUSH2 0x1482 DUP4 DUP4 DUP4 PUSH2 0x1BBF JUMP JUMPDEST PUSH2 0x148D PUSH1 0x0 DUP3 PUSH2 0x1201 JUMP JUMPDEST PUSH1 0x1 PUSH1 0x3 PUSH1 0x0 DUP6 PUSH20 0xFFFFFFFFFFFFFFFFFFFFFFFFFFFFFFFFFFFFFFFF AND PUSH20 0xFFFFFFFFFFFFFFFFFFFFFFFFFFFFFFFFFFFFFFFF AND DUP2 MSTORE PUSH1 0x20 ADD SWAP1 DUP2 MSTORE PUSH1 0x20 ADD PUSH1 0x0 KECCAK256 PUSH1 0x0 DUP3 DUP3 SLOAD PUSH2 0x14DD SWAP2 SWAP1 PUSH2 0x2B53 JUMP JUMPDEST SWAP3 POP POP DUP2 SWAP1 SSTORE POP PUSH1 0x1 PUSH1 0x3 PUSH1 0x0 DUP5 PUSH20 0xFFFFFFFFFFFFFFFFFFFFFFFFFFFFFFFFFFFFFFFF AND PUSH20 0xFFFFFFFFFFFFFFFFFFFFFFFFFFFFFFFFFFFFFFFF AND DUP2 MSTORE PUSH1 0x20 ADD SWAP1 DUP2 MSTORE PUSH1 0x20 ADD PUSH1 0x0 KECCAK256 PUSH1 0x0 DUP3 DUP3 SLOAD PUSH2 0x1534 SWAP2 SWAP1 PUSH2 0x2ACC JUMP JUMPDEST SWAP3 POP POP DUP2 SWAP1 SSTORE POP DUP2 PUSH1 0x2 PUSH1 0x0 DUP4 DUP2 MSTORE PUSH1 0x20 ADD SWAP1 DUP2 MSTORE PUSH1 0x20 ADD PUSH1 0x0 KECCAK256 PUSH1 0x0 PUSH2 0x100 EXP DUP2 SLOAD DUP2 PUSH20 0xFFFFFFFFFFFFFFFFFFFFFFFFFFFFFFFFFFFFFFFF MUL NOT AND SWAP1 DUP4 PUSH20 0xFFFFFFFFFFFFFFFFFFFFFFFFFFFFFFFFFFFFFFFF AND MUL OR SWAP1 SSTORE POP DUP1 DUP3 PUSH20 0xFFFFFFFFFFFFFFFFFFFFFFFFFFFFFFFFFFFFFFFF AND DUP5 PUSH20 0xFFFFFFFFFFFFFFFFFFFFFFFFFFFFFFFFFFFFFFFF AND PUSH32 0xDDF252AD1BE2C89B69C2B068FC378DAA952BA7F163C4A11628F55A4DF523B3EF PUSH1 0x40 MLOAD PUSH1 0x40 MLOAD DUP1 SWAP2 SUB SWAP1 LOG4 PUSH2 0x15F3 DUP4 DUP4 DUP4 PUSH2 0x1BC4 JUMP JUMPDEST POP POP POP JUMP JUMPDEST PUSH2 0x1600 PUSH2 0x11F9 JUMP JUMPDEST PUSH20 0xFFFFFFFFFFFFFFFFFFFFFFFFFFFFFFFFFFFFFFFF AND PUSH2 0x161E PUSH2 0xD54 JUMP JUMPDEST PUSH20 0xFFFFFFFFFFFFFFFFFFFFFFFFFFFFFFFFFFFFFFFF AND EQ PUSH2 0x1674 JUMPI PUSH1 0x40 MLOAD PUSH32 0x8C379A000000000000000000000000000000000000000000000000000000000 DUP2 MSTORE PUSH1 0x4 ADD PUSH2 0x166B SWAP1 PUSH2 0x2927 JUMP JUMPDEST PUSH1 0x40 MLOAD DUP1 SWAP2 SUB SWAP1 REVERT JUMPDEST JUMP JUMPDEST PUSH1 0x0 PUSH1 0x6 PUSH1 0x0 SWAP1 SLOAD SWAP1 PUSH2 0x100 EXP SWAP1 DIV PUSH20 0xFFFFFFFFFFFFFFFFFFFFFFFFFFFFFFFFFFFFFFFF AND SWAP1 POP DUP2 PUSH1 0x6 PUSH1 0x0 PUSH2 0x100 EXP DUP2 SLOAD DUP2 PUSH20 0xFFFFFFFFFFFFFFFFFFFFFFFFFFFFFFFFFFFFFFFF MUL NOT AND SWAP1 DUP4 PUSH20 0xFFFFFFFFFFFFFFFFFFFFFFFFFFFFFFFFFFFFFFFF AND MUL OR SWAP1 SSTORE POP DUP2 PUSH20 0xFFFFFFFFFFFFFFFFFFFFFFFFFFFFFFFFFFFFFFFF AND DUP2 PUSH20 0xFFFFFFFFFFFFFFFFFFFFFFFFFFFFFFFFFFFFFFFF AND PUSH32 0x8BE0079C531659141344CD1FD0A4F28419497F9722A3DAAFE3B4186F6B6457E0 PUSH1 0x40 MLOAD PUSH1 0x40 MLOAD DUP1 SWAP2 SUB SWAP1 LOG3 POP POP JUMP JUMPDEST DUP2 PUSH20 0xFFFFFFFFFFFFFFFFFFFFFFFFFFFFFFFFFFFFFFFF AND DUP4 PUSH20 0xFFFFFFFFFFFFFFFFFFFFFFFFFFFFFFFFFFFFFFFF AND EQ ISZERO PUSH2 0x17AB JUMPI PUSH1 0x40 MLOAD PUSH32 0x8C379A000000000000000000000000000000000000000000000000000000000 DUP2 MSTORE PUSH1 0x4 ADD PUSH2 0x17A2 SWAP1 PUSH2 0x2887 JUMP JUMPDEST PUSH1 0x40 MLOAD DUP1 SWAP2 SUB SWAP1 REVERT JUMPDEST DUP1 PUSH1 0x5 PUSH1 0x0 DUP6 PUSH20 0xFFFFFFFFFFFFFFFFFFFFFFFFFFFFFFFFFFFFFFFF AND PUSH20 0xFFFFFFFFFFFFFFFFFFFFFFFFFFFFFFFFFFFFFFFF AND DUP2 MSTORE PUSH1 0x20 ADD SWAP1 DUP2 MSTORE PUSH1 0x20 ADD PUSH1 0x0 KECCAK256 PUSH1 0x0 DUP5 PUSH20 0xFFFFFFFFFFFFFFFFFFFFFFFFFFFFFFFFFFFFFFFF AND PUSH20 0xFFFFFFFFFFFFFFFFFFFFFFFFFFFFFFFFFFFFFFFF AND DUP2 MSTORE PUSH1 0x20 ADD SWAP1 DUP2 MSTORE PUSH1 0x20 ADD PUSH1 0x0 KECCAK256 PUSH1 0x0 PUSH2 0x100 EXP DUP2 SLOAD DUP2 PUSH1 0xFF MUL NOT AND SWAP1 DUP4 ISZERO ISZERO MUL OR SWAP1 SSTORE POP DUP2 PUSH20 0xFFFFFFFFFFFFFFFFFFFFFFFFFFFFFFFFFFFFFFFF AND DUP4 PUSH20 0xFFFFFFFFFFFFFFFFFFFFFFFFFFFFFFFFFFFFFFFF AND PUSH32 0x17307EAB39AB6107E8899845AD3D59BD9653F200F220920489CA2B5937696C31 DUP4 PUSH1 0x40 MLOAD PUSH2 0x189C SWAP2 SWAP1 PUSH2 0x278A JUMP JUMPDEST PUSH1 0x40 MLOAD DUP1 SWAP2 SUB SWAP1 LOG3 POP POP POP JUMP JUMPDEST PUSH2 0x18B4 DUP5 DUP5 DUP5 PUSH2 0x1391 JUMP JUMPDEST PUSH2 0x18C0 DUP5 DUP5 DUP5 DUP5 PUSH2 0x1BC9 JUMP JUMPDEST PUSH2 0x18FF JUMPI PUSH1 0x40 MLOAD PUSH32 0x8C379A000000000000000000000000000000000000000000000000000000000 DUP2 MSTORE PUSH1 0x4 ADD PUSH2 0x18F6 SWAP1 PUSH2 0x27E7 JUMP JUMPDEST PUSH1 0x40 MLOAD DUP1 SWAP2 SUB SWAP1 REVERT JUMPDEST POP POP POP POP JUMP JUMPDEST PUSH1 0x60 PUSH1 0x9 DUP1 SLOAD PUSH2 0x1914 SWAP1 PUSH2 0x2C3D JUMP JUMPDEST DUP1 PUSH1 0x1F ADD PUSH1 0x20 DUP1 SWAP2 DIV MUL PUSH1 0x20 ADD PUSH1 0x40 MLOAD SWAP1 DUP2 ADD PUSH1 0x40 MSTORE DUP1 SWAP3 SWAP2 SWAP1 DUP2 DUP2 MSTORE PUSH1 0x20 ADD DUP3 DUP1 SLOAD PUSH2 0x1940 SWAP1 PUSH2 0x2C3D JUMP JUMPDEST DUP1 ISZERO PUSH2 0x198D JUMPI DUP1 PUSH1 0x1F LT PUSH2 0x1962 JUMPI PUSH2 0x100 DUP1 DUP4 SLOAD DIV MUL DUP4 MSTORE SWAP2 PUSH1 0x20 ADD SWAP2 PUSH2 0x198D JUMP JUMPDEST DUP3 ADD SWAP2 SWAP1 PUSH1 0x0 MSTORE PUSH1 0x20 PUSH1 0x0 KECCAK256 SWAP1 JUMPDEST DUP2 SLOAD DUP2 MSTORE SWAP1 PUSH1 0x1 ADD SWAP1 PUSH1 0x20 ADD DUP1 DUP4 GT PUSH2 0x1970 JUMPI DUP3 SWAP1 SUB PUSH1 0x1F AND DUP3 ADD SWAP2 JUMPDEST POP POP POP POP POP SWAP1 POP SWAP1 JUMP JUMPDEST PUSH1 0x60 PUSH1 0x0 DUP3 EQ ISZERO PUSH2 0x19DF JUMPI PUSH1 0x40 MLOAD DUP1 PUSH1 0x40 ADD PUSH1 0x40 MSTORE DUP1 PUSH1 0x1 DUP2 MSTORE PUSH1 0x20 ADD PUSH32 0x3000000000000000000000000000000000000000000000000000000000000000 DUP2 MSTORE POP SWAP1 POP PUSH2 0x1AF3 JUMP JUMPDEST PUSH1 0x0 DUP3 SWAP1 POP PUSH1 0x0 JUMPDEST PUSH1 0x0 DUP3 EQ PUSH2 0x1A11 JUMPI DUP1 DUP1 PUSH2 0x19FA SWAP1 PUSH2 0x2CA0 JUMP JUMPDEST SWAP2 POP POP PUSH1 0xA DUP3 PUSH2 0x1A0A SWAP2 SWAP1 PUSH2 0x2B22 JUMP JUMPDEST SWAP2 POP PUSH2 0x19E7 JUMP JUMPDEST PUSH1 0x0 DUP2 PUSH8 0xFFFFFFFFFFFFFFFF DUP2 GT ISZERO PUSH2 0x1A2D JUMPI PUSH2 0x1A2C PUSH2 0x2DD6 JUMP JUMPDEST JUMPDEST PUSH1 0x40 MLOAD SWAP1 DUP1 DUP3 MSTORE DUP1 PUSH1 0x1F ADD PUSH1 0x1F NOT AND PUSH1 0x20 ADD DUP3 ADD PUSH1 0x40 MSTORE DUP1 ISZERO PUSH2 0x1A5F JUMPI DUP2 PUSH1 0x20 ADD PUSH1 0x1 DUP3 MUL DUP1 CALLDATASIZE DUP4 CALLDATACOPY DUP1 DUP3 ADD SWAP2 POP POP SWAP1 POP JUMPDEST POP SWAP1 POP JUMPDEST PUSH1 0x0 DUP6 EQ PUSH2 0x1AEC JUMPI PUSH1 0x1 DUP3 PUSH2 0x1A78 SWAP2 SWAP1 PUSH2 0x2B53 JUMP JUMPDEST SWAP2 POP PUSH1 0xA DUP6 PUSH2 0x1A87 SWAP2 SWAP1 PUSH2 0x2CE9 JUMP JUMPDEST PUSH1 0x30 PUSH2 0x1A93 SWAP2 SWAP1 PUSH2 0x2ACC JUMP JUMPDEST PUSH1 0xF8 SHL DUP2 DUP4 DUP2 MLOAD DUP2 LT PUSH2 0x1AA9 JUMPI PUSH2 0x1AA8 PUSH2 0x2DA7 JUMP JUMPDEST JUMPDEST PUSH1 0x20 ADD ADD SWAP1 PUSH31 0xFFFFFFFFFFFFFFFFFFFFFFFFFFFFFFFFFFFFFFFFFFFFFFFFFFFFFFFFFFFFFF NOT AND SWAP1 DUP2 PUSH1 0x0 BYTE SWAP1 MSTORE8 POP PUSH1 0xA DUP6 PUSH2 0x1AE5 SWAP2 SWAP1 PUSH2 0x2B22 JUMP JUMPDEST SWAP5 POP PUSH2 0x1A63 JUMP JUMPDEST DUP1 SWAP4 POP POP POP POP JUMPDEST SWAP2 SWAP1 POP JUMP JUMPDEST PUSH1 0x0 DUP1 PUSH20 0xFFFFFFFFFFFFFFFFFFFFFFFFFFFFFFFFFFFFFFFF AND PUSH1 0x2 PUSH1 0x0 DUP5 DUP2 MSTORE PUSH1 0x20 ADD SWAP1 DUP2 MSTORE PUSH1 0x20 ADD PUSH1 0x0 KECCAK256 PUSH1 0x0 SWAP1 SLOAD SWAP1 PUSH2 0x100 EXP SWAP1 DIV PUSH20 0xFFFFFFFFFFFFFFFFFFFFFFFFFFFFFFFFFFFFFFFF AND PUSH20 0xFFFFFFFFFFFFFFFFFFFFFFFFFFFFFFFFFFFFFFFF AND EQ ISZERO SWAP1 POP SWAP2 SWAP1 POP JUMP JUMPDEST PUSH2 0x1B6E DUP4 DUP4 PUSH2 0x1D60 JUMP JUMPDEST PUSH2 0x1B7B PUSH1 0x0 DUP5 DUP5 DUP5 PUSH2 0x1BC9 JUMP JUMPDEST PUSH2 0x1BBA JUMPI PUSH1 0x40 MLOAD PUSH32 0x8C379A000000000000000000000000000000000000000000000000000000000 DUP2 MSTORE PUSH1 0x4 ADD PUSH2 0x1BB1 SWAP1 PUSH2 0x27E7 JUMP JUMPDEST PUSH1 0x40 MLOAD DUP1 SWAP2 SUB SWAP1 REVERT JUMPDEST POP POP POP JUMP JUMPDEST POP POP POP JUMP JUMPDEST POP POP POP JUMP JUMPDEST PUSH1 0x0 PUSH2 0x1BEA DUP5 PUSH20 0xFFFFFFFFFFFFFFFFFFFFFFFFFFFFFFFFFFFFFFFF AND PUSH2 0x1F3A JUMP JUMPDEST ISZERO PUSH2 0x1D53 JUMPI DUP4 PUSH20 0xFFFFFFFFFFFFFFFFFFFFFFFFFFFFFFFFFFFFFFFF AND PUSH4 0x150B7A02 PUSH2 0x1C13 PUSH2 0x11F9 JUMP JUMPDEST DUP8 DUP7 DUP7 PUSH1 0x40 MLOAD DUP6 PUSH4 0xFFFFFFFF AND PUSH1 0xE0 SHL DUP2 MSTORE PUSH1 0x4 ADD PUSH2 0x1C35 SWAP5 SWAP4 SWAP3 SWAP2 SWAP1 PUSH2 0x273E JUMP JUMPDEST PUSH1 0x20 PUSH1 0x40 MLOAD DUP1 DUP4 SUB DUP2 PUSH1 0x0 DUP8 DUP1 EXTCODESIZE ISZERO DUP1 ISZERO PUSH2 0x1C4F JUMPI PUSH1 0x0 DUP1 REVERT JUMPDEST POP GAS CALL SWAP3 POP POP POP DUP1 ISZERO PUSH2 0x1C80 JUMPI POP PUSH1 0x40 MLOAD RETURNDATASIZE PUSH1 0x1F NOT PUSH1 0x1F DUP3 ADD AND DUP3 ADD DUP1 PUSH1 0x40 MSTORE POP DUP2 ADD SWAP1 PUSH2 0x1C7D SWAP2 SWAP1 PUSH2 0x2339 JUMP JUMPDEST PUSH1 0x1 JUMPDEST PUSH2 0x1D03 JUMPI RETURNDATASIZE DUP1 PUSH1 0x0 DUP2 EQ PUSH2 0x1CB0 JUMPI PUSH1 0x40 MLOAD SWAP2 POP PUSH1 0x1F NOT PUSH1 0x3F RETURNDATASIZE ADD AND DUP3 ADD PUSH1 0x40 MSTORE RETURNDATASIZE DUP3 MSTORE RETURNDATASIZE PUSH1 0x0 PUSH1 0x20 DUP5 ADD RETURNDATACOPY PUSH2 0x1CB5 JUMP JUMPDEST PUSH1 0x60 SWAP2 POP JUMPDEST POP PUSH1 0x0 DUP2 MLOAD EQ ISZERO PUSH2 0x1CFB JUMPI PUSH1 0x40 MLOAD PUSH32 0x8C379A000000000000000000000000000000000000000000000000000000000 DUP2 MSTORE PUSH1 0x4 ADD PUSH2 0x1CF2 SWAP1 PUSH2 0x27E7 JUMP JUMPDEST PUSH1 0x40 MLOAD DUP1 SWAP2 SUB SWAP1 REVERT JUMPDEST DUP1 MLOAD DUP2 PUSH1 0x20 ADD REVERT JUMPDEST PUSH4 0x150B7A02 PUSH1 0xE0 SHL PUSH28 0xFFFFFFFFFFFFFFFFFFFFFFFFFFFFFFFFFFFFFFFFFFFFFFFFFFFFFFFF NOT AND DUP2 PUSH28 0xFFFFFFFFFFFFFFFFFFFFFFFFFFFFFFFFFFFFFFFFFFFFFFFFFFFFFFFF NOT AND EQ SWAP2 POP POP PUSH2 0x1D58 JUMP JUMPDEST PUSH1 0x1 SWAP1 POP JUMPDEST SWAP5 SWAP4 POP POP POP POP JUMP JUMPDEST PUSH1 0x0 PUSH20 0xFFFFFFFFFFFFFFFFFFFFFFFFFFFFFFFFFFFFFFFF AND DUP3 PUSH20 0xFFFFFFFFFFFFFFFFFFFFFFFFFFFFFFFFFFFFFFFF AND EQ ISZERO PUSH2 0x1DD0 JUMPI PUSH1 0x40 MLOAD PUSH32 0x8C379A000000000000000000000000000000000000000000000000000000000 DUP2 MSTORE PUSH1 0x4 ADD PUSH2 0x1DC7 SWAP1 PUSH2 0x2907 JUMP JUMPDEST PUSH1 0x40 MLOAD DUP1 SWAP2 SUB SWAP1 REVERT JUMPDEST PUSH2 0x1DD9 DUP2 PUSH2 0x1AF8 JUMP JUMPDEST ISZERO PUSH2 0x1E19 JUMPI PUSH1 0x40 MLOAD PUSH32 0x8C379A000000000000000000000000000000000000000000000000000000000 DUP2 MSTORE PUSH1 0x4 ADD PUSH2 0x1E10 SWAP1 PUSH2 0x2847 JUMP JUMPDEST PUSH1 0x40 MLOAD DUP1 SWAP2 SUB SWAP1 REVERT JUMPDEST PUSH2 0x1E25 PUSH1 0x0 DUP4 DUP4 PUSH2 0x1BBF JUMP JUMPDEST PUSH1 0x1 PUSH1 0x3 PUSH1 0x0 DUP5 PUSH20 0xFFFFFFFFFFFFFFFFFFFFFFFFFFFFFFFFFFFFFFFF AND PUSH20 0xFFFFFFFFFFFFFFFFFFFFFFFFFFFFFFFFFFFFFFFF AND DUP2 MSTORE PUSH1 0x20 ADD SWAP1 DUP2 MSTORE PUSH1 0x20 ADD PUSH1 0x0 KECCAK256 PUSH1 0x0 DUP3 DUP3 SLOAD PUSH2 0x1E75 SWAP2 SWAP1 PUSH2 0x2ACC JUMP JUMPDEST SWAP3 POP POP DUP2 SWAP1 SSTORE POP DUP2 PUSH1 0x2 PUSH1 0x0 DUP4 DUP2 MSTORE PUSH1 0x20 ADD SWAP1 DUP2 MSTORE PUSH1 0x20 ADD PUSH1 0x0 KECCAK256 PUSH1 0x0 PUSH2 0x100 EXP DUP2 SLOAD DUP2 PUSH20 0xFFFFFFFFFFFFFFFFFFFFFFFFFFFFFFFFFFFFFFFF MUL NOT AND SWAP1 DUP4 PUSH20 0xFFFFFFFFFFFFFFFFFFFFFFFFFFFFFFFFFFFFFFFF AND MUL OR SWAP1 SSTORE POP DUP1 DUP3 PUSH20 0xFFFFFFFFFFFFFFFFFFFFFFFFFFFFFFFFFFFFFFFF AND PUSH1 0x0 PUSH20 0xFFFFFFFFFFFFFFFFFFFFFFFFFFFFFFFFFFFFFFFF AND PUSH32 0xDDF252AD1BE2C89B69C2B068FC378DAA952BA7F163C4A11628F55A4DF523B3EF PUSH1 0x40 MLOAD PUSH1 0x40 MLOAD DUP1 SWAP2 SUB SWAP1 LOG4 PUSH2 0x1F36 PUSH1 0x0 DUP4 DUP4 PUSH2 0x1BC4 JUMP JUMPDEST POP POP JUMP JUMPDEST PUSH1 0x0 DUP1 DUP3 PUSH20 0xFFFFFFFFFFFFFFFFFFFFFFFFFFFFFFFFFFFFFFFF AND EXTCODESIZE GT SWAP1 POP SWAP2 SWAP1 POP JUMP JUMPDEST DUP3 DUP1 SLOAD PUSH2 0x1F69 SWAP1 PUSH2 0x2C3D JUMP JUMPDEST SWAP1 PUSH1 0x0 MSTORE PUSH1 0x20 PUSH1 0x0 KECCAK256 SWAP1 PUSH1 0x1F ADD PUSH1 0x20 SWAP1 DIV DUP2 ADD SWAP3 DUP3 PUSH2 0x1F8B JUMPI PUSH1 0x0 DUP6 SSTORE PUSH2 0x1FD2 JUMP JUMPDEST DUP3 PUSH1 0x1F LT PUSH2 0x1FA4 JUMPI DUP1 MLOAD PUSH1 0xFF NOT AND DUP4 DUP1 ADD OR DUP6 SSTORE PUSH2 0x1FD2 JUMP JUMPDEST DUP3 DUP1 ADD PUSH1 0x1 ADD DUP6 SSTORE DUP3 ISZERO PUSH2 0x1FD2 JUMPI SWAP2 DUP3 ADD JUMPDEST DUP3 DUP2 GT ISZERO PUSH2 0x1FD1 JUMPI DUP3 MLOAD DUP3 SSTORE SWAP2 PUSH1 0x20 ADD SWAP2 SWAP1 PUSH1 0x1 ADD SWAP1 PUSH2 0x1FB6 JUMP JUMPDEST JUMPDEST POP SWAP1 POP PUSH2 0x1FDF SWAP2 SWAP1 PUSH2 0x1FE3 JUMP JUMPDEST POP SWAP1 JUMP JUMPDEST JUMPDEST DUP1 DUP3 GT ISZERO PUSH2 0x1FFC JUMPI PUSH1 0x0 DUP2 PUSH1 0x0 SWAP1 SSTORE POP PUSH1 0x1 ADD PUSH2 0x1FE4 JUMP JUMPDEST POP SWAP1 JUMP JUMPDEST PUSH1 0x0 PUSH2 0x2013 PUSH2 0x200E DUP5 PUSH2 0x2A27 JUMP JUMPDEST PUSH2 0x2A02 JUMP JUMPDEST SWAP1 POP DUP3 DUP2 MSTORE PUSH1 0x20 DUP2 ADD DUP5 DUP5 DUP5 ADD GT ISZERO PUSH2 0x202F JUMPI PUSH2 0x202E PUSH2 0x2E0A JUMP JUMPDEST JUMPDEST PUSH2 0x203A DUP5 DUP3 DUP6 PUSH2 0x2BFB JUMP JUMPDEST POP SWAP4 SWAP3 POP POP POP JUMP JUMPDEST PUSH1 0x0 PUSH2 0x2055 PUSH2 0x2050 DUP5 PUSH2 0x2A58 JUMP JUMPDEST PUSH2 0x2A02 JUMP JUMPDEST SWAP1 POP DUP3 DUP2 MSTORE PUSH1 0x20 DUP2 ADD DUP5 DUP5 DUP5 ADD GT ISZERO PUSH2 0x2071 JUMPI PUSH2 0x2070 PUSH2 0x2E0A JUMP JUMPDEST JUMPDEST PUSH2 0x207C DUP5 DUP3 DUP6 PUSH2 0x2BFB JUMP JUMPDEST POP SWAP4 SWAP3 POP POP POP JUMP JUMPDEST PUSH1 0x0 DUP2 CALLDATALOAD SWAP1 POP PUSH2 0x2093 DUP2 PUSH2 0x3213 JUMP JUMPDEST SWAP3 SWAP2 POP POP JUMP JUMPDEST PUSH1 0x0 DUP2 CALLDATALOAD SWAP1 POP PUSH2 0x20A8 DUP2 PUSH2 0x322A JUMP JUMPDEST SWAP3 SWAP2 POP POP JUMP JUMPDEST PUSH1 0x0 DUP2 CALLDATALOAD SWAP1 POP PUSH2 0x20BD DUP2 PUSH2 0x3241 JUMP JUMPDEST SWAP3 SWAP2 POP POP JUMP JUMPDEST PUSH1 0x0 DUP2 MLOAD SWAP1 POP PUSH2 0x20D2 DUP2 PUSH2 0x3241 JUMP JUMPDEST SWAP3 SWAP2 POP POP JUMP JUMPDEST PUSH1 0x0 DUP3 PUSH1 0x1F DUP4 ADD SLT PUSH2 0x20ED JUMPI PUSH2 0x20EC PUSH2 0x2E05 JUMP JUMPDEST JUMPDEST DUP2 CALLDATALOAD PUSH2 0x20FD DUP5 DUP3 PUSH1 0x20 DUP7 ADD PUSH2 0x2000 JUMP JUMPDEST SWAP2 POP POP SWAP3 SWAP2 POP POP JUMP JUMPDEST PUSH1 0x0 DUP3 PUSH1 0x1F DUP4 ADD SLT PUSH2 0x211B JUMPI PUSH2 0x211A PUSH2 0x2E05 JUMP JUMPDEST JUMPDEST DUP2 CALLDATALOAD PUSH2 0x212B DUP5 DUP3 PUSH1 0x20 DUP7 ADD PUSH2 0x2042 JUMP JUMPDEST SWAP2 POP POP SWAP3 SWAP2 POP POP JUMP JUMPDEST PUSH1 0x0 DUP2 CALLDATALOAD SWAP1 POP PUSH2 0x2143 DUP2 PUSH2 0x3258 JUMP JUMPDEST SWAP3 SWAP2 POP POP JUMP JUMPDEST PUSH1 0x0 PUSH1 0x20 DUP3 DUP5 SUB SLT ISZERO PUSH2 0x215F JUMPI PUSH2 0x215E PUSH2 0x2E14 JUMP JUMPDEST JUMPDEST PUSH1 0x0 PUSH2 0x216D DUP5 DUP3 DUP6 ADD PUSH2 0x2084 JUMP JUMPDEST SWAP2 POP POP SWAP3 SWAP2 POP POP JUMP JUMPDEST PUSH1 0x0 DUP1 PUSH1 0x40 DUP4 DUP6 SUB SLT ISZERO PUSH2 0x218D JUMPI PUSH2 0x218C PUSH2 0x2E14 JUMP JUMPDEST JUMPDEST PUSH1 0x0 PUSH2 0x219B DUP6 DUP3 DUP7 ADD PUSH2 0x2084 JUMP JUMPDEST SWAP3 POP POP PUSH1 0x20 PUSH2 0x21AC DUP6 DUP3 DUP7 ADD PUSH2 0x2084 JUMP JUMPDEST SWAP2 POP POP SWAP3 POP SWAP3 SWAP1 POP JUMP JUMPDEST PUSH1 0x0 DUP1 PUSH1 0x0 PUSH1 0x60 DUP5 DUP7 SUB SLT ISZERO PUSH2 0x21CF JUMPI PUSH2 0x21CE PUSH2 0x2E14 JUMP JUMPDEST JUMPDEST PUSH1 0x0 PUSH2 0x21DD DUP7 DUP3 DUP8 ADD PUSH2 0x2084 JUMP JUMPDEST SWAP4 POP POP PUSH1 0x20 PUSH2 0x21EE DUP7 DUP3 DUP8 ADD PUSH2 0x2084 JUMP JUMPDEST SWAP3 POP POP PUSH1 0x40 PUSH2 0x21FF DUP7 DUP3 DUP8 ADD PUSH2 0x2134 JUMP JUMPDEST SWAP2 POP POP SWAP3 POP SWAP3 POP SWAP3 JUMP JUMPDEST PUSH1 0x0 DUP1 PUSH1 0x0 DUP1 PUSH1 0x80 DUP6 DUP8 SUB SLT ISZERO PUSH2 0x2223 JUMPI PUSH2 0x2222 PUSH2 0x2E14 JUMP JUMPDEST JUMPDEST PUSH1 0x0 PUSH2 0x2231 DUP8 DUP3 DUP9 ADD PUSH2 0x2084 JUMP JUMPDEST SWAP5 POP POP PUSH1 0x20 PUSH2 0x2242 DUP8 DUP3 DUP9 ADD PUSH2 0x2084 JUMP JUMPDEST SWAP4 POP POP PUSH1 0x40 PUSH2 0x2253 DUP8 DUP3 DUP9 ADD PUSH2 0x2134 JUMP JUMPDEST SWAP3 POP POP PUSH1 0x60 DUP6 ADD CALLDATALOAD PUSH8 0xFFFFFFFFFFFFFFFF DUP2 GT ISZERO PUSH2 0x2274 JUMPI PUSH2 0x2273 PUSH2 0x2E0F JUMP JUMPDEST JUMPDEST PUSH2 0x2280 DUP8 DUP3 DUP9 ADD PUSH2 0x20D8 JUMP JUMPDEST SWAP2 POP POP SWAP3 SWAP6 SWAP2 SWAP5 POP SWAP3 POP JUMP JUMPDEST PUSH1 0x0 DUP1 PUSH1 0x40 DUP4 DUP6 SUB SLT ISZERO PUSH2 0x22A3 JUMPI PUSH2 0x22A2 PUSH2 0x2E14 JUMP JUMPDEST JUMPDEST PUSH1 0x0 PUSH2 0x22B1 DUP6 DUP3 DUP7 ADD PUSH2 0x2084 JUMP JUMPDEST SWAP3 POP POP PUSH1 0x20 PUSH2 0x22C2 DUP6 DUP3 DUP7 ADD PUSH2 0x2099 JUMP JUMPDEST SWAP2 POP POP SWAP3 POP SWAP3 SWAP1 POP JUMP JUMPDEST PUSH1 0x0 DUP1 PUSH1 0x40 DUP4 DUP6 SUB SLT ISZERO PUSH2 0x22E3 JUMPI PUSH2 0x22E2 PUSH2 0x2E14 JUMP JUMPDEST JUMPDEST PUSH1 0x0 PUSH2 0x22F1 DUP6 DUP3 DUP7 ADD PUSH2 0x2084 JUMP JUMPDEST SWAP3 POP POP PUSH1 0x20 PUSH2 0x2302 DUP6 DUP3 DUP7 ADD PUSH2 0x2134 JUMP JUMPDEST SWAP2 POP POP SWAP3 POP SWAP3 SWAP1 POP JUMP JUMPDEST PUSH1 0x0 PUSH1 0x20 DUP3 DUP5 SUB SLT ISZERO PUSH2 0x2322 JUMPI PUSH2 0x2321 PUSH2 0x2E14 JUMP JUMPDEST JUMPDEST PUSH1 0x0 PUSH2 0x2330 DUP5 DUP3 DUP6 ADD PUSH2 0x20AE JUMP JUMPDEST SWAP2 POP POP SWAP3 SWAP2 POP POP JUMP JUMPDEST PUSH1 0x0 PUSH1 0x20 DUP3 DUP5 SUB SLT ISZERO PUSH2 0x234F JUMPI PUSH2 0x234E PUSH2 0x2E14 JUMP JUMPDEST JUMPDEST PUSH1 0x0 PUSH2 0x235D DUP5 DUP3 DUP6 ADD PUSH2 0x20C3 JUMP JUMPDEST SWAP2 POP POP SWAP3 SWAP2 POP POP JUMP JUMPDEST PUSH1 0x0 PUSH1 0x20 DUP3 DUP5 SUB SLT ISZERO PUSH2 0x237C JUMPI PUSH2 0x237B PUSH2 0x2E14 JUMP JUMPDEST JUMPDEST PUSH1 0x0 DUP3 ADD CALLDATALOAD PUSH8 0xFFFFFFFFFFFFFFFF DUP2 GT ISZERO PUSH2 0x239A JUMPI PUSH2 0x2399 PUSH2 0x2E0F JUMP JUMPDEST JUMPDEST PUSH2 0x23A6 DUP5 DUP3 DUP6 ADD PUSH2 0x2106 JUMP JUMPDEST SWAP2 POP POP SWAP3 SWAP2 POP POP JUMP JUMPDEST PUSH1 0x0 PUSH1 0x20 DUP3 DUP5 SUB SLT ISZERO PUSH2 0x23C5 JUMPI PUSH2 0x23C4 PUSH2 0x2E14 JUMP JUMPDEST JUMPDEST PUSH1 0x0 PUSH2 0x23D3 DUP5 DUP3 DUP6 ADD PUSH2 0x2134 JUMP JUMPDEST SWAP2 POP POP SWAP3 SWAP2 POP POP JUMP JUMPDEST PUSH2 0x23E5 DUP2 PUSH2 0x2B87 JUMP JUMPDEST DUP3 MSTORE POP POP JUMP JUMPDEST PUSH2 0x23F4 DUP2 PUSH2 0x2B99 JUMP JUMPDEST DUP3 MSTORE POP POP JUMP JUMPDEST PUSH1 0x0 PUSH2 0x2405 DUP3 PUSH2 0x2A89 JUMP JUMPDEST PUSH2 0x240F DUP2 DUP6 PUSH2 0x2A9F JUMP JUMPDEST SWAP4 POP PUSH2 0x241F DUP2 DUP6 PUSH1 0x20 DUP7 ADD PUSH2 0x2C0A JUMP JUMPDEST PUSH2 0x2428 DUP2 PUSH2 0x2E19 JUMP JUMPDEST DUP5 ADD SWAP2 POP POP SWAP3 SWAP2 POP POP JUMP JUMPDEST PUSH1 0x0 PUSH2 0x243E DUP3 PUSH2 0x2A94 JUMP JUMPDEST PUSH2 0x2448 DUP2 DUP6 PUSH2 0x2AB0 JUMP JUMPDEST SWAP4 POP PUSH2 0x2458 DUP2 DUP6 PUSH1 0x20 DUP7 ADD PUSH2 0x2C0A JUMP JUMPDEST PUSH2 0x2461 DUP2 PUSH2 0x2E19 JUMP JUMPDEST DUP5 ADD SWAP2 POP POP SWAP3 SWAP2 POP POP JUMP JUMPDEST PUSH1 0x0 PUSH2 0x2477 DUP3 PUSH2 0x2A94 JUMP JUMPDEST PUSH2 0x2481 DUP2 DUP6 PUSH2 0x2AC1 JUMP JUMPDEST SWAP4 POP PUSH2 0x2491 DUP2 DUP6 PUSH1 0x20 DUP7 ADD PUSH2 0x2C0A JUMP JUMPDEST DUP1 DUP5 ADD SWAP2 POP POP SWAP3 SWAP2 POP POP JUMP JUMPDEST PUSH1 0x0 PUSH2 0x24AA PUSH1 0x13 DUP4 PUSH2 0x2AB0 JUMP JUMPDEST SWAP2 POP PUSH2 0x24B5 DUP3 PUSH2 0x2E2A JUMP JUMPDEST PUSH1 0x20 DUP3 ADD SWAP1 POP SWAP2 SWAP1 POP JUMP JUMPDEST PUSH1 0x0 PUSH2 0x24CD PUSH1 0x32 DUP4 PUSH2 0x2AB0 JUMP JUMPDEST SWAP2 POP PUSH2 0x24D8 DUP3 PUSH2 0x2E53 JUMP JUMPDEST PUSH1 0x40 DUP3 ADD SWAP1 POP SWAP2 SWAP1 POP JUMP JUMPDEST PUSH1 0x0 PUSH2 0x24F0 PUSH1 0x26 DUP4 PUSH2 0x2AB0 JUMP JUMPDEST SWAP2 POP PUSH2 0x24FB DUP3 PUSH2 0x2EA2 JUMP JUMPDEST PUSH1 0x40 DUP3 ADD SWAP1 POP SWAP2 SWAP1 POP JUMP JUMPDEST PUSH1 0x0 PUSH2 0x2513 PUSH1 0x25 DUP4 PUSH2 0x2AB0 JUMP JUMPDEST SWAP2 POP PUSH2 0x251E DUP3 PUSH2 0x2EF1 JUMP JUMPDEST PUSH1 0x40 DUP3 ADD SWAP1 POP SWAP2 SWAP1 POP JUMP JUMPDEST PUSH1 0x0 PUSH2 0x2536 PUSH1 0x1C DUP4 PUSH2 0x2AB0 JUMP JUMPDEST SWAP2 POP PUSH2 0x2541 DUP3 PUSH2 0x2F40 JUMP JUMPDEST PUSH1 0x20 DUP3 ADD SWAP1 POP SWAP2 SWAP1 POP JUMP JUMPDEST PUSH1 0x0 PUSH2 0x2559 PUSH1 0x24 DUP4 PUSH2 0x2AB0 JUMP JUMPDEST SWAP2 POP PUSH2 0x2564 DUP3 PUSH2 0x2F69 JUMP JUMPDEST PUSH1 0x40 DUP3 ADD SWAP1 POP SWAP2 SWAP1 POP JUMP JUMPDEST PUSH1 0x0 PUSH2 0x257C PUSH1 0x19 DUP4 PUSH2 0x2AB0 JUMP JUMPDEST SWAP2 POP PUSH2 0x2587 DUP3 PUSH2 0x2FB8 JUMP JUMPDEST PUSH1 0x20 DUP3 ADD SWAP1 POP SWAP2 SWAP1 POP JUMP JUMPDEST PUSH1 0x0 PUSH2 0x259F PUSH1 0x29 DUP4 PUSH2 0x2AB0 JUMP JUMPDEST SWAP2 POP PUSH2 0x25AA DUP3 PUSH2 0x2FE1 JUMP JUMPDEST PUSH1 0x40 DUP3 ADD SWAP1 POP SWAP2 SWAP1 POP JUMP JUMPDEST PUSH1 0x0 PUSH2 0x25C2 PUSH1 0x12 DUP4 PUSH2 0x2AB0 JUMP JUMPDEST SWAP2 POP PUSH2 0x25CD DUP3 PUSH2 0x3030 JUMP JUMPDEST PUSH1 0x20 DUP3 ADD SWAP1 POP SWAP2 SWAP1 POP JUMP JUMPDEST PUSH1 0x0 PUSH2 0x25E5 PUSH1 0x3E DUP4 PUSH2 0x2AB0 JUMP JUMPDEST SWAP2 POP PUSH2 0x25F0 DUP3 PUSH2 0x3059 JUMP JUMPDEST PUSH1 0x40 DUP3 ADD SWAP1 POP SWAP2 SWAP1 POP JUMP JUMPDEST PUSH1 0x0 PUSH2 0x2608 PUSH1 0x20 DUP4 PUSH2 0x2AB0 JUMP JUMPDEST SWAP2 POP PUSH2 0x2613 DUP3 PUSH2 0x30A8 JUMP JUMPDEST PUSH1 0x20 DUP3 ADD SWAP1 POP SWAP2 SWAP1 POP JUMP JUMPDEST PUSH1 0x0 PUSH2 0x262B PUSH1 0x20 DUP4 PUSH2 0x2AB0 JUMP JUMPDEST SWAP2 POP PUSH2 0x2636 DUP3 PUSH2 0x30D1 JUMP JUMPDEST PUSH1 0x20 DUP3 ADD SWAP1 POP SWAP2 SWAP1 POP JUMP JUMPDEST PUSH1 0x0 PUSH2 0x264E PUSH1 0x18 DUP4 PUSH2 0x2AB0 JUMP JUMPDEST SWAP2 POP PUSH2 0x2659 DUP3 PUSH2 0x30FA JUMP JUMPDEST PUSH1 0x20 DUP3 ADD SWAP1 POP SWAP2 SWAP1 POP JUMP JUMPDEST PUSH1 0x0 PUSH2 0x2671 PUSH1 0x21 DUP4 PUSH2 0x2AB0 JUMP JUMPDEST SWAP2 POP PUSH2 0x267C DUP3 PUSH2 0x3123 JUMP JUMPDEST PUSH1 0x40 DUP3 ADD SWAP1 POP SWAP2 SWAP1 POP JUMP JUMPDEST PUSH1 0x0 PUSH2 0x2694 PUSH1 0x1D DUP4 PUSH2 0x2AB0 JUMP JUMPDEST SWAP2 POP PUSH2 0x269F DUP3 PUSH2 0x3172 JUMP JUMPDEST PUSH1 0x20 DUP3 ADD SWAP1 POP SWAP2 SWAP1 POP JUMP JUMPDEST PUSH1 0x0 PUSH2 0x26B7 PUSH1 0x1B DUP4 PUSH2 0x2AB0 JUMP JUMPDEST SWAP2 POP PUSH2 0x26C2 DUP3 PUSH2 0x319B JUMP JUMPDEST PUSH1 0x20 DUP3 ADD SWAP1 POP SWAP2 SWAP1 POP JUMP JUMPDEST PUSH1 0x0 PUSH2 0x26DA PUSH1 0x2E DUP4 PUSH2 0x2AB0 JUMP JUMPDEST SWAP2 POP PUSH2 0x26E5 DUP3 PUSH2 0x31C4 JUMP JUMPDEST PUSH1 0x40 DUP3 ADD SWAP1 POP SWAP2 SWAP1 POP JUMP JUMPDEST PUSH2 0x26F9 DUP2 PUSH2 0x2BF1 JUMP JUMPDEST DUP3 MSTORE POP POP JUMP JUMPDEST PUSH1 0x0 PUSH2 0x270B DUP3 DUP6 PUSH2 0x246C JUMP JUMPDEST SWAP2 POP PUSH2 0x2717 DUP3 DUP5 PUSH2 0x246C JUMP JUMPDEST SWAP2 POP DUP2 SWAP1 POP SWAP4 SWAP3 POP POP POP JUMP JUMPDEST PUSH1 0x0 PUSH1 0x20 DUP3 ADD SWAP1 POP PUSH2 0x2738 PUSH1 0x0 DUP4 ADD DUP5 PUSH2 0x23DC JUMP JUMPDEST SWAP3 SWAP2 POP POP JUMP JUMPDEST PUSH1 0x0 PUSH1 0x80 DUP3 ADD SWAP1 POP PUSH2 0x2753 PUSH1 0x0 DUP4 ADD DUP8 PUSH2 0x23DC JUMP JUMPDEST PUSH2 0x2760 PUSH1 0x20 DUP4 ADD DUP7 PUSH2 0x23DC JUMP JUMPDEST PUSH2 0x276D PUSH1 0x40 DUP4 ADD DUP6 PUSH2 0x26F0 JUMP JUMPDEST DUP2 DUP2 SUB PUSH1 0x60 DUP4 ADD MSTORE PUSH2 0x277F DUP2 DUP5 PUSH2 0x23FA JUMP JUMPDEST SWAP1 POP SWAP6 SWAP5 POP POP POP POP POP JUMP JUMPDEST PUSH1 0x0 PUSH1 0x20 DUP3 ADD SWAP1 POP PUSH2 0x279F PUSH1 0x0 DUP4 ADD DUP5 PUSH2 0x23EB JUMP JUMPDEST SWAP3 SWAP2 POP POP JUMP JUMPDEST PUSH1 0x0 PUSH1 0x20 DUP3 ADD SWAP1 POP DUP2 DUP2 SUB PUSH1 0x0 DUP4 ADD MSTORE PUSH2 0x27BF DUP2 DUP5 PUSH2 0x2433 JUMP JUMPDEST SWAP1 POP SWAP3 SWAP2 POP POP JUMP JUMPDEST PUSH1 0x0 PUSH1 0x20 DUP3 ADD SWAP1 POP DUP2 DUP2 SUB PUSH1 0x0 DUP4 ADD MSTORE PUSH2 0x27E0 DUP2 PUSH2 0x249D JUMP JUMPDEST SWAP1 POP SWAP2 SWAP1 POP JUMP JUMPDEST PUSH1 0x0 PUSH1 0x20 DUP3 ADD SWAP1 POP DUP2 DUP2 SUB PUSH1 0x0 DUP4 ADD MSTORE PUSH2 0x2800 DUP2 PUSH2 0x24C0 JUMP JUMPDEST SWAP1 POP SWAP2 SWAP1 POP JUMP JUMPDEST PUSH1 0x0 PUSH1 0x20 DUP3 ADD SWAP1 POP DUP2 DUP2 SUB PUSH1 0x0 DUP4 ADD MSTORE PUSH2 0x2820 DUP2 PUSH2 0x24E3 JUMP JUMPDEST SWAP1 POP SWAP2 SWAP1 POP JUMP JUMPDEST PUSH1 0x0 PUSH1 0x20 DUP3 ADD SWAP1 POP DUP2 DUP2 SUB PUSH1 0x0 DUP4 ADD MSTORE PUSH2 0x2840 DUP2 PUSH2 0x2506 JUMP JUMPDEST SWAP1 POP SWAP2 SWAP1 POP JUMP JUMPDEST PUSH1 0x0 PUSH1 0x20 DUP3 ADD SWAP1 POP DUP2 DUP2 SUB PUSH1 0x0 DUP4 ADD MSTORE PUSH2 0x2860 DUP2 PUSH2 0x2529 JUMP JUMPDEST SWAP1 POP SWAP2 SWAP1 POP JUMP JUMPDEST PUSH1 0x0 PUSH1 0x20 DUP3 ADD SWAP1 POP DUP2 DUP2 SUB PUSH1 0x0 DUP4 ADD MSTORE PUSH2 0x2880 DUP2 PUSH2 0x254C JUMP JUMPDEST SWAP1 POP SWAP2 SWAP1 POP JUMP JUMPDEST PUSH1 0x0 PUSH1 0x20 DUP3 ADD SWAP1 POP DUP2 DUP2 SUB PUSH1 0x0 DUP4 ADD MSTORE PUSH2 0x28A0 DUP2 PUSH2 0x256F JUMP JUMPDEST SWAP1 POP SWAP2 SWAP1 POP JUMP JUMPDEST PUSH1 0x0 PUSH1 0x20 DUP3 ADD SWAP1 POP DUP2 DUP2 SUB PUSH1 0x0 DUP4 ADD MSTORE PUSH2 0x28C0 DUP2 PUSH2 0x2592 JUMP JUMPDEST SWAP1 POP SWAP2 SWAP1 POP JUMP JUMPDEST PUSH1 0x0 PUSH1 0x20 DUP3 ADD SWAP1 POP DUP2 DUP2 SUB PUSH1 0x0 DUP4 ADD MSTORE PUSH2 0x28E0 DUP2 PUSH2 0x25B5 JUMP JUMPDEST SWAP1 POP SWAP2 SWAP1 POP JUMP JUMPDEST PUSH1 0x0 PUSH1 0x20 DUP3 ADD SWAP1 POP DUP2 DUP2 SUB PUSH1 0x0 DUP4 ADD MSTORE PUSH2 0x2900 DUP2 PUSH2 0x25D8 JUMP JUMPDEST SWAP1 POP SWAP2 SWAP1 POP JUMP JUMPDEST PUSH1 0x0 PUSH1 0x20 DUP3 ADD SWAP1 POP DUP2 DUP2 SUB PUSH1 0x0 DUP4 ADD MSTORE PUSH2 0x2920 DUP2 PUSH2 0x25FB JUMP JUMPDEST SWAP1 POP SWAP2 SWAP1 POP JUMP JUMPDEST PUSH1 0x0 PUSH1 0x20 DUP3 ADD SWAP1 POP DUP2 DUP2 SUB PUSH1 0x0 DUP4 ADD MSTORE PUSH2 0x2940 DUP2 PUSH2 0x261E JUMP JUMPDEST SWAP1 POP SWAP2 SWAP1 POP JUMP JUMPDEST PUSH1 0x0 PUSH1 0x20 DUP3 ADD SWAP1 POP DUP2 DUP2 SUB PUSH1 0x0 DUP4 ADD MSTORE PUSH2 0x2960 DUP2 PUSH2 0x2641 JUMP JUMPDEST SWAP1 POP SWAP2 SWAP1 POP JUMP JUMPDEST PUSH1 0x0 PUSH1 0x20 DUP3 ADD SWAP1 POP DUP2 DUP2 SUB PUSH1 0x0 DUP4 ADD MSTORE PUSH2 0x2980 DUP2 PUSH2 0x2664 JUMP JUMPDEST SWAP1 POP SWAP2 SWAP1 POP JUMP JUMPDEST PUSH1 0x0 PUSH1 0x20 DUP3 ADD SWAP1 POP DUP2 DUP2 SUB PUSH1 0x0 DUP4 ADD MSTORE PUSH2 0x29A0 DUP2 PUSH2 0x2687 JUMP JUMPDEST SWAP1 POP SWAP2 SWAP1 POP JUMP JUMPDEST PUSH1 0x0 PUSH1 0x20 DUP3 ADD SWAP1 POP DUP2 DUP2 SUB PUSH1 0x0 DUP4 ADD MSTORE PUSH2 0x29C0 DUP2 PUSH2 0x26AA JUMP JUMPDEST SWAP1 POP SWAP2 SWAP1 POP JUMP JUMPDEST PUSH1 0x0 PUSH1 0x20 DUP3 ADD SWAP1 POP DUP2 DUP2 SUB PUSH1 0x0 DUP4 ADD MSTORE PUSH2 0x29E0 DUP2 PUSH2 0x26CD JUMP JUMPDEST SWAP1 POP SWAP2 SWAP1 POP JUMP JUMPDEST PUSH1 0x0 PUSH1 0x20 DUP3 ADD SWAP1 POP PUSH2 0x29FC PUSH1 0x0 DUP4 ADD DUP5 PUSH2 0x26F0 JUMP JUMPDEST SWAP3 SWAP2 POP POP JUMP JUMPDEST PUSH1 0x0 PUSH2 0x2A0C PUSH2 0x2A1D JUMP JUMPDEST SWAP1 POP PUSH2 0x2A18 DUP3 DUP3 PUSH2 0x2C6F JUMP JUMPDEST SWAP2 SWAP1 POP JUMP JUMPDEST PUSH1 0x0 PUSH1 0x40 MLOAD SWAP1 POP SWAP1 JUMP JUMPDEST PUSH1 0x0 PUSH8 0xFFFFFFFFFFFFFFFF DUP3 GT ISZERO PUSH2 0x2A42 JUMPI PUSH2 0x2A41 PUSH2 0x2DD6 JUMP JUMPDEST JUMPDEST PUSH2 0x2A4B DUP3 PUSH2 0x2E19 JUMP JUMPDEST SWAP1 POP PUSH1 0x20 DUP2 ADD SWAP1 POP SWAP2 SWAP1 POP JUMP JUMPDEST PUSH1 0x0 PUSH8 0xFFFFFFFFFFFFFFFF DUP3 GT ISZERO PUSH2 0x2A73 JUMPI PUSH2 0x2A72 PUSH2 0x2DD6 JUMP JUMPDEST JUMPDEST PUSH2 0x2A7C DUP3 PUSH2 0x2E19 JUMP JUMPDEST SWAP1 POP PUSH1 0x20 DUP2 ADD SWAP1 POP SWAP2 SWAP1 POP JUMP JUMPDEST PUSH1 0x0 DUP2 MLOAD SWAP1 POP SWAP2 SWAP1 POP JUMP JUMPDEST PUSH1 0x0 DUP2 MLOAD SWAP1 POP SWAP2 SWAP1 POP JUMP JUMPDEST PUSH1 0x0 DUP3 DUP3 MSTORE PUSH1 0x20 DUP3 ADD SWAP1 POP SWAP3 SWAP2 POP POP JUMP JUMPDEST PUSH1 0x0 DUP3 DUP3 MSTORE PUSH1 0x20 DUP3 ADD SWAP1 POP SWAP3 SWAP2 POP POP JUMP JUMPDEST PUSH1 0x0 DUP2 SWAP1 POP SWAP3 SWAP2 POP POP JUMP JUMPDEST PUSH1 0x0 PUSH2 0x2AD7 DUP3 PUSH2 0x2BF1 JUMP JUMPDEST SWAP2 POP PUSH2 0x2AE2 DUP4 PUSH2 0x2BF1 JUMP JUMPDEST SWAP3 POP DUP3 PUSH32 0xFFFFFFFFFFFFFFFFFFFFFFFFFFFFFFFFFFFFFFFFFFFFFFFFFFFFFFFFFFFFFFFF SUB DUP3 GT ISZERO PUSH2 0x2B17 JUMPI PUSH2 0x2B16 PUSH2 0x2D1A JUMP JUMPDEST JUMPDEST DUP3 DUP3 ADD SWAP1 POP SWAP3 SWAP2 POP POP JUMP JUMPDEST PUSH1 0x0 PUSH2 0x2B2D DUP3 PUSH2 0x2BF1 JUMP JUMPDEST SWAP2 POP PUSH2 0x2B38 DUP4 PUSH2 0x2BF1 JUMP JUMPDEST SWAP3 POP DUP3 PUSH2 0x2B48 JUMPI PUSH2 0x2B47 PUSH2 0x2D49 JUMP JUMPDEST JUMPDEST DUP3 DUP3 DIV SWAP1 POP SWAP3 SWAP2 POP POP JUMP JUMPDEST PUSH1 0x0 PUSH2 0x2B5E DUP3 PUSH2 0x2BF1 JUMP JUMPDEST SWAP2 POP PUSH2 0x2B69 DUP4 PUSH2 0x2BF1 JUMP JUMPDEST SWAP3 POP DUP3 DUP3 LT ISZERO PUSH2 0x2B7C JUMPI PUSH2 0x2B7B PUSH2 0x2D1A JUMP JUMPDEST JUMPDEST DUP3 DUP3 SUB SWAP1 POP SWAP3 SWAP2 POP POP JUMP JUMPDEST PUSH1 0x0 PUSH2 0x2B92 DUP3 PUSH2 0x2BD1 JUMP JUMPDEST SWAP1 POP SWAP2 SWAP1 POP JUMP JUMPDEST PUSH1 0x0 DUP2 ISZERO ISZERO SWAP1 POP SWAP2 SWAP1 POP JUMP JUMPDEST PUSH1 0x0 PUSH32 0xFFFFFFFF00000000000000000000000000000000000000000000000000000000 DUP3 AND SWAP1 POP SWAP2 SWAP1 POP JUMP JUMPDEST PUSH1 0x0 PUSH20 0xFFFFFFFFFFFFFFFFFFFFFFFFFFFFFFFFFFFFFFFF DUP3 AND SWAP1 POP SWAP2 SWAP1 POP JUMP JUMPDEST PUSH1 0x0 DUP2 SWAP1 POP SWAP2 SWAP1 POP JUMP JUMPDEST DUP3 DUP2 DUP4 CALLDATACOPY PUSH1 0x0 DUP4 DUP4 ADD MSTORE POP POP POP JUMP JUMPDEST PUSH1 0x0 JUMPDEST DUP4 DUP2 LT ISZERO PUSH2 0x2C28 JUMPI DUP1 DUP3 ADD MLOAD DUP2 DUP5 ADD MSTORE PUSH1 0x20 DUP2 ADD SWAP1 POP PUSH2 0x2C0D JUMP JUMPDEST DUP4 DUP2 GT ISZERO PUSH2 0x2C37 JUMPI PUSH1 0x0 DUP5 DUP5 ADD MSTORE JUMPDEST POP POP POP POP JUMP JUMPDEST PUSH1 0x0 PUSH1 0x2 DUP3 DIV SWAP1 POP PUSH1 0x1 DUP3 AND DUP1 PUSH2 0x2C55 JUMPI PUSH1 0x7F DUP3 AND SWAP2 POP JUMPDEST PUSH1 0x20 DUP3 LT DUP2 EQ ISZERO PUSH2 0x2C69 JUMPI PUSH2 0x2C68 PUSH2 0x2D78 JUMP JUMPDEST JUMPDEST POP SWAP2 SWAP1 POP JUMP JUMPDEST PUSH2 0x2C78 DUP3 PUSH2 0x2E19 JUMP JUMPDEST DUP2 ADD DUP2 DUP2 LT PUSH8 0xFFFFFFFFFFFFFFFF DUP3 GT OR ISZERO PUSH2 0x2C97 JUMPI PUSH2 0x2C96 PUSH2 0x2DD6 JUMP JUMPDEST JUMPDEST DUP1 PUSH1 0x40 MSTORE POP POP POP JUMP JUMPDEST PUSH1 0x0 PUSH2 0x2CAB DUP3 PUSH2 0x2BF1 JUMP JUMPDEST SWAP2 POP PUSH32 0xFFFFFFFFFFFFFFFFFFFFFFFFFFFFFFFFFFFFFFFFFFFFFFFFFFFFFFFFFFFFFFFF DUP3 EQ ISZERO PUSH2 0x2CDE JUMPI PUSH2 0x2CDD PUSH2 0x2D1A JUMP JUMPDEST JUMPDEST PUSH1 0x1 DUP3 ADD SWAP1 POP SWAP2 SWAP1 POP JUMP JUMPDEST PUSH1 0x0 PUSH2 0x2CF4 DUP3 PUSH2 0x2BF1 JUMP JUMPDEST SWAP2 POP PUSH2 0x2CFF DUP4 PUSH2 0x2BF1 JUMP JUMPDEST SWAP3 POP DUP3 PUSH2 0x2D0F JUMPI PUSH2 0x2D0E PUSH2 0x2D49 JUMP JUMPDEST JUMPDEST DUP3 DUP3 MOD SWAP1 POP SWAP3 SWAP2 POP POP JUMP JUMPDEST PUSH32 0x4E487B7100000000000000000000000000000000000000000000000000000000 PUSH1 0x0 MSTORE PUSH1 0x11 PUSH1 0x4 MSTORE PUSH1 0x24 PUSH1 0x0 REVERT JUMPDEST PUSH32 0x4E487B7100000000000000000000000000000000000000000000000000000000 PUSH1 0x0 MSTORE PUSH1 0x12 PUSH1 0x4 MSTORE PUSH1 0x24 PUSH1 0x0 REVERT JUMPDEST PUSH32 0x4E487B7100000000000000000000000000000000000000000000000000000000 PUSH1 0x0 MSTORE PUSH1 0x22 PUSH1 0x4 MSTORE PUSH1 0x24 PUSH1 0x0 REVERT JUMPDEST PUSH32 0x4E487B7100000000000000000000000000000000000000000000000000000000 PUSH1 0x0 MSTORE PUSH1 0x32 PUSH1 0x4 MSTORE PUSH1 0x24 PUSH1 0x0 REVERT JUMPDEST PUSH32 0x4E487B7100000000000000000000000000000000000000000000000000000000 PUSH1 0x0 MSTORE PUSH1 0x41 PUSH1 0x4 MSTORE PUSH1 0x24 PUSH1 0x0 REVERT JUMPDEST PUSH1 0x0 DUP1 REVERT JUMPDEST PUSH1 0x0 DUP1 REVERT JUMPDEST PUSH1 0x0 DUP1 REVERT JUMPDEST PUSH1 0x0 DUP1 REVERT JUMPDEST PUSH1 0x0 PUSH1 0x1F NOT PUSH1 0x1F DUP4 ADD AND SWAP1 POP SWAP2 SWAP1 POP JUMP JUMPDEST PUSH32 0x4A504547732061726520736F6C64206F75742100000000000000000000000000 PUSH1 0x0 DUP3 ADD MSTORE POP JUMP JUMPDEST PUSH32 0x4552433732313A207472616E7366657220746F206E6F6E204552433732315265 PUSH1 0x0 DUP3 ADD MSTORE PUSH32 0x63656976657220696D706C656D656E7465720000000000000000000000000000 PUSH1 0x20 DUP3 ADD MSTORE POP JUMP JUMPDEST PUSH32 0x4F776E61626C653A206E6577206F776E657220697320746865207A65726F2061 PUSH1 0x0 DUP3 ADD MSTORE PUSH32 0x6464726573730000000000000000000000000000000000000000000000000000 PUSH1 0x20 DUP3 ADD MSTORE POP JUMP JUMPDEST PUSH32 0x4552433732313A207472616E736665722066726F6D20696E636F727265637420 PUSH1 0x0 DUP3 ADD MSTORE PUSH32 0x6F776E6572000000000000000000000000000000000000000000000000000000 PUSH1 0x20 DUP3 ADD MSTORE POP JUMP JUMPDEST PUSH32 0x4552433732313A20746F6B656E20616C7265616479206D696E74656400000000 PUSH1 0x0 DUP3 ADD MSTORE POP JUMP JUMPDEST PUSH32 0x4552433732313A207472616E7366657220746F20746865207A65726F20616464 PUSH1 0x0 DUP3 ADD MSTORE PUSH32 0x7265737300000000000000000000000000000000000000000000000000000000 PUSH1 0x20 DUP3 ADD MSTORE POP JUMP JUMPDEST PUSH32 0x4552433732313A20617070726F766520746F2063616C6C657200000000000000 PUSH1 0x0 DUP3 ADD MSTORE POP JUMP JUMPDEST PUSH32 0x4552433732313A2061646472657373207A65726F206973206E6F742061207661 PUSH1 0x0 DUP3 ADD MSTORE PUSH32 0x6C6964206F776E65720000000000000000000000000000000000000000000000 PUSH1 0x20 DUP3 ADD MSTORE POP JUMP JUMPDEST PUSH32 0x45786365656473206D617820737570706C790000000000000000000000000000 PUSH1 0x0 DUP3 ADD MSTORE POP JUMP JUMPDEST PUSH32 0x4552433732313A20617070726F76652063616C6C6572206973206E6F7420746F PUSH1 0x0 DUP3 ADD MSTORE PUSH32 0x6B656E206F776E6572206E6F7220617070726F76656420666F7220616C6C0000 PUSH1 0x20 DUP3 ADD MSTORE POP JUMP JUMPDEST PUSH32 0x4552433732313A206D696E7420746F20746865207A65726F2061646472657373 PUSH1 0x0 DUP3 ADD MSTORE POP JUMP JUMPDEST PUSH32 0x4F776E61626C653A2063616C6C6572206973206E6F7420746865206F776E6572 PUSH1 0x0 DUP3 ADD MSTORE POP JUMP JUMPDEST PUSH32 0x4552433732313A20696E76616C696420746F6B656E2049440000000000000000 PUSH1 0x0 DUP3 ADD MSTORE POP JUMP JUMPDEST PUSH32 0x4552433732313A20617070726F76616C20746F2063757272656E74206F776E65 PUSH1 0x0 DUP3 ADD MSTORE PUSH32 0x7200000000000000000000000000000000000000000000000000000000000000 PUSH1 0x20 DUP3 ADD MSTORE POP JUMP JUMPDEST PUSH32 0x4E6F7420656E6F7567682045544820746F206275792061204A50454721000000 PUSH1 0x0 DUP3 ADD MSTORE POP JUMP JUMPDEST PUSH32 0x4A5045477320617265206E6F7420666F722073616C6520796574210000000000 PUSH1 0x0 DUP3 ADD MSTORE POP JUMP JUMPDEST PUSH32 0x4552433732313A2063616C6C6572206973206E6F7420746F6B656E206F776E65 PUSH1 0x0 DUP3 ADD MSTORE PUSH32 0x72206E6F7220617070726F766564000000000000000000000000000000000000 PUSH1 0x20 DUP3 ADD MSTORE POP JUMP JUMPDEST PUSH2 0x321C DUP2 PUSH2 0x2B87 JUMP JUMPDEST DUP2 EQ PUSH2 0x3227 JUMPI PUSH1 0x0 DUP1 REVERT JUMPDEST POP JUMP JUMPDEST PUSH2 0x3233 DUP2 PUSH2 0x2B99 JUMP JUMPDEST DUP2 EQ PUSH2 0x323E JUMPI PUSH1 0x0 DUP1 REVERT JUMPDEST POP JUMP JUMPDEST PUSH2 0x324A DUP2 PUSH2 0x2BA5 JUMP JUMPDEST DUP2 EQ PUSH2 0x3255 JUMPI PUSH1 0x0 DUP1 REVERT JUMPDEST POP JUMP JUMPDEST PUSH2 0x3261 DUP2 PUSH2 0x2BF1 JUMP JUMPDEST DUP2 EQ PUSH2 0x326C JUMPI PUSH1 0x0 DUP1 REVERT JUMPDEST POP JUMP INVALID LOG2 PUSH5 0x6970667358 0x22 SLT KECCAK256 0x4B SWAP14 AND STOP 0xBA PUSH24 0x4A08CEAFD079BDDB08F23A4EE300A2A55E9129D94EBAD3E3 PUSH25 0x8964736F6C6343000807003300000000000000000000000000 "
		},
		"gasEstimates": {
			"creation": {
				"codeDepositCost": "2593000",
				"executionCost": "infinite",
				"totalCost": "infinite"
			},
			"external": {
				"MAX_SUPPLY()": "441",
				"PRICE_WAVE_ONE()": "440",
				"PRICE_WAVE_THREE()": "396",
				"PRICE_WAVE_TWO()": "373",
				"adminMint(uint256)": "infinite",
				"approve(address,uint256)": "infinite",
				"balanceOf(address)": "2968",
				"currentPrice()": "2629",
				"getApproved(uint256)": "5280",
				"isApprovedForAll(address,address)": "infinite",
				"mint()": "infinite",
				"name()": "infinite",
				"owner()": "2612",
				"ownerOf(uint256)": "3004",
				"remainingSupply()": "infinite",
				"renounceOwnership()": "30509",
				"safeTransferFrom(address,address,uint256)": "infinite",
				"safeTransferFrom(address,address,uint256,bytes)": "infinite",
				"saleIsActive()": "2559",
				"setApprovalForAll(address,bool)": "infinite",
				"setBaseURI(string)": "infinite",
				"supportsInterface(bytes4)": "820",
				"symbol()": "infinite",
				"toggleSale()": "28882",
				"tokenSupply()": "2532",
				"tokenURI(uint256)": "infinite",
				"transferFrom(address,address,uint256)": "infinite",
				"transferOwnership(address)": "30857",
				"withdrawBalance()": "infinite"
			},
			"internal": {
				"_baseURI()": "infinite"
			}
		},
		"methodIdentifiers": {
			"MAX_SUPPLY()": "32cb6b0c",
			"PRICE_WAVE_ONE()": "b303b074",
			"PRICE_WAVE_THREE()": "6e92ceae",
			"PRICE_WAVE_TWO()": "e954670e",
			"adminMint(uint256)": "c1f26123",
			"approve(address,uint256)": "095ea7b3",
			"balanceOf(address)": "70a08231",
			"currentPrice()": "9d1b464a",
			"getApproved(uint256)": "081812fc",
			"isApprovedForAll(address,address)": "e985e9c5",
			"mint()": "1249c58b",
			"name()": "06fdde03",
			"owner()": "8da5cb5b",
			"ownerOf(uint256)": "6352211e",
			"remainingSupply()": "da0239a6",
			"renounceOwnership()": "715018a6",
			"safeTransferFrom(address,address,uint256)": "42842e0e",
			"safeTransferFrom(address,address,uint256,bytes)": "b88d4fde",
			"saleIsActive()": "eb8d2444",
			"setApprovalForAll(address,bool)": "a22cb465",
			"setBaseURI(string)": "55f804b3",
			"supportsInterface(bytes4)": "01ffc9a7",
			"symbol()": "95d89b41",
			"toggleSale()": "7d8966e4",
			"tokenSupply()": "7824407f",
			"tokenURI(uint256)": "c87b56dd",
			"transferFrom(address,address,uint256)": "23b872dd",
			"transferOwnership(address)": "f2fde38b",
			"withdrawBalance()": "5fd8c710"
		}
	},
	"abi": [
		{
			"inputs": [],
			"stateMutability": "nonpayable",
			"type": "constructor"
		},
		{
			"anonymous": false,
			"inputs": [
				{
					"indexed": true,
					"internalType": "address",
					"name": "owner",
					"type": "address"
				},
				{
					"indexed": true,
					"internalType": "address",
					"name": "approved",
					"type": "address"
				},
				{
					"indexed": true,
					"internalType": "uint256",
					"name": "tokenId",
					"type": "uint256"
				}
			],
			"name": "Approval",
			"type": "event"
		},
		{
			"anonymous": false,
			"inputs": [
				{
					"indexed": true,
					"internalType": "address",
					"name": "owner",
					"type": "address"
				},
				{
					"indexed": true,
					"internalType": "address",
					"name": "operator",
					"type": "address"
				},
				{
					"indexed": false,
					"internalType": "bool",
					"name": "approved",
					"type": "bool"
				}
			],
			"name": "ApprovalForAll",
			"type": "event"
		},
		{
			"anonymous": false,
			"inputs": [
				{
					"indexed": true,
					"internalType": "address",
					"name": "previousOwner",
					"type": "address"
				},
				{
					"indexed": true,
					"internalType": "address",
					"name": "newOwner",
					"type": "address"
				}
			],
			"name": "OwnershipTransferred",
			"type": "event"
		},
		{
			"anonymous": false,
			"inputs": [
				{
					"indexed": true,
					"internalType": "address",
					"name": "from",
					"type": "address"
				},
				{
					"indexed": true,
					"internalType": "address",
					"name": "to",
					"type": "address"
				},
				{
					"indexed": true,
					"internalType": "uint256",
					"name": "tokenId",
					"type": "uint256"
				}
			],
			"name": "Transfer",
			"type": "event"
		},
		{
			"inputs": [],
			"name": "MAX_SUPPLY",
			"outputs": [
				{
					"internalType": "uint256",
					"name": "",
					"type": "uint256"
				}
			],
			"stateMutability": "view",
			"type": "function"
		},
		{
			"inputs": [],
			"name": "PRICE_WAVE_ONE",
			"outputs": [
				{
					"internalType": "uint256",
					"name": "",
					"type": "uint256"
				}
			],
			"stateMutability": "view",
			"type": "function"
		},
		{
			"inputs": [],
			"name": "PRICE_WAVE_THREE",
			"outputs": [
				{
					"internalType": "uint256",
					"name": "",
					"type": "uint256"
				}
			],
			"stateMutability": "view",
			"type": "function"
		},
		{
			"inputs": [],
			"name": "PRICE_WAVE_TWO",
			"outputs": [
				{
					"internalType": "uint256",
					"name": "",
					"type": "uint256"
				}
			],
			"stateMutability": "view",
			"type": "function"
		},
		{
			"inputs": [
				{
					"internalType": "uint256",
					"name": "numberOfTokens",
					"type": "uint256"
				}
			],
			"name": "adminMint",
			"outputs": [],
			"stateMutability": "nonpayable",
			"type": "function"
		},
		{
			"inputs": [
				{
					"internalType": "address",
					"name": "to",
					"type": "address"
				},
				{
					"internalType": "uint256",
					"name": "tokenId",
					"type": "uint256"
				}
			],
			"name": "approve",
			"outputs": [],
			"stateMutability": "nonpayable",
			"type": "function"
		},
		{
			"inputs": [
				{
					"internalType": "address",
					"name": "owner",
					"type": "address"
				}
			],
			"name": "balanceOf",
			"outputs": [
				{
					"internalType": "uint256",
					"name": "",
					"type": "uint256"
				}
			],
			"stateMutability": "view",
			"type": "function"
		},
		{
			"inputs": [],
			"name": "currentPrice",
			"outputs": [
				{
					"internalType": "uint256",
					"name": "",
					"type": "uint256"
				}
			],
			"stateMutability": "view",
			"type": "function"
		},
		{
			"inputs": [
				{
					"internalType": "uint256",
					"name": "tokenId",
					"type": "uint256"
				}
			],
			"name": "getApproved",
			"outputs": [
				{
					"internalType": "address",
					"name": "",
					"type": "address"
				}
			],
			"stateMutability": "view",
			"type": "function"
		},
		{
			"inputs": [
				{
					"internalType": "address",
					"name": "owner",
					"type": "address"
				},
				{
					"internalType": "address",
					"name": "operator",
					"type": "address"
				}
			],
			"name": "isApprovedForAll",
			"outputs": [
				{
					"internalType": "bool",
					"name": "",
					"type": "bool"
				}
			],
			"stateMutability": "view",
			"type": "function"
		},
		{
			"inputs": [],
			"name": "mint",
			"outputs": [],
			"stateMutability": "payable",
			"type": "function"
		},
		{
			"inputs": [],
			"name": "name",
			"outputs": [
				{
					"internalType": "string",
					"name": "",
					"type": "string"
				}
			],
			"stateMutability": "view",
			"type": "function"
		},
		{
			"inputs": [],
			"name": "owner",
			"outputs": [
				{
					"internalType": "address",
					"name": "",
					"type": "address"
				}
			],
			"stateMutability": "view",
			"type": "function"
		},
		{
			"inputs": [
				{
					"internalType": "uint256",
					"name": "tokenId",
					"type": "uint256"
				}
			],
			"name": "ownerOf",
			"outputs": [
				{
					"internalType": "address",
					"name": "",
					"type": "address"
				}
			],
			"stateMutability": "view",
			"type": "function"
		},
		{
			"inputs": [],
			"name": "remainingSupply",
			"outputs": [
				{
					"internalType": "uint256",
					"name": "",
					"type": "uint256"
				}
			],
			"stateMutability": "view",
			"type": "function"
		},
		{
			"inputs": [],
			"name": "renounceOwnership",
			"outputs": [],
			"stateMutability": "nonpayable",
			"type": "function"
		},
		{
			"inputs": [
				{
					"internalType": "address",
					"name": "from",
					"type": "address"
				},
				{
					"internalType": "address",
					"name": "to",
					"type": "address"
				},
				{
					"internalType": "uint256",
					"name": "tokenId",
					"type": "uint256"
				}
			],
			"name": "safeTransferFrom",
			"outputs": [],
			"stateMutability": "nonpayable",
			"type": "function"
		},
		{
			"inputs": [
				{
					"internalType": "address",
					"name": "from",
					"type": "address"
				},
				{
					"internalType": "address",
					"name": "to",
					"type": "address"
				},
				{
					"internalType": "uint256",
					"name": "tokenId",
					"type": "uint256"
				},
				{
					"internalType": "bytes",
					"name": "data",
					"type": "bytes"
				}
			],
			"name": "safeTransferFrom",
			"outputs": [],
			"stateMutability": "nonpayable",
			"type": "function"
		},
		{
			"inputs": [],
			"name": "saleIsActive",
			"outputs": [
				{
					"internalType": "bool",
					"name": "",
					"type": "bool"
				}
			],
			"stateMutability": "view",
			"type": "function"
		},
		{
			"inputs": [
				{
					"internalType": "address",
					"name": "operator",
					"type": "address"
				},
				{
					"internalType": "bool",
					"name": "approved",
					"type": "bool"
				}
			],
			"name": "setApprovalForAll",
			"outputs": [],
			"stateMutability": "nonpayable",
			"type": "function"
		},
		{
			"inputs": [
				{
					"internalType": "string",
					"name": "baseURI",
					"type": "string"
				}
			],
			"name": "setBaseURI",
			"outputs": [],
			"stateMutability": "nonpayable",
			"type": "function"
		},
		{
			"inputs": [
				{
					"internalType": "bytes4",
					"name": "interfaceId",
					"type": "bytes4"
				}
			],
			"name": "supportsInterface",
			"outputs": [
				{
					"internalType": "bool",
					"name": "",
					"type": "bool"
				}
			],
			"stateMutability": "view",
			"type": "function"
		},
		{
			"inputs": [],
			"name": "symbol",
			"outputs": [
				{
					"internalType": "string",
					"name": "",
					"type": "string"
				}
			],
			"stateMutability": "view",
			"type": "function"
		},
		{
			"inputs": [],
			"name": "toggleSale",
			"outputs": [],
			"stateMutability": "nonpayable",
			"type": "function"
		},
		{
			"inputs": [],
			"name": "tokenSupply",
			"outputs": [
				{
					"internalType": "uint256",
					"name": "",
					"type": "uint256"
				}
			],
			"stateMutability": "view",
			"type": "function"
		},
		{
			"inputs": [
				{
					"internalType": "uint256",
					"name": "tokenId",
					"type": "uint256"
				}
			],
			"name": "tokenURI",
			"outputs": [
				{
					"internalType": "string",
					"name": "",
					"type": "string"
				}
			],
			"stateMutability": "view",
			"type": "function"
		},
		{
			"inputs": [
				{
					"internalType": "address",
					"name": "from",
					"type": "address"
				},
				{
					"internalType": "address",
					"name": "to",
					"type": "address"
				},
				{
					"internalType": "uint256",
					"name": "tokenId",
					"type": "uint256"
				}
			],
			"name": "transferFrom",
			"outputs": [],
			"stateMutability": "nonpayable",
			"type": "function"
		},
		{
			"inputs": [
				{
					"internalType": "address",
					"name": "newOwner",
					"type": "address"
				}
			],
			"name": "transferOwnership",
			"outputs": [],
			"stateMutability": "nonpayable",
			"type": "function"
		},
		{
			"inputs": [],
			"name": "withdrawBalance",
			"outputs": [],
			"stateMutability": "nonpayable",
			"type": "function"
		}
	]
}